:04000005101D764311
:02000004101DCD
:1000000000C00E0843761D100D000000A1761D10E3
:1000100000000000000000000000000000000000E0
:100020000000000000000000000000009D761D1090
:1000300000000000000000009D761D109D761D1040
:100040009D761D109D761D109D761D109D761D10B0
:100050009D761D109D761D109D761D109D761D10A0
:100060009D761D109D761D109D761D109D761D1090
:100070009D761D109D761D109D761D109D761D1080
:1000800010B5064C2378002B07D1054B002B02D06E
:10009000044800E000BF0123237010BD4498050808
:1000A0000000000094E01D10044B10B5002B03D09D
:1000B0000349044800E000BF10BDC0460000000036
:1000C0004898050894E01D10012801D101207047CF
:1000D0000220FCE710B51022044908F049FE002870
:1000E00001D1013010BD0220FCE7C046C0C31D1085
:1000F00004280AD0052804D101390800411E88418E
:100100007047401A41424841FAE70120F8E7806809
:100110002838704730B587B004000D008168103969
:10012000102302AA01F078FD00284BDB01283FD004
:1001300002A8FFF7CFFF28702000FFF7E8FF0100BB
:1001400001236A460732200001F066FD00283CDBEF
:100150006B4607331B780F221A406A701B092B71FC
:10016000012801D0042A03D901236B7000232B71CD
:10017000A1682039AA1C0123200001F04DFD0028B0
:1001800025DB012817D0A878FFF79EFFA870A1688B
:100190001839EA1C0123200001F03EFD002818DB7D
:1001A00001280BD0E878FFF78FFFE87000200AE005
:1001B00003232B70C0E70323AB70E8E70323EB7046
:1001C000002000E0012007B030BD0120FBE7012046
:1001D000F9E70120F7E710B582B00C00C0B201A921
:1001E00001F050FC002803D00124200002B010BD13
:1001F00021000198FFF78EFF0400019801F056FCE2
:10020000F3E7000030B585B0041E05D0012801D009
:10021000FF2002E0052000E0012002A9FFF7DBFF3C
:10022000002861D1002C05D0012C01D0FF2002E074
:10023000063000E002206946FFF7CDFF002855D1C7
:10024000002407E02B79042B28D002AA927893424D
:1002500024D00134022C3CD863001B195A00244DD1
:10026000AD1802AB19782878FFF742FF0028F0D0CC
:100270006B4619786878FFF73BFF0028E9D0AB7828
:10028000042B03D002AAD2789342E2D1EB78042B5C
:10029000D8D06A46D2789342DBD1D3E7154B1B689E
:1002A000D8686B79022B07D0032B10D0042B01D018
:1002B000114A02E0114A00E0114A124908F0C0FC5C
:1002C0006879831EDBB2022B0CD9FF200AE00E4AAC
:1002D000F3E7084B1B68DB68172201210B4808F085
:1002E00011FD012005B030BDFF20FBE7FF20F9E73D
:1002F000D0C31D101C910508F4C31D1008C41D10A7
:10030000ECC31D1010C41D10E4C31D1028C41D1023
:1003100010B50B4B02689A4201D0002010BDC26894
:100320000389D843824208D8D41801200028F5D088
:100330008B68A342F2D80020F0E70020F6E7C04621
:100340003DB8F3960A7803789A420BD80CD34A78D2
:1003500043789A420AD80BD34A8843889A4209D2F2
:10036000082070470020FCE70820FAE70020F8E7A3
:100370000820F6E70020F4E770B504000D78401976
:10038000BC300278013A531E9A41D2B22C23534317
:1003900058226A439B181033E3180433081D1900D0
:1003A000FFF7D0FF00280ED0BF23E35CE218BC3279
:1003B0001278012A08D0002A05D0032A03D8E418AD
:1003C000BC340123237070BDE418BC3404232370B3
:1003D000F9E710B5BF23C25C002A1AD0002916D154
:1003E0008318BC331B78012B13D0042B11D00023AE
:1003F00001E00133DBB29A420BD9C118BC31097854
:100400000429F6D1C118BC3101240C70F1E7002396
:10041000F1E710BD70B50500BF23C25C673B5343D5
:10042000C318186A01F0BEFBC4B2B023E85801F04B
:10043000B9FBC0B2844200D270BD2000FCE710B509
:100440000C00081D0822002108F0AAFC01232360EB
:100450002371A371002010BDF0B583B004000F001C
:10046000BF23C05C01F0A5FBC0B201A901F00AFBEB
:10047000051E22D1019801F0BBFB0600019801F096
:1004800015FBBF23E25C2C217943673B5343C9181A
:1004900064180023032B05D8E25C964208D101338F
:1004A000DBB2F7E70123002B04D0280003B0F0BD36
:1004B0000023F8E701256D42F7E701256D42F4E7D7
:1004C000F0B5DE4657464E464546E0B585B0BF23FB
:1004D000C35C9C46582362465343C3189F6A5B6DB6
:1004E0009846E8239B019F420ED898450CD8B0232C
:1004F000C3589B689A4600260024002100230393DA
:1005000000220293019028E04B4B1B68DB683122EC
:1005100001214A4808F0F6FB002005B03CBC90469B
:100520009946A246AB46F0BD582560464543019822
:1005300081464D44C8008346686A8146CB4458468C
:10054000406883465B442D6DE00083465D446D68E2
:1005500052190131013493423CD0B94201D3444590
:1005600054D29342E0D01AD25825604645430198B0
:1005700081464D446D6AC80083465D446D685B19D1
:10058000022E02D001310126E5E72B4B1B68DB6808
:10059000392201212A4808F0B5FB0020BDE7582583
:1005A00060464543019881464D442D6DE0008346E9
:1005B0005D446D685219012E02D001340226CAE74B
:1005C0001D4B1B68DB68392201211D4808F09AFB8E
:1005D0000020A2E702988146994448460290039879
:1005E0008346934458460390534505D8524503D853
:1005F000002600220023B0E70F4B1B68DB683A227D
:100600000121104808F07EFB002086E7029B9946F6
:10061000B94201D1444509D0074B1B68DB68302241
:100620000121094808F06EFB002076E7039B9945FD
:10063000F2D1012071E7C0461C91050888C51D1044
:10064000BCC51D10F8C51D1034C61D1010B582B0F4
:100650000B00E82292010192BF22845C002C05D09D
:10066000012C01D0FF2202E0BA3A00E001229A42B6
:1006700005D0002C15D0012C11D0FF2212E05822F9
:1006800054430219526A2834041901A9180001F0D0
:10069000E3FA002801D1019B236002B010BD0622BD
:1006A00000E002229A4203D0032B08D00120F4E795
:1006B000582254430219126D54340419E5E7B42248
:1006C0008258B8300400E0E770B50400BF23C55C71
:1006D000002D05D0012D01D0FF2102E0052100E011
:1006E00001212000FFF7B2FF00281DD1002D05D009
:1006F000012D01D0FF2102E0062100E002212000AF
:10070000FFF7A4FF002801D001250EE003212000FF
:10071000FFF79CFF051E01D0012506E02000FFF732
:1007200079FEBE23E05400E00125280070BD0000E2
:1007300030B58FB005000C00BF23C05C01F039FA62
:10074000C0B20DA901F09EF9002839D1BF23EA5C9F
:100750002C216143673B5343C91869180123009357
:100760003F330D9A07A800F0D3FB041E22D10023CB
:100770000A226A4403A907A800F03CFC002827DBF2
:1007800018DC0A236B441B880C2B1BD104AA039989
:100790000D9801F08DF9002816D104AB1A780E4B94
:1007A0001B789A4212D204A92800FFF7E5FD002821
:1007B000DDD004000D9801F079F920000FB030BDB4
:1007C0000124F7E70324F5E70124F3E70724F1E721
:1007D00001246442F1E7C0468090050810B504008A
:1007E000BF230022C2541000BF23E35C154A1278D5
:1007F000934225D2E318BC331B78012B0CD0052B78
:100800000CD100212000FFF793FF002808D1BF2260
:10081000A35C0133A354E7E70021F3E70121F1E7EB
:1008200008280DD1002207E0D3B2BF216354E3189A
:10083000BC33BE3919705218024B1B789342F3DC5B
:1008400010BDC04680900508F0B5D646474680B535
:1008500083B0009101929A460A9B98460B9F00250F
:1008600012E05346E9182300114A009801F020F9DC
:10087000002818D14346E91823000D4A019801F0D9
:100880003FF9002811D12D19BD4206D27C1B8023CF
:10089000DB009C42E5D91C00E3E7002003B00CBC60
:1008A00090469A46F0BD0120F8E70120F6E7C046E1
:1008B0002099050810B582B01400BF23C05C01F078
:1008C00078F9C0B201A901F0DDF8002806D00124B2
:1008D000019801F0EBF8200002B010BD20232200A7
:1008E0000021019801F0E4F8041EF1D00124EFE7A3
:1008F00070B506000C000025012D15DCBF23F15C4E
:100900002C226A43673B4B43D218B21829003000AF
:10091000FFF7D0FF002801D10135EDE7002D04DD00
:10092000002C02D1002000E0002070BDF0B5C646CA
:1009300000B584B00500464C2368DB6834220121F1
:10094000444808F0DFF92368DB682022012142488F
:1009500008F0D8F9BF23EC5C002C05D0012C01D0A5
:10096000FF2002E0052000E0012003A901F08AF841
:100970004342584100F0FEFE002C05D0012C01D06E
:10098000FF2002E0062000E0022002A901F07AF830
:100990004342584100F0EEFEBF23EA5C673B5343FD
:1009A000EB189B6A98460026002413E0BF23EA5CFC
:1009B000673B5343EB185B6AE2009B185F683A00A1
:1009C0003100039801F0C6F84342584100F0D2FECE
:1009D000F61901344445E9D31D4B1B68D868320031
:1009E0001E4908F02DF9019600230093039A0299FD
:1009F0002800FFF729FFBF26AB5D58246343EB189F
:100A00001B6D5A680021029801F0A4F84342584136
:100A100000F0B0FEAB5D5C432D196B6D013B2A6DA0
:100A2000DB00D31811681A68511A5A68029801F04D
:100A300091F84342584100F09DFE039801F036F8CA
:100A4000029801F033F8002004B004BC9046F0BDD9
:100A50001C91050840C41D1078C41D109CC41D10B5
:100A600010B5FFF763FF04006042604100F082FEB2
:100A7000200010BD10B586B00C001300BF22815CB1
:100A8000002004900390029041320192054A0092A6
:100A9000220000F0C3FB002801D106B010BD0320E6
:100AA000FBE7C04620AD0E08F0B585B007000C008E
:100AB0000192BF23C05C01F07CF8C0B203A900F032
:100AC000E1FF00283FD1BF23FD5C2C306043673B32
:100AD0006B43C0183E1821003800FFF7BDFC00280A
:100AE00028D03369DB062CD4039D29003000FFF7A2
:100AF0000FFC00280DD1002C14D1144B1B68D868B2
:100B0000002C15D1124A134908F09AF801256D42BC
:100B100011E0019B2A0031003800FFF7ABFF051EF2
:100B200009D0E8E703988268002101F013F8E4E7B0
:100B3000094AE8E70125039800F0B8FF280005B04E
:100B4000F0BD0125F7E701256D42F7E71C91050887
:100B500068C61D107CC61D1070C61D1070B505003E
:100B60000E00BF23C05CFFF74DFB0400022805D038
:100B7000042803D0032801D0200070BD32000121D9
:100B80002800FFF791FF012803D00028F4D00524A6
:100B9000F2E70400F0E7000070B504000D00FFF775
:100BA00093FD002811D100212000FFF7A1FE0028AD
:100BB0001AD12000FFF784FC002823D1BF23E35C77
:100BC000E418BC34012323700DE03D4B1B68D8684A
:100BD000E82292013B4908F033F8BF23E35CE418B4
:100BE000BC340123237070BD354B1B68D868BF250A
:100BF000625D354908F024F8635DE418BC340123D4
:100C00002370F0E729002000FFF719FC00281CD111
:100C10002B68012B27D02D4B1B78012B03D90121E9
:100C20002000FFF7D6FB002000F0A4FD00212000EB
:100C3000FFF75EFE4342584100F09CFDBF23E35C9A
:100C4000E418BC3401232370CDE71D4B1B68D86822
:100C5000BF25625D1E4907F0F3FF635DE418BC34F5
:100C600001232370BFE72B79012BD4D1AB79012B62
:100C70000DD02A0001212000FFF716FF002818D010
:100C8000BF23E35CE318BC3305221A7008E0290097
:100C90002000FFF763FFBF23E35CE318BC33187049
:100CA0000A4B1B78012B9ED900212000FFF791FBF6
:100CB00099E7BF23E35CAA79E318BC331A70EFE726
:100CC0001C910508E0C41D1028C51D108090050862
:100CD00058C51D10F0B5C64600B584B0040088465E
:100CE000C022002108F05CF8BF230022E254002754
:100CF00035E03100280000F05CFFC0B2BF23E25CA9
:100D00002C217143673B5343C9182031611800F00F
:100D1000B9FE4342584100F02DFD0136012EE8D9BD
:100D20002100B031032000F0ADFE050068426841AB
:100D300000F020FD01A92000FFF72EFFBF23E35C98
:100D4000E218BC321278022A05D0042A23D0032AE2
:100D500002D1012700E001270133BF22A354BF23A2
:100D6000E25C614B1B789A4217D21500D3009B1AA4
:100D70009B00981801035D480818582151436118D9
:100D800048629B181A035A4BD2180A65B423594A71
:100D9000E2500026C2E70127DEE7012B01D9002F30
:100DA00003D1BF230022E25427E02000FFF716FD05
:100DB00005000828F5D10025F3E70822002102A844
:100DC00007F0EEFF0123019301AA13711DE0052B2B
:100DD00009D025E001A92000FFF742FE0500684286
:100DE000684100F0C7FCBF23E35CE218BC32127814
:100DF000FF2A1AD00133BF22A354BF23E65C3A4B2B
:100E00001B789E421DD2012BD7D8A319BC331B7867
:100E100001AA9371042BDAD8022BDBD2012BE2D08A
:100E2000A619BC36FF233370DDE7334B1B68DB6844
:100E3000F13A0121314807F065FF002000F09AFCEB
:100E4000FEE7BF230022E2540AE000220021200036
:100E5000FFF72AFE051E20D1BF22A35C0133A35455
:100E6000BF23E35C204A127893420ED2E318BC33CE
:100E70001B78012BE9D000212000FFF739FD051E6A
:100E8000E3D0BF230022E2541DE0236A5A78414692
:100E90000A715B688B600C60F3E70325F1E7BF2301
:100EA000E05C0121891B933B4B43582242439B1832
:100EB000E318186A00F0FAFD0136012EEFD9BF22BF
:100EC000A35C0133A354BF23E25C074B1B789A4217
:100ED00005D2B023E05800F0E9FD0026EDE7280038
:100EE00004B004BC9046F0BD80900508209D050824
:100EF000200D0B08203D09081C910508A8C61D10EF
:100F000010B501000148FFF7E5FE10BD6098050827
:100F1000F0B5D6464F4680B585B004000E001700E8
:100F200099460CAB1B789A46002842D0002944D041
:100F3000002A46D00D89CB689C466544042303AA49
:100F40002900380000F0B4FD019000283DD103AB2A
:100F50001A88264B9A421CD07389002B3DD103ABD3
:100F60001A88234B9A423CD1266067604B46237215
:100F70005346637273895B19E36003AA52889B1816
:100F8000636104352561019805B00CBC91469A4611
:100F9000F0BD738903AA51888B421AD149190423E1
:100FA000380000F085FD0028D9D001235B42019371
:100FB000E9E701235B420193E5E701235B420193EB
:100FC000E1E701235B420193DDE701235B420193EB
:100FD000D9E701235B420193D5E701235B420193EB
:100FE000D1E701235B420193CDE7C04608690000C9
:100FF00007690000F0B583B004000F0016001D0063
:10100000002847D00368002B47D04368002B1FD12E
:10101000012040423AE0042301AA2169606800F0FF
:1010200047FD00283CD1637A002B03D02369E26896
:10103000934238D2237AFF2B18D001AA1278934218
:1010400014D001AB5B882269944663440433236166
:101050002369626993421BD222685289002ADAD03E
:10106000E2689A42D7D104332361D4E7002D02D03D
:1010700001AB1B782B70236904333B6001AB5B88A9
:1010800033802269944663440433236103B0F0BD86
:101090000120FBE701204042F8E701204042F5E74C
:1010A00001204042F2E70120F0E703785A1ED2B255
:1010B000012A08D9053BDBB2012B01D8012070477A
:1010C00001204042FBE70020F9E70378012B0AD01A
:1010D000052B0AD0022B0AD0062B01D10120704724
:1010E00001204042FBE70020F9E70020F7E701205C
:1010F000F5E7000070B50500FFF7D7FF041E15DB0C
:101100002800FFF7E2FF002812DB07DDA3001C190F
:10111000E200084B9B182333187808E0A3001C1941
:10112000E200044B9B182033187800E0002070BDCB
:101130000020FCE798B00E0810B50C00FFF7B5FFD3
:10114000002809DB83001818C300044A985C001BC0
:10115000431E9841C0B210BD0120FCE798B00E08B4
:1011600010B50400FFF7B1FF00280EDB0FDD2000F3
:10117000FFF79BFF00280CDB83001818C200064B0A
:101180009B1858780123584000E0012010BD002032
:10119000FCE70120FAE7C04698B00E08F0B5A9B008
:1011A00014001E001C4901A802F03EFF002831D1A6
:1011B000319B002B02D0329B002B09DC002829D167
:1011C0002389E268944663446789FF18002513E089
:1011D0001A00319901A802F037FFEFE723002E9A99
:1011E0002900300000F064FC002813D122002E9961
:1011F00001A802F029FF2D19BD4205D27C1B2F9BAF
:101200009C42EBD91C00E9E76B462022309901A8EB
:1012100002F02AFF29B0F0BD09000001F0B5C64672
:1012200000B5BAB016001D001F2302AA94466344FD
:1012300000221A70439B0493429B03930AAB0293D0
:10124000419B0193409B00932B003200FFF7A6FFC8
:10125000041E0CD1449B002B04D020220AA91800A4
:1012600007F095FD2800FFF77BFF041E04D0200047
:101270003AB004BC9046F0BD00230093FF332A002F
:10128000310032A8FFF744FE041EF0D1060007909B
:1012900080461BE00126764218E00123079315E003
:1012A000012B13D1DA2302AA944663441B88202B16
:1012B00000D995E012AA3999280000F0F9FB00281E
:1012C00000D090E02800FFF715FF0600D92302AAFE
:1012D00094466344DA22624439A932A8FFF78AFEB1
:1012E000002870DB65DCD92302AA944663441B788E
:1012F000102B21D0DAB2102AD2D9222B34D0DBB273
:10130000812BE3D1593302AA944663441B881F22E0
:1013100062443999280000F0CBFB002856D11F23E6
:1013200002AA9446634419782800FFF705FF0028B5
:10133000CCD0012464429AE7DA2302AA944663449B
:101340001B88202B44D112AA3999280000F0B0FB49
:10135000002840D1202212A90AA807F009FD002880
:101360003BD101239846B1E7731E092B92D8DA23AB
:1013700002AA944663441B881A00483A92B2382A5B
:1013800033D812AA3999280000F092FB071E2FD1FA
:10139000DA2302AA944663441B88F6B2009612AA86
:1013A00020210AA800F0C2F9061E00D175E73E0010
:1013B0008CE74346002B1ED0079B002B00D056E73E
:1013C0000124644253E70124644250E704004EE7DD
:1013D000012464424BE7040049E70124644246E7E4
:1013E0000124644243E7040041E7012464423EE7EC
:1013F000012464423BE70124644238E710B5846865
:1014000003681B89E418174B1B68D868220016492B
:1014100007F016FC154B1B78032B0DD8022B19D2A5
:10142000012B13D00F4B1B68DB68252201211048CC
:1014300007F068FC30BFFDE7042BF3D106210E2036
:1014400003F03CFB200002F0CBF802E0200002F0A9
:1014500073F810BD0221002003F030FB200002F0E1
:101460006BF8F6E71C910508B8C61D1098B00E0879
:10147000D8C61D1070B588B000F0D0F900F0E8F8BB
:101480005E4C2368DB685E4D09220121280007F0CD
:1014900039FC2368DB685B4E40220121300007F0F5
:1014A00031FC2368D868D4235B00019300230093A8
:1014B00001330122544907F0C3FB2368DB68402253
:1014C0000121300007F01EFC2368DB68092201219E
:1014D000280007F017FC2368DB68212201214B4814
:1014E00007F010FC802004AA03A9400001F02AFFA5
:1014F00000284AD000284FD10123454A1370454A9D
:1015000013707F215170444B186950605869906086
:10151000424A02201070517099695160D9699160F6
:101520001B7B012B04D13C4A3333D35C83423CD038
:10153000324B1B68D8680122394907F081FB394BCF
:1015400000221A707F325A7037495960FE21090211
:101550009960364B032119705A70354A5A608022BF
:1015600052019A6005A8FFF7CBFC002839D0234B25
:101570001B68DB68372201212E4807F0C3FB0020DF
:1015800000F0F8F8002008B070BD00232A4A224974
:10159000039800F0FDFBADE7184B1B68DB68020009
:1015A0002649180007F04CFBDCE70200184B1870C6
:1015B000234B052119707D30587017498C6B5C6086
:1015C000CC6B9C601F4B06241C705870086C5860D4
:1015D000496C9960094B1B68D8681B4907F030FBC0
:1015E000ADE7064B1B68DB682F220121174807F087
:1015F00089FB05A8FFF702FFC4E7C0461C91050858
:1016000000C71D100CC71D1050C71D1088C71D1026
:10161000809005082CAE0E0898B00E0850AE0E084B
:1016200000C81D1020AE0E0800001D1044AE0E08AC
:1016300000F01C1050C81D1028B20E08ACC71D10B9
:1016400038AE0E085CAE0E08DCC71D1020C81D1099
:1016500010B562B604F094FB0949C02252008B58C1
:10166000012083438B50074A0021074803F09CFA6E
:10167000E122A0215202C902044805F0AFFF10BDCB
:101680000000264088C81D10800031400100050080
:10169000F8B504000D000178302914D09526764263
:1016A000002E18D0002E23D16146615C02291FD084
:1016B00095267642002E37D1202B00DD2023202ACC
:1016C00027DD202225E08178022902D09526764266
:1016D000E8E70026E4E740220021280007F060FB4D
:1016E000E3785A1DA25C191D8C469F1DBF18D9E7CF
:1016F000002EDFD16078991804318842DAD095261F
:10170000764211E06146C81A2021C91A205C68544B
:10171000013B002BF6DC05E0B91A40239B1A615C03
:10172000E954013A002AF7DC3000F8BD30B595B035
:10173000040018AB1D7804A91000FFF7A9FF0028CA
:1017400003D0002807D015B030BD0E216944280011
:1017500002F09CFCF5E70E236B44188840230193AC
:1017600004AB009320232200014902F049FCEAE780
:101770000900061010B5002800D010BD1E4B1B68D4
:10178000DB68472201211D4807F0BCFA01F0BEFECC
:10179000002809D11A4B1B68002B0EDB194804F0F6
:1017A00041FF0AF0EDFDE8E7134B1B68DB68020020
:1017B0001549180007F044FAECE7144B1A682E2379
:1017C000D35C022B12D9114B1A68136AAC21525AFE
:1017D00052009B180E4ADA60074B1B68DB68112227
:1017E000AB390C4807F08EFA72B6D7E7E921490009
:1017F000094803F0B1F9E6E71C910508BCC81D10C3
:10180000000126400040001604C91D10B8B20E08A1
:1018100021433412B8C91D1034C91D1010B50C482D
:1018200002F08CFF04F098FE0A4A8021032004F0A5
:1018300087FB094802F088FF084B1A684D23D35CE8
:10184000002B00D110BD064802F0FAFFFAE7C046AF
:101850007CD11D1000C00E0868AE0E08B8B20E088C
:10186000CCC91D1010B50B000100180007F08FFA4D
:10187000002010BDF0B5D6464F464646C0B5374CA1
:10188000A54480461700364B994205D98B18354A36
:1018900093420ED9002300E00023002B52D0F02306
:1018A0001B06CE18730A99465C02002500239C464D
:1018B0002AE00123F1E780225205A2181278684637
:1018C000C25401340133284A934217D8B442F2D3A8
:1018D000BD42F0D24246521910786946C85451466A
:1018E000002909D18021490560180078C0B212781A
:1018F000904201D0012292460135E2E75346002B87
:101900000AD101239A46D144BD420ED26346002B30
:101910000BD100239A46D6E78020000348444002BA
:10192000694602F09BFC8446EBE7104B9C4512D0C5
:101930000F4B9C450FD06346002B01D0022002E0E4
:10194000002000E0012080239B009D441CBC9046A9
:101950009946A246F0BD0120F5E7C04600FEFFFF14
:10196000FFFFFF0F00001D10FF01000002005200EA
:101970000600520010B50B0001001800FFF77AFFB7
:1019800010BD0000F0B5CE46474680B5394CA544A1
:101990004718C305DB0D9846FB05DB0D9946460A43
:1019A0007C0A4346002B00D00136A41B75020020A0
:1019B000002C10D0280002F005FC002805D180235F
:1019C0009B009C466544013CF2E72B4B2B4A7E2151
:1019D0002B4807F017F94346002B09D14B46002B43
:1019E00025D181239B009D440CBC90469946F0BDB7
:1019F000013E760242463100684607F0C8F93000E1
:101A000002F0E0FB00280CD1424631006846FFF7A7
:101A100031FF0028E2D0184B184A9521184807F0EA
:101A2000F1F8154B154A9121154807F0EBF87D0A9E
:101A30006D028024A400E41A22003900684607F0F1
:101A4000A6F9280002F0BEFB00280CD122003900C4
:101A50006846FFF70FFF0028C3D0074B074AA621AF
:101A6000074807F0CFF8044B044AA221044807F0C6
:101A7000C9F8C046FCFDFFFF14CA1D1000CA1D10A6
:101A80001CCA1D1010B500229300074C1B59002BD7
:101A900007D01C78844201D00132F5E70B600020AA
:101AA00001E00120404210BD84900508704700000D
:101AB00010B5140042787F2A17D14068884208D9AF
:101AC000CA1890420BD940181A002100FFF7CAFE2D
:101AD00010BD074B074AFA21074807F093F8074B58
:101AE000044AFB21044807F08DF801204042EFE74B
:101AF00014CB1D1090CA1D1028CB1D1098CB1D10A3
:101B000010B5140042787F2A19D14068884208D95C
:101B1000CA1890420CD940181A002100FFF72AFF7A
:101B200010BD1A21074B084AFF31084807F06AF830
:101B30008D21074B044A4900044807F063F801204F
:101B40004042EDE714CB1D10A0CA1D1028CB1D107C
:101B500098CB1D1010B543787F2B18D14068884270
:101B600007D98B1898420BD940181100FFF70AFFCC
:101B700010BD9B21074B084A4900084807F042F86E
:101B80003821074B044AFF31044807F03BF8012095
:101B90004042EDE714CB1D10B4CA1D1028CB1D1018
:101BA00098CB1D1043787F2B01D0FF2070478020F9
:101BB000FCE7012910D0022904D0002904D001201B
:101BC000404200E00320704700280DD0012801D0DA
:101BD000FF20F8E70430F6E7002807D0012801D0FD
:101BE000FF20F0E70530EEE70120ECE70220EAE70E
:101BF00010B543787F2B01D1002010BDB621034BD7
:101C0000034AFF31034806F0FDFFC046F8CA1D1025
:101C1000C8CA1D1028CB1D10F0B583B00090150068
:101C20001E00FFF745FF0190002810D10024B442A8
:101C300008D22F5D0098FFF7DBFF874204D1013403
:101C4000E4B2F4E701230193019803B0F0BD01234E
:101C50005B420193F8E7000070B50024A3001A4D21
:101C60005B59002B05D01D78854201D00134F5E782
:101C70001E00002B22D073787F2B22D1B36813482B
:101C8000844663445D0A0B68AB4202D3746800204B
:101C90000FE0FC210E4B0F4A49000F4806F0B2FF3F
:101CA000C300D3188026B6005E601C60B44664444E
:101CB0000130A842F4D30D60002070BD01204042E5
:101CC000FBE701204042F8E784900508FF0100008F
:101CD00000CB1D10E0CA1D1028CB1D10F0B58DB033
:101CE0000C000292039312AB20CB1E7800230B93BF
:101CF0000A930AAA0BA900F0F5F9071E02D03800D2
:101D00000DB0F0BD214B0093029B22000A990B9865
:101D100001F0C4FC002836DD002304930593022063
:101D200005AA04A9FF3001F00DFB00280AD081208C
:101D300005AA04A9400001F005FB002807D065278B
:101D40007F42DCE70399049801F024F9EFE72900CA
:101D5000049800F0B5FE071ED1D106A9200000F0BE
:101D6000DCF9071ECBD12900099800F061FC071EA1
:101D7000C5D132000399099800F07AFA0700069855
:101D800001F076FFBBE714277F42B8E7005F2D0024
:101D9000F0B587B0029103921F00002305930493CE
:101DA00004AA05A900F09EF9041E02D0200007B085
:101DB000F0BD049800F0A8F8040006F0B3FF051E7B
:101DC00033D01B4B0093230002000499059801F0C7
:101DD00065FC002805DC14246442280006F0ACFFF2
:101DE000E4E7280002F0A8F8061E1BD00100114805
:101DF00000F0C4F800280FD0006900280FD0019728
:101E0000039B0093029B22002900FFF767FF040059
:101E1000300001F02DFFE0E701246442F8E70124DF
:101E20006442F5E705246442D7E764246442BDE7D1
:101E3000005F2D00B0CB1D1070B505000E0000280E
:101E400013D0002914D00024162C0ADCA3000B4A5E
:101E50009958280007F01EFE002801D00134F3E74E
:101E60003460172C07D0002070BD05204042FBE7EE
:101E700005204042F8E705204042F5E7A09005081C
:101E800010B5040001000C4807F004FE00280DD036
:101E900021000A4807F0FEFD002809D0210008486B
:101EA00007F0F8FD002805D0002000E0002010BD5C
:101EB0000120FCE70220FAE7CCCC1D10D8CC1D1085
:101EC000E4CC1D1010B5040001000C4807F0E2FD41
:101ED00000280DD021000A4807F0DCFD002809D0B9
:101EE0002100084807F0D6FD002805D0002000E0BA
:101EF000002010BD0120FCE70220FAE7ECCC1D1009
:101F0000F8CC1D1000CD1D1003004000C018800843
:101F10000322024004239B1AC018704770B50E00BC
:101F20000860C368202B20D1846807E0290010488E
:101F300007F0B0FD00280ED1B4602468002C12D048
:101F4000256A002DF9D029000A4807F0A3FD0028D2
:101F5000ECD17460F1E72900074807F09BFD0028E9
:101F6000EBD1F460E9E7002070BD02204042FBE7BE
:101F700044CD1D103CCD1D1050CD1D1070B590B03E
:101F800006000C00002503E02368002B15D01C0080
:101F9000002C1FD0216A002904D0300007F07AFD00
:101FA000002817D0A368002BEED00E2D11D8A90061
:101FB00001AA8C5001351C00EAE7002D0DD0002D40
:101FC000E6D0013DAA0001ABD3581C68002CF6D026
:101FD000DEE70024200010B070BD0024FAE7000006
:101FE000F8B50F00160000286DD001003748FFF744
:101FF000C5FF002867D084681AE021003448FFF745
:10200000BDFF002806D0330013331B01FB185B7A99
:10201000012B43D021002F48FFF7B0FF002806D046
:10202000330013331B01FB189B7A012B3DD024682E
:10203000002C48D021002848FFF7A0FF0028F6D048
:1020400005692649280007F025FD0028D5D0244938
:10205000280007F01FFD0028E9D121001C48FFF7E8
:102060008DFF002806D0330013331B01FB18DB7AE9
:10207000012B21D021001748FFF780FF0028D6D080
:10208000330013331B01FB18DB7A012BCFD181699D
:10209000B2009219D300FB18D961C8E78169B20078
:1020A0009219D300FB181961B4E78169B200921943
:1020B000D300FB185961BAE78169B2009219D300C5
:1020C000FB189961D6E70020F8BDC04608CD1D1069
:1020D00024CD1D102CCD1D1014CD1D101CCD1D1098
:1020E00034CD1D10F8B50E0017002E2107F0C4FCEA
:1020F000041E0CD0451C2E21280007F0BDFC002832
:1021000008D0001B0138386035600020F8BD16206B
:102110004042FBE716204042F8E770B504000D008E
:10212000002001F085FD200001F006FF002803D00B
:102130002900FFF7F3FE70BD05204042FBE730B5F4
:10214000002304221C2B0DDC0024002902D05200A5
:102150000133F7E7A14201D19042F8D8581C1D2B5A
:1021600003D030BD01204042F9E7981CF9E7000098
:10217000F0B5D6464F464646C0B582B00600894601
:10218000002301939A469846002753E01A000F3225
:10219000D2004A44514651603EE02468002C48D0A9
:1021A00021002D48FFF7EAFE0028F6D005692B49EB
:1021B000280007F06FFC0028EFD02949280007F01D
:1021C00069FC0028E9D001A92800FFF735FE071EA9
:1021D00002D001235B42019321002248FFF7CEFE8B
:1021E000002801D083699A4621001F48FFF7C6FEE8
:1021F000002804D0C1698069FFF7A1FF8046019BD8
:10220000002BCADB4246002AC7DD1A00AC3252005E
:102210004A44127A012AB9D01A00AC3252004A4418
:10222000527A012AB9D10F33DB004B4442469A60FF
:10223000B3E73668002E07D031000C48FFF79EFE4A
:102240000028F6D08468A9E7380002B01CBC90468C
:102250009946A246F0BDC04614CD1D101CCD1D10E0
:1022600034CD1D1024CD1D102CCD1D1008CD1D10FA
:10227000F0B5D64600B582B001900D001700010000
:10228000C248FFF77BFE002800D146E183689A46EA
:1022900029001800FFF76CFF00905346DE68202EDF
:1022A00017D0202E00D03AE1544615E02468002CC7
:1022B000F7D02100B648FFF761FE0028F6D0037E74
:1022C000BB42F3D12100B348FFF758FE037E2B70C9
:1022D000E7E75446EBE72468002C18D02100AC480F
:1022E000FFF74CFE0028F6D0037E2A789A42F2D1FE
:1022F0002100A948FFF742FE00280BD0017E4E1EA8
:10230000B2009219D300EB181973022751E001278C
:1023100000264EE0012700264BE0017EB200921914
:10232000D300EB18996057E0C1684B1E9941B20089
:102330009219D300EB1859705BE0C1684B1E9941AC
:10234000B2009219D300EB18D9705FE0017EB200A1
:102350009219D300EB18197165E021008F48FFF73F
:102360000DFE002802D0C368102B73D021008C48CA
:10237000FFF704FE002803D0C368102B00D185E0CE
:1023800021008848FFF7FAFD002800D19CE0017E7B
:10239000B2009219D300EB189970012F05D953465A
:1023A000DB68202B00D1B6E05446013F002F00D15E
:1023B000B5E0320029002000FFF712FE0090210056
:1023C0007948FFF7DBFD002806D0330013331B01EB
:1023D000EB181B7A012BA0D021007448FFF7CEFD2B
:1023E000002806D0330013331B01EB185B79012B57
:1023F0009AD021006E48FFF7C1FD002806D03300B7
:1024000013331B01EB18DB79012B96D021006948AF
:10241000FFF7B4FD002806D0330013331B01EB187F
:10242000DB79012B92D021006348FFF7A7FD00283C
:1024300093D03301EB184433FF331B78012B8CD13D
:10244000C1684B1E9941B2009219D300EB18263394
:10245000197082E78168002201E009680132022ACE
:1024600084DC002982D03301EB189B183E33FF3304
:102470001B78012BF1D1087EB3009C46B44463461F
:10248000DB00EB189B1820331870E6E78168002208
:1024900001E009680132022A00DD71E7002900D15C
:1024A0006EE73301EB189B184133FF331B78012B88
:1024B000EFD1087EB3009C46B4446346DB00EB18C2
:1024C0009B1823331870E4E7B2009219D300EB187D
:1024D00000229A7061E72468002C00D165E7210092
:1024E0002D48FFF74BFD0028F5D0037EBB42F2D10B
:1024F0005E1EB1008919CA00AA181373210024486E
:10250000FFF73CFD002800D14FE7017EB3009B1987
:10251000DA00515549E75446DEE70023009301995C
:102520002648FFF72BFD00284ED08668002408E0DF
:10253000826923000A33DB00EB185A6012E0366828
:102540000134042C40DC002E3ED031001C48FFF743
:1025500015FD002806D02300A8335B00EB185B793B
:10256000012BE5D031001748FFF708FD0028E6D021
:102570002300A8335B00EB181B79012BDFD18269A4
:1025800023000A33DB005A51D9E7C046CCCC1D10DA
:10259000F8CB1D10BCCB1D10C4CB1D1004CC1D10DE
:1025A00010CC1D1020CC1D10D0CB1D10DCCB1D106D
:1025B000E4CB1D10ECCB1D10FCCB1D1028CC1D1046
:1025C0002CCD1D1034CC1D1001991648FFF7D6FCF8
:1025D000041E15D001001448FFF7D0FC002804D0D9
:1025E0006023FF33EB5C012B0FD021000F48FFF776
:1025F000C5FC002804D0AF235B00EB5C012B0AD0A4
:10260000009802B004BC9246F0BDC3685A1E9341C4
:102610007922AB54E9E7C3685A1E93417822AB5440
:10262000EEE7C0463CCC1D1048CC1D1054CC1D100C
:10263000F8B506000C000100C048FFF79FFC051E1E
:1026400020D00100BE48FFF799FC002804D0682381
:10265000E35C012B00D1C1E02900BA48FFF78EFCF2
:10266000002804D06923E35C012B00D1BBE02900E2
:10267000B548FFF783FC002804D06A23E35C012BF4
:1026800000D1B5E03100B148FFF778FC051E20D03D
:102690000100AB48FFF772FC002804D06B23E35C19
:1026A000012B00D1A7E02900A648FFF767FC00280E
:1026B00004D06C23E35C012B00D1A1E02900A248E7
:1026C000FFF75CFC002804D06D23E35C012B00D1F4
:1026D0009BE031009E48FFF751FC051E5CD00100D5
:1026E0009748FFF74BFC002804D06E23E35C012BD6
:1026F00000D18DE029009348FFF740FC002804D06A
:102700006F23E35C012B00D187E029008E48FFF79F
:1027100035FC002804D07023E35C012B00D181E05C
:1027200029008C48FFF72AFC002803D07123E35CC2
:10273000012B7AD029008848FFF720FC002803D01D
:102740007223E35C012B75D029008448FFF716FC47
:10275000002803D07323E35C012B70D0290080484C
:10276000FFF70CFC002803D07423E35C012B6BD033
:1027700029007C48FFF702FC002803D07523E35CA6
:10278000012B66D029007848FFF7F8FB002803D01A
:102790007623E35C012B61D031007448FFF7EEFB38
:1027A000070001006648FFF7E9FB002803D0772304
:1027B000E35C012B57D039006348FFF7DFFB0028AB
:1027C00003D08C23E35C012B52D039006848FFF71B
:1027D000D5FB00287CD08668002555E00069FFF70E
:1027E00071FB207038E70069FFF74AFB60703EE735
:1027F000037EA37046E70069FFF764FBE07052E7D1
:102800000069FFF73DFB207158E7037E637160E7C5
:102810000069FFF757FBA0716CE70069FFF730FB19
:10282000E07172E7037E23727AE7C3685A1E934110
:1028300063727FE7C3685A1E9341A37284E7C3683B
:102840005A1E9341E37289E7C3685A1E934123736A
:102850008EE7C3685A1E9341637393E7C3685A1E99
:102860009341A37398E70069FFF72CFB2074A2E75C
:10287000027E6333E254A8E78269AB1CDB00E318F5
:102880005A6012E036680135042D21DC002E1FD07D
:1028900031003848FFF772FB002806D02B00383390
:1028A0005B00E3181B7A012BE6D031003248FFF7BA
:1028B00065FB0028E6D02B0038335B00E3185B7A19
:1028C000012BDFD18269AB1CDB00E3189A60D9E7EA
:1028D00039002A48FFF752FB002851D086680025AE
:1028E00007E08269EB1DDB00E3185A6012E03668EE
:1028F0000135042D44DC002E42D031001D48FFF785
:102900003DFB002806D02B003C335B00E3189B7A8C
:10291000012BE6D031001848FFF730FB0028E6D045
:102920002B003C335B00E318DB7A012BDFD182699B
:10293000EB1DDB00E3189A60D9E7C04668CC1D1098
:102940006CCC1D1078CC1D1080CC1D1084CC1D10BB
:1029500088CC1D1090CC1D1098CC1D10BCCC1D1027
:10296000D8CD1D10E4CD1D10ECCD1D10A0CC1D1038
:10297000A4CC1D1034CC1D102CCD1D10B4CC1D10BA
:102980000020F8BD30B587B004000D0014220021EE
:1029900001A806F005FA29002000FFF7EFFA04006D
:1029A000002C33D021002E48FFF7E8FA0028F7D09A
:1029B0000569002D05D029002A4807F06BF800288A
:1029C00027D0002D05D02900274807F063F80028FC
:1029D00028D0002D05D02900244807F05BF80028F6
:1029E00029D0002D05D02900214807F053F80028F0
:1029F0002AD0002D05D029001E4807F04BF80028EA
:102A000027D0210001A8FFF7B9FA0400200007B081
:102A100030BD01AA134B19680191998891809B7967
:102A20009371EEE701AA104B196801919988918082
:102A30009B799371E5E701AA0B4B1968019199887D
:102A400091809B799371DCE701AA094B03CB03C208
:102A5000D7E721000848FFF791FA0400A0E7C04635
:102A600014CD1D1088CD1D1070CD1D1078CD1D10FA
:102A700080CD1D1060CD1D1068CD1D1030B587B004
:102A800004000D001422002101A806F089F9290094
:102A90002000FFF773FA002809D08168002908D0C8
:102AA0000648FFF76BFA002806D0007B02E0012001
:102AB00000E0012007B030BD0120FBE7C4CC1D10B1
:102AC000F0B5DE46474680B583B005000C00002017
:102AD00001F0AEF8280001F02FFA011E009000D19D
:102AE0004EE2DD48FFF74AFA051E40D0DB4E0100FA
:102AF0003000FFF747FF070029003000FFF7BEFF57
:102B00000600002F2BD03869FFF7DCF9207068230E
:102B1000E65400239846D24E29003000FFF732FFDA
:102B2000070029003000FFF7A9FF0600002F1AD088
:102B30003869FFF7A5F960706923E654C94E29008A
:102B40003000FFF71FFF070029003000FFF796FF56
:102B5000002F4DD03B7EA3706A23E0540AE001238E
:102B60005B429846D7E701235B429846E6E701239C
:102B70005B4298460099BC48FFF700FA051E43D017
:102B8000B64E01003000FFF7FDFE070029003000BF
:102B9000FFF774FF0600002F2ED03869FFF792F977
:102BA000E0706B23E654AE4E29003000FFF7EAFEDA
:102BB000070029003000FFF761FF0600002F1FD03B
:102BC0003869FFF75DF920716C23E654A54E2900A2
:102BD0003000FFF7D7FE070029003000FFF74EFF57
:102BE000002F00D1C0E03B7E63716D23E0540EE006
:102BF00001235B429846BDE701235B429846D2E73A
:102C000001235B429846E1E701235B429846009925
:102C10009648FFF7B3F9051E00D1C9E08F4E0100B9
:102C20003000FFF7AFFE070029003000FFF726FF56
:102C30000600002F00D19BE03869FFF743F9A0712F
:102C40006E23E654864E29003000FFF79BFE0700F6
:102C500029003000FFF712FF0600002F00D18BE0A3
:102C60003869FFF70DF9E0716F23E6547D4E2900B6
:102C70003000FFF787FE070029003000FFF7FEFE57
:102C8000002F7DD03B7E23727023E054784E2900C4
:102C90003000FFF777FE070029003000FFF7EEFE57
:102CA000002F71D0FB685A1E934163727123E05468
:102CB000704E29003000FFF765FE07002900300044
:102CC000FFF7DCFE002F63D0FB685A1E9341A3720E
:102CD0007223E054684E29003000FFF753FE0700CE
:102CE00029003000FFF7CAFE002F55D0FB685A1E9E
:102CF0009341E3727323E054604E29003000FFF7E4
:102D000041FE070029003000FFF7B8FE002F47D032
:102D1000FB685A1E934123737423E054584E2900D4
:102D20003000FFF72FFE070029003000FFF7A6FE56
:102D3000002F39D0FB685A1E934163737523E0540A
:102D4000504E29003000FFF71DFE0700290030001B
:102D5000FFF794FE002F00D19EE0FB685A1E9341BE
:102D6000A3737623E05426E001235B4298464EE7A6
:102D700001235B42984665E701235B42984675E76D
:102D800001235B42984681E701235B4298468FE727
:102D900001235B4298469DE701235B429846ABE7DF
:102DA00001235B429846B9E701235B429846C7E797
:102DB00001235B42984600993348FFF7DFF8051E70
:102DC00000D1CDE0254E01003000FFF7DBFD07000C
:102DD00029003000FFF752FE0600002F60D038694E
:102DE000FFF770F820747723E6541E4E2900300058
:102DF000FFF7C8FD070029003000FFF73FFE002F56
:102E000052D03A7E6423E2542833E05429001F480C
:102E1000FFF7B4F80190002800D184E01C4F0100B6
:102E20003800FFF7AFFD060001993800FFF726FED6
:102E30000700002E3CD0B66901991648FFF7A2FDA5
:102E4000834601991348FFF719FE5B46002B34D0E7
:102E50009969002242E0C04668CC1D106CCC1D1060
:102E600078CC1D1080CC1D1084CC1D1088CC1D107A
:102E700090CC1D1098CC1D10BCCC1D10D8CD1D10B1
:102E8000E4CD1D10ECCD1D10A0CC1D10A4CC1D1048
:102E900034CC1D102CCD1D1001235B4298468AE7CF
:102EA00001235B429846A0E701235B429846ADE7C9
:102EB000002601235B429846BEE7002101235B42C6
:102EC0009846C6E7931CDB00E31899605E60130028
:102ED00038335B00E31858721F720132042AF1DDA7
:102EE00029002948FFF74AF8051E45D0274F010061
:102EF0003800FFF747FD060029003800FFF7BEFD48
:102F00000700002E13D0B66929002148FFF73AFDCB
:102F1000834629001E48FFF7B1FD5B46002B0BD00E
:102F20009969002219E001235B429846D8E7002600
:102F300001235B429846E7E7002101235B42984664
:102F4000EFE7D31DDB00E31899605E6013003C33AC
:102F50005B00E318D8729F720132042AF1DD02E0AF
:102F600001235B429846009800F082FE404603B081
:102F70000CBC90469B46F0BD01235B429846F2E7AD
:102F800005235B429846F1E7B4CC1D1034CC1D10EC
:102F90002CCD1D10F0B5DE46474680B583B0050048
:102FA0000C00002000F044FE280000F0C5FF011EC8
:102FB000009000D1A2E1D348FEF7E0FF051E00D14A
:102FC0001CE1D14F01003800FFF7DCFC06002900AE
:102FD0003800FFF753FD002E60D0337E23709A2215
:102FE0005200A0540D3AFF3AA354A2235B00E054D0
:102FF00000262900C548FFF7C5FC07002900C34883
:10300000FFF73CFD002F4CD0FB685A1E9341DBB20A
:1030100063703622FF32A0540D3AFF3AA354462380
:10302000FF33E0542900BA48FFF7ACFC0700290041
:10303000B748FFF723FD002F36D0FB685A1E934197
:10304000DBB2E3703822FF32A0540D3AFF3AA354AA
:103050004823FF33E0542900AE48FFF793FC0700F4
:103060002900AC48FFF70AFD002F20D03B7EA3606B
:103070009C225200A0542363A4235B00E054A64F7B
:1030800029003800FFF77EFC804629003800FFF752
:10309000F5FC4346002B0DD000221DE001267642B0
:1030A000A7E701267642BDE701267642D3E701264F
:1030B0007642E4E70126764210E04346197EA318E3
:1030C0001F00203739701E37FF373870F53F3970D1
:1030D0004E33FF3318700132022AEEDD8F4F290084
:1030E0003800FFF74FFC804629003800FFF7C6FC88
:1030F0004346002B01D0002211E00126764210E069
:103100004346197EA3181F00233739701E37FF3737
:103110003870F53F39705133FF3318700132022A8D
:10312000EEDD29007E48FFF72DFC070029007C48D2
:10313000FFF7A4FC002F46D0FB685A1E9341DBB278
:103140002622A3544422FF32A054F53AA354542318
:10315000FF33E05400997348FEF710FF0190002FF1
:1031600070D001233A22FF32A3540132A3543C22EF
:10317000FF32A3540132A3544A22FF32A354013236
:10318000A3544C22FF32A3540132A354664F0100D2
:103190003800FFF7F7FB050001993800FFF76EFCD8
:1031A0000700002D12D0AD6901996048FFF7EAFBD6
:1031B000834601995D48FFF761FC5B46002B09D00F
:1031C0009969002217E001267642C3E7002501260F
:1031D0007642E9E7002101267642F2E713000F3339
:1031E000DB00E3185D6099601300AC335B00E3180B
:1031F0001F7258720132162AF0DD01E00126764274
:1032000000994B48FEF7BAFE051E63D001004948FD
:10321000FFF7B8FB070029004648FFF72FFC804660
:10322000002F12D0BF6929004048FFF7ABFB83464F
:1032300029003E48FFF722FC5B46002B09D0996924
:10324000002218E001267642DAE7002701267642BE
:10325000E9E7002101267642F2E713000A33DB009A
:10326000E51869601F511300A8335B00E31858711B
:1032700045461D710132042AEFDD00992E48FEF704
:103280007DFE051E2CD001002C48FFF77BFB0700BC
:1032900029002A48FFF7F2FB002F1ED0FB685A1EB8
:1032A00093417822A354AF235B00E05429002448C3
:1032B000FFF768FB070029002148FFF7DFFB002F1D
:1032C00019D0FB685A1E93417922A3546023FF331F
:1032D000E05407E001267642CFE701267642E5E793
:1032E00001267642009800F0C3FC300003B00CBC0D
:1032F00090469B46F0BD01267642F3E705267642CE
:10330000F3E7C046CCCC1D10F8CB1D10DCCB1D1054
:10331000E4CB1D10D0CB1D1004CC1D1010CC1D1003
:10332000FCCB1D1008CD1D1024CD1D102CCD1D1063
:1033300028CC1D1034CC1D103CCC1D1054CC1D10BD
:1033400048CC1D1030B585B00C001500DC239B0562
:1033500002936B460393009000230193224B1A685B
:103360002E23D35C002B0CD01F4B1B68186A010066
:1033700000230A68002A0ADB1C4A934207D801335B
:10338000F7E7E92149001A4801F0E6FBECE7174AA4
:10339000934222D802ABC36001238360002200E085
:1033A0000132114B1968B023CB581B181B68002B36
:1033B00002DA0E4B9A42F3D90C4B9A4210D8029A79
:1033C000A0231B069A4202D0029805B030BD009B94
:1033D0002B60019B23600020F7E701204042F4E7C7
:1033E00001204042F1E7C046B8B20E08973A00000B
:1033F00034C91D100648902149014358054A1A4016
:10340000054B13434350024B5B68DB06FBD570470B
:1034100000002040FCFF00000300FA0510B5040086
:10342000094B1A682E23D35C834207D9064B1B68CD
:10343000186AAC229B5A5C43001910BDE92149006F
:10344000024801F089FBF1E7B8B20E0834C91D103B
:1034500000B583B000230193019AE8239B05134331
:1034600001930904019B194301910002019B184338
:103470000190019B012213430193214B1A682E23D3
:10348000D35C002B0CD01E4B1B68186A0100002374
:103490000A68002A0ADB1B4A934207D80133F7E780
:1034A000E9214900184801F057FBECE7154A93421F
:1034B0001ED8019BC36001238360002200E001321B
:1034C0000F4B1968B023CB581B181B68002B02DA6E
:1034D0000C4B9A42F3D90B4B9A420CD8C368019318
:1034E000019AA0231B069A4208D0019803B000BDA0
:1034F00001204042FAE701204042F7E70020F5E7CB
:10350000B8B20E08973A000034C91D1010B5094B27
:10351000DB78013BDBB2012B05D90024642001F0EC
:10352000FFFA200010BD01210120FFF791FF0400E8
:10353000F4E7C04628B20E0810B504001F4A204B1D
:10354000D358032B1CD11F4B1B68002B23DB1E49B8
:10355000822292008B58DB05DB0D8958C90B0122B2
:103560000A409B18002BF2D1144A89235B01D450E6
:10357000164B9C602268636882F308889847FEE7D0
:10358000FFF7C4FF021EDED0114B1B68D86811493B
:1035900005F056FBD7E70220FFF740FF0E4BC36054
:1035A0000B4B1B68DB68112201210C4805F0AAFBBC
:1035B00072B608F0EDFE62B6C9E7C04600002040D2
:1035C000C4200000000126400000654000ED00E03E
:1035D0001C91050804C91D1021433412B8C91D10DF
:1035E00070B50400FFF792FF021E17D11D4B1B6838
:1035F000002B1ADB1C49822292008B58DB05DB0D65
:103600008958C90B01220A409B18002BF2D12000D7
:1036100003F008F8002000F0D9FFFBE7134B1B680C
:10362000D868134905F00CFBE0E70220FFF7F6FE2F
:10363000104BC3600D4B1B68DB68112201210E4843
:1036400005F060FB72B60D4E8025AD000C4B73513A
:10365000FFF7D0FE012001F063FA745108F098FEE4
:1036600062B6C7E700012640000065401C910508CE
:1036700004C91D1021433412B8C91D100000204098
:10368000004000160300093B042B05D9202801D077
:10369000002002E01F3800E001207047F0B5DE4650
:1036A00057464E464546E0B583B080468946934628
:1036B00001930500002700239A463AE00C9B1B0C5F
:1036C000DBB2A34208D00C9B1B0ADBB2A34200D0A2
:1036D000E9E089483F3047E087483E3044E0002F2A
:1036E00026D15B46002B72D0019B9A4500D3DEE0C9
:1036F000814BC01A80005B4652469854012717E060
:103700005B46002B10D053465A1C019B9A4200D3B3
:10371000D1E05B4653447849401A0411197821439B
:10372000197000015B46985401239C46E24402272D
:1037300035006E1C2C78002C4BD04B46002B03DB45
:103740004346F31A4B4544DC2000FFF79BFF0090F3
:103750000028EDD10C9BDBB2A3423AD02100664891
:1037600006F08AF90028A9D0012FC9D0B7DD022FB1
:1037700014D0032FDCD15B46002B0AD0019B9A4565
:1037800000D3A0E05B4653445B4A801A1A7810438A
:10379000187001239C46E244009FC9E75B46002B5A
:1037A00010D053465A1C019B9A4200D387E05B46D7
:1037B00053445149401A84101978214319708001EB
:1037C0005B46985401239C46E2440327B0E7012757
:1037D000AEE70C9BDBB20093002B04D0A34215D0C4
:1037E000002F00D07FE05346019A924500D37EE03F
:1037F0005A46002A02D05B4400221A70504603B099
:103800003CBC90469946A246AB46F0BD4B46002BC9
:1038100003DB4346F61A4E45E2DCAC1C6D78022F02
:1038200010D005DC002FDEDB01235B429A46E5E782
:10383000032F24D0D7E72800FFF724FF00280AD061
:1038400025780134002D06D04B46002BF3DB434690
:10385000E31A4B45EFDD009BAB4238D14B46002BC2
:1038600003DD4346E31A4B4535DC2578013406E099
:103870002800FFF707FF002831D025780134002DFC
:1038800006D04B46002BF3DB4346E31A4B45EFDDF6
:103890005B46002BA7D052469B5C002BA3D0012394
:1038A0005B429A46AAE701235B429A46A6E70123B8
:1038B0005B429A46A2E701235B429A469EE70123B8
:1038C0005B429A469AE701235B429A4696E70123B8
:1038D0005B429A4692E701235B429A468EE70123B8
:1038E0005B429A468AE701235B429A4686E70123B8
:1038F0005B429A4682E7C0465CCF1D1010B500229D
:1039000000230AE021004139C9B2052910D8E31883
:10391000373B022A00D81B010132032A11D8845CEC
:1039200021003039C9B20929ECD8E318303BF0E75F
:1039300021006139C9B2052902D8E318573BE8E7ED
:103940000023180010BD0000F0B5C64600B5040005
:103950000D0090461E000B1A052B19DD0230FFF7F3
:10396000CDFF0700394BC218394B9A4215D90028B0
:1039700013D0374A374BC31893422FD8A31DED1AE3
:10398000052D0DDDA3795C2B0DD03460002001E006
:103990003060002004BC9046F0BD34600020F9E7A0
:1039A00034600020F6E7E379752BEED12000083073
:1039B000FFF7A4FF254BC218254B9A420BD8BF0234
:1039C000254B1F408005800D074380235B029C46EA
:1039D00067440C2003E034600020DBE706207F2FE3
:1039E00015D91E4B9F4227D91D4B9F421AD91D4BFB
:1039F0009F4209D83F233B4080277F421F434346D5
:103A00001B68DF70042306E034600020C2E74346F1
:103A10001B681F7001234246126894466344424665
:103A20001360B7E73F233B4080277F421F43434655
:103A30001B689F700323EEE73F233B4080277F42B4
:103A40001F4343461B685F700223E4E70024FFFF27
:103A5000FF0300000028FFFF00FC0F00FF0700002D
:103A6000FFFF0000FFFF1000F0B5C64600B582B0B2
:103A7000070090464D1C002301930B78222B02D1A6
:103A80002C00002203E0116000206AE0013423785A
:103A9000222B09D0002B07D05C2BF7D16378002BA9
:103AA0006BD001320134F1E7002B68D0601A801A24
:103AB000354B1B6804309847061E4BD001900FE031
:103AC0006B78223BDAB2532A42D893002F4AD3585C
:103AD0009F46019B5A1C019208221A7002202D1841
:103AE000A54242D22B785C2BEAD0019B5A1C019252
:103AF0002A781A700135F3E7019B5A1C01920C22B7
:103B00001A700220EBE7019B5A1C01920A221A70DC
:103B10000220E4E7019B5A1C01920D221A70022038
:103B2000DDE7019B5A1C019209221A700220D6E798
:103B3000019B5A1C01926A781A700220CFE7434613
:103B400001AA21002800FFF7FFFE0028C7D101E0ED
:103B500043461D60002E14D00D4B1B683000984763
:103B6000002002B004BC9046F0BD0023019A1370FF
:103B70000833FB603E61601CF3E70026EAE70020A3
:103B8000EFE70020EDE7C046009105089CCF1D102F
:103B9000FC90050800E00130002804D00378002BD9
:103BA00001D0202BF7D9704710B5064B1B68282091
:103BB0009847041E03D02822002105F0F1F82000C8
:103BC00010BDC0460091050830B583B005000C005B
:103BD00000230193002925D00A2201A9200006F024
:103BE0003BF803000198A0421ED05A1C07D0002BBE
:103BF0000ED0AB61E9610423EB6003B030BD0B4A2A
:103C00009142F4D101225242084BAA61EB61F2E7E2
:103C1000802212069142ECD1002280231B06AA6169
:103C2000EB61E8E70020E8E70020E6E7FFFFFF7F21
:103C300000280AD00368002B0ED0094A136043689D
:103C4000002B0BD0074A13607047054B064A1A60D9
:103C5000044B064A1A60F7E7034BEEE7034BF1E724
:103C600000910508FC900508258D1D10398D1D104B
:103C700070B5040016E0E368DB0505D42069002870
:103C800002D00F4B1B689847E3689B0505D4206A58
:103C9000002802D00A4B1B689847094B1B6820007C
:103CA00098472C00002C09D02568E368DB05E2D496
:103CB000A0680028DFD0FFF7DBFFDCE770BDC0465F
:103CC000FC900508F0B5CE4600B582B08146019261
:103CD0000B787B2B0AD1481CFFF75CFF05000378AB
:103CE0007D2B44D0013D0027002626E011600020F6
:103CF00034E00600681CFFF74DFF0100019A200028
:103D0000FFF7B2FEFFF746FF002821D023692362A8
:103D10000023236103783A2B18D10130FFF73AFFD3
:103D20000100019A200000F02BF8FFF733FF051E79
:103D30000ED0037827002C2B14D1FFF735FF041E7B
:103D400006D0002ED5D038604760D3E7019B1860BD
:103D5000002E13D03000FFF78BFF002002B004BC10
:103D60009146F0BD7D2B03D0019B1860F0E7002643
:103D700020234A46D3609660681CEFE70020EDE7F9
:103D800070B505000C00160000294CD0042227490C
:103D9000200005F090FE002821D0052224492000B3
:103DA00005F089FE00281ED004222249200005F0DB
:103DB00082FE00281BD02378222B20D02D2B24D04C
:103DC0001A00303AD2B2092A1FD95B2B22D07B2BA2
:103DD00026D1320021002800FFF774FF02E0022301
:103DE000EB60201D70BD0023EB60601DFAE701232E
:103DF000EB6001220023AA61EB61201DF2E7320093
:103E000021002800FFF730FEECE721002800FFF733
:103E1000DBFEE7E732002100280000F00DF8E1E7C3
:103E200034600020DEE70020DCE7C046ECD01D1047
:103E3000F8CA1D10F4D01D10F0B5CE4600B582B002
:103E4000814601920B785B2B0AD1481CFFF7A2FE3A
:103E5000040003785D2B2BD0013C0026002713E0E3
:103E6000116000202AE00700601CFFF793FE0100AC
:103E7000019A2800FFF784FFFFF78CFE041E10D084
:103E800003782E002C2B08D1FFF78EFE051E08D0DC
:103E9000002FE8D030604660E6E75D2B09D0019B3B
:103EA0001860002F0ED03800FFF7E2FE002005E07A
:103EB000002710234A46D3609760601C02B004BC00
:103EC0009146F0BD0020F9E7F0B5C64600B5060002
:103ED0000C1E904621D00F00FFF766FE0500002360
:103EE0003B60002815D03000FFF754FE01003A0077
:103EF0002800FFF745FF061E11D04346002B05D0D2
:103F0000FFF748FE06000378002B0DD1002C00D0EF
:103F10002660280004BC9046F0BD064FDCE7280070
:103F2000FFF7A6FE0025F4E72800FFF7A1FE3E609C
:103F30000025EEE7E8AF0E0810B500220021FFF7DC
:103F4000C3FF10BD70B50500274B1B68002B0ED0BA
:103F5000264B1C68E40F264B1A682E23D35C002BDB
:103F600008D0234B1B68186A0100002309E001F008
:103F700081F9EDE7E92149001E4800F0EDFDF0E789
:103F800001330A68002A02DB1B4A9342F8D91A4A15
:103F900093421CD8C56001238360002200E00132F7
:103FA000134B1968B023CB581B181B68002B02DA7F
:103FB000124B9A42F3D9114B9A420BD82D68A02389
:103FC0001B069D4209D0012C09D0280070BD842514
:103FD0006D42F8E784256D42F5E70025F3E70348D5
:103FE00001F0ECF9F1E7C04650B00E0800001040B7
:103FF000B8B20E0834C91D10973A0000FF93357708
:1040000010B588B0D424A405009402AC01940290A9
:104010000391049205930A9B06930B9B07936846B2
:10402000FFF790FF08B010BD00B585B0054B0093B9
:1040300002AB0193029003916846FFF783FF05B03E
:1040400000BDC0460010003500B587B0054B019398
:1040500003AB029303900491059201A8FFF772FF4E
:1040600007B000BD0011003510B586B0064C0094B5
:1040700002AC019402900391049205936846FFF705
:1040800061FF06B010BDC0460012003500B585B016
:10409000054B02936B4603930090019102A8FFF732
:1040A00051FF05B000BDC04600160035C0054342B3
:1040B0005841C0B2704700001F4B984232D00ED911
:1040C0001E4B984234D01BD91D4B984226D01D4B15
:1040D000984225D01C4B98421ED01C481BE040281B
:1040E00022D007D9802821D080235B009842F4D1C8
:1040F000114810E000280DD01028EED114480AE035
:10410000A0231B06984205D0124B9842E5D1A0206F
:10411000C00300E0002070470F48FCE70F48FAE7B3
:104120000F48F8E70448F6E70E48F4E70E48F2E7D0
:10413000A420C003EFE7C04606005200010000F0D3
:10414000040000F0050000F0030000F0FF00520042
:1041500001005000090000A00100520002005200BE
:1041600003005200020050000500520010B5114B30
:104170001A682E23D35C002B14D00E4B1C68B0237E
:10418000E358226A944663441B68002B10DB0A4BF9
:104190001868FFF791FF6268012393609368002B12
:1041A000FCD110BDE9214900044800F0D5FCE4E74A
:1041B0000348F6E7B8B20E08ECAF0E0834C91D107C
:1041C0000200500010B50400FFF770FF002834D043
:1041D00002F0C2F91A4B1B4A1A605C6000229A6016
:1041E000DA60194B1B6850329A5C002A05D1802096
:1041F0000021400008F0DCF820E01A6880215B58BC
:10420000D3181A68120E1968090AFF230B400133EC
:10421000013253430D4C5C430D4B1868FA21890061
:1042200003F04CFA0100200003F048FA094BC118D2
:104230008020400008F0BCF800E0074810BDC046F0
:10424000ECAF0E080001001CB8B20E0860F590003B
:1042500008910508980800000600520070B5040097
:104260000D00FFF723FF002836D0002D36D002F0D6
:1042700073F91B4B1B4A1A6000225A609C60DD6078
:10428000194B1B684E329A5C002A05D18020002110
:10429000400008F08DF820E01A6880215B58D318A0
:1042A0001A68120E1968090AFF230B400133013204
:1042B00053430E4C5C430E4B1868FA21890003F0FF
:1042C000FDF90100200003F0F9F90A4BC118802024
:1042D000400008F06DF800E0074870BD0648FCE7B4
:1042E000ECAF0E0800010005B8B20E08C0EA2101CB
:1042F00008910508482600000600520030B5002845
:104300003CD0C368002B3BD00368002B3AD0057922
:10431000AA001E4BD258002A28D0140000E01A0030
:104320005369002B07D0824205D0197E027E91424C
:10433000F5D81C00F3E7824226D02369002B08D071
:10434000636943610461002B00D018616061012042
:1043500015E0027E237E9A42F2D24461002303617B
:104360002061AD00094BE850012008E0AD00074B8B
:10437000E850002343610361012000E0002030BDCC
:104380000020FCE70020FAE70020F8E738B00E082C
:1043900010B5021E27D00479A100144BC9580B0098
:1043A000002B03D093420ED05B69F9E70020002870
:1043B0001AD08A4209D01A69596951615B69002B88
:1043C00012D01A6110E00120F1E74B69002B05D0F3
:1043D000A400064AA35000221A6105E0A400034B82
:1043E0000022E25000E0002010BDC04638B00E08A8
:1043F00070B584B006000D00022803D9042801D04E
:10440000032816D16B1EDBB2012B03D9042D01D07A
:10441000082D13D1B3002E4A9C58042D2ED0012D07
:104420002ED0022D3DD12B4B1C68002C3CD0246992
:104430003AE02949294800F08FFBE3E7284927485B
:1044400000F08AFBE6E7A3682B420BD1E3681A6809
:1044500002925B6801930393290002A8236898479E
:104460001C4B1C606469002C04D01E4B9842EAD19E
:10447000012DE8D1012D05D004B070BD0020F2E778
:104480000020F0E7174B984204D0B600164B0022EC
:10449000F250F1E7B6000F4B1A68134BF250EBE7FE
:1044A0001C006369002BFBD1002000E02469002C74
:1044B000E2D0A3682B42F9D1E3681A6802925B68E4
:1044C00001930393290002A823689847EEE7C046AA
:1044D00038B00E0834B00E08F5090000FCD01D10ED
:1044E000F6090000FF00420020B00E0810B5041EBF
:1044F0001DD0114B1B68DB68F222D2019A58226052
:10450000F022D2019A5862600C4A9A58A2600C4A72
:104510009A58E2600B4A9A5822610B4A9A58626193
:104520000A4A9A58A2610A4A9B58E36110BD094998
:10453000094800F011FBDCE7B8B20E08047800006F
:10454000087800000C780000107800001478000053
:1045500018780000140B0000FCD01D1010B5041ECC
:104560001CD0114B1B68DB68F022D20161689950A6
:104570000E4AA16899500E4AE16899500D4A216986
:1045800099500D4A616999500C4AA16999500C4A99
:10459000E16999502168E832995010BD09490A48EB
:1045A00000F0DAFADDE7C046B8B20E080478000081
:1045B000087800000C7800001078000014780000E3
:1045C000187800003C0B0000FCD01D1070B50600F0
:1045D000012850D8504B5B68002B51D0012101209D
:1045E000FFF706FF041E00D07BE003F022F8050071
:1045F000494B5B68002B03D004210120FFF7F8FE34
:10460000464B1B6841229A5C002A04D09A68E0233A
:10461000D358DB0636D4B0235B059B899BB2002BB5
:1046200007D0B0235B059B899BB280225200934246
:104630002CD1300007F0B4FE384B1B6841229A5C45
:10464000002A4BD0002849D0E02299688A58D20627
:1046500044D5B02252055278002A3CD0B0225205EF
:104660005278212A49D01A6AAC21595ACB005B1AD8
:10467000D318D86830E02A492A4800F06DFAA9E733
:104680000024B2E72848FFF731FFC4E7234B1A683C
:104690002E23D35C002B12D0204B1A68116AB02352
:1046A000D3585B181B68002B12DB204A13690421C6
:1046B0000B431361012E08D030BF0020BCE7E92175
:1046C00049001B4800F048FAE6E720BF0020B3E7A6
:1046D0000020184CB0E71448FFF740FF280002F014
:1046E000ACFF002C0BD10C4B5B68002B03D00821D6
:1046F0000120FFF77DFE200070BD0B48ECE7064B64
:104700005B68002B03D002210120FFF771FE094BEB
:104710009C42F0D0084CEEE738B00E08B8B20E0854
:10472000B2020000FCD01D1000B00E0800ED00E049
:1047300034C91D1005004200FF004200014B186003
:104740007047C046B8B20E08034B1B68002B00D060
:104750007047014B1860FBE74CB00E08F0B5C64639
:1047600000B50600884617001D002F4B1B68002B64
:104770003FD02D4B1C682C2070432418FF231E00B3
:104780002E4026602A0A134063602D0CA560274B3B
:104790001A682E23D35C9E4230D2244B1B68AC2275
:1047A0009A5A7243196A8C466244226165682F22C4
:1047B0009B5C9D4228D21D4B1B681E6A80356D0193
:1047C00076196661A5682B0C24D12B0C27D12D04FA
:1047D0002B0C1D43B560E761434623620023A361B0
:1047E000069B002B02D000229B5EA38104BC904656
:1047F000F0BDBF210E4800F0AFF9BAE7E92149004A
:104800000C4800F0A9F9C8E7F7214900094800F071
:10481000A3F9D0E70849074800F09EF9D5E7074912
:10482000044800F099F9D2E74CB00E08B8B20E086F
:1048300030D21D1034C91D100D0200000E02000000
:10484000F0B58FB0041E43D06368032B45D8E36AEC
:10485000002B47D0236B002B49D007AA130021005F
:1048600061C961C321C921C302AD290023001433EA
:10487000C1CBC1C141CB41C10821535E0CAE3380D5
:104880001D4B1B689B8E079989B25B187380089B30
:104890000D930B9B0A980096A26AE16AFFF75EFFF0
:1048A0002B69E868002200920021FFF757FF216B77
:1048B000300001F0E1FD0022B35E002B06DB1F2279
:1048C00013401E3A9A4013000C4A13600FB0F0BD1B
:1048D0005C210B4800F040F9B6E75E21084800F083
:1048E0003BF9B4E76221064800F036F9B2E76321EC
:1048F000034800F031F9B0E7B8B20E0800E100E07B
:1049000030D21D10F8B504000F0016001D00002A5B
:104910002BD0214B1B68002B2DD01F4B19682C234B
:104920002000584308187B43C918012423004A6813
:1049300093401B04426894400769002F26D08A697F
:10494000002A25D13A68002A24DA32681204120CAF
:1049500013433360FE6001238B614D62230C10D141
:104960002204120CBA600020F8BD0821FF310B4868
:1049700000F0F2F8CDE784214900084800F0ECF897
:10498000CBE70749074800F0E7F8E9E70648EBE717
:104990000648E9E70548E7E74CB00E0830D21D109D
:1049A000CA02000034C91D1004028A0007028A00EE
:1049B00070B582B0040000230193002813D023694E
:1049C000002B16D06369002B19D0236A002B1CD052
:1049D0006269D5682B0C1ED12D042D0C41D1636961
:1049E0001B6802B070BDDC21FF31264800F0B4F82E
:1049F000E5E7EE214900234800F0AEF8E2E7DE21CA
:104A0000FF31204800F0A8F8DFE7EF2149001D48FA
:104A100000F0A2F8DCE71B041360136820691A4B4E
:104A20001A68B023D3581B181B68002BD4DA01A9CD
:104A300000F03EFB00280ED101980268160CFF23FF
:104A40001340E2699A4207D99B00226AD358002B8F
:104A500002D0984700E000263100206900F0ECFA0F
:104A6000BAE763691D601B68636A002B05D098472D
:104A7000002363620023A361B1E7A36A002BF9D08E
:104A80009847F7E730D21D10B8B20E0810B50400F1
:104A9000084B1B68002B07D0064B18682C23634378
:104AA000C018FFF785FF10BDBC21FF31024800F0A0
:104AB00053F8F1E74CB00E0830D21D1070B5040069
:104AC0000D00144B1B685B6CC340DB0715D50F2D25
:104AD00018D80F231A002A402904F02000030140AF
:104AE0000C48006800690A431034A402225022587E
:104AF0001340AB420BD1002070BDA821064800F046
:104B00002BF8E4E7A921044800F026F8E1E7034880
:104B1000F2E7C046B8B20E08B4D21D100300C200BE
:104B200010B5040006E0084B186802F079FD074B49
:104B30009C46644480231B029C42F4D8044B1868B2
:104B4000604302F06DFD10BD109105080080FFFF6D
:104B50001491050801BEFEE770B50D00044C182243
:104B60000100200004F0B8FFA5610020FFF7F2FF6C
:104B700008980508FEE7000010B50A4B0268DA61E4
:104B800042681A6282685A62C2689A620269DA628C
:104B900042691A6382695A63C2699A63FFF7EAFF3E
:104BA00010BDC04608980508F8B5CE46474680B502
:104BB00081460D001400002800D190E1002A00D1A8
:104BC0008FE1072900D902E12368012B00D903E115
:104BD0000F2362689A4300D003E1237A1F22934394
:104BE00000D003E1E368032B00D904E12369012B22
:104BF00000D905E16369012B00D906E1A369012B06
:104C000000D907E1E369032B00D908E1236A012BEE
:104C100000D909E1636A012B00D90AE1A36A012BDB
:104C200000D90BE1E36A032B00D90CE1236B072BBE
:104C300000D90DE12768072D00D90EE1012F00D919
:104C400010E1002F00D112E10123AB404A469360EE
:104C50006768072D00D90FE10F233A009A4300D06F
:104C60000FE1A800A04B1A687923D15C49440A6877
:104C70006A3B1E008640B2433B40834013430B60B7
:104C8000277A072D00D901E11F233A009A4300D06B
:104C900001E1954B1A6893694946CB1ADB095269C1
:104CA0001B01D318032D00D8FAE02A1F5968D2003F
:104CB0001F20904081431F20074097400F435F60B3
:104CC000E768082D00D9F6E0032F00D9F8E0680066
:104CD000854B1A687823D15C49440A68753B1E00ED
:104CE0008640B2433B40834013430B602769082D45
:104CF00000D9EAE0012F03D97C497D48FFF72CFF5A
:104D00004B469A6901231900A9408A433B40AB40B6
:104D100013434A4693616769072D00D9DAE0012FF2
:104D200003D974497248FFF717FF6F4B98467A23EF
:104D300042461268D15C49440A68793B1800A84091
:104D400082431F40AF4017430F606A0010218C461A
:104D500094440D390A006646B24002434046076853
:104D60007B20385C484406689643A2691A40AA40F2
:104D70003243E66931406646B1400A4302607C2214
:104D8000BA5C4A4416001268FF218A43206A034035
:104D9000606A4700022038400343A06A870004206D
:104DA00038400343E06AC700182038400343206BB3
:104DB000400101400B43AD00FE2189000D40AB4096
:104DC0001343336000200CBC90469946F8BD4F2138
:104DD0004948FFF7C1FEF7E650214748FFF7BCFE00
:104DE000F6E651214448FFF7B7FEF6E65221424865
:104DF000FFF7B2FEF6E653213F48FFF7ADFEF5E6BA
:104E000054213D48FFF7A8FEF4E655213A48FFF744
:104E1000A3FEF3E656213848FFF79EFEF2E657213F
:104E20003548FFF799FEF1E658213348FFF794FE25
:104E3000F0E659213048FFF78FFEEFE65A212E4861
:104E4000FFF78AFEEEE65B212B48FFF785FEEDE6D5
:104E50005C212948FFF780FEECE628492448FFF74B
:104E60007BFEEBE626492248FFF776FEE9E60123C2
:104E7000AB404A465360EBE622491D48FFF76CFE03
:104E8000EAE621491A48FFF767FEEAE61F49184893
:104E9000FFF762FEF8E61E491548FFF75DFEF8E6EB
:104EA0001A68E8001F2181408A431F210F40874074
:104EB00017431F6004E717490D48FFF74DFE03E74E
:104EC00015490B48FFF748FE01E714490848FFF76A
:104ED00043FE0FE712490648FFF73EFE1FE7114861
:104EE00071E710486FE7C046B8B20E0874060000BC
:104EF000B4D31D100E04000034D31D103103000084
:104F000032030000CE030000CF0300009202000035
:104F100093020000F2060000F30600007306000092
:104F20000D04000001005A00F8B5CE46474680B592
:104F300005000C001700984608AB1E78072947D8D3
:104F40000F233A009A4348D14346012B4AD81F23E6
:104F500032009A434BD12A6801231900A1408A43A9
:104F600041460B40A34013432B602E4B1A68792314
:104F7000D35C5B191A689046A0000F22914611007D
:104F8000814042468A4311004A463A4082400A43E1
:104F90001A60072C30D81F2332009A4331D1214B9D
:104FA0001B689A69AD1AED095B692D015D19032C27
:104FB0002CD9043C6B68E4001F22A24093431F22BB
:104FC0001640A6401E436E600CBC90469946F8BD44
:104FD000E3211548FFF7C0FDB2E7E4211248FFF7CF
:104FE000BBFDB1E7E5211048FFF7B6FDAFE7E621CD
:104FF0000D48FFF7B1FDAEE70C490D48FFF7ACFDDA
:10500000C9E70C490A48FFF7A7FDC8E72B68E40089
:105010001F22A24093431F221640A6401E432E602B
:10502000D2E7C046B8B20E0834D31D109202000079
:10503000B4D31D109302000070B505000C000B4B9B
:105040001A68B023D3581B181B68002B0CDA0B0C02
:1050500004D12404240C6C60002070BDB9218900A7
:105060000348FFF779FDF4E70248F6E7B8B20E0807
:1050700034C91D1001008A0070B505000C000368DA
:10508000002B0CDAC2600B0C04D12404240CAC609D
:10509000002070BD03490448FFF75EFDF5E70348B3
:1050A000F7E7C046CA02000034C91D1001008A009B
:1050B00070B505000C1E0BD0094B1A68B023D358ED
:1050C0005B191B68002B08DAEB682360002070BDB9
:1050D000A3210448FFF740FDEEE70348F7E7C04689
:1050E000B8B20E0834D41D1001008A00F0B51D4C72
:1050F0002568002D2CD0AC6B2418266807002C6D79
:105100002418A41B661EB441E4B2A446AC683C1942
:1051100026680F243440062CF8D81206EC680419CF
:105120001343236063460B4311D0AB68FB181B6825
:10513000DB03FAD50C4B1A682923D35C1F2B09D843
:10514000084B1B681B681B181B681B06F8D4F0BDB6
:105150000026D3E7034B1B681B681B181B68002B3A
:10516000F8D1F4E750B00E08B8B20E0810B504003C
:10517000E0239B0580220021FFF7B8FFD0239B0589
:10518000802200212000FFF7B1FFC0239B05802271
:1051900000212000FFF7AAFFB0239B0580220021F9
:1051A0002000FFF7A3FFA0239B0580220021200001
:1051B000FFF79CFF90239B05802200212000FFF732
:1051C00095FF80239B05802200212000FFF78EFFA2
:1051D000E0235B05802200212000FFF787FFC0232A
:1051E0005B05802200212000FFF780FFA0235B05E4
:1051F000802200212000FFF779FF80235B058022B9
:1052000000212000FFF772FFC0231B058022002130
:105210002000FFF76BFF80231B0580220021200068
:10522000FFF764FF8023DB04802200212000FFF7CA
:105230005DFF0023802200212000FFF757FF0B4B6A
:105240001B689B080A4A116829228A5C1F2A0AD90E
:105250000D229340F022920513438022002120006A
:10526000FFF744FF10BD0C22F3E7C04654B00E0810
:10527000B8B20E08054B1A682923D35C1F2B03D93B
:10528000034A044B1A607047034AFAE7B8B20E08A3
:105290000CD51D1050B00E08B8D41D10F0B583B059
:1052A0001400404B1B68002B70D0002941D000290E
:1052B0006ED0002C6ED080221202944200D96CE095
:1052C00080221201944255D03CD98022920194420E
:1052D00052D045D98022D20194424FD0802212026E
:1052E00094423BD10027304A12682925565D1F2E73
:1052F00048D9651E0191294251D11F2E02D93F0282
:105300002A4947509B6B1B1801991960A308292152
:10531000525C1F2A38D80C2293401A00F0239B05B8
:10532000134380220021FFF7E1FE214B1C60002087
:1053300031E0002ABBD11A6D11181B4A1268946C17
:10534000A400B4E78022920094420FD08022D200C1
:1053500094420DD080225200944211D015481AE098
:10536000802252019442F9D17027BCE77E27BAE728
:105370007C27B8E77827B6E76027B4E74027B2E78D
:105380007F27B0E70C4DB5E70D22C5E7094802E0DD
:10539000084800E0074803B0F0BD0648FBE70548B1
:1053A000F9E7C04650B00E08B8B20E0888140000E5
:1053B00054B00E080B003200FF3F000010B504008F
:1053C000FFF758FF194B1A682923D35C1F2B10D8FD
:1053D000174B2360174B1A68536B1B190121196077
:1053E000154B1B68002B16D02000FFF7BFFE0020D6
:1053F00010BD2368114A134023600E4B1B685B6885
:105400001B190F4A1A60226880231B06134323606E
:105410000323A360DEE7116D6118044B1B689A6CCF
:1054200092002000FFF73AFFDEE7C046B8B20E0850
:105430000300008050B00E0854B00E08FFFFFE7F3E
:1054400001000200F8B5CE46474680B505000C00C5
:1054500003681B0516D5802780239B00EB580F2679
:105460001E40A26A012A0FD882239B00EB58DB055D
:10547000DB0D9F4202D0A36A012B22D00CBC9046C8
:105480009946F8BD4027E7E7636A9946E262531EF2
:1054900098464B46002B02D04346002B03D12049AF
:1054A0002048FFF759FB42464946280000F0D9FC46
:1054B000A36A1B1AA362072E00D940004844606209
:1054C000D2E70023A362072E22D8636A1E7802F077
:1054D000B0F890239B00EE50F8231B018026B60005
:1054E000EE50EB5802F0A9F80F4BEA580F4B13405F
:1054F0001E430F4B1A420ED10B4BEE502368022273
:1055000013432360236B002BB8D001209847B5E7E5
:10551000636A1E88DBE707490748FFF71DFBEBE7D7
:105520001D050000E4D51D10880F0000FEFDFFFFE3
:105530008CF8FFFFEA04000068D61D10F0B5C646DF
:1055400000B505000C0003681B053CD580267608D5
:10555000A769E3699846002F01D0002B03D1344995
:105560003448FFF7F9FA42463900280000F037FCCA
:10557000236A1B182362E3691B1AE36133D1A36812
:10558000002B2CD0E768B7421FD3771E2B681B0572
:105590001DD580239F421CD2C1229200AE58FF230A
:1055A0009E431F403E43AE50234B0122EA506368A6
:1055B000012293436360236B002B01D004209847A2
:1055C00004BC9046F0BD4026C1E7013FDEE7402322
:1055D000E0E7D02189001948FFF7BEFADCE7164B57
:1055E0000022EA50E3E7A269C02189006F580F2129
:1055F0003940072900D940001018A061B342DFD21A
:105600005C1E2B681B050BD580239C420AD2C1214E
:1056100089006A58FF239A43234013436B50CFE716
:105620004023F2E7D02189000448FFF795FAEEE71E
:1056300072040000E4D51D10C80F000068D61D10CC
:10564000F0B5C64600B505000C001600002800D1D4
:10565000D1E1002900D1D0E10B78022B21D8637B66
:10566000023BDBB2062B21D8A37B002B03D0022BFD
:1056700001D0032B1FD12123E35C012B20D8282349
:10568000E35C012B21D82378012B23D9A37F002BA6
:1056900000D1B6E06368013B062B00D9B3E00023DC
:1056A0001EE04921C548FFF757FAD8E74A21C34809
:1056B000FFF752FAD8E74B21C048FFF74DFADAE777
:1056C0004C21BE48FFF748FAD9E74D21BB48FFF708
:1056D00043FAD8E76268083A082393429B415B4249
:1056E000002B00D091E0A368053B042B00D991E08A
:1056F0006369FF2B00D992E0A369FF2B00D993E0E7
:10570000A37C002B0AD02378002B03D1A368092B9C
:1057100000D18EE05421A948FFF71EFAA84B626B16
:105720001A4200D08AE0A74BE26B1A4200D08AE00E
:105730002378022B00D18BE06368591E237F002B56
:1057400000D18BE080235B02A268082A00D987E0A1
:105750008022120113430F220A4013438022920435
:1057600013432B60236B2A6812057BD5802293425A
:105770007AD2A36B2A6812057BD5802293427AD213
:10578000636A2A6812057BD5802293427AD22078F8
:105790000306C022920413402B64637F002B76D053
:1057A0004023A27C002A74D08022D2001343227CA2
:1057B000002A70D0802252001343627C002A6CD0F1
:1057C000802292001343E16A4A1E1204F0273F032D
:1057D0003A401343677B013F07223A401343A77BBC
:1057E0003F0130223A401343AB64237B002B56D059
:1057F00080225200E37B002B56D1022851D000209A
:1058000054E000236CE701236AE74F216B48FFF760
:10581000A3F968E750216948FFF79EF968E751212D
:105820006648FFF799F967E752216448FFF794F952
:1058300066E7A37B002B00D170E76BE756215F483A
:10584000FFF78AF96FE757215C48FFF785F96FE7A3
:10585000A37F002B00D06FE700216FE7002373E7E1
:10586000002277E7402282E76C215448FFF774F961
:105870007FE7402282E76D215048FFF76DF97FE70F
:10588000402282E76E214D48FFF766F97FE700234B
:1058900087E700228AE700228EE7002292E70022B3
:1058A000A8E7FF30FF3001E0802080001043A368AC
:1058B0005A1E0F2398461A400243C027BF00EA51E0
:1058C000FF2260690240A0690004FF231B04184006
:1058D0000243C42080002A50EA5943461340033350
:1058E000994201D3102903D984213448FFF734F9B0
:1058F000E37F002B04D02378012B5BD0002100E054
:105900000021627B013A072313400B43A17B09016D
:1059100030220A4013436B64237B002B5ED080212E
:105920004900A3685A1E0F2313400B432278012A13
:1059300056D00022134380229200AB50FF23226BEB
:105940001340C1229200AB502023E35C002B4AD0CD
:1059500080239B042122A25C012A46D0002213430B
:105960002822A25C012A43D000221343FF22616A4D
:1059700011400B432B65A36B1A4081239B00EA5017
:10598000114B626B1340114AAB50E36B104A13404A
:10599000104AAB50002E32D0002373603360B360E6
:1059A000F3603362F36233630B4B7363002004BC18
:1059B0009046F0BD80214900A3E7C04660D51D1088
:1059C00092F4FFFF8CF8FFFF6D0B0000C80F000082
:1059D00073070000880F0000EFCDAB000021A0E7A7
:1059E00080225202A6E70023B4E780225204B6E7E1
:1059F00080225202B9E70348D9E70248D7E70020DE
:105A0000D5E7C0460160AA0003685B005B0803603D
:105A1000002904D000234B600B600B62CB627047FF
:105A2000F8B507000E0015001C1E2FD0234B626B2B
:105A30009A4231D1002E01D0002D04D1CA21FF316C
:105A40001F48FFF789F8002E1FD0002D1DD03B689E
:105A50001B0527D580235B08A660E5600022226134
:105A600062619D4220D35D1E3B681B051ED58023CD
:105A70009D421DD2C12189007B58FF2293431540CE
:105A80001D437D500F4BFE3AFA50F8BDC821FF313F
:105A90000B48FFF761F8C9E7E42149000848FFF720
:105AA0005BF8C7E74023D6E7013DDDE74023DFE7AA
:105AB000D02189000448FFF74FF8DBE7EFCDAB00BA
:105AC00060D51D10C80F000068D61D1008694B690D
