:02000004101DCD
:1000000000C00E08234A1D100D000000914A1D106B
:1000100000000000000000000000000000000000E0
:100020000000000000000000000000008D4A1D10CC
:1000300000000000000000008D4A1D108D4A1D10B8
:100040008D4A1D108D4A1D108D4A1D108D4A1D10A0
:100050008D4A1D108D4A1D108D4A1D108D4A1D1090
:100060008D4A1D108D4A1D108D4A1D108D4A1D1080
:100070008D4A1D108D4A1D108D4A1D108D4A1D1070
:1000800010B5064C2378002B07D1054B002B02D06E
:10009000044800E000BF0123237010BDCCA70E0868
:1000A00000000000B08C1D10044B10B5002B03D0D5
:1000B0000349044800E000BF10BDC0460000000036
:1000C000D0A70E08B08C1D1070B51A4D04002B6817
:1000D0002E331B78002B04D1E9211748490004F086
:1000E00015F800202968154A0B6A1D68002D06DBEB
:1000F000904202D10120404270BD0130F5E79042AC
:10010000F8D00120B0310968DC6098605B180021EC
:100110001868002803DA9142ECD00131F8E79142E7
:10012000E8D0A0222368120600209342E4D01800F1
:10013000E2E7C04654AF0E08A87A1D10983A0000B6
:100140001FB500230193D82300049B05C01802901B
:1001500001AB02A80C000393FFF7B6FF002801D102
:10016000019B236004B010BD13B5084BC47A986896
:1001700001A9C0B2FFF7E4FF002803D1019B9C4214
:10018000804116BD01204042FBE7C0465CAF0E082F
:100190001FB5064B0004C018029001AB02A80191E4
:1001A0000393FFF791FF05B000BDC0460001003684
:1001B00010B5034BC17A9868C0B2FFF7E9FF10BDD4
:1001C0005CAF0E0830B585B001AD01912A7143785E
:1001D00004006B7183782900AB71C378EB710379EC
:1001E0002B7243796B72C38880686B8102F0F8FBD5
:1001F000002813D1237B2900AB71637BA068EB71CE
:10020000E3896B8102F092FB002807D1A06802F01D
:100210006DFC002802D1A06802F050FC05B030BD92
:10022000F8B5002504000E002800FF27B54200D1D4
:10023000F8BD0B4B0B4AD2582378032A01D0092B67
:100240000BD9094A0A33DB009958002905D0D31885
:100250005A6820003A40FFF7B5FF01351034E5E752
:10026000C4200000000020405CAF0E0870B50600FE
:100270000024104AA3019B180F491A68A3015B18B8
:100280001B68002A04DA0134102CF2D1002070BD62
:10029000002BF8DB094B3100E518AD01280002F016
:1002A00045FB0028F3D1280002F008FC0028EAD022
:1002B000EDE7C0460420234024202340808C000129
:1002C000F7B50F00040000257F26BD4201D10020B4
:1002D000FEBDA07863782278A1880090E06802F0E3
:1002E00051FC0028F4D1A188009003000200714065
:1002F000E06802F047FC0028EAD1207AE379A2798D
:1003000061890090E06802F009FC0028E0D1012337
:1003100061890090E06871401A0002F0FFFB103420
:100320000028D5D10135D0E710B51A210748FFF7CD
:10033000C7FF002808D10B210548FFF771FF0028EF
:1003400002D10448FFF792FF10BDC046107B1D107C
:10035000B07C1D10047B1D1000200949094B10B50D
:100360005B1A834203D05C1E0200234202D010BD00
:1003700001325B08022BFBD10348FFF723FFF6E7AE
:1003800000A00E0800C00E08607D1D10134A030077
:10039000D06810B51169984202D80918994206D858
:1003A000506991694118834214D38B4212D2F021D3
:1003B0000B4C090659180020A1420DD992788242AF
:1003C00008D0084A1268D16812698A1893424041DD
:1003D0008B4200D20120404210BDC0465CAF0E08E7
:1003E000FFFF1F00D0A90E0810B50400002901D09E
:1003F00001390C18144B196D5A6D012301329340C9
:100400005B18884217D3984292418C4203D39C4296
:1004100001D201225242884203D88C4201D90122E2
:100420005242984203D89C4201D901225242100004
:1004300010BD0022F1E78C42FBD300229C42EAD29D
:1004400001225242E9E7C0465CAF0E0870B50500D4
:100450000C00FFF7C9FF00280AD12800FFF796FF1C
:10046000002805D1002C03D0601E4019FFF78EFF35
:1004700070BD000070B51A4D04002B682E331B7838
:10048000002B04D1E9211748490003F03FFE002169
:100490002A681548136A1D68002D06DB814202D1C7
:1004A0008420404270BD0131F5E78142F8D001213E
:1004B000B0321268DC6099609B1800220B49186802
:1004C000002803DA8A42EBD00132F8E78A42E7D00B
:1004D000A0222368120600209342E3D01800E1E72F
:1004E00054AF0E08A87A1D10983A00000094357792
:1004F00010B5D42488B005930A9BA40506930B9BE2
:100500000094029002AC6846019403910492079310
:10051000FFF7B0FF08B010BD00B5064B89B00093DF
:10052000029002AB6846019303910492FFF7A2FF89
:1005300009B000BD000B003510B5074C88B0009421
:10054000029002AC68460194039104920593FFF770
:1005500091FF08B010BDC046000E003500B5064B37
:1005600089B00093029002AB684601930391049214
:10057000FFF780FF09B000BD000C003510B588B052
:1005800005930A9B074C06930B9B0094029002ACC8
:1005900068460194039104920793FFF76BFF08B03C
:1005A00010BDC046000D003500B5054B89B0009365
:1005B000029002AB68460193FFF75CFF09B000BDF3
:1005C000000A003500B5054B89B00093029002ABDC
:1005D00068460193FFF74EFF09B000BD00050035E6
:1005E00000B5064B89B00093029002AB68460193B8
:1005F00003910492FFF73EFF09B000BD00040035EF
:100600001FB5054B02900093684602AB019303911E
:10061000FFF730FF05B000BD001000357FB5064B79
:100620000390019301A803AB029304910592FFF795
:1006300021FF07B000BDC0460011003510B5074CC2
:1006400086B00094029002AC684601940391049233
:100650000593FFF70FFF06B010BDC046001200352E
:1006600010B5074C86B00094029002AC6846019425
:10067000039104920593FFF7FDFE06B010BDC0463E
:100680000009003530B5050089B005AC0C22002109
:10069000200006F0F9FF074B6846009302AB019378
:1006A0000294FFF7E7FE2B0007CC07C3280009B030
:1006B00030BDC046000600357FB5064B0390019360
:1006C00001A803AB029304910592FFF7D3FE07B094
:1006D00000BDC046000700357FB5054B0390019370
:1006E00001A803AB02930491FFF7C4FE07B000BD5D
:1006F000000800357FB5064B0390019301A803ABBA
:10070000029304910592FFF7B5FE07B000BDC04605
:100710000002003510B5074C86B00094029002AC80
:1007200068460194039104920593FFF7A3FE06B077
:1007300010BDC0460001003510B58CB006930E9B6D
:100740000A4C07930F9B01940893109B0390099305
:10075000119B03AC0A93129B01A802940491059289
:100760000B93FFF787FE0CB010BDC04600030035A9
:100770001FB5054B02900093684602AB01930391AD
:10078000FFF778FE05B000BD001500351FB5054B1D
:1007900002900093684602AB01930391FFF76AFE53
:1007A00005B000BD00160035F0B58DB01D0012ABD0
:1007B00040CB02921B780F000393002305AA04A9E3
:1007C0000493059300F03DF9041E3BD1204B3A0001
:1007D00000930599029B049806F05EFC002834DD26
:1007E000022007AA06A9FF300694079401F0B6F983
:1007F000002803D12900069800F0FAFF812007AAFB
:1008000006A9400001F0AAF9652400281ED1310094
:10081000069800F07DFD041E14D108A9380000F0F0
:1008200028F9041E0ED131000B9800F069FB041E5C
:1008300008D1039A29000B9800F03AF904000898AF
:1008400006F0CCFA20000DB0F0BD14246442F9E7A4
:10085000005F2D00F0B51F00002387B002910392C6
:1008600004A905AA0493059300F0EBF8041E2ED109
:10087000059800F07FF8040006F0C8FE051E31D090
:100880001A4B0200009305992300049806F004FC1B
:10089000002822DD280006F0EFFB061E20D0010014
:1008A000134800F09FF8002814D00069002811D0E8
:1008B000039B220000930197029B2900FFF774FF1E
:1008C0000400300006F08AFA280006F0A9FE200095
:1008D00007B0F0BD01246442F3E714246442F3E757
:1008E0000524FBE764246442F1E7C046005F2D0065
:1008F000707D1D1010B5010004000B4806F094FF38
:10090000002398420DD02100084806F08DFF0123F6
:10091000002806D02100064806F086FF43424341E6
:100920005B00180010BDC046777E1D10807E1D1034
:100930008C7E1D1010B5010004000B4806F074FFFA
:10094000002398420DD02100084806F06DFF0123D6
:10095000002806D02100064806F066FF43424341C6
:100960005B00180010BDC046917E1D109A7E1D10C0
:10097000A27E1D100323584380089843043070471B
:10098000F8B5C3680D000860202B21D18468124F90
:10099000002C01D12000F8BD266A002E06D03100BF
:1009A0000E4806F041FF002802D16C602468EFE792
:1009B00031000B4806F038FF002801D1AC60F5E7A4
:1009C0003100380006F030FF0028EFD1EC60EDE791
:1009D00002204042DFE7C046B97E1D10AA7E1D10EE
:1009E000B07E1D10F0B507000D00002491B001AEDF
:1009F000002D02D1280011B0F0BD296A002904D0D1
:100A0000380006F011FF0028F4D0AB68002B06D0A8
:100A10000E2C12D8A200955101341D00E8E72B6876
:100A2000002BFAD1002C0AD0013CA3009B591B6873
:100A3000002BF2D1002CF7D1EFE70025DAE72500F3
:100A4000D8E7F8B50E002E21170006F0DFFE041ED1
:100A50000CD0451C2E21280006F0D8FE002805D019
:100A6000001B0138386000203560F8BD1620404278
:100A7000FBE770B5050000200C0006F095F9280092
:100A800006F0FAFA002803D02100FFF779FF70BDC5
:100A900005204042FBE7002304220133002901D155
:100AA000904203D952001D2BF7D102331800704732
:100AB000F0B589B005900C000100C54807920027E9
:100AC000FFF790FFB84200D14BE185680697029589
:100AD0000497029B002B00D090E0EB68202B00D005
:100AE0003FE12E00BB4F31003800FFF77BFF0028AD
:100AF00000D1E6E0037E079A9A4200D0E1E031009F
:100B0000B548FFF76FFF8369237029003800FFF7AE
:100B100069FF002804D02278037E9A4200D1A9E11F
:100B20002D68002DF1D12900AC48FFF75BFF0028AC
:100B300007D02300FF335B7B012B02D18369DBB23B
:100B4000A3602900A648FFF74DFF002808D0230026
:100B5000FF339B7A012B03D1C3685A1E9341637004
:100B60002900A048FFF73EFF002808D02300FF33EC
:100B70001B7B012B03D1C3685A1E9341E3702900EC
:100B80009948FFF72FFF002806D02300FF331B7B77
:100B9000012B01D18369237129009448FFF722FFBB
:100BA000002809D02300FF331B7E012B04D1C3682A
:100BB0005A1E9341E21CD37729008D48FFF712FF9C
:100BC000002800D1A6E0C368102B00D0A2E0826804
:100BD0002300200012331530FF33FF30002A00D1EC
:100BE00098E01978012903D119009669F5390E703A
:100BF0000133984200D18DE01268EFE702997D48F9
:100C0000FFF7F0FE002804D083680193019B002BBE
:100C100003D1029B1B6802935BE701997648FFF7BB
:100C2000E1FE00284AD0036974491800039306F0D6
:100C3000FBFD002842D07249039806F0F5FD00281C
:100C40003CD000266F4AB3009958039806F0ECFD9B
:100C5000071E05D00136172EF4D10527183E7F4216
:100C600001996948FFF7BEFE002801D08369069309
:100C700001996648FFF7B6FE002804D0C169806973
:100C8000FFF709FF0490731C18D0049B002B15DD9F
:100C900092227300E31852009A5C012A04D13200B8
:100CA00006990A32D20011512622FF329B5C012B99
:100CB00004D10A36F600049BA6197360019B1B68D9
:100CC000A3E73668002E00D00CE71EE74C49380039
:100CD00006F0AAFD002800D0FFE031004A48FFF7E7
:100CE00081FE002806D02300FF331B7C012B01D19D
:100CF0008369636131004548FFF774FE002800D125
:100D0000EBE02300FF331B7C012B00D0E5E083697F
:100D1000A361E2E029003E48FFF764FE002817D0F7
:100D2000C368102B14D182682300200015331830BB
:100D3000FF33FF30002A0BD01978012903D11900A5
:100D40009669F5390E700133984201D01268F1E7C7
:100D500029003048FFF746FE002835D00027836978
:100D6000A37005992C48FFF73DFE002858D00025B8
:100D70008668002E54D031002448FFF733FE002847
:100D80000BD063191A001A32FF321278012A04D1EB
:100D900002326A439B1882699A6231001F48FFF74A
:100DA00021FE00280BD063191A001932FF32127885
:100DB000012A04D102326A439B1882695A620235C1
:100DC0000A2D2DD03668D4E7A0700700C9E7C046C9
:100DD000777E1D10E07D1D10957D1D109C7D1D10E2
:100DE000BE7E1D10A67D1D10AE7D1D10BD7D1D108B
:100DF000C47D1D10797D1D10C67E1D10837D1D10C4
:100E0000887D1D1080A00E08167F1D10907D1D107E
:100E1000CE7D1D10DB7D1D10E37D1D10ED7D1D10B1
:100E200005992F48FFF7DEFD051E20D001002D4853
:100E3000FFF7D8FD00280AD02423FF33E35C012B01
:100E400005D1C3685A1E934122004D321370290008
:100E50002548FFF7C7FD002809D091235B00E35C1C
:100E6000012B04D1C3684C345A1E934123703800BF
:100E700009B0F0BD29001D48FFF7B4FD002800D1DE
:100E800051E68668002E00D14DE631001848FFF784
:100E9000A9FD002821D007691649380006F0C4FCD6
:100EA000002800D012E731001348FFF79BFD00280F
:100EB00006D02300FF339B7B012B01D18369E360C4
:100EC00031000E48FFF78EFD002806D02300FF33C7
:100ED000DB7B012B01D1836923613668D2E7C046F1
:100EE000F37D1D10FF7D1D100B7E1D10797D1D10E3
:100EF000C67E1D10837D1D10167F1D10907D1D1058
:100F0000F8B507000C000100BA48FFF76BFDBA4EB8
:100F1000051E2AD001003000FFF764FD002808D02C
:100F2000230068331B78012B03D10069FFF702FD12
:100F300020702900B148FFF755FD002808D0230094
:100F400069331B78012B03D10069FFF7D3FC607074
:100F50002900AB48FFF746FD002806D023006A337E
:100F60001B78012B01D18369A3703900A548FFF7D5
:100F700039FD051E2AD001003000FFF733FD00289F
:100F800008D023006B331B78012B03D10069FFF7D6
:100F9000D1FCE07029009948FFF724FD002808D013
:100FA00023006C331B78012B03D10069FFF7A2FCEF
:100FB000207129009248FFF715FD002806D0230074
:100FC0006D331B78012B01D18369637139008E4821
:100FD000FFF708FD051E00D184E001003000FFF797
:100FE00001FD002808D023006E331B78012B03D1AC
:100FF0000069FFF79FFCA07129008048FFF7F2FC11
:10100000002808D023006F331B78012B03D100691F
:10101000FFF770FCE07129007948FFF7E3FC002836
:1010200006D0230070331B78012B01D18369237212
:1010300029007648FFF7D6FC002808D0230071333A
:101040001B78012B03D1C3685A1E93416372290098
:101050006F48FFF7C7FC002808D0230072331B78C5
:10106000012B03D1C3685A1E9341A372290069481A
:10107000FFF7B8FC002808D0230073331B78012B3E
:1010800003D1C3685A1E9341E37229006248FFF7F7
:10109000A9FC002808D0230074331B78012B03D14E
:1010A000C3685A1E9341237329005C48FFF79AFCDA
:1010B000002808D0230075331B78012B03D1C368A7
:1010C0005A1E9341637329005548FFF78BFC002893
:1010D00008D0230076331B78012B03D1C3685A1E36
:1010E0009341A37339004F48FFF77CFC05000100D2
:1010F0003000FFF777FC002808D0230077331B78F7
:10110000012B03D10069FFF715FC207429003C482E
:10111000FFF768FC002808D023008C331B78012BD4
:1011200003D12300826964331A7029003E48FFF717
:1011300059FC00282AD000268768002F26D03900C5
:101140003A48FFF74FFC00280AD0A3191A0078325A
:101150001278012A04D1023272439B1882695A61C3
:1011600039003348FFF73EFC00280AD0A3191A00C3
:1011700079321278012A04D1023272439B188269B3
:101180009A6102360A2E01D03F68D6E72900294825
:10119000FFF728FC00282BD0002503278668002EA7
:1011A00026D031002148FFF71DFC00280AD0631922
:1011B0001A0082321278012A04D13A006A439B183D
:1011C0008269DA6331001A48FFF70CFC00280AD064
:1011D00063191A0083321278012A04D13A006A4353
:1011E0009B1882691A6402350A2D01D03668D6E749
:1011F0000020F8BD1D7E1D10217E1D102C7E1D10AF
:10120000347E1D10387E1D103B7E1D10427E1D1049
:101210004A7E1D10697E1D10277F1D10317F1D1015
:10122000387F1D104F7E1D10537E1D10ED7D1D104B
:10123000907D1D10617E1D1070B504000D0086B0FC
:101240000021142201A806F01FFA29002000FFF750
:10125000C9FB0400002C18D021001C48FFF7C2FB7A
:101260000028F7D00569002D0AD0194E290030005A
:1012700006F0DAFA00280BD1310001A806F0DEFAF8
:10128000210001A8FFF7AEFB0400200006B070BDEE
:10129000104E2900300006F0C7FA0028ECD02900D3
:1012A0000D4806F0C1FA0028E6D00C4E29003000A7
:1012B00006F0BAFA0028DFD02900094806F0B4FA8F
:1012C0000028DDD121000748C1E7C046C67E1D10B9
:1012D000EE7E1D10D77E1D10DE7E1D10E67E1D10D9
:1012E000CB7E1D10D17E1D1010B5FFF77BFB0124B6
:1012F000002809D08168002906D00448FFF772FB56
:10130000002801D0C468E4B2200010BD6F7E1D101B
:10131000F0B5050085B000200C0005F045FD280063
:1013200005F0AAFE0190002800D14BE20100A1487F
:10133000FFF758FB051E00D0B4E001235B42009389
:1013400001999D48FFF74EFB051E00D0EEE00123FA
:101350005B42009301999948FFF744FB051E00D0BA
:101360003EE101235B42009301999548FFF73AFB68
:10137000071E00D122E2934E01003000FFF75CFF10
:10138000390005003000FFF7AFFF0600002D00D147
:10139000F6E12869FFF7CEFA2300773320741E7038
:1013A000894E39003000FFF747FF39000500300053
:1013B000FFF79AFF002D00D1E6E12300AA6964330C
:1013C0001A702833187039008048FFF70BFB051E90
:1013D00000D1E6E101007E48FFF72EFF290006005C
:1013E0007B48FFF781FF0390002E00D1D0E1B36965
:1013F000029329007748FFF71FFF29000600754870
:10140000FFF772FF002E00D1C7E1B669230022006A
:101410002100143378323C31029D5E601D606D46C0
:101420002D7B08335070157002329942F4D1390087
:101430006948FFF7D7FA061E00D1BFE1644F0100EB
:101440003800FFF7F9FE310005003800FFF74CFFC8
:101450000390002D00D1A8E1AB6902935D4F3100EC
:101460003800FFF7E9FE310005003800FFF73CFFC8
:10147000002D00D19EE1AD69230022003C33823271
:10148000643402995D6019606946097B08335070C5
:1014900011700232A342F4D1019805F09FFC00982C
:1014A00005B0F0BD474F01003800FFF7C5FE290029
:1014B00006003800FFF718FF0700002E2FD0306914
:1014C000FFF738FA2300683320701F700023434F62
:1014D000290038000093FFF7AFFE2900060038000E
:1014E000FFF702FF0700002E1CD03069FFF702FA59
:1014F0002300693360701F70334F29003800FFF7F5
:101500009BFE290006003800FFF7EEFE002E00D1FA
:1015100013E7B369A37023006A33187010E701233F
:101520005B42D4E701235B420093E5E7254F0100CE
:101530003800FFF781FE290006003800FFF7D4FECF
:101540000700002E2DD03069FFF7F4F923006B332C
:10155000E0701F70214F29003800FFF76DFE290051
:1015600006003800FFF7C0FE0700002E1DD03069CE
:10157000FFF7C0F923006C3320711F70124F290050
:101580003800FFF759FE290006003800FFF7ACFECF
:10159000002E00D1DBE6B369637123006D33187050
:1015A000D8E601235B420093D4E701235B4200931A
:1015B000E4E7C0461D7E1D10387E1D103B7E1D10C9
:1015C0004F7E1D10217E1D10347E1D10537E1D1078
:1015D000ED7D1D10907D1D10617E1D102C7E1D1057
:1015E0007A4F01003800FFF727FE29000600380077
:1015F000FFF77AFE0700002E00D1A1E03069FFF767
:1016000099F923006E33A0711F70714F29003800C3
:10161000FFF712FE290006003800FFF765FE0700FD
:10162000002E00D190E03069FFF764F923006F339A
:10163000E0711F70674F29003800FFF7FDFD29009A
:1016400006003800FFF750FE002E00D180E0B3699D
:1016500023722300703318705F4F29003800FFF7A2
:10166000EBFD290006003800FFF73EFE002E73D088
:10167000F3685A1E93416372230071331870574FF9
:1016800029003800FFF7D8FD290006003800FFF7D1
:101690002BFE002E64D0F3685A1E9341A3722300E0
:1016A000723318704E4F29003800FFF7C5FD29002E
:1016B00006003800FFF718FE002E55D0F3685A1EBA
:1016C0009341E372230073331870464F29003800AA
:1016D000FFF7B2FD290006003800FFF705FE002ED7
:1016E00046D0F3685A1E9341237323007433187055
:1016F0003D4F29003800FFF79FFD29000600380004
:10170000FFF7F2FD002E37D0F3685A1E9341637342
:10171000230075331870354F29003800FFF78CFD12
:10172000290006003800FFF7DFFD002E00D118E683
:10173000F3685A1E9341A37323007633187013E69F
:1017400001235B42009360E701235B42009371E752
:1017500001235B4200937FE701235B4200938EE706
:1017600001235B4200939DE701235B420093ACE7BA
:1017700001235B420093BBE701235B420093CAE76E
:1017800001235B4200930BE601235B4200931AE6C0
:1017900001235B42029600932BE601235B420093F8
:1017A00034E601235B42009341E601235B4202954C
:1017B000009353E601235B4200935DE601235B4205
:1017C000009369E605235B42009368E6217E1D10C5
:1017D0002C7E1D10347E1D10427E1D104A7E1D1071
:1017E000697E1D10277F1D10317F1D10387F1D1051
:1017F000F0B5050085B000200C0005F0D5FA2800F2
:1018000005F03AFC0190002800D182E10100C348B4
:10181000FFF7E8F8051E00D13BE1C14F0100380099
:10182000FFF70AFD290006003800FFF75DFD002ED6
:1018300000D10AE1B36923702300FF3358720023FB
:10184000B84F290038000093FFF7F6FC2900060086
:101850003800FFF749FD002E00D1F9E0F3685A1E69
:10186000934163702300FF339872AF4F2900380013
:10187000FFF7E2FC290006003800FFF735FD002ED7
:1018800000D1E9E0F3685A1E9341E3702300FF336F
:101890001873A64F29003800FFF7CEFC2900060078
:1018A0003800FFF721FD002E00D1D9E0B369DBB28B
:1018B000A3602300FF3358739D4F29003800FFF7C2
:1018C000BBFC290006003800FFF70EFD002E00D1FA
:1018D000CAE02200B369FF32DBB2237790746377EA
:1018E000D074A3771075934F29003800FFF7A4FC3C
:1018F000290006003800FFF7F7FC002E00D1B7E002
:101900002200B369FF32DBB2611CE3775075CB77FD
:10191000A11C9075CB77D075874E29003000FFF75A
:101920008BFC290007003000FFF7DEFC002F00D100
:10193000A2E0FB685A1E9341E21CD3772300FF33D9
:10194000187601997D48FFF74DF80600002F00D169
:101950009FE0230001227A4FFF3301009A73DA736C
:101960001A745A743800FFF767FC3100050038001C
:10197000FFF7BAFC0390002D00D181E0AB69029320
:10198000704F31003800FFF757FC31000500380078
:10199000FFF7AAFC002D00D177E0AD6922002100FD
:1019A0002300253209315033FF32FF31029E5D6042
:1019B0001E606E46367B08331670507002328B42C2
:1019C000F4D101996048FFF70DF8061E00D16DE0D3
:1019D0005E4F01003800FFF72FFC31000500380092
:1019E000FFF782FC0390002D57D0AB690293554F4F
:1019F00031003800FFF720FC310005003800FFF708
:101A000073FC002D4ED0AD69220023002100193255
:101A10002433FF324C31029E5D601E606E46367B81
:101A200008335070167002329942F4D10199484837
:101A3000FEF7D8FF051E3DD101235B4200930198BC
:101A400005F0CCF9009805B0F0BD01235B42F7E644
:101A500001235B42009308E701235B42009318E7F0
:101A600001235B42009327E701235B4200933AE79F
:101A700001235B4200934FE701235B42009360E741
:101A800001235B42029500937AE701235B420093B6
:101A900084E701235B42009393E701235B420295B5
:101AA0000093A4E701235B420093ADE701235B426F
:101AB0000093BBE7274F01003800FFF7BDFB29006B
:101AC00006003800FFF710FC002E1ED0F3685A1EE7
:101AD000934122004C32137091235B00E0541E4F5F
:101AE00029003800FFF7A8FB290006003800FFF79F
:101AF000FBFB002EA0D0F3685A1E934122004D320A
:101B000013702423FF33E05499E701235B420093D1
:101B1000E5E705235B42009394E7C046777E1D10FE
:101B2000E07D1D10BE7E1D10A67D1D109C7D1D102C
:101B3000C47D1D10CE7D1D10BD7D1D10797D1D1035
:101B4000167F1D10907D1D10E37D1D10ED7D1D1075
:101B5000F37D1D100B7E1D10FF7D1D10DC23F0B5E5
:101B60009B0585B0009300231F4F02AC01940290A7
:101B700063603B680D002E331B781600002B04D1E8
:101B8000E9211A48490002F0C1FA00203968184AD0
:101B90000B6A1F68002F07DB904203D101204042EF
:101BA00005B0F0BD0130F4E79042F7D06846D86048
:101BB0000120B031096898605B180021186800287E
:101BC00003DA9142EAD00131F8E79142E6D0A0234E
:101BD000009A1B069A4201D00098E1E7029B002080
:101BE000336063682B60DBE754AF0E08A87A1D10E2
:101BF000983A0000F0B517009822D9B0069152002B
:101C000000210600BFB20CA8079305F03DFD0AAA0B
:101C100009A93800FEF76EFD00250400A8422AD16C
:101C2000C0228021099BD2051A40C9058A4233D1BE
:101C30000A9BDC1DE40820000B9405F0E7FC051E60
:101C40005CD0220001000BAB3800FEF763FD041EE0
:101C500011D16B46198B1023320004930293294B48
:101C6000403230360392009301960B9B2A000CA859
:101C7000FEF762FD0400280005F0D2FC002C05D11F
:101C8000202207990CA8FEF7ABFC04000CA8FEF775
:101C900099FC200059B0F0BD1B4A934207D10A9B22
:101CA0005C0809230134E4085C433B34C3E7174A6A
:101CB000934203D10A9BDC081034BCE7144A9342D8
:101CC00005D103240A9BDB085C435A34B3E7114A6D
:101CD000934205D103240A9BDB085C434A34AAE7FC
:101CE0000D4A1B0C1B049342A2D00C4A9342A2D172
:101CF0000A9BDC1DE408640001349CE78D246442E7
:101D0000B9E7C0460901202200000170000001600F
:101D10000000027000000260000003700000036019
:101D20000230800803D001300238FCD1C046C046E2
:101D30007047EFF3108072B6704780F310887047D9
:101D4000014B18607047C04654AF0E08044B1B6827
:101D50001A1DD26F1B689B181868000E7047C0468A
:101D600054AF0E08044B1B681A1DD26F1B689B18DA
:101D70001868000AC0B2704754AF0E081D4B984255
:101D80000FD010D840282FD005D8002830D01028E8
:101D900028D019481EE0802828D080235B00984274
:101DA000F7D1144816E0154B984214D008D8A02358
:101DB0001B0698421CD0124B9842EAD1A0200BE09F
:101DC000104B98420AD0104B984209D00F4B9842C2
:101DD000DFD10F487047A420C003FBE70D48F9E7A7
:101DE0000D48F7E70D48F5E70D48F3E70D48F1E733
:101DF0000020EFE706005200FF005200010000F053
:101E0000090000A0040000F0050000F0030000F04D
:101E10000100520002005200030052000100500075
:101E2000020050000500520070B50A4D04002B68F6
:101E30002E331B78834204D8E9210748490002F079
:101E400065F92B681A00AC3210884443186A2018D0
:101E500070BDC04654AF0E08A87A1D1010B5002002
:101E6000FFF7E2FF0A4B1C682300B0331B68C01861
:101E70000368002B0ADB074B1868FFF77FFF01227E
:101E800063689A609A68002AFCD110BD0248FCE79A
:101E900054AF0E08E8A70E080200500070B5C40544
:101EA0000500E40D28D102F007FE144B144A1A6015
:101EB0005D609C60DC60134B1B685033197800290F
:101EC00015D0FFF743FF0400FFF74CFFFA21013460
:101ED000013060430C4B0D4C89004443186805F0F9
:101EE000CFF90100200005F0CBF9094BC118802083
:101EF000400005F0C1FD70BD0648FCE7E8A70E08EC
:101F00000001001C54AF0E08E0A00E0860F5900020
:101F1000980800000600520070B5C40506000D00C8
:101F2000E40D2AD1002928D002F0C6FD144B154A31
:101F30001A605C609E60DD60134B1B684E3319783D
:101F4000002915D0FFF702FF0400FFF70BFFFA216D
:101F50000134013060430D4B0D4C89004443186837
:101F600005F08EF90100200005F08AF9094BC1182F
:101F70008020400005F080FD70BD0748FCE7C046AA
:101F8000E8A70E080001000554AF0E08E0A00E08F7
:101F9000C0EA2101482600000600520070B5060084
:101FA0000C001500072903D91449154802F0AEF8B2
:101FB0001F232A009A4303D01249114802F0A6F8C1
:101FC000114B1B689A695B69B01AC0090001C018FF
:101FD0001F231D40032C07D8E400A340A54002683E
:101FE0009A431543056070BD043CE400A340A5403E
:101FF00042689A4315434560F5E7C04692020000E7
:1020000083811D109302000054AF0E08F0B585B017
:1020100000900D001400002800D137E1002A00D103
:1020200034E1072903D94F21994802F06FF823685A
:10203000012B03D95021964802F068F80F236268FB
:102040009A4303D05121924802F060F81F22237A6C
:10205000934303D052218E4802F058F8E368032BD3
:1020600003D953218A4802F051F82369012B03D97F
:102070005421874802F04AF86369012B03D955219E
:10208000834802F043F8A369012B03D95621804805
:1020900002F03CF8E369032B03D957217C4802F096
:1020A00035F8236A012B03D95821794802F02EF81C
:1020B000636A012B03D95921754802F027F8A36AF6
:1020C000012B03D95A21724802F020F8E36A032B4E
:1020D00003D95B216E4802F019F8236B072B03D953
:1020E0005C216B4802F012F82668072D03D9694974
:1020F000694802F00BF80122AA400192012E07D98B
:102100006649654802F002F8009B019A9A6004E073
:10211000002EF9D1009B019A5A606668072D03D9F9
:102120005F495D4801F0F2FF0F2332009A4303D06C
:102130005C49594801F0EAFF0F215B4FAB00029365
:102140003B68080079331A78009B0E40D218136858
:10215000A9009C46AB00984063468E4083431E43D3
:102160001660227A29000098FFF718FFE668082D0C
:1021700003D94E49484801F0C9FF032E03D94C4901
:10218000454801F0C3FF032108006B0003933B683F
:102190006F00B8400E40BE4078331A78009B9A1802
:1021A000136883431E4316602669082D03D94149ED
:1021B000394801F0ABFF012E03D93F49364801F001
:1021C000A5FF019A009BD74301221640AE409B69B0
:1021D0003B401E43009B9E616669072D03D937492A
:1021E0002D4801F093FF012E03D935492A4801F00B
:1021F0008DFF01202C4B06401968AE400B00844631
:102200007A331B78009AD3181A68174037431F6037
:102210000B0062467B331878009B6E001818A36988
:1022200010361340AB40E56902321540B540B2406C
:102230002B43019D07682A4397433B4303600220D9
:1022400004257C310A78009B9A18636A11685B0048
:102250000340A06A8000284003436046256A284066
:1022600018250343E06AC00028400343206BFF2485
:10227000400120400343FE20029D80000540AB400A
:102280000020A1430B43136005B0F0BD0D48FBE7F0
:102290002C811D103103000083811D1032030000CA
:1022A000CE030000CF03000054AF0E08F20600007A
:1022B000F306000073060000740600000D04000021
:1022C0000E04000001005A000B4B70B51B6805009E
:1022D000B0331B680C00C3181B68002B0ADA0B0C08
:1022E00004D0B9210548890001F010FF0020A4B2F4
:1022F0006C6070BD0248FCE754AF0E08A87A1D1050
:1023000001008A00036870B505000C00002B0ADA92
:10231000C2600B0C03D00549054801F0F7FE002010
:10232000A4B2AC6070BD0348FCE7C046CA0200001E
:10233000A87A1D1001008A0070B505000C1E03D19B
:10234000A321084801F0E2FE074B1B68B0331B686D
:10235000EB181B68002B03DA0020EB68236070BDCC
:102360000248FCE7DB811D1054AF0E0801008A0013
:10237000024B1A68002A00D118607047FCA70E08AB
:10238000F7B52C4D1F002B68040000910192002B23
:1023900003D1BF21284801F0B9FE2C23FF225C4362
:1023A0002B683D001C193B0A3F0CA760234F1340CC
:1023B00063603B68154025602E331B789D4204D333
:1023C000E9211F48490001F0A1FE3B681A00AC3228
:1023D000128855431A6A2F33AD1825611B7865683A
:1023E0009D4204D3F7211648490001F08FFE3B6857
:1023F00080351B6A6D01A668ED186561330C08D045
:102400000F4F1049380001F081FE0F49380001F0EC
:102410007DFE33041A0C1343AB60019BE361009B08
:1024200023620023A361089B002B01D01B88A3819A
:10243000F7BDC046FCA70E0835821D1054AF0E082C
:10244000A87A1D100D0200000E020000F0B5040075
:1024500085B0002803D15C21214801F057FE636854
:10246000032B03D95E211E4801F050FEE36A002BC6
:1024700003D162211A4801F049FE236B002B03D1DE
:102480006321174801F042FEA36802AD2B80154B73
:1024900022681B68E16A9B8EE0689B186B8063680A
:1024A000A26A039300952369266A676AFFF768FFAB
:1024B00000213B000A0000913000FFF761FF216B13
:1024C000280001F0ABFD0022AB5E002B06DB1F22D3
:1024D00013401E3A9A401300034A136005B0F0BD42
:1024E00035821D1054AF0E0800E100E0F7B504007E
:1024F0000F00151E019304D108211D48FF3101F082
:1025000005FE1C4E3368002B04D184211848490075
:1025100001F0FCFD2C235C4332685F4314192669EB
:10252000D719002E1FD0BB69002B1ED13368002B9A
:102530001BDA01226368140011009C407B689940FB
:102540002B6809049BB20B432B60019BF5607B62F7
:10255000BA61230C03D00849084801F0D7FD0020D8
:10256000A4B2B460FEBD0648FCE70648FAE7C046E0
:1025700035821D10FCA70E08CA020000A87A1D10A3
:1025800004028A0007028A00002373B50400019345
:10259000984204D1DC212C48FF3101F0B7FD2369BA
:1025A000002B04D1EE212848490001F0AFFD6369FA
:1025B000002B04D1DE212448FF3101F0A7FD236A5E
:1025C000002B04D1EF212048490001F09FFD6269F2
:1025D000D5682B0C22D01B04136013681B4B206999
:1025E0001B68B0331B68C3181B68002B16DA01A9DF
:1025F000FFF7A2FE0026B0420CD10198E269036801
:102600001E0CDBB29A4205D9226A9B009B58002B14
:1026100000D0984731002069FFF756FEADB2002D7B
:1026200009D063691D6000251B68636AAB4205D051
:1026300098476562A56163691B6873BDA36A002B37
:10264000F8D09847F6E7C04635821D1054AF0E0803
:1026500070B5084C05002368002B04D1BC21064846
:10266000FF3101F053FD2C20454320684019FFF74E
:102670008BFF70BDFCA70E0835821D1070B50A4D8A
:1026800004002B682E331B78834204D8E9210748C5
:10269000490001F03BFD2B681A00AC32108844431E
:1026A000186A201870BDC04654AF0E08A87A1D10D5
:1026B000F8B5174B0D001B682E331B78834225D9C4
:1026C000002923D01F240B681C401FD1FFF7D6FF21
:1026D00007002B680F4EDA0821003060686804F0AC
:1026E000D3FF21003800FFF7EFFD21002A003068FA
:1026F000FFF708FE041E07D101003068FFF7E4FD74
:1027000003002000002B00D00348F8BD0348FCE77D
:1027100054AF0E0800A80E0801018A0003018A00C8
:1027200010B50C00002A07D100290DD1FFF7A6FF34
:10273000064B1860200010BD002905D004490C602C
:102740004A60FFF7B5FFF6E70248F4E700A80E0875
:1027500004C00E0803018A00F7B5184F04003B6857
:102760000191DE683368834226D90025A94202D14F
:10277000FFF7DFFA050038680368002B1ADA1F221A
:1027800001232240934064097268A400141922684E
:1027900013420DD09A43226000240021FFF794FDDC
:1027A000019B002B02D12800FFF7C7FA2000FEBDD5
:1027B000034CF2E7034CF3E7034CF7E700A80E08DD
:1027C000020188000301880004018A000A4B1B688B
:1027D000DB681A6882420DD959681F2342091840E4
:1027E0001E3B8340920050581840431E9841034BB3
:1027F000C01870470248FCE700A80E0800018800D6
:1028000004018A00F7B5214D01902D6808AC2C35E4
:102810002D7824781F2D36D90C259B002B40093D9F
:102820002A401A436342634100251B011A43009268
:102830001F272A00490000291ED00026019B940072
:102840001C1923680120014205D03800B0408343A1
:102850000098B040034308364908202EF2D1236087
:10286000002A03D126685E40BE4307D124689C42FB
:1028700007D10132042ADED12800FEBD044D012219
:10288000D9E7034DF5E7034DF6E7C04654AF0E0810
:102890000300C2000200C20070B5154E0400336888
:1028A0000D005B6CC340DB0703D4A821114801F085
:1028B0002DFC0F2D03D9A9210E4801F027FCF02291
:1028C0002B041203290013400F2211400B433168DF
:1028D000A402096964188021C9016350605810403E
:1028E000401B431E9841044B4042184070BDC046F7
:1028F00054AF0E0890821D100300C20070B5094D40
:1029000004002B685B6CC340DB0703D4C821064876
:1029100001F0FCFB2B6810341B69A402E0580F2364
:10292000184070BD54AF0E0890821D1070B50400A1
:102930000D00002804D1BD212448490001F0E6FB28
:102940006B89DB0B04D07C212048FF3101F0DEFBDA
:102950000222AB799343012B04D0BE211B484900CE
:1029600001F0D4FB0222EB799343012B04D07E21AA
:102970001648FF3101F0CAFB6A897F231100994391
:1029800022D10721AB7952020B4013436A7A3131CD
:1029900092071343EA79D2000A4013430122297AAD
:1029A0004A40920113431A0009490A409A420BD146
:1029B0006262606A0840801A43425841054B4042B7
:1029C0001840054BC01870BD0448FCE790821D10EC
:1029D000DBFEFFE0FDFF3DFF0300C2000100C2007F
:1029E00070B504000D00002804D1E1212E484900F3
:1029F00001F08CFB6B89DB0B04D0C4212A48FF312A
:102A000001F084FBAB79072B04D9E2212648490069
:102A100001F07CFBEB79072B04D9C6212248FF315A
:102A200001F074FB2B79073B182B04D9E3211E48D6
:102A3000490001F06BFB6B897F22190091430A1E4C
:102A40002ED12968FF3291430A006979A8790A4397
:102A500007215B02084018436B7A31319B0718430A
:102A6000EB79DB000B4018430123297A4B40F82116
:102A70009B0118432B7949051B060B4003436360F8
:102A80002260216891420DD16068084A1040C01A46
:102A900043425841064B40421840064BC01870BD97
:102AA0000548FCE70348FAE790821D10FFFEFFFF90
:102AB000FDFF3DFF0300C2000100C20010B5041E6F
:102AC00003D10749074801F021FB8023626A1B06F6
:102AD00013436362606A044BC00F0138184010BD95
:102AE000FF01000090821D100300C20010B5041EFB
:102AF00003D10749074801F009FB802362681B06E0
:102B0000134363606068044BC00F0138184010BD68
:102B10004F02000090821D100300C200F0B585B086
:102B20001E000AAB1B7804000F0015000393002859
:102B300003D11049104801F0E9FA02232A009A4310
:102B4000012A03D00D490C4801F0E0FA02233200BB
:102B50009A43012A03D00A49074801F0D7FA200016
:102B6000039B2A000093390033003030FFF74AFE00
:102B700005B0F0BDBA04000090821D10BB04000037
:102B8000BC040000F0B585B01E000AAB1B78040041
:102B90000F0015000393002803D10E490E4801F0E1
:102BA000B5FA032D03D90D490B4801F0AFFA032EF6
:102BB00004D99F210848C90001F0A8FA2000039B0E
:102BC0002A000093390033001030FFF71BFE05B0D8
:102BD000F0BDC046F604000090821D10F70400000E
:102BE000036810B50400002B07D0012001F084FA1F
:102BF0002368013B2360002B01D0002010BD014859
:102C0000FCE7C0460200B200030A08704B70030CD8
:102C1000000E8B70C870704770B504000D0000285E
:102C200041D000293FD0002B3DD05A62F922032128
:102C3000D20083588B4383502B68DBB2012B03D91E
:102C400057311A4801F062FAAB68DBB2032B03D9A3
:102C50005B21164801F05AFA6B68072B03D95C21F7
:102C6000124801F053FAEB68DBB2012B03D95D2166
:102C70000E4801F04BFAC022E021AB6892011B0321
:102C800013406A68C90212040A40134301222968EA
:102C900000200A4080211343EA68490412060A40D2
:102CA0001343236070BD0248FCE7C046E7821D1055
:102CB0000400B20010B50400012907D9A02107487B
:102CC00001F024FA01232268134304E00029F9D11A
:102CD000012203689343236010BDC046E7821D10A4
:102CE00070B54E1EF3B204001500012B07D904295C
:102CF00025D0082927D0E521154801F007FA032D32
:102D000003D9E621124801F001FA072E14D8300049
:102D100004F0ACFA041312171212121B80231B01C9
:102D2000E418002C08D0C0222D049202236815401C
:102D3000084A13401D43256070BD8823EFE7032A2E
:102D4000DFD89023EBE7032ADBD89823E7E7C046D8
:102D5000E7821D10FFFFFCFFF0B5160089B0059358
:102D60000EAB04CB01901B780291049310AB1D783D
:102D7000331FDBB20392129CFA2B04D83E213B484E
:102D8000FF3101F0C3F9049B043BDBB2FA2B04D8FA
:102D90009F213648490001F0B9F96B1E012B08D973
:102DA000FB222B1F134204D040213048FF3101F099
:102DB000ADF9119B2D02DF07039B3604002B46D093
:102DC000059B002B04D1A0212848490001F09EF961
:102DD000049BFF2B04D142212448FF3101F096F9D6
:102DE000F0231B011D40636A0793C0239B021E4012
:102DF000029B2B4333433E0C00270024C0221F4379
:102E0000019B20001F650727049B92021B041340AF
:102E10001D43039B9C4202D2154B984201D109B03D
:102E2000F0BD019B5B6C3B40032B0CD8059B0399C9
:102E30001B5D01342B4332008C4200D2002213432D
:102E4000019AE4B2136507A8FFF7CAFEE1E7F02391
:102E50001B011D40636A3F0C0793C0239B021E4069
:102E6000029B2B4333433E00C7E7C046E7821D1059
:102E70000200B200F7B50093043BDBB205000F007F
:102E80001600099CFA2B04D8AA211948FF3101F039
:102E90003DF9731E0193174B721E9A4204D9D52136
:102EA0001348490001F032F907226B6C1340032BE1
:102EB0001CD8C022009B92021B0413406A4680214A
:102EC0009288C9020A4313432B65381E0DD0089B14
:102ED0002760F922A660E36102230020A361D200EB
:102EE000A958013B0B436660AB50FEBD0248FCE7AE
:102EF000E7821D10FFFF00000100B200F7B501934B
:102F0000043BDBB205000F001600099CFA2B03D826
:102F10001549164801F0FAF8002E21D007226B6CF3
:102F20001340032B1ED88023C021721E1B0392B2B4
:102F30001A43019B89021B040B4013432B65381E67
:102F40000DD0089BE760F92266612362042300200C
:102F5000A361D200A958023B0B432661AB50FEBDD2
:102F60000348FCE70348FAE76D020000E7821D1002
:102F70000400B2000100B200F0B51F00043BDBB258
:102F80008FB006000D001400FA2B03D85A495B4895
:102F900001F0BCF8002C00D1AAE00722736C1340AA
:102FA000032B00D9A6E08023621E92B21B031343B9
:102FB000C0223F04920217401F433765281E0ED0DF
:102FC000149B00205B6A07950393042309940C90DB
:102FD0000A930A9B042B02D1494B984201D10FB0AE
:102FE000F0BD099B079C00933300C43301931D6817
:102FF0000F231D40009B9D4200D91D00002D17D1BD
:10300000009B07940993002B0CD1F9220221032085
:10301000D200B3588B43B3500A900C9B002B01D0C5
:103020000C9B9847009B03A80993FFF7D9FDD0E7B5
:10303000082D0AD13700D83738682100FFF7E4FDA2
:103040003868211DFFF7E0FD05E0012D09D13300AF
:10305000D0331B682370009B64195B1B0093019B9A
:10306000C5E7022D06D13300D4331B6823701B0A39
:103070006370F0E7032D0AD13300D4331B6823704B
:103080001B0A63703300D0331B68A370E3E737007B
:10309000D83738682100042DD4D0052D06D1FFF78C
:1030A000B3FD3300D0331B682371D4E7062D08D15C
:1030B000FFF7AAFD3300D4331B6823711B0A637129
:1030C000C9E7072D0CD1FFF79FFD3300D4331B68F0
:1030D00023711B0A63713300D0331B68A371BAE7F5
:1030E000FFF792FD3868211DFFF78EFD0825B2E736
:1030F000044874E7044872E7CA020000E7821D1022
:103100000200B2000400B2000100B20000290CD09D
:103110000722436C1340032B09D8C023013989B21D
:103120001B0319430165002070470248FCE7024871
:10313000FAE7C0460400B2000100B20000230B60B1
:103140004B608B600B61CB604B618B6180230268AD
:103150001B061343036070470268436970B51D2066
:10316000042A21D100200125053A1A604A78D206A6
:10317000120F2C00160084402640B44206D00130C5
:103180000528F6D1FF2200201A7170BD0428F9D05D
:1031900009180A7940001A601D3000221A715A710C
:1031A000F3E72328EED002300A5CFF2AF9D01A6038
:1031B000F3E70000F0B500270C0087B00E9D060075
:1031C00010000A7909680495039702936379C9B2DC
:1031D00001930323009303003000FFF7BDFDB842C5
:1031E00016D121693000FFF791FFB84210D1237D3D
:1031F0000C9A009001950D993000FFF77FFEB842C0
:1032000006D16C6A0A4BAA69032A01D0984201D1FF
:1032100007B0F0BD00208442F5D00130013C00F041
:103220006BFF60426041024B40421840EAE7C046F3
:103230000200B200F7B500258C79C0B20134E40079
:1032400001942F0008248446085D84450BD10E1993
:10325000F079FF2807D17078B84204D3B678012EF0
:1032600001D107002500019808348442ECD9002DD3
:103270000BD049190879907048795070887910708E
:103280000020CA7892001A60FEBD0148FCE7C046E3
:103290008000B20030B58B6987B0DB680C00150088
:1032A000002B0FD019681A79012303932378C9B230
:1032B0000293FF230193002304950093FFF74CFD35
:1032C00007B030BD0048FBE78000B20070B51600C3
:1032D00000220400080086B00A9D0392049519009C
:1032E000037800920293FF23200001931300FFF75D
:1032F00033FD002806D10300009501223100200093
:10330000FFF73AFE06B070BD30B50F24012385B03B
:103310008D696C442370AB6A002B0BD01B68009244
:10332000DBB22200FFF7D2FF002803D12378AA6B7B
:10333000134023702078431E9841C0B205B030BDC1
:10334000F0B587B017000C9A05000C001E00FFF7BF
:10335000A1FF002812D1A3690122DB6B022B00D050
:103360001300039222780C99029200220491009398
:1033700001923B0031002800FFF7EEFC07B0F0BDE2
:103380000023F0B58F6989B00D00F96A07AC06001B
:103390000292238099425FD03A6B9A425CD0BB6A1A
:1033A000002B59D01B68096812680593029BC9B2AB
:1033B00003910492009322000B002900FFF786FF7F
:1033C00000282FD16B46FF6B1B7C0493402F1ED02F
:1033D000802F29D0022F41D16B46029A1B7D2900F4
:1033E000009230002200FFF771FF00281AD10D2251
:1033F000029B04A900935218039B29003000FFF799
:1034000065FF00280ED163781F43677002E02378C0
:103410001F4327702200029B0093049B2900300069
:10342000FFF78EFF09B0F0BD0D22029B04A90093A7
:103430005218039B29003000FFF748FF0028F1D104
:10344000802362785B4213430D226370029B04A9C0
:1034500000935218049BE1E70148E3E70148E1E7E4
:103460008000B2000300B200F0B51F008B6989B084
:103470001C6A0500002C47D0002A47D0586A0E9ECF
:10348000B04243D34869C6B24869002800D10E78DB
:1034900021682079C9B20791109902960491002100
:1034A0000391617901911B68079900931300020051
:1034B0002800FFF751FC002824D1A1684B1C12D131
:1034C0002169002904D02800FFF720FE002819D127
:1034D000109A237D01920F9A3900009228000E9ACB
:1034E000FFF7C8FC0EE0109B227B0493FF230390A0
:1034F000019300900300C9B202962800FFF72CFC4C
:103500000028DDD009B0F0BD0148FBE70148F9E72C
:103510008000B2000400B200F0B5BFB006900D000C
:1035200007921F00002903D1C249C34800F0EEFDF5
:10353000002308AA1380937009AA138093706A6B02
:103540000CAC05921A001A550133642BFBD13A00DA
:1035500007990698FFF7C4FB059B002B04D1B74BD6
:10356000049304983FB0F0BD449B01940293382328
:1035700008AA00930599079B0698FFF71BFE049085
:103580000028EED1A379062BE9D82378532BE6D176
:103590006378462BE3D1A378442BE0D1E378502B1A
:1035A000DDD12379052BDAD96379012BD7D100241A
:1035B0000AAB09AA0CA9A2480A94FFF73BFEFF2018
:1035C0000BAB08AA0CA900020B94FFF733FE049082
:1035D000A042C6D1AB68A34203D19A49964800F0F5
:1035E00095FDEB68002B03D19749934800F08EFDC1
:1035F0002B69002B03D195498F4800F087FD6B693B
:10360000002B03D192498C4800F080FDEB69002B20
:1036100003D19049884800F079FD2B6A002B03D133
:103620008D49854800F072FDAB6A002B03D18B49B0
:10363000814800F06BFD449B0CAC02930B9B08AAE5
:1036400000930194079B05990698FFF7B3FDA378B3
:1036500004905B079B0F0022032B01D0804AD25CB1
:103660000D9B2A60002B36DB0133DB0801221100A1
:103670006B6016AB1B7804201B0999400623696216
:10368000E9680B6000230B7129690B710860052143
:10369000AA63AA6A1371EB6A1160002B03D1714906
:1036A000654800F033FD2B6B002B03D16E49624857
:1036B00000F02CFD00222B6B04A91A715A3252180B
:1036C00010784006400F052810D8012203F0CEFDE7
:1036D000086F757B6F6F8022033B12061343C5E7AB
:1036E00001225242EA631A60EB6A1A606022EB69B7
:1036F0001F241A6000221A710F23159A16991A4076
:10370000013250000A0E2240013242434800800F2D
:10371000564E4000805B0B4042436A640A0A1440E4
:103720004022890400D4383A0221013301345B007D
:10373000634353430CAEAB64AC68B3788F43012F43
:1037400048D020221A405FD0737A61712360002331
:103750002371337A5B0953D1013BA3601F220CAB69
:103760001B7A052713402361022323752B68042B42
:1037700000D038E1449B09AA029325AB01930A9B30
:10378000059900930698079BFFF714FD049003002A
:103790000120002B00D0F1E0791E259B042900D9DF
:1037A00092E0080003F062FDA6A29E9A8C0002211E
:1037B000E9631A60EB6A352297E74021E9631A60F2
:1037C000EB6A052291E78022EA63423A1A60EB6ACB
:1037D00001328AE710221A4051D0F37B67712360CF
:1037E00000232371B37B5B0945D1013BA3601F22FA
:1037F0000CAB9B7B03271340236101232375B5E7A3
:10380000FF232173A360A9E7FF275B06AED5F37AF8
:10381000227123606271B37A5B0929D1013BA360F5
:103820001F220CAB9B7A04271340236102232375CC
:103830009CE7C046AB09000052831D100500B20092
:1038400084FF0000E4090000E5090000E60900002B
:10385000E7090000E8090000E9090000EA090000A2
:103860003E831D10C8080000C90800004A831D10CF
:10387000A7602273D4E7FF232773A360B7E73B4019
:1038800015D0737B227123606271337B5B090AD18F
:10389000013BA3601F220CAB1B7B0227134023615B
:1038A0000123237562E7FF232273A360F2E703225B
:1038B0002260043A23716371A2602361237555E786
:1038C0009B0601D5EC2323602B6A259A04294ED848
:1038D000080003F0CBFC797979311300DB06F3D5CE
:1038E0006C23F0E71B07EFD5BC23ECE75B07EBD5B8
:1038F0003C23E8E79B07E7D50C23E4E7802401207D
:10390000640014404042002C0AD03E2200211A607C
:103910003C3A19715A7198601A7319611A7526E048
:103920008021114018D034221C711A605C7198609B
:103930001C731C61323AF1E78021012011404042A2
:10394000002909D034221A60002298601A715A7135
:103950001A731A610232E1E7402422402CD012226D
:1039600019711A605971986019731961197525A92F
:103970002800FFF7F1FB002800D1F2E501233618FB
:10398000013E32781B389340AB610723159A4008FB
:10399000584313000738C3400F210A40D9050132AC
:1039A000C90E013152005B054A439B0F15495B006C
:1039B0005B5A5A432A64D4E502211A7119605A717C
:1039C00098601A731A61A9E740210A404139002A18
:1039D00006D012221A6000221A715A719960F0E71B
:1039E00002201860F8E702222B6A01211A600022E7
:1039F000494299601A715A711A731A611A750CA9A1
:103A0000B6E7C04642831D10F0B589B0061E079286
:103A100000D12DE1002900D12AE14B680593002B4C
:103A200000D125E1002A00D122E10B680693002B8A
:103A300000D11DE1002303930493039B059A9B008F
:103A4000D458002C4FD023785A1E012A08D9FB22C3
:103A5000043B134204D099218648490000F056FBEC
:103A6000237A032B04D934218248FF3100F04EFB26
:103A7000A369002B04D19A217E48490000F046FB3F
:103A8000A3691B68013B032B04D936217948FF3118
:103A900000F03CFB2278501E072800D9E6E003F036
:103AA000E5FB0432E534E5E5E5368023C0201B0163
:103AB000F518237A80021F04296838406E4F394078
:103AC000014329606168490723D5079930000091B7
:103AD000A169FFF721FD00281BD00823039A93401A
:103AE000049A1A430492039B01330393039A069B9F
:103AF0009342A2D10020049B002B02D0B2200004EC
:103B0000184309B0F0BD8823D0E79023CEE798236F
:103B1000CCE763689B07E6D52169E06803F036FCD3
:103B2000002904D052215348FF3100F0EFFA2369F5
:103B3000524A934202D95A1E134204D0A9214D4839
:103B4000490000F0E3FAFF27E168A069B943826801
:103B5000036AA96021694942B943E9600168032009
:103B6000013901406069471EB841000201432962E2
:103B7000002A37D010680021471C0CD011790904A5
:103B80008C46C021674689023940FF2707408020C4
:103B9000000607433943C020296451798002090493
:103BA00097680140696484460021781C08D060460B
:103BB000117BFFB209040840802109063943014303
:103BC0000020A9641169814205D01F3001390140EC
:103BD000802000060843C021E864127D8902120497
:103BE0000A402A65002B32D019680022481C09D0EF
:103BF000C0201A798002120402408020C9B2000657
:103C000001430A43C0202A665A7980021204996847
:103C100002406A6600224F1C07D01A7BC9B2120408
:103C200002408020000601430A430021AA661A6967
:103C30008A4205D01F31013A0A408021090611430A
:103C4000C022E9661B7D92021B0413402B67C02231
:103C50000221237A92021B0413406268FF31114053
:103C6000802212060A4313432B603CE7044842E7D4
:103C7000034846E752831D10FFFFFCFFFFFF0000D3
:103C80000400B200104B1B683A331B78834219D9E9
:103C9000042910D94B1EFF3B132B13D81F231940A7
:103CA0000A4B8000C018C02304229B00C15040333F
:103CB000C250002070470723D0301940034B8000CA
:103CC000C150F6E70248F5E754AF0E080000264061
:103CD00001004A0010B50F4B04001B683A331B78F3
:103CE000834204D86E210C48FF3100F00FFA0B4BD1
:103CF000A400E418D0239B00E058072318400428B0
:103D000007D1C0239B00E0581F23034080204000C0
:103D1000184310BD54AF0E08B1831D10000026409B
:103D2000F7B5041E03D14649464800F0EFF9B02329
:103D3000454DDB00EB58002B00DA7FE0434B226857
:103D40009A4203D942493F4800F0E0F9E2792368FA
:103D5000511E8A419B0312069B0B1343B022D200D3
:103D6000AB50A3883B4FBB4204D99D213548890005
:103D700000F0CCF92389384EB34203D93749314892
:103D800000F0C4F92389A28835491B04D204D20C5F
:103D90000B401343334AAB50A37A01910F2B04D944
:103DA0009F212848890000F0B1F9E37A0F2B03D94D
:103DB0002D49244800F0AAF9A389BB4203D92B4915
:103DC000204800F0A3F9FF22E37A29491B011340A0
:103DD000A28912020A400F211343A27A0A40C0218D
:103DE0001343A27B890512070A401343B122D20074
:103DF000AB50A379042B03D91E49124800F086F971
:103E0000238AB34204D9A2210E48890000F07EF92A
:103E1000E020A379184AC0001B02A95803401748A4
:103E200001400B43AB50238A01981B04A95803405F
:103E30001348014000200B43AB50FEBD1148FCE786
:103E400067020000B1831D1000002640FFFF030041
:103E50006D020000FF1F0000FF010000750200005E
:103E60000000FF01840500007D0200007E020000CA
:103E700000FF1F00870200008C050000FFF8FFFF15
:103E8000FFFF00FE03004A00F7B58022B2260700BC
:103E90000500324B324C1206E158F6000A43E2505C
:103EA00000930422A359134201D1002D35D1B12032
:103EB0008023C00022582B499B050A4013432350FE
:103EC0000191002F01D0002D06D0B0228023D20016
:103ED000A1581B060B43A3500126B223DB00E35875
:103EE000334224D1002D1DD1002F24D0B121C9008F
:103EF0006258019B1C481A4080239B051343B02243
:103F00006350D200A3585B005B08A350009B009A4B
:103F1000E3585B005B08A350FEBD012000F0ECF805
:103F2000013DBEE7300000F0E7F8013DD5E7002F86
:103F300001D0002DDAD0B122C0230020D200A15838
:103F40009B050B43A3508742E6D0681E854168421B
:103F5000064D054B2840C018DEE7C0468C05000022
:103F600000002640FFFFFFCF02004A00FEFFB5FF22
:103F700070B5194E050033680C001A00283212780B
:103F80001F2A15D882080721100088430FD103206B
:103F90002840C00084401B68920020339B182200F8
:103FA000FF24844019684A4014404C401C6070BD96
:103FB0001B8F8B4203D18021084800F0A7F833689B
:103FC00007201A68802328401B06184380239B0182
:103FD000E418A400A050EAE754AF0E080A841D10AC
:103FE0000A4B70B59B680A4E10300D008400B34236
:103FF00009D1002904D142210648FF3100F086F89A
:104000003059355170BD044B1859FBE700ED00E005
:1040100000A00E080A841D1000001D10F8B506004F
:104020000D00002841D04368032B03D93C212048D0
:1040300000F06CF80023F05E002828DB7188FFF7A1
:1040400097FF0024FF22032794460023F05E716847
:1040500083B21F40FF006646BA4089013140D24317
:10406000B940002815DB134E83089B009B19C0261E
:10407000B6009F593A40114399510F4B9A680F4B24
:104080009A4202D12900FFF7ABFF2000F8BD0C4C8B
:10409000D8E70F263340083B074E9B089B009B192F
:1040A000DE6932401143D961E7E7054CEDE7C046D0
:1040B0000A841D1000E100E000ED00E000A00E0801
:1040C0000100560070B5802504002D02AC4205D8D1
:1040D000064B18686043FDF723FE70BD044B18685B
:1040E000FDF71EFE034BE418F0E7C046F0A00E08F3
:1040F000E8A00E080080FFFF10B5034B1B78584363
:10410000FDF70EFE10BDC046F4A00E0870B50D0000
:10411000044C01001822200003F0A9FBA56101BE98
:10412000FEE7C04690A70E088022054B12069A644F
:10413000986C044BC043C0171840034BC01870471D
:1041400000002740FDFFB9FF030046008022054B19
:10415000120198585B68DBB2002B02D08023DB028F
:104160001843704700002640FEE7000002680A4B33
:1041700010B5DA6142681A6282685A62C2689A624D
:104180000269DA6242691A6382695A63C2699A6390
:10419000FFF7EAFF10BDC04690A70E08F0B5192240
:1041A000002800D14B322A4B8A4292411B6852426E
:1041B0001C00A43424881D68671903253E68AE439B
:1041C00016433E601E68A4192768224E37402760B8
:1041D0001C00A63424881E68A7193E68AE433243EB
:1041E0003A601A681B4EA218146826401660002810
:1041F0000ED00020102904D921308842804140424D
:1042000001300F225B681968914308431860F0BDC4
:104210001A00513212788A42F3D21A0052321278BE
:1042200001208A42EDD21A005332127800188A42D5
:10423000E7D21A005432127828008A42E1D21A00DA
:10424000553210788842804140420430D9E7C04658
:1042500054AF0E08FFFCFFFFB0235B055A78212006
:10426000002A01D05878C0B27047B0235B059A8904
:10427000002A02D0988980B2704780204000FBE776
:104280000120024B1B68DB0D98437047000026405D
:1042900070B5FFF7EAFF8023184A5B00984215D1FA
:1042A00011680F240B000222943318680B68181849
:1042B0000368A34313430360080098300B68016848
:1042C0005B181968A1430A431A6070BD1268B020D8
:1042D0001100C025943114680968094B4005C35882
:1042E00061180C68AD002B4323430B60110098311B
:1042F00013680A689B18034A8258E5E754AF0E0812
:10430000481800004418000070B5FFF7AEFF802386
:10431000184A5B00984215D111680F240B00032244
:10432000943318680B6818180368A3431343036099
:10433000080098300B6801685B181968A1430A43AC
:104340001A6070BD1268B0241100C120C0269431DB
:104350001568096864054001235869180D68B6009E
:1043600033432B430B601100983113680A689B1884
:104370002258E5E754AF0E0810B5FFF776FF80230B
:10438000114A5B0098420DD1136810491A0094320B
:1043900012681B689B181A681140C022D2010A4398
:1043A0001A6010BDB0211268094B4905CB581100A5
:1043B000C0209431096812688000521811680343C4
:1043C0000B431360EDE7C04654AF0E08FF8FFFFFAD
:1043D0001818000070B5FFF748FF8023144A5B00EF
:1043E00098420DD1136813491A00943212681B6861
:1043F0009B181A6811408022D2010A431A6070BDCE
:104400001268B0241100C026943115680A48096862
:104410006405235869180D68B60033432B430B60BD
:104420001100983113680A689B182258E6E7C046C5
:1044300054AF0E08FF8FFFFF4C18000010B500208E
:10444000FEF75CFA0400FFF707FF012213002228A1
:1044500001D8634263411340180010BD10B5074CEA
:1044600023682E331B78002B04D1E921044849002E
:10447000FFF74CFE2368186A10BDC04654AF0E0803
:10448000A87A1D1010B50D4C23689B0613D5FFF7B5
:10449000F7FE226800280CD0094B1343236001204B
:1044A000FFF72AFE802300202268DB0513432360E8
:1044B00010BD044BF1E70448FAE7C046000026406F
:1044C00000000417000004160400420010B5FFF7B6
:1044D000D7FE104C236800280DD00F4A13402360EC
:1044E0000820FFF709FE64232268002A07DB002B5F
:1044F00003D10A480DE00A4AF0E7013BF4E7002B3C
:10450000F7D02368074A012013402360FFF7F4FD2A
:10451000002010BD00002640FFFFFBAC020042005F
:10452000FFFFFBADFFFFFFFB10B5022805D90C48CC
:104530000C49FFF7EBFD0C4810BD012809D00228FB
:104540000AD0F023094A1B04116800200B431360B2
:10455000F2E7FFF7BBFFEFE7FFF794FFECE7C0469A
:1045600063841D10CA080000FF00420000002640BE
:104570007FB506000D00042803D92E492E48FFF709
:10458000C5FD6B1E012B07D9FB222B1F134203D045
:104590002A492948FFF7BAFD294BB600F458042DE3
:1045A00001D0012D27D100200FE0A3682B420BD1B1
:1045B000E36829001A685B6802920193039302A8DA
:1045C000236898471F4B1C606469002C0BD01E4B5E
:1045D0009842EAD1012DE8D11A4B1B481A681B4BAF
:1045E0009A5104B070BD012DFBD1174B9842F3D006
:1045F000164B9C51F5E7022D06D1124B1B68181E75
:10460000EFD01C6903E01C006369002BFBD1002084
:10461000002CE6D0A3682B4209D1E36829001A6870
:104620005B6802920193039302A823689847246968
:10463000EEE7C046F509000063841D10F60900008E
:104640003CA80E0838A80E08FF00420024A80E0857
:10465000F8B50400012803D92A492B48FFF756FD75
:10466000FFF7FAFD85B2FFF700FE07000020802665
:10467000FEF744F97600002811D1B74211D1222D5E
:104680000FD88025214B6D041B6824065968204BE8
:104690002C40CA581F4D2A401443CC50F8BDB74295
:1046A00029D0FFF7DBFE0500B7420FD1621E94410F
:1046B000802362425B001A40174BD2180121280068
:1046C000FDF720FE002808D01448E7E7621E944159
:1046D000022362421A40124BEFE70C4B1B68B033C7
:1046E0001B68EB181A68002AFCDBEB6800201B0E25
:1046F000A02BE9D1D2E7222DE6D9FFF7AFFE0500C6
:10470000D4E7C046BF0A000063841D1054AF0E08F2
:1047100018F00000FFFFFFFE01000030040042001F
:104720000100000CF7B50700012803D929492A48E0
:10473000FFF7ECFCFFF799FD80235B0098421CD04B
:10474000FDF7F7FAB0230190244D254A5B05002FB1
:104750001AD0244903205958A950234A23499C5C64
:104760001F226B58E4B293431A000B2313436B5080
:10477000FFF7C2FCFFF72EFE12E0FFF75FFE0028F6
:10478000DED11B4E3000FEBDAF50E8220120D2002A
:104790009C5CFFF75DFFE4B2061E0DD1FFF778FDCC
:1047A0001F21124A0C40AB588B431C43AC50002FC6
:1047B00006D1FFF7E1FD3E000198FDF7BEFAE1E703
:1047C0000720FFF799FCFFF79FFD0020FFF740FF50
:1047D0000600F1E75708000063841D100000264022
:1047E000307F000010180000410700001CFF00008F
:1047F0000300420010B5041E03D111491148FFF710
:1048000085FCF222104BD2011B68DB689A582260AB
:10481000F022D2019A5862600C4A9A58A2600C4A5F
:104820009A58E2600B4A9A5822610B4A9A58626180
:104830000A4A9A58A2610A4A9B58E36110BDC046D1
:10484000140B000063841D1054AF0E0804780000A0
:10485000087800000C780000107800001478000040
:104860001878000010B5041E03D110491048FFF756
:104870004DFCF0220F4B61681B68D201DB68995038
:10488000A1680D4A9950E1680C4A995021690C4A77
:10489000995061690B4A9950A1690B4A9950E16995
:1048A0000A4A99502168E832995010BD3C0B00002B
:1048B00063841D1054AF0E080478000008780000CF
:1048C0000C780000107800001478000018780000C0
:1048D000F7B50700012803D940494148FFF716FC06
:1048E000404D6B68002B4AD1FDF723FA6B680190AD
:1048F000002B56D13C4E33681A0041321278002A00
:1049000007D09B68E0331B68DB0602D53748FFF70A
:1049100071FFFFF7AAFC80235B00984246D1380064
:1049200003F0A2F8002433681A0041321278002AFA
:1049300017D0002815D09B68E0331B68DB0610D524
:10494000FFF78AFC294B212808D032681300AC33CA
:10495000198807234B43126A9B18DB681800FFF77E
:1049600081FF0198FDF7E9F9002C0ED16B68002B4F
:1049700003D008210120FFF7FBFD2000FEBD01212F
:104980000800FFF7F5FD041EAED06B68002B03D0C6
:1049900002210120FFF7ECFD154B9C42EDD0154C98
:1049A000EBE704210120FFF7E3FDA3E7FFF756FD46
:1049B0003368B0331B68C0180368002B0BDB04237B
:1049C0000D4A11690B431361012F02D030BF002043
:1049D000A8E720BFFBE70020054CA4E7B2020000D7
:1049E00063841D103CA80E0854AF0E0804A80E08DE
:1049F00005004200FF00420000ED00E0C0228020E0
:104A0000064952008B58C0059B009B0803438B50FE
:104A1000802388581B0603438B50704700002640B4
:104A20007047FFF7FDFF72B6124C134DAC4209DA26
:104A300021686268A368043B02DBC858D050FAE7DB
:104A40000C34F3E70D4B0E4CA34208DA19685A6890
:104A50000020043A01DB8850FBE70833F4E70948FB
:104A600009490860BFF34F8F00F0EAF800F0BEFC80
:104A7000FEE70000BC8C1D10D48C1D10D48C1D10C2
:104A8000E48C1D1000A00E0808ED00E0FEE7FEE734
:104A900000B504207146084202D0EFF3098001E01E
:104AA000EFF308800430FFF761FBFEE710B500204C
:104AB000FDF7CEFD10BD7047F8B5E0234E4C9B00CE
:104AC000E2580F23D02107201A4093001B198900B8
:104AD0005958014065D0042959D04848002A65D169
:104AE000B223B1220321DB00D200E558A358A65817
:104AF0001B0F360F0B400E4204D0A258120F0A4073
:104B0000012A01D1EA0701D4032B11D1B0233C4A79
:104B1000DB00E658A158E558C904C90C02F0B0FB07
:104B2000B3039B0B5843E901C90F013102F0A8FB05
:104B3000E0239B00E358334A9B069B0FD840324B3F
:104B40001860324BD458D158240A090E013102F0B2
:104B500097FB2F4BE1B21860013102F091FB2D4B16
:104B6000040018602C4B2D4918602D4BC01802F022
:104B700087FBFA212B4B890018702B4BE01802F0B1
:104B80007FFB2A4B18602A4BC0031860F8BDC02178
:104B90001F20890059580140112904D180200002AA
:104BA0009CE724489AE7FA20C00197E7013A012AD6
:104BB000BED80327204A9E58204A99589D582D0F49
:104BC0003D4204D09D582D0F3D40012D01D1F507E8
:104BD00003D48900890F0329AAD19E5899589D585A
:104BE0007F2333401F26090A3140584302F048FB17
:104BF000290C31409AE7C0460000264000366E017D
:104C00008405000000002040E0A00E08081000000D
:104C1000E4A00E08DCA00E08ECA00E0840420F0035
:104C20003F420F00F4A00E08E7030000F0A00E08BA
:104C3000E8A00E0800127A003C060000FC05000007
:104C400010B51D48FDF77CF8B022E02130201B4C48
:104C5000D200A35889005B005B08A35063588343CC
:104C6000635080235B04A350154B164AE250A022E8
:104C700004339201E250FF22134BE250FFF7BEFED5
:104C8000C02201215200A3588B43A350FFF713FF0A
:104C9000FFF712FF0D4A80210320FDF741FD0C486C
:104CA000FDF766FB0B4B1B684D331B78002B02D0C6
:104CB0000948FDF7CBFB10BD78801D100000264091
:104CC00084050000010002008C0500000CC00E08E5
:104CD00050A80E0854AF0E0834851D109023034AC7
:104CE0005B01D058032318407047C04600002040A5
:104CF00010B59024FDF71DF8074B64011A590749B8
:104D00001140074A0A431A51102259681142FCD037
:104D1000FDF713F810BDC04600002040FCFF000066
:104D20000100FA05F8B50700830504D0F921104801
:104D30004900FFF7EBF990250E4C6D01FCF7F9FFE8
:104D400063590600DB439B0701D1FFF7D1FF8023A6
:104D50009B00E7506359084A1A40084B13436351BC
:104D6000102362681A42FCD03000FCF7E6FFF8BD61
:104D7000BB841D1000002040FCFF00000300FA056A
:104D800010B500F019F900F007F800F099F800F0FC
:104D90002FF800F03DF810BD80218022124BC90091
:104DA0001B68D205986810B542501A0070321288FC
:104DB0000E4C121810680440D4208001204310606B
:104DC0001C001A006E346C322478127898686F33A5
:104DD000A2401C780323A3401343802212061343EE
:104DE0004350435810BDC04654AF0E08FF00FFFFAC
:104DF000054B1B681A003D321278052A03D90021A1
:104E00009A68024BD150704754AF0E08140C000042
:104E100010B51D4C1D4A00212000FDF7F7F82000B9
:104E20001B4C1C4A0121FDF7F1F81B4A022120000E
:104E3000FDF7ECF8194A03212000FDF7E7F8184ABE
:104E400004212000FDF7E2F8164A05212000FDF7B5
:104E5000DDF8154A06212000FDF7D8F82000134C94
:104E6000134A0721FDF7D2F8124A04212000FDF76A
:104E7000CDF8114A06212000FDF7C8F80F4A072196
:104E80002000FDF7C3F810BD00003140B0861D10B2
:104E900080053140E4861D107C861D1014861D108F
:104EA000E0851D10AC851D1078851D100003314074
:104EB00048861D1018871D104C871D1080871D10F7
:104EC0007047000010B50A4B1B683C331B788342C7
:104ED0000BD9E0220F24074B8000C01892008358A2
:104EE000A34319438150002010BD0348FCE7C0468E
:104EF00054AF0E080000264001004A0010B50A4BCE
:104F00001B683C331B7883420CD9E0223024074BCA
:104F10008000C018920083580901A34319438150AF
:104F2000002010BD0248FCE754AF0E0800002640E8
:104F300001004A00054B06491B681A1DD26F1B6809
:104F40009B181A680A401A607047C04654AF0E0892
:104F5000FF00FFFF064B1B68191D1A68CB6F8021ED
:104F6000D218136849041B021B0A0B4313607047D5
:104F700054AF0E08054B06491B681A000832D26F61
:104F80001B689B181A680A401A60704754AF0E08D5
:104F9000FF00FFFF8021054A054B0906D058014359
:104FA0000120D150D1580143D15070470000264014
:104FB0000C050000FEE70000F8B596210020FFF781
:104FC000EDF8FFF7C3F800280ED1FFF7ADF8C023C6
:104FD0006F4A5B00D358DB0704D46E4953585B001B
:104FE0005B085350FFF7D6FF0120FFF79BFB012022
:104FF000FFF79AFA684B69495A6C0A40E82189011F
:105000000A435A645A6C120AD2B23A2A04D15A6C30
:10501000634802401143596400210800FFF76EFF06
:10502000FFF7A8FFFFF796FFFFF784FF5D4D2B68A2
:105030003B331978002900D090E00120FEF722FED2
:105040002B683C331B78002B03D157495748FFF797
:105050005DF8E0234E4C9B00E6580F231E400AD11A
:105060003000FEF737FE1223FF33984203D10121AF
:105070003000FFF727FFB121C90063584C4A1A409E
:1050800080239B051343B02263500021D200A35814
:1050900008005B005B08A350464AA3585B005B080E
:1050A000A350FEF7EFFD00210800FFF70BFFFFF70D
:1050B00061FFFFF74FFFFFF73DFF00210120FEF7E3
:1050C000E1FD01210020FFF7FDFE00210800FEF7B1
:1050D000D9FD00210220FEF7D5FD00210320FEF7B7
:1050E000D1FD00210420FEF7CDFD3348FEF718FE68
:1050F000002802D00420FFF75DFF3048FEF7C4FE11
:10510000002802D00420FFF755FF00210800FFF718
:10511000D9FE00210800FFF7F1FE00210120FEF773
:10512000B1FD00210220FFF7CDFE01210220FFF793
:10513000E5FE2B683C331B78022B06D9E222802344
:105140009200A1581B060B43A350FFF723FF6421D5
:105150000020FFF723F8FFF7AFFCF8BD2B684F1EC8
:105160003B331B789F4211D2094B154E8900CC1856
:10517000A3590F4A01201340802292051343A351E3
:10518000FEF7BAFFA3595B005B08A351390051E752
:10519000000026400C05000000002740FF00FFFF34
:1051A000FFC5FFDF54AF0E08BC070000B4871D1019
:1051B000FFFFFFCF8C05000010881D10400D03007D
:1051C000FC05000010B562B6FFF7DAFDFFF716FC2C
:1051D000C0220120024952008B5883438B5010BDDE
:1051E0000000264070B50A4D04002B682E331B7852
:1051F000834204D8E92107484900FEF787FF2B685E
:105200001A00AC3210884443186A201870BDC0469A
:1052100054AF0E08A87A1D1010B50448044A0021A6
:10522000121A02F031FAFBF797F810BD00000D08D2
:1052300000A00D0813B50024E8230194019A9B05F2
:1052400013430193019B090419430191019B00023F
:10525000184301230190019A200013430193FFF7A3
:10526000C1FF154A0168002906DB944202D10120E2
:10527000404216BD0134F5E79442F8D0019BC3606B
:10528000012383600D4B1B68B0331968002341185C
:105290000C68002C03DA9342E9D00133F8E793421B
:1052A000E5D0C36800200193A023019A1B069A420F
:1052B000DFD00198DDE7C046983A000054AF0E08F1
:1052C00010B5084B0024DB78013B012B07D80121E6
:1052D0000800FFF7AFFF04006420FEF7F3FE200094
:1052E00010BDC046B0B00E0870B5104A104D040095
:1052F000AA58032A01D0FFF7E3FF0E4B1B68002BCF
:1053000008DA0220FFF76EFF0B4BC36072B602F0A3
:10531000C3FB62B689235B01EC50084B9C60236899
:1053200083F3088863689847FEE7C046C4200000FE
:1053300000002040000126402143341200ED00E02F
:1053400070B50500FFF7BCFF144B1B68002B1EDA7D
:105350000220FFF747FF124BC36072B680269024ED
:10536000104B114AB6009A5164011A590F49114065
:105370000F4A0A431A511C00102362681A42FCD0DB
:105380000120FEF79FFEA55102F086FB62B62800C1
:10539000FFF7C8FC0020FFF79BFAFBE7000126405F
:1053A000214334120000204000400016FCFF0000A2
:1053B0000300FA0510B5002810D1FFF781FF084B54
:1053C0001B68002B05DA0220FFF70CFF054BC360BA
:1053D00072B60548FFF7A6FC02F056FB10BDC046AA
:1053E00000012640214334120040001670B501250B
:1053F000494C86B00021494A2000FCF707FEFFF720
:10540000E1FE474B474A48481A606560FCF788FC54
:105410008020A5606A4601A94000FCF79FFB041E9E
:1054200034D1424D0300424A29000198FBF712FA99
:10543000041E2BD1AB78022B00D9A870F022EB68A8
:105440003C4E12069B18B3602B69F3606B699B1886
:10545000F361AB693362FAF767FF041E16D1AB78CC
:10546000002B1ED0344A013B9B00344D9B582B60CF
:1054700000F0DAF9324A06002968324800F02CFAC6
:10548000002E14D101212F48FDF714FC6042604129
:1054900003ACFFF78FFF200001F0ACFA002808D022
:1054A000FEE7294BF2699A42F0D96C70EEE73400BE
:1054B000ECE702A9207900F098FA43425841FFF73F
:1054C00079FF029BA468E418039B1B89E418FFF78B
:1054D000A3FE43425841FFF76DFF144B1878042890
:1054E00018D801F0C3FE030307070F002000FFF7E1
:1054F000FBFEFEE702210020FDF7CEF92000FFF7BA
:10550000F3FEF6E706210E20FDF7C6F92000FFF7AF
:1055100017FFEEE7FEE7C0468000314024881D10EB
:1055200058AF0E08008B1D10006CDC025CAF0E083B
:10553000B0B00E0800A10E08F8A00E08D0A90E0801
:1055400040B10E0800004240FFFFFF074378027899
:105550001B021A438378C0781B04134300061843C8
:1055600070470000F7B5A54BA54A9A58D10700D45B
:105570007BE00F22A34FBB683D680093A24BDC6F1A
:105580000193009B1440073A141B9C4200D91C0055
:105590009E4E002C18D1009B3D60BB60002B0CD1AF
:1055A000F92201209549D2008B5883438B50B86172
:1055B000FB69002B01D0FB699847F8230122DB002F
:1055C0008E49CA50CB58F7BD082C16D12800FFF7DA
:1055D000BDFF3060281DFFF7B9FF3060009B2D191B
:1055E0001B1B0093019BDC6F0F231C40073B1C1B04
:1055F000009B9C42CDD91C00CBE7012C03D12A781B
:10560000834B1A60EAE7022C06D12A786B781B02DA
:105610001343804A1360E1E7032C07D16B782A78A3
:105620001B0213437B4A1360AA78E9E72800FFF7BF
:105630008DFF042CD1D03060052C01D12A79DFE711
:10564000062C02D12A796B79E1E7072C07D16B7917
:105650002A791B0213436F4A1360AA79D0E7281DE9
:10566000FFF774FF08243060B8E7910700D4A4E086
:105670000F22644D68496C69EB6808688C460240EB
:10568000A24200D922006549654E002A16D1EB607E
:105690006C61002C0DD1F92202215848D2008358A8
:1056A0008B4383500320A8612B6A002B01D02B6A07
:1056B0009847F8236C61DB00022281E7082A19D1A0
:1056C0000868070A18705F70070C000E9F70D8708A
:1056D0000868070A18715F71070C000E9F71D87176
:1056E0009B18A41A62460F2012680240A242CCD92D
:1056F0002200CAE7012A03D14A4800681870EFE780
:10570000022A04D130681870000A5870E8E7032AAA
:1057100007D130681870000A5870424800689870C5
:10572000DEE7042A08D10868070A18705F70070CC2
:10573000000E9F70D870D3E7052A0BD10868070ABE
:1057400018705F70070C000ED87036489F700068A4
:105750001871C5E7062A0CD10868070A18705F702F
:10576000070C000E9F70D87030681871000A5871CD
:10577000B6E7072A0FD10868070A18705F70070C90
:10578000000E9F70D87030681871000A5871254853
:1057900000689871A4E70A68100A1A705870100C13
:1057A000120E9870DA700A68100A1A715871100C8B
:1057B000120EDA719871082292E704210A4207D08A
:1057C0000520104A9061F822D20099509B58FAE6C1
:1057D00008210A4202D00B4A0620F3E710200242B9
:1057E00006D00721074A9161F822D2009850EDE7D0
:1057F0002020024200D1E6E6024AF4E700004240DF
:10580000CC07000040B10E0808004240980042401A
:105810009000424094004240C4004240D8004240C0
:10582000D4004240D000424037B568460200154BD4
:1058300012CB12C262B61449FEF7F0FBFA22134DE6
:1058400092002B0012491348FDF7E6F9041E13D10C
:10585000020001210F48FDF743FA29000D48FDF72A
:105860006DFC2A000C490B48FEF7CEF8041E03D14C
:1058700001000848FDF71EFA8022084B20001A603C
:105880003EBDC0460C8B1D1065551D1040B10E0865
:1058900068851D1000004240D88A1D1000E100E01C
:1058A0000C4B1B689B691B68032B08D10023CB7032
:1058B00083B21B0A88704B70000C08707047042B71
:1058C000FCD183B2C8701B0A000C48708B70000AB0
:1058D000F3E7C046D0A90E08F0B50F2787B002AB9A
:1058E000FF18002316003B708B690500DA6BDB6A3A
:1058F00003921B683A00DBB200960C00FDF7E6FC51
:10590000002813D16B463A781B7B1A409A420DD07F
:10591000320021002800FDF733FD002806D13200B7
:1059200021002800FDF7F0FC0028F8D107B0F0BDF9
:10593000F0B589B004000E00049217221A4D0593A9
:10594000296802A88B6912189F6ADB6A20001B680D
:105950000096DBB2FDF7BAFC002823D1320029689B
:105960002000FDF797FC00281CD1059B01900093B7
:105970000296049B0E9A29682000FDF775FD002809
:1059800010D1320029682000FDF7BEFC0028F8D1B4
:1059900017223B6802A900965218DBB22968200042
:1059A000FDF794FC09B0F0BDD0A90E0870B50268EF
:1059B0004D6806000120AA4212D38B680020EB1824
:1059C0009A420DD20B694C69A3420AD2C868DC0026
:1059D00004190120521B22607268013362600B615E
:1059E00070BD0C235B428B61FAE76F2804D18023E2
:1059F00000205B050B60704716204042FBE700006B
:105A000010B50F4B02001879904215D0187E9042C5
:105A100014D018002C3004780120404294420AD15E
:105A2000033014224243101D1818086000209B18F0
:105A30001A6901321A6110BD0020F2E70120F0E777
:105A400000A10E08002809D00438054B02689A42CC
:105A500004D10369002B01D0013B03617047C046AC
:105A6000EFBE0DD070B51D00802344685B050C1996
:105A7000E01829001600FAF7E9FC002808D10121F6
:105A80000448FDF717F92A003100200000F024F93E
:105A900070BDC04600004240F0B51D00802387B0B5
:105AA000039242685B058C1806000291E0182900F9
:105AB000FAF7CCFC00281CD1F022134F12063B68E9
:105AC000DB689B18A34216D801001048FDF7F2F8D6
:105AD0003B6805AED8688023201A5B05C0183100EA
