:02000004101DCD
:1000000000C00E0843951D100D000000A1951D10A5
:1000100000000000000000000000000000000000E0
:100020000000000000000000000000009D951D1071
:1000300000000000000000009D951D109D951D1002
:100040009D951D109D951D109D951D109D951D1034
:100050009D951D109D951D109D951D109D951D1024
:100060009D951D109D951D109D951D109D951D1014
:100070009D951D109D951D109D951D109D951D1004
:1000800010B5064C2378002B07D1054B002B02D06E
:10009000044800E000BF0123237010BD449701080D
:1000A000000000005CF81D10044B10B5002B03D0BD
:1000B0000349044800E000BF10BDC0460000000036
:1000C000489701085CF81D10F0B5294F87B00392DE
:1000D0000400C05D0D0003F0C9F904A9C0B203F02B
:1000E000C1F8002806D00126049803F0D5F83000A6
:1000F00007B0F0BD2C226A43E35D029258225343BD
:10010000029905ADCB18E3181A89DB680498D31857
:1001100001932A000423019903F0C8F8061EE2D1D6
:100120005822E35D5343029AD318E4182A88114BEE
:1001300064899A4218D16B88A34201D00326D3E781
:10014000019B2A0019190498042303F0AFF8002832
:10015000C9D1094B2A889A42F0D16B881C19019B9E
:10016000E418039B1C60BFE7002CF2D0E6E7C04612
:100170003405000008690000076900005823F7B53E
:1001800016000F4F0191C25D00215A4333008218BF
:10019000040001F08BF9051E0FD15823E25D012107
:1001A0005A432C32A2183300200001F07FF90028B6
:1001B00003D0019B002B00D005002800FEBDC046E7
:1001C0003405000073B50E0000210500009103F016
:1001D0004DF96946C0B203F045F8012400280BD15F
:1001E00001AA0099300002F011FC041E04D101990B
:1001F000280002F0F6FD0400009803F04DF82000FE
:1002000076BD0000F0B5154F85B00400C05D0E004E
:1002100003F02CF903A9C0B203F024F8051E04D0A2
:1002200001256D42280005B0F0BD039803F037F9B1
:100230000190039803F030F85823E25D53432C22D9
:1002400056439E19A419231D9C42EBD00134621E13
:10025000127801998A42F7D0E2E7C04634050000DF
:1002600037B5FA22D2000192194A0D00825C0300D0
:100270000121002A03D0FE31012A00D1FA39A94216
:100280000ED1582454431A19526A28341C1901A952
:10029000280003F02FF9002801D1019B23603EBD07
:1002A0000221002A03D00431012A00D0F931A942E9
:1002B00005D1582454431A19126D5434E6E701202D
:1002C000072DECD11A00B833B43212681C00DEE7F7
:1002D00034050000F0B54F4E8DB009920400805DEA
:1002E0000D0003F0C3F80BA9C0B202F0BBFF0896E3
:1002F000002800D08AE029002000A75DFFF782FFD8
:10030000002808D02C2358226B437A439B18E1180D
:100310000A69D0060DD50126002D04D00B992000C6
:1003200001F05CFD2E000B9802F0B6FF30000DB01E
:10033000F0BD39481B59834212D0002D04D00B98D0
:100340000021826803F03BF8344B354A1B68D868BB
:10035000002D00D1334A34490AF018FC0126E2E7A7
:10036000CB680989C8438342E7D80B9E5B18B16804
:100370008B42E2D2089B3178E35C07930798022313
:10038000002803D00433012800D0F9335820474314
:100390002C3868433F18E719994217D08E20089BE4
:1003A0008000E35C3A0058430023049303930293D4
:1003B0008023DB0201931D4BC430009320183300CF
:1003C000079902F05FFB061EADD0B6E75307E5D5EF
:1003D0008E20079B80005843099BC430009320184F
:1003E00033003A00079901F099FF0028A5DBD5D129
:1003F000089B099AE05C8E239B005843C430201868
:10040000012101F063FF0028C8D096E7012676425B
:100410008CE7C046340500003DB8F3960892010809
:1004200032E21D102AE21D103CE21D10989C0208C9
:1004300070B5174E0400855D0121002D03D00431F5
:10044000012D00D0FA312000FFF70AFF002802D06A
:100450000125280070BD0221002D03D00431012D9B
:1004600000D0F9312000FFF7FBFE0028F0D1072172
:100470002000FFF7F5FE051EEAD15823A25D534385
:10048000E318186A02F0E2FFC0342060E1E7C046DA
:100490003405000010B520220400FF210C300AF0C2
:1004A0001BFC012200232260024AE3626260A36017
:1004B00010BDC0460101000142790023012A06D186
:1004C0000268012A03D10379013B584243411800D5
:1004D00070470000F0B5002587B06C4B059504957A
:1004E000C35C0400080002930F00FFF7E5FF674BB1
:1004F00006000393A84200D19AE05823029A53437E
:10050000634A1B59934208D105AA29002000FFF72E
:10051000DBFD4342584102F023F95823029A5A4323
:10052000A2181169490700D474E08E255749AD001F
:10053000605C009743436843E318C43020181B6A8B
:10054000029901F0EBFE0600C043C00F02F008F96B
:10055000002E0CD14D4B3A00E05C31006843C430B2
:10056000201801F0B3FE4342584102F0F9F8474B1E
:10057000E25C58235343E318DB6A454A934208D1AF
:1005800004AA01212000FFF79FFD4342584102F0D9
:10059000E7F858223D4BE05C4243A318D96B49076A
:1005A0003FD58E25AD00684300972C32C430A21889
:1005B0002018DB6C029901F0B1FE0600C043C00FA9
:1005C00002F0CEF8002E0CD1304B3A00E05C012155
:1005D0006843C430201801F079FE4342584102F0CC
:1005E000BFF8049B059A934200D90593059BBB6015
:1005F000059A3900200001F0C5F8264B1A68002A38
:1006000005DD254B25491B68D8680AF0BFFA002094
:1006100007B0F0BD38001022FF210C300AF05CFB5F
:10062000A5E738001022FF211C300AF055FBD8E75F
:1006300039000298083101F0BFFB3D0043425841A8
:1006400002F08EF8BB6805933A003100029801F081
:100650004BFA4342584102F083F80023EA18127B18
:10066000FF2A07D10133102BF8D11035012EBFD04E
:100670000126E9E7039B3A00E05C8E239B00584388
:10068000C4302018310001F021FEEEE734050000EF
:100690003DB8F3969C9C060808920108F8E11D10ED
:1006A00010B502F08CFE10BDF0B500248BB00590A3
:1006B000079108920993119B9C4201D3002010E0FE
:1006C000119B1D1B8023DB009D4200D91D00099B4F
:1006D000364AE11807982B0002F0E8FD002802D006
:1006E00001200BB0F0BD059A314BD35C02229C4631
:1006F0006146079B1B78002903D0FD32012900D1F8
:10070000F93A08990978934238D08A4238D160463C
:10071000582343430598C7188A4202D02C331F0040
:10072000C7193B695B072BD5109B3889E3189842A2
:1007300031D9A84236DA0026C21A291A92B2069690
:10074000FF68EE18C719BE4202D99F4218D9F91A9C
:10075000002915D01B1A8E20664680007043134F67
:100760009B18D219059E0292069AC43001920091FC
:100770003018079A614601F029FF01E08A42C6D18C
:10078000109B0A4AE11808982B0002F0D1FD0028BE
:10079000A6D164198FE70F221E1A1640069629006B
:1007A0000022CDE700210A000691C9E7989C0108C4
:1007B00034050000A722F0B5A1B00491D2000021B9
:1007C000040001250AF088FA0022CC4F0392E2557A
:1007D0006D42CB4BE05D1B7898422CD3012B0CD99A
:1007E000039B002B09D000230125E3556D42C44B28
:1007F000E05D1B78834200D963E10023C04EE355DE
:10080000E05D3378984200D200E20023E355E35DD7
:1008100032789A4200D94DE33022002114A80AF020
:100820005BFA236A04995A780A715B680C60029338
:10083000029A8A6053E3012B06D98E239B0058430A
:10084000C430201801F016FF5825FA222B00E65D6F
:10085000920172437343AB49E31851185962AA4994
:10086000300052181A652300A84AB4331A600021D8
:1008700002F0FCFDE15DC0B269432031611802F075
:10088000F1FC4342584101F06BFF0121300002F0BE
:10089000EDFDE15DC0B269434C31611802F0E2FC4C
:1008A00005006842684101F05BFF2000FFF7C0FDD2
:1008B000011E0CD0FA22964B96491B68D200D868CC
:1008C0000AF064F9E35D0122E318BC33C5E00200DD
:1008D0002000FFF753FC002804D08D4BE25D1B681D
:1008E0008D49ECE7200000F0CDFE0028EAD014AEE0
:1008F0003000FFF7CFFD3100200001F025FB00287C
:1009000004D0834BE25D1B688449D8E73000FFF7D1
:10091000D3FD00285CD17A4B1B78012B3AD83100EB
:100920002000FFF7D7FD02904342584101F018FF25
:10093000E05DF3792218BC321370033B012B09D818
:1009400000F08EFD0290002804D0FF22E35DE31842
:10095000BC331A7014ABDB79E05D023B022B09D883
:1009600000F066FD0290002804D0FF22E35DE3184A
:10097000BC331A70E35DE318BC331B78FF2B18D12E
:10098000634B67481B68D9680AF05AF9002001F0E8
:10099000E7FEFEE7E25D002AC1D023000121BC335F
:1009A0009A189A42BBD01878042800D119700133E4
:1009B000F7E702984342584101F0D2FE320000218D
:1009C0002000FFF7DBFB4342584101F0C9FE79E705
:1009D000F3790593012B42D1E05D00F08FFC030019
:1009E000023B0290022B0CD8320005992000FFF741
:1009F00071FC012804D0002803D00523029300E0F5
:100A000002906A46E35D127AE318BC331A70E25D25
:100A10003B48A1180B000078BC331B7801282BD869
:100A2000BC310B78012B40D100212000FFF7EAFBFD
:100A3000002833D15823E25D5343E318394ADB6A77
:100A4000934232D1320001212000FFF743FC0028FD
:100A50002BD10422E35DE318BC331A7025E0320089
:100A600001212000FFF736FCE35D0522E318BC33CB
:100A70000028CBD1F279C9E7002AD1D0012BCFD001
:100A8000042BCDD02300BC339A189342C8D01878D9
:100A9000042801D1033818700133F6E73200002131
:100AA0002000FFF717FC0028C4D1E35DE218BC3238
:100AB0001278023A022A01D8012203920133E35547
:100AC00087E62318BC331D7804239D43013D6B1E2C
:100AD0009D41EDB2290002F0C9FC09A9C0B202F0A3
:100AE000C1FB002820D00125099802F0D5FB002D7C
:100AF00000D078E0E35D0133E35578E6340500008B
:100B00008090010898A00108981D0208989A020890
:100B10000892010867E21D10ACE21D10DBE21D1017
:100B200008E31D103DB8F39658232C26E15D75436C
:100B30005943573B4919009361183F33099A0EA84E
:100B400000F01EFA051ECFD102960A2606ABF61853
:100B5000320000230AA90EA800F064FA031E00DA8E
:100B6000FAE10998C0D133880C2B38D10BAE320092
:100B70000A9902F09BFB0028B5D1C74A3378127856
:100B80009A422ED90221E218BC321278023AD2B22D
:100B900091424041029A504358225343C0182018B2
:100BA000027D33799A42D0D808D3427D73799A4234
:100BB000CBD803D3C28AF3889A42C6D2E35DE31846
:100BC000BC331A78012A08D0002A03D0032A01D89E
:100BD00001221A7001256D4286E70422F9E70325F8
:100BE00082E7072580E7AC4B1B78082D00D004E690
:100BF0001D1E00D101E6220000230121BC32E35575
:100C000011708D4200D051701D00F6E514AE012B1D
:100C100009D98E239B005843C430201801F02AFDC7
:100C20003000FFF737FCE35DE218BC321078F0715A
:100C30000138042800D92AE108F0D4FC0E0105008F
:100C4000050005001E0100212000FFF7DBFA002847
:100C500056D1924E92483368D96809F0F1FF336853
:100C60009048D96809F0ECFFE35D01200293002B66
:100C700053D10BA902F0F6FA4342584101F070FD3E
:100C8000029B0220002B03D0FD30012B00D1F9384C
:100C90000EA902F0E7FA4342584101F061FD5822E3
:100CA0000025E35D03955343E3189B6A069207937F
:100CB000079B039AE05D934235D1069A4243A318FD
:100CC000DB6B5B0747D433682A007749D86809F0A3
:100CD0005DFF0023019500930B9A0E992000FFF70A
:100CE000E3FC5821E05D41432C316118FFF76AFABB
:100CF000051E64D033686D48D96809F0A1FF3AE059
:100D0000320000212000FFF7E5FA0028A1D13100D0
:100D10002000FFF7DFFB05002DE0029BFF20012BE9
:100D2000A7D1FA38A5E7069B039A58432018436ACF
:100D3000D2009B185B6829001A000B98059302F0FB
:100D40003EFB4342584101F00BFD059BED18039B10
:100D500001330393ACE78E239B0058432C3214AB32
:100D6000C4300093A21820180E9B029901F0D6FA05
:100D7000002815DA03256842684101F0F1FCE05DC6
:100D80002318BC331E78F31E012B5DD800F068FBDE
:100D9000051E3DD0FF22E35DE318BC331A7057E017
:100DA000002890D18E23E05D9B005843C43020186A
:100DB00014AA012101F08AFA002884D0DAE7582227
:100DC000E35D01005343E3181B6D0E985A6802F06F
:100DD000F6FA58264342584101F0C2FCE35D0E98F2
:100DE0005E43A619736D326D013BDB00D3181168A9
:100DF0001A68511A5A6802F0E2FA4342584101F067
:100E0000AFFC0B9802F048FA0E9802F045FAB2E7F0
:100E1000032E19D15821E05D41432C316118FFF7B1
:100E2000D1F900280AD01D4B20481B68D96809F069
:100E300007FFFF22E35DE318BC331A70E05D00F0AA
:100E4000F7FA051EA6D103E0FD23023E1E42F5D0AF
:100E50006842684101F084FCE35DE218BC3212781C
:100E6000FF2A17D10D4B12481B68D96809F0E8FE1C
:100E7000002001F075FCFEE7180000F0F1FA051EF5
:100E8000EAD0FF22E35DE318BC331A70E4E7FF23E6
:100E90001370E1E70133B1E4809001080892010882
:100EA00017E31D104CE31D106DE31D10B0E31D1082
:100EB00008E31D10E318BC331B78012B08D1002276
:100EC00020001100FFF706FA00281ED0032506E0D7
:100ED00014AA00212000FFF751F9051EEFD00023CE
:100EE000E355E35D32789A4239D958225343E318E7
:100EF000D86C02F0D1F95822E35D5343E318186A25
:100F000002F0CAF9E35D0133EAE7E05D2318BC3380
:100F10001B78012B0DD1582141436118FFF752F97D
:100F2000051E06D00F4B10481B68D96809F088FED3
:100F3000D5E75821E05D414361180A6A00F0C0F826
:100F4000051E06D0074BE25D1B680849D86809F00A
:100F50001DFEE35D013359E401256D424DE4280097
:100F600021B0F0BD08920108ECE31D102BE41D1028
:100F700010B501000148FFF71DFC10BD6097010886
:100F8000F0B587B002930CAB1B7804000D00009203
:100F90000393002805D101235B420193019807B018
:100FA000F0BD0029F7D0009B002BF4D0CB680F894F
:100FB00005AEFF18320004233900009802F076F9DC
:100FC00001900028E7D1154A31886B89914221D1DF
:100FD00071889942DFD1C91904233200009802F0C8
:100FE00065F90028D7D105AA0D4B11889942D2D1B5
:100FF000009B256063606B461B8923816B461B7BCE
:10100000A3726B89DB19E3605288D31863613B1DBF
:101010002361C3E7002BE6D0BDE7C04608690000A6
:1010200007690000F0B585B00400009101921E0030
:10103000002803D10120404205B0F0BD0368002B19
:10104000F8D04368002BF5D0226963699A4218D220
:1010500023685B89002B04D0E368934201D10433F9
:10106000236103AD04232A002169606802F01EF9A0
:101070000028DFD1A27A2369002A04D0E2689A42CC
:1010800001D80120D8E76A882189171DBC460B4F7B
:10109000B94202D02D888D420DD1002E02D003A975
:1010A00009883180009904330B60019B1A80236901
:1010B00063442361C0E763442361C5E7FFFF000089
:1010C000F0B50025D9B003900095514B0AA8160041
:1010D000FFF756FF0295A84204D001246442200085
:1010E00059B0F0BD0E2704ABFF1807AC3B0022003F
:1010F00008A90AA8FFF796FF0028EED13B88602BCD
:101100000FD18022238852009342E6D818AA08996A
:10111000300002F0CBF80028DFD1238801250293AC
:10112000E0E7102BDED12388202BD6D810AA08990F
:10113000300002F0BBF8041ECFD1002DCDD00298B4
:1011400058AB20380890181801382022FF3810A911
:1011500009F0B9FD039B2F4E9B0104933F23049A92
:1011600009941A43337805922B4D002B09D1802224
:1011700021005201280009F0AFFD284B2B6001230C
:1011800033706888244B264EC3180393039B09AF22
:10119000B34224D8049B234A1B051B0D13433B80F9
:1011A0006B461E897E806B88321D92B29B18184A4E
:1011B00093422BDC80229BB25201934222D804221C
:1011C0003900039809F07FFD0398029A043018A9AA
:1011D00009F079FD6B880433F6186E807FE70422EE
:1011E0003100380009F06FFD3B881A0B012A04D149
:1011F000059A1B051B0D9A4206D009AB5B88043388
:10120000F618C3E701246AE7022468E7032466E7C7
:10121000FFFF0000989C0608000800081620040044
:10122000040800083F10000003000120042B05D033
:10123000052B04D101390800411E884170475B1A13
:1012400058425841FAE737B50D00C0B201A902F083
:1012500009F80124002807D12900019800F0B6FC04
:101260000400019802F018F820003EBD13B50400F8
:1012700000F014FC0123010001AA2000137000F00B
:101280001BFC16BD13B5040000F004FC0123010093
:1012900001AA2000137000F00FFC16BDF0B5002568
:1012A00006000E27280085B097426841019114007E
:1012B00001F056FA2800019B24019F42684101F089
:1012C0004FFA02ABDD1D019B30001C432C7000F077
:1012D000E9FB012301002A00300000F0EDFB05B01E
:1012E000F0BD13B50400019100F0E0FB0423010000
:1012F00001AA200000F0E0FB16BD0000F0B50400DC
:1013000089B00120002C03D00430012C00D0FA3029
:1013100004A9FFF798FF002802D0FF2009B0F0BD14
:101320000220002C03D00430012C00D0F93006AD8F
:101330002900FFF788FF0028EFD1040004AB1B78D9
:10134000244E00932B78019304ABDB780293EB7867
:10135000039304AB9F78A05D00993519FFF764FFF4
:1013600000282CD068780199FFF75EFF002826D06E
:10137000AB78042B02D0029A934220D1EB78042B55
:1013800002D0039A93421AD12B79042B15D1124B18
:10139000124A1B68D8686B79022B06D0104A032BBF
:1013A00003D0104A042B00D00F4A104909F0EEFB7D
:1013B0006879831E022BB1D9AFE7BB42E7D0063470
:1013C000122CC8D1044B0A481B68D96809F038FCB4
:1013D0000120A3E778E41D10089201088FE41D1096
:1013E0008AE41D10A6E41D1094E41D10ADE41D1048
:1013F000C3E41D1030B5002915D001230F250B4C77
:1014000041185B420278013053401A092B409B007F
:101410001B595A4013092A409200125953408842DE
:10142000F0D1D84330BD01235B42FAE7DCE41D1064
:1014300013B50123002803D00433012800D0FA3368
:1014400001A9180001F00EFF0124002806D101981F
:10145000FFF70CFF0400019801F01EFF200016BDED
:1014600030B5012385B0002803D0FE33012800D118
:10147000FA3B01A9180001F0F5FE0124002810D163
:1014800002AD2900019800F0A1FB041E0CD1EB78FD
:10149000032B03D10198FFF7F5FE0400019801F03A
:1014A000FBFE200005B030BD0124F7E7F7B51D00B5
:1014B00000231600284A019307002C00805C9D42FF
:1014C0000FD058224243BF187A6A54686A79012AB9
:1014D00015D199422CD1214B2A681B6893429B411C
:1014E0001C4001F0C3FF01A9C0B201F0BBFE0028FF
:1014F00020D00124019801F0CFFE2000FEBD022A79
:1015000016D12A68012A07D9144C27681C00BA4250
:10151000E7D84B425941E4E7012A09D10029E0D03C
:101520001C000129DDD1297902394A1E9141D8E7F1
:101530001C00D6E7210020233200019801F0B6FEFE
:10154000041ED6D1002DD5D0054B3468E418631E97
:101550009C416442CEE7C0463405000084900108F7
:10156000C3470C69F0B500268DB00AABDE71037875
:101570000500089114000720032B62D0280000F01A
:1015800099FA0300013B099301230493023B374A74
:10159000029607931E000133FF33019087180693CC
:1015A00005930AAA287801230732390000F03CFE8F
:1015B0000390002857DB0AABDB795A1E012A03D8B7
:1015C000019A0693BA1A0792280001F068FF0AAB45
:1015D00007331B78984236D0721C03D1019A0593C9
:1015E000BE1A0136039B013F0493099B9F42D8D149
:1015F000029B012B05DD1E4B1E481B68D96809F0B4
:101600001FFB21001C4B089A0831D05C00F0D4FB72
:101610004342584101F0A4F80020731C11D0089BEC
:10162000A068C033196808F06DF84B1E994108187E
:10163000B04211DD012363716B461B7D26600020E3
:1016400023710DB0F0BD049A039B9B1A5A1E93415F
:10165000029AD3180293C5E702236371079B2360A4
:101660006B461B7EEBE70120EBE7C046CF0700008F
:1016700008920108B8E51D103405000000684843D1
:1016800070470000F8B5234B0200C35C9C4658230A
:1016900061464B43C3189C6A5F6DA7420AD07B1C0E
:1016A000A34207D01C4B1D481B68D96809F0C8FA33
:1016B000002026E0FA23DB009C4223D9164B184871
:1016C0001B68D968F2E70E6D4D6AD80036182818E5
:1016D00076684068864204D00F4B12481B68D96870
:1016E000E4E70133BB42EED10120A34209D25821E5
:1016F00065464D435219526ADB00D3185B689E421F
:10170000EAD1F8BD58216046002341431E0051181C
:10171000E8E7C04634050000089201081CE51D10EA
:1017200057E51D1089E51D1007B5124BC35C01205C
:10173000002B03D0FE30012B00D1FA386946FFF7A9
:1017400082FD4342584101F00BF86B461A780A4B70
:101750001B68D968012A08D16A469278032A04D105
:10176000064809F06DFA02200EBD054809F068FA36
:101770000020F9E73405000008920108DEE51D109D
:1017800000E61D100023F0B50F005821AA4E8FB0BF
:10179000AA4D03900A930B933360445D089501258D
:1017A00061434118496A18004968AC460491190020
:1017B0005D1C914200D26EE0002800D03360012011
:1017C000002C03D0FE30012C00D1FA380AA901F018
:1017D00049FD4342584100F0C3FF0225002C03D0CD
:1017E000FD35012C00D1F93D0BA9280001F03AFD8F
:1017F0004342584100F0B4FF7A68914B1340914A3C
:1018000093422DD13B68012B2AD10CA928000B9CB7
:10181000FFF719FD4342584100F0A2FF08AB1B7CC3
:10182000032B1DD12100039800F0D8FA4342584100
:1018300000F096FF2000FFF725FD4342584100F0DD
:101840008FFFB9682000FFF74CFD4342584100F07C
:1018500087FF200000F064F94342584100F080FF08
:101860007B79012B07D13368DE00734A1168002BA6
:1018700016D101333B60022301247B716E4B0A9E1B
:101880001B68A3426AD2300001F006FD0B9801F0FC
:1018900003FD0FB0F0BD049B6046C9182B0087E71D
:1018A0003A68581E01310690891A994253D3089913
:1018B000039B0A9C5B5C58214B430399CB185B6AE2
:1018C000196898599B19083B1B68451A5B1A0793BE
:1018D000012A1DD10B9B0593FB6A022B10D021001E
:1018E000039800F07BFA4342584100F039FF3A0078
:1018F0002100039800F0DAFA4342584100F030FF2B
:101900000599039800F06AFA4342584100F028FF15
:10191000049A29002000FEF7C3FE4342584100F01C
:101920001FFF049B2200210001930095079B039851
:10193000FEF7BAFE4342584100F012FF3900039807
:1019400000F0FCF83B6801333B60002803D03E4ABE
:10195000136801331360083E069B86E73B68A34289
:1019600067D80B9B089A0593039B9B5C58225343B3
:10197000039AD318596AE20088581B6D09900868C9
:10198000083A079098581B68C31A06933B79012BB5
:1019900024D1079B8D583000ED1A049A2900FEF7D8
:1019A0007FFE4342584100F0DBFE049B3200059964
:1019B00001930095069B0398FEF776FE434258413B
:1019C00000F0CEFE3900039800F0B8F802233B7116
:1019D000002806D01C4A1368013313603B79022BA0
:1019E00027D1049A06990598FEF75AFE43425841BA
:1019F00000F0B6FE079A099B31009B1A049A0398DF
:101A00000192069A0092059AFEF74EFE4342584113
:101A100000F0A6FE3900039800F090F83B6801330F
:101A20003B6001233B71002803D0074A1368013350
:101A30001360013422E7C046849001083405000099
:101A400000FF00FF000100049C9C06087FB5050014
:101A50000E0010220021684609F03EF90124002DF5
:101A600003D00434012D00D0FA343100200001F0FD
:101A7000F9FB051E09D110236A460549200000F034
:101A8000D3FB0500306801F007FC280004B070BDEE
:101A9000B409000000487047B309000000487047CF
:101AA000B209000000487047B109000000487047C3
:101AB000AD0900000020704710B5007800F024FB4D
:101AC000431E984110BD0000013109010B1FD218BF
:101AD000044B10B5591A0078102300F015FB431E73
:101AE000984110BDAD09000073B50C0001A91500A7
:101AF000FFF7ACFF061E0ED1084B611C09010A1F3F
:101B0000591A019BAA181878102300F08DFB0600C3
:101B1000019801F0C1FB300076BDC046AD09000060
:101B200010B510230078034A034900F0EDFA431E74
:101B3000984110BD68E41D10B4090000002337B5BA
:101B40000193164B0D00C35C0120002B03D0043021
:101B5000012B00D0FA3001A901F084FB01240028F8
:101B600016D121002800FFF789FD2A790100687944
:101B70001319DBB2A04200D113006A46033213707E
:101B8000019B1878012300F0BFFA0400601E844115
:101B9000019801F081FB20003EBDC04634050000E5
:101BA000F7B505000E0000240192019B9C4201D371
:101BB0000120FEBD2800375D01F071FC874202D193
:101BC0000134E4B2F1E70020F3E70000F0B50026AD
:101BD00089B002AB05000C00072003A9DE70039654
:101BE00001F040FB4342584100F0BAFD2878102331
:101BF00004AA6C4900F018FBB04203DA0123180074
:101C000009B0F0BD102204A90398FFF7C9FF071E11
:101C1000F4DB012800D088E003222B782270042214
:101C200093430193022B00D088E0AB6804AA103BD9
:101C3000009300991023280001F03FFC0028DDDB11
:101C400001285BD10323237002ABDF1C287801231A
:101C50003A00554900F0E8FA0028CFDB01223900AC
:101C60000398FFF79DFF0028C8DB0F233A78134045
:101C7000120963702271012801D0042B03D90123BA
:101C8000637000232371A71C287801233A00474979
:101C900000F0CAFA0028B1DB012239000398FFF7EF
:101CA0007FFF0028AADB0323012804D0A378013B8F
:101CB0005A1E93410133A370E71C287801233A0090
:101CC0003B4900F0B1FA002898DB01223900039863
:101CD000FFF766FF031E00DA90E7012858D10322C0
:101CE000E27028780138052800D988E707F070FCF1
:101CF00028002B0087FF87FF28002B0010222D498A
:101D000004A808F0D1FF00280BD1287810232770F1
:101D100004AA244900F0F8F9002800DA6EE73E0032
:101D200092E76B461B792370F9E71022214904A83A
:101D300008F0BAFF431E984101302070009683E7F7
:101D4000A378012B2AD1AB683A00183B0093009985
:101D50000123280001F0B1FB002800DA4EE703233D
:101D600001281AD0E378012B0FD1E37028783A00CC
:101D70000F4900F0C9F9002800DA3FE71022009966
:101D8000280001F01CFB030039E70223E370F5E7AC
:101D9000E378013B5A1E93410133E37000239E42D6
:101DA000ECD12CE7B4090000B1090000B209000031
:101DB000B309000068E41D1013B50C0001A9FFF77A
:101DC00045FE002806D1019B220018780249042311
:101DD00000F02AFA16BDC046AD090000F0B5002497
:101DE0002D4B85B01B680A7807000D00D8682B4979
:101DF00008F0CCFE03A90720039401F033FA434214
:101E0000584100F0ADFC264B2100FE5C300001F093
:101E10002DFB01210400300001F028FBC3B228781B
:101E2000E4B2A04202D00124984231D100F060F91E
:101E30003B000190A020B4331B684001596807F0B3
:101E4000DBFB0026174BC418E4003B00B4331A68D0
:101E50000398131959681B6800911168019A083C8E
:101E6000511AC918009AFEF71BFC4342584100F072
:101E700077FC009BF6180C4B9E42E6D9A9684022DD
:101E80004039280001F09BFA0400039801F004FA9D
:101E9000200005B0F0BDC046089201081AE61D10EA
:101EA00034050000FFFFFF1FFF13000073B5254B33
:101EB0000C00C65C15000220002E03D00430012E59
:101EC00000D0F9306946FFF7BEF94342584100F0AF
:101ED00047FCE979012907D032002000FFF7DEF93D
:101EE0004342584100F03CFC6B46DB78012B06D1A5
:101EF0002000FFF7C7F94342584100F031FCA968C0
:101F00002000FFF7EEF94342584100F029FC2A0077
:101F100000212000FFF7D8FD4342584100F020FC8B
:101F20002A0001212000FFF7CFFD4342584100F075
:101F300017FC2000FFF7F4FD4342584100F010FC6D
:101F4000002076BD34050000F0B5002687B002AB56
:101F5000DD1D0F000190049605962E70FFF7E4FB3F
:101F60000400F862B04212D0022813D1244B019A27
:101F70000136D35C002B03D00436012B00D0FA3697
:101F800004A9300001F06EF9002808D001242000D7
:101F900007B0F0BD300000F0E3FB0724F7E705A928
:101FA000072001F05FF90028F0D13A000199049868
:101FB000FFF7D8FA041E1BD1300001232A00114973
:101FC00000F032F9061EE1D1012229000598FFF741
:101FD000E7FD041EDADB012806D100F0C1FB20007A
:101FE00000F0BEFB2C7034000F222B781340FB71E5
:101FF000049801F051F9059801F04EF9C7E7C04681
:1020000034050000B1090000F0B5374C1600A544B6
:10201000002407900591072009A9099401F022F9ED
:10202000250027004342584100F09AFB0294019496
:102030000394A0231B016343079A09989B180493F8
:1020400080230AAA9B00049901F030F943425841C9
:1020500000F086FB254B879A9A422FD1FE21899B5F
:1020600049000AA80693FFF7C5F9069B834221D1D0
:10207000889BBB4203D325001F00049B0393012CC4
:1020800016D1029B0998022B1CD10023336001F06A
:1020900006FAFA2201005200059808F01DFE2500FC
:1020A000099801F0F9F828008B239B009D44F0BDAE
:1020B0000124BEE7019B01330193E0E7029B01335A
:1020C0000293DCE7019B022B0BD0FA2337605B0005
:1020D000059A039901F0EAF84342584100F040FBA9
:1020E000DEE701256D42DBE7D4FDFFFFAFBEADDECD
:1020F0000138052803D8034B4000C05E704701201B
:102100004042FBE73CE61D10F0B50E00FA21424CC0
:102110000700A54430004900039201931C0007F01A
:10212000F1FA0020019B3D4A9B199A4240410D0063
:1021300000F016FB3800FFF7DBFF0700C043C00FBD
:1021400000F00EFBFA213000490007F055FA012695
:102150004002C7197642002C03DC3000304B9D440E
:10216000F0BD05AA07A93800FFF74EFF061E50DB99
:10217000FA2322005B009C4200DD5A1B07AB581972
:102180000025039B01995918091B08F09CFD059B2C
:1021900006A9013307200293069501F063F8434234
:1021A000584100F0DDFAFA2207A9520084A808F08D
:1021B0008AFDFE21029BFFAA0C321360194BFFAA75
:1021C00008321360490084A8FFF714F9FFAB1033FD
:1021D0001860012E00D0751CA021802309016943DD
:1021E0009B00C91984AA069801F0A2F8454245410E
:1021F0000600280000F0B4FA069801F04DF8280017
:1022000000F0AEFA8023F53C9B00FF3CFF18002550
:10221000A1E701267642A0E7ECFBFFFFC40900001E
:1022200014040000AFBEADDEF3B50E00FA21FFB01E
:10223000070049003000019200931C0007F062FA89
:102240000020009B1C4A9B199A4240410D0000F05F
:1022500087FA3800FFF74CFF0700C043C00F00F0BB
:102260007FFAFA213000490007F0C6F9FA26400249
:10227000C7197600002C02DC00207FB0F6BD02AA50
:1022800003A93800FFF7C0FE002812DB2200B44289
:1022900000DD721B019B0099581803AB5919001BF4
:1022A00008F011FD8023F53C9B00FF3CFF18002542
:1022B000E0E701204042E0E7C409000010B5040057
:1022C0002422002108F008FD200010BD70B58AB05E
:1022D000050001A80C001600FFF7F0FF80239B000B
:1022E00004930B4B210105930A4B620001930A4BA7
:1022F0000C319B187118102201A806F0D1FE00289D
:1023000004D18E210123490061434B550AB070BDB1
:102310000100C00400248000A09C0608F0B506005F
:10232000CFB0180015001C0000F060FB002808D199
:10233000924B93481B68D96808F082FC0120404208
:1023400015E1200000F0E8FA002800DA0FE18E2302
:102350005B0043439B5D03900120002B00D006E10E
:10236000009322003233290016A8FEF709FE031E4F
:10237000E4D10E2502AAAD182A0007A916A8FEF777
:1023800051FE002800D0F2E02B88712BD6D131AD60
:102390002A000799200000F089FF0028CED12000F4
:1023A00000F006FB071EC9DD06F0DEFEB842C5DB05
:1023B000744C102221000AA8113408F084FC21007A
:1023C00010220EA808F07FFC2100102212A81CACDD
:1023D00008F079FC2000FFF771FF302306AE3100D2
:1023E0003800089306F0B2FE002800D0BFE0308825
:1023F000210006F067FE002800D0B8E02B78042BFF
:1024000000D0B6E0CF222388120213408222D201EC
:10241000934200D0ADE009905B4909A8678806F0B7
:10242000B7FE002800D0A2E010230EAA574909A841
:1024300006F056FE002800D099E010230AAA54495D
:1024400009A806F04DFE002800D090E002210737D1
:10245000FF087F00013732882B000097FF3109A861
:1024600006F060FE002800D081E0089A25A909A89E
:1024700006F048FE00287AD109902000FFF71EFFE1
:1024800080231B011F93882312255B01238002AB4D
:10249000404EED182B00202229A92000209606F09E
:1024A000FFFD002863D12988320009A806F07EFECE
:1024B00000285CD11E2302A9FF335B1810221900EB
:1024C00009A806F083FE002851D1FD2102AB20228D
:1024D000C91809A806F08AFE002848D1288806F005
:1024E000A1FD002843D11CA8FFF7E8FE80239B0034
:1024F0001F93294B294D1C93039B294F5E00AB1959
:10250000102225A91CA8209706F0CAFD00282ED16C
:10251000244C715B3A00200006F03CFD002826D1D7
:10252000102212A9200006F057FD00281FD1039B9E
:10253000549A1B010C331E21D318102202A808AF95
:10254000FF31091801970092200006F055FD089B05
:10255000102B10D100280AD1020001003B002000FE
:1025600006F028FD002802D1705B06F05BFD4FB03D
:10257000F0BD8720E3E68420E1E6C046089201082A
:102580006AE61D1048E61D10090120300202000015
:10259000030200000900800200248000A09C0608BD
:1025A0000100C004A49C060810B50400100000F04F
:1025B000B3F90023984206DB1D33FF335843035D14
:1025C000581E8341DBB2180010BD0000F0B51D009D
:1025D000170089B004AC0C2200210600200008F08E
:1025E0007BFB2B0F23732B0D637338002B0B2D09F3
:1025F000E573A37300F090F9051E04DA002000F0E3
:10260000AFF809B0F0BD8E235B004343985D6D00C9
:1026100001384342584100F0A3F8134B134AE95ADA
:10262000134D280006F0B6FC0028EAD11022210044
:10263000280006F0D1FC0028E3D10E9B03AC0093E8
:10264000109B0E9A19000194280006F0D5FC039BFC
:102650000E9A01009342D4D10028D2D10200230067
:10266000280006F0A7FCCCE7A09C06080100C004E7
:10267000A49C06088E2210B59200002106F018F8DE
:1026800010BD000010B504F0A3FB04F0D9FB04F06A
:10269000EBFB62B604F0C2FAC022012007495200E7
:1026A0008B5883438B500648064A002101F016FDE3
:1026B000E120400204F0AEFC10BDC0460000264000
:1026C00080003140A4E61D10822110B5012410487D
:1026D000890042584358D205DB0B2340D20D9B188A
:1026E000002BF6D104F004FD0A4801F0F1FD094881
:1026F00001F0EEFD084B1B681A006D3211789A68E4
:1027000080238C40DB051C438023DB00D45010BDAC
:10271000000065408002314060A2060810B50B48F9
:1027200001F0A0FB04F0BAFB094A8021032001F06C
:10273000A9FF084801F032FE074B1B684D331B7898
:10274000002B02D0054801F077FE10BDE0EC1D1013
:1027500000000008A89C060860A2060850E71D10AB
:10276000F7B5041E49D16A46244B254D1B78254FE9
:10277000D3706B68244801933B68D96808F060FA0D
:102780002248234A2100121A08F0A6FA2148224AB8
:102790002100121A08F0A0FA204E214A2100921BB3
:1027A000300008F099FA6B46144ADB781370019BED
:1027B0006B6086F308881B4E1B482100321A08F014
:1027C0008BFA86F30888012006F00EFEFFF7A6FFBD
:1027D000686805F0F1FE021E04D03B681349D86812
:1027E00008F0D4F9124804F0BFFB124B1B68002B11
:1027F00001DA05F005FF0BF0E7FCF7BD58A206086B
:10280000B4A0060808920108D8E61D1080900108BF
:10281000D89301084497010868A2060800E0000860
:1028200000E4000800C00E0800B00E0820E71D10EC
:102830000040001600012640F0B599B01EAB1B7891
:102840000390049313781400302B03D0952040425A
:1028500019B0F0BD9378022BF8D108AD40220021C9
:10286000280008F039FAE07822185379811D12798E
:10287000C9180291022AE9D1C21861780432914242
:10288000E4D1202B00DD20230100202800DD2021C1
:10289000401A002205900FE0501A203007000598DA
:1028A000102684469444A44460460079013284464C
:1028B00004A880196646C6559142EDD100220299BE
:1028C000C91A64189A4212D10E2404ABE4182100EC
:1028D000049806F03BFC0028BAD140232088039AD4
:1028E00001930095203B054906F040FBB0E7D11A63
:1028F000A05C403168540132E4E7C046090006108C
:10290000037800205A1E012A05D90130052B02D078
:10291000062B00D0023870470378042219000020EB
:102920009143012905D00130022B02D0062B00D0A3
:102930000238704710B50C00FFF7E2FF012807D8F6
:1029400030235843044BC05C001B431E984110BD0C
:1029500001204042FBE7C046B4A0060810B50400C1
:10296000FFF7DAFF00280EDB0CD02000FFF7C8FFCE
:10297000002808DB302343430448C0184378012073
:102980005840404210BD0120FBE7C046B4A00608F5
:1029900010B5FFF7B5FF0022012805D830234343C7
:1029A0000248C0182C300278100010BDB4A00608F0
:1029B00010B5FFF7A5FF0022012804D830234343B8
:1029C0000248C018827C100010BDC046B4A00608A2
:1029D000012805D8302343430348C0184069704795
:1029E00001204042FBE7C046B4A0060810B5FFF73F
:1029F00087FF012805D8302343430348C018007CD3
:102A000010BD01204042FBE7B4A006080023F0B54A
:102A10008DB00D00160004931360984203D1072473
:102A200020000DB0F0BD0029F9D04389002B01D161
:102A30000324F5E701230A00009301004F3306A8A1
:102A4000FEF79EFA041EEBD10E276F4403003A00F6
:102A500005A906A8FEF7E6FA002801D0013CDFE749
:102A60003B88042BE4D104AA0599280000F01EFC41
:102A7000002801D00124D3E7049BFF2BD0D833607A
:102A8000CEE70000F0B5150017221F000023FF2637
:102A9000C1B0089108A95218119313702B690B90BB
:102AA000380010960593FFF737FF002804DA012459
:102AB0006442200041B0F0BD002800D1E5E03800BC
:102AC000FFF74CFF041EF4D13800FFF78FFF431EC1
:102AD0009841059B5B07DB0F984204D03800FFF755
:102AE00085FF013CE5E702220992089A12943B789F
:102AF000002A05D006220992089A012A00D00996D8
:102B0000099A934209D12B695B0706D53A000899C7
:102B10000B98FFF749FD0028C9D0A94912A806F073
:102B20008FFA041EC5D1489B002B59D100242B8954
:102B300026000693069AEB689446634407936B89D4
:102B4000079A9B180A930A9BB34255D8002CB0D120
:102B500020AB202218A912A806F090FA041EA8D1D2
:102B60004A9B002B00D0B2E000233A0000932900DA
:102B7000944B12A8FEF704FA041E00D099E7012531
:102B800005900990069007901A2608ABF6180EAC2F
:102B9000330022000FA912A8FEF744FA002800DA39
:102BA00085E700D0FEE03388222B00D1B3E000D9C6
:102BB00093E0102BE8D12688202EE5D1330020AAFF
:102BC0000F99380000F072FB041E00D071E732004C
:102BD00020A918A808F068F80028D5D10795D3E7F0
:102BE000499B002BA2DD1A00489912A806F036FA7C
:102BF000041E00D05DE799E70A9B479A9B1B05924C
:102C00009A4200D90593069BB34206D9059B069AC2
:102C10009B199A4201D2931B0593079BB34206D995
:102C2000059B079AF3189A4201D2931B0593059BC3
:102C3000469A3100380000F039FB041E00D038E716
:102C40003B78099A934217D104222B69134213D07F
:102C5000069BB34210D8079BB3420DD9469A069BF8
:102C600002920F22F31A1A400192059A08990092D3
:102C70000B983A00FFF7AAFC059A469912A806F0AD
:102C8000EDF9059B0400F6185DE712904C4912A877
:102C900006F0D6F9041E00D00BE7489B002B0AD1A2
:102CA0006B892A897968D218EB6812A8D21806F0C5
:102CB000D5F904004AE7499B002BF1DD1A00489939
:102CC00012A806F0CBF9041E00D0F2E6E8E72022B5
:102CD00018A94A9807F0F7FF46E7502B41D0812BFF
:102CE00000D051E72388012B00D04DE7172608AB11
:102CF000F61832002B000F99380000F0D7FA041EA6
:102D000000D0D6E631783800FFF714FE041E00D05C
:102D1000CFE6069538E73800FFF73AFE061E00DCDE
:102D200032E706F021FAB04200DA2DE723881A00D4
:102D3000463A3A2A00D9BAE620AA0F99380000F09C
:102D4000B5FA002800D0B2E6F6B2238820AA009691
:102D5000202118A8FFF770FD002800D014E709957E
:102D600012E72388042B00D0A1E611AA0F9938009E
:102D700000F09CFA041E00D09BE6119BFF2B00D9AB
:102D800095E610A9089800F01FF8041E00D090E600
:102D9000109BFF2B00D98AE6119A934200D9F3E6E3
:102DA0000595F1E6079B012B00D080E6069B012BE1
:102DB00000D07CE6059B012B00D078E6099C90E6CC
:102DC00009000001FFFF000010B50C00FFF700FE36
:102DD000002803DB210005F0E7FC10BD0120404284
:102DE000FBE710B50C00FFF7F3FD002803DB210023
:102DF00005F0F2FC10BD01204042FBE710B5FFF7E3
:102E00008DFC10BDF0B5002495B0FFF787FCFFF7EF
:102E100039FC03F0C3FF1722B9490CA8069407F048
:102E200052FF3F2002AB09222100C01807F054FFD7
:102E3000C02005AA06A9800005F03CFBA04203D1F2
:102E40000CA9069805F0F8FAAE4DAF4C2B6820009F
:102E5000D96807F0F5FE2B68AC4ED968300007F052
:102E6000EFFE2B680CAAAA49D86807F08FFE2B68E2
:102E70003000D96807F0E4FE2B682000D96807F01D
:102E8000DFFE802005AA06A9400005F013FB039091
:102E900000280BD19F4C019000909F4B9F4A21002E
:102EA000069804F09FF90390002813D02B68039A2A
:102EB0009B49D86807F06AFE924B9A481B68D9680C
:102EC00007F0BEFE039843425841FFF749FC00203B
:102ED00015B0F0BD0123944F3B702B68D968236E69
:102EE000002B02D0636E002B10D1904807F0A8FE93
:102EF0002B688F48D96807F0A3FE2B688D48D968E6
:102F000007F09EFE01235B420393D5E78A4B8B4A71
:102F10008B4E1A80E2695A60226A9A60894B33802C
:102F2000237C002B02D0884807F08AFEA378002B70
:102F300006D02B688548D9688023737007F080FE1F
:102F4000636A7360A36AB360237E012B29D12300D7
:102F500048331B78022B24D12A683B70D1687C4B04
:102F60007C4A7D4E1A80E26C5A60226D9A607B4BDF
:102F70003380230040331B78002B02D0784807F0C1
:102F80005FFE2B68D968230032331B78002B04D0F6
:102F900080237448737007F053FE636D7360A36DF4
:102FA000B3602B683A787049D86807F0EFFD6F4B33
:102FB0006F4A28681A80226E6E495A60626EC06835
:102FC0009A60236E07F0E2FDFE226B4BD2011A805D
:102FD0006A4A00265A60802252029A60A778B74255
:102FE00003D000203E0000F02FFF230032331B7877
:102FF000002B27D001201E0000F026FF042E23D82E
:10300000300000F0CFFE2B68061E5D4AD86800D164
:103010005C4A33005C4907F0B9FD002E14D0A37858
:10302000002B03D00023464A6370537023003233D1
:103030001B78002B08D02200002331321370464A3F
:10304000537001E0002FD9D13349200006F0ACF9CC
:10305000021E07D02B684D49D86807F097FD002065
:10306000FFF77EFB09A8FDF783FF0390002800D03F
:1030700022E72B684648D96807F0E2FD454B6268B5
:103080001A60237A444A1370002B04D0E06803F0DE
:1030900021FE03F093FE0127099B404E1A890B9BEA
:1030A0003F49D2182B683260D86807F06FFD237E45
:1030B000BB4205D1230048331F78023F7B1E9F414E
:1030C00020780138032803D806F078FA0912126E26
:1030D0002B683448D96807F0B3FD30BFFDE7FFF730
:1030E000F3FA2D4B39001A78306805F0F7FAE3E669
:1030F000FFF7EAFA0221002001F0A0FBF1E7C04649
:1031000084E71D1008920108B3E71D10BDE71D10EC
:10311000F1E71D10B4A00608389E060858A206085C
:103120001CE81D103DEB1D10809001084BE81D10A0
:103130008FE81D10C9E81D10949E0608017F00004D
:10314000AC9E0608027F000011E91D104CE91D101D
:10315000A09E0608057F0000B89E0608067F0000B6
:1031600087E91D10C2E91D10FDE91D10C49E060867
:10317000077F000018EA1D102C9E060800001D1095
:10318000ACE71D10A4E71D105BEA1D1095EA1D10A9
:10319000C7EA1D10D49E0608D09E0608289E060881
:1031A000F7EA1D1017EB1D100B26FFF78DFA06210D
:1031B0000E2001F043FB1F4B1F4D1B7802AA937298
:1031C0001E4C2B68B618079323681D4808931D4BA7
:1031D0001D4A1B78121A0021337005F069FA1B4F43
:1031E0001B4A0021D21B380005F062FA089B114AE5
:1031F000236002AB9B7A1370079B124A2B603378D3
:10320000137087F30888134E13480021321A05F013
:103210004FFA86F308881148114A0021121A05F066
:1032200047FAFFF77BFA074B29681A78206805F000
:10323000EFF941E658A20608D49E0608289E060823
:1032400080900108D09E0608D893010800E000088D
:1032500000E4000800C00E0800B00E084497010802
:1032600068A2060810B50B4A1368002B02D101248E
:10327000644205E01C7804328442F5D100240B60DE
:103280000B68002B04D05B787F2B01D900F00EFD7A
:10329000200010BD8890010810B5002804D04378A4
:1032A0007F2B01D900F02EFD10BD0000F7B51F00E7
:1032B00043680600994280410D0040420192FFF7A9
:1032C0004FFA7368E819984280414042FFF748FA84
:1032D00073683A00ED182900300006F007F9041E63
:1032E0001FD173787F2B06D13A002900019807F08F
:1032F000EAFC2000FEBD5BB2002B0FDA3B00019A16
:103300002900300000F048F9041EF2D0064B2200DC
:103310001B680649D86807F039FCEAE701246442D3
:10332000F4E701246442E4E70892010875EB1D10FC
:10333000F8B51C0043680700994280410D004042E7
:103340001600FFF70DFA7B68281998428041404229
:10335000FFF706FA7B682200ED182900380006F016
:10336000C5F8002828D17B787F2B1BD1E00543428C
:103370005841FFF7F5F9E80543425841FFF7F0F9E6
:1033800001202F00640A640264194042711BC919AC
:10339000A74200D1F8BD380000F042FE80239B0018
:1033A000FF18F3E75BB2002B06DA23003200290096
:1033B000380000F011F9EDE701204042EAE770B56E
:1033C000050000200C00AB68160093424041FFF757
:1033D000C7F9AB689C4280414042FFF7C1F9AA6837
:1033E0006B6830199B18984280414042FFF7B8F94A
:1033F0006B683200E4182100280006F077F80028F6
:1034000021D16B787F2B16D1650A3419640A6D02BD
:103410006402A54203D1280000F0D0FD70BD012058
:10342000641B640A4042002CF8D0013C6002401941
:1034300000F0C4FDF7E75BB2002B04DA3100200096
:1034400000F0EAF8EAE701204042E7E710B54378E8
:103450007F2B05D05BB2002B05DA00F0D7FC10BD46
:1034600080208000FBE701204042F8E702000129AC
:103470000DD00320022909D00438002906D10120EB
:10348000002A03D00430012A00D0FA30704702200D
:10349000002AFBD00430012AF8D0F930F6E710B545
:1034A000437800207F2B07D05BB2FF30002B03DB7B
:1034B0000020FFF755F9002010BDF7B50600009277
:1034C0001F00FFF7F3FE0500041E0DD001256D421D
:1034D0000DE0009B30001B5D0193FFF7E0FF019BB7
:1034E000834204D10134E4B2BC42F2D30125280066
:1034F000FEBD0000F7B50F00264B01921D68002DA0
:1035000002D101204042FEBD2A7804338242F5D127
:103510006B78AE687F2B27D107282CD000F08EFC6B
:10352000431C2BD000F08AFC002824D02B780020EC
:10353000012B02D0052B1ED1012000F08DFC0128AB
:1035400019D100F06BFC0400A0190138210006F02D
:1035500053F83B688342D4D300236968019A8342BD
:1035600012D13B600020CEE75BB2002B09DA00F0FD
:1035700065FC0028E5D18024A400E5E78024E40070
:10358000E2E700260124DFE71160546009190133E6
:103590000832E4E788900108F0B585B003937F23F3
:1035A00040780C001840170000F0B6FB060000F051
:1035B000BBFB050000F0BCFBE8231B06E218039BE5
:1035C0000190009331003B00280002F097FD431E5C
:1035D0009841404205B0F0BDF0B585B003937F231C
:1035E00040780C001840170000F096FB060000F031
:1035F0009BFB050000F09CFBE8231B06E218039BE5
:103600000190009331003B00280002F0BBFD431EF7
:103610009841404205B0F0BDF7B50400002000F02D
:103620007BFBE822836905009B691206A4185B42B4
:103630001C4000F079FBAB6906009F6900F078FB45
:103640003B00009029003000220002F0F7FD431EED
:1036500098414042FEBD0000F0B589B006ACE07074
:10366000002021712080A07000F056FB060000F0C1
:103670005BFB050000F05CFB310007000200280046
:1036800001F0BAFE002815D1012304970393337883
:10369000020002930523019000937121230028006A
:1036A00001F01EFC002805D13B00034A3100280030
:1036B00002F0FAFC09B0F0BD20A10700F0B500242B
:1036C0008BB009ADE870200007912C80AC7000F041
:1036D00023FB069000F028FB060000F029FB069B68
:1036E000049003941B780700029304230194009331
:1036F00022002B006521300001F0F2FBA0420CD12A
:103700000821300001F084FDA04206D1030000979B
:1037100001220799300001F0BBFC0BB0F0BD021E86
:103720001DD041188B1F1B780022342B17D14B1F43
:103730001B782A3B012B12D80B1F1B78193B022B3D
:103740000DD8CB1E1B780F2B09D18B1E1B78032B9A
:1037500005D101390878903843425841C2B210006F
:103760007047000030B5002089B000F0D5FA0500A0
:1037700000F0DAFA040000F0DBFA012300220490E2
:1037800003932B7820000293019200921300B7213B
:1037900001F0A6FB041E11D11F256D442900032052
:1037A000FFF78CFF041E09D129784BB2002B08DAF1
:1037B00029000420FFF782FF041E0BD0200009B06F
:1037C00030BD8023032019432970FFF745FF041EF5
:1037D000F4D1EDE708212B780B420CD0002000F04B
:1037E0009BFA8022D8218369D2029A615A691160BA
:1037F000054A1A64E2E7194304202970FFF72CFFF9
:103800000028EBD00400D9E770170000F0B589B0AC
:10381000079000200F0000F07FFA040000F084FA07
:10382000050000F085FA0022049003922378060038
:1038300002930192009213009F21280001F050FB97
:10384000041E0FD14021280001F0E2FC041E09D122
:103850000090030001963A000799280001F0E4FB6C
:10386000041E16D0200009B0F0BD012002F0B2FF06
:103870003100280001F0E4FC032802D0013F002FB2
:10388000F3D13100280001F0DBFC0328EAD0024C20
:10389000E8E7024FECE7C0460200B200E90300008F
:1038A00010B5072900D901BE1F2314009C4300D086
:1038B00001BE0E4B1B689C695B69001BC0090001BF
:1038C000C0181F231A40032907D8C9008B408A401B
:1038D00004689C432243026010BD0439C9008B4038
:1038E0008A4044689C4322434260F5E760A2060890
:1038F000437802781B021A438378C0781B04134371
:103900000006184370470000F7B5A54BA54A9A5822
:10391000D10700D47BE00F22A34FBB683D68009322
:10392000A24BDC6F0193009B1440073A141B9C428E
:1039300000D91C009E4E002C18D1009B3D60BB603E
:10394000002B0CD1F92201209549D2008B588343DA
:103950008B50B861FB69002B01D0FB699847F823B5
:103960000122DB008E49CA50CB58F7BD082C16D176
:103970002800FFF7BDFF3060281DFFF7B9FF30605A
:10398000009B2D191B1B0093019BDC6F0F231C4018
:10399000073B1C1B009B9C42CDD91C00CBE7012C94
:1039A00003D12A78834B1A60EAE7022C06D12A78E1
:1039B0006B781B021343804A1360E1E7032C07D1A5
:1039C0006B782A781B0213437B4A1360AA78E9E7D5
:1039D0002800FFF78DFF042CD1D03060052C01D1D9
:1039E0002A79DFE7062C02D12A796B79E1E7072CE7
:1039F00007D16B792A791B0213436F4A1360AA79A6
:103A0000D0E7281DFFF774FF08243060B8E791075E
:103A100000D4A4E00F22644D68496C69EB68086823
:103A20008C460240A24200D922006549654E002A18
:103A300016D1EB606C61002C0DD1F922022158489F
:103A4000D20083588B4383500320A8612B6A002B3C
:103A500001D02B6A9847F8236C61DB00022281E7D2
:103A6000082A19D10868070A18705F70070C000E41
:103A70009F70D8700868070A18715F71070C000EF4
:103A80009F71D8719B18A41A62460F2012680240D9
:103A9000A242CCD92200CAE7012A03D14A480068D1
:103AA0001870EFE7022A04D130681870000A5870C5
:103AB000E8E7032A07D130681870000A58704248B6
:103AC00000689870DEE7042A08D10868070A1870B1
:103AD0005F70070C000E9F70D870D3E7052A0BD1DA
:103AE0000868070A18705F70070C000ED870364817
:103AF0009F7000681871C5E7062A0CD10868070A8C
:103B000018705F70070C000E9F70D87030681871C5
:103B1000000A5871B6E7072A0FD10868070A18701B
:103B20005F70070C000E9F70D87030681871000A23
:103B30005871254800689871A4E70A68100A1A703D
:103B40005870100C120E9870DA700A68100A1A7108
:103B50005871100C120EDA719871082292E7042144
:103B60000A4207D00520104A9061F822D2009950ED
:103B70009B58FAE608210A4202D00B4A0620F3E7D6
:103B80001020024206D00721074A9161F822D20094
:103B90009850EDE72020024200D1E6E6024AF4E721
:103BA00000004240CC070000D89E060808004240B2
:103BB000980042409000424094004240C40042407D
:103BC000D8004240D4004240D000424010B52B4AB9
:103BD00003212B4800F082FA112203212848FFF725
:103BE0005FFE284A0421264800F078FA11220421B9
:103BF0002348FFF755FE244A0521214800F06EFABC
:103C0000112205211E48FFF74BFE204A06211C48C1
:103C100000F064FA112206211948FFF741FE1C4A00
:103C20000721174800F05AFA112207211448FFF71C
:103C300037FE184B1B683C331B78022B12D9E2234A
:103C40000F20154A9B00D1588143D150D1582130C3
:103C50008143080020210143D1508021D05809061A
:103C60000143D150FA220D4B92000D490D4801F04D
:103C7000C7F8002801D10C4B186010BD38EC1D109E
:103C80008005314004EC1D10D0EB1D109CEB1D1085
:103C90006CEC1D1060A2060800002640D89E0608A5
:103CA000A0EC1D10000042404C91010870B50F4C73
:103CB00023685A1C18D0002B13D10D4D0D49280034
:103CC00002F020FD0022AB5E002B06DB1F2213401A
:103CD0001E3A9A401300084A13600849084801F048
:103CE000B1FA23680133236070BDC0464C910108CE
:103CF0007891010809391D1000E100E0D89E0608FE
:103D000000004240034A1368591C01DA013B13606A
:103D10007047C0464C910108024B80001B685B68ED
:103D2000C0587047989F06080048704700004240FE
:103D300000487047D89E060837B50500FFF746FFD4
:103D4000041E21D1FFF7B2FF124B134A290013487A
:103D50001D6002F087F8041E12D106216846FFF7A5
:103D600055FD041E0CD106216846FFF7D8FC00283B
:103D700003D1FFF7C7FF20003EBDFFF7F3FC0400AF
:103D8000FFF7C0FF002CF6D00122054B52421A600B
:103D9000F1E7C046989F0608D89E060800004240FA
:103DA0004C910108F8B5164C431E6268032B23D8CA
:103DB0001800126805F002FC021A1C1E0121117085
:103DC0000C2253430F48104A1D58C0184668077A02
:103DD00031002800177200F081F928003A00310004
:103DE000FFF75EFD2000FFF7A7FFF8BD0221E6E721
:103DF0000421E4E70821E2E701204042F5E7C0465C
:103E000068910108B0EC1D10A4900108024B5B689A
:103E10001B689B69586A704768910108024B5B6890
:103E20001B689B699869704768910108024B5B6841
:103E30001B689B695868704768910108014B1868B6
:103E40007047C0464C9101080122024B8000C250CD
:103E50007047C046489F0608014B8000C058704715
:103E6000489F0608014B18607047C04660A20608CC
:103E7000074A13682E331B78834200D801BE1368AB
:103E80001A00AC3212881B6A5043C0187047C046F3
:103E900060A206081D4B98420FD010D840282FD0A2
:103EA00005D8002830D0102828D019481EE08028D6
:103EB00028D080235B009842F7D1144816E0154BB8
:103EC000984214D008D8A0231B0698421CD0124B4D
:103ED0009842EAD1A0200BE0104B98420AD0104B38
:103EE000984209D00F4B9842DFD10F487047A42069
:103EF000C003FBE70D48F9E70D48F7E70D48F5E784
:103F00000D48F3E70D48F1E70020EFE70600520007
:103F1000FF005200010000F0090000A0040000F0C2
:103F2000050000F0030000F0010052000200520002
:103F30000300520001005000020050000500520032
:103F400010B5002002F06CFB0B4B1B681A1DD26FE2
:103F50001B689B1819681C68090E01314B0818185A
:103F600005F04AFB240AE4B201346308C0182100BA
:103F700005F042FB10BDC04660A2060810B5002047
:103F8000FFF776FF0A4B1C682300B0331B68C0188C
:103F90000368002B0ADB074B1868FFF77BFF012241
:103FA00063689A609A68002AFCD110BD0248FCE759
:103FB00060A20608E49F06080200500070B5C40520
:103FC0000500E40D1ED102F069FF0F4B0F4A1A6085
:103FD0005D609C60DC600E4B1B68503319780029D3
:103FE0000BD0FFF7ADFFFA21890005F005FB0100BA
:103FF000084805F001FB084BC118802040000AF07A
:10400000F3F870BD0548FCE7E49F06080001001CBA
:1040100060A2060860F590009808000006005200B3
:1040200070B5C40506000D00E40D20D100291ED096
:1040300002F034FF0F4B104A1A605C609E60DD6036
:104040000E4B1B684E33197800290BD0FFF778FF11
:10405000FA21890005F0D0FA0100094805F0CCFAF0
:10406000084BC118802040000AF0BEF870BD064819
:10407000FCE7C046E49F06080001000560A20608B0
:10408000C0EA2101482600000600520010B50729A9
:1040900000D901BE1F2314009C4300D001BE0E4B6B
:1040A0001B689C695B69001BC0090001C0181F23C5
:1040B0001A40032907D8C9008B408A4004689C43F2
:1040C0002243026010BD0439C9008B408A40446815
:1040D0009C4322434260F5E760A20608F0B5060063
:1040E00085B00D001400002800D1EAE0002A00D1BC
:1040F000E7E0072900D901BE2368012B00D901BEE2
:104100000F2362689A4300D001BE1F22237A934393
:1041100000D001BEE368032B00D901BE2369012B47
:1041200000D901BE6369012B00D901BEA369012B2F
:1041300000D901BEE369032B00D901BE236A012B1C
:1041400000D901BE636A012B00D901BEA36A012B0D
:1041500000D901BEE36A032B00D901BE236B072BF4
:1041600000D901BE2368072D00D901BE0121A94055
:104170000091012B03D901BE009BB36003E0002B2B
:10418000FAD1009B73606368072D00D901BE0F222E
:104190001900914300D001BE4B4FAA0002923A6829
:1041A000A800793212789219116801910F2181408B
:1041B0000198884301000F200340A80083400B436F
:1041C0001360227A29003000FFF760FFE368082DB2
:1041D00000D901BE032B00D901BE39686A007831CD
:1041E0000878301801680F00032191408F4339008F
:1041F00003273B409340194301602369082D00D9F0
:1042000001BE012B00D901BE012700983B40C043ED
:10421000AB40B16901400B43B3616369072D00D91D
:1042200001BE012B00D901BE274910320968019156
:104230007A31097871180F68BC4601273B40AB40C2
:10424000039363461840039B184308600321019BB6
:104250007B331878301803689C46A3693B40AB4019
:10426000E5690D40954091402B436546009A114306
:104270008D432B430360626A0221BA4004200A4046
:10428000A16A019B890001400A43216A02980F40FC
:1042900018211743E26A7C33D2000A401743226B8D
:1042A000E73152010A401743FE2292001040874036
:1042B00000201B78F61833688B431F43376005B026
:1042C000F0BD0248FBE7C04660A2060801005A00A4
:1042D000134B10B51A6893695169C31ADB091B01A6
:1042E0005B181400002179340160247824182160BF
:1042F00014007A3424782418216014007B34247844
:10430000241821601400783424787C322418216029
:1043100081611278101801601960596010BDC046A3
:1043200060A20608084B1B68B0331B68C3181B68E3
:10433000002B06DA0B0C00D001BE89B241600020D0
:1043400070470248FCE7C04660A2060801008A00E8
:104350000368002B07DAC2600B0C00D001BE89B2E3
:104360008160002070470148FCE7C04601008A00D8
:10437000002900D101BE074B1B68B0331B68C3186E
:104380001B68002B03DAC36800200B6070470248EB
:10439000FCE7C04660A2060801008A00024B1A68CA
:1043A000002A00D118607047F89F0608F0B5204E2B
:1043B000059D3468002C00D101BE2C241F006043F1
:1043C0003468FF2620181C0A37403440194E1B0C55
:1043D00083603368076044602E331B789F4200D3AC
:1043E00001BE34682300AC331B887B43276A2F341B
:1043F000DB19036124784368A34200D301BE34680B
:104400008033246A5B011B1984684361260C01D048
:1044100001BE01BE2404260C34439C600023C2610B
:10442000016283619D4201D02B888381F0BDC0462B
:10443000F89F060860A20608F0B5040085B00028C1
:1044400000D101BE6368032B00D901BEE36A002BD3
:1044500000D101BE236B002B00D101BEA36802ADC9
:104460002B80144B22681B68E16A9B8EE0689B18C6
:104470006B806368A26A039300952369266A676A62
:10448000FFF794FF00213B000A0000913000FFF786
:104490008DFF216B280002F035F90022AB5E002B66
:1044A00006DB1F2213401E3A9A401300024A136093
:1044B00005B0F0BD60A2060800E100E0F0B5002AFA
:1044C00000D101BE164C2568002D00D101BE256823
:1044D0002C2460436143281804696918002C1BD000
:1044E0008D69002D1AD12568002D17DA01263500B7
:1044F0003700406885404868874010683F0480B2B4
:1045000038431060E2604B628E612B0C00D001BE1C
:104510000020ADB2A560F0BD0248FCE70248FAE712
:10452000F89F060804028A0007028A00002373B578
:1045300004000193984200D101BE2369002B00D1F1
:1045400001BE6369002B00D101BE236A002B00D19C
:1045500001BE6269D5682B0C22D01B04136013685E
:104560001A4B20691B68B0331B68C3181B68002BEB
:1045700016DA01A9FFF7FCFE0026B0420CD1019823
:10458000E26903681E0CDBB29A4205D9226A9B00DD
:104590009B58002B00D0984731002069FFF7C2FEDE
:1045A000ADB2002D09D063691D6000251B68636AE8
:1045B000AB4205D098476562A56163691B6873BD0E
:1045C000A36A002BF8D09847F6E7C04660A2060819
:1045D000064A10B51368002B00D101BE2C234343BB
:1045E0001068C018FFF7A2FF10BDC046F89F06086C
:1045F000074A13682E331B78834200D801BE136824
:104600001A00AC3212881B6A5043C0187047C0466B
:1046100060A20608F8B5174B0D001B682E331B78F7
:10462000834225D9002923D01F240B681C401FD1A9
:10463000FFF7DEFF07002B680F4EDA08210030601D
:10464000686806F049FB21003800FFF76BFE210087
:104650002A003068FFF77CFE041E07D10100306895
:10466000FFF760FE03002000002B00D00348F8BDD8
:104670000348FCE760A20608FC9F060801018A00C7
:1046800003018A0010B50C00002A07D100290DD1C2
:10469000FFF7AEFF064B1860200010BD002905D0C3
:1046A00004490C604A60FFF7B5FFF6E70248F4E7FB
:1046B000FC9F06081400000803018A00F7B5184F94
:1046C00004003B680191DE683368834226D90025E7
:1046D000A94202D104F02DFF050038680368002BC1
:1046E0001ADA1F2201232240934064097268A40051
:1046F0001419226813420DD09A432260002400212D
:10470000FFF710FE019B002B02D1280004F015FFDB
:104710002000FEBD034CF2E7034CF3E7034CF7E740
:10472000FC9F0608020188000301880004018A003A
:104730000A4B1B68DB681A6882420DD959681F232F
:10474000420918401E3B8340920050581840431EB7
:104750009841034BC01870470248FCE7FC9F0608CD
:104760000001880004018A0037B503230024074DA7
:104770001A00280000940F2100F05AF92800009434
:1047800023002200702100F053F937BD801A014048
:10479000002307B5009303331A007F21014800F07E
:1047A00047F907BD801A0140F7B5214D01902D68EA
:1047B00008AC2C352D7824781F2D36D90C259B007C
:1047C0002B40093D2A401A436342634100251B01E7
:1047D0001A4300921F272A00490000291ED00026F4
:1047E000019B94001C1923680120014205D0380068
:1047F000B04083430098B040034308364908202E58
:10480000F2D12360002A03D126685E40BE4307D15F
:1048100024689C4207D10132042ADED12800FEBD63
:10482000044D0122D9E7034DF5E7034DF6E7C046F5
:1048300060A206080300C2000200C20030B5114D9C
:104840002B685B6CC340DB0700D401BE0F2900D985
:1048500001BEF0230A041B030F241A400B002D682D
:1048600023401A43830228691B188020C0011A5074
:1048700018582040401A411E8841034940420840D0
:1048800030BDC04660A206080300C20010B5002873
:1048900000D101BE4B89DB0B00D001BE02238A7917
:1048A0009A43012A00D001BECA799A43012A00D056
:1048B00001BE4A897F2314009C4322D107248B79AF
:1048C0005202234013434A7A313492071343CA7980
:1048D000097AD2002240134301224A409201134335
:1048E0001A0009490A409A420BD14262406A0840C4
:1048F000801A43425841054B40421840044BC018AF
:1049000010BD0448FCE7C046DBFEFFE0FDFF3DFFB5
:104910000300C2000100C20030B5002800D101BE72
:104920004B89DB0B00D001BE8B79072B00D901BE70
:10493000CB79072B00D901BE0B79073B182B00D987
:1049400001BE4C897F2322009A43131E2DD10725D7
:104950000A68FF339A434B7964021A438B792B40E0
:1049600023434C7A3135A4072343CC79E4002C400F
:10497000234301240D7A09796C40A4012343F824D0
:104980000906640521400B434360026001689142BF
:104990000DD14068074A1040C01A43425841064BA7
:1049A00040421840054BC01830BD0548FCE703489D
:1049B000FAE7C046FFFEFFFFFDFF3DFF0300C20018
:1049C0000100C200002800D101BE8023426A1B06FC
:1049D00013434362406A024BC00F013818407047CE
:1049E0000300C200002800D101BE802342681B06DC
:1049F000134343604068024BC00F013818407047B2
:104A00000300C20073B506AC2578002800D101BEB2
:104A100002241600A643012E00D001BE1E00A643AC
:104A2000012E00D001BE00953030FFF7BDFE76BDEF
:104A300013B504AC2478002800D101BE032A00D9A4
:104A400001BE032B00D901BE00941030FFF7ACFE6D
:104A500016BD036810B5020080241B0500D4403C3D
:104A600082239B00D3580020DB05DB0DA34203D03B
:104A700090239B00D150013010BD036880201B059E
:104A800000D4403870470000F0B5050085B00C0038
:104A90001600002800D147E1002900D144E10B783D
:104AA000022B00D901BE637B023B062B00D901BE5D
:104AB000A37B002B03D0023B012B00D901BEA31C1A
:104AC000DB7F012B00D901BE230028331B78012B8B
:104AD00000D901BE2378012B00D919E108236268AF
:104AE000083A93429B415B42002B00D001BEA36871
:104AF000053B042B00D901BE6369FF2B00D901BE21
:104B0000A369FF2B00D901BEA37C002B09D0237819
:104B1000002B05D1A368092B02D1A37B002B00D069
:104B200001BE824B626B1A4200D001BE804BE26B29
:104B30001A4200D001BE2378022B03D10022A37FAA
:104B4000934201D063685A1E237F0021581E83417F
:104B500018040823A768BB42494107331A40802341
:104B60009B0413430343C9020B432B602800276BAC
:104B7000FFF783FF874200D301BE2800A76BFFF732
:104B80007CFF874200D301BE2800676AFFF775FFEC
:104B9000874200D301BEC022217892040B06134045
:104BA0002B64607FE76A431E984183010093A37CD6
:104BB00007205A1E9341227C9B020193531E9A4167
:104BC0001302627C0293531E9A415302F022039314
:104BD0007B1E12031B041340627B013A0240134305
:104BE000A27B2930120102401A43009B1A43019B09
:104BF0001A43029B1A43039B1A43AA64207B431E59
:104C00009841E37B0002002B00D08AE002394B423E
:104C100059414B02A268511E0F2211400143C0208E
:104C2000194380002950FF21A36909041B040B408C
:104C30006169C9B20B43C42189006B502B581A40DB
:104C40000332974201D3102F00D901BE0021E37F28
:104C500022788B4203D0531E59424B411902072040
:104C60003027637B013A013B0340A07B00013840C1
:104C700003430B436B64237B0F20591E8B411902A6
:104C8000A368013B03400B4351424A4112041343C2
:104C90008022FF219200AB50236B05320B40FF3284
:104CA000AB50631CDB7F5F1EBB415F06A31CDB7F39
:104CB000013B584243411806230028331B78013B2F
:104CC0005A4253411A04636A0B403B430343134364
:104CD0002B65A36B626B194081239B00E950154B38
:104CE00030001340144AAB50E36B144A1340144A8B
:104CF000AB5000239E4209D01800124A7360B36083
:104D00003360F36033623363F362726305B0F0BD06
:104D10000023A27F9A4200D1E6E663685A1E06236A
:104D2000DFE680239B0075E70748EFE792F4FFFF7B
:104D30008CF8FFFF6D0B0000C80F00007307000028
:104D4000880F0000EFCDAB000160AA00114B0822D4
:104D50000360C0210F3B03640023FF32890083649A
:104D60004250043143500C3143501139FF394364F0
:104D70004250FD328350084A03658350074A8350EE
:104D8000074A8350074A8350074A8350074A835093
:104D90007047C0460F000003C80E0000880E0000D8
:104DA000C80F0000880F0000080F0000480F000027
:104DB00003685B005B080360002904D000234B609C
:104DC0000B600B62CB627047036810B50400002BC8
:104DD00007D0012001F0FEFC2368013B2360002B7B
:104DE00001D0002010BD0148FCE7C0460200B2001F
:104DF000030A08704B70030C000E8B70C87070476C
:104E000010B5002835D0002933D0002B31D05A629C
:104E1000F9220324D2008358A34383500B68DBB2EA
:104E2000012B00D901BE8B68DBB2032B00D901BE78
:104E30004B68072B00D901BECB68DBB2012B00D930
:104E400001BEC022E0248B6892011B0313404A6814
:104E5000E40212042240134301220C68224013434F
:104E6000CA688021120649040A40134303600020E7
:104E700010BD0148FCE7C0460400B2000300481E14
:104E800010B5C4B2012C04D904291ED0082920D0A1
:104E900001BE032A00D901BE072813D804F08EFBF7
:104EA000041312171212121B80210901581800282E
:104EB00008D0C0211204890203680A4007490B4048
:104EC0001A43026010BD8821EFE7032AE3D890213E
:104ED000EBE7032ADFD89821E7E7C046FFFFFCFF96
:104EE000F0B585B001930AAB070001CB151F009008
:104EF000EDB20CA804781B780E98FA2D00D801BEEC
:104F00001D1FEDB2FA2D00D801BE651E012D04D97A
:104F1000FB26251F354200D001BE2402A446F02402
:104F20000D9D2401EE07009D1204002D38D0019D37
:104F3000002D00D101BEFF2B00D101BE6546406AA5
:104F400025400390C02029432C0000258002024008
:104F50001143360C29430025C02228001B0492026D
:104F6000134039651C43009B9D4202D2134B98426B
:104F700001D105B0F0BD07227B6C1340032B0BD889
:104F8000019B00995B5D0135234332008D4200D2C5
:104F9000002213433B65EDB203A8FFF715FFE2E7DC
:104FA000654625402C00C025406AAD022A402143B9
:104FB000350C039011432E00CCE7C0460200B2002E
:104FC000F0B51D1FEDB2069CFA2D00D801BE144E9F
:104FD000551EB54200D901BE0727466C3E40032E40
:104FE0001BD8C0261B04B60233408026ADB2F602A1
:104FF00035432B4303650B1E0DD0059B216062607A
:10500000A260E361F9220223D200A3618158013B2F
:105010000B43835000231800F0BD024BFBE7C04652
:10502000FFFF00000100B20070B51D1FEDB2059C2E
:10503000FA2D00D801BE002A21D00726456C354044
:10504000032D1ED88025561EB6B22D033543C0262B
:105050001B04B60233402B4303650B1E0DD0049B8B
:10506000E160226162612362F9220423D200A3611C
:105070008158023B0B4383500023180070BD024B44
:10508000FBE7024BF9E7C0460400B2000100B200A2
:10509000F0B50600181FC0B28FB0FA2800D801BEC4
:1050A000002A00D1AAE00724706C2040032800D910
:1050B000A6E08020541EA4B200032043C0241B0499
:1050C000A402234003433365081E0ED0149B002026
:1050D0005B6A07910393042309920C900A930A9B3D
:1050E000042B02D1474B984201D10FB0F0BD099B70
:1050F000079C00933300C43301931D680F231D40A8
:10510000009B9D4200D91D00002D17D1009B0794E4
:105110000993002B0CD1F92202210320D200B358AD
:105120008B43B3500A900C9B002B01D00C9B9847EB
:10513000009B03A80993FFF747FED0E7082D0AD18B
:105140003700D83738682100FFF752FE3868211D34
:10515000FFF74EFE05E0012D09D13300D0331B6867
:105160002370009B64195B1B0093019BC5E7022D14
:1051700006D13300D4331B6823701B0A6370F0E739
:10518000032D0AD13300D4331B6823701B0A6370CC
:105190003300D0331B68A370E3E73700D837386893
:1051A0002100042DD4D0052D06D1FFF721FE3300B8
:1051B000D0331B682371D4E7062D08D1FFF718FE02
:1051C0003300D4331B6823711B0A6371C9E7072DB1
:1051D0000CD1FFF70DFE3300D4331B6823711B0A7B
:1051E00063713300D0331B68A371BAE7FFF700FE89
:1051F0003868211DFFF7FCFD0825B2E7024874E777
:10520000024872E70200B2000400B2000100B200DE
:1052100000290CD00722436C1340032B09D8C0236C
:10522000013989B21B031943016500207047024808
:10523000FCE70248FAE7C0460400B2000100B200F1
:105240008869704700230B604B608B600B61CB60FB
:105250004B618B61802302681B0613430360704718
:10526000F0B5046843691D20042C2AD11E3818604B
:10527000012600204C78E406240F350027008540E5
:105280002F40BD4206D001300528F6D1FF22002074
:105290001A71F0BD0428F9D00C7914704C790532DC
:1052A000D4718C79D474CC790918D4770A794000F8
:1052B0001A601D3000221A715A71EAE72328E5D0DE
:1052C00002300A5CFF2AF9D01A60F3E7F8B505004E
:1052D0000E0017000D4C39002800FFF7B1FF864281
:1052E00002D0013C002C0CD139002800FFF7A8FFA8
:1052F000301A43425841064B40421840054BC018F3
:10530000F8BD012001F066FAE5E7C046E9030000B8
:10531000FEFF4DFF0200B200F0B500270C0087B081
:105320000E9D060010000A79096804950397029300
:105330006379C9B201930323009303003000FFF7A0
:10534000CFFDB84216D121693000FFF761FFB842A6
:1053500010D1237D0C9A009001950D993000FFF734
:1053600063FEB84206D16C6A0A4BAA69032A01D0CF
:10537000984201D107B0F0BD00208442F5D0013041
:10538000013C01F027FA60426041024B4042184064
:10539000EAE7C0460200B200F7B500258C79C0B23A
:1053A0000134E40001942F0008248446085D8445FC
:1053B0000BD10E19F079FF2807D17078B84204D3C9
:1053C000B678012E01D107002500019808348442E7
:1053D000ECD9002D0BD0491908799070487950709C
:1053E000887910700020CA7892001A60FEBD0148CA
:1053F000FCE7C0468000B20030B58B6987B0DB683F
:105400000C001500002B0FD019681A7901230393A3
:105410002378C9B20293FF230193002304950093DC
:10542000FFF75EFD07B030BD0048FBE78000B2002B
:1054300070B5160000220400080086B00A9D039291
:1054400004951900037800920293FF232000019332
:105450001300FFF745FD002806D103000095012247
:1054600031002000FFF714FE06B070BD30B50F24E8
:10547000012385B08D696C442370AB6A002B0BD07F
:105480001B680092DBB22200FFF7D2FF002803D195
:105490002378AA6B134023702078431E9841C0B232
:1054A00005B030BDF0B51F008B6989B01C6A0500DE
:1054B000002C47D0002A47D0586A0E9EB04243D3F2
:1054C0004869C6B24869002800D10E782168207961
:1054D000C9B2079110990296049100210391617954
:1054E00001911B6807990093130002002800FFF741
:1054F000F7FC002824D1A1684B1C12D12169002996
:1055000004D02800FFF784FE002819D1109A237DCB
:1055100001920F9A3900009228000E9AFFF750FD71
:105520000EE0109B227B0493FF23039001930090D5
:105530000300C9B202962800FFF7D2FC0028DDD094
:1055400009B0F0BD0148FBE70148F9E78000B2006F
:105550000400B200F0B51F008B6989B09C6805009B
:10556000002C43D0002A43D04869C6B248690028BD
:1055700000D10E7821682079C9B20791109902965E
:10558000049100210391617901911B6807990093AF
:10559000130002002800FFF7A3FC002824D1A16813
:1055A0004B1C12D12169002904D02800FFF730FEDE
:1055B000002819D1109A237D01920F9A3900009288
:1055C00028000E9AFFF730FD0EE0109B227B04931B
:1055D000FF230390019300900300C9B202962800B4
:1055E000FFF77EFC0028DDD009B0F0BD0148FBE7E5
:1055F0000148F9E78000B2000400B200F0B58C4623
:10560000002800D101BE83695868904219D31D6DEE
:10561000002D03D00020DF6C874201D10A480DE045
:105620008300EC582668B24209D3E36861684B43B3
:105630009B199A4203D2634600201C60F0BD0130E2
:10564000EAE70248FAE7C0460600B2000400B200EA
:10565000F0B58BB006900D0014000793002900D11F
:1056600001BE002C31D000222300AE6909923168BE
:105670007769611899421FD109A92800FFF7BEFF79
:10568000002F20D03A79FF2A1DD0114B98421AD012
:10569000002816D1099B9968079B01920493012366
:1056A00003932B78C9B202933368069800932300C2
:1056B000FFF716FC0BB0F0BD18781202024301335D
:1056C000D8E73968E8E70348F4E70148F2E7C0465D
:1056D0000400B2008000B200F0B5D5B008900C0014
:1056E00009921E00002900D101BE002310AA1380D8
:1056F000937011AA1380937012AA13809370626B37
:1057000022AD06921A005A550133642BFBD13200A8
:1057100009990898FFF7B2FB069B002B03D16A4F4B
:10572000380055B0F0BD5A9B01950293382310AA5A
:1057300000930699099B0898FFF7EEFD071EEFD12D
:10574000AB79062BEBD82B78532BE8D16B78462B13
:10575000E5D1AB78442BE2D1EB78502BDFD12B791C
:10576000052BDCD96B790A93012BD8D1002513AB1B
:1057700011AA22A955481395FFF70EFE14AB12AAE1
:1057800022A953481495FFF707FE524B984201D1C6
:10579000E5642565FF2015AB10AA22A90002159526
:1057A000FFF7FAFD071EBBD1A368002B00D101BE95
:1057B000E368002B00D101BE2369002B00D101BE9C
:1057C0006369002B00D101BEE369002B00D101BE4B
:1057D000236A002B00D101BEA36A002B00D101BEB9
:1057E0005A9B22AD0293159B10AA00930699099B20
:1057F00001950898FFF790FD012207901000297F7E
:1058000016AB884017901000697F1970A97F8840F7
:10581000E97F1A901973692108A809181000C97F37
:1058200088406A211D9008A80918C97F19766B2144
:105830000918C97F23AB8A402092DA7F3D231B18C9
:10584000DA77AB7800225B079B0F032B01D0224A4B
:10585000D25C239B2260002B30DB0133DB0801226A
:10586000110063602CAB1B7804201B0999400623B0
:105870006162E1680B6000230B7121690B710860A4
:105880000521A263A26A1371E36A1160002B00D1A3
:1058900001BE236B002B00D101BE0022236B08A99F
:1058A0001A71A232521810784006400F05281BD8F2
:1058B000012203F083FE13DFE5EBDFDF8022033BF1
:1058C00012061343CBE7C0460500B20084FF000078
:1058D00081FF00008000B20094ED1D1001225242B1
:1058E000E2631A60E36A1A606022E3691F251A60A6
:1058F00000221A710F232B9A2C991A400132500062
:105900000A0E2A40013242434800BB4B800F400040
:10591000C05A0F23424362640A0A15400B404022DA
:10592000890400D4383A0220013301355B006B430F
:10593000534322AAA364A56893788643012E00D11D
:10594000ABE02021194000D1C1E0537A68712B608F
:1059500000232B71137A5B0900D0B4E0013BAB60EC
:105960001F2222AB1B7A052613402B6102232B75C5
:105970002368042B00D0EEE131AB1B785A0600D42B
:105980009E4F0120034229D09B0712D5E368002BCC
:105990000FD019681A795A9B03900493099BC9B2D6
:1059A0000293FF230193002308980093FFF798FACE
:1059B0000700924B9F4201D0002F20D15A9B00221A
:1059C000049301230393099B00920293FF23B721C1
:1059D000019308981300FFF783FA0700002F0ED1F8
:1059E0005A9B11AA02933BAB0193139B0699009318
:1059F0000898099BFFF790FC071E00D1A5E0012045
:105A000054AB1B18C93B1A78012393401B38A36180
:105A100043080B930F232B9E0020334001335B0080
:105A20000793FA239B009C4618AD3300C3401F2107
:105A30001A090A405B0A1C390B407D31022B06D043
:105A40006146032B03D01021012B00D00F39079B97
:105A500001325A434A4307302A600C351C28E4D1EE
:105A60000B9B1038584354AB18180538FF3883681F
:105A70002364D9E00221E1631A60E36A352232E748
:105A80004021E1631A60E36A05222CE78022E26389
:105A9000423A1A60E36A013225E71021194033D0F7
:105AA000D37B6E712B6000232B71937B5B0927D115
:105AB000013BAB601F2222AB9B7B032613402B6173
:105AC00001232B7554E7FF232873AB6048E7FF26BB
:105AD0005B0600D44CE7D37A29712B606971937A05
