:02000004101DCD
:1000000000C00E08ABAC1D100D00000009AD1D10A6
:1000100000000000000000000000000000000000E0
:1000200000000000000000000000000005AD1D10F1
:10003000000000000000000005AD1D1005AD1D1002
:1000400005AD1D1005AD1D1005AD1D1005AD1D1034
:1000500005AD1D1005AD1D1005AD1D1005AD1D1024
:1000600005AD1D1005AD1D1005AD1D1005AD1D1014
:1000700005AD1D1005AD1D1005AD1D1005AD1D1004
:1000800010B5064C2378002B07D1054B002B02D06E
:10009000044800E000BF0123237010BDC89501088B
:1000A00000000000CCCB1D10044B10B5002B03D07A
:1000B0000349044800E000BF10BDC0460000000036
:1000C000CC950108CCCB1D10F7B5684D2B6840339B
:1000D0001B78002B00D101BEE02201206449920070
:1000E0008B589B069B0F98402B68019040331B78E0
:1000F000002B00D101BE0F238A5813402A683E32DC
:100100001278934200D301BE2A683E32127893429D
:1001100000D301BE2A683E321278934200D301BE5A
:10012000534A9C00A418D02207209200A2580240F3
:10013000042A07D1C0229200A25818301040802211
:10014000520002438820400082425ED005D8002A37
:100150000DD0022A50D000260AE01220FF30824241
:1001600058D01420FF308242F5D1424A4EE0424E30
:10017000002B57D1B0248020E4000A594004970393
:10018000024094463D4A3E4D885804328A584D59A3
:100190000C59C004BF0BC00C1900002C04DA9100EC
:1001A000890F02394C1EA1416246531E9A41013209
:1001B00000291AD0002818D0002A16D000231900D0
:1001C0000AF0D4FF00230C0005003A0030001900AB
:1001D0000AF0CCFFE6076A083243630880185941E9
:1001E0002A0023000AF0A2FF0600019B580880198C
:1001F00019000BF0F1F8FEBDA620C0000A58002639
:10020000D2439207B4D00A58B2E71E4A8E58F60F6E
:10021000F603ADE704201C4A16690640A8D08026E4
:100220003602A5E72A683F3212789342DDD8013BB7
:10023000164D9A4213D97F271F226159080A0B0CC9
:100240000F4089001040890F1A40002364599C42D6
:1002500003DA02390B00591E8B411900A8E701BED1
:1002600000210A0008000F00EFE7C046E4950108EE
:10027000000026403C05000000127A0084050000C2
:100280008C0500000C05000000002740FC05000064
:10029000074B5B68DB681A68002A06D05B68186841
:1002A00001231840034BC01870470348FCE7C046C1
:1002B000E49501080001880004018A00437802786F
:1002C0001B021A438378C0781B04134300061843AB
:1002D000704730B5050001230F24FD350949FF356E
:1002E0005B42027801305A40130922409200525872
:1002F00053401A0923409B005B585340A842F0D159
:10030000D84330BD60B51D10104B30B51B681A00C6
:100310001800753214787630013A007812789968AE
:1003200077338240187803231D008540280010434E
:1003300080221206024301200340A340134380227F
:10034000D2008B5000208B5830BDC046E495010888
:10035000084B00201B681A00996801237532127837
:1003600093401A008023DB0513438022D2008B5078
:100370007047C046E4950108F7B500258C79C0B2F6
:100380000134E40001942F0008248446085D84456C
:100390000BD10E19F079FF2807D17078B84204D339
:1003A000B678012E01D10700250001980834844257
:1003B000ECD9002D0BD0491908799070487950700C
:1003C000887910700020CA7892001A60FEBD01483A
:1003D000FCE7C0468000B200074A136833331B783D
:1003E000834200D801BE13681A00BA3212881B6A11
:1003F0005043C0187047C046E495010870B504002A
:100400000020FFF7E9FF144B14491B68BC331A683E
:10041000002382180568002D06DB8B4202D1842060
:10042000404270BD0133F5E78B42F8D00123C46030
:10043000836000230A491068002803DA8B42EED05B
:100440000133F8E78B42EAD0A0222368120600208D
:100450009342E6D01800E4E7E4950108983A0000DA
:10046000009435771FB5084B002402936B4602A811
:10047000039301AB01940093FFF7C0FFA04200D0AB
:100480000194019804B010BD001B0035002803D072
:100490000378013B1F2B00D970470130F6E700229B
:1004A00010B504001000A15C0B00303B092B09D8EB
:1004B00030380818531C032A03D000011A00042BFB
:1004C000F1D110BD0B00413B052B01D83738F0E7C7
:1004D0000B00613B052B01D85738EAE70020F0E715
:1004E000F0B50B7885B0039017004D1C222B17D068
:1004F000116000202AE05C2A07D1019A5278002A74
:10050000F7D0019A013301320192019A013201922E
:10051000019A1278222A00D1A7E0002AEBD1E8E75D
:1005200001950023F4E72B785C2B11D02370013563
:100530000134019B9D42F6D30023039A23700833B4
:10054000D36013000198029A01301A6105B0F0BD22
:100550006B78662B63D014D82F2B61D007D8222B51
:100560005ED0484B3D605B6802989847C1E75C2BC2
:1005700056D0622BF5D1082323700134063BED18C9
:10058000D7E7722B50D006D86E2BEAD10A232370FE
:100590000134083BF3E7742B48D0752BE1D1019B64
:1005A0005B1B052BDDDDA81CFFF779FF364B374AB7
:1005B000C31806009342D4D90028D2D0344B334A12
:1005C000C318934234D8019AAB1DD31A052BC8DD4A
:1005D000AB795C2BC5D1EB79752BC2D128000830E3
:1005E000FFF75DFF284B294AC3189342B9D8294B1E
:1005F000B6021E4080238005800D5B020643F6187C
:100600000C23254A96421FD9244A9642A9D83F2056
:100610003040802676420643E670042212E00C2326
:10062000237001340223AAE70D23F9E70923F7E732
:100630007F2804D91A4B98420ED90623E1E70623F6
:1006400001222070A4189AE73F203040802676428D
:100650000643A6700322F5E73F20802306405B4255
:100660001E43667086330222ECE7019A501AC01AC4
:10067000044B04301B6898470290041E00D058E7D2
:1006800037E7C046809001080024FFFFFF03000009
:100690000028FFFF00FC0F00FFFF0000FFFF10001D
:1006A000FF070000F8B5802604007600002C00D17A
:1006B000F8BDE3682768334204D1A068002801D060
:1006C000FFF7F0FFE3680B4D334204D120690028A7
:1006D00001D06B6898478022E3689200134204D1EE
:1006E000206A002801D06B68984720006B68984703
:1006F0003C00DBE78090010870B50568040000202D
:10070000FFF76AFE002316490268002A05DB8B42C8
:1007100001D1FF2070BD0133F6E78B42F9D00122F1
:1007200023002A4000D023680E4C2468BC3424687F
:10073000C36001238360002305192D68002D03DAAF
:100740008B42E6D00133F7E78B42E2D0C068002A43
:1007500000D10068A0231B069842DBD10020D9E716
:10076000983A0000E4950108002210B5094B86B0C4
:100770000193039003AB040001A802930492059136
:10078000FFF7BAFF4342584140420440200006B000
:1007900010BDC04600220035034B1B68BC331B68EC
:1007A000C0180068C00F7047E4950108DC23F0B55D
:1007B000002487B09B05049304AE02AB73600290E3
:1007C0002000039401911700FFF706FE05002300A7
:1007D000144C2A68002A07DBA34203D101204042BF
:1007E00007B0F0BD0133F4E7A342F7D00123EE6078
:1007F0000026AB602800FFF7CFFF002803D0A642F9
:10080000ECD00136F6E7A642E8D0A023049A1B06F6
:100810009A4201D00498E3E7029B019A3B60039B54
:100820001360DDE7983A000070B5FFF74DFC002833
:1008300022D0124B1B681A00883212681B689B1862
:1008400019681C68090E0131240A0AF0C5FDE1B2DD
:1008500001310AF0C1FD451E094928000AF0BCFD1E
:10086000FA21084C01302072890028000AF0B4FDFA
:100870000130E060C003206170BDC046E49501080E
:1008800040420F0080900108174A30B513681C00E1
:100890002C3424781F2C16D8820807241500A54371
:1008A0002C1E0FD103342040A04081401B689200D1
:1008B00020339B180A00FF2181401C6862401140D0
:1008C0006140196030BD9B8F8B4200D101BE13681F
:1008D0001A680723184080231B06184380239B01B6
:1008E000C91889008850EDE7E4950108F8B5436818
:1008F00005000C00032B00D901BE0023E85E002890
:100900002CDB6988FFF7C0FF0020FF270326390092
:100910000023EA5E6D6893B21E40F600B140AD015F
:100920003D40C943B540002A1ADB134E93089B0093
:100930009B19C026B6009F5939400D439D510F4960
:100940000F4B8D689D4208D189688B4205D1002CE0
:1009500000D101BE103292009C50F8BD0948D4E786
:100960000F263340083B054E9B089B009B19DE6910
:1009700031400D43DD61E2E700E100E000ED00E021
:10098000009001080100560010B5FFF79DFB074BD2
:100990001B681A00883212681B689B181968090EB8
:1009A00001314B0818180AF017FD10BDE495010835
:1009B00010B5FFF7E9FF084B1B681A008832126870
:1009C0001B689B181968090AC9B201314B0818182D
:1009D0000AF002FD10BDC046E4950108F0B58C4652
:1009E000002800D101BE83695868904219D91D6D55
:1009F000002D03D00020DF6C874201D10A480DE0B2
:100A00008300EC582668B24209D3E36861684B431F
:100A10009B199A4203D2634600201C60F0BD01304E
:100A2000EAE70248FAE7C0460600B2000400B20056
:100A300000290CD00722436C1340032B09D8C02394
:100A4000013989B21B031943016500207047024830
:100A5000FCE70248FAE7C0460400B2000100B20019
:100A6000F7B50200C4324C690D00CB6801921168E1
:100A70000F220A40A24200D9220007000100D43709
:100A8000D8310097002A12D1EB606C61002C0CD198
:100A9000F9220221D20083588B4383500320A8619E
:100AA0002B6A002B01D02B6A98476C61F7BD082A8E
:100AB00019D10E68370A1E705F70370C360E9F70A2
:100AC000DE700E68370A1E715F71370C360E9F712B
:100AD000DE710F269B18A41A019A12683240A242B6
:100AE000D0D92200CEE7012A04D10600D0363668DC
:100AF0001E70EEE7022A05D1009E36681E70360A87
:100B00005E70E6E7032A09D1009E36681E70360A39
:100B10005E700600D03636689E70DAE7042A08D187
:100B20000E68370A1E705F70370C360E9F70DE70CD
:100B3000CFE7052A0CD10E68370A1E705F70370C9C
:100B4000360EDE7006009F70D03636681E71C0E724
:100B5000062A0DD10E68370A1E705F70370C360EEC
:100B6000DE70009E9F7036681E71360A5E71B0E7B7
:100B7000072A11D10E68370A1E705F70370C360EC7
:100B8000DE70009E9F7036681E71360A5E71060028
:100B9000D03636689E719CE70A68160A1A705E7035
:100BA000160C120E9E70DA700A68160A1A715E71BF
:100BB000160C120EDA719E7108228AE7F0B58B6866
:100BC00085B00193030008330D680393DC6F0F2396
:100BD0001C40073B1C1B019B00900F009C4200D94E
:100BE0001C00009B009E943398360293002C14D175
:100BF000019B3D60BB60002B0DD1F9220120009BC1
:100C0000D2009B58009983438B50B861FB69002B3D
:100C100001D0FB69984705B0F0BD082C16D128001B
:100C2000FFF74CFB3060281DFFF748FB3060019B4D
:100C30002D191B1B0193039BDC6F0F231C40073BEB
:100C40001C1B019B9C42D1D91C00CFE7012C04D175
:100C50002A78009B90331A60E9E7022C06D12A78A3
:100C60006B781B021343029A1360E0E7032C07D151
:100C70006B782A781B021343029A1360AA78E8E77C
:100C80002800FFF71BFB042CD0D03060052C01D1CD
:100C90002A79DEE7062C02D12A796B79E1E7072C65
:100CA00007D16B792A791B021343029A1360AA7940
:100CB000CFE7281DFFF702FB08243060B7E7F0B547
:100CC000490085B0019199000C230AAC19402478A1
:100CD000093B1A400A436142614100261F2709016E
:100CE0000A4303900292019D9900CD400F220024F7
:100CF0001540039A51180A680120054205D03800B2
:100D0000A04082430298A040024308346D08202C82
:100D1000F2D10A605C1E002B07D10B685A401F23DA
:100D20009A4309D1300005B0F0BD0B68934205D15C
:100D30002300621CD7D1F5E7014EF3E7004EF7E739
:100D40000300C20010B5002800D101BE4B89DB0BA7
:100D500000D001BE02238A799A43012A00D001BE45
:100D6000CA799A43012A00D001BE4A897F23140020
:100D70009C4322D107248B795202234013434A7AA1
:100D8000313492071343CA79097AD20022401343BF
:100D900001224A40920113431A0009490A409A422B
:100DA0000BD14262406A0840801A43425841054BC9
:100DB00040421840044BC01810BD0448FCE7C04630
:100DC000DBFEFFE0FDFF3DFF0300C2000100C200AB
:100DD000F8B51E4D1700EA680E00002A00D101BECA
:100DE0002C24FF2144431800EA68084014191A0A09
:100DF0000A401B0CA36020606260FFF7EDFA2B68CD
:100E00002061343361681B78994200D301BE0F4BD7
:100E10001B681A6A0B0080335B01D3186361A368F7
:100E2000180C01D001BE01BE49011B04521808492B
:100E3000180C0343521813600023A361069BE7615B
:100E40002662002B01D01B88A381F8BDE495010820
:100E50000810000070B504000D00FFF79DFC00288D
:100E600002D00020656070BD0048FCE701008A00E8
:100E7000F8B5264BDA68002A00D101BEDC68002CE8
:100E800000D101BE2369002B00D101BE6369002B94
:100E900000D101BE236A002B00D101BE6269D56872
:100EA0002B0C1ED01B04136020691368FFF774FC21
:100EB000002816D027693800FFF76EFC061E0CD0FC
:100EC000F868E26903681E0CDBB2934205D2226A1D
:100ED0009B009B58002B00D0984731002069FFF7FA
:100EE000B9FFADB2002D09D063691D6000251B68F4
:100EF000636AAB4205D098476562A56163691B6868
:100F0000F8BDA36A002BF8D09847F6E7E4950108EE
:100F100010B5072900D901BE1F2314009C4300D03F
:100F200001BE0E4B1B689C695B69001BC009000178
:100F3000C0181F231A40032907D8C9008B408A40D4
:100F400004689C432243026010BD0439C9008B40F1
:100F50008A4044689C4322434260F5E7E4950108D7
:100F6000F0B5060085B00D001400002800D1F2E0B5
:100F7000072900D901BE2368012B00D901BE0F2328
:100F800062689A4300D001BE1F22237A934300D0A7
:100F900001BEE368032B00D901BE2369012B00D9F0
:100FA00001BE6369012B00D901BE236A012B00D960
:100FB00001BE636A012B00D901BEA36A012B00D9CF
:100FC00001BEE36A032B00D901BE236B072B00D9B6
:100FD00001BEE369032B00D901BEA369012B00D92F
:100FE00001BE01231A00AA405C4F01926A000292DE
:100FF000103294463A68E1698332107880190268A9
:101000000292A2691340AB4003220393634611404E
:101010009940039B0B4361468A4001990A43029918
:1010200091430B4303606368072D00D901BE0F2273
:101030001900914300D001BE0F20AA0002923A6825
:101040000700813212780340B2181168A8008C465C
:10105000A9008F4061468340B9430B431360227A55
:1010600029003000FFF754FFE368082D00D901BEC6
:10107000032B00D901BE0320384A07001268034041
:10108000803212786800B218116883408C4669007B
:101090008F406146B9430B4313602369082D00D983
:1010A00001BE012B00D901BE0199B269CF430121D4
:1010B0000B40AB403A401343B3616269072D00D93E
:1010C00001BE012A00D901BE244B19680B008233EE
:1010D0001878843130180368029301231A40AA401B
:1010E0009C46029B1F401743022207600427636A45
:1010F00009785B001340A26A711892003A40674673
:101100001343226A08681740E26A3B43D70018225B
:101110003A40FF271A43236BB8435B013B4013431C
:10112000FE229C469200AB0013401A006346934097
:10113000184308602068072D00D901BE012804D992
:1011400001BE019B0020B36003E00028F9D1019BA0
:10115000736005B0F0BD0248FBE7C046E4950108A6
:1011600001005A0010B50020FFF736F9FFF714FB15
:10117000002844D1234A244913698B420FD010D848
:10118000402B36D005D8002B37D0102B2FD01F483E
:101190001FE0802B2FD0802149008B42F7D11A48C5
:1011A00017E01B498B421CD009D8A02109068B42AD
:1011B00023D01849A0208B42E9D1C00309E0164989
:1011C0008B4210D015498B420FD015498B42DED18E
:1011D0001448136801225B689A609A68002AFCD15F
:1011E00010BDA420E9E71048F3E71048F1E71048E4
:1011F000EFE71048EDE71048EBE70020E9E70D487E
:10120000EEE7C046E495010806005200FF005200D8
:10121000010000F0090000A0040000F0050000F04B
:10122000030000F0010052000200520003005200CF
:10123000010050000200500005005200024B8000E7
:101240001B6A5B68C0587047E4950108034A5369FC
:10125000591C01DA013B53617047C0468090010878
:1012600010B5144C63695A1C23D0002B1ED12000EA
:1012700011491830FFF73AFB1822A35E002B06DB5A
:101280001F2213401E3A9A4013000C4A136000229A
:101290000B4B5A629A62DA625A631A639A63DA6390
:1012A0008023084A1B0611680B43136063690133EE
:1012B000636110BD80900108C9121D1000E100E0BB
:1012C000E49501080000424070B501251B4C1C4B01
:1012D000E3582B4209D01B4920002431FFF76EFC54
:1012E000F823DB00E550E35870BD02252B4205D002
:1012F000144920002431FFF7B3FBF1E70422134225
:1013000006D005210F4BD963F823DB00E250EAE752
:101310000822134202D00B4B0621F4E710210B42A6
:1013200006D00722074BDA63F823DB00E150DAE747
:1013300020210B42D8D0034BF5E7C04600004240C5
:10134000CC070000E495010810B5002804D04378CC
:101350007F2B01D9FFF77AFF10BD10B50B4B40333F
:101360001A68002A02D10124644205E0147804338B
:101370008442F5D100240A600B68002B04D05B780E
:101380007F2B01D9FFF76CFF200010BD60B51D1049
:101390000223002803D00433012800D0F9331800B9
:1013A00070470123002803D00433012800D0FA330A
:1013B000180070479823F7B53B4C5B00E55C0600CE
:1013C0002800FFF7EEFFB0420ED1582068432318E3
:1013D0005B6A283000930419344B40331F68002F98
:1013E0001DD101204042FEBD2800FFF7D1FF8642FB
:1013F00006D15820684323181B6D54300093EAE748
:10140000032E04D1B4342368294C0093E4E701206F
:10141000072EE8D1C0342368264C0093DCE73A78E5
:1014200004339642DAD17B78BD687F2B02D18026C7
:10143000B6000AE05BB2002B20DA1F4B5A69002A83
:10144000F5D05B6A1B689B699E6970190138310091
:1014500009F0C2FFFA23DB00984200D976007B68CE
:10146000009F019300230093002D0AD1FA23009AD4
:10147000DB009A42B5D822602800B4E70025012697
:10148000E3E7310001980AF02DF8711AA94200D95A
:101490002900019B79603B605B180193009B6D1AEA
:1014A000013300930837DFE734DD060860B51D100F
:1014B000ECDD0608F8DD06088090010810B501296A
:1014C0000AD00323022905D0043B002902D1FFF7EB
:1014D00068FF0300180010BDFFF75AFFF9E7037813
:1014E0000422190000209143012905D00130022B6C
:1014F00002D0062B00D002387047037800205A1E15
:10150000012A05D90130052B02D0062B00D0023864
:1015100070470B7870B50400072B20D1204B1A00C0
:10152000C0321268C4331B68D318944235D39C422E
:1015300033D2F0231B4A1B06E318002093420DD937
:10154000194B9C4229D9C022184B52055B6A1B6873
:101550009B695B689B189C424041404270BD032BD5
:1015600005D10F4B1A00C8321268CC33DBE70800F4
:10157000FFF7C3FF002810DB602319004143084A2E
:1015800051188D6BC96BA54202D84919A142D0D818
:1015900058431018026C436CC6E70120DDE7C046D3
:1015A000ECD80208FFFF1C00FFFFFF178090010826
:1015B000F0B580258224802640272D01A400094B08
:1015C0001A68944661463200294200D13A001B59FC
:1015D000DB05DB0D9342F2D09023024A9B00D050F2
:1015E000F0BDC0460000654010B504002422002173
:1015F00009F0ADFB200010BD03000120042B05D035
:10160000052B04D101390800411E884170475B1A3F
:1016100058425841FAE7013800B505281BD809F0AF
:10162000BDFE1803061A0910A020400100BDA0202D
:101630008001FBE7094B30331B78012B0BD9F020DD
:10164000F6E7064B30331B78012B04D9A020C001EC
:10165000ECE70020EAE701204042E7E7809001083C
:1016600042790023012A06D10268012A03D10379B5
:10167000013B5842434118007047064B10B51B68A8
:1016800028209847041E03D02822002109F05FFB80
:10169000200010BD8090010870B5144B144E3360CB
:1016A000FFF7C2F88023134D03202B602B00083373
:1016B0006B60FEF791FE04002B687060DA08002171
:1016C000686809F044FB00212000FFF7C3FB236892
:1016D000002B05DA0021E5602000A160FFF7BAFBCE
:1016E000F368002B01D1044BF36070BD40B91D10AD
:1016F000E4950108000000080C990108F0B593B0CA
:1017000007000D000192022931D009AC2000FFF73B
:101710006BFF80239B000C93164B69000D93164BB7
:1017200006940993154B2C010393154B05AA4C33D2
:101730005B180593230001990C33CB1807931023F2
:1017400003A804920893FEF759FE061E0CD1182335
:1017500021005D43019B7F192C315918781C102200
:1017600009F0F7FB01233B70300013B0F0BD872672
:101770007642F9E70100C00400248000000900352A
:10178000E495010810B50400FFF74EF80D4B0E4A22
:101790001A6100225C619A61DA611B68543318781F
:1017A00090420BD0FFF704F9FA21890009F014FEEA
:1017B0000100064809F010FE054BC01809F0C0FEF4
:1017C00010BDC046E49501080001001C60F59000C2
:1017D0009808000010B5010004000B4809F0BFFA9A
:1017E000002398420DD02100084809F0B8FA0123DF
:1017F000002806D02100064809F0B1FA43424341CF
:101800005B00180010BDC046E0BB1D10E9BB1D10F9
:10181000F5BB1D1010B5010004000B4809F09FFA3C
:10182000002398420DD02100084809F098FA0123BE
:10183000002806D02100064809F091FA43424341AE
:101840005B00180010BDC046FABB1D1003BC1D1084
:101850000BBC1D10F0B507000D00002491B001AEC7
:10186000002D02D1280011B0F0BD296A002904D052
:10187000380009F074FA0028F4D0AB68002B06D0C9
:101880000E2C12D8A200955101341D00E8E72B68F8
:10189000002BFAD1002C0AD0013CA3009B591B68F5
:1018A000002BF2D1002CF7D1EFE70025DAE7250075
:1018B000D8E710B5FFF7CEFF0124002809D08168D2
:1018C000002906D00448FFF7C5FF002801D0C468EE
:1018D000E4B2200010BDC04613BC1D10F0B50026B8
:1018E00085B00093150003003400029003911F7827
:1018F0005A1C0192002F08D0039B002B0FDB130012
:10190000029A9B1A039A9A4209DA009BA34261D970
:10191000002D01D000232B55200005B0F0BD3B0069
:10192000093B042B34D9202F32D02C4839006030A9
:1019300009F0D2FB031E05D12D2F0AD05F2F49D10C
:10194000264B9F33032E23D8300009F027FD0510C6
:101950002335224B9E33F5E7002D06D0009A9442A2
:1019600038D21F4A9B1A9B002B55012610E0621C9F
:10197000002D0BD0009991422CD919492C195B1AD2
:101980002178181101431B012170AB541400022669
:10199000019BACE7621C002D0BD00099914219D934
:1019A0000F492C195B1A2178981001439B01217073
:1019B000AB5414000326EBE7002D08D0009AA24296
:1019C00008D907492A195B1A11780B43137001349F
:1019D0000026DDE7012464429EE7C04660B51D1085
:1019E000C0B51D10F8B50E002E21170009F074FBCC
:1019F000041E0CD0451C2E21280009F06DFB002888
:101A000005D0001B0138386000203560F8BD162075
:101A10004042FBE7F0B5040085B00F001600002936
:101A200001D1002013E004226F49380009F06AFB5D
:101A3000002803D10223E360381D08E005226B492A
:101A4000380009F05FFB002803D1E060781D05B085
:101A5000F0BD04226649380009F054FB002806D185
:101A600001230122E3600023A261E361E4E73B7804
:101A7000222B05D1320039002000FEF731FDE6E7C8
:101A80002D2B03D01A00303A092A24D800250A2227
:101A900003A93800039509F019FA03000398874257
:101AA000BFD05A1C0AD1534A914211D10122514B45
:101AB0005242A261E3610423E360C8E7002B07D12F
:101AC00080221206914203D1802300221B06F0E7F8
:101AD000A361E161EFE75B2B35D1781CFEF7D6FC03
:101AE000037805005D2B26D00023013D0193009370
:101AF000FFF7C3FD009B071E6FD0002B19D0019B81
:101B000018604360681CFEF7C1FC32000100380019
:101B1000FFF780FFFEF7BAFC051E06D00378019799
:101B20002C2BE5D05D2B08D030600098FEF7BAFD75
:101B300077E70090E6E7002300931023E360009B23
:101B4000681CA36083E77B2B4BD1781CFEF79EFCBF
:101B5000037807007D2B38D00023013F01930093C9
:101B6000FFF78BFD009B051E37D0002B17D0019B84
:101B700018604360781CFEF789FC320001002800E1
:101B8000FEF7AEFCFEF782FC0028CED02B692B625C
:101B900000232B6103783A2B03D03060C5E7009017
:101BA000E8E70130FEF772FC320001002800FFF781
:101BB00031FFFEF76BFC071EB7D0037801952C2B85
:101BC000CED07D2B03D03060AFE7002300932023DD
:101BD000E360009B781CA36039E7002B00D120E76D
:101BE000A3E737601DE7C0461BBC1D1020BC1D10BD
:101BF00026BC1D10FFFFFF7F70B50600FFF73DFDFF
:101C000000230B4D04002B6598420ED03000FEF7E8
:101C10003DFC2A00010050322000FFF7FBFE051EAC
:101C200003D12000FEF73EFD2C00200070BDC04611
:101C3000E495010870B504000D0086B0002114225F
:101C400001A809F084F829002000FFF703FE040032
:101C5000002C18D021001C48FFF7FCFD0028F7D00D
:101C60000569002D0AD0194E2900300009F077F8D7
:101C700000280BD1310001A809F03CFA210001A88D
:101C8000FFF7E8FD0400200006B070BD104E2900EB
:101C9000300009F064F80028ECD029000D4809F064
:101CA0005EF80028E6D00C4E2900300009F057F805
:101CB0000028DFD02900094809F051F80028DDD1BB
:101CC00021000748C1E7C0462BBC1D1030BC1D10C9
:101CD00037BC1D103EBC1D1046BC1D104EBC1D1057
:101CE00054BC1D10F0B5FA4CFA4BA544FA4C2360D5
:101CF000FA4B6360FFF780FF0390002800D115E3E3
:101D00000100F748FFF7A6FD0190002800D109E384
:101D1000F44E01003000FFF78DFF019905003000FF
:101D2000FFF7C7FD0600002D00D1DAE2AF690822F7
:101D30008897636B88A97B408AAD2EA8899309F0A8
:101D400008F908222EA9280009F003F9E64B2CA86F
:101D500006CD06C38C96636B082273408CA98EADAA
:101D60008D9309F0F6F82CA90822280009F0F1F863
:101D70009022DD4B92009B1806CD06C39097636BB3
:101D800008225F4090A992AD2AA8919709F0E1F846
:101D900008222AA9280009F0DCF8D34B28A86033D0
:101DA00006CD06C39496636B08225E4094A996AC58
:101DB000959609F0CEF8082228A9200009F0C9F864
:101DC000A122C94B92009B1806CC06C30023C74D25
:101DD000019928000293FFF72DFF019904002800C4
:101DE000FFF767FD002C00D17EE29221E3688900B5
:101DF0005A1E9341BC4ADBB2505411006831137231
:101E00000B70A3239B00D054B94D01992800FFF714
:101E100011FF019904002800FFF74BFD0490002CEE
:101E200000D165E2E468AC4E63425C41B14B644270
:101E30001C40B14B0822E4188094736B80A9634066
:101E400082AD26A8819309F084F8082226A92800EB
:101E500009F07FF8A44F24A83B00183306CD06C331
:101E6000049B049A8493736B84A9534086AD082223
:101E7000859309F06EF8082224A9280009F069F872
:101E800093239B00FB1806CD06C37894736B08223E
:101E90005C40799478A97AAC22A809F05AF8082213
:101EA00022A9200009F055F83B00783306CC06C380
:101EB000049B049A7C93736B7CA953407EAC0822EC
:101EC00020A87D9309F045F80822200020A909F0F8
:101ED00040F8A4239B00FF180CCC0CC7874D019938
:101EE0002800FFF7A7FE019904002800FFF7E1FC96
:101EF0000490002C00D1FFE1A469774E6894736BC5
:101F00000822634068A96AAD1EA8699309F021F808
:101F100008221EA9280009F01CF8734F1CA83B00DA
:101F2000243306CD06C3049B049A6C93736B6CA98F
:101F300053406EAD08226D9309F00BF808221CA9DE
:101F4000280009F006F895239B00FB1806CD06C370
:101F50007094736B08225C40719470A972AC1AA8DB
:101F600008F0F7FF08221AA9200008F0F2FF3B0052
:101F7000843306CC06C3049B049A7493736B74A9D0
:101F8000534076AC082218A8759308F0E2FF0822A7
:101F9000200018A908F0DDFFA6239B00FF180CCC39
:101FA0000CC7574D01992800FFF744FE0199040022
:101FB0002800FFF77EFC0490002C00D1A0E1A4696A
:101FC000454E5894736B0822634058A95AAD16A821
:101FD000599308F0BEFF082216A9280008F0B9FF9F
:101FE000414F14A83B002C3306CD06C3049B049A32
:101FF0005C93736B5CA953405EAD08225D9308F05F
:10200000A8FF082214A9280008F0A3FF97239B002B
:10201000FB1806CD06C36094736B08225C40619484
:1020200060A962AC12A808F094FF082212A920004F
:1020300008F08FFF3B008C3306CC06C3049B049A48
:102040006493736B64A9534066AC082210A865932F
:1020500008F07FFF0822200010A908F07AFFA823CB
:102060009B00FF180CCC0CC7264C01992000FFF7F1
:10207000E1FD019905902000FFF71BFC059B0490F2
:10208000002B00D140E100250824059B124F9B69DD
:1020900048A9019348937B6B019A4AAE534036A8F6
:1020A0002200499308F055FF36A92200300008F0BD
:1020B00050FF2B000C4A0933DB00D31806CE06C3B1
:1020C000049B049A4C937B6B4CA953401CE0C04684
:1020D0009CFDFFFF0DAF1D108090010821AF1D106A
:1020E000E0BB1D100BBD1D10ECD80208ABC41D10C9
:1020F0005ABC1D10ABAAAAFAAAAAAA1A62BC1D1041
:1021000071BC1D107BBC1D104EAE220034A84D9337
:1021100008F01FFF34A92200300008F01AFF2B003E
:10212000844A4D33DB00D31806CE06C3019B019AC7
:1021300050937B6B50A9534052AE220032A851936A
:1021400008F007FF32A92200300008F002FF2B0040
:10215000784A1533DB00D31806CE06C3049B049AD5
:1021600054937B6B54A9534056AE220030A855932C
:1021700008F0EFFE220030A9300008F0EAFE6B1DE7
:102180006C4ADB00D318A12292009B18013506CEC1
:1021900006C3032D00D078E703996748FFF75AFB81
:1021A000059B0400002B00D1BCE09921614B634AE0
:1021B000634E89005A5044315A5001003000FFF7F5
:1021C00039FD210005003000FFF773FB0690002D5C
:1021D00000D19DE0AB6904935A4E21003000FFF717
:1021E00029FD210005003000FFF763FB0790002D5B
:1021F00000D192E0AB690593002308240193049B6E
:10220000514F38937B6B049A38A953403AAD220062
:102210000EA8399308F09DFE0EA92200280008F0B0
:1022200098FE019B434A0D331B01D31806CD06C30C
:10223000059B059A3C937B6B3CA953403EAE220024
:102240000CA83D9308F085FE22000CA9300008F090
:1022500080FE019B0AA81D01364B5D192B00D83367
:1022600006CE06C3069B069A40937B6B40A953405B
:1022700042AE2200419308F06CFE22000AA9300011
:1022800008F067FEB6239B00ED180CCE0CC5079B2B
:10229000079A44937B6B44A9534046AD220008A89B
:1022A000459308F056FE220008A9280008F051FEC8
:1022B000019B204A2E331B01D31806CD06C3019B78
:1022C00001330193172B9AD1B2231A4A1B499B0061
:1022D000D1500398FEF7E6F9029899239B009D449C
:1022E000F0BD01235B4272E501235B4202938BE563
:1022F00001235B420293F1E501235B42029350E626
:1023000001235B420293AFE601235B42029343E762
:1023100001235B42049502935EE701235B4205952E
:10232000029369E701235B420293CDE705235B42F9
:102330000293D1E7ECD8020885BC1D100101010110
:102340008FBC1D1097BC1D108090010810B5034B69
:102350001B7A584308F098FC10BDC04680900108D5
:10236000F0B585B002930AAB070001CB0E9D01903A
:102370000CA80478101FC0B21B78FA2800D801BE40
:10238000181FC0B2FA2800D801BE601E012804D967
:10239000FB26201F304200D001BE2602F0240D98FB
:1023A0002401C003039001981204002840D0029831
:1023B000002800D101BEC0208002FF2B00D101BE49
:1023C00002400020344021436E6A0A430025024344
:1023D0003A65C02228001B04920213401C43019B53
:1023E0009D4202D2174B984201D105B0F0BD0722A1
:1023F0007B6C1340032B0BD8029B01995B5D01356D
:102400002343039A8D4200D2002213433B65EDB271
:1024100000208642E3D00130013EFFF797FF3000F5
:10242000431E9841084B40421840064BC018D6E75F
:10243000C02034408002024021436E6A0A43039860
:10244000C4E7C0460200B200FEFF4DFFF0B587B002
:1024500002930B6805000E0010000A79D9B22423FC
:102460009C462B4C0C9FA444634604930023039387
:10247000737901930323009303002800FFF770FF93
:10248000002832D131692800FEF7D2FA00282CD179
:10249000337D1A1FD2B2FA2A00D801BE002F33D0E2
:1024A00007216A6C0A40032A30D88022791E89B23B
:1024B00012030A43C0211B0489020B4013432B65FE
:1024C0000D9B00202363F9220423A763D2006064DC
:1024D000E363A958023B0B43AB50A56C67630D4BFC
:1024E000E26B032A01D0984201D107B0F0BD002071
:1024F0008542F5D00130013DFFF728FF6842684171
:10250000044B40421840EAE70348EEE70348ECE793
:10251000E49501080200B2000400B2000100B2001C
:1025200030B58B6987B0DB680C001500002B0FD02D
:1025300019681A79012303932378C9B20293FF2300
:102540000193002304950093FFF70AFF07B030BD05
:102550000048FBE78000B200F0B50500181FC0B2CC
:102560008BB0FA2800D801BE0724686C20400328ED
:1025700001D9174C19E0C0201B04800203408020C1
:10258000541E0003204303432B650C1E0DD0109BEB
:1025900000245E6A04230391059208940693069B27
:1025A000042B02D10B4FBC4202D120000BB0F0BD76
:1025B000002469462800FEF753FAA642EFD0012016
:1025C000013EFFF7C3FEA642E9D13C00E7E7C04663
:1025D0000100B2000200B200F0B5D5B008900C00C6
:1025E00009921E00002900D101BE0023190010AA83
:1025F0001380937011AA1380937012AA13809370A2
:10260000626B079222AA99540133642BFBD1099B78
:10261000581EC3B2012B08D9099B042B00D1CCE36F
:10262000082B01D100F0CFFB01BE032E00D901BE63
:10263000072818D808F0C6FE08001D001700C403BC
:10264000170017001700CB038022089B12019A186D
:10265000002A08D0C020330480021168034071486A
:1026600001400B431360079B002B05D16E4B069373
:1026700007E3089B8822E9E7382322AD0093019500
:10268000099B10AA07990898FFF7E0FE069000281A
:1026900000D0F6E2AB79062BE8D82B78532BE5D1A6
:1026A0006B78462BE2D1AB78442BDFD1EB78502B03
:1026B000DCD12B79052BD9D96B790B93012BD5D193
:1026C000139013AB11AA29005848FDF755FE069B3D
:1026D00012AA1493290014AB5548FDF74DFE554A34
:1026E000069B904201D1E3642365FF20159310AA55
:1026F00015AB22A90002FDF73FFE0690002800D08E
:10270000BFE2A368002B00D101BEE368002B00D11B
:1027100001BE2369002B00D101BE6369002B00D1EB
:1027200001BEE369002B00D101BE236A002B00D15A
:1027300001BEA36A002B00D101BE159B22AD009300
:1027400010AA099B079901950898FFF77FFE0122BF
:102750000A901000297F16AB884017901000697FFF
:102760001970A97F8840E97F1A901973692108A818
:1027700009181000C97F88406A211D9008A809180F
:10278000C97F19766B210918C97F23AB8A40209233
:10279000DA7F3D231B18DA77AB7800225B079B0FAB
:1027A000032B02D0244A1F32D25C226023A8FDF7FB
:1027B00085FD002830DB0130C008012211002CAB60
:1027C0001B7860601B09994006236162E168042060
:1027D0000B6000230B7121690B7108600521A26356
:1027E000A26A1371E36A1160002B00D101BE236B52
:1027F000002B00D101BE0022236B08A91A71A2325E
:10280000521810784006400F05281DD8012208F004
:10281000C5FD15E7EDF3E7E7802303381B061843F2
:10282000CBE7C046FFFFFCFF0500B20084FF0000BD
:1028300081FF00008000B200E0B51D10012252426D
:10284000E2631A60E36A1A606022E3691F271A6074
:1028500000221A710F232B9A2C991A400132500032
:102860000A0E3A4001324243BE4D4800800F4000FC
:102870002235405B0B40424362640A0A1740402203
:10288000890400D4383A022001335B0001377B43CE
:10289000534322AAA364A56893788643012E00D1EE
:1028A000B1E02021194000D1C7E0537A68712B6054
:1028B00000232B71137A5B0900D0BAE0013BAB60B7
:1028C0001F2222AB1B7A052613402B6102232B7596
:1028D0002368042B00D0EEE131AB1B785A0601D4FB
:1028E000A14A0692012003422DD09B0713D5E3682D
:1028F000002B10D019681A799C4B03902433049351
:10290000099BC9B20293FF23019300230898009307
:10291000FFF726FD0690069B1A00934B9A4201D0C2
:10292000002A21D1914B00222433049301230393E5
:10293000099B00920293FF23B7210193089813008B
:10294000FFF70EFD0690069B002B0DD13BAB0193CC
:10295000139B11AA00930799099B0898FFF776FD2E
:102960000690002800D1A6E0012054AB1B18C93BFB
:102970001A78012393401B38A36143080C930F235B
:102980002B9E0020334001335B000A93FA239B0007
:1029900080279C4618AD3300C3401F211A090A4006
:1029A0005B0A1C390B403900022B06D06146032B11
:1029B00003D01021012B00D00F390A9B01325A435A
:1029C0004A4307302A600C351C28E4D10C9B103890
:1029D000584354AB18180538FF3883682364DBE08C
:1029E0000221E1631A60E36A35222CE74021E163AA
:1029F0001A60E36A052226E78022E263423A1A60FF
:102A0000E36A01321FE71021194033D0D37B6E7186
:102A10002B6000232B71937B5B0927D1013BAB60BB
:102A20001F2222AB9B7B032613402B6101232B75B6
:102A30004EE7FF232873AB6042E7FF265B0600D416
:102A400046E7D37A29712B606971937A5B090AD1C1
:102A5000013BAB601F2222AB9B7A042613402B6103
:102A600002232B7534E7AE602973F3E7FF232E733F
:102A7000AB60D5E7334015D0537B29712B6069716A
:102A8000137B5B090AD1013BAB601F2222AB1B7B8E
:102A9000022613402B6101232B7519E7FF232973AD
:102AA000AB60F2E703222A60043A2B716B71AA60D3
:102AB0002B612B750CE7013E3B9B042E09D830009F
:102AC00008F06CFC1D19151103009B0601D5EC23C1
:102AD0002B60236A3B9A042E56D8300008F05EFC27
:102AE000DCDCDC311300DB06F3D56C23F0E71B07DD
:102AF000EFD5BC23ECE75B07EBD53C23E8E79B076E
:102B0000E7D50C23E4E7802501206D001540404205
:102B1000002D0AD03E2200211A603C3A19715A71E8
:102B200098601A7319611A752EE0802111401FD028
:102B300034221D711A605D7198601D731D61323AF7
:102B4000F1E78021012011404042002910D03422B9
:102B50001A60002298601A715A711A731A6102324F
:102B6000E1E7C046E0B51D108000B200E495010821
:102B700040252A4000D187E0122219711A6059714C
:102B8000986019731961197516AA3BA9200006F0FF
:102B90006FFA002800D0E8E6236D002B71D022AB3D
:102BA0000193149B12AA00930799099B0898FFF7B9
:102BB0004DFC0690002864D10700149B3B900C93B9
:102BC000844B07900A930221079A22ABD25C0A40F9
:102BD00000D184E00A9B002B4AD1692208AB6831FE
:102BE000C918D2180798079B105CCB5CB84200D07C
:102BF000C6E05A1CD2B2E264012A3FD90025226DF8
:102C00009B000992079A079F04329B180C93089522
:102C10006822089B04375B19089308AB9B18D95DA1
:102C20000F23194000230B9A0A4200D1B3E0682118
:102C300008AA5218D2590999150A0D92079A013516
:102C4000BA1A043A8E58089A2D0232600C22534365
:102C500016AAD3181A785968B2609A6832618D4200
:102C600000D3A2E00123F56073600C9B9F42CFD19B
:102C70000A9B1A00574B9A4200D09CE00023E36461
:102C80002365069855B0F0BD02211A7119605A717A
:102C900098601A731A6146E740210A404139002AB8
:102CA00006D012221A6000221A715A719960F0E758
:102CB00002201860F8E70222236A01211A6000222C
:102CC00049421A715A7199601A731A611A7522A9C8
:102CD00016AA200006F0CCF90A9B069359E707993B
:102CE0005B18D87859780D901F208C469B7808A9DE
:102CF000401802709B090320012B05D0181E03D039
:102D00000420022B00D020680022079D3BAB2E1828
:102D100090422ED10022304D099924350291009025
:102D200004950392019261460898FFF719FB0A90F7
:102D3000002814D11F2608ABF618009503000122C5
:102D400031000898FFF708FC0A90002807D17F009F
:102D5000FBB20D9A377817407A1E97411F43079BA5
:102D600008330793079A0C9B934200D32BE71B4B26
:102D70007DE4B51A22A94D19ED789D540132C7E7BB
:102D8000079802339B00C318079307980C9B834254
:102D900000D327E7EBE701335200DBB2D2B2052BB9
:102DA00000D041E70D4A0A9241E7F160280008F09F
:102DB00013FB706059E70A9B59E4032E00D936E4EF
:102DC000089B902242E4032E01D9FFF730FC089BB8
:102DD00098223BE40600B200E49501080700B20027
:102DE000F0B58DB009932D4B07900891150096080A
:102DF0009E424DD8002E00D101362C00B54200D99C
:102E00003400A54246D92D1B254B20009C4200D9F9
:102E10001800844240D9241A80B2FFF797FA002C98
:102E2000F2D11F2704ABFF1801233B70089B9B695D
:102E300006939B6A002B26D01968099B0394049380
:102E4000089BC9B21B7822000293FF2300940193D0
:102E500007982300FFF784FA00280ED1099B01226E
:102E60000093390023000798FFF776FB002804D170
:102E7000069B9A6B3B7813403B701F2304AA9B1858
:102E80001878002802D0002DB7D106480DB0F0BD4B
:102E90001E00B2E70025B7E70024BDE740420F005F
:102EA000FFFF00000200B20070B588B006ADE87008
:102EB000002029712880A870FEF7C0F9104C060088
:102EC0002434010022000F48FFF72AFB002815D107
:102ED00001230494039333780200029305230190A5
:102EE000009371212B000748FFF73AFA002805D11B
:102EF0002300054A31000348FFF772FF08B070BD98
:102F0000E49501080000424020A10700F0B500242C
:102F10008BB009AEF070200007913480B470FEF7DA
:102F20008DF9124F0394243704970378104D0293C0
:102F30000423019400932200330065212800FFF749
:102F40000FFAA0420DD107226B6C1340032B0AD855
:102F5000084B063A2B650799030000972800FFF7F6
:102F6000FBFA0BB0F0BD0448FBE7C046E49501084E
:102F70000000424007000C000100B20070B580253F
:102F800004002D02064BAC4204D8D868604307F019
:102F90007BFE70BD186907F077FE024BE418F1E77D
:102FA000809001080080FFFF0A23F0B591B00993DB
:102FB000D34C03212200D3482C32FDF7D1FF11223C
:102FC0000321D048FDF7A4FF220004216032CD4840
:102FD000FDF7C6FF11220421CA48FDF799FFCA4C2C
:102FE00005212200C7481432FDF7BAFF112205213E
:102FF000C448FDF78DFF220006214832C148FDF785
:10300000AFFF11220621BF48FDF782FF22000721F2
:103010007C32BC48FDF7A4FF11220721B948FDF717
:1030200077FFBA4D2B6840331B78022B12D9E2236D
:103030000F20B74A9B00D1588143D150D15821303D
:103040008143080020210143D1508021D058090636
:103050000143D150FA23F9220321AE4E9B00AB6409
:10306000D200B35800278B43B3508823AA4C5B028D
:1030700033606761FEF7F4F8230020332B62636A44
:103080000A93BB4210D1FEF7E1F80122A24B524253
:10309000A24C5A61FA204000FFF770FF099B013BE8
:1030A0000993002B84D183E1236A0B93002BEAD090
:1030B00007970897089B0A9A9B00D558002D00D1C6
:1030C000E8E02B785A1E012A04D9FB22043B134264
:1030D00000D001BE2B7A032B00D901BEAB69002BB7
:1030E00000D101BE2A78501E072800D975E108F0EA
:1030F00069F908000001740102017401740174018E
:103100000401874CC0272B7ABF021904206839407C
:10311000844F3840014304202160696808400BD087
:10312000A9697C48FFF758FA002805D00823089AB7
:103130009340079A1A430792AB691B68013B032B24
:1031400000D901BE002800D0A4E06B689B0700D422
:10315000A0E02969E86808F0C5F9002900D001BE9F
:103160002B69714A934202D95A1E134200D001BE04
:10317000FF218C466746E968A869B9438268036AFB
:10318000A16029694942B943E1600168032001391E
:1031900001406869471EB841000201432162002ACC
:1031A00035D010680021471C0AD0C0271179BF0212
:1031B0000904394067460740802000060743394329
:1031C000C02721645179BF020904906839406164C5
:1031D0000021471C09D0C027117BBF0209043940D8
:1031E0008027C0B23F06384301430020A164116923
:1031F000814205D01F30013901408020000608437C
:10320000C021E064127D890212040A402265002B6D
:1032100032D019680022481C09D0C0201A798002D7
:10322000120402408020C9B2000601430A43C020B4
:1032300022665A798002120499680240626600226E
:103240004F1C07D01A7BC9B212040240802000062E
:1032500001430A430021A2661A698A4205D01F3140
:10326000013A0A40802109061143C022E1661B7D14
:1032700092021B0413402367C02202212B7A920280
:103280001B0413406A68FF311140802212060A4372
:1032900013432360089B01330893089A0B9B9342C6
:1032A00000D007E7079B002B00D09AE00798FDF7B6
:1032B000C5FF164D9F212B0024330493079B0393D6
:1032C000037814480293079B019300931A00FFF7B9
:1032D00047F8041E00D088E00721726C0A40032AD8
:1032E0002CD9FDF7B3FF01220B4B52425A610F4C10
:1032F000D0E60F4C06E70F4C04E70F4C02E7C04640
:10330000E0B51D108005314060B61D10E495010840
:103310000000264000004240809001080400B200F6
:1033200000084240FFFFFCFFFFFF00000100B20069
:103330008008424000094240800942404F4B3365BB
:10334000736C0B40032BCCD84D4B0EAF336506236B
:103350002F636B63AB63079BF9226B640423D2007A
:10336000EB63B158023B0B43B350464EEB6B032B60
:1033700002D0013E002E0AD1EB6B032B0BD0FDF7E0
:1033800065FF0122404B52425A61404C82E60120C7
:10339000FEF7DCFFEAE73B78342B07D17B782A3B4A
:1033A000012B03D8BB78193B022B27D9FDF74EFF21
:1033B000200011B0F0BD8023032019432970FFF7CE
:1033C00073FD041E11D142E0194304202970FFF758
:1033D0006BFD002845D0040007E0079B002B00D1BF
:1033E00051E6B224079B24041C43FDF72FFF002C59
:1033F000DED00122244B52425A614BE6FB780F2B60
:10340000D4D13E79032ED1D17B79902BCED100201F
:10341000FDF714FF0123002224350495039303785C
:10342000B72102930192009213001948FEF798FF0A
:10343000041EDAD11F2506ABED1829003000FFF776
:1034400065FD041ED1D129784BB2002BB3DA2900D7
:103450000420FFF75BFD041EC7D108212B780B4227
:10346000B2D00020FDF7EAFE8022D8218369D20283
:103470009A615A691160074A1A64B6E73F000C0066
:1034800005000800E9030000809001080200B20076
:1034900000004240701700000FB4F0B58FB014AABE
:1034A00008CA01921878002871D05C1C252803D026
:1034B000FEF77EF82300F5E75A786C2A00D19C1CB1
:1034C0002378732B0CD1019B1A1D1D68019228785B
:1034D000002801D10134EDE7FEF76AF80135F6E77F
:1034E000642B01D0752B21D10025019B1A1D1F686B
:1034F00001920135AE0002AB3800043E0A219E194C
:1035000007F0F0FF380031600A2107F065FF071E61
:10351000EFD16A460821013D5218AB00D3581E4A2C
:10352000D05CFEF745F8002DF3D1D3E7632B07D12C
:10353000019B18681A1DC0B20192FEF739F8C9E75D
:10354000782B22D1019B02AE1A1D019200221B682A
:103550000F27551CA9001F40081F37501B090DD10C
:10356000E8070DD58B51951C013DAB00F3580A4A75
:10357000D05CFEF71DF8002DF6D1ABE72A00E7E797
:10358000012DF1D173600135EEE7002B92D10FB020
:10359000F0BC08BC04B018479CBC1D10FEE7FDE75A
:1035A000FCE7FBE7FAE7F9E7F8E7F7E7F6E7704744
:1035B000F0B5D5B006910100CD48FEF74BF90028D3
:1035C00001D100F001FC83680293039300231F00E4
:1035D00005930193039B002B00D098E0029BDB68CE
:1035E0000193202B00D0F0E3029C2100C148FEF79C
:1035F00031F9051E00D176E1037E069A9A4200D089
:1036000071E10100BC48FEF725F9BC4C002800D14F
:1036100063E18269BA4B3C925B6B3CA953403EAE7E
:10362000082220A83D9307F094FC082220A930002E
:1036300007F08FFC230006CE06C32900B148FEF731
:1036400009F91423002800D08369E3602900AE48FB
:10365000FEF700F90123002802D0C3685A1E9341E7
:1036600023742900A948FEF7F5F8002800D137E1B6
:103670008369260063610023353633702900A4482E
:10368000FEF7E8F8002807D00169A24807F067FBB9
:10369000002801D101233370230035331B78953482
:1036A0002370029E002F00D08FE331009148FEF777
:1036B000D1F8002800D141E18369904C1CADDFB204
:1036C00022002B0003CA03C3082229001EA807F00A
:1036D00040FC8B4B1E9A1F995B6B4B409A4201D06A
:1036E000FFF75CFF2B689F4200D027E131008A483A
:1036F000FEF7B0F8002800D119E260238269571E56
:103700007B43E41802233434227003931DE10399B0
:103710008248FEF79FF8002802D08668002E03D169
:10372000039B1B68039355E731007D48FEF792F831
:10373000002800D1AEE0002503697A4C04933034B0
:10374000AB001959049807F00AFB002800D13FE3A9
:103750000135042DF4D10024724F40370797079AA2
:10376000A3009958049807F0FAFA071E05D001340F
:10377000172CF4D10527183C7F4231006A48FEF728
:1037800069F8002801D08369059331006748FEF786
:1037900061F8002813D000218369C2690191019961
:1037A00001310191002A01D1AB4205D901996D0087
:1037B0001D29F4D11F230193631C05D16AE0631C0A
:1037C00068D0019B002B65D04C4B22019B18B62280
:1037D00046AD92009B182A0003CB03C208222900A1
:1037E00048A807F0B6FB464B489A49995B6B4B409B
:1037F0009A4201D0FFF7D2FE2B68012B18D1059B0E
:10380000059A4E933E4B4EA95B6B4CAD534044A87A
:1038100008224F9307F09DFB082244A9280007F0D7
:1038200098FB2200354B0D3212019B1806CD06C3C2
:103830002200324B2E3240AD12019B182A0003CBDE
:1038400003C20822290042A807F083FB2C4B429AAE
:1038500043995B6B4B409A4201D0FFF79FFE2B6868
:10386000012B17D1019B019A5293254B52A95B6BF7
:1038700050AD53404AA80822539307F06AFB082230
:1038800028004AA907F065FB1C4B24011C19D834F9
:103890000CCD0CC4366841E72549049807F05FFA5F
:1038A0000028F7D131002048FDF7D4FF002807D0C9
:1038B000124B204A9A5C012A02D18269C8331A60ED
:1038C00031001A48FDF7C6FF0028E3D00B4B1A4A17
:1038D0009A5C012ADED1CC339EE201277F42ACE61E
:1038E000FA231B01C5E62468002C00D07DE6D8E64B
:1038F000E0BB1D100BBD1D10B5BC1D10ECD802089F
:1039000080900108BCBC1D10C4BC1D10CFBC1D1094
:10391000DBBC1D10E8BC1D10EDBC1D1085BC1D10CE
:103920002BBC1D10E0B61D108FBC1D1097BC1D10C8
:10393000ADBC1D10CA020000CB0200003668002E8C
:1039400000D0B2E6012337000393002E00D0F2E04E
:103950003100CD48FDF77EFF0190002800D05CE1EA
:103960003100CA48FDF776FFC94C00280FD0442328
:1039700092227B439200E3189B181B78012B06D1FF
:10398000C2685F33511E8A417B43E3181A723100CB
:10399000C048FDF75FFF0190002839D044237B43E6
:1039A000E418932312AD9B00E4182B0014A806CC56
:1039B00006C30822290007F0CCFAB74C149A1599CF
:1039C000636B4B409A4201D0FFF7E8FD2B68012B57
:1039D0001ED1019B34A9DB6810A85A1E9341AF4A3F
:1039E0005B421340AE4A9B183493626B36AC534033
:1039F0000822359307F0ADFA082210A9200007F03D
:103A0000A8FA60227A43A24B9B18183306CC06C34F
:103A10003100A448FDF71EFF0190002833D0442355
:103A20007B439B4A0CACD318952292009B18220032
:103A300003CB03C2082221000EA807F08AFA964D94
:103A40000E9A0F996B6B4B409A4201D0FFF7A6FD7F
:103A50002368012B17D1019B30A99B6932AC3093AD
:103A60006A6B0AA853400822319307F072FA0822C1
:103A70000AA9200007F06DFA60237B43844AD3181B
:103A8000243306CC06C331008748FDF7E3FE002847
:103A900000D11BE1C368102B00D017E1002385681B
:103AA0000193002D00D111E14422019B7A4305339B
:103AB000DB009A18764B22AC9B18902292009B1840
:103AC000220003CB03C20822210024A807F041FAF8
:103AD000714B249A25995B6B4B409A4201D0FFF7BA
:103AE0005DFD2368012B1AD1AB696B4A2C93526B95
:103AF0002CA953402EAC082226A82D9307F029FAB2
:103B0000082226A9200007F024FA0C237B43019AFF
:103B10009B1809335E4ADB00D31806CC06C3019B11
:103B200001330193032B00D1D0E02D68B9E70123C5
:103B30000700039309E731005C48FDF78BFE00287E
:103B400000D105E78468002C00D101E72100584826
:103B5000FDF780FE00282FD005695649280007F0A0
:103B6000FEF800282AD121005348FDF773FE0028F3
:103B70000ED0442399217B43454A8900D3185B1812
:103B80001B78012B04D15F337B43D2188369936385
:103B900021004A48FDF75EFE00280DD044237B43F8
:103BA0003B4A4749D3185B181B78012B04D15F337C
:103BB0007B43D2188369D3632468C4E74149280052
:103BC00007F0CDF80028F7D121003B48FDF742FE71
:103BD00000280DD044237B432D4A3B49D3185B1862
:103BE0001B78012B04D15F337B43D21883691364A4
:103BF00021003248FDF72EFE0028DDD044237B4310
:103C0000234A3149D3185B181B78012BD4D15F3379
:103C10007B43D21883695364CEE744237B431C4A19
:103C200018ACD318972292009B18220003CB03C232
:103C3000082221001AA807F08CF9174D1A9A1B992F
:103C40006B6B4B409A4201D0FFF7A8FC2368012B15
:103C500000D085E6019B38A99B693AAC38936A6B22
:103C600016A853400822399307F073F9082216A9C1
:103C7000200007F06EF960237B43054AD3182C33EC
:103C800006CC06C36CE6C04671BC1D10ABC41D104B
:103C9000ECD802085ABC1D108090010855555505F6
:103CA0005555551562BC1D107BBC1D1085BC1D10E3
:103CB0002BBC1D10F9BC1D108FBC1D1097BC1D1016
:103CC00065020000FEBC1D10660200003100544871
:103CD000FDF7C0FD60237B43524CE318002866D0FB
:103CE00082695A7231005048FDF7B4FD60237B436E
:103CF000E31801330122002804D0C16982690A4314
:103D0000511E8A41DA77002F1CD131004748FDF758
:103D1000A1FD1423002800D08369E36631004448E4
:103D2000FDF798FD002844D0C3685A1E9341220035
:103D30007032137031003F48FDF78CFD00283CD0F5
:103D400083696367039B022B3ED1029B029EDB6863
:103D50000193202B29D131003748FDF77BFD002846
:103D60002ED08269D3B2022B2AD1571E60227A4309
:103D7000A41822003432137031003048FDF76AFD78
:103D8000002812D082692E4B28925B6B28A95340E1
:103D90002AAD082208A8299307F0DBF8082228009A
:103DA00008A907F0D6F80CCD0CC40123ADE4587275
:103DB00098E7230070331870BCE7FA231B01C0E7B3
:103DC0003668002EC7D1F0E70027380055B0F0BDA7
:103DD0001C49049806F0C3FF002800D05CE53100C0
:103DE0001948FDF737FD002808D0B2220D4B92008C
:103DF0009A5C012A02D18269C0331A6031001348EB
:103E0000FDF728FD002800D144E5064B104A9A5CD6
:103E1000C433012A00D03DE582691A603AE5C04604
:103E200006BD1D10ECD802080EBD1D10BCBC1D1037
:103E3000C4BC1D10CFBC1D10EDBC1D100BBD1D1052
:103E40008090010819BD1D108FBC1D1097BC1D105E
:103E5000C9020000F0B58BB001900D0016000C00F7
:103E6000002A01D0541E641806A90A002D4BD03335
:103E700081CB81C2082208A807F06BF82A4B089A68
:103E800009995B6B4B409A4201D0FFF787FB02AB6D
:103E90009C466246234B069FD83303CB03C20822BD
:103EA000614604A807F055F81F4B049A05995B6B0F
:103EB0004B409A4201D0FFF771FB0123029A013275
:103EC0009340DB19BD4225D39D429241A74203D8BE
:103ED000A34201D901225242BD4201D8A74216D3C2
:103EE0009D4201D2A34212D3002A10D10199280089
:103EF000FDF70FFB002806D1002E04D0701E4019DC
:103F00000199FDF706FB0BB0F0BD0022E6E70120AA
:103F10004042F8E7A742F8D80022A342DCD90122A8
:103F20005242DBE7ECD802088090010830B5154C0E
:103F30008BB006A923000A00383321CB21C2082206
:103F400008A807F006F8089A099B616B4B409A4253
:103F500001D0FFF723FB6D46069B04A9013B0493A8
:103F6000626B02A853400822059306F0F2FF082274
:103F700002A9280006F0EDFF38340CCD0CC40BB0BC
:103F800030BDC04680900108F0B5514B514D89B00D
:103F90000290059506A8403350CB50C00C0012018A
:103FA0008B180393A678E068A18822786378B446DA
:103FB000002800D101BE032A00D901BE032B00D97D
:103FC00001BE454E376830373F781F2F00D876E066
:103FD000674610300097FCF772FE0590059B002B9A
:103FE0005CD1E0680595A188002800D101BE336846
:103FF00030331B781F2B64D97F2359400023009353
:10400000013310301A00FCF75AFE0590059B002B77
:1040100044D16389E0689C460595A279E379277AC3
:10402000002800D101BE160002218E43012E00D0CF
:1040300001BE1E0002218E43012E00D001BE264E7D
:104040003668303636781F2E3DD961463030C9B2D9
:104050000097FCF734FE0590059B002B1ED1E0680D
:1040600005956189002800D101BE1B4B1B683033C8
:104070001B781F2B29D97F2359400023009301333C
:10408000C9B230301A00FCF71AFE0590059B002BD0
:1040900004D1039B1034A34200D083E7059B06ACF8
:1040A000002B04D122000A4B483303CB03C2FFF795
:1040B0003DFF029B06CC06C3029809B0F0BD07483D
:1040C0008BE70648A1E70548C5E70448DDE7C04699
:1040D000809001080300C200E49501080200C200BC
:1040E000F0B58BB003AD9446070028000C00624E7B
:1040F00062490093029640310CC90CC06346079395
:104100006B461B7807A90B716378A0684B71A37885
:104110008B71E378CB7123790B7263794B72E388EF
:1041200000964B81002800D101BE4B89DB0B00D0EB
:1041300001BE8B79072B00D901BECB79072B00D9A3
:1041400001BE0B79073B182B00D901BE4B897F229A
:104150001E009643321E00D087E0079EFF32964332
:1041600032004E795B02164301968A799446072203
:1041700066463240382613434A7A92071343CA7977
:10418000D200324013430A7A9446012266467240B6
:1041900092011A430B79F8211B0649050B40134382
:1041A000019A436002600268019991425FD14268BE
:1041B00033490A409B1A5A425341324A5B421340E8
:1041C0002D4A9B180293029B002B0DD1009A07A940
:1041D0000292227BA0688A71627BCA71E2894B726B
:1041E0004A81FCF7AFFD0290029B002B11D1009B8E
:1041F0000293A368002B00D101BE802259681206E9
:104200000A435A605B681F4ADB1713401A4A9B181F
:104210000293029B002B11D1009B0293A368002BF9
:1042200000D101BE8022596A12060A435A625B6AB3
:10423000144ADB171340104A9B180293029B002B71
:104240000BD102990D4B05AA002912D04033110061
:1042500011CB11C12B0003CA03C3FFF767FE3B005C
:10426000380006CD06C30BB0F0BD074BAAE7024BE2
:10427000A8E74833EBE7C0460300C200809001087E
:10428000FFFEFFFFFDFF3DFF0100C20073B56C465E
:1042900022000C4B0500403341CB41C20800FDF722
:1042A0002CF9012807D8602343430748C01823008E
:1042B000183006C806C3FFF739FE2B00280006CCCD
:1042C00006C376BD80900108ECD8020873B56C4631
:1042D00022000B4B0500403341CB41C2012907D8D6
:1042E00060234B430749C91823002C3105C905C376
:1042F000FFF71CFE2B00280006CC06C376BDC04687
:1043000080900108ECD8020870B58AB06B46009026
:10431000596006A90A0011CB11C2082208A806F0AC
:1043200018FE114D089A099B696B4B409A4201D0C7
:10433000FFF734F902A92B000A003833069C41CB61
:1043400041C2082204A806F004FE049A059B696B8A
:104350004B409A4201D0FFF721F9029BA34201D0C2
:10436000FFF71CF90AB070BD80900108F0B58DB060
:104370006D46194C2A0023003833070003CB03C2D3
:104380000822290008A806F0E4FD082208A90AA8C6
:1043900006F0DFFD0A9A0B9B616B4B409A4201D0FD
:1043A000FFF7FCF8089B06A901330693626B02AE87
:1043B000534004A808220793383406F0CAFD0822A7
:1043C00004A9300006F0C5FD0CCE0CC43B0038003B
:1043D00006CD06C30DB0F0BD80900108F0B5A5B0C4
:1043E00004AC04906160029203932AAB1B782B9A71
:1043F0000193644B02AF9A4200D0C1E0624B634D1F
:1044000012936A6B12A9534010A8082213930AAEA4
:1044100006F09FFD082210A906A806F09AFD3300B9
:1044200008A806CF06C3082206A906F092FD0822B6
:1044300031000CA806F08DFD0C9A0D9B696B4B406A
:104440009A4201D0FFF7AAF8082208A90EA806F0A0
:1044500080FD0E9A0F9B696B4B409A4201D0FFF78B
:104460009DF80A9A089B9A4209D17268099B9A4260
:1044700005D1474B1B68002B01DA04F0CBFD019BF3
:10448000002B0BD004F0E2FD04F0D2FDC022C023CB
:104490004049520088581B0603438B5020A90B004B
:1044A000220041CA41C3082222A806F052FD229AE6
:1044B00023996B6B4B409A4201D0FFF76FF8892329
:1044C0002099354A5B01D1501CA90B00220041CA3A
:1044D00041C308221EA806F03CFD1E9A1F996B6B73
:1044E0004B409A4201D0FFF759F81C9A2B4B18A960
:1044F0009A600B00220041CA41C308221AA806F0A4
:1045000028FD1A9A1B996B6B4B409A4201D0FFF71A
:1045100045F8189B14A91E680B0005CC05C308229A
:1045200016A806F016FD169A17996B6B4B409A4227
:1045300001D0FFF733F81A481A49149B091A5C682E
:10454000FCF712F9184D19492800491BFCF70CF922
:10455000174BDC661E6785F3088816481649091A4A
:10456000FCF702F986F3088814481549091AFCF784
:10457000FBF8FDF791F8002004F096FEA047FEE757
:10458000FEE7C046186EA9719B71CA27809001088A
:1045900000012640000026400000204000ED00E021
:1045A000809001086093010800E0000800E4000822
:1045B000E495010800B00E0800C00E08C895010877
:1045C00078DE0608F0B58DB002A90A00344B5433EA
:1045D00011CB11C2082204A806F0BBFC314E049A8C
:1045E000059B716B4B409A4201D0FEF7D7FF6A469C
:1045F000029B2D4CDBB2D370E3682C480193D71C8F
:10460000FEF74AFF2A482B4A0021121A06F09FFBA8
:1046100029482A4A0021121A06F099FB284D294AF6
:104620000021521B280006F092FB3B7806A9DBB262
:104630000693726B08A853400AAE0822079306F04F
:1046400088FC082208A9300006F083FC144B543380
:1046500006CE06C3019BE36085F308881A4D1B480C
:1046600000212A1A06F073FB85F30888012004F064
:104670001BFEFDF711F8E06804F0C0FD144B0100CB
:10468000984202D01348FEF707FF134804F07EFD5E
:10469000124B1B68002B01DA04F0BCFC06F058FF3B
:1046A000E495010880900108ECD802082ABD1D108D
:1046B0008090010860930108C895010878DE06081B
:1046C00000E0000800E4000800C00E0800B00E087A
:1046D0004BE6AC8572BD1D1000400016000126405F
:1046E00010B5002801D1FFF76DFF10BDF0B585684A
:1046F000060000200F0095B0954240410792FFF759
:10470000EFFFAF4280414042FFF7EAFF7468079B2A
:104710002D19D819A8428041E4194042FFF7E0FF63
:10472000079A21003000FFF795FB002803D00120F5
:10473000404215B0F0BD73787F2B17D1079B650AF7
:104740001F197F0A6D027F02BD4203D12800FDF7C9
:1047500019F8EEE701207F1B7F0A4042002FE8D0C6
:10476000013F78024019FDF70DF8F7E75BB2002B27
:10477000DDDA079B002BDAD0FCF760FD83690500CA
:104780009F69E8231B067F42E4183C400A940026F8
:10479000AB690A9A0C939B6911960993013B9B188C
:1047A00008930C9B12965B680693069A089B9342AB
:1047B00013D36C4CAB69079A9B699A4200D91A00D3
:1047C00007998A1A07920A9AD3180A93079B002B13
:1047D00000D1BAE0002CDAD0A9E70C9B0A9A1B6C36
:1047E00012A928000D93FCF7F9F8041E00D0B0E0E0
:1047F000129BDA681E685F68099B06929342D8D3C1
:104800005743731EFF180A9B0699981B06F06AFE11
:104810000029CED1089BBB420AD21A0012A9280057
:10482000FCF7DCF8041E2DD1129B1E68DB68069392
:10483000089B0699581C801B06F054FE0A9B0B939C
:104840000029B6D1099B002BB4D00B9A12A92800DD
:10485000FCF7C4F8089F041E0ED1129B1A695F680A
:104860000D92DA6806921A68069B013A5F43089B2C
:10487000D7199F4200D91F00FA230D9A9B0053437A
:104880000E933AE0374B984293D0D1E712021100D1
:104890001A5C013311430A004AE03279FF2A50D0F2
:1048A000304B98424DD000284DD1139B996801237D
:1048B0002D4E0393243604962B780192029323689D
:1048C000C9B20093294811ABFDF74AFD041EB9D1C6
:1048D00033000E9A29002548FEF782FA099B069AB2
:1048E0000400934200D865E794460B9B63440B9306
:1048F000099B9B1A09930028A4D10B9BBB42A1D210
:10490000194A290024321948FDF70AFE041E99D1DC
:104910000C9B0B9A1B6811A9013B5A54120A002BDD
:10492000FAD1AC691393226866690F921A0011A834
:104930000F999942AAD113A92800FCF74FF8002E2D
:10494000ABD10B4C7EE73168B1E7601E8441604219
:10495000EFE6044B984200D12BE7099B3700069302
:1049600051E7C0460400B200E4950108000042404F
:104970008000B200F0B5017885B004001E48FEF753
:104980008BFD002303A907200393FCF7E6FC012518
:1049900000282DD12678032E0FD09823174A5B00CC
:1049A000D75C3800FCF7FDFC01903800FCF7F0FC08
:1049B000019B9E4201D086421AD13000FCF72BFEAB
:1049C000A022010052010398FFF790FE0500684203
:1049D0006841FFF785FE2378032B06D0A16860228B
:1049E00060392000FFF782FE05000398FCF7ACFC5D
:1049F000280005B0F0BDC046B1BD1D1034DD06086D
:104A0000F0B546680500B14280410C001F009BB024
:104A100040420992FFF764FEE019B0428041341928
:104A20004042FFF75DFE3A0021002800FFF712FA2E
:104A3000061E00D0DDE068787F283ED1F8054342AD
:104A40005841FFF74DFEE00543425841FFF748FE4D
:104A5000780A400203190120250007934042079B72
:104A60009D4201D11BB0F0BDEF05FF0D23D1099B85
:104A70001E1B7619002E1ED0FBF7D6FE714B724A14
:104A80001A615F619D61DE611B68523318780028EE
:104A90000BD0FBF78DFFFA21890006F09DFC010089
:104AA0006A4806F099FC6A4BC01806F049FD80235D
:104AB0009B00ED18D3E76748F9E743B2002B00DB12
:104AC00097E07F231840FCF7B9FBE8231B06E318A7
:104AD000051E08930F9600D101BEAA69089B516874
:104AE000FB188B4200D984E0536A166A0A93554B2F
:104AF00024330C930A99089806F0F4FC0A9ACB190F
:104B000007979A4201D8531A07930C9A29005248E2
:104B1000FDF706FD00286CD1AB69089A18680FAB49
:104B20000400013CE254120A002CFAD132790D92B1
:104B300032680394D1B2434A243204920B922A7809
:104B4000029272790090019243480D9AFDF708FC99
:104B500000284ED1B1684B1C3BD13169002904D0EB
:104B60003D48FBF765FF002843D1337D1A1FD2B2C1
:104B7000FA2A41D9079A002A3BD007213648426CCD
:104B80000A40032A35D8C0221B0492021340802217
:104B9000D2021343079A013A92B213430365099B69
:104BA000002B2BD1274BAA692433926C29002A4869
:104BB000FEF716F900281CD1079A099B9446634416
:104BC0000993089BBF1A63440893002F92D13800C1
:104BD00048E70B9B327B049303942B78C9B2029372
:104BE000FF23009401931C482300FDF7B9FB002824
:104BF000B3D00120404235E701BEBBE7114B022292
:104C00009C6C099B1093079B129300231793169299
:104C1000169A022A13D1114A9342EAD010A90E48DB
:104C2000FBF7CCFF00239C42F2D00120013CFDF7B2
:104C30008DFB63426341094A5B421340E8E7002B66
:104C4000B0D0D6E7E495010800010005C0EA2101D3
:104C50004826000006005200000042400200B20058
:104C6000F0B546688FB00990B14280410D001C003C
:104C700040420792FFF734FD2819B0428041751970
:104C80004042FFF72DFD220029000998FFF7E2F8C6
:104C9000061E02D00124644209E0099B58787F284F
:104CA00008D122002900079806F053F934002000AB
:104CB0000FB0F0BD43B2002B6EDA7F231840FCF733
:104CC000BDFAE8231B06EB18071E08930D9600D1CA
:104CD00001BE079B002B00D101BEBA69089B516839
:104CE000E3188B4258D896683148002C02D100282E
:104CF000DDD051E0BB69089A18680DAB0500013D95
:104D0000EA54120A002DFAD132790B9232680395D7
:104D1000D1B2284A243204920A923A7802927279E5
:104D20000090019224480B9AFDF71AFB002833D11A
:104D3000B1684B1C20D13169002904D01E48FBF713
:104D400077FE002828D1802325005B029C4200D9F1
:104D50001D00184A337D2432009207992A00164814
:104D6000FDF7FAFB002817D1089B641B5B19089319
:104D7000079B5B190793B8E70A9B327B0493039563
:104D80003B78C9B20293FF23009501930A482B0098
:104D9000FDF7E6FA0028CED0099B5B78002B00D106
:104DA00078E7012105484942FEF776FB72E7C046E5
:104DB0000400B200E495010800004240D3BD1D107C
:104DC000F0B59827050087B0284C03917F00290093
:104DD000E05DFCF773FB04A9C0B2FCF7BEFA002843
:104DE00006D001260498FCF7AFFA300007B0F0BDFA
:104DF0002C226A43E35D029258225343029905AD87
:104E0000CB18E3181A89DB680498D31801932A0099
:104E100004230199FFF724FF061EE2D15822E35D27
:104E20005343029AD318E4182A88114B64899A4292
:104E300018D16B88A34201D00326D3E7019B2A0037
:104E4000191904980423FFF70BFF0028C9D1094B57
:104E50002A889A42F0D16B881C19019BE418039BA5
:104E60001C60BFE7002CF2D0E6E7C04634DD060840
:104E70000869000007690000F0B51E00036885B0EE
:104E8000040000910192002B02D04368002B1CD13A
:104E90000120404237E06A882189171DBC461B4F1C
:104EA000B94202D02D888D420DD1002E02D003A927
:104EB00009883180009904330B60019B1A802369B3
:104EC000634423611FE063442361226963699A425A
:104ED00018D223685B89002B04D0E368934201D188
:104EE0000433236103AD04232A0021696068FFF7BE
:104EF000B7FE0028CCD1A27A2369002ACBD0E26881
:104F00009A42C8D8012005B0F0BDC046FFFF00009E
:104F1000F0B587B002930CAB1B7804000D00009233
:104F20000393002A05D101235B420193019807B046
:104F3000F0BDCB680F8905AEFF183200042339009D
:104F40000098FFF78DFE01900028ECD1144A3188BB
:104F50006B89914221D171889942E4D1C919042306
:104F600032000098FFF77CFE0028DCD105AA0D4B2B
:104F700011889942D7D1009B256063606B461B89DD
:104F800023816B461B7BA3726B89DB19E36052881C
:104F9000D31863613B1D2361C8E7002BE6D0C2E74D
:104FA0000869000007690000F0B5864C864DA544ED
:104FB00005930FAF2B0016003A0003900691403383
:104FC00003CB03C211AC2B002200403303CB03C23E
:104FD0002DA8FFF7CBF92B002200403303CB03C2EF
:104FE000310008A8FFF752F9230008AA03CA03C337
:104FF0002D982E99FFF788F925AB1A0003CC03C230
:1050000023AC2A0021009C46403209CA09C129ABC1
:105010001900634605CB05C129992A9B6A6B534049
:10502000994201D0FEF7BAFA27AB1A0003CC03C2AB
:10503000279A289B696B4B409A4201D0FEF7AEFA43
:10504000259A239B9A4209D1269A249B9A4205D1FC
:105050005E48FEF721FA012464421FE23000FCF7AB
:105060003EFA041E00DA19E218234343039A04901F
:105070009B5C002B00D018E200933200323306997B
:1050800037A8FFF745FF031EE5D1122506AAAD1884
:105090002A000CA937A8FFF7EFFE002800D006E28F
:1050A0002B88902BD7D94CAA0C993000FFF7D8FD4C
:1050B0000028D0D12BA8FFF759F9434D3A002B0017
:1050C000403303CB03C22B002FAA403303CB03C2D0
:1050D0003000FCF712FA012807D8602343433C480C
:1050E000C01824302FAB06C806C3FEF71FFF3A00D6
:1050F0002FAB03CB03C22B982C99FFF705F91FABFD
:105100001A00390041C941C221AA110041CB41C155
:105110002199229B6A6B5340994201D0FEF73EFAD7
:105120001F9B1BAB1A00390041C941C21DAA1100C7
:1051300041CB41C11D991E9B6A6B5340994201D0DE
:10514000FEF72CFA1B9B002B00DC84E717AB1A0040
:10515000390041C941C219AA110041CB41C1199975
:105160001A9B6A6B5340994201D0FEF717FA179EBB
:10517000FBF778F9864200DD6DE713AB1A0003CF29
:1051800003C215AA110041CB41C11599169B6A6B48
:105190005340994201D0FEF701FA12230D4906AAA5
:1051A0009B183C31102233A843AE1D88139F05F095
:1051B000D0FE3000FCF718FA50230D93012C0BDDC4
:1051C000872449E7A4FDFFFF80900108FABD1D1068
:1051D000ECD8020860B71D10912DF1D1B54B71AD1F
:1051E00071973DA80BAF3D933E956F60FBF706F9B5
:1051F000041E00D052E13B88AF4A3DA83D923E9547
:10520000719303966E60FBF7F9F8041E00D045E138
:105210008C2206AB52009B181B78042BD0D1CF22D6
:10522000039B12021B8813408222D2019342C7D1F2
:10523000039B0E905B880EAE0693A04B3DA83D935A
:105240009F4B3E952E606B60FBF7D8F8041E00D094
:1052500024E18A229B4BFF323D939B4B3DA86B6020
:1052600006ABD21820233E952E60AA60EB60FBF7B8
:10527000C5F8041E00D011E1924B3DA83D93934B1D
:105280003E956B6033ABAB6010232E60EB60FBF799
:10529000B5F8041E00D001E18D4A3B883D92022200
:1052A000AB604CABEB60069BFF320733DB085B0067
:1052B00001333DA83E952E606A602B61FBF79EF896
:1052C000041E00D0EAE0834B3DAF319371AB7B60AD
:1052D0000D9B31A832973D96BB60FBF78FF8041EFB
:1052E00000D0DBE043AE0E903000FCF77DF9802368
:1052F0001B014693784B06AA479388235B013380B2
:10530000764B31A8319316239B183D93039B32971C
:105310007B6075ABBB602023FB60FBF76FF8041E5E
:1053200000D0BBE006ABDB8A6D4A7B606A4B0EADFA
:1053300031A8319232973D60BB60FBF75FF8041EE5
:1053400000D0ABE0674B06AA31937A23FF339B185A
:105350007B60102331A832973D60BB60FBF74EF8AD
:10536000041E00D09AE05A225F4BFF32319306AB05
:10537000D2187A60202231A832973D60BA60FBF7DC
:105380003DF8041E00D089E006AAD38A574D31A803
:10539000319532973B60FBF731F80795041E00D03A
:1053A0007CE03000FCF720F9514D80232E00514A5B
:1053B0009B004792494A46933192049A4E4B5200C1
:1053C0004C364393B3183B6010230692039A31A8DE
:1053D0007A6071AA3297BA60FB60FBF70FF8041E7F
:1053E0005CD1069B454A9B5B74357B60414B31A881
:1053F000319232973D60BB60FBF700F8041E4DD13F
:1054000010223F4B31A831937DAB32973D607B60DA
:10541000BA60FAF7F3FF041E40D1049B06AA1E01EE
:10542000384B059931937A23FF339B187B60330007
:1054300010220C33CB18FB6031A80DAB7B61329787
:105440003D60BA603A61FAF7D9FF0D9B0400102B5A
:1054500029D1002822D12C4B3E9031933F900DABA7
:105460003DAF31A832973D954093FAF7C7FF041E30
:1054700014D11F4A049B4C325B009B5A079A31A8F7
:1054800031923D933297FAF7B9FF04003000059B43
:105490002C301818102281A905F05BFD20009723FD
:1054A0009B009D44F0BD8424D6E50124F6E704006A
:1054B000F4E7C0460016003500020035001D003537
:1054C0000901203000040035020200000302000040
:1054D000000600350007003509008002000900358C
:1054E000001E0035001F003500200035000A003581
:1054F000E49501080100C00400248000000B003581
:10550000000C0035000D0035000E0035F0B5314CB3
:105510009BB00393230002901600403306AA0F00AD
:1055200003CB03C200230C930593636B08220CA9E1
:1055300008AD0AA80D9305F00CFD08220AA9280061
:1055400005F007FD039B06CD06C3002E39D07B89ED
:10555000002B36D001233200009339004F3314A8BA
:10556000FFF7D6FC031E2CD110AD2A0012A914A8F7
:10557000FFF782FC002824D12B88042B21D105AA17
:1055800012993000FFF76CFB00281AD1059A14A974
:105590001492636B12A853400822159305F0D9FCAE
:1055A000082212A9280005F0D4FC039B483406CD3C
:1055B00006C30EA90B0005CC05C3082206A805F0FA
:1055C000C8FCFEF7B3FC029A06AB03CB03C20298F9
:1055D0001BB0F0BD809001080023F0B5794DAFB04D
:1055E000049306AC2B00220001910090403303CBC2
:1055F00003C2082005F08AFC07000098FBF7D1FEE3
:1056000004A9FBF7AAFE0126002846D110A8FEF740
:10561000ADFE2B002200403303CB03C202AE019942
:1056200030003B00049AFFF771FF2300320003CAE9
:1056300003C310981199FEF767FE082221000AA8FB
:1056400005F087FC08AC2B002200483303CB03C2D3
:1056500008220AA90EA805F07CFC0E9A0F9B696B24
:105660004B409A4201D0FDF799FF082221000CA877
:1056700005F06FFC53490C9A0D9B496B4B409A42C5
:1056800001D0FDF78BFF0A9A089B9A420ED00B9A25
:10569000099B9A420AD001267642380005F040FC68
:1056A0000498FBF751FE30002FB0F0BD39000822FE
:1056B00012A805F04EFC14AC2B002200403303CBA3
:1056C00003C22AA8FEF752FE2B002200403303CB70
:1056D00003C230000099FEF7F9FD230006CE06C391
:1056E0002A982B99FEF710FE0822210026A805F023
:1056F00030FC082226A928A805F02BFC289A299B13
:10570000696B4B409A4201D0FDF748FF269B102B56
:10571000C1D80822210022A805F01BFC082222A9DA
:1057200024A805F016FC274D249A259B696B4B4055
:105730009A4201D0FDF732FF082212A91EA8229B2F
:1057400005F007FC08221EA920A805F002FC209AFB
:1057500021996B6B4B409A4201D0FDF71FFF082245
:1057600021001AA81E9B05F0F4FB08221AA91CA808
:1057700005F0EFFB1C9A1D9B696B4B409A4201D0D0
:10578000FDF70CFF082212A916A81A9C05F0E1FBF0
:10579000082216A918A805F0DCFB189A19996B6B5A
:1057A0004B409A4201D0FDF7F9FE074A169B2404AC
:1057B000A4182CA805AA2C942D920593FAF79CFF07
:1057C00006006AE78090010800010036F0B51F006E
:1057D0000B788BB005001600032B06D00800FBF7F2
:1057E0007EFE041E02DAFEF7EDFE01241823634359
:1057F000ED1828786400013843425841FEF770FFE5
:10580000330F6B73330DAB73330B36092E741F4E8E
:10581000EB7333004C33E35A04AC1D4A63601D4BF9
:10582000743602A8029203940496A360FAF7E6FD88
:10583000002829D1184B01350293102302A80394A4
:1058400004966560A360FAF7D9FD00281CD1134BBC
:1058500001AD0293109B02A86360E360039426608D
:10586000A76027616561FAF7C9FD019B9F420BD1D3
:10587000002809D10A4B6060A06002A8029303943B
:105880002660E560FAF7BAFD0BB0F0BDE4950108BB
:10589000000B00350100C004000C0035000D003580
:1058A000000E0035F0B5CB4C1F00A544CA4C079044
:1058B000230008910592403310AA03CB03C22300B2
:1058C000002512AA403303CB03C2B495636B0822B0
:1058D000B4A98AA8B59305F03CFB08228AA914A8AC
:1058E00005F037FBB695636B0822B6A988A8B79375
:1058F00005F02FFB082288A916A805F02AFB08202E
:1059000005F004FB0490A84200D189E0172308AAFF
:105910009B183A691D7018AB520700D4BCE048349C
:1059200006CC06C3A22308AADB009B181868FBF765
:10593000D6FD002874DB00D111E2A22308AADB0007
:105940009B181868FBF7D9FD002869DB60234343E7
:10595000A248C018037A002B62D09EA8FEF706FD6D
:105960009D4E12AC33002200403303CB03C2A2236E
:1059700008AADB009B180AAD19682800FEF786FC10
:10598000230006CD06C39E989F99FEF7BDFC082212
:10599000210082A805F0DDFA082218A980A805F0E8
:1059A000D8FA082282A986A805F0D3FA869A879B9E
:1059B000716B4B409A4201D0FDF7F0FD082280A99F
:1059C00084A805F0C6FA8449849A859B496B4B40AC
:1059D0009A4201D0FDF7E2FD829A809B9A425DD007
:1059E000839A819B9A4259D0FFA821000822FFACDC
:1059F000243005F0AEFA5C34FFA9082224312000DF
:105A000005F0A7FAFFAB74495C331A686368496B09
:105A10004B409A4201D0FDF7C1FDFFAB24331B6818
:105A2000049805F07DFA172308AA14AC9B182100EE
:105A300008221EA81E7805F08CFA08221EA920A8AC
:105A400005F087FA644D209A219B696B4B409A427E
:105A500001D0FDF7A3FD1E9A31006148FDF71CFD42
:105A6000082221001AA805F074FA08221AA91CA815
:105A700005F06FFA1C9A1D9B696B4B409A4201D04E
:105A8000FDF78CFD1A9BFEF751FA079B06CC06C367
:105A90000798544B9D44F0BD403441E70023FFAAD2
:105AA0000C3205981360FBF773FCA22308AADB00F5
:105AB0009B181B6809901B78834211D13B695B07D7
:105AC0000ED5A22308AADB009B181868FBF707FD78
:105AD0000028A5DB18235843089BC35C002B9FD0EC
