:020000041006E4
:1000000000C002085B8706100D000000B9870610CB
:1000100000000000000000000000000000000000E0
:10002000000000000000000000000000B58706107E
:100030000000000000000000B5870610B58706101C
:10004000B5870610B5870610B5870610B587061068
:10005000B5870610B5870610B5870610B587061058
:10006000B5870610B5870610B5870610B587061048
:10007000B5870610B5870610B5870610B587061038
:1000800010B5064C2378002B07D1054B002B02D06E
:10009000044800E000BF0123237010BD94980008BD
:1000A000000000004CED0610044B10B5002B03D0EF
:1000B0000349044800E000BF10BDC0460000000036
:1000C000989800084CED061003000120042B05D081
:1000D000052B04D101390800411E884170475B1A85
:1000E00058425841FAE7000070B50C00816886B0AC
:1000F0001023103902AA050002F034F90123002868
:100100000FDB984210D1023323706B46A968DE1DC5
:10011000283901233200280002F024F900280DDAE2
:100120000123180006B070BD10221E4902A808F075
:10013000B3FE431E984101302070E6E70F2332786A
:100140001340120963702271012801D0042B03D9D6
:100150000123637000232371A968A21C20390123A5
:10016000280002F0FFF80028DADB0323012804D07E
:10017000A378013B5A1E93410133A370A968E21C86
:1001800018390123280002F0EDF80028C8DB03230A
:10019000012804D0E378013B5A1E93410133E370F8
:1001A0000023BEE7D8D4061037B50D00C0B201A9B0
:1001B00001F08AFF0124002807D129000198FFF7E8
:1001C00093FF0400019801F097FF20003EBD00005E
:1001D000F0B5040089B00120002C03D00430012CBC
:1001E00000D0FA3004A9FFF7DFFF002802D0FF207B
:1001F00009B0F0BD0220002C03D00430012C00D047
:10020000F93006AD2900FFF7CFFF0028EFD1040039
:1002100004AB1B78244E00932B78019304ABDB785E
:100220000293EB78039304AB9F78A05D0099351996
:10023000FFF74AFF00282CD068780199FFF744FFA8
:10024000002826D0AB78042B02D0029A934220D10A
:10025000EB78042B02D0039A93421AD12B79042B0A
:1002600015D1124B124A1B68D8686B79022B06D045
:10027000104A032B03D0104A042B00D00F4A104918
:1002800008F07CFD6879831E022BB1D9AFE7BB4231
:10029000E7D00634122CC8D1044B0A481B68D96831
:1002A00008F0C6FD0120A3E7E8D40610109200086C
:1002B000FFD40610FAD4061016D5061004D5061081
:1002C0001DD5061033D50610F7B5A52758231600FF
:1002D0000191FF00C25D00215A43330082180400DF
:1002E00001F056FC051E0FD15823E25D01215A434F
:1002F0002C32A2183300200001F04AFC002803D061
:10030000019B002B00D005002800FEBD73B50E0038
:1003100000210500009101F0F3FF6946C0B201F031
:10032000D3FE012400280BD101AA0099300001F06E
:1003300043FA041E04D10199280001F01CFC0400BA
:10034000009801F0D9FE200076BD37B5C02292009A
:100350000192A522D200825C0D0003000121002A37
:1003600003D0FE31012A00D1FA39A9420ED1582416
:1003700054431A19526A283401A928001C1902F0A2
:100380000BF8002801D1019B23603EBD0221002A09
:1003900003D00431012A00D0F9310120A942F4D15F
:1003A000582454431A19126D5434E5E7F0B5A527C3
:1003B0008DB00992FF000400C05D0E0001F0A0FFA7
:1003C0000AA9C0B201F080FE002800D0A6E02C25CA
:1003D0007543E35D310018000793089501F090FF25
:1003E0000BA9C0B201F070FE002820D02C235822A7
:1003F000079973434A439B18E1180A690125D006FF
:1004000064D448481B59834229D0002E04D00A984E
:100410000021826801F01AFF434B444A1B68D868E8
:10042000002E00D1424A434908F0A8FC0FE00B9887
:1004300001F080FF05000B9801F05EFE5823E25D9D
:100440005343089A9B18E3181A1D9A4201D10125BB
:100450003CE00133591E0978A942F6D0C6E7CB68C3
:100460000989C8438342D0D80A9F5B18B9688B4278
:10047000CBD2A523DB00E35C3978069306980223F0
:10048000002803D00433012800D0F93358250798F9
:10049000454308982D18651999421DD0A5238E2033
:1004A000DB00E35C80005843002304930393029332
:1004B000E0231B020193204BB83000932A00201840
:1004C0003B00069901F0B4F9051E9ED10A9801F08F
:1004D00013FE28000DB0F0BD5307DFD58E20069B1C
:1004E00080005843099BB830009320183B002A0035
:1004F000069900F0ADFD002800DA86E7CED1A523ED
:10050000DB00E05C8E239B005843B8302018099A2A
:10051000012100F063FD0028C0D076E701256D427F
:10052000D7E7C0463DB8F3961092000853D50610A1
:100530004BD506105DD50610DC010108A52370B56A
:10054000DB00C55C04000121002D03D00431012D26
:1005500000D0FA312000FFF7F8FE002802D0012574
:10056000280070BD0221002D03D00431012D00D0E0
:10057000F9312000FFF7E9FE051EF0D1A523DB00CD
:10058000E25C58235343E318186A01F0A9FEB4341F
:100590002060E5E710B520220400FF210C3008F0B0
:1005A00093FC012200232260024AE3626260A3609E
:1005B00010BDC0460101000142790023012A06D185
:1005C0000268012A03D10379013B584243411800D4
:1005D00070470000F0B500258BB005900691089299
:1005E0000993119B9D4201D3002010E0119B5C1BDD
:1005F00080239B009C4200D91C00099B354AE918C6
:100600000698230001F080FD002802D001200BB0E5
:10061000F0BDA522059BD2009B5C9C466146069BD3
:100620001A780223002903D0FD33012900D1F93BB8
:10063000089909789A421AD08B421AD158226046FA
:1006400042438B4220D0059B2C3209989A1813699B
:100650005B070ED511892818461A0B0007968842A9
:1006600016D20E1BA14200DA2600002715E08B42AD
:10067000E4D1109B174AE9180898230001F094FD73
:100680000028C3D12D19ACE7059B10989A18DEE716
:100690000F27079926000F400021D2689A180319E6
:1006A000934203D90026904200D2161A8E20624649
:1006B00080005043059AB830079B1018054ACB18A4
:1006C0008918029101970096069A614600F078FE1B
:1006D000CFE7C046DC9D0008F0B5A1B00491CA4A3E
:1006E0000021A527040008F0EFFB0023FF00E355DD
:1006F00002930393C54BE05D1B78984233D3012BE3
:100700000ED9039B002B0BD00023A525E355013BFD
:100710000293ED00BD4B605D1B78834200D9F6E08B
:10072000A5270023FF00B94EE355E05D33789842DA
:1007300000D28FE10023A525E3555827ED00635D26
:1007400032789A4200D97AE23022002114A808F0C7
:10075000BBFB236A04995A780A715B680C600393A7
:10076000039A8A6082E2012B06D98E239B005843AC
:10077000B830201800F078FE5825C0232A00E65D26
:100780005B0173437243A249A21859185162A149EF
:1007900030005B181365002101F0B2FDE15DC0B2CD
:1007A00069432031611801F08FFC4342584100F049
:1007B000A7FE0121300001F0A3FDE15DC0B2694355
:1007C0004C31611801F080FC02904342584100F026
:1007D00097FE2000FFF7B2FE011E0DD0C0228E4B07
:1007E0008E491B689200D86808F0C8FA0122E35DC0
:1007F000E318B0331A706AE002002000FFF764FDCE
:10080000002804D0844BE25D1B688549EBE720009B
:1008100001F0E0F90028E9D014AD2800FFF7BAFE96
:100820002800FFF7C9FE059000281FD1774B1B78E1
:10083000012B0CD8002000F063FE2A0000212000CC
:10084000FFF742FD4342584100F05AFECEE7E25D19
:10085000002AEFD023000121B0339A189A42E9D040
:100860001878042800D119700133F7E7EB79069363
:10087000012B38D1E05DFFF7ABFC831E0600022B95
:100880000BD82A0006992000FFF790FD012803D01D
:10089000002802D0052600E00600E35DE318B0332F
:1008A0001E705A4B1B78012B11D9E25D002A0ED025
:1008B000A318B03319781300012911D0042900D1ED
:1008C00019E223000121B0339A18934219D1E35D54
:1008D000E218B0321278023A022A01D801220392B9
:1008E0000133E35506E72A0001212000FFF75EFDF2
:1008F000E35D0522E318B033002800D1EA791A70CD
:10090000CFE71878042800D119700133DDE72318E8
:10091000B0331F7804239F43013F7B1E9F41FFB2EA
:10092000390001F0EDFC09A9C0B201F0CDFB0028AF
:100930000BD001230293099801F0DEFB029B002BF0
:1009400070D1635D01336355E4E658212C26635D65
:10095000774359430123C919009361183F33099A1A
:100960000EA800F0E7F902900028E4D137000A262B
:1009700006ABF618320000230AA90EA800F02CFAE4
:10098000031E00DAB4E10998D5D133880C2B36D197
:100990000BAE32000A9901F0B7FB0028C9D11B4BFE
:1009A00032781B7893422CD90221A318B0331B78DC
:1009B000023BDBB299424041582378435A438018A6
:1009C0002018027D33799A42D1D808D3427D7379B9
:1009D0009A42CCD803D3C28AF3889A42C7D2635DC5
:1009E000E318B0331A78012A07D0002A03D0032A6B
:1009F00001D801221A7008239CE70422FAE7032396
:100A000098E7072396E7C0462C0500008090000871
:100A1000DCA10008DCD100081092000888D506107F
:100A2000CDD50610B64B029A1B78082A00D077E67F
:100A30000293002B00D173E6220000230121B03283
:100A400063551170029A8A4202D02200B1321170AD
:100A5000029365E614AD012B09D98E239B00584300
:100A6000B830201800F000FD2800FFF793FDE35D8B
:100A7000E318B0331878E8710138042800D9D9E0B8
:100A800007F0A8FE9203030392009E4E9E4833682F
:100A9000D96808F0CDF933689C48D96808F0C8F9DE
:100AA000E35D01200293002B03D0FE30012B00D127
:100AB000FA380BA901F008FB4342584100F020FD31
:100AC000029B0220002B03D0FD30012B00D1F9380E
:100AD0000EA901F0F9FA4342584100F011FD5822E5
:100AE0000025E35D03955343E3189B6A0692079341
:100AF000079B039AE05D934224D1069A4243A318D0
:100B0000DB6B5B0736D433682A008149D86808F06C
:100B100035F900230195582500930B9A0E99200072
:100B2000FFF758FD2900E05D41432C316118FFF7C4
:100B3000EDFB0290002856D033687648D96808F05B
:100B400077F928E0069B039A58432018436AD2009D
:100B50009B185B6829001A000B98059301F076FB3F
:100B60004342584100F0CCFC059BED18039B013338
:100B70000393BDE78E239B0058432C3214ABB8304F
:100B80000093A21820180E9B029900F061FA002829
:100B90001ADA03230293029D6B425D41280000F0A4
:100BA000AFFC280000F0ACFCE35DE218B032127834
:100BB000FF2A42D1534B58481B68D96808F038F9CE
:100BC000002000F09DFCFEE700289CD18E23E05D14
:100BD0009B005843B830201814AA012100F0FEF9F8
:100BE000002890D0D5E7E35D02996B43E3181B6DB5
:100BF0000E985A6801F02AFB4342584100F080FCED
:100C0000E35D0E985D4365196B6D2A6D013BDB005A
:100C1000D31811681A68511A5A6801F017FB434239
:100C2000584100F06DFC0B9801F066FA0E9801F047
:100C300063FAB0E7FF221A70B6E7013373E5E318F1
:100C4000B0331B78012B09D1002220001100FFF7DF
:100C5000ADFB002822D00323029307E014AA002151
:100C60002000FFF731FB02900028EDD0A5250023DE
:100C70005827ED006355635D32789A423DD97B4336
:100C8000E318D86C01F038FA635D7B43E318186A07
:100C900001F032FA635D01336355ECE7605D2318C0
:100CA000B0331B78012B0ED1390041436118FFF797
:100CB0002DFB0290002806D0124B18481B68D968FB
:100CC00008F0B6F8D2E73900605D414361180A6A5E
:100CD00000F0D0F80290002806D00A4B625D1B6835
:100CE0000F49D86808F04AF8635D0133635526E57B
:100CF00001235B42ACE6059AF1E5029821B0F0BD14
:100D00008090000810920008FCD5061031D606101D
:100D100052D6061095D60610D1D60610E0D606108B
:100D20001FD7061010B501000148FFF7D5FC10BD14
:100D3000B0980008F0B587B002930CAB1B780400A4
:100D40000D0000920393002805D101235B4201931B
:100D5000019807B0F0BD0029F7D0009B002BF4D01C
:100D6000CB680F8905AEFF183200042339000098C4
:100D700001F0CAF901900028E7D1154A31886B8942
:100D8000914221D171889942DFD1C91904233200DF
:100D9000009801F0B9F90028D7D105AA0D4B1188A8
:100DA0009942D2D1009B256063606B461B892381E9
:100DB0006B461B7BA3726B89DB19E3605288D318E7
:100DC00063613B1D2361C3E7002BE6D0BDE7C0464E
:100DD0000869000007690000F0B585B004000091C3
:100DE00001921E00002803D10120404205B0F0BD51
:100DF0000368002BF8D04368002BF5D022696369A3
:100E00009A4218D223685B89002B04D0E36893428E
:100E100001D10433236103AD04232A0021696068F2
:100E200001F072F90028DFD1A27A2369002A04D0E8
:100E3000E2689A4201D80120D8E76A882189171D03
:100E4000BC460B4FB94202D02D888D420DD1002EE9
:100E500002D003A909883180009904330B60019BFB
:100E60001A80236963442361C0E763442361C5E7B3
:100E7000FFFF0000F0B50025D9B003900095514B5D
:100E80000AA81600FFF756FF0295A84204D00124D5
:100E90006442200059B0F0BD0E2704ABFF1807AC28
:100EA0003B00220008A90AA8FFF796FF0028EED110
:100EB0003B88602B0FD18022238852009342E6D8D2
:100EC00018AA0899300001F01FF90028DFD1238803
:100ED00001250293E0E7102BDED12388202BD6D802
:100EE00010AA0899300001F00FF9041ECFD1002D8F
:100EF000CDD0029858AB203808901818013820221D
:100F0000FF3810A907F0D7FF039B2F4E9B010493D6
:100F10003F23049A09941A43337805922B4D002BF2
:100F200009D1802221005201280007F0CDFF284B73
:100F30002B60012333706888244B264EC31803931B
:100F4000039B09AFB34224D8049B234A1B051B0D06
:100F500013433B806B461E897E806B88321D92B2A4
:100F60009B18184A93422BDC80229BB25201934279
:100F700022D804223900039807F09DFF0398029AB3
:100F8000043018A907F097FF6B880433F6186E80B9
:100F90007FE704223100380007F08DFF3B881A0BF1
:100FA000012A04D1059A1B051B0D9A4206D009ABF4
:100FB0005B880433F618C3E701246AE7022468E774
:100FC000032466E7FFFF0000DCE1010800080008D9
:100FD00016200400040800083F100000F0B587B098
:100FE000174C02AD019028000F00160007F060F9C1
:100FF000230007CD07C380212000124A890007F093
:1010000071F9114D280007F0C9F9002816D1288878
:10101000210007F077F9002810D13A010C32B218FC
:1010200028881023094907F031F9002806D18E23BA
:101030005B005F43019A1C3BFF3BBB5407B0F0BD14
:10104000E0E101080100C004DEE101080100004008
:10105000F0B50700D5B0180016001D0000F09CFB8D
:10106000002808D1BE4BBF481B68D96807F0E0FED6
:101070000124644248E1280000F024FB041E00DA49
:1010800042E18E235B004343DB5D06900124002B8D
:1010900000D039E100932A003233310025A8FFF750
:1010A00049FE031EE4D12E2602AAB61832000FA96B
:1010B00025A8FFF791FE041E00D025E13388712B8F
:1010C000D6D137AE32000F99280001F01DF8002864
:1010D000CED1280000F042FB071EC9DD07F07AF9E7
:1010E000B842C5DBA04D1022290019A8113507F020
:1010F000E2FE102229001DA807F0DDFE10222900C3
:1011000021A807F0D8FE13A81294139407F076F9DB
:1011100043424341954A5B42134007933023041EE8
:10112000149300D0F0E00EAD2900380007F044F928
:10113000041E00D0E8E0288811AA10A907F0F0F8F2
:10114000041E00D0E0E03378042B00D0FDE0C02284
:101150008021109BD2051A40C9058A4200D0D6E0F2
:10116000119BDC1DE4082000129407F06FFE051EA1
:1011700000D1ECE02200310007F09DFE102219ABF7
:101180000EAE318803931DAB0193079B049202922C
:1011900000932A00230013A807F0E4F8041E00D0EF
:1011A000D9E0149A2BA913A807F030F8041E00D038
:1011B000D1E0308812AB129A290007F0C1F8040080
:1011C000280007F04DFE002C00D09DE008AD28005F
:1011D00016AE159407F06CF833002A0013CA13C337
:1011E00080213227624A0901300007F07BF802AB08
:1011F000FF18380007F0D2F8041E00D084E03888C9
:10120000310007F07FF8041E00D07DE0A22138886D
:1012100020232FAAC90507F039F8041E00D073E077
:101220003988534A15A807F0F7F8041E6CD1362305
:1012300002A9FF335B181022190015A807F0FCF86B
:10124000041E61D1162102ABFF312022C91815A856
:1012500007F002F9041E57D1388806F0C9FF041EB2
:1012600052D1444E280007F023F8320008AB13CBCC
:1012700013C28021404A8900300007F033F83F4D07
:10128000280007F08BF8041E3ED12888310007F0B3
:1012900039F8041E38D1288810232BAA384906F0C3
:1012A000F5FF041E30D1374E2988334A300006F04E
:1012B00057FF041E28D1102221A9300006F072FF2A
:1012C000041E21D1069B5A9A1B010C333621D318D8
:1012D000102202A814AFFF310918019700923000C4
:1012E00006F070FF149B0400102B32D100280BD1A4
:1012F000020001003B00300006F042FF041E03D153
:10130000288806F075FF0400200055B0F0BD1E4A85
:101310001E491A408A4203D1119BDC08103422E78F
:101320001B498A4205D10324119BDB085C434A34E4
:1013300019E7184A1340184A934200D013E7119B4B
:10134000DC1DE408640001340DE7872491E68D2458
:101350008FE684248DE6280007F082FDD4E7C0469E
:10136000109200087BD7061059D7061009012022D9
:1013700009008002E0E101080100C004DEE101088B
:1013800001000040ECE10108FFFFFFEF00000160F9
:10139000000002600000FFEF0000036010B50400D1
:1013A000100000F08FF90023984206DB1D33FF3355
:1013B0005843035D581E8341DBB2180010BD000086
:1013C000F0B51D00170089B004AC06000C22002106
:1013D000200007F079FD2B0F23732B0D637338006A
:1013E0002B0B2D09A373E57300F06CF9002804DAC8
:1013F000002000F085F809B0F0BD8E235B00584353
:10140000805D01384342584100F07AF8134B144D87
:101410001988144A280006F0A3FE0028EBD11022F8
:101420002100280006F0BEFE0028E4D10E9B03AC8C
:101430000093109B0E9A19000194280006F0C2FE3A
:10144000039B0E9A01009342D5D10028D3D102000C
:101450002300280006F094FECDE7C046DEE1010837
:10146000ECE101080100C0048E2210B592000021B9
:1014700006F0E8F910BD000010B504F047FC04F0D8
:101480007DFC04F08FFC62B604F02EFCC02201202B
:10149000074952008B5883438B500648064A002167
:1014A00001F0E8FEE120400204F058FD10BDC04606
:1014B0000000264080003140B4D7061010B50B481C
:1014C00001F072FD04F088FC094A8021032002F03B
:1014D0005BFA084802F080F8074B1B684D331B7815
:1014E000002B02D0054802F0E5F810BD90E0061090
:1014F00000000008F0E1010874E7010860D8061058
:10150000F7B5041E4FD16A46274B284DDB78284F8C
:101510009370254B27489B79D3706B6801933B6888
:10152000D96807F085FC2448244A2100121A07F0E4
:10153000CBFC2348234A2100121A07F0C5FC224E97
:10154000224A2100921B300007F0BEFC6B46164A6F
:101550009B78D3706B46DB789371019B6B6086F34D
:1015600008881B4E1B482100321A07F0ADFC86F399
:101570000888012007F04AF8FFF7A0FF686806F026
:10158000CDF8021E04D03B681349D86807F0F6FB7B
:10159000124804F087FC124B1B68002B01DA06F09E
:1015A000E1F80BF079FFF7BDE4E601085CE501081E
:1015B00010920008E8D7061080900008E093000819
:1015C00094980008B4E701080020000800240008EF
:1015D00000C0020800B0020830D806100040001613
:1015E00000012640F0B599B01EAB1B780390049320
:1015F00013781400302B03D09520404219B0F0BD71
:101600009378022BF8D108AD40220021280007F082
:101610005BFCE07822185379811D1279C918029178
:10162000022AE9D1C218617804329142E4D1202B18
:1016300000DD20230100202800DD2021401A0022A7
:1016400005900FE0501A20300700059810268446B8
:101650009444A444604600790132844604A8801969
:101660006646C6559142EDD100220299C91A641806
:101670009A4212D10E2404ABE4182100049806F01B
:101680009BFE0028BAD140232088039A019300953D
:10169000203B054906F050FDB0E7D11AA05C40316F
:1016A00068540132E4E7C0460900061003780020C0
:1016B0005A1E012A05D90130052B02D0062B00D075
:1016C0000238704703780422190000209143012951
:1016D00005D00130022B02D0062B00D00238704713
:1016E00010B50C00FFF7E2FF012807D82823584364
:1016F000044BC05C001B431E984110BD01204042BA
:10170000FBE7C0465CE5010810B50400FFF7DAFF0F
:1017100000280DDB0BD02000FFF7C8FF002807DBF7
:10172000282343430448C01843780120584010BD83
:1017300001204042FBE7C0465CE5010810B5FFF719
:10174000B5FF0022012805D8282343430248C018CA
:101750000530C27F100010BD5CE5010810B5FFF731
:10176000A5FF0022012804D8282343430248C018BB
:10177000427A100010BDC0465CE50108012805D87A
:10178000282343430348C018C068704701204042E3
:10179000FBE7C0465CE5010810B5FFF787FF0128AD
:1017A00005D8282343430348C018007A10BD012000
:1017B0004042FBE75CE501080023F0B58DB00D0069
:1017C000160004931360984203D1072420000DB043
:1017D000F0BD0029F9D04389002B01D10324F5E79E
:1017E00001230A00009301004F3306A8FFF7A2FA75
:1017F000041EEBD10E276F4403003A0005A906A88A
:10180000FFF7EAFA002801D0013CDFE73B88042B10
:10181000E4D104AA0599280000F076FC002801D044
:101820000124D3E7049BFF2BD0D83360CEE7000020
:10183000F0B51F00172300261400FF25BFB006AA2D
:101840009B181E7023690990380006910E950F961B
:101850000493FFF737FFB04203DA012040423FB064
:10186000F0BD002800D1DDE03800FFF74DFF002873
:10187000F5DB3800FFF790FF431E9841049B5B07A0
:10188000DB0F984203D03800FFF786FFE5E702221E
:101890000792069A10963B78002A05D006220792F6
:1018A000069A012A00D00795079A93420BD1236923
:1018B0005B0708D53A0006990998FFF76FFD0028E5
:1018C00001D10138CBE7A34910A806F0AFFC0028EE
:1018D000C5D1469B002B58D10020238905000493D5
:1018E000049AE3689446634405936389059A9B18B8
:1018F0000893089BAB4254D80028B0D11EAB2022DD
:1019000016A910A806F0B0FC0028A8D1489B002B0F
:1019100000D0A8E000233A00009321008E4B10A8CD
:10192000FFF708FA00289AD1050007900490059067
:101930001A2606ABF6180CAC330022000DA910A82D
:10194000FFF74AFA002800DA87E700D0F4E033888E
:10195000222B00D1A8E000D98BE0102BE8D12488FD
:10196000202CE5D123001EAA0D99380000F0CCFBF5
:10197000002800D073E722001EA916A807F08CFAF1
:101980000028D5D101230593D2E7479B002BA3DD87
:101990001A00469910A806F057FC002800D05EE710
:1019A0009AE7089B459E5B1B9E4200D91E00049B44
:1019B000AB4204D9049A73199A4200D2561B059B74
:1019C000AB4204D9059AAB199A4200D2561B330098
:1019D000449A2900380000F097FB002800D03EE729
:1019E0003B78079A934216D104222369134212D0FE
:1019F000049BAB420FD8059BAB420CD9449A049B85
:101A000002920F22EB1A1A40019200963A000699B0
:101A10000998FFF7D5FC3200449910A806F014FC91
:101A2000AD1966E710904B4910A806F0FFFB00289F
:101A300000D014E7469B002B09D16389228979687D
:101A4000D218E36810A8D21806F0FEFB54E7479BB3
:101A5000002BF2DD1A00469910A806F0F5FB0028CD
:101A600000D0FCE6E9E7202216A9489807F023FAFF
:101A700050E7502B3FD0812B00D059E72388172403
:101A800006AAA41822000D99380000F03DFB00289A
:101A900000D0E4E621783800FFF722FE002800D0CD
:101AA000DDE60123049343E73800FFF747FE061EF7
:101AB00000DC3DE706F08EFCB04200DA38E7238810
:101AC0001A00463A3A2A00D9C7E61EAA0D993800EC
:101AD00000F01AFB002800D0BFE6F6B223881EAA49
:101AE0000096202116A8FFF77DFD002800D01FE7F3
:101AF000012307931CE72388042B00D0ADE60FAA2F
:101B00000D99380000F000FB002800D0A7E60F9BDD
:101B1000FF2B00D9A1E60EA9069800F01FF80028B7
:101B200000D09CE60E9BFF2B00D996E60F9A9342BD
:101B300000D9FDE60125FBE6059B002B00D18CE6D4
:101B4000049B002B00D188E6002D00D185E6079884
:101B5000B7E6C04609000001FFFF000010B50C0009
:101B6000FFF70CFE002803DB210005F0E9FE10BDA5
:101B700001204042FBE710B50C00FFF7FFFD0028F5
:101B800003DB210005F0F4FE10BD01204042FBE71D
:101B9000A52313B5DB00C05C140000F0B1FB01A964
:101BA000C0B200F091FA002805D00124019800F09D
:101BB000A3FA200016BD0198FFF7A6FD011EF4D17F
:101BC00022002023019800F09FFA0400601E844147
:101BD000ECE70000F7B5A5275825FF00C35D060018
:101BE0006B43C318D86CFFF78FFD041E08D0354B2C
:101BF00035481B680024D96807F01AF92000FEBD9B
:101C0000F05D68433018836A0093C023009A9B00FC
:101C10009A4203D8426D01929A424BD9294B2B48E4
:101C20001B68D96807F004F9E8E7A94221D1D70079
:101C3000BC46476A0132BC4467467F68BC46DF0049
:101C40006144BC46076D0133BC4467467F68BC46AF
:101C50006544009FBA42E8D3019FBB42E5D3009997
:101C60008A4201D1BB422BD0164B19481B68D96858
:101C7000D8E7A94211D2D700BC46476ABC446746A0
:101C80007F68BC466144022E04D10E4B11481B688C
:101C9000D968C7E701320126DBE7DF00BC46076DE4
:101CA000BC4467467F68BC466544012EEDD00133D5
:101CB0000226CEE726002300220025002100C8E7E7
:101CC00001249BE71092000894D80610C0D8061093
:101CD0002CD90610F2D8061010B5FFF7EFFB10BD97
:101CE00010B50F4B98782A331C78002C0ED02000AA
:101CF000002404280CD800F0ABFF0A4B041E1B681C
:101D000008D1D968084807F093F801E00028EFD11E
:101D1000200010BD02000549D86807F02FF8F7E74A
:101D20005CE50108109200087DD90610AAD90610BA
:101D3000F0B593B0FFF7C2FBFFF79EFB1722B54942
:101D40000AA807F0B8F8372002AB09220021C01812
:101D500007F0BAF8C02003AA04A9800005F04EFCE1
:101D6000002803D10AA9049805F00AFCAA4DAB4C3F
:101D70002B682000D96807F05BF82B68A84ED9685B
:101D8000300007F055F82B680AAAA649D86806F073
:101D9000F5FF2B683000D96807F04AF82B6820005F
:101DA000D96807F045F82B689F48D96807F040F8D4
:101DB000802003AA04A9400005F020FC071E08D1DA
:101DC0009A4C03009A4A2100049804F08FF9071EE8
:101DD00012D02B683A009749D86806F0CFFF8E4B97
:101DE00095481B68D96807F023F878427841FFF7D7
:101DF00087FB002013B0F0BD0123904E904A337052
:101E0000904B914F1A8062695A60A2699A608F4B19
:101E10003B80237A002B04D02B688D48D96807F0CB
:101E200007F8A378002B06D02B688A48D96880234E
:101E30007B7006F0FDFFE3697B60236ABB602B6863
:101E4000D868237C012B00D08FE0230038331B7827
:101E5000022B00D089E033707F4A804B804F1A807C
:101E6000E26B5A60226C9A607E4B3B8023003033D9
:101E70001B78002B03D001007B4806F0D9FF23001C
:101E80002A331B78002B06D02B687848D96880232A
:101E90007B7006F0CDFF636C32787B60A36C744975
:101EA000BB602B68D86806F069FFFE22714BD20137
:101EB0001A80714A5A60802252029A606F4B704AAF
:101EC0001A80704A5A60802252019A60FFF708FF18
:101ED00000280DD0A378002B01D0002363702300CD
:101EE0002A331B78002B03D02300002229331A70D9
:101EF00006F074FB021E07D02B686349D86806F011
:101F00003DFF0020FFF7FCFA07A8FEF70BFF071EB6
:101F100000D064E72B685D48D96806F089FF5C4B08
:101F200062685C4E1A60079B5B491A89099BD2184C
:101F30002B683260D86806F021FF0122237C0192D1
:101F400093420AD1230038331B78022B05D12B682A
:101F50005248D96806F06CFF0197207801380328B1
:101F600050D806F037FC0905050E32784C499AE73F
:101F70000221002001F0C4FD0199306805F078FCD1
:101F80002DE706210E2001F0BBFD294B02AADB78CC
:101F90003F4D9370264B3F4C9B794248D3702B6842
:101FA000414A05932368121A0021069305F04AFC62
:101FB0003E4E3F4A0021921B300005F043FC069B39
:101FC0001B4A236002AB9B78D37002ABDB78937122
:101FD000059B2B6086F30888364E37480021321A5D
:101FE00005F030FC86F308883448354A0021121A7F
:101FF00005F028FCFFF762FA2A680021206805F046
:10200000B9FBECE62B682F48D96806F011FF30BF0A
:10201000FDE7C0465DD9061010920008E8D9061009
:10202000F2D9061033DA06105EDA06105CE5010814
:10203000E4E6010880DA0610BCDC06108090000897
:10204000017F000080E30108A4E30108027F000093
:10205000AFDA0610EADA0610057F00008CE301080B
:10206000B0E30108067F000025DB061060DB0610E8
:102070009BDB061074E301080000061098E30108DA
:10208000037F000000F00510DCDB061028DC0610E2
:10209000BCE3010870E3010858DC061078DC061088
:1020A000BFDB061080900008E093000800200008C5
:1020B0000024000800C0020800B00208949800083C
:1020C000B4E7010896DC061010B50A4A1368002B25
:1020D00002D10124644205E01C7804328442F5D127
:1020E00000240B600B685B787F2B01D900F020FD8A
:1020F000200010BD84900008437810B57F2B01D9D3
:1021000000F040FD10BD0000F7B544680500170061
:102110001E008C4205D8F9211C4B1D4A1D4806F0B3
:102120000FFECB189C4203D81B4B194AFA21F5E746
:1021300064183200210006F0E3FA0190002803D071
:10214000164B134AFF21E9E76B787F2B07D121005B
:102150003200380006F0AFFE019C2000FEBD5BB2ED
:10216000002B0FDA210033003A00280000F04CF970
:10217000041EF2D00A4B22001B680A49D86806F0F8
:10218000FDFDEAE701246442F4E7C046A0DD061045
:10219000F4DC0610B1DD0610CFDD0610E6DD06101A
:1021A000109200080FDE0610F8B54468060017000C
:1021B0001D008C4204D892211D4B1E4A490006E0A6
:1021C000CB189C4206D826211B4B1A4AFF311B48CC
:1021D00006F0B6FD64182A00210006F091FA0028E6
:1021E00003D0174B134A9621E8E773787F2B12D15F
:1021F000EB0503D0134B0F4A3421E7E780239B0004
:102200009D4204D13900200000F0BAFFF8BD0E4B0A
:10221000084A9C21D2E75BB2002B06DA2B003A0079
:102220002100300000F010F9F0E701204042EDE716
:10223000A0DD061004DD0610CFDD0610B1DD0610AE
:1022400036DE06106BDE061088DE061070B54568B7
:10225000060014008D4204D8AF211B4B1B4A4900D5
:1022600006E08B189D4206D86021194B174AFF31B2
:10227000184806F065FDD30503D0174B134AB0216B
:10228000EDE76D18290006F03BFA002803D0134B48
:102290000E4A6821EBE773787F2B09D1640A002C82
:1022A00000D170BD013C6002401900F02BFFF6E741
:1022B0005BB2002B04DA2100280000F0E5F8F0E71B
:1022C00001204042EDE7C046A0DD061015DD0610F6
:1022D000CFDD0610B1DD06106BDE061053DD0610F3
:1022E00010B543787F2B05D05BB2002B05DA00F0E8
:1022F000DFFC10BD80208000FBE701204042F8E7B2
:10230000020001290DD00320022909D00438002938
:1023100006D10120002A03D00430012A00D0FA306F
:1023200070470220002AFBD00430012AF8D0F9308F
:10233000F6E7000010B543787F2B0AD05BB2FF2090
:10234000002B07DBF721044B044A4900044806F040
:10235000F7FC0020C0B210BD88DD061026DD061097
:10236000B1DD0610F7B5060017000193FFF7CCFEAC
:102370000500041E0AD001256D420BE03000FFF776
:10238000D9FF3B5D834205D10134E4B2019B9C42FD
:10239000F4D301252800FEBD70B5164B1C68002C37
:1023A00002D1012040421DE0257804338542F5D159
:1023B00063787E2BF5D91048A3681B1808685B0A60
:1023C000984206D28D210D4B0D4A89000D4806F02A
:1023D000B7FC802560685C022418AD00844202D1FD
:1023E00000200B6070BD8026B6001060556080191B
:1023F0000832F3E784900008FF0100008EDD06102C
:102400003CDD0610B1DD0610F0B585B003937F23E7
:1024100040780C001840170000F0E0FB060000F0C8
:10242000E5FB050000F0E6FBE8231B06E218039B32
:102430000190009331003B00280002F019FF431E79
:102440009841404205B0F0BDF0B585B003937F23BD
:1024500040780C001840170000F0C0FB060000F0A8
:10246000C5FB050000F0C6FBE8231B06E218039B32
:102470000190009331003B00280002F049FF431E09
:102480009841404205B0F0BDF7B50400002000F0CF
:10249000A5FBE822836905009B691206A4185B422C
:1024A0001C4000F0A3FBAB6906009F6900F0A2FB93
:1024B0003B00009029003000220002F091FF431EF3
:1024C00098414042FEBD0000F0B589B006ACE07016
:1024D000002021712080A07000F080FB060000F039
:1024E00085FB050000F086FB310007000200280094
:1024F00002F0B8F9002815D101230497039333782B
:10250000020002930523019000937121230028000B
:1025100001F0E2FE002805D13B00034A310028000B
:1025200002F07CFE09B0F0BD20A10700F0B5002448
:102530008BB009ADE870200007912C80AC7000F0E2
:102540004DFB069000F052FB060000F053FB069B8B
:10255000049003941B7807000293042301940093D2
:1025600022002B006521300001F0B6FEA0420CD104
:102570000821300002F08AF8A04206D1030000973B
:1025800001220799300001F0B7FF0BB0F0BD021E29
:102590001DD041188B1F1B780022342B17D14B1FE5
:1025A0001B782A3B012B12D80B1F1B78193B022BDF
:1025B0000DD8CB1E1B780F2B09D18B1E1B78032B3C
:1025C00005D101390878903843425841C2B2100011
:1025D0007047000030B5002089B000F0FFFA050018
:1025E00000F004FB040000F005FB0123002204902E
:1025F00003932B7820000293019200921300B721DD
:1026000001F06AFE041E11D11F256D44290003202C
:10261000FFF78CFF041E09D129784BB2002B08DA92
:1026200029000420FFF782FF041E0BD0200009B010
:1026300030BD8023032019432970FFF745FF041E96
:10264000F4D1EDE708212B780B420CD0002000F0EC
:10265000C5FA8022D8218369D2029A615A69116031
:10266000054A1A64E2E7194304202970FFF72CFF9A
:102670000028EBD00400D9E770170000F0B589B04E
:10268000079000200F0000F0A9FA040000F0AEFA55
:10269000050000F0AFFA00220490039223780600B0
:1026A00002930192009213009F21280001F014FE72
:1026B000041E0FD14021280001F0E8FF041E09D1BB
:1026C0000090030001963A000799280001F0D6FE19
:1026D000041E16D0200009B0F0BD012003F036F929
:1026E0003100280001F0EAFF032802D0013F002F4B
:1026F000F3D13100280001F0E1FF0328EAD0024CB9
:10270000E8E7024FECE7C0460200B200E903000030
:1027100070B506000C001500072903D914491548A7
:1027200003F01EF91F232A009A4303D012491148CF
:1027300003F016F9114B1B689A695B69B01AC0095E
:102740000001C0181F231D40032C07D8E400A3403C
:10275000A54002689A431543056070BD043CE4003F
:10276000A340A54042689A4315434560F5E7C0463B
:1027700092020000A5DE06109302000074E7010833
:10278000437802781B021A438378C0781B041343F2
:102790000006184370470000F7B5A54BA54A9A58A4
:1027A000D10700D47BE00F22A34FBB683D680093A4
:1027B000A24BDC6F0193009B1440073A141B9C4210
:1027C00000D91C009E4E002C18D1009B3D60BB60C0
:1027D000002B0CD1F92201209549D2008B5883435C
:1027E0008B50B861FB69002B01D0FB699847F82337
:1027F0000122DB008E49CA50CB58F7BD082C16D1F8
:102800002800FFF7BDFF3060281DFFF7B9FF3060DB
:10281000009B2D191B1B0093019BDC6F0F231C4099
:10282000073B1C1B009B9C42CDD91C00CBE7012C15
:1028300003D12A78834B1A60EAE7022C06D12A7862
:102840006B781B021343804A1360E1E7032C07D126
:102850006B782A781B0213437B4A1360AA78E9E756
:102860002800FFF78DFF042CD1D03060052C01D15A
:102870002A79DFE7062C02D12A796B79E1E7072C68
:1028800007D16B792A791B0213436F4A1360AA7927
:10289000D0E7281DFFF774FF08243060B8E79107E0
:1028A00000D4A4E00F22644D68496C69EB680868A5
:1028B0008C460240A24200D922006549654E002A9A
:1028C00016D1EB606C61002C0DD1F9220221584821
:1028D000D20083588B4383500320A8612B6A002BBE
:1028E00001D02B6A9847F8236C61DB00022281E754
:1028F000082A19D10868070A18705F70070C000EC3
:102900009F70D8700868070A18715F71070C000E75
:102910009F71D8719B18A41A62460F20126802405A
:10292000A242CCD92200CAE7012A03D14A48006852
:102930001870EFE7022A04D130681870000A587046
:10294000E8E7032A07D130681870000A5870424837
:1029500000689870DEE7042A08D10868070A187032
:102960005F70070C000E9F70D870D3E7052A0BD15B
:102970000868070A18705F70070C000ED870364898
:102980009F7000681871C5E7062A0CD10868070A0D
:1029900018705F70070C000E9F70D8703068187147
:1029A000000A5871B6E7072A0FD10868070A18709D
:1029B0005F70070C000E9F70D87030681871000AA5
:1029C0005871254800689871A4E70A68100A1A70BF
:1029D0005870100C120E9870DA700A68100A1A718A
:1029E0005871100C120EDA719871082292E70421C6
:1029F0000A4207D00520104A9061F822D20099506F
:102A00009B58FAE608210A4202D00B4A0620F3E757
:102A10001020024206D00721074A9161F822D20015
:102A20009850EDE72020024200D1E6E6024AF4E7A2
:102A300000004240CC070000C0E30108080042400B
:102A4000980042409000424094004240C4004240FE
:102A5000D8004240D4004240D000424010B5294A3C
:102A60000321294800F006FC112203212648FFF724
:102A70004FFE264A0421244800F0FCFB11220421C9
:102A80002148FFF745FE224A05211F4800F0F2FBCE
:102A9000112205211C48FFF73BFE1E4A06211A4859
:102AA00000F0E8FB112206211748FFF731FE1A4A11
:102AB0000721154800F0DEFB112207211248FFF71D
:102AC00027FE164B1B683C331B78022B12D9E223DE
:102AD0000F20134A9B00D1588143D150D158213047
:102AE0008143080020210143D1508021D05809069C
:102AF0000143D150FA220B4B92000B490B4801F0D5
:102B000061FB10BD70DF0610800531403CDF061010
:102B100008DF0610D4DE0610A4DF061074E70108F3
:102B200000002640C0E30108D8DF06100000424044
:102B300070B50E4C2368002B13D10D4D0D492800A4
:102B400002F096FE0022AB5E002B06DB1F22134034
:102B50001E3A9A401300084A13600849084801F0D9
:102B6000AFFD23680133236070BDC04630E4010827
:102B70008C9100089927061000E100E0C0E30108ED
:102B800000004240114A10B51368002B1DD0013BD4
:102B90001360002B19D10E4A13685B005B081360A9
:102BA0000C4A0021535E002B0ADB1F210B401E390B
:102BB00099400B000849CB67BFF34F8FBFF36F8F6E
:102BC00051880023D05E02F01DFE10BD30E40108E4
:102BD000000042408C91000804E100E0024B8000BC
:102BE0001B685B68C05870477CE401080048704768
:102BF0000000424000487047C0E3010837B50500B7
:102C0000FFF72CFF041E1BD1FFF792FF0D4B0E4A5E
:102C100029000E481D6002F0C3F9041E0ED10621E2
:102C20006846FFF72BFD041E08D106216846FFF712
:102C3000AEFC002802D0FFF7CDFC0400FFF7A2FF96
:102C400020003EBD7CE40108C0E3010800004240D2
:102C5000F8B5144C6368022803D003281AD0012861
:102C60001CD11B6818700C22013850430E4B0F4AC0
:102C7000C55818184668077A31002800177200F006
:102C8000F9FA28003A003100FFF742FD2000FFF773
:102C9000B5FFF8BD04221B681A70E4E7012040422A
:102CA000F7E7C0467C91000840910008A09000081A
:102CB000024B5B681B689B69586A70477C910008EF
:102CC000024B5B681B689B69586870477C910008E1
:102CD000F7B51C4C01932468251E02D0A56B45193D
:102CE0002D68266D8619AD1B6E1EB541A668EDB226
:102CF00087190F26B44663463E681E40062EFAD852
:102D0000E3681206C618019B13433360002D01D1FE
:102D1000002912D08022A3685202C31819681142F8
:102D2000FCD02368C018084B1B6829331B781F2B65
:102D300004D8802302681A42FCD1F7BD0368002B37
:102D4000FCD1FAE7C8E4010874E7010810B51F24B4
:102D5000084B89061B6829331B789C42A441130049
:102D600064420C34A34080220B430021FFF7B0FFE4
:102D700010BDC04674E7010810B5040000220E2102
:102D8000FFF7E4FF200000220D21FFF7DFFF200006
:102D900000220C21FFF7DAFF200000220B21FFF7B1
:102DA000D5FF200000220A21FFF7D0FF20000022DB
:102DB0000921FFF7CBFF200000220821FFF7C6FF03
:102DC000200000220721FFF7C1FF2000002206217A
:102DD000FFF7BCFF200000220521FFF7B7FF20000E
:102DE00000220421FFF7B2FF200000220321FFF799
:102DF000ADFF200000220221FFF7A8FF20000022E3
:102E00000121FFF7A3FF002220001100FFF79EFF22
:102E1000034B0F211A6820009208FFF797FF10BD9F
:102E2000CCE40108054B1B6829331A78044B1F2A90
:102E300000D9044B044A13607047C04674E7010888
:102E4000E8DF06103CE00610C8E401082F4B70B51F
:102E500014001A68002A2CD0002909D1002C28D18E
:102E6000136DC1182A4B1B689C6C002921D0A4004B
:102E7000284B651E9D421CD880231B019C423ED0DE
:102E80000DD880239B009C421DD08023DB009C42F8
:102E900033D080235B009C420BD17F2314E080233E
:102EA0009B019C422DD006D8802670237601B44227
:102EB0000AD0194820E08023DB019C4223D08026E1
:102EC00000233602F3E77E23114E36682936367822
:102ED0001F2E00D8114D2942EBD11F2E02D9104DC3
:102EE0001B024351936BA208C31819600F21FFF70F
:102EF0002DFF00200B4B1C6070BD7C23E4E7782382
:102F0000E2E76023E0E74023DEE7C046C8E40108CB
:102F100074E70108FF7F00000B003200FF3F000054
:102F200088140000CCE4010810B50400FFF77AFF14
:102F3000174A1849136829331B781F2B17D8164BCB
:102F40002360012009684B6BE3181860134B1B6862
:102F5000002B07D11368096D9A6C6118920020004C
:102F6000FFF774FF2000FFF707FF002010BD236864
:102F70000B48034023600B680A485B68E31818603D
:102F8000802320681B06034323600323A360D8E744
:102F900074E70108C8E4010803000080CCE40108DC
:102FA000FFFFFE7F01000200014B18607047C04622
:102FB00074E70108044B1B681A1DD26F1B689B182D
:102FC0001868000E7047C04674E70108044B1B6880
:102FD0001A1DD26F1B689B181868000AC0B2704790
:102FE00074E701081D4B98420FD010D840282FD00D
:102FF00005D8002830D0102828D019481EE0802895
:1030000028D080235B009842F7D1144816E0154B76
:10301000984214D008D8A0231B0698421CD0124B0B
:103020009842EAD1A0200BE0104B98420AD0104BF6
:10303000984209D00F4B9842DFD10F487047A42027
:10304000C003FBE70D48F9E70D48F7E70D48F5E742
:103050000D48F3E70D48F1E70020EFE706005200C6
:10306000FF005200010000F0090000A0040000F081
:10307000050000F0030000F00100520002005200C1
:1030800003005200010050000200500005005200F1
:1030900070B50A4D04002B682E331B78834204D888
:1030A000E9210748490002F05BFC2B681A00AC32AA
:1030B00010884443186A201870BDC04674E70108A0
:1030C00044E1061010B50020FFF7E2FF0A4B1C6830
:1030D0002300B0331B68C0180368002B0ADB074BC2
:1030E0001868FFF77FFF012263689A609A68002AD8
:1030F000FCD110BD0248FCE774E70108D0E40108E8
:103100000200500070B5C4050500E40D28D102F09E
:1031100063FE144B144A1A605D609C60DC60134BC4
:103120001B6850331978002915D0FFF743FF0400BE
:10313000FFF74CFFFA210134013060430C4B0D4C7A
:1031400089004443186805F04FFB0100200005F09A
:103150004BFB094BC118802040000AF0B5F970BD47
:103160000648FCE7D0E401080001001C74E70108F0
:103170009891000860F59000980800000600520041
:1031800070B5C40506000D00E40D2AD1002928D031
:1031900002F022FE144B154A1A605C609E60DD60EE
:1031A000134B1B684E331978002915D0FFF702FF27
:1031B0000400FFF70BFFFA210134013060430D4B8F
:1031C0000D4C89004443186805F00EFB01002000F7
:1031D00005F00AFB094BC118802040000AF074F981
:1031E00070BD0748FCE7C046D0E4010800010005B7
:1031F00074E7010898910008C0EA21014826000000
:103200000600520070B506000C001500072903D90E
:103210001449154802F0A4FB1F232A009A4303D047
:103220001249114802F09CFB114B1B689A695B69BB
:10323000B01AC0090001C0181F231D40032C07D875
:10324000E400A340A54002689A431543056070BDA1
:10325000043CE400A340A54042689A4315434560FE
:10326000F5E7C04692020000A5DE061093020000BA
:1032700074E70108F0B585B000900D001400002837
:1032800000D137E1002A00D134E1072903D94F21C9
:10329000994802F065FB2368012B03D95021964819
:1032A00002F05EFB0F2362689A4303D051219248DB
:1032B00002F056FB1F22237A934303D052218E48FB
:1032C00002F04EFBE368032B03D953218A4802F036
:1032D00047FB2369012B03D95421874802F040FBA7
:1032E0006369012B03D95521834802F039FBA36997
:1032F000012B03D95621804802F032FBE369032BEE
:1033000003D957217C4802F02BFB236A012B03D9F8
:103310005821794802F024FB636A012B03D9592113
:10332000754802F01DFBA36A012B03D95A2172488C
:1033300002F016FBE36A032B03D95B216E4802F00F
:103340000FFB236B072B03D95C216B4802F008FBB2
:103350002668072D03D96949694802F001FB01225B
:10336000AA400192012E07D96649654802F0F8FA91
:10337000009B019A9A6004E0002EF9D1009B019A0B
:103380005A606668072D03D95F495D4802F0E8FA84
:103390000F2332009A4303D05C49594802F0E0FA07
:1033A0000F215B4FAB0002933B68080079331A781A
:1033B000009B0E40D2181368A9009C46AB009840B1
:1033C00063468E4083431E431660227A290000988C
:1033D000FFF718FFE668082D03D94E49484802F068
:1033E000BFFA032E03D94C49454802F0B9FA03212C
:1033F00008006B0003933B686F00B8400E40BE406E
:1034000078331A78009B9A18136883431E4316601A
:103410002669082D03D94149394802F0A1FA012E45
:1034200003D93F49364802F09BFA019A009BD743E3
:1034300001221640AE409B693B401E43009B9E61AB
:103440006669072D03D937492D4802F089FA012E04
:1034500003D935492A4802F083FA01202C4B064053
:103460001968AE400B0084467A331B78009AD31853
:103470001A68174037431F600B0062467B33187889
:10348000009B6E001818A36910361340AB40E56925
:1034900002321540B540B2402B43019D07682A43D4
:1034A00097433B430360022004257C310A78009B4C
:1034B0009A18636A11685B000340A06A8000284084
:1034C00003436046256A284018250343E06AC0008C
:1034D00028400343206BFF24400120400343FE208B
:1034E000029D80000540AB400020A1430B431360C8
:1034F00005B0F0BD0D48FBE775E106103103000093
:10350000A5DE061032030000CE030000CF0300004A
:1035100074E70108F2060000F306000073060000DD
:10352000740600000D0400000E04000001005A00A3
:103530000B4B70B51B680500B0331B680C00C3183B
:103540001B68002B0ADA0B0C04D0B921054889004E
:1035500002F006FA0020A4B26C6070BD0248FCE7DD
:1035600074E7010844E1061001008A00036870B5A1
:1035700005000C00002B0ADAC2600B0C03D00549D1
:10358000054802F0EDF90020A4B2AC6070BD03481C
:10359000FCE7C046CA02000044E1061001008A00B0
:1035A00070B505000C1E03D1A321084802F0D8F91C
:1035B000074B1B68B0331B68EB181B68002B03DA42
:1035C0000020EB68236070BD0248FCE7A2E1061012
:1035D00074E7010801008A00024B1A68002A00D132
:1035E00018607047E4E40108F7B52C4D1F002B6804
:1035F000040000910192002B03D1BF21284802F062
:10360000AFF92C23FF225C432B683D001C193B0AB9
:103610003F0CA760234F134063603B681540256053
:103620002E331B789D4204D3E9211F48490002F044
:1036300097F93B681A00AC32128855431A6A2F3347
:10364000AD1825611B7865689D4204D3F7211648A3
:10365000490002F085F93B6880351B6A6D01A66858
:10366000ED186561330C08D00F4F1049380002F097
:1036700077F90F49380002F073F933041A0C134339
:10368000AB60019BE361009B23620023A361089B65
:10369000002B01D01B88A381F7BDC046E4E40108DC
:1036A000D2E1061074E7010844E106100D020000A3
:1036B0000E020000F0B5040085B0002803D15C21A3
:1036C000214802F04DF96368032B03D95E211E489F
:1036D00002F046F9E36A002B03D162211A4802F096
:1036E0003FF9236B002B03D16321174802F038F90F
:1036F000A36802AD2B80154B22681B68E16A9B8E84
:10370000E0689B186B806368A26A03930095236945
:10371000266A676AFFF768FF00213B000A000091F4
:103720003000FFF761FF216B280002F0A1F80022B2
:10373000AB5E002B06DB1F2213401E3A9A4013009B
:10374000034A136005B0F0BDD2E1061074E701082A
:1037500000E100E0F7B504000F00151E019304D14D
:1037600008211D48FF3102F0FBF81C4E3368002B86
:1037700004D184211848490002F0F2F82C235C435C
:1037800032685F4314192669D719002E1FD0BB6910
:10379000002B1ED13368002B1BDA01226368140052
:1037A00011009C407B6899402B6809049BB20B4335
:1037B0002B60019BF5607B62BA61230C03D0084942
:1037C000084802F0CDF80020A4B2B460FEBD06485F
:1037D000FCE70648FAE7C046D2E10610E4E4010837
:1037E000CA02000044E1061004028A0007028A00AF
:1037F000002373B504000193984204D1DC212C48C6
:10380000FF3102F0ADF82369002B04D1EE212848E6
:10381000490002F0A5F86369002B04D1DE21244899
:10382000FF3102F09DF8236A002B04D1EF212048DC
:10383000490002F095F86269D5682B0C22D01B0470
:10384000136013681B4B20691B68B0331B68C318D7
:103850001B68002B16DA01A9FFF7A2FE0026B04272
:103860000CD10198E26903681E0CDBB29A4205D9BB
:10387000226A9B009B58002B00D09847310020699A
:10388000FFF756FEADB2002D09D063691D6000251B
:103890001B68636AAB4205D098476562A56163699E
:1038A0001B6873BDA36A002BF8D09847F6E7C046A3
:1038B000D2E1061074E7010870B5084C05002368D2
:1038C000002B04D1BC210648FF3102F049F82C201E
:1038D000454320684019FFF78BFF70BDE4E4010801
:1038E000D2E1061070B50A4D04002B682E331B7808
:1038F000834204D8E9210748490002F031F82B68D7
:103900001A00AC3210884443186A201870BDC046B3
:1039100074E7010844E10610F8B5174B0D001B6869
:103920002E331B78834225D9002923D01F240B680E
:103930001C401FD1FFF7D6FF07002B680F4EDA0897
:1039400021003060686805F0BFFA21003800FFF7F9
:10395000EFFD21002A003068FFF708FE041E07D1A2
:1039600001003068FFF7E4FD03002000002B00D0C9
:103970000348F8BD0348FCE774E70108E8E40108E0
:1039800001018A0003018A0010B50C00002A07D14A
:1039900000290DD1FFF7A6FF064B1860200010BDCF
:1039A000002905D004490C604A60FFF7B5FFF6E72F
:1039B0000248F4E7E8E401081400000803018A0063
:1039C000F7B5184F04003B680191DE683368834205
:1039D00026D90025A94202D104F0B7FE05003868B7
:1039E0000368002B1ADA1F22012322409340640946
:1039F0007268A4001419226813420DD09A43226001
:103A000000240021FFF794FD019B002B02D1280028
:103A100004F09FFE2000FEBD034CF2E7034CF3E7E9
:103A2000034CF7E7E8E4010802018800030188007D
:103A300004018A000A4B1B68DB681A6882420DD9B0
:103A400059681F23420918401E3B8340920050587A
:103A50001840431E9841034BC01870470248FCE7CA
:103A6000E8E401080001880004018A00F7B5214D4F
:103A700001902D6808AC2C352D7824781F2D36D96F
:103A80000C259B002B40093D2A401A4363426341A9
:103A900000251B011A4300921F272A004900002914
:103AA0001ED00026019B94001C19236801200142AE
:103AB00005D03800B04083430098B0400343083637
:103AC0004908202EF2D12360002A03D126685E40E7
:103AD000BE4307D124689C4207D10132042ADED1BB
:103AE0002800FEBD044D0122D9E7034DF5E7034D43
:103AF000F6E7C04674E701080300C2000200C200F6
:103B000070B5154E040033680D005B6CC340DB07D5
:103B100003D4A821114801F023FF0F2D03D9A921B7
:103B20000E4801F01DFFF0222B0412032900134060
:103B30000F2211400B433168A402096964188021E7
:103B4000C901635060581040401B431E9841044B0C
:103B50004042184070BDC04674E7010803E20610F9
:103B60000300C20070B504000D00002804D1BD217F
:103B70002448490001F0F4FE6B89DB0B04D07C2162
:103B80002048FF3101F0ECFE0222AB799343012B78
:103B900004D0BE211B48490001F0E2FE0222EB796D
:103BA0009343012B04D07E211648FF3101F0D8FE4B
:103BB0006A897F231100994322D10721AB795202F0
:103BC0000B4013436A7A313192071343EA79D200EA
:103BD0000A4013430122297A4A40920113431A00F2
:103BE00009490A409A420BD16262606A0840801A11
:103BF00043425841054B40421840054BC01870BD28
:103C00000448FCE703E20610DBFEFFE0FDFF3DFF9A
:103C10000300C2000100C20070B504000D000028BE
:103C200004D1E1212E48490001F09AFE6B89DB0B9B
:103C300004D0C4212A48FF3101F092FEAB79072B52
:103C400004D9E2212648490001F08AFEEB79072BCE
:103C500004D9C6212248FF3101F082FE2B79073BAF
:103C6000182B04D9E3211E48490001F079FE6B8925
:103C70007F22190091430A1E2ED12968FF329143F9
:103C80000A006979A8790A4307215B0208401843B2
:103C90006B7A31319B071843EB79DB000B401843FB
:103CA0000123297A4B40F8219B0118432B794905C0
:103CB0001B060B40034363602260216891420DD1D3
:103CC0006068084A1040C01A43425841064B4042BF
:103CD0001840064BC01870BD0548FCE70348FAE7DA
:103CE00003E20610FFFEFFFFFDFF3DFF0300C200E1
:103CF0000100C20010B5041E03D10749074801F0B6
:103D00002FFE8023626A1B0613436362606A044BC2
:103D1000C00F0138184010BDFF01000003E206107B
:103D20000300C20010B5041E03D10749074801F083
:103D300017FE802362681B06134363606068044BB0
:103D4000C00F0138184010BD4F02000003E20610FA
:103D50000300C200F0B585B01E000AAB1B7804005A
:103D60000F0015000393002803D11049104801F0FB
:103D7000F7FD02232A009A43012A03D00D490C487B
:103D800001F0EEFD022332009A43012A03D00A49D2
:103D9000074801F0E5FD2000039B2A00009339004D
:103DA00033003030FFF762FE05B0F0BDBA0400000A
:103DB00003E20610BB040000BC040000F0B585B0AF
:103DC0001E000AAB1B7804000F00150003930028A7
:103DD00003D10E490E4801F0C3FD032D03D90D494F
:103DE0000B4801F0BDFD032E04D99F210848C900EE
:103DF00001F0B6FD2000039B2A0000933900330038
:103E00001030FFF733FE05B0F0BDC046F6040000E9
:103E100003E20610F7040000036810B502008024D6
:103E20001B0500D4403C82239B00D3580020DB05B7
:103E3000DB0DA34203D090239B00D150013010BD75
:103E4000036880201B0500D440387047F0B505009A
:103E500085B00C001600002800D177E1002900D1C0
:103E600074E10B78022B03D94921B94801F078FDA0
:103E7000637B023B062B03D94A21B54801F070FD54
:103E8000A37B002B06D0023B012B03D94B21B0486A
:103E900001F066FDA31CDB7F012B03D94C21AC484C
:103EA00001F05EFD230028331B78012B03D94D213F
:103EB000A74801F055FD2378012B00D93AE10823EA
:103EC0006268083A93429B415B42002B03D04F212A
:103ED0009F4801F045FDA368053B042B03D9502101
:103EE0009B4801F03DFD6369FF2B03D951219848A0
:103EF00001F036FDA369FF2B03D95221944801F04C
:103F00002FFDA37C002B0CD02378002B05D1A368B8
:103F1000092B02D1A37B002B03D054218C4801F044
:103F20001FFD8C4B626B1A4203D05621884801F06A
:103F300017FD894BE26B1A4203D05721844801F0E8
:103F40000FFD2378022B03D10022A37F934201D0DF
:103F500063685A1E237F0021581E834118040823DA
:103F6000A768BB42494107331A4080239B0413438F
:103F70000343C9020B432B602800276BFFF760FF48
:103F8000874203D36C21724801F0EAFC2800A76B3A
:103F9000FFF756FF874203D36D216D4801F0E0FC27
:103FA0002800676AFFF74CFF874203D36E216848F9
:103FB00001F0D6FCC022217892040B0613402B643A
:103FC000607FE76A431E984183010093A37C07202A
:103FD0005A1E9341227C9B020193531E9A41130265
:103FE000627C0293531E9A415302F02203937B1E7C
:103FF00012031B041340627B013A02401343A27B6D
:104000002930120102401A43009B1A43019B1A43B4
:10401000029B1A43039B1A43AA64207B431E9841C8
:10402000E37B0002002B00D08DE002394B42594166
:104030004B02A268511E0F2211400143C0201943B8
:1040400080002950FF21A36909041B040B4061690A
:10405000C9B20B43C42189006B502B581A4003325C
:10406000974201D3102F03D98421394801F078FCFD
:104070000021E37F22788B4203D0531E59424B41EB
:10408000190207203027637B013A013B0340A07BE4
:104090000001384003430B436B64237B0F20591E00
:1040A0008B411902A368013B03400B4351424A4133
:1040B000120413438022FF219200AB50236B053280
:1040C0000B40FF32AB50631CDB7F5F1EBB415F06C2
:1040D000A31CDB7F013B58424341180623002833D1
:1040E0001B78013B5A4253411A04636A0B403B431D
:1040F000034313432B65A36B626B194081239B0021
:10410000E950164B30001340154AAB50E36B154A8B
:104110001340154AAB5000239E4209D01800134AA1
:104120007360B3603360F36033623363F36272636E
:1041300005B0F0BD0023A27F9A4200D1C5E66368B6
:104140005A1E0623BEE680239B0072E70848EFE76D
:1041500030E2061092F4FFFF8CF8FFFF6D0B0000B9
:10416000C80F000073070000880F0000EFCDAB0000
:104170000160AA0003685B005B080360002904D0AB
:1041800000234B600B600B62CB627047036810B575
:104190000400002B07D0012001F0D8FB2368013B6D
:1041A0002360002B01D0002010BD0148FCE7C04671
:1041B0000200B200030A08704B70030C000E8B70F3
:1041C000C870704770B504000D00002841D0002968
:1041D0003FD0002B3DD05A62F9220321D2008358F0
:1041E0008B4383502B68DBB2012B03D957311A481C
:1041F00001F0B6FBAB68DBB2032B03D95B21164899
:1042000001F0AEFB6B68072B03D95C21124801F06B
:10421000A7FBEB68DBB2012B03D95D210E4801F04F
:104220009FFBC022E021AB6892011B0313406A6828
:10423000C90212040A4013430122296800200A40DF
:1042400080211343EA68490412060A40134323609D
:1042500070BD0248FCE7C04661E206100400B200EF
:1042600070B54E1EF3B204001500012B07D90429C6
:1042700025D0082927D0E521154801F071FB032D31
:1042800003D9E621124801F06BFB072E14D8300049
:1042900004F0A0FA041312171212121B80231B0140
:1042A000E418002C08D0C0222D0492022368154087
:1042B000084A13401D43256070BD8823EFE7032A99
:1042C000DFD89023EBE7032ADBD89823E7E7C04643
:1042D00061E20610FFFFFCFFF0B5160089B0059300
:1042E0000EAB04CB01901B780291049310AB1D78A8
:1042F000331FDBB20392129CFA2B04D83E213B48B9
:10430000FF3101F02DFB049B043BDBB2FA2B04D8F8
:104310009F213648490001F023FB6B1E012B08D971
:10432000FB222B1F134204D040213048FF3101F003
:1043300017FB119B2D02DF07039B3604002B46D091
:10434000059B002B04D1A0212848490001F008FB5F
:10435000049BFF2B04D142212448FF3101F000FBD4
:10436000F0231B011D40636A0793C0239B021E407C
:10437000029B2B4333433E0C00270024C0221F43E3
:10438000019B20001F650727049B92021B0413401A
:104390001D43039B9C4202D2154B984201D109B0A8
:1043A000F0BD019B5B6C3B40032B0CD8059B039934
:1043B0001B5D01342B4332008C4200D20022134398
:1043C000019AE4B2136507A8FFF7E0FEE1E7F023E6
:1043D0001B011D40636A3F0C0793C0239B021E40D4
:1043E000029B2B4333433E00C7E7C04661E2061001
:1043F0000200B200F7B50093043BDBB205000F00EA
:104400001600099CFA2B04D8AA211948FF3101F0A3
:10441000A7FA731E0193174B721E9A4204D9D52135
:104420001348490001F09CFA07226B6C1340032BE0
:104430001CD8C022009B92021B0413406A468021B4
:104440009288C9020A4313432B65381E0DD0089B7E
:104450002760F922A660E36102230020A361D20055
:10446000A958013B0B436660AB50FEBD0248FCE718
:1044700061E20610FFFF00000100B200F7B50193F2
:10448000043BDBB205000F001600099CFA2B03D891
:104490001549164801F064FA002E21D007226B6CF2
:1044A0001340032B1ED88023C021721E1B0392B21F
:1044B0001A43019B89021B040B4013432B65381ED2
:1044C0000DD0089BE760F922666123620423002077
:1044D000A361D200A958023B0B432661AB50FEBD3D
:1044E0000348FCE70348FAE76D02000061E20610AA
:1044F0000400B2000100B200F0B51F00043BDBB2C3
:104500008FB006000D001400FA2B03D85A495B48FF
:1045100001F026FA002C00D1AAE00722736C1340A8
:10452000032B00D9A6E08023621E92B21B03134323
:10453000C0223F04920217401F433765281E0ED049
:10454000149B00205B6A07950393042309940C9045
:104550000A930A9B042B02D1494B984201D10FB018
:10456000F0BD099B079C00933300C43301931D6881
:104570000F231D40009B9D4200D91D00002D17D127
:10458000009B07940993002B0CD1F92202210320F0
:10459000D200B3588B43B3500A900C9B002B01D030
:1045A0000C9B9847009B03A80993FFF7EFFDD0E70A
:1045B000082D0AD13700D83738682100FFF7FAFDF7
:1045C0003868211DFFF7F6FD05E0012D09D1330004
:1045D000D0331B682370009B64195B1B0093019B05
:1045E000C5E7022D06D13300D4331B6823701B0AA4
:1045F0006370F0E7032D0AD13300D4331B682370B6
:104600001B0A63703300D0331B68A370E3E73700E5
:10461000D83738682100042DD4D0052D06D1FFF7F6
:10462000C9FD3300D0331B682371D4E7062D08D1B0
:10463000FFF7C0FD3300D4331B6823711B0A63717D
:10464000C9E7072D0CD1FFF7B5FD3300D4331B6844
:1046500023711B0A63713300D0331B68A371BAE75F
:10466000FFF7A8FD3868211DFFF7A4FD0825B2E774
:10467000044874E7044872E7CA02000061E20610C9
:104680000200B2000400B2000100B20000290CD008
:104690000722436C1340032B09D8C023013989B288
:1046A0001B0319430165002070470248FCE70248DC
:1046B000FAE7C0460400B2000100B2008869704702
:1046C00000230B604B608B600B61CB604B618B6197
:1046D000802302681B061343036070470268436926
:1046E00070B51D20042A21D100200125053A1A6049
:1046F0004A78D206120F2C00160084402640B4429D
:1047000006D001300528F6D1FF2200201A7170BDB5
:104710000428F9D009180A7940001A601D300022D7
:104720001A715A71F3E72328EED002300A5CFF2A8F
:10473000F9D01A60F3E70000F8B505000E00170085
:104740000D4C39002800FFF7B9FF864202D0013C2A
:10475000002C0CD139002800FFF7B0FF301A43427B
:104760005841064B40421840054BC018F8BD012087
:1047700001F0ECF8E5E7C046E9030000FEFF4DFF5D
:104780000200B200F0B500270C0087B00E9D0600B5
:1047900010000A7909680495039702936379C9B2F6
:1047A00001930323009303003000FFF795FDB84207
:1047B00016D121693000FFF769FFB84210D1237D7F
:1047C0000C9A009001950D993000FFF757FEB84202
:1047D00006D16C6A0A4BAA69032A01D0984201D11A
:1047E00007B0F0BD00208442F5D00130013C01F05B
:1047F000ADF860426041024B40421840EAE7C046D3
:104800000200B200F7B500258C79C0B20134E40093
:1048100001942F0008248446085D84450BD10E19AD
:10482000F079FF2807D17078B84204D3B678012E0A
:1048300001D107002500019808348442ECD9002DED
:104840000BD04919087990704879507088791070A8
:104850000020CA7892001A60FEBD0148FCE7C046FD
:104860008000B20030B58B6987B0DB680C001500A2
:10487000002B0FD019681A79012303932378C9B24A
:104880000293FF230193002304950093FFF724FD77
:1048900007B030BD0048FBE78000B20070B51600DD
:1048A00000220400080086B00A9D039204951900B6
:1048B000037800920293FF23200001931300FFF777
:1048C0000BFD002806D103000095012231002000D5
:1048D000FFF712FE06B070BD30B50F24012385B07E
:1048E0008D696C442370AB6A002B0BD01B6800925F
:1048F000DBB22200FFF7D2FF002803D12378AA6B96
:10490000134023702078431E9841C0B205B030BDDB
:10491000F0B50F0087B0151E15D08E697469002C94
:1049200013D02279FF2A10D0216804930123039326
:104930003B78019202933368C9B200932B00FFF7D2
:10494000CBFC07B0F0BD0248FBE70248F9E7C046E0
:104950000400B2008000B200F0B51F008B6989B07E
:104960001C6A0500002C47D0002A47D0586A0E9ECA
:10497000B04243D34869C6B24869002800D10E78D6
:1049800021682079C9B207911099029604910021FB
:104990000391617901911B6807990093130002004C
:1049A0002800FFF799FC002824D1A1684B1C12D1E4
:1049B0002169002904D02800FFF768FE002819D1DA
:1049C000109A237D01920F9A3900009228000E9AC6
:1049D000FFF710FD0EE0109B227B0493FF23039052
:1049E000019300900300C9B202962800FFF774FCFF
:1049F0000028DDD009B0F0BD0148FBE70148F9E728
:104A00008000B2000400B200F0B51F008B6989B0CD
:104A10009C680500002C43D0002A43D04869C6B2E8
:104A20004869002800D10E7821682079C9B2079121
:104A300010990296049100210391617901911B68FC
:104A400007990093130002002800FFF745FC002897
:104A500024D1A1684B1C12D12169002904D028005F
:104A6000FFF714FE002819D1109A237D01920F9AA6
:104A70003900009228000E9AFFF700FD0EE0109B0F
:104A8000227B0493FF230390019300900300C9B29B
:104A900002962800FFF720FC0028DDD009B0F0BD09
:104AA0000148FBE70148F9E78000B2000400B200CA
:104AB000F0B5BFB006900D0007921F00002903D18A
:104AC000C249C34800F04CFF002308AA138093702A
:104AD00009AA138093706A6B0CAC05921A001A55E0
:104AE0000133642BFBD13A0007990698FFF7B8FB16
:104AF000059B002B04D1B74B049304983FB0F0BD45
:104B0000449B01940293382308AA00930599079BBC
:104B10000698FFF737FE04900028EED1A379062B04
:104B2000E9D82378532BE6D16378462BE3D1A378D9
:104B3000442BE0D1E378502BDDD12379052BDAD952
:104B40006379012BD7D100240AAB09AA0CA9A2488A
:104B50000A94FFF757FEFF200BAB08AA0CA900022E
:104B60000B94FFF74FFE0490A042C6D1AB68A3425E
:104B700003D19A49964800F0F3FEEB68002B03D16D
:104B80009749934800F0ECFE2B69002B03D195491F
:104B90008F4800F0E5FE6B69002B03D192498C48E9
:104BA00000F0DEFEEB69002B03D19049884800F04D
:104BB000D7FE2B6A002B03D18D49854800F0D0FE2B
:104BC000AB6A002B03D18B49814800F0C9FE449B9E
:104BD0000CAC02930B9B08AA00930194079B0599C8
:104BE0000698FFF7CFFDA37804905B079B0F002288
:104BF000032B01D0804AD25C0D9B2A60002B36DB50
:104C00000133DB08012211006B6016AB1B78042016
:104C10001B09994006236962E9680B6000230B7148
:104C200029690B7108600521AA63AA6A1371EB6AEE
:104C30001160002B03D17149654800F091FE2B6B88
:104C4000002B03D16E49624800F08AFE00222B6BD4
:104C500004A91A715A32521810784006400F0528DC
:104C600010D8012203F0B6FD086F757B6F6F8022AC
:104C7000033B12061343C5E701225242EA631A605E
:104C8000EB6A1A606022EB691F241A6000221A7115
:104C90000F23159A16991A40013250000A0E22402D
:104CA000013242434800800F564E4000805B0B406B
:104CB00042436A640A0A14404022890400D4383A04
:104CC0000221013301345B00634353430CAEAB64F8
:104CD000AC68B3788F43012F48D020221A405FD0B0
:104CE000737A6171236000232371337A5B0953D196
:104CF000013BA3601F220CAB1B7A052713402361E5
:104D0000022323752B68042B00D038E1449B09AAA9
:104D1000029325AB01930A9B059900930698079B84
:104D2000FFF730FD049003000120002B00D0F1E0DC
:104D3000791E259B042900D992E0080003F04AFD62
:104D4000A6A29E9A8C000221E9631A60EB6A3522C2
:104D500097E74021E9631A60EB6A052291E7802218
:104D6000EA63423A1A60EB6A01328AE710221A407B
:104D700051D0F37B6771236000232371B37B5B0900
:104D800045D1013BA3601F220CAB9B7B0327134043
:104D9000236101232375B5E7FF232173A360A9E7EE
:104DA000FF275B06AED5F37A227123606271B37A76
:104DB0005B0929D1013BA3601F220CAB9B7A04271E
:104DC00013402361022323759CE7C046AB09000012
:104DD000A2E206100500B20084FF0000E409000012
:104DE000E5090000E6090000E7090000E809000005
:104DF000E9090000EA0900008EE20610C808000078
:104E0000C90800009AE20610A7602273D4E7FF23C6
:104E10002773A360B7E73B4015D0737B22712360F3
:104E20006271337B5B090AD1013BA3601F220CAB8B
:104E30001B7B0227134023610123237562E7FF23B5
:104E40002273A360F2E703222260043A23716371A4
:104E5000A2602361237555E79B0601D5EC232360EF
:104E60002B6A259A04294ED8080003F0B3FC7979FF
:104E700079311300DB06F3D56C23F0E71B07EFD580
:104E8000BC23ECE75B07EBD53C23E8E79B07E7D5C2
:104E90000C23E4E780240120640014404042002CED
:104EA0000AD03E2200211A603C3A19715A7198606A
:104EB0001A7319611A7526E08021114018D0342226
:104EC0001C711A605C7198601C731C61323AF1E7C6
:104ED0008021012011404042002909D034221A606B
:104EE000002298601A715A711A731A610232E1E74E
:104EF000402422402CD0122219711A6059719860F6
:104F000019731961197525A92800FFF7E7FB002817
:104F100000D1F2E501233618013E32781B38934068
:104F2000AB610723159A4008584313000738C34064
:104F30000F210A40D9050132C90E013152005B052B
:104F40004A439B0F15495B005B5A5A432A64D4E5D8
:104F500002211A7119605A7198601A731A61A9E7CF
:104F600040210A404139002A06D012221A6000224C
:104F70001A715A719960F0E702201860F8E702226E
:104F80002B6A01211A600022494299601A715A71F4
:104F90001A731A611A750CA9B6E7C04692E2061098
:104FA000F0B589B0061E079200D12DE1002900D18D
:104FB0002AE14B680593002B00D125E1002A00D19E
:104FC00022E10B680693002B00D11DE1002303931F
:104FD0000493039B059A9B00D458002C4FD0237850
:104FE0005A1E012A08D9FB22043B134204D09921FE
:104FF0008648490000F0B4FC237A032B04D93421FD
:105000008248FF3100F0ACFCA369002B04D19A2147
:105010007E48490000F0A4FCA3691B68013B032BF8
:1050200004D936217948FF3100F09AFC2278501ECD
:10503000072800D9E6E003F0CDFB0432E534E5E5CE
:10504000E5368023C0201B01F518237A80021F0457
:10505000296838406E4F394001432960616849072B
:1050600023D5079930000091A169FFF721FD0028A1
:105070001BD00823039A9340049A1A430492039B7B
:1050800001330393039A069B9342A2D10020049B11
:10509000002B02D0B2200004184309B0F0BD8823D1
:1050A000D0E79023CEE79823CCE763689B07E6D54B
:1050B0002169E06803F01EFC002904D05221534806
:1050C000FF3100F04DFC2369524A934202D95A1E27
:1050D000134204D0A9214D48490000F041FCFF27AC
:1050E000E168A069B9438268036AA96021694942FD
:1050F000B943E96001680320013901406069471E36
:10510000B841000201432962002A37D0106800210B
:10511000471C0CD0117909048C46C02167468902CE
:105120003940FF2707408020000607433943C0204D
:1051300029645179800209049768014069648446B2
:105140000021781C08D06046117BFFB2090408409A
:1051500080210906394301430020A9641169814275
:1051600005D01F3001390140802000060843C021CE
:10517000E864127D890212040A402A65002B32D0AD
:1051800019680022481C09D0C0201A798002120434
:1051900002408020C9B2000601430A43C0202A66AB
:1051A0005A7980021204996802406A6600224F1CF4
:1051B00007D01A7BC9B212040240802000060143C6
:1051C0000A430021AA661A698A4205D01F31013AB2
:1051D0000A40802109061143C022E9661B7D920224
:1051E0001B0413402B67C0220221237A92021B0466
:1051F00013406268FF311140802212060A431343B4
:105200002B603CE7044842E7034846E7A2E2061069
:10521000FFFFFCFFFFFF00000400B200F7B50F0026
:10522000009015000193960800D101362C00B5427C
:1052300000D934002D1B0C4B20009C4200D91800D3
:10524000241A80B200F082FB002CF4D1019A3900BC
:105250000098FFF741FB002803D0002DE6D103485A
:10526000FEBD2000FCE7C046FFFF00000200B200C8
:10527000F0B51F00002389B005900D0016000793BC
:10528000994203D11E491F4800F06AFB002F03D149
:105290001D491C4800F064FBAA690E9B5268F31874
:1052A0001A48934227D909B0F0BD80230E9C5B02B7
:1052B0009C4200D91C003100AB6907AA1B68013B66
:1052C0009954090A002BFAD10F9901930291009485
:1052D0003B0029000598FFF797FB0028E3D10F9AC0
:1052E00003210598FFF728FA0028DCD10E9B361918
:1052F0001B1B0E933F190E9B002BD6D1D3E7C04644
:105300006D0B0000A2E206106E0B00000400B2005C
:10531000F0B51F00002389B004900C00150007931E
:10532000994203D12B492C4800F01AFB002F04D1DD
:10533000BC212948090100F013FBA2690E9B5168AA
:10534000EB188B4243D8536A244805930E9B002BDD
:1053500001D109B0F0BD0599280003F0CBFA0E9BEE
:10536000059A5B180E9E934200D3561A0F9A21009D
:105370000498FFF777FA0028EBD12900A36907AA60
:105380001B68013B9954090A002BFAD10F9901932C
:10539000029100963B0021000498FFF7DDFA0028F7
:1053A000D7D10F9A01210498FFF7C6F90028D0D170
:1053B000A2690F9B926C21000498FFF72FFF002831
:1053C000C7D10E9BBF199B1BAD190E93BEE70348B7
:1053D000BFE7C046BF0B0000A2E206100400B20007
:1053E000F0B51D00002385B001900C00160003935A
:1053F000994203D12649274800F0B2FAA3697719E8
:105400005A68974242D89B6930001900009303F014
:1054100071FA00293AD10099380003F06BFA1E485E
:10542000002930D005B0F0BD0099300003F062FAD9
:10543000009A6B182F00934200D3571A0A9A210042
:105440000198FFF70FFA0028ECD13100A36903AAF5
:105450001B68013B9954090A002BFAD10A9B2100D1
:105460000198FFF755FA0028DCD1A36921001A6CD6
:10547000FA239B005A4301980A9BFFF7CFFEF619C7
:10548000ED1B0028CED1002DCED1CBE70248C9E7D5
:105490001F0C0000A2E206100400B200A62205497B
:1054A000D2008B580220DB439B0702D0012388588F
:1054B000184070470000264010B5094B441E1B6879
:1054C0003B331B78A34203D80649074800F048FA4B
:1054D0008134064BFF34A400E058C00F10BDC04615
:1054E00074E70108EF03000006E306100000264001
:1054F00010B50F4B04001B683A331B78834204D865
:105500006E210C48FF3100F02BFA0B4BA400E4187D
:10551000D0239B00E05807231840042807D1C0235C
:105520009B00E0581F23034080204000184310BD1B
:1055300074E70108D7E206100000264010B5041EEB
:1055400003D11749174800F00BFAB023164ADB00C5
:10555000D3580F209903DB01DB0F890BE371134B49
:105560002160D358D904DB01DB0D2381B123DB009B
:10557000D358C90CA18019000140A172190901403A
:10558000E172D9029B009B0FA373094BC90CD3583E
:10559000A1815A05DB01520FDB0DA271238210BDE0
:1055A000A1020000D7E2061000002640840500009A
:1055B0008C05000010B5104B421E1B683B331B7856
:1055C000934216D97F221F248030FF300B4B80007E
:1055D000C3581A400A701A0C2240180A8A701A011D
:1055E0002040E240487000209B009B0FCA700B7166
:1055F00010BD0348FCE7C04674E7010800002640E0
:1056000001004A00F0B5574D89B02B6806003C33C5
:105610001B78984203D35449544800F0A1F9E02480
:105620000122534BB700FF18A4003B599B069B0F68
:105630009A402B6801923C331B789E4203D34D491C
:105640004A4800F08DF90F233C591C402000FFF719
:105650004FFF032854D008D8012813D062D9FFF790
:105660001DFF454B02280BD10DE01223FF3398425A
:1056700050D01423FF33984251D0033B984241D07D
:10568000002601E03D4B1E68002C4DD103AD1422D5
:105690002100280003F018FC2800FFF74FFFB0237B
:1056A000334ADB00D358002B03DAAC7B023C631E89
:1056B0009C41EA79039F531E9A41A8880132002C2D
:1056C00016D00023190003F025FA00230C00050072
:1056D0003A003000190003F01DFAE6076A08324369
:1056E0006308801859412A00230003F0F3F90600EB
:1056F000019B58088019190003F076F809B0F0BD35
:105700001F4BC0E71A4A1F4BD358002BB8DA80262C
:105710003602B9E71C4B1B695B07F8D4B0E7144AA3
:105720001A4BF1E71A4EAFE72B683B331B78A342C5
:10573000DED303AD05220021280003F0C5FB2900BC
:105740002000FFF737FF2000FFF7B6FE0024A0423D
:1057500003D02C79023C631E9C412F786878AA788C
:10576000ADE7C04674E70108EB07000006E306104A
:1057700000002640AC070000F0E40108F4E4010852
:10578000ECE401080C050000000027403C05000087
:1057900000127A0070B5194E050033680C001A002B
:1057A000283212781F2A15D8820807211000884352
:1057B0000FD103202840C00084401B689200203392
:1057C0009B182200FF24844019684A4014404C4032
:1057D0001C6070BD1B8F8B4203D18021084800F0F4
:1057E000BFF8336807201A68802328401B06184337
:1057F00080239B01E418A400A050EAE774E70108A5
:1058000036E306100A4B10B51B681A0028321278CE
:105810001F2A03D8198FFFF7BDFF10BD80221B6818
:105820008900C91812028B585B005B088B50F4E7A3
:1058300074E701080A4B70B59B680A4E10300D00E2
:105840008400B34209D1002904D142210648FF3126
:1058500000F086F83059355170BD044B1859FBE7FC
:1058600000ED00E00090000836E30610000006108E
:10587000F8B506000D00002841D04368032B03D97A
:105880003C21204800F06CF80023F05E002828DB63
:105890007188FFF77FFF0024FF220327944600232F
:1058A000F05E716883B21F40FF006646BA4089010E
:1058B0003140D243B940002815DB134E83089B00CA
:1058C0009B19C026B6009F593A40114399510F4B7E
:1058D0009A680F4B9A4202D12900FFF7ABFF2000D4
:1058E000F8BD0C4CD8E70F263340083B074E9B0809
:1058F0009B009B19DE6932401143D961E7E7054CF3
:10590000EDE7C04636E3061000E100E000ED00E000
:10591000009000080100560070B5802504002D029B
:10592000AC4205D8064B1868604302F005FF70BD15
:10593000044B186802F000FF034BE418F0E7C04680
:10594000A4910008A09100080080FFFF10B5034B50
:105950001B78584302F0F0FE10BDC046A891000825
:1059600070B50D00044C01001822200004F042F92B
:10597000A56101BEFEE7C04658980008FEE700009A
:1059800002680A4B10B5DA6142681A6282685A628C
:10599000C2689A620269DA6242691A6382695A636A
:1059A000C2699A63FFF7EAFF10BDC0465898000825
:1059B000B0235B055A782120002A01D05878C0B264
:1059C0007047B0235B059A89002A02D0988980B27B
:1059D000704780204000FBE710B5074C23682E334A
:1059E0001B78002B04D1E92104484900FFF7B8FFD8
:1059F0002368186A10BDC04674E7010844E1061028
:105A00007FB506000D00042803D92E492E48FFF764
:105A1000A7FF6B1E012B07D9FB222B1F134203D0BC
:105A20002A492948FFF79CFF294BB600F458042D5A
:105A300001D0012D27D100200FE0A3682B420BD10C
:105A4000E36829001A685B6802920193039302A835
:105A5000236898471F4B1C606469002C0BD01E4BB9
:105A60009842EAD1012DE8D11A4B1B481A681B4B0A
:105A70009A5104B070BD012DFBD1174B9842F3D061
:105A8000164B9C51F5E7022D06D1124B1B68181ED0
:105A9000EFD01C6903E01C006369002BFBD10020E0
:105AA000002CE6D0A3682B4209D1E36829001A68CC
:105AB0005B6802920193039302A8236898472469C4
:105AC000EEE7C046F509000065E30610F6090000A0
:105AD00030E501082CE50108FF00420018E5010847
