:020000041006E4
:1000000000C00208E39606100D000000419706109C
:1000100000000000000000000000000000000000E0
:100020000000000000000000000000003D970610E6
:1000300000000000000000003D9706103D970610EC
:100040003D9706103D9706103D9706103D97061008
:100050003D9706103D9706103D9706103D970610F8
:100060003D9706103D9706103D9706103D970610E8
:100070003D9706103D9706103D9706103D970610D8
:1000800010B5064C2378002B07D1054B002B02D06E
:10009000044800E000BF0123237010BDC8A500087C
:1000A0000000000088C20610044B10B5002B03D0DE
:1000B0000349044800E000BF10BDC0460000000036
:1000C000CCA5000888C20610F7B5684D2B684033F0
:1000D0001B78002B00D101BEE02201206449920070
:1000E0008B589B069B0F98402B68019040331B78E0
:1000F000002B00D101BE0F238A5813402A683E32DC
:100100001278934200D301BE2A683E32127893429D
:1001100000D301BE2A683E321278934200D301BE5A
:10012000534A9C00A418D02207209200A2580240F3
:10013000042A07D1C0229200A25818301040802211
:10014000520002438820400082425ED005D8002A37
:100150000DD0022A50D000260AE01220FF30824241
:1001600058D01420FF308242F5D1424A4EE0424E30
:10017000002B57D1B0248020E4000A594004970393
:10018000024094463D4A3E4D885804328A584D59A3
:100190000C59C004BF0BC00C1900002C04DA9100EC
:1001A000890F02394C1EA1416246531E9A41013209
:1001B00000291AD0002818D0002A16D000231900D0
:1001C0000AF03AFC00230C0005003A003000190048
:1001D0000AF032FCE6076A08324363088018594186
:1001E0002A0023000AF008FC0600019B5808801929
:1001F00019000AF075FBFEBDA620C0000A580026B3
:10020000D2439207B4D00A58B2E71E4A8E58F60F6E
:10021000F603ADE704201C4A16690640A8D08026E4
:100220003602A5E72A683F3212789342DDD8013BB7
:10023000164D9A4213D97F271F226159080A0B0CC9
:100240000F4089001040890F1A40002364599C42D6
:1002500003DA02390B00591E8B411900A8E701BED1
:1002600000210A0008000F00EFE7C046E4A50008DF
:10027000000026403C05000000127A0084050000C2
:100280008C0500000C05000000002740FC05000064
:10029000074B5B68DB681A68002A06D05B68186841
:1002A00001231840034BC01870470348FCE7C046C1
:1002B000E4A500080001880004018A004378027860
:1002C0001B021A438378C0781B04134300061843AB
:1002D0007047104B30B51B681A001800753214783F
:1002E0007630013A0078127899687733824018782E
:1002F00003231D008540280010438022120602437C
:1003000001200340A34013438022D2008B500020E1
:100310008B5830BDE4A50008084B00201B681A006C
:10032000996801237532127893401A008023DB0507
:1003300013438022D2008B507047C046E4A50008CA
:10034000F7B500258C79C0B20134E40001942F0088
:1003500008248446085D84450BD10E19F079FF28E6
:1003600007D17078B84204D3B678012E01D10700C6
:100370002500019808348442ECD9002D0BD049198E
:100380000879907048795070887910700020CA7888
:1003900092001A60FEBD0148FCE7C0468000B20032
:1003A000074A136833331B78834200D801BE1368B1
:1003B0001A00BA3212881B6A5043C0187047C046F0
:1003C000E4A5000870B504000020FFF7E9FF144B16
:1003D00014491B68BC331A68002382180568002D75
:1003E00006DB8B4202D18420404270BD0133F5E729
:1003F0008B42F8D00123C460836000230A4910684F
:10040000002803DA8B42EED00133F8E78B42EAD0C2
:10041000A0222368120600209342E6D01800E4E7E9
:10042000E4A50008983A0000009435771FB5084B02
:10043000002402936B4602A8039301AB019400933E
:10044000FFF7C0FFA04200D00194019804B010BD96
:10045000001B0035002803D00378013B1F2B00D977
:1004600070470130F6E7002210B504001000A15CCF
:100470000B00303B092B09D830380818531C032ACD
:1004800003D000011A00042BF1D110BD0B00413B39
:10049000052B01D83738F0E70B00613B052B01D85D
:1004A0005738EAE70020F0E7F0B50B7885B0039005
:1004B00017004D1C222B17D0116000202AE05C2A67
:1004C00007D1019A5278002AF7D0019A01330132FC
:1004D0000192019A01320192019A1278222A00D1E6
:1004E000A7E0002AEBD1E8E701950023F4E72B7899
:1004F0005C2B11D0237001350134019B9D42F6D352
:100500000023039A23700833D36013000198029AE2
:1005100001301A6105B0F0BD6B78662B63D014D83A
:100520002F2B61D007D8222B5ED0484B3D605B68F3
:1005300002989847C1E75C2B56D0622BF5D108236F
:1005400023700134063BED18D7E7722B50D006D844
:100550006E2BEAD10A2323700134083BF3E7742B96
:1005600048D0752BE1D1019B5B1B052BDDDDA81C61
:10057000FFF779FF364B374AC31806009342D4D9A8
:100580000028D2D0344B334AC318934234D8019A4E
:10059000AB1DD31A052BC8DDAB795C2BC5D1EB792C
:1005A000752BC2D128000830FFF75DFF284B294A80
:1005B000C3189342B9D8294BB6021E408023800548
:1005C000800D5B020643F6180C23254A96421FD97C
:1005D000244A9642A9D83F203040802676420643DE
:1005E000E670042212E00C23237001340223AAE7F0
:1005F0000D23F9E70923F7E77F2804D91A4B98421E
:100600000ED90623E1E7062301222070A4189AE7F9
:100610003F203040802676420643A6700322F5E74D
:100620003F20802306405B421E43667086330222D1
:10063000ECE7019A501AC01A044B04301B68984723
:100640000290041E00D058E737E7C04680A000089B
:100650000024FFFFFF0300000028FFFF00FC0F0045
:10066000FFFF0000FFFF1000FF070000F8B5802625
:1006700004007600002C00D1F8BDE36827683342FF
:1006800004D1A068002801D0FFF7F0FFE3680B4D0C
:10069000334204D12069002801D06B68984780223A
:1006A000E3689200134204D1206A002801D06B68ED
:1006B000984720006B6898473C00DBE780A0000863
:1006C00070B5056804000020FFF76AFE0023164994
:1006D0000268002A05DB8B4201D1FF2070BD013387
:1006E000F6E78B42F9D0012223002A4000D023688C
:1006F0000E4C2468BC342468C3600123836000234B
:1007000005192D68002D03DA8B42E6D00133F7E797
:100710008B42E2D0C068002A00D10068A0231B06EB
:100720009842DBD10020D9E7983A0000E4A5000800
:10073000002210B5094B86B00193039003AB04006F
:1007400001A8029304920591FFF7BAFF4342584172
:1007500040420440200006B010BDC04600220035D3
:10076000034B1B68BC331B68C0180068C00F704780
:10077000E4A50008DC23F0B5002487B09B050493B2
:1007800004AE02AB73600290200003940191170045
:10079000FFF706FE05002300144C2A68002A07DB39
:1007A000A34203D10120404207B0F0BD0133F4E77A
:1007B000A342F7D00123EE600026AB602800FFF7CC
:1007C000CFFF002803D0A642ECD00136F6E7A642C0
:1007D000E8D0A023049A1B069A4201D00498E3E7CC
:1007E000029B019A3B60039B1360DDE7983A00008F
:1007F00070B5FFF769FC002822D0124B1B681A0065
:10080000883212681B689B1819681C68090E013130
:10081000240A0AF065F8E1B201310AF061F8451ED8
:10082000094928000AF05CF8FA21084C01302072CE
:10083000890028000AF054F80130E060C00320610C
:1008400070BDC046E4A5000840420F0080A000082B
:10085000174A30B513681C002C3424781F2C16D886
:10086000820807241500A5432C1E0FD10334204015
:10087000A04081401B68920020339B180A00FF2192
:1008800081401C68624011406140196030BD9B8FFF
:100890008B4200D101BE13681A68072318408023D9
:1008A0001B06184380239B01C91889008850EDE777
:1008B000E4A50008F8B5436805000C00032B00D937
:1008C00001BE0023E85E00282CDB6988FFF7C0FF2B
:1008D0000020FF27032639000023EA5E6D6893B2EB
:1008E0001E40F600B140AD013D40C943B540002A6D
:1008F0001ADB134E93089B009B19C026B6009F5924
:1009000039400D439D510F490F4B8D689D4208D1D1
:1009100089688B4205D1002C00D101BE10329200B3
:100920009C50F8BD0948D4E70F263340083B054EDC
:100930009B089B009B19DE6931400D43DD61E2E7B6
:1009400000E100E000ED00E000A00008010056001A
:1009500010B5FFF7B9FB074B1B681A008832126805
:100960001B689B181968090E01314B08181809F00B
:10097000B7FF10BDE4A5000810B5FFF7E9FF084B6D
:100980001B681A00883212681B689B181968090ACC
:10099000C9B201314B08181809F0A2FF10BDC046BA
:1009A000E4A50008F0B58C46002800D101BE83699B
:1009B0005868904219D91D6D002D03D00020DF6CBE
:1009C000874201D10A480DE08300EC582668B24204
:1009D00009D3E36861684B439B199A4203D263468B
:1009E00000201C60F0BD0130EAE70248FAE7C0468B
:1009F0000600B2000400B20000290CD00722436CAC
:100A00001340032B09D8C023013989B21B031943B2
:100A10000165002070470248FCE70248FAE7C0463B
:100A20000400B2000100B200F7B50200C4324C6904
:100A30000D00CB68019211680F220A40A24200D932
:100A4000220007000100D437D8310097002A12D1C4
:100A5000EB606C61002C0CD1F9220221D20083588A
:100A60008B4383500320A8612B6A002B01D02B6A93
:100A700098476C61F7BD082A19D10E68370A1E70B5
:100A80005F70370C360E9F70DE700E68370A1E716D
:100A90005F71370C360E9F71DE710F269B18A41AFA
:100AA000019A12683240A242D0D92200CEE7012A30
:100AB00004D10600D03636681E70EEE7022A05D152
:100AC000009E36681E70360A5E70E6E7032A09D17A
:100AD000009E36681E70360A5E700600D036366894
:100AE0009E70DAE7042A08D10E68370A1E705F701C
:100AF000370C360E9F70DE70CFE7052A0CD10E68DA
:100B0000370A1E705F70370C360EDE7006009F705D
:100B1000D03636681E71C0E7062A0DD10E68370A36
:100B20001E705F70370C360EDE70009E9F70366848
:100B30001E71360A5E71B0E7072A11D10E68370AB6
:100B40001E705F70370C360EDE70009E9F70366828
:100B50001E71360A5E710600D03636689E719CE7BB
:100B60000A68160A1A705E70160C120E9E70DA7001
:100B70000A68160A1A715E71160C120EDA719E71ED
:100B800008228AE7F0B58B6885B00193030008332B
:100B90000D680393DC6F0F231C40073B1C1B019B5C
:100BA00000900F009C4200D91C00009B009E9433D3
:100BB00098360293002C14D1019B3D60BB60002B42
:100BC0000DD1F9220120009BD2009B58009983434C
:100BD0008B50B861FB69002B01D0FB69984705B0C9
:100BE000F0BD082C16D12800FFF768FB3060281DE7
:100BF000FFF764FB3060019B2D191B1B0193039BC6
:100C0000DC6F0F231C40073B1C1B019B9C42D1D96E
:100C10001C00CFE7012C04D12A78009B90331A6086
:100C2000E9E7022C06D12A786B781B021343029A5B
:100C30001360E0E7032C07D16B782A781B0213437B
:100C4000029A1360AA78E8E72800FFF737FB042C24
:100C5000D0D03060052C01D12A79DEE7062C02D1F4
:100C60002A796B79E1E7072C07D16B792A791B0286
:100C70001343029A1360AA79CFE7281DFFF71EFBE2
:100C800008243060B7E7F0B5490085B001919900BC
:100C90000C230AAC19402478093B1A400A436142EC
:100CA000614100261F2709010A4303900292019D1A
:100CB0009900CD400F2200241540039A51180A686C
:100CC0000120054205D03800A04082430298A04090
:100CD000024308346D08202CF2D10A605C1E002B00
:100CE00007D10B685A401F239A4309D1300005B041
:100CF000F0BD0B68934205D12300621CD7D1F5E704
:100D0000014EF3E7004EF7E70300C20010B50028DC
:100D100000D101BE4B89DB0B00D001BE02238A79D2
:100D20009A43012A00D001BECA799A43012A00D011
:100D300001BE4A897F2314009C4322D107248B796A
:100D40005202234013434A7A313492071343CA793B
:100D5000097AD2002240134301224A4092011343F0
:100D60001A0009490A409A420BD14262406A08407F
:100D7000801A43425841054B40421840044BC0186A
:100D800010BD0448FCE7C046DBFEFFE0FDFF3DFF71
:100D90000300C2000100C200F8B51E4D1700EA684A
:100DA0000E00002A00D101BE2C24FF21444318006C
:100DB000EA68084014191A0A0A401B0CA360206054
:100DC0006260FFF7EDFA2B682061343361681B78AD
:100DD000994200D301BE0F4B1B681A6A0B00803387
:100DE0005B01D3186361A368180C01D001BE01BE7A
:100DF00049011B0452180849180C03435218136088
:100E00000023A361069BE7612662002B01D01B88AB
:100E1000A381F8BDE4A500080810000070B5040027
:100E20000D00FFF79DFC002802D00020656070BD1A
:100E30000048FCE701008A00F8B5264BDA68002A72
:100E400000D101BEDC68002C00D101BE2369002B5B
:100E500000D101BE6369002B00D101BE236A002BC3
:100E600000D101BE6269D5682B0C1ED01B04136033
:100E700020691368FFF774FC002816D02769380032
:100E8000FFF76EFC061E0CD0F868E26903681E0CC2
:100E9000DBB2934205D2226A9B009B58002B00D004
:100EA000984731002069FFF7B9FFADB2002D09D096
:100EB00063691D6000251B68636AAB4205D09847D3
:100EC0006562A56163691B68F8BDA36A002BF8D051
:100ED0009847F6E7E4A5000810B5072900D901BE38
:100EE0001F2314009C4300D001BE0E4B1B689C695D
:100EF0005B69001BC0090001C0181F231A400329A9
:100F000007D8C9008B408A4004689C432243026092
:100F100010BD0439C9008B408A4044689C43224379
:100F20004260F5E7E4A50008F0B5060085B00D00C5
:100F30001400002800D1F2E0072900D901BE23687F
:100F4000012B00D901BE0F2362689A4300D001BE75
:100F50001F22237A934300D001BEE368032B00D9FC
:100F600001BE2369012B00D901BE6369012B00D9A1
:100F700001BE236A012B00D901BE636A012B00D98F
:100F800001BEA36A012B00D901BEE36A032B00D97D
:100F900001BE236B072B00D901BEE369032B00D9E7
:100FA00001BEA369012B00D901BE01231A00AA408A
:100FB0005C4F01926A000292103294463A68E169ED
:100FC00083321078801902680292A2691340AB4004
:100FD00003220393634611409940039B0B436146F0
:100FE0008A4001990A43029991430B430360636865
:100FF000072D00D901BE0F221900914300D001BE78
:101000000F20AA0002923A6807008132127803404A
:10101000B2181168A8008C46A9008F406146834031
:10102000B9430B431360227A29003000FFF754FFC5
:10103000E368082D00D901BE032B00D901BE0320AF
:10104000384A070012680340803212786800B218EC
:10105000116883408C4669008F406146B9430B4359
:1010600013602369082D00D901BE012B00D901BEF0
:101070000199B269CF4301210B40AB403A40134381
:10108000B3616269072D00D901BE012A00D901BEF2
:10109000244B19680B0082331878843130180368A8
:1010A000029301231A40AA409C46029B1F4017430B
:1010B000022207600427636A09785B001340A26A72
:1010C000711892003A4067461343226A0868174035
:1010D000E26A3B43D70018223A40FF271A43236BAA
:1010E000B8435B013B401343FE229C469200AB0099
:1010F00013401A0063469340184308602068072D88
:1011000000D901BE012804D901BE019B0020B360B3
:1011100003E00028F9D1019B736005B0F0BD0248DF
:10112000FBE7C046E4A5000801005A0010B5002006
:10113000FFF736F9FFF714FB002844D1234A24496E
:1011400013698B420FD010D8402B36D005D8002B16
:1011500037D0102B2FD01F481FE0802B2FD080219D
:1011600049008B42F7D11A4817E01B498B421CD02B
:1011700009D8A02109068B4223D01849A0208B4210
:10118000E9D1C00309E016498B4210D015498B42C2
:101190000FD015498B42DED11448136801225B68D9
:1011A0009A609A68002AFCD110BDA420E9E7104893
:1011B000F3E71048F1E71048EFE71048EDE7104873
:1011C000EBE70020E9E70D48EEE7C046E4A500089C
:1011D00006005200FF005200010000F0090000A0CC
:1011E000040000F0050000F0030000F001005200D0
:1011F00002005200030052000100500002005000A3
:1012000005005200024B80001B6A5B68C0587047A3
:10121000E4A50008034A5369591C01DA013B5361F4
:101220007047C04680A0000810B5144C63695A1C72
:1012300023D0002B1ED1200011491830FFF73AFBB4
:101240001822A35E002B06DB1F2213401E3A9A4091
:1012500013000C4A136000220B4B5A629A62DA6246
:101260005A631A639A63DA638023084A1B0611687B
:101270000B43136063690133636110BD80A00008F4
:101280009112061000E100E0E4A5000800004240D1
:1012900070B501251B4C1C4BE3582B4209D01B4950
:1012A00020002431FFF76EFCF823DB00E550E35803
:1012B00070BD02252B4205D0144920002431FFF7D0
:1012C000B3FBF1E70422134206D005210F4BD9638B
:1012D000F823DB00E250EAE70822134202D00B4B6E
:1012E0000621F4E710210B4206D00722074BDA63F0
:1012F000F823DB00E150DAE720210B42D8D0034B82
:10130000F5E7C04600004240CC070000E4A5000815
:1013100010B5002804D043787F2B01D9FFF77AFF5E
:1013200010BD10B50B4A1368002B02D10124644292
:1013300005E01C7804328442F5D100240B600B6870
:10134000002B04D05B787F2B01D9FFF76DFF2000C5
:1013500010BDC04688AD06100223002803D0043318
:10136000012800D0F93318007047F7B5284E050062
:101370003300FF335F7E0123002F03D0FE33012FA4
:1013800000D1FA3BAB420ED15820784333185B6A48
:10139000283001931F4B36181F68002F10D10124ED
:1013A00064422000FEBD3800FFF7D6FF01248542CD
:1013B000F7D15820784333181B6D54300193E9E777
:1013C0003A7804339542E7D17B78BC687E2B02D90A
:1013D0008025AD0001E000240125281901382900ED
:1013E00009F07EFA0300C0208000834200D96D001E
:1013F00000237968019A002C03D18342CFD833604F
:10140000CFE7116055604919641B01330832F2E7D8
:1014100098F2010888AD061010B5020001290DD020
:101420000320022909D00438002906D10120002A0E
:1014300003D00430012A00D0FA3010BDFFF78CFF32
:10144000FBE703780422190000209143012905D00D
:101450000130022B02D0062B00D0023870470378EF
:1014600000205A1E012A05D90130052B02D0062B77
:1014700000D00238704770B504000800FFF7EFFF96
:1014800000282ADB602319004143154A51188D6B4F
:10149000C96BA54202D84919A14208D8584310186F
:1014A000026C436CD318944217D39C4215D2F0239C
:1014B0000C4A1B06E318002093420DD90A4B9C42AC
:1014C0000BD9C022094B52055B6A1B689B695B689C
:1014D0009B189C424041404270BD0120FBE7C04642
:1014E00050EE0108FFFF0500FFFFFF1780A0000876
:1014F000F0B580258224802640272D01A400094BC9
:101500001A68944661463200294200D13A001B59BC
:10151000DB05DB0D9342F2D09023024A9B00D050B2
:10152000F0BDC0460000654010B504002422002133
:1015300008F057F9200010BD70B590B007AE050057
:1015400030000C00FFF7F0FF80230D4A9B004E3265
:10155000039210220A930B4B1C340B930A4B01A8E5
:1015600007930A4B0496019303AB029305940692EA
:10157000FEF728FF002801D101232B7610B070BDA3
:10158000E4A500080100C004002480000009003523
:1015900010B50A780478012394420BD80CD3447810
:1015A0004A78944206D807D340884A88904201D8A6
:1015B00090429B41180010BD01235B42FAE710B531
:1015C0000400FFF715F90D4B0D4A1A6100225C610A
:1015D0009A61DA611B685433187890420BD0FFF798
:1015E000CBF9FA21890009F07BF90100054809F0DF
:1015F00077F9054BC01809F0B7FB10BDE4A500084A
:101600000001001C60F5900098080000064B10B522
:101610001B6828209847041E03D02822002108F0C8
:10162000E0F8200010BDC04680A0000870B5144B43
:10163000144E3360FFF7DCF88023134D03202B603A
:101640002B0008336B60FEF7ABFE04002B68706064
:10165000DA080021686808F0C4F800212000FFF7CC
:10166000DDFB2368002B05DA0021E5602000A16086
:10167000FFF7D4FBF368002B01D1044BF36070BD7E
:101680007CB10610E4A5000800000008F0A80008DE
:10169000F7B5184C07002300FF33587E3900FFF7D9
:1016A000BBFE01A9C0B2FFF73CFE051E03D0012519
:1016B0006D422800FEBD019843787F2B05D05BB2B8
:1016C000FF26002B02DB06F0FBFA2E00FFF720FEC0
:1016D00023005820FF335B7E58432C235F43C019FF
:1016E0002018031D9842E4D00130421E1278B24205
:1016F000F8D0DCE798F2010810B543787F2B05D0CD
:101700005BB2FF20002B02DB06F0DAFA00200B00B0
:101710001C78844205D101335C1AA242F8D801201A
:1017200010BD0020FCE710B5010004000A4808F0D5
:1017300013FB002398420DD02100084808F00CFB51
:101740000123002806D02100054808F005FB43428C
:1017500043415B00180010BD40B4061049B40610A8
:1017600055B4061010B5010004000B4808F0F4FA57
:10177000002398420DD02100084808F0EDFA01231B
:10178000002806D02100064808F0E6FA434243410B
:101790005B00180010BDC0465AB4061063B40610B2
:1017A0006BB40610F0B507000D00002491B001AE37
:1017B000002D02D1280011B0F0BD296A002904D003
:1017C000380008F0C9FA0028F4D0AB68002B06D026
:1017D0000E2C12D8A200955101341D00E8E72B68A9
:1017E000002BFAD1002C0AD0013CA3009B591B68A6
:1017F000002BF2D1002CF7D1EFE70025DAE7250026
:10180000D8E710B5FFF7CEFF0124002809D0816882
:10181000002906D00448FFF7C5FF002801D0C4689E
:10182000E4B2200010BDC04673B40610F0B5002627
:1018300085B00093150003003400029003911F78D7
:101840005A1C0192002F08D0039B002B0FDB1300C2
:10185000029A9B1A039A9A4209DA009BA34261D921
:10186000002D01D000232B55200005B0F0BD3B001A
:10187000093B042B34D9202F32D02C4839002E308C
:1018800009F007F8031E05D12D2F0AD05F2F49D18B
:10189000264B6D33032E23D8300009F0E3F90510F1
:1018A0002335224B6C33F5E7002D06D0009A944285
:1018B00038D21F4A9B1A9B002B55012610E0621C50
:1018C000002D0BD0009991422CD919492C195B1A83
:1018D0002178181101431B012170AB54140002261A
:1018E000019BACE7621C002D0BD00099914219D9E5
:1018F0000F492C195B1A2178981001439B01217024
:10190000AB5414000326EBE7002D08D0009AA24246
:1019100008D907492A195B1A11780B43137001344F
:101920000026DDE7012464429EE7C04688AD06102C
:10193000B6AD0610F8B50E002E21170008F0A9FF6D
:10194000041E0CD0451C2E21280008F0A2FF002800
:1019500005D0001B0138386000203560F8BD162026
:101960004042FBE7F0B5040085B00F0016000029E7
:1019700001D1002013E004226F49380008F09FFFD6
:10198000002803D10223E360381D08E005226B49DB
:10199000380008F094FF002803D1E060781D05B0FE
:1019A000F0BD04226649380008F089FF002806D1FE
:1019B00001230122E3600023A261E361E4E73B78B5
:1019C000222B05D1320039002000FEF76DFDE6E73D
:1019D0002D2B03D01A00303A092A24D800250A22D8
:1019E00003A93800039508F06DFA030003988742B5
:1019F000BFD05A1C0AD1534A914211D10122514BF6
:101A00005242A261E3610423E360C8E7002B07D1DF
:101A100080221206914203D1802300221B06F0E7A8
:101A2000A361E161EFE75B2B35D1781CFEF712FD76
:101A3000037805005D2B26D00023013D0193009320
:101A4000FFF7E4FD009B071E6FD0002B19D0019B10
:101A500018604360681CFEF7FDFC3200010038008E
:101A6000FFF780FFFEF7F6FC051E06D0037801970E
:101A70002C2BE5D05D2B08D030600098FEF7F6FDEA
:101A800077E70090E6E7002300931023E360009BD4
:101A9000681CA36083E77B2B4BD1781CFEF7DAFC34
:101AA000037807007D2B38D00023013F019300937A
:101AB000FFF7ACFD009B051E37D0002B17D0019B14
:101AC00018604360781CFEF7C5FC32000100280056
:101AD000FEF7EAFCFEF7BEFC0028CED02B692B6295
:101AE00000232B6103783A2B03D03060C5E70090C8
:101AF000E8E70130FEF7AEFC320001002800FFF7F6
:101B000031FFFEF7A7FC071EB7D0037801952C2BF9
:101B1000CED07D2B03D03060AFE70023009320238D
:101B2000E360009B781CA36039E7002B00D120E71D
:101B3000A3E737601DE7C0467BB406101CB406104F
:101B400080B40610FFFFFF7F70B50600FFF75EFD53
:101B500000230B4D04002B6598420ED03000FEF799
:101B600079FC2A00010050322000FFF7FBFE051E21
:101B700003D12000FEF77AFD2C00200070BDC04686
:101B8000E4A5000810B5034B1B7A584307F098FDF5
:101B900010BDC04680A00008F0B585B002930AAB26
:101BA000070001CB0E9D01900CA80478101FC0B255
:101BB0001B78FA2800D801BE181FC0B2FA2800D836
:101BC00001BE601E012804D9FB26201F304200D030
:101BD00001BE2602F0240D982401C0030390019851
:101BE0001204002840D00298002800D101BEC02075
:101BF0008002FF2B00D101BE02400020344021436F
:101C00006E6A0A43002502433A65C02228001B047D
:101C1000920213401C43019B9D4202D2174B9842F3
:101C200001D105B0F0BD07227B6C1340032B0BD80C
:101C3000029B01995B5D01352343039A8D4200D2DB
:101C4000002213433B65EDB200208642E3D0013011
:101C5000013EFFF797FF3000431E9841084B40427A
:101C60001840064BC018D6E7C0203440800202401E
:101C700021436E6A0A430398C4E7C0460200B200DB
:101C8000FEFF4DFF30B58B6987B0DB680C00150097
:101C9000002B0FD019681A79012303932378C9B256
:101CA0000293FF230193002304950093FFF774FF31
:101CB00007B030BD0048FBE78000B200F0B587B048
:101CC00002930B6805000E0010000A79D9B2242394
:101CD0009C462B4C0C9FA44463460493002303931F
:101CE000737901930323009303002800FFF754FF47
:101CF000002832D131692800FEF77EFE00282CD161
:101D0000337D1A1FD2B2FA2A00D801BE002F33D079
:101D100007216A6C0A40032A30D88022791E89B2D2
:101D200012030A43C0211B0489020B4013432B6595
:101D30000D9B00202363F9220423A763D200606473
:101D4000E363A958023B0B43AB50A56C67630D4B93
:101D5000E26B032A01D0984201D107B0F0BD002008
:101D60008542F5D00130013DFFF70CFF6842684124
:101D7000044B40421840EAE70348EEE70348ECE72B
:101D8000E4A500080200B2000400B2000100B200A5
:101D9000F0B50500181FC0B28BB0FA2800D801BEFC
:101DA0000724686C2040032801D9174C19E0C02093
:101DB0001B04800203408020541E00032043034381
:101DC0002B650C1E0DD0109B00245E6A042303912A
:101DD000059208940693069B042B02D10B4FBC423C
:101DE00002D120000BB0F0BD002469462800FEF7A8
:101DF0001BFEA642EFD00120013EFFF7C3FEA64224
:101E0000E9D13C00E7E7C0460100B2000200B200A1
:101E1000F0B5D5B008900C0009921E00002900D141
:101E200001BE0023190010AA1380937011AA138019
:101E3000937012AA13809370626B079222AA99542E
:101E40000133642BFBD1099B581EC3B2012B08D967
:101E5000099B042B00D1CCE3082B01D100F0CFFB70
:101E600001BE032E00D901BE072818D808F004FFD0
:101E700008001D001700C403170017001700CB034C
:101E80008022089B12019A18002A08D0C02033042F
:101E9000800211680340714801400B431360079BA7
:101EA000002B05D16E4B069307E3089B8822E9E7D8
:101EB000382322AD00930195099B10AA0799089831
:101EC000FFF7FCFE0690002800D0F6E2AB79062B67
:101ED000E8D82B78532BE5D16B78462BE2D1AB7841
:101EE000442BDFD1EB78502BDCD12B79052BD9D9C2
:101EF0006B790B93012BD5D1139013AB11AA290049
:101F00005848FEF71DFA069B12AA1493290014AB39
:101F10005548FEF715FA554A069B904201D1E364F5
:101F20002365FF20159310AA15AB22A90002FEF726
:101F300007FA0690002800D0BFE2A368002B00D16A
:101F400001BEE368002B00D101BE2369002B00D144
:101F500001BE6369002B00D101BEE369002B00D1F3
:101F600001BE236A002B00D101BEA36A002B00D161
:101F700001BE159B22AD009310AA099B07990195FC
:101F80000898FFF79BFE01220A901000297F16ABEC
:101F9000884017901000697F1970A97F8840E97FF9
:101FA0001A901973692108A809181000C97F884080
:101FB0006A211D9008A80918C97F19766B21091894
:101FC000C97F23AB8A402092DA7F3D231B18DA7742
:101FD000AB7800225B079B0F032B02D0244A6D32A3
:101FE000D25C226023A8FEF769F9002830DB0130BB
:101FF000C008012211002CAB1B7860601B099940BE
:1020000006236162E16804200B6000230B712169E3
:102010000B7108600521A263A26A1371E36A116063
:10202000002B00D101BE236B002B00D101BE00228A
:10203000236B08A91A71A232521810784006400F7B
:1020400005281DD8012208F00DFE15E7EDF3E7E79E
:10205000802303381B061843CBE7C046FFFFFCFF75
:102060000500B20084FF000081FF00008000B20084
:1020700088AD061001225242E2631A60E36A1A60D8
:102080006022E3691F271A6000221A710F232B9A1E
:102090002C991A40013250000A0E3A400132424354
:1020A000BE4D4800800F40007035405B0B404243FE
:1020B00062640A0A17404022890400D4383A022098
:1020C00001335B0001377B43534322AAA364A56815
:1020D00093788643012E00D1B1E02021194000D130
:1020E000C7E0537A68712B6000232B71137A5B0968
:1020F00000D0BAE0013BAB601F2222AB1B7A052661
:1021000013402B6102232B752368042B00D0EEE1D2
:1021100031AB1B785A0601D4A14A06920120034232
:102120002DD09B0713D5E368002B10D019681A79BE
:102130009C4B039024330493099BC9B20293FF2361
:102140000193002308980093FFF726FD0690069B55
:102150001A00934B9A4201D0002A21D1914B0022C0
:102160002433049301230393099B00920293FF23DA
:10217000B721019308981300FFF70EFD0690069B08
:10218000002B0DD13BAB0193139B11AA0093079930
:10219000099B0898FFF792FD0690002800D1A6E061
:1021A000012054AB1B18C93B1A78012393401B38FC
:1021B000A36143080C930F232B9E0020334001336F
:1021C0005B000A93FA239B0080279C4618AD3300DE
:1021D000C3401F211A090A405B0A1C390B40390011
:1021E000022B06D06146032B03D01021012B00D017
:1021F0000F390A9B01325A434A4307302A600C3593
:102200001C28E4D10C9B1038584354AB18180538DF
:10221000FF3883682364DBE00221E1631A60E36A2C
:1022200035222CE74021E1631A60E36A052226E7A4
:102230008022E263423A1A60E36A01321FE710210A
:10224000194033D0D37B6E712B6000232B71937BAD
:102250005B0927D1013BAB601F2222AB9B7B03268E
:1022600013402B6101232B754EE7FF232873AB60CE
:1022700042E7FF265B0600D446E7D37A29712B603C
:102280006971937A5B090AD1013BAB601F2222ABD3
:102290009B7A042613402B6102232B7534E7AE6032
:1022A0002973F3E7FF232E73AB60D5E7334015D0D6
:1022B000537B29712B606971137B5B090AD1013B48
:1022C000AB601F2222AB1B7B022613402B61012334
:1022D0002B7519E7FF232973AB60F2E703222A600D
:1022E000043A2B716B71AA602B612B750CE7013ED0
:1022F0003B9B042E09D8300008F0B4FC1D191511C1
:1023000003009B0601D5EC232B60236A3B9A042E25
:1023100056D8300008F0A6FCDCDCDC311300DB060C
:10232000F3D56C23F0E71B07EFD5BC23ECE75B0785
:10233000EBD53C23E8E79B07E7D50C23E4E78025B2
:1023400001206D0015404042002D0AD03E220021A0
:102350001A603C3A19715A7198601A7319611A75AA
:102360002EE0802111401FD034221D711A605D7152
:1023700098601D731D61323AF1E780210120114000
:102380004042002910D034221A60002298601A714D
:102390005A711A731A610232E1E7C04688AD06101D
:1023A0008000B200E4A5000840252A4000D187E063
:1023B000122219711A60597198601973196119758F
:1023C00016AA3BA9200005F0B5FB002800D0E8E6DE
:1023D000236D002B71D022AB0193149B12AA0093A2
:1023E0000799099B0898FFF769FC0690002864D1BB
:1023F0000700149B3B900C93844B07900A93022197
:10240000079A22ABD25C0A4000D184E00A9B002BE1
:102410004AD1692208AB6831C918D2180798079BBE
:10242000105CCB5CB84200D0C6E05A1CD2B2E26469
:10243000012A3FD90025226D9B000992079A079F28
:1024400004329B180C9308956822089B04375B198B
:10245000089308AB9B18D95D0F23194000230B9AF2
:102460000A4200D1B3E0682108AA5218D25909994A
:10247000150A0D92079A0135BA1A043A8E58089A2D
:102480002D0232600C22534316AAD3181A785968C9
:10249000B2609A6832618D4200D3A2E00123F560F8
:1024A00073600C9B9F42CFD10A9B1A00574B9A42F4
:1024B00000D09CE00023E3642365069855B0F0BD8E
:1024C00002211A7119605A7198601A731A6146E7ED
:1024D00040210A404139002A06D012221A60002207
:1024E0001A715A719960F0E702201860F8E7022229
:1024F000236A01211A60002249421A715A719960B7
:102500001A731A611A7522A916AA200005F012FB87
:102510000A9B069359E707995B18D87859780D906C
:102520001F208C469B7808A9401802709B09032045
:10253000012B05D0181E03D00420022B00D02068E8
:102540000022079D3BAB2E1890422ED10022304D29
:1025500009992435029100900495039201926146F5
:102560000898FFF719FB0A90002814D11F2608AB22
:10257000F61800950300012231000898FFF708FCC7
:102580000A90002807D17F00FBB20D9A37781740D8
:102590007A1E97411F43079B08330793079A0C9BAA
:1025A000934200D32BE71B4B7DE4B51A22A94D19AA
:1025B000ED789D540132C7E7079802339B00C3189A
:1025C000079307980C9B834200D327E7EBE701337F
:1025D0005200DBB2D2B2052B00D041E70D4A0A927D
:1025E00041E7F160280008F07BF9706059E70A9B29
:1025F00059E4032E00D936E4089B902242E4032ECE
:1026000001D9FFF730FC089B98223BE40600B2009A
:10261000E4A500080700B200F0B58DB009932D4B7A
:1026200007900891150096089E424DD8002E00D1C3
:1026300001362C00B54200D93400A54246D92D1BE5
:10264000254B20009C4200D91800844240D9241A0E
:1026500080B2FFF797FA002CF2D11F2704ABFF18C6
:1026600001233B70089B9B6906939B6A002B26D035
:102670001968099B03940493089BC9B21B78220034
:102680000293FF230094019307982300FFF784FA35
:1026900000280ED1099B01220093390023000798DE
:1026A000FFF776FB002804D1069B9A6B3B7813401A
:1026B0003B701F2304AA9B181878002802D0002D15
:1026C000B7D106480DB0F0BD1E00B2E70025B7E750
:1026D0000024BDE740420F00FFFF00000200B200EF
:1026E00070B588B006ADE870002029712880A87008
:1026F000FEF788FD104C06002434010022000F482C
:10270000FFF7C0FA002815D101230494039333780E
:102710000200029305230190009371212B000748CA
:10272000FFF73AFA002805D12300054A3100034893
:10273000FFF772FF08B070BDE4A50008000042403A
:1027400020A10700F0B500248BB009AEF070200086
:1027500007913480B470FEF755FD124F039424376F
:1027600004970378104D02930423019400932200F0
:10277000330065212800FFF70FFAA0420DD1072290
:102780006B6C1340032B0AD8084B063A2B6507994C
:10279000030000972800FFF7FBFA0BB0F0BD0448D8
:1027A000FBE7C046E4A500080000424007000C001B
:1027B0000100B20070B504000D0086B000211422A3
:1027C00001A807F00EF829002000FEF7EBFF040037
:1027D000002C18D021001C48FEF7E4FF0028F7D099
:1027E0000569002D0AD0194E2900300007F0B4FA0F
:1027F00000280BD1310001A808F059F8210001A8E8
:10280000FEF7D0FF0400200006B070BD104E290076
:10281000300007F0A1FA0028ECD029000D4807F09D
:102820009BFA0028E6D00C4E2900300007F094FAFD
:102830000028DFD02900094807F08EFA0028DDD1F2
:1028400021000748C1E7C04685B406108AB40610C7
:1028500091B4061098B40610A0B40610A8B40610DF
:10286000AEB40610F0B5FA4CFA4BA544FA4C23600E
:10287000FA4B6360FFF768F90390002800D115E375
:102880000100F748FEF78EFF0190002800D109E310
:10289000F44E01003000FFF78DFF01990500300074
:1028A000FEF7AFFF0600002D00D1DAE2AF69082283
:1028B0008897236B88A97B408AAD2EA8899307F05F
:1028C000F8FD08222EA9280007F0F3FDE64B2CA8FE
:1028D00006CD06C38C96236B082273408CA98EAD5F
:1028E0008D9307F0E6FD2CA90822280007F0E1FDF2
:1028F0009022DD4B92009B1806CD06C39097236B68
:1029000008225F4090A992AD2AA8919707F0D1FDC7
:1029100008222AA9280007F0CCFDD34B28A8603351
:1029200006CD06C39496236B08225E4094A996AC0C
:10293000959607F0BEFD082228A9200007F0B9FDF2
:10294000A122C94B92009B1806CC06C30023C74D99
:10295000019928000293FFF72DFF01990400280038
:10296000FEF74FFF002C00D17EE29221E368890040
:102970005A1E9341BC4ADBB25054110068311372A5
:102980000B70A3239B00D054B94D01992800FFF789
:1029900011FF019904002800FEF733FF0490002C7A
:1029A00000D165E2E468AC4E63425C41B14B6442E5
:1029B0001C40B14B0822E4188094336B80A963401B
:1029C00082AD26A8819307F074FD082226A928006D
:1029D00007F06FFDA44F24A83B00183306CD06C3B3
:1029E000049B049A8493336B84A9534086AD0822D8
:1029F000859307F05EFD082224A9280007F059FD01
:102A000093239B00FB1806CD06C37894336B0822F2
:102A10005C40799478A97AAC22A807F04AFD082294
:102A200022A9200007F045FD3B00783306CC06C301
:102A3000049B049A7C93336B7CA953407EAC0822A0
:102A400020A87D9307F035FD0822200020A907F07B
:102A500030FDA4239B00FF180CCC0CC7874D0199B7
:102A60002800FFF7A7FE019904002800FEF7C9FE21
:102A70000490002C00D1FFE1A469774E6894336B79
:102A80000822634068A96AAD1EA8699307F011FD8A
:102A900008221EA9280007F00CFD734F1CA83B005C
:102AA000243306CD06C3049B049A6C93336B6CA944
:102AB00053406EAD08226D9307F0FBFC08221CA961
:102AC000280007F0F6FC95239B00FB1806CD06C3F3
:102AD0007094336B08225C40719470A972AC1AA890
:102AE00007F0E7FC08221AA9200007F0E2FC3B00EF
:102AF000843306CC06C3049B049A7493336B74A985
:102B0000534076AC082218A8759307F0D2FC08222F
:102B1000200018A907F0CDFCA6239B00FF180CCCC1
:102B20000CC7574D01992800FFF744FE0199040096
:102B30002800FEF766FE0490002C00D1A0E1A469F5
:102B4000454E5894336B0822634058A95AAD16A8D5
:102B5000599307F0AEFC082216A9280007F0A9FC3B
:102B6000414F14A83B002C3306CD06C3049B049AA6
:102B70005C93336B5CA953405EAD08225D9307F014
:102B800098FC082214A9280007F093FC97239B00C7
:102B9000FB1806CD06C36094336B08225C40619439
:102BA00060A962AC12A807F084FC082212A92000D8
:102BB00007F07FFC3B008C3306CC06C3049B049AD1
:102BC0006493336B64A9534066AC082210A86593E4
:102BD00007F06FFC0822200010A907F06AFCA82368
:102BE0009B00FF180CCC0CC7264C01992000FFF766
:102BF000E1FD019905902000FEF703FE059B04907E
:102C0000002B00D140E100250824059B124F9B6951
:102C100048A9019348933B6B019A4AAE534036A8AA
:102C20002200499307F045FC36A92200300007F046
:102C300040FC2B000C4A0933DB00D31806CE06C338
:102C4000049B049A4C933B6B4CA953401CE0C04638
:102C50009CFDFFFF4DA8061080A0000861A806108B
:102C600040B406109BB5061050EE01081FBC0610BC
:102C7000B4B40610ABAAAAFAAAAAAA1ABCB406103F
:102C8000CBB40610D5B406104EAE220034A84D9336
:102C900007F00FFC34A92200300007F00AFC2B00DB
:102CA000844A4D33DB00D31806CE06C3019B019A3C
:102CB00050933B6B50A9534052AE220032A851931F
:102CC00007F0F7FB32A92200300007F0F2FB2B00DF
:102CD000784A1533DB00D31806CE06C3049B049A4A
:102CE00054933B6B54A9534056AE220030A85593E1
:102CF00007F0DFFB220030A9300007F0DAFB6B1D84
:102D00006C4ADB00D318A12292009B18013506CE35
:102D100006C3032D00D078E703996748FEF742FD0C
:102D2000059B0400002B00D1BCE09921614B634A54
:102D3000634E89005A5044315A5001003000FFF769
:102D400039FD210005003000FEF75BFD0690002DE7
:102D500000D19DE0AB6904935A4E21003000FFF78B
:102D600029FD210005003000FEF74BFD0790002DE6
:102D700000D192E0AB690593002308240193049BE2
:102D8000514F38933B6B049A38A953403AAD220017
:102D90000EA8399307F08DFB0EA92200280007F03A
:102DA00088FB019B434A0D331B01D31806CD06C394
:102DB000059B059A3C933B6B3CA953403EAE2200D9
:102DC0000CA83D9307F075FB22000CA9300007F01A
:102DD00070FB019B0AA81D01364B5D192B00D833EF
:102DE00006CE06C3069B069A40933B6B40A9534010
:102DF00042AE2200419307F05CFB22000AA930009A
:102E000007F057FBB6239B00ED180CCE0CC5079BB3
:102E1000079A44933B6B44A9534046AD220008A84F
:102E2000459307F046FB220008A9280007F041FB64
:102E3000019B204A2E331B01D31806CD06C3019BEC
:102E400001330193172B9AD1B2231A4A1B499B00D5
:102E5000D1500398FDF70AFC029899239B009D44EA
:102E6000F0BD01235B4272E501235B4202938BE5D7
:102E700001235B420293F1E501235B42029350E69A
:102E800001235B420293AFE601235B42029343E7D7
:102E900001235B42049502935EE701235B420595A3
:102EA000029369E701235B420293CDE705235B426E
:102EB0000293D1E750EE0108DFB4061001010101D1
:102EC000E9B40610F1B4061080A000080FB4F0B504
:102ED0008FB014AA08CA01921878002871D05C1C1F
:102EE000252803D0FEF704FB2300F5E75A786C2A67
:102EF00000D19C1C2378732B0CD1019B1A1D1D68DB
:102F000001922878002801D10134EDE7FEF7F0FAAC
:102F10000135F6E7642B01D0752B21D10025019BEB
:102F20001A1D1F6801920135AE0002AB3800043E45
:102F30000A219E1907F05AFD380031600A2107F076
:102F4000CFFC071EEFD16A460821013D5218AB00A5
:102F5000D3581E4AD05CFEF7CBFA002DF3D1D3E74D
:102F6000632B07D1019B18681A1DC0B20192FEF7AE
:102F7000BFFAC9E7782B22D1019B02AE1A1D01923C
:102F800000221B680F27551CA9001F40081F37503F
:102F90001B090DD1E8070DD58B51951C013DAB00E8
:102FA000F3580A4AD05CFEF7A3FA002DF6D1ABE73E
:102FB0002A00E7E7012DF1D173600135EEE7002B20
:102FC00092D10FB0F0BC08BC04B0184714C1061071
:102FD0006B4AF0B5130069331B788FB0002B03D117
:102FE000537A002B00D131E2042B00D92EE2654C3C
:102FF000626A022B05D0032B00D191E0012B00D097
:1030000020E2126813700C21013B59435E4A5318A9
:103010009D6FDE6F1300220078335B181F7A343205
:10302000310028001772FDF77FFF3A0028003100B9
:10303000FDF752FF554D03212A0055481C32FDF77C
:1030400073FF112203215248FDF746FF2A00042195
:1030500050324F48FDF768FF112204214C48FDF71C
:103060003BFF4C4D05212A1D4948FDF75DFF11220C
:1030700005214748FDF730FF2A0006213832444831
:10308000FDF752FF112206214148FDF725FF2A00D6
:1030900007216C323E48FDF747FF112207213C48CB
:1030A000FDF71AFF3C4F3B6840331B78022B12D9C7
:1030B000E2230F20394A9B00D1588143D150D15887
:1030C00021308143080020210143D1508021D05874
:1030D00009060143D150FA23F9220321304D9B0008
:1030E000BB64D200AB5800268B43AB5088235B02F5
:1030F0002B606661FEF798F8230020333B62636A19
:1031000006950893B3420FD1FEF784F8254C0122AF
:103110001C4B52425A61251E00D179E1224978E1C7
:103120000421126811706EE7236A0993002BEBD01B
:103130000796079B089A9B00D558002D00D1FCE00C
:103140002B785A1E012A04D9FB22043B134200D0DB
:1031500001BE2B7A032B00D901BEAB69002B00D135
:1031600001BE2A78501E072800D972E107F084FDBD
:103170001E000F0171011101710171017101130133
:1031800050EE010880A0000888AD061008AE0610B9
:103190008005314088AE0610E4A5000800002640F6
:1031A000000042400400B200FEB40610AF4CC0273D
:1031B0002B7ABF02190420683940AD4F38400143D3
:1031C000042021606968084009D0A969A948FEF770
:1031D0001FFE002803D00823079A93401E43AB69C3
:1031E0001B68013B032B00D901BE002800D0A4E0DE
:1031F0006B689B0700D4A0E02969E86807F0F6FB3C
:10320000002900D001BE2B699B4A934202D95A1E65
:10321000134200D001BEFF218C466746E968A869C9
:10322000B9438268036AA16029694942B943E160F0
:1032300001680320013901406869471EB841000256
:1032400001432162002A35D010680021471C0AD0B2
:10325000C0271179BF020904394067460740802022
:10326000000607433943C02721645179BF0209048E
:103270009068394061640021471C09D0C027117B48
:10328000BF02090439408027C0B23F0638430143DA
:103290000020A1641169814205D01F30013901402D
:1032A000802000060843C021E064127D89021204D8
:1032B0000A402265002B32D019680022481C09D030
:1032C000C0201A798002120402408020C9B2000690
:1032D00001430A43C02022665A7980021204996889
:1032E0000240626600224F1C07D01A7BC9B212044A
:1032F00002408020000601430A430021A2661A69A9
:103300008A4205D01F31013A0A4080210906114343
:10331000C022E1661B7D92021B0413402367C0227A
:1033200002212B7A92021B0413406A68FF3111407C
:10333000802212060A4313432360079B013307933D
:10334000079A099B934200D0F3E6002E00D083E059
:103350003000FDF757FF494D03962B0024330493AB
:103360000378320002930196009633009F21414872
:10337000FEF712FC041E00D071E00721069B5A6C78
:103380000A40032A09D9FDF745FF3D4CBFE63D4CF5
:103390000DE73D4C0BE73D4C09E73D4B069A1365A5
:1033A000069B5B6C0B40032BEDD8069A394B0CAF98
:1033B00013650623F9222F636B63AB63023B6E64D4
:1033C000EB63069BD200995802230B430699324EB9
:1033D0008B50EB6B032B02D0013E002E06D1EB6B22
:1033E000032B07D0FDF716FF2C4C90E60120FEF7CB
:1033F000C9FBEEE73B78342B07D17B782A3B012BC6
:1034000003D8BB78193B022B4ED9FDF703FF0025EB
:10341000234922002348FFF759FD28000FB0F0BDD3
:103420008023032019432970FFF75AF9041E16D18F
:1034300063E0194304202970FFF752F9002866D091
:1034400004000CE001246442250067E601256D427A
:10345000E3E7002E00D157E6B224240434430025CC
:10346000FDF7D8FEAC42D3D051E6C046000842403A
:10347000FFFFFCFF00004240FFFF0000E4A5000842
:103480000100B200800842400009424080094240E9
:103490003F000C0005000800E90300000200B20034
:1034A000F6B4061005B50610FB780F2BADD13E79AA
:1034B000032EAAD17B79902BA7D10020FDF7A2FE85
:1034C000012300222435049503930378B721029346
:1034D0000192009213001448FEF75EFB041EBED159
:1034E0001F2504ABED1829003000FFF72BF9041E4F
:1034F000B5D129784BB2002B92DA29000420FFF7CE
:1035000021F9041EABD108212B780B4291D0002069
:10351000FDF778FE8022D8218369D2029A615A6928
:103520001160024A1A649AE70000424070170000D6
:10353000FEE7FDE7FCE7FBE7FAE7F9E7F8E7F7E77F
:10354000F6E77047F0B5D5B006910100CD48FEF71B
:1035500029F9002801D100F001FC8368029303934C
:1035600000231F0005930193039B002B00D098E0DC
:10357000029BDB680193202B00D0F0E3029C21002A
:10358000C148FEF70FF9051E00D176E1037E069AC9
:103590009A4200D071E10100BC48FEF703F9BC4C2F
:1035A000002800D163E18269BA4B3C921B6B3CA9B5
:1035B00053403EAE082220A83D9306F07AFF082231
:1035C00020A9300006F075FF230006CE06C32900AF
:1035D000B148FEF7E7F81423002800D08369E360C0
:1035E0002900AE48FEF7DEF80123002802D0C368A8
:1035F0005A1E934123742900A948FEF7D3F80028E6
:1036000000D137E1836926006361002335363370CA
:103610002900A448FEF7C6F8002807D00169A2488F
:1036200006F09AFB002801D10123337023003533C3
:103630001B7895342370029E002F00D08FE3310059
:103640009148FEF7AFF8002800D141E18369904C22
:103650001CADDFB222002B0003CA03C308222900DD
:103660001EA806F026FF8B4B1E9A1F991B6B4B4022
:103670009A4201D0FFF75CFF2B689F4200D027E100
:1036800031008A48FEF78EF8002800D119E2602345
:103690008269571E7B43E41802233434227003935B
:1036A0001DE103998248FEF77DF8002802D0866864
:1036B000002E03D1039B1B68039355E731007D481F
:1036C000FEF770F8002800D1AEE0002503697A4CBF
:1036D00004932034AB001959049806F03DFB0028F0
:1036E00000D13FE30135042DF4D10024724F30376F
:1036F0000797079AA3009958049806F02DFB071E18
:1037000005D00134172CF4D10527183C7F42310035
:103710006A48FEF747F8002801D083690593310015
:103720006748FEF73FF8002813D000218369C2697B
:103730000191019901310191002A01D1AB4205D9D2
:1037400001996D001D29F4D11F230193631C05D13C
:103750006AE0631C68D0019B002B65D04C4B2201B2
:103760009B18B62246AD92009B182A0003CB03C2D9
:103770000822290048A806F09CFE464B489A499921
:103780001B6B4B409A4201D0FFF7D2FE2B68012BF6
:1037900018D1059B059A4E933E4B4EA91B6B4CAD21
:1037A000534044A808224F9306F083FE082244A900
:1037B000280006F07EFE2200354B0D3212019B18C8
:1037C00006CD06C32200324B2E3240AD12019B18AB
:1037D0002A0003CB03C20822290042A806F069FE92
:1037E0002C4B429A43991B6B4B409A4201D0FFF7F6
:1037F0009FFE2B68012B17D1019B019A5293254BF9
:1038000052A91B6B50AD53404AA80822539306F0AF
:1038100050FE082228004AA906F04BFE1C4B24014A
:103820001C19D8340CCD0CC4366841E725490498DE
:1038300006F092FA0028F7D131002048FDF7B2FFD8
:10384000002807D0124B204A9A5C012A02D18269D3
:10385000C8331A6031001A48FDF7A4FF0028E3D0EE
:103860000B4B1A4A9A5C012ADED1CC339EE2012727
:103870007F42ACE6FA231B01C5E62468002C00D089
:103880007DE6D8E640B406109BB5061045B5061097
:1038900050EE010880A000084CB5061054B5061083
:1038A0005FB506106BB5061078B506107DB506102D
:1038B000DFB4061085B4061008AF0610E9B4061090
:1038C000F1B406103DB50610CA020000CB0200009C
:1038D0003668002E00D0B2E6012337000393002E95
:1038E00000D0F2E03100CD48FDF75CFF01900028E8
:1038F00000D05CE13100CA48FDF754FFC94C0028F4
:103900000FD0442392227B439200E3189B181B782C
:10391000012B06D1C2685F33511E8A417B43E318F5
:103920001A723100C048FDF73DFF0190002839D0E0
:1039300044237B43E418932312AD9B00E4182B002F
:1039400014A806CC06C30822290006F0B2FDB74C25
:10395000149A1599236B4B409A4201D0FFF7E8FD6A
:103960002B68012B1ED1019B34A9DB6810A85A1EBD
:103970009341AF4A5B421340AE4A9B183493226B8B
:1039800036AC53400822359306F093FD082210A967
:10399000200006F08EFD60227A43A24B9B1818335C
:1039A00006CC06C33100A448FDF7FCFE01900028B8
:1039B00033D044237B439B4A0CACD318952292000E
:1039C0009B18220003CB03C2082221000EA806F098
:1039D00070FD964D0E9A0F992B6B4B409A4201D079
:1039E000FFF7A6FD2368012B17D1019B30A99B6926
:1039F00032AC30932A6B0AA853400822319306F068
:103A000058FD08220AA9200006F053FD60237B43DD
:103A1000844AD318243306CC06C331008748FDF707
:103A2000C1FE002800D11BE1C368102B00D017E1B4
:103A3000002385680193002D00D111E14422019BF0
:103A40007A430533DB009A18764B22AC9B18902200
:103A500092009B18220003CB03C20822210024A855
:103A600006F027FD714B249A25991B6B4B409A4217
:103A700001D0FFF75DFD2368012B1AD1AB696B4ABA
:103A80002C93126B2CA953402EAC082226A82D9300
:103A900006F00FFD082226A9200006F00AFD0C23DF
:103AA0007B43019A9B1809335E4ADB00D31806CC8E
:103AB00006C3019B01330193032B00D1D0E02D6895
:103AC000B9E701230700039309E731005C48FDF7DC
:103AD00069FE002800D105E78468002C00D101E7C9
:103AE00021005848FDF75EFE00282FD00569564991
:103AF000280006F031F900282AD121005348FDF7AB
:103B000051FE00280ED0442399217B43454A890069
:103B1000D3185B181B78012B04D15F337B43D21879
:103B20008369936321004A48FDF73CFE00280DD0CD
:103B300044237B433B4A4749D3185B181B78012B2E
:103B400004D15F337B43D2188369D3632468C4E70D
:103B50004149280006F000F90028F7D121003B4830
:103B6000FDF720FE00280DD044237B432D4A3B491E
:103B7000D3185B181B78012B04D15F337B43D21819
:103B80008369136421003248FDF70CFE0028DDD064
:103B900044237B43234A3149D3185B181B78012BFC
:103BA000D4D15F337B43D21883695364CEE7442377
:103BB0007B431C4A18ACD318972292009B18220012
:103BC00003CB03C2082221001AA806F072FC174D8D
:103BD0001A9A1B992B6B4B409A4201D0FFF7A8FC15
:103BE0002368012B00D085E6019B38A99B693AAC7C
:103BF00038932A6B16A853400822399306F059FCD3
:103C0000082216A9200006F054FC60237B43054AD5
:103C1000D3182C3306CC06C36CE6C046CBB40610D2
:103C20001FBC061050EE0108B4B4061080A00008B6
:103C30005555550555555515BCB40610D5B4061047
:103C4000DFB4061085B4061089B50610E9B4061075
:103C5000F1B40610650200008EB506106602000081
:103C600031005448FDF79EFD60237B43524CE3181E
:103C7000002866D082695A7231005048FDF792FDE3
:103C800060237B43E31801330122002804D0C1697B
:103C900082690A43511E8A41DA77002F1CD1310014
:103CA0004748FDF77FFD1423002800D08369E366B1
:103CB00031004448FDF776FD002844D0C3685A1E01
:103CC000934122007032137031003F48FDF76AFDC6
:103CD00000283CD083696367039B022B3ED1029B83
:103CE000029EDB680193202B29D131003748FDF774
:103CF00059FD00282ED08269D3B2022B2AD1571E3B
:103D000060227A43A4182200343213703100304804
:103D1000FDF748FD002812D082692E4B28921B6BBC
:103D200028A953402AAD082208A8299306F0C1FB10
:103D30000822280008A906F0BCFB0CCD0CC4012306
:103D4000ADE4587298E7230070331870BCE7FA238B
:103D50001B01C0E73668002EC7D1F0E70027380006
:103D600055B0F0BD1C49049805F0F6FF002800D0BE
:103D70005CE531001948FDF715FD002808D0B22296
:103D80000D4B92009A5C012A02D18269C0331A60FD
:103D900031001348FDF706FD002800D144E5064B2D
:103DA000104A9A5CC433012A00D03DE582691A604A
:103DB0003AE5C04696B5061050EE01089EB50610CD
:103DC0004CB5061054B506105FB506107DB506104B
:103DD0009BB5061080A00008A9B50610E9B406102E
:103DE000F1B40610C9020000F0B58BB001900D00CF
:103DF00016000C00002A01D0541E641806A90A00FF
:103E00002D4BD03381CB81C2082208A806F051FB8C
:103E10002A4B089A09991B6B4B409A4201D0FFF735
:103E200087FB02AB9C466246234B069FD83303CBED
:103E300003C20822614604A806F03BFB1F4B049A0C
:103E400005991B6B4B409A4201D0FFF771FB012390
:103E5000029A01329340DB19BD4225D39D42924123
:103E6000A74203D8A34201D901225242BD4201D840
:103E7000A74216D39D4201D2A34212D3002A10D1E9
:103E800001992800FDF7F7FA002806D1002E04D08A
:103E9000701E40190199FDF7EEFA0BB0F0BD00223B
:103EA000E6E701204042F8E7A742F8D80022A34203
:103EB000DCD901225242DBE750EE010880A0000865
:103EC000F0B5836893B007001600934205D2E12154
:103ED0008D4A8E4B0C32490006E08B4207D8C42134
:103EE000894A8B4B0C32FF318A4805F037FC446815
:103EF00052181B199A4204D3834A874B0C32E22191
:103F0000E9E7641832002100FFF76EFF051E49D172
:103F10007B787F2B17D13619670A760A7F027602E3
:103F2000B74204D13800FDF74AFB13B0F0BD0120C1
:103F3000F51B6D0A4042002DF7D0013D6802C01903
:103F4000FDF73DFBF7E75BB2002B2BDAFDF75AF9E3
:103F5000836906000A939B690F950893E8231B0663
:103F6000E418089B109559422140013B5B180993C6
:103F70000A9B07915B680693069A099B934211D2AC
:103F80000A9B0A001B6C10A90B93FCF70BFD041E87
:103F900000D0B1E0109BDA681D685F68089B06924C
:103FA000934202D201204042BFE7069B5F436B1E53
:103FB000FF18079B0699581B06F018FD0029F1D140
:103FC000099BBB420AD21A0010A93000FCF7EAFC98
:103FD000041E12D1109B1D68DB680693099B06998D
:103FE000581C401B06F002FD0029DBD1089B002B6A
:103FF00007D1601E8441604297E7484B9842D1D078
:10400000ECE7079A10A93000FCF7CCFC099F041ECE
:104010000ED1109B1A695F680B92DA6806921A68D3
:10402000069B013A5F43099BD7199F4200D91F00A5
:10403000FA230B9A9B0053430C9335E012021100B4
:104040001A5C013311430A0049E02A79FF2A4FD054
:10405000324B98424CD000284CD1119B99680123D7
:104060002F4D0393243504953378019202932368EE
:10407000C9B200932B480FABFDF78EFD041EB5D1DE
:104080002B000C9A31002748FEF7C6FA089B069AC7
:1040900004009342ADD99446079B63440793089B61
:1040A0009B1A08930028A1D1079BBB429ED21C4AB1
:1040B000310024321B48FDF7E5FD041E96D10A9B12
:1040C000079A1B680FA9013B5A54120A002BFAD118
:1040D000B4691193226865690D921A000FA80D99B1
:1040E0009942ABD111A93000FCF75CFC002DACD19A
:1040F0000D4C7BE72968B2E7084B984200D151E7A5
:10410000089B2F00069354E788AF0610BAB5061037
:10411000D4B5061022B40610EDB506100400B200A6
:10412000E4A50008000042408000B200F0B54568F8
:104130008FB0099007921C008D4207D8AD21524ADA
:10414000524B1D324900524805F008FB0B199D42A5
:1041500005D85C214C4A4F4B1D32FF31F3E76D18F7
:10416000220029000998FFF73FFE061E02D0012415
:10417000644209E0099B58787F2808D12200290071
:10418000079806F096F9340020000FB0F0BD43B256
:10419000002B6EDA7F231840FDF734F8E8231B0666
:1041A000EB18071E08930D9600D101BE079B002B4C
:1041B00000D101BEBA69089B5168E3188B4258D8F8
:1041C00096683548002C02D10028DDD051E0BB694B
:1041D000089A18680DAB0500013DEA54120A002D3B
:1041E000FAD132790B9232680395D1B22B4A24323C
:1041F00004920A923A7802927279009001922848C9
:104200000B9AFDF7C9FC002833D1B1684B1C20D1B3
:104210003169002904D02248FCF7EEFB002828D1A0
:10422000802325005B029C4200D91D001B4A337D80
:104230002432009207992A001948FDF7A9FD0028A9
:1042400017D1089B641B5B190893079B5B190793A5
:10425000B8E70A9B327B049303953B78C9B202937B
:10426000FF23009501930E482B00FDF795FC0028D5
:10427000CED0099B5B78002B00D178E7012109485B
:104280004942FEF723FE72E788AF061019B6061002
:1042900022B4061031B606100400B200E4A50008EE
:1042A000000042404FB60610F7B500250127144B19
:1042B0002900FF335C7E3E002000FDF7ADF801A928
:1042C000C0B2FDF72EF8011E0DD1582262432C24F6
:1042D0006C430B4B1219D21801982023FFF726FFCD
:1042E0000600701E86410198FDF712F8002E03D0DB
:1042F0003E006E403000FEBD012DFBD03D00D6E7F4
:1043000098F2010870B50C0001231100220005008D
:10431000FFF70CFF012200280FDB002C06D0210044
:104320002800FDF7E9F90323002804D12378013B95
:104330005A1E9341013300222370100070BDF0B566
:1043400087B00D00C0B201A9FCF7EBFF01260028E1
:1043500021D1019C1023A16802AA10392000FFF787
:10436000E5FE002814DB102202A92000FDF7C4F9A5
:10437000002813D003232B706B46A168DF1C28395B
:1043800001233A002000FFF7D1FE002811DA0126B0
:104390000198FCF7BDFF300007B0F0BD16491022B0
:1043A000303102A806F066FA431E984101302870A9
:1043B000E2E70F263B7801221E401B096E702B712D
:1043C00039002000FDF798F9002801D1042E03D907
:1043D00001236B7000232B71A268A91C203A2000D6
:1043E000FFF790FF0028D2D1A268E91C183A2000FC
:1043F000FFF788FF0600CBE788AF0610F0B51E0078
:10440000036885B0040000910192002B02D043683C
:10441000002B1CD10120404237E06A882189171DFA
:10442000BC461B4FB94202D02D888D420DD1002EC3
:1044300002D003A909883180009904330B60019BE5
:104440001A802369634423611FE063442361226966
:1044500063699A4218D223685B89002B04D0E36811
:10446000934201D10433236103AD04232A0021695F
:104470006068FFF75BFE0028CCD1A27A2369002A8E
:10448000CBD0E2689A42C8D8012005B0F0BDC04642
:10449000FFFF0000F0B587B002930CAB1B7804005F
:1044A0000D0000920393002A05D101235B42019382
:1044B000019807B0F0BDCB680F8905AEFF18320038
:1044C000042339000098FFF731FE01900028ECD159
:1044D000144A31886B89914221D171889942E4D183
:1044E000C919042332000098FFF720FE0028DCD110
:1044F00005AA0D4B11889942D7D1009B25606360B6
:104500006B461B8923816B461B7BA3726B89DB196E
:10451000E3605288D31863613B1D2361C8E7002B19
:10452000E6D0C2E7086900000769000030B5154C05
:104530008BB006A923000A00683321CB21C20822D0
:1045400008A805F0B6FF089A099B216B4B409A42D8
:1045500001D0FEF7EDFF6D46069B04A9013B0493D5
:10456000226B02A853400822059305F0A2FF0822FF
:1045700002A9280005F09DFF68340CCD0CC40BB0D7
:1045800030BDC04680A00008F0B5514B514D89B0F8
:104590000290059506A8703350CB50C00C00120154
:1045A0008B180393A678E068A18822786378B446D4
:1045B000002800D101BE032A00D901BE032B00D977
:1045C00001BE454E376830373F781F2F00D876E060
:1045D000674610300097FCF756FB0590059B002BB3
:1045E0005CD1E0680595A188002800D101BE336840
:1045F00030331B781F2B64D97F235940002300934D
:10460000013310301A00FCF73EFB0590059B002B90
:1046100044D16389E0689C460595A279E379277ABD
:10462000002800D101BE160002218E43012E00D0C9
:1046300001BE1E0002218E43012E00D001BE264E77
:104640003668303636781F2E3DD961463030C9B2D3
:104650000097FCF718FB0590059B002B1ED1E06826
:1046600005956189002800D101BE1B4B1B683033C2
:104670001B781F2B29D97F23594000230093013336
:10468000C9B230301A00FCF7FEFA0590059B002BEA
:1046900004D1039B1034A34200D083E7059B06ACF2
:1046A000002B04D122000A4B783303CB03C2FFF75F
:1046B0003DFF029B06CC06C3029809B0F0BD074837
:1046C0008BE70648A1E70548C5E70448DDE7C04693
:1046D00080A000080300C200E4A500080200C20098
:1046E000F0B58BB003AD9446070028000C00624E75
:1046F00062490093029670310CC90CC0634607935F
:104700006B461B7807A90B716378A0684B71A3787F
:104710008B71E378CB7123790B7263794B72E388E9
:1047200000964B81002800D101BE4B89DB0B00D0E5
:1047300001BE8B79072B00D901BECB79072B00D99D
:1047400001BE0B79073B182B00D901BE4B897F2294
:104750001E009643321E00D087E0079EFF3296432C
:1047600032004E795B02164301968A7994460722FD
:1047700066463240382613434A7A92071343CA7971
:10478000D200324013430A7A9446012266467240B0
:1047900092011A430B79F8211B0649050B4013437C
:1047A000019A436002600268019991425FD14268B8
:1047B00033490A409B1A5A425341324A5B421340E2
:1047C0002D4A9B180293029B002B0DD1009A07A93A
:1047D0000292227BA0688A71627BCA71E2894B7265
:1047E0004A81FCF793FA0290029B002B11D1009BA7
:1047F0000293A368002B00D101BE802259681206E3
:104800000A435A605B681F4ADB1713401A4A9B1819
:104810000293029B002B11D1009B0293A368002BF3
:1048200000D101BE8022596A12060A435A625B6AAD
:10483000144ADB171340104A9B180293029B002B6B
:104840000BD102990D4B05AA002912D0703311002B
:1048500011CB11C12B0003CA03C3FFF767FE3B0056
:10486000380006CD06C30BB0F0BD074BAAE7024BDC
:10487000A8E77833EBE7C0460300C20080A0000839
:10488000FFFEFFFFFDFF3DFF0100C200F0B5314C10
:104890009BB00393230002901600703306AA0F000A
:1048A00003CB03C200230C930593236B08220CA9AE
:1048B00008AD0AA80D9305F0FCFD08220AA92800FE
:1048C00005F0F7FD039B06CD06C3002E39D07B898A
:1048D000002B36D001233200009339004F3314A847
:1048E000FFF7D8FD031E2CD110AD2A0012A914A881
:1048F000FFF784FD002824D12B88042B21D105AAA1
:1049000012993000FFF712FC00281AD1059A14A959
:104910001492236B12A853400822159305F0C9FD89
:10492000082212A9280005F0C4FD039B783406CDA7
:1049300006C30EA90B0005CC05C3082206A805F086
:10494000B8FDFFF7F3FD029A06AB03CB03C2029852
:104950001BB0F0BD80A0000873B56C4622000C4B64
:104960000500703341CB41C20800FCF778FD0128F7
:1049700007D8602343430748C0182300183006C8EF
:1049800006C3FFF7D3FD2B00280006CC06C376BD77
:1049900080A0000850EE010873B56C4622000B4B56
:1049A0000500703341CB41C2012907D860234B4336
:1049B0000749C91823002C3105C905C3FFF7B6FD07
:1049C0002B00280006CC06C376BDC04680A0000898
:1049D00050EE010870B58AB06B460090596006A988
:1049E0000A0011CB11C2082208A805F062FD114D82
:1049F000089A099B296B4B409A4201D0FEF798FD1B
:104A000002A92B000A006833069C41CB41C2082250
:104A100004A805F04EFD049A059B296B4B409A4271
:104A200001D0FEF785FD029BA34201D0FEF780FD79
:104A30000AB070BD80A00008F0B58DB06D46194C6D
:104A40002A0023006833070003CB03C20822290091
:104A500008A805F02EFD082208A90AA805F029FDDE
:104A60000A9A0B9B216B4B409A4201D0FEF760FDE6
:104A7000089B06A901330693226B02AE534004A89B
:104A800008220793683405F014FD082204A93000B9
:104A900005F00FFD0CCE0CC43B00380006CD06C35C
:104AA0000DB0F0BD80A00008F0B5884C884EA5443C
:104AB0000693330002900591170070330FAA03CBC1
:104AC00003C211AC33002200703303CB03C22DA804
:104AD000FFF7B2FF3300220008AD703303CB03C2EF
:104AE00039002800FFF738FF230006CD06C32D98B4
:104AF0002E99FFF76FFF25AD2B0006CC06C323AC24
:104B000033002200703303CB03C229AB9C461A004A
:104B1000290009C909C26346299A5B68316B4B4079
:104B20009A4201D0FEF704FD27AB1A0003CC03C262
:104B3000279A289B316B4B409A4201D0FEF7F8FC34
:104B4000259A239B9A4209D16A68249B9A4205D1EF
:104B50006048FEF7BBF9012464421EE23800FCF70E
:104B600070FC041E00DA18E2039018206043029BD8
:104B70001B1804931B78002B00D015E200933A0019
:104B80003233059937A8FFF785FC031EE3D11225C0
:104B900006AAAD182A000CA937A8FFF72FFC002899
:104BA00000D003E22B88902BD5D94CAA0C99380061
:104BB000FFF7BCFA0028CED12BA8FFF73DFF444EEB
:104BC0000FAD33002A00703303CB03C233002FAA8A
:104BD000703303CB03C23800FCF741FC012807D82F
:104BE000602343433C48C01824302FAB06C806C39B
:104BF000FFF79CFC2A002FAB03CB03C22B982C9908
:104C0000FFF7E8FE1FAB1A00290081C981C221AA63
:104C1000110081CB81C12199229B326B5340994273
:104C200001D0FEF785FC1F9B1BAB1A00290081C930
:104C300081C21DAA110081CB81C11D991E9B326BBF
:104C40005340994201D0FEF773FC1B9B002B00DC04
:104C500081E717AB1A00290081C981C219AA110086
:104C600081CB81C119991A9B326B5340994201D073
:104C7000FEF75EFC179FFBF7D9FB874200DD6AE772
:104C800013AB1A0003CD03C215AA110021CB21C119
:104C90001599169B326B5340994201D0FEF748FCA0
:104CA00012230E4906AA9B184031102233A843AEA6
:104CB0001D88139F05F0FDFB3000FCF735FC5023E9
:104CC0000D93012C0CDD872446E7C046A4FDFFFFB1
:104CD00080A0000876B6061050EE010888AF0610D6
:104CE000912DF0D1B24B71AD71973DA80BAF3D93B3
:104CF0003E956F60FBF766FB041E00D04DE13B88DC
:104D0000AC4A3DA83D923E95719302966E60FBF7CA
:104D100059FB041E00D040E18C2206AB52009B18C8
:104D20001B78042BCFD1CF22029B12021B88134089
:104D30008222D2019342C6D1029B0E905B880EAEB6
:104D400005939D4B3DA83D939C4B3E952E606B601B
:104D5000FBF738FB041E00D01FE18A22984BFF327C
:104D60003D93984B3DA86B6006ABD21820233E952F
:104D70002E60AA60EB60FBF725FB041E00D00CE15F
:104D80008F4B3DA83D93904B3E956B6033ABAB6032
:104D900010232E60EB60FBF715FB041E00D0FCE037
:104DA0008A4A3B883D920222AB604CABEB60059B8C
:104DB000FF320733DB085B0001333DA83E952E60D0
:104DC0006A602B61FBF7FEFA041E00D0E5E0804B21
:104DD0003DAD319371AB6B600D9B31A832953D9623
:104DE000AB60FBF7EFFA041E00D0D6E00E9043A8AC
:104DF000FCF79AFB80231B014693F421882306AA23
:104E000052185B011380734B06AA319316239B182B
:104E10003D93029B704E6B6075ABAB60202331A855
:104E200047963295EB60FBF7CDFA041E00D0B4E054
:104E300006ABDB8A694A0EAF31A8319232952F60FA
:104E40006B60AE60FBF7BEFA041E00D0A5E0644BB9
:104E5000102631937A2306AAFF339B1831A8329586
:104E60002F606B60AE60FBF7ADFA041E00D094E0DB
:104E70005C4B06AA31935A23FF339B186B602023A7
:104E800031A832952F60AB60FBF79CFA041E00D06E
:104E900083E006ABDB8A544F31A8319732952B6003
:104EA000FBF790FA0797041E77D143A8FCF73CFB69
:104EB00080239B0046934D4B31A847934C4B329532
:104EC0004393444B4B4F3193039BEE605B00059340
:104ED000059A494B9B182B60029B6B6071ABAB60D2
:104EE000FBF770FA041E58D1059A434B6C37D35A1E
:104EF000424A6B603D4B31A8319232952F60AB60D6
:104F0000FBF760FA041E48D13D4B31A831937DABCD
:104F100032952F606B60AE60FBF754FA041E3CD1F3
:104F2000384B06AA31937A23FF339B186B60039B9F
:104F3000069A1B010C33D318EB6031A80DAB6B61E3
:104F400032952F60AE602E61FBF73CFA0D9B04009A
:104F5000B34227D1002820D12B4B3E9031933F9074
:104F60000DAB3DAD31A832953D974093FBF72AFA42
:104F7000041E12D11F4A039B4C325B009B5A079AB6
:104F800031A8319232953D93FBF71CFA0400049846
:104F90003200013081A905F08CFA200097239B0094
:104FA0009D44F0BD8424D7E50124F6E70400F4E72E
:104FB0000016003500020035001D003509012030C3
:104FC0000004003502020000030200000006003564
:104FD000000700350009003509008002001E003579
:104FE000001F003500200035000A00350100C00414
:104FF00000248000E4A5000830A60008000B00355E
:10500000000C0035000D0035000E00350023F0B512
:10501000AFB004937A4B0090019106AA703303CB92
:1050200003C2082005F012FC009B06000120002BA3
:1050300003D00430012B00D0FA3004A9FCF771F939
:105040000124002847D110A8FFF7F6FC6C4C06ADF0
:1050500023002A00703303CB03C202AF019938004A
:105060003300049AFFF712FC2B003A0003CA03C373
:1050700010981199FFF7AEFC082229000AA805F044
:1050800018FA08AD23002A00783303CB03C20822A4
:105090000AA90EA805F00DFA0E9A0F9B216B4B4042
:1050A0009A4201D0FEF744FA082229000CA805F024
:1050B00000FA0C9A0D9B216B4B409A4201D0FEF7EF
:1050C00037FA0A9A089B9A420ED00B9A099B9A4289
:1050D0000AD001246442300005F0C2FB0498FCF7BA
:1050E00017F920002FB0F0BD3100082212A805F0FA
:1050F000E0F914AD23002A00703303CB03C22AA8C1
:10510000FFF79AFC23002A00703303CB03C2380058
:105110000099FFF741FC2B0006CF06C32A982B9974
:10512000FFF758FC0822290026A805F0C2F908223A
:1051300026A928A805F0BDF9289A299B216B4B4088
:105140009A4201D0FEF7F4F9269B102BC1D8082211
:10515000290022A805F0ADF9082222A924A805F00B
:10516000A8F9249A259B216B4B409A4201D0FEF767
:10517000DFF9082212A91EA8229B05F09AF908223D
:105180001EA920A805F095F9209A2199236B4B4080
:105190009A4201D0FEF7CCF9082229001AA81E9BDA
:1051A00005F087F908221AA91CA805F082F91C9AB3
:1051B0001D9B216B4B409A4201D0FEF7B9F90822A2
:1051C00012A916A81A9D05F074F9082216A918A8A4
:1051D00005F06FF9189A1999236B4B409A4201D048
:1051E000FEF7A6F9074A169B2D04AD182CA805AAB0
:1051F0002C952D920593FBF763FA04006BE7C046EC
:1052000080A0000800010036F0B5A5B004AC049001
:105210006160029203932AAB1B782B9A0193644B33
:1052200002AF9A4200D0C1E0624B634D12932A6BE9
:1052300012A9534010A8082213930AAE05F039F9B9
:10524000082210A906A805F034F9330008A806CFF3
:1052500006C3082206A905F02CF9082231000CA883
:1052600005F027F90C9A0D9B296B4B409A4201D00F
:10527000FEF75EF9082208A90EA805F01AF90E9AA1
:105280000F9B296B4B409A4201D0FEF751F90A9AC5
:10529000089B9A4209D17268099B9A4205D1474BF3
:1052A0001B68002B01DA02F017FC019B002B0BD0CE
:1052B00002F02EFC02F01EFCC022C0234049520026
:1052C00088581B0603438B5020A90B00220041CABB
:1052D00041C3082222A805F0ECF8229A23992B6BEF
:1052E0004B409A4201D0FEF723F989232099354A91
:1052F0005B01D1501CA90B00220041CA41C3082206
:105300001EA805F0D6F81E9A1F992B6B4B409A42A7
:1053100001D0FEF70DF91C9A2B4B18A99A600B00CF
:10532000220041CA41C308221AA805F0C2F81A9AFD
:105330001B992B6B4B409A4201D0FEF7F9F8189B52
:1053400014A91E680B0005CC05C3082216A805F099
:10535000B0F8169A17992B6B4B409A4201D0FEF782
:10536000E7F81A481A49149B091A5C68FBF7E0F938
:10537000184D19492800491BFBF7DAF9174B1C6730
:105380005E6785F3088816481649091AFBF7D0F9B5
:1053900086F3088814481549091AFBF7C9F9FCF780
:1053A00045F9002002F0FEFCA047FEE7FEE7C046FC
:1053B000186EA9719B71CA2780A0000800012640C1
:1053C000000026400000204000ED00E080A0000822
:1053D00060A300080020000800240008E4A50008DD
:1053E00000B0020800C00208C8A50008C4F3010804
:1053F000F0B58DB002A90A00344B543311CB11C261
:10540000082204A805F055F8314E049A059B316B2B
:105410004B409A4201D0FEF78BF86A46029B2D4C16
:10542000DBB2D370E3682C480193D71CFDF74EFD27
:105430002A482B4A0021121A04F0D3F929482A4A93
:105440000021121A04F0CDF9284D294A0021521BDF
:10545000280004F0C6F93B7806A9DBB20693326B4C
:1054600008A853400AAE0822079305F022F8082244
:1054700008A9300005F01DF8144B543306CE06C3BE
:10548000019BE36085F308881A4D1B4800212A1A06
:1054900004F0A7F985F30888012002F083FCFCF7EB
:1054A000C5F8E06802F01CFC144B0100984202D0E1
:1054B0001348FDF70BFD134802F0CAFB124B1B68A3
:1054C000002B01DA02F008FB05F03EFCE4A5000821
:1054D00080A0000850EE0108AFB6061080A00008BA
:1054E00060A30008C8A50008C4F301080020000854
:1054F0000024000800C0020800B002084BE6AC859A
:10550000F7B60610004000160001264010B500282E
:1055100001D1FFF76DFF10BDF0B505008BB008009D
:1055200014001F00FBF78DFF061E01DAFFF760FF76
:1055300018234343ED182878760001384342584138
:10554000FFF7E4FF230F6B73230DAB73230BEB7398
:10555000204B24091A006C334C32B25A1E491E00EB
:1055600004931E4B2C7402A804AC02910394626055
:10557000A360FAF727FF002829D1194B01350293C0
:10558000102302A8039404966560A360FAF71AFF3B
:1055900000281CD1134B01AD0293109B02A863603D
:1055A000E36003942660A76027616561FAF70AFF4C
:1055B000019B9F420BD1002809D10B4B6060A0607A
:1055C00002A8029303942660E560FAF7FBFE0BB095
:1055D000F0BDC046E4A50008000B00350100C00482
:1055E000000C0035000D0035000E0035F0B5734E8F
:1055F000734D33002F00734C7033A5440391059213
:10560000099012AA03CB03C2FF370399787EFBF7F8
:1056100003FF11A9C0B2FBF784FE002809D0FEF7F2
:1056200085FF099B12AA03CA03C30998664B9D44D0
:10563000F0BD7B7E03980493FCF72AF800280BD07A
:105640002C235820039A5343049A42439B18EB1887
:105650001C6910231C4015D001233093326B30A9F4
:10566000534024A80822319304F023FF082224A9E0
:1056700032A804F01EFF082232A912A804F019FF74
:1056800001F0F5F9039B002B29D07B7E58430100E4
:105690004030143149194019FBF77AFF00281EDA0F
:1056A0002000FBF7F5FF002819D04848FDF70EFC55
:1056B000119821008268FEF703FC01232C93326BC2
:1056C0002CA9534022A808222D9304F0F2FE0822B0
:1056D00022A92EA804F0EDFE08222EA9CDE72C2346
:1056E000039A0499534358224A43354F9B18DB19B8
:1056F000069326A8FFF7A0F9304B12AD1A00290037
:10570000703211CA11C1119A34AE02923200703354
:1057100003CB03C22E4B5B7E18000793FBF71CFEE6
:10572000029B1B78834269D1069B1B6908935B0728
:1057300064D530240798059B6043B830C019029A9D
:105740000699FFF7B1F900284CDAFEF7EFFE0822C0
:105750003100280004F0ADFE26982799FFF73AF9AA
:105760002C23039904984B4358214143144A5B1856
:1057700098581849114C884201D101F03AF9039B1D
:105780001549002B05D0119800218268FEF798FB7F
:1057900012491348FDF79AFB01232893226B28A98D
:1057A000534018A80822299304F083FE082218A960
:1057B0002AA804F07EFE08222AA95EE780A000083D
:1057C00098F2010804FAFFFFFC05000048B7061034
:1057D00097F301083DB8F39640B7061036B70610A8
:1057E00077B70610002809D1C14B0599587E604350
:1057F000B830C019FBF7A0FE0028A6D148A8FFF7D3
:105800001BF9BC4DBC4E2B0034AA703303CB03C232
:105810003300FF335B7E4AAA05932B00703303CB22
:1058200003C24CAC2B0022000027703303CB03C211
:10583000DC972B6B0822DCA9C2A8DD9304F039FEAB
:105840000822C2A94EA804F034FEDA972B6B082276
:10585000DAA9C0A8DB9304F02CFE0822C0A950A846
:1058600004F027FE082004F0F1FF0890B84200D1B0
:1058700088E040AB02981F70FBF7E3FDB84200DA06
:1058800080E000D1D2E20298FBF7E9FDB84279DB73
:10589000602343439948C018037ABB4272D02C233B
:1058A000039A0499534358224A439B18F6183769C0
:1058B000D6A8FFF7C1F82B002200703303CB03C238
:1058C0000EAE02993000FFF747F8230006CE06C35C
:1058D000D698D799FFF77EF87B0700D412E1210014
:1058E0000822BAA804F0E5FDB8AC2B002200703302
:1058F00003CB03C20822BAA9BEA804F0DAFDBE9AFF
:10590000BF9B296B4B409A4201D0FDF711FE082244
:105910002100BCA804F0CDFD7649BC9ABD9B096B63
:105920004B409A4201D0FDF703FEBA9AB89B9A42C7
:1059300000D0E7E0BB9AB99B9A4200D0E2E0A020F9
:10594000C00008224CA96844A12404F0B2FDA021A3
:105950000CABE400E418C90008226944200004F0FC
:10596000A8FDA1230CAADB0062499B181A68636892
:10597000096B4B409A4201D0FDF7DAFDA023DB0012
:105980006B441B68089804F06BFF08224EA956A8C8
:1059900004F08FFD082256A958A804F08AFD554C42
:1059A000589A599B216B4B409A4201D0FDF7C0FD9C
:1059B00008224EA952A8569B04F07BFD082252A94A
:1059C00054A804F076FD549A559B216B4B409A42A3
:1059D00001D0FDF7ADFD529BFEF7A8FD08224EA9B0
:1059E00034A804F066FD48984999FEF7F3FF0822B1
:1059F00034A944A804F05DFD082244A946A804F097
:105A000058FD469A479B216B4B409A4201D0FDF7C7
:105A10008FFDA321449BC900394B6944354C0B6071
:105A2000226B42A8534008224B6004F042FDFFA8BD
:105A3000082242A9EC3034AD04F03BFD08222900D5
:105A40003CA804F036FDFFA90822EC313AA804F086
:105A500030FD08223CA940A804F02BFD409A419B50
:105A6000216B4B409A4201D0FDF762FD08223AA912
:105A70003EA804F01EFD3E9A3F9B216B4B409A428C
:105A800001D0FDF755FD3C9A3A9B9A4201D000F0B7
:105A9000AAFF3D9A3B9B9A4201D000F0A4FF082246
:105AA000290036A804F005FD082236A938A804F01C
:105AB00000FD389A399B216B4B409A4201D0FDF78B
:105AC00037FDA921369BC9000CAA8918002B01D0EB
:105AD00000F086FF70340B0005CC05C308222800B7
