:020000041006E4
:1000000000C00208638306100D000000C1830610C3
:1000100000000000000000000000000000000000E0
:10002000000000000000000000000000BD8306107A
:100030000000000000000000BD830610BD83061014
:10004000BD830610BD830610BD830610BD83061058
:10005000BD830610BD830610BD830610BD83061048
:10006000BD830610BD830610BD830610BD83061038
:10007000BD830610BD830610BD830610BD83061028
:1000800010B5064C2378002B07D1054B002B02D06E
:10009000044800E000BF0123237010BD3CA7000806
:1000A0000000000004E70610044B10B5002B03D03D
:1000B0000349044800E000BF10BDC0460000000036
:1000C00040A7000804E70610F7B5A5275823160037
:1000D0000191FF00C25D00215A43330082180400E1
:1000E00000F0CEFF051E0FD15823E25D01215A43D7
:1000F0002C32A2183300200000F0C2FF002803D0E9
:10010000019B002B00D005002800FEBD10B50A7829
:100110000478012394420BD80CD344784A78944253
:1001200006D807D340884A88904201D890429B4124
:10013000180010BD01235B42FAE773B50E000021E1
:100140000500009102F0E4F86946C0B201F0B4FF86
:10015000012400280BD101AA0099300001F0BEFB58
:10016000041E04D10199280001F0A3FD04000098A9
:1001700001F0BCFF200076BDF0B5A527FF0085B0DB
:100180000400C05D0E0002F0C3F803A9C0B201F084
:1001900093FF051E04D001256D42280005B0F0BD77
:1001A000039802F0CFF80190039801F09FFF5823C5
:1001B000E25D53432C2256439E19A419231D9C42F1
:1001C000EBD00134621E127801998A42F7D0E2E73F
:1001D00037B5C02292000192A522D200825C0D00A8
:1001E00003000121002A03D0FE31012A00D1FA398F
:1001F000A9420ED1582454431A19526A283401A92D
:1002000028001C1902F0D0F8002801D1019B2360BE
:100210003EBD0221002A03D00431012A00D0F93169
:100220000120A942F4D1582454431A19126D5434B0
:10023000E5E70000F0B5A5248BB006910792E40035
:100240000700005D02F064F809A9C0B201F034FFB4
:10025000002800D0B3E0069938003E5DFFF78CFF20
:10026000012400282DD02C235820069A5343020045
:1002700072439B18FB181D6910231D4021D1069B5A
:10028000002B24D0A524E4003B5D584301004030FE
:10029000143179183818FFF739FF002817DA2900C8
:1002A0003800FFF769FF002811D0464B46481B680D
:1002B000D96809F0DFFB09982900826801F0C4FFC2
:1002C000069C099801F012FF20000BB0F0BD2C2312
:1002D000069A5343582272439B18D9593B4A91427C
:1002E00014D0069B002B04D009980021826801F0ED
:1002F000ABFF344B364A1B68D868069B002B00D1F5
:10030000344A354909F05CFB0124DAE7FB18DA6866
:100310001B89D9438A42E4D8099CD218A3689A421F
:10032000DFD2A523DB00FD5C21780222002D03D063
:100330000432012D00D0F932582306985E432C3B3D
:100340004343F618BE19914218D0A5238E20DB0036
:10035000FB5C800058430023049303930293E02343
:100360001B0201931D4BB830009338182300320054
:10037000290001F0EFFA041EA3D0B2E733695B074E
:10038000E3D58E2080006843079BB830009338186F
:1003900023003200290000F029FF0028A1DBD4D17E
:1003A000A523DB00F85C8E239B004343B833F81889
:1003B000079A012100F0F2FE0028C6D091E701243F
:1003C000644281E700A2000802D106103DB8F3960E
:1003D000F8D00610F0D0061031D1061084100108B4
:1003E000A52370B5DB00C55C04000121002D03D0FE
:1003F0000431012D00D0FA312000FFF7E9FE00287A
:1004000002D00125280070BD0221002D03D0043147
:10041000012D00D0F9312000FFF7DAFE051EF0D1E2
:10042000A523DB00E25C58235343E318186A01F06C
:100430005FFFB4342060E5E710B520220400FF21FF
:100440000C3009F063FB012200232260024AE362C0
:100450006260A36010BDC046010100014279002323
:10046000012A06D10268012A03D10379013B5842CF
:100470004341180070470000F0B500258BB005908F
:10048000079108920993119B9D4201D3002010E02F
:10049000119B5C1B80239B009C4200D91C00099B84
:1004A000384AE9180798230001F02AFE002802D0F4
:1004B00001200BB0F0BDA522059BD2009B5C9C46A1
:1004C0006246079B19780223002A03D0FD33012AD4
:1004D00000D1F93B089A1278994237D0934237D12C
:1004E000582761464F4393423DD0059B2C37099EC8
:1004F000DF193B695B072BD53889AB19834236D2AC
:10050000A0423BDA421B921B0026211A92B20696A9
:10051000FF681E19C719BE4202D9BB4218D2F91A88
:10052000002915D01B1A8E20664680007043154F97
:100530009B18D219059E0292069AB830019200913A
:100540003018079A614600F0A9FF01E09342C7D135
:10055000109B0C4AE9180898230001F01DFE0028A2
:10056000A6D12D198FE7059B109EDF19C1E70F2239
:100570001E1A1640069621000022C9E700210A0033
:100580000691C5E784AC0008F0B5A1B00491C74A54
:100590000021A527040009F0B9FA0023FF00E35564
:1005A0000393013B0293C24BE05D1B78984233D327
:1005B000012B0ED9039B002B0BD00023A525E3555F
:1005C000013B0293ED00BA4B605D1B78834200D97A
:1005D000F6E0A5270023FF00B54EE355E05D337834
:1005E000984200D288E10023A525E3555827ED0065
:1005F000635D32789A4200D973E23022002114A858
:1006000009F084FA236A04995A780A715B680C60CD
:100610000393039A8A607BE2012B06D98E239B0009
:100620005843B830201800F08DFF5825C0232A0009
:10063000E65D5B01734372439E49A21859185162EB
:100640009D4930005B181365002101F061FEE15DFA
:10065000C0B269432031611801F02EFD4342584178
:1006600000F0E6FF0121300001F052FEE15DC0B272
:1006700069434C31611801F01FFD0290434258411B
:1006800000F0D6FF2000FFF7ABFE011E0DD0C02208
:100690008A4B8B491B689200D86809F091F90122B6
:1006A000E35DE318B0331A706AE002002000FFF740
:1006B0000BFD002804D0814BE25D1B688149EBE70C
:1006C000200000F0F9FC0028E9D014AD2800FFF765
:1006D000B3FE2800FFF7C2FE059000281FD1744B1F
:1006E0001B78012B0CD8002000F0A2FF2A0000216B
:1006F0002000FFF7E9FC4342584100F099FFCEE7A4
:10070000E25D002AEFD023000121B0339A189A420B
:10071000E9D01878042800D119700133F7E7EB7994
:100720000693012B38D1E05D00F02EFC831E0600FD
:10073000022B0BD82A0006992000FFF77BFD012829
:1007400003D0002802D0052600E00600E35DE31890
:10075000B0331E70564B1B78012B11D9E25D002A75
:100760000ED0A318B03319781300012911D0042931
:1007700000D112E223000121B0339A18934219D11B
:10078000E35DE218B0321278023A022A01D801225F
:1007900003920133E35506E72A0001212000FFF709
:1007A00049FDE35D0522E318B033002800D1EA7962
:1007B0001A70CFE71878042800D119700133DDE7EB
:1007C0002318B0331F7804239F43013F7B1E9F41B2
:1007D000FFB2390001F09CFD09A9C0B201F06CFC28
:1007E00000280BD001230293099801F07FFC029BA3
:1007F000002B69D1635D01336355E4E658212C2653
:10080000635D774359430123C919009361183F334E
:10081000099A0EA800F0E0F902900028E4D102271E
:1008200003960A2606ABF618320000230AA90EA882
:1008300000F024FA031E00DAACE10998D4D1338821
:100840000C2B2ED10BAE32000A9901F059FC002876
:10085000C8D1174B31781B788B4224D96318B03339
:100860001A78039B023AD2B2974240415843582328
:100870004B431433C01820180CA9FFF747FC00287D
:10088000CFDA635DE318B0331A78012A07D0002A63
:1008900003D0032A01D801221A700290A4E704228F
:1008A000FAE703239FE707239DE7C0462C050000D6
:1008B00080A0000884B0000884E0000800A20008BE
:1008C0005CD10610A1D10610B64B029A1B78082AFB
:1008D00000D07EE60293002B00D17AE622000023AE
:1008E0000121B03263551170029A8A4202D022006F
:1008F000B132117002936CE614AD012B09D98E232D
:100900009B005843B830201800F01CFE2800FFF769
:1009100093FDE35DE318B0331878E87101380428DB
:1009200000D9D9E007F05AFD9203030392009E4ECE
:100930009E483368D96809F09DF833689C48D968A7
:1009400009F098F8E35D01200293002B03D0FE30FC
:10095000012B00D1FA380BA901F0AEFB43425841FC
:1009600000F066FE029B0220002B03D0FD30012B1D
:1009700000D1F9380EA901F09FFB4342584100F025
:1009800057FE58220025E35D03955343E3189B6A05
:1009900006920793079B039AE05D934224D1069A3F
:1009A0004243A318DB6B5B0736D433682A008149C6
:1009B000D86809F005F800230195582500930B9A93
:1009C0000E992000FFF758FD2900E05D41432C31CE
:1009D0006118FFF7B2FB0290002856D033687648C2
:1009E000D96809F047F828E0069B039A5843201875
:1009F000436AD2009B185B6829001A000B98059384
:100A000001F022FC4342584100F012FE059BED1814
:100A1000039B01330393BDE78E239B0058432C3285
:100A200014ABB8300093A21820180E9B029900F066
:100A3000DDFB00281ADA03230293029D6B425D411D
:100A4000280000F0F5FD280000F0F2FDE35DE2185B
:100A5000B0321278FF2A42D1534B58481B68D968EC
:100A600009F008F8002000F0E3FDFEE700289CD123
:100A70008E23E05D9B005843B830201814AA012152
:100A800000F08CFB002890D0D5E7E35D02996B4322
:100A9000E3181B6D0E985A6801F0D6FB434258418B
:100AA00000F0C6FDE35D0E985D4365196B6D2A6D20
:100AB000013BDB00D31811681A68511A5A6801F01B
:100AC000C3FB4342584100F0B3FD0B9801F00EFB0D
:100AD0000E9801F00BFBB0E7FF221A70B6E7013366
:100AE0007AE5E318B0331B78012B09D100222000EE
:100AF0001100FFF79FFB002822D00323029307E099
:100B000014AA00212000FFF7DFFA02900028EDD0A0
:100B1000A52500235827ED006355635D32789A427E
:100B20003DD97B43E318D86C01F0E0FA635D7B4369
:100B3000E318186A01F0DAFA635D01336355ECE7F4
:100B4000605D2318B0331B78012B0ED1390041436F
:100B50006118FFF7F2FA0290002806D0124B1848ED
:100B60001B68D96808F086FFD2E73900605D414311
:100B700061180A6A00F0D0F80290002806D00A4BEB
:100B8000625D1B680F49D86808F01AFF635D013386
:100B900063552DE501235B42ACE6059AF8E5029822
:100BA00021B0F0BD80A0000800A20008D0D106103E
:100BB00005D2061026D2061069D20610A5D206105C
:100BC000B4D20610F3D2061010B501000148FFF7A9
:100BD000DBFC10BD58A70008F0B587B002930CAB42
:100BE0001B7804000D0000920393002805D1012317
:100BF0005B420193019807B0F0BD0029F7D0009B3C
:100C0000002BF4D0CB680F8905AEFF183200042307
:100C10003900009801F074FA01900028E7D1154AD4
:100C200031886B89914221D171889942DFD1C919EC
:100C300004233200009801F063FA0028D7D105AAF6
:100C40000D4B11889942D2D1009B256063606B46A1
:100C50001B8923816B461B7BA3726B89DB19E360C5
:100C60005288D31863613B1D2361C3E7002BE6D094
:100C7000BDE7C0460869000007690000F0B585B00F
:100C80000400009101921E00002803D1012040427F
:100C900005B0F0BD0368002BF8D04368002BF5D0F9
:100CA000226963699A4218D223685B89002B04D0B9
:100CB000E368934201D10433236103AD04232A0086
:100CC0002169606801F01CFA0028DFD1A27A23694B
:100CD000002A04D0E2689A4201D80120D8E76A8845
:100CE0002189171DBC460B4FB94202D02D888D4279
:100CF0000DD1002E02D003A9098831800099043358
:100D00000B60019B1A80236963442361C0E763443D
:100D10002361C5E7FFFF0000F0B50025D9B00390BF
:100D20000095514B0AA81600FFF756FF0295A842FE
:100D300004D001246442200059B0F0BD0E2704AB5A
:100D4000FF1807AC3B00220008A90AA8FFF796FF8E
:100D50000028EED13B88602B0FD1802223885200DF
:100D60009342E6D818AA0899300001F0C9F9002882
:100D7000DFD1238801250293E0E7102BDED1238801
:100D8000202BD6D810AA0899300001F0B9F9041E1A
:100D9000CFD1002DCDD0029858AB2038089018182C
:100DA00001382022FF3810A908F0A7FE039B2F4E20
:100DB0009B0104933F23049A09941A4333780592C4
:100DC0002B4D002B09D1802221005201280008F070
:100DD0009DFE284B2B60012333706888244B264EE0
:100DE000C3180393039B09AFB34224D8049B234A3F
:100DF0001B051B0D13433B806B461E897E806B8851
:100E0000321D92B29B18184A93422BDC80229BB26F
:100E10005201934222D804223900039808F06DFE53
:100E20000398029A043018A908F067FE6B8804330F
:100E3000F6186E807FE704223100380008F05DFE6E
:100E40003B881A0B012A04D1059A1B051B0D9A42F7
:100E500006D009AB5B880433F618C3E701246AE7C0
:100E6000022468E7032466E7FFFF000084F001081E
:100E70000008000816200400040800083F100000C5
:100E800003000120042B05D0052B04D101390800F3
:100E9000411E884170475B1A58425841FAE70000EA
:100EA00070B50C00816886B01023103902AA0500C5
:100EB00001F060FA012300280FDB984210D10233C1
:100EC00023706B46A968DE1D2839012332002800F3
:100ED00001F050FA00280DDA0123180006B070BDA9
:100EE00010221E4902A808F0F9FD431E9841013066
:100EF0002070E6E70F2332781340120963702271E5
:100F0000012801D0042B03D901236370002323712E
:100F1000A968A21C20390123280001F02BFA00281F
:100F2000DADB0323012804D0A378013B5A1E934146
:100F30000133A370A968E21C18390123280001F0CD
:100F400019FA0028C8DB0323012804D0E378013B09
:100F50005A1E93410133E3700023BEE730D30610DD
:100F600037B50D00C0B201A901F0A6F80124002890
:100F700007D129000198FFF793FF0400019801F0C1
:100F8000B5F820003EBD0000F0B5040089B0012096
:100F9000002C03D00430012C00D0FA3004A9FFF754
:100FA000DFFF002802D0FF2009B0F0BD0220002C96
:100FB00003D00430012C00D0F93006AD2900FFF732
:100FC000CFFF0028EFD1040004AB1B78244E009320
:100FD0002B78019304ABDB780293EB78039304AB9B
:100FE0009F78A05D00993519FFF74AFF00282CD0A3
:100FF00068780199FFF744FF002826D0AB78042BCE
:1010000002D0029A934220D1EB78042B02D0039AAB
:1010100093421AD12B79042B15D1124B124A1B681B
:10102000D8686B79022B06D0104A032B03D0104AE4
:10103000042B00D00F4A104908F0C2FC6879831EC7
:10104000022BB1D9AFE7BB42E7D00634122CC8D18E
:10105000044B0A481B68D96808F00CFD0120A3E77F
:1010600040D3061000A2000857D3061052D3061032
:101070006ED306105CD3061075D306108BD3061002
:10108000A52337B5DB00C05C150001F041F901A9CB
:10109000C0B201F011F80124011E07D120232A005B
:1010A000019801F02DF80400601E8441019801F0C0
:1010B0001DF820003EBD0000A523F7B5DB00C25C93
:1010C00058235343C018C023876A9B009F4203D80C
:1010D000426D01929A424BD9284B29481B68D96826
:1010E00008F0C8FC0020FEBDAC4220D1D600B446BA
:1010F000466A0132B44466467668B446DE0064440B
:10110000B446066D0133B44466467668B446654419
:10111000BA42E9D3019EB342E6D3BA4202D10120DA
:10112000B342E0D0154B17481B68D968D8E7AC42EA
:1011300011D2D600B446466AB44466467668B446D0
:101140006444022904D10D4B0F481B68D968C7E7D6
:1011500001320121DCE7DE00B446066DB444664688
:101160007668B44665440129EDD001330221CFE70A
:1011700000210B000A000D000C00C9E700A20008C6
:10118000A3D306100FD40610D5D3061010B5040053
:101190002422002108F0BAFC200010BD70B58AB0EE
:1011A000050001A80C001600FFF7F0FF80239B004C
:1011B00004930B4B210105930A4B620001930A4BE8
:1011C0000C319B187118102201A806F07FFE002830
:1011D00004D18E210123490061434B550AB070BDF3
:1011E0000100C0040024800086F00108F0B506006C
:1011F000CFB0180015001C0000F060FB002808D1DB
:10120000924B93481B68D96808F034FC0120404297
:1012100015E1200000F0E8FA002800DA0FE18E2343
:101220005B0043439B5D03900120002B00D006E14F
:10123000009322003233290016A8FFF7CDFC031ECD
:10124000E4D10E2502AAAD182A0007A916A8FFF7B7
:1012500015FD002800D0F2E02B88712BD6D131ADDE
:101260002A000799200000F04BFF0028CED1200073
:1012700000F006FB071EC9DD06F08CFEB842C5DB98
:10128000744C102221000AA8113408F036FC210009
:1012900010220EA808F031FC2100102212A81CAC6C
:1012A00008F02BFC2000FFF771FF302306AE310061
:1012B0003800089306F060FE002800D0BFE03088B8
:1012C000210006F015FE002800D0B8E02B78042B92
:1012D00000D0B6E0CF222388120213408222D2012E
:1012E000934200D0ADE009905B4909A8678806F0F9
:1012F00065FE002800D0A2E010230EAA574909A8D5
:1013000006F004FE002800D099E010230AAA5449F0
:1013100009A806F0FBFD002800D090E00221073765
:10132000FF087F00013732882B000097FF3109A8A2
:1013300006F00EFE002800D081E0089A25A909A831
:1013400006F0F6FD00287AD109902000FFF71EFF75
:1013500080231B011F93882312255B01238002AB8E
:10136000404EED182B00202229A92000209606F0DF
:10137000ADFD002863D12988320009A806F02CFEB3
:1013800000285CD11E2302A9FF335B18102219002C
:1013900009A806F031FE002851D1FD2102AB202220
:1013A000C91809A806F038FE002848D1288806F098
:1013B0004FFD002843D11CA8FFF7E8FE80239B00C7
:1013C0001F93294B294D1C93039B294F5E00AB199A
:1013D000102225A91CA8209706F078FD00282ED100
:1013E000244C715B3A00200006F0EAFC002826D16C
:1013F000102212A9200006F005FD00281FD1039B32
:10140000549A1B010C331E21D318102202A808AFD6
:10141000FF31091801970092200006F003FD089B98
:10142000102B10D100280AD1020001003B0020003F
:1014300006F0D6FC002802D1705B06F009FD4FB023
:10144000F0BD8720E3E68420E1E6C04600A2000864
:1014500062D4061040D406100901203002020000B8
:1014600003020000090080020024800086F00108C9
:101470000100C0048CF0010810B50400100000F059
:10148000B3F90023984206DB1D33FF335843035D55
:10149000581E8341DBB2180010BD0000F0B51D00DE
:1014A000170089B004AC0C2200210600200008F0CF
:1014B0002DFB2B0F23732B0D637338002B0B2D0982
:1014C000E573A37300F090F9051E04DA002000F024
:1014D000AFF809B0F0BD8E235B004343985D6D000B
:1014E00001384342584100F0A3F8134B134AE95A1C
:1014F000134D280006F064FC0028EAD110222100D8
:10150000280006F07FFC0028E3D10E9B03AC00937B
:10151000109B0E9A19000194280006F083FC039B8F
:101520000E9A01009342D4D10028D2D102002300A8
:10153000280006F055FCCCE786F001080100C00445
:101540008CF001088E2210B59200002105F0C6FF34
:1015500010BD000010B504F051FB04F087FB04F04F
:1015600099FB62B604F070FAC022012007495200CC
:101570008B5883438B500648064A002101F0C4FC77
:10158000E120400204F05CFC10BDC0460000264093
:10159000800031409CD40610822110B501241048EF
:1015A000890042584358D205DB0B2340D20D9B18CB
:1015B000002BF6D104F0B2FC0A4801F09FFD094867
:1015C00001F09CFD084B1B681A006D3211789A6877
:1015D00080238C40DB051C438023DB00D45010BDEE
:1015E000000065408002314034F6010810B50B4818
:1015F00001F04EFB04F068FB094A8021032001F052
:1016000057FF084801F0E0FD074B1B684D331B787E
:10161000002B02D0054801F025FE10BD58DB061056
:101620000000000890F0010834F6010848D50610C3
:10163000F7B5041E49D16A46244B254D1B78254F2A
:10164000D3706B68244801933B68D96808F012FA9C
:101650002248234A2100121A08F058FA2148224A47
:101660002100121A08F052FA204E214A2100921B42
:10167000300008F04BFA6B46144ADB781370019B7C
:101680006B6086F308881B4E1B482100321A08F055
:101690003DFA86F30888012006F0BCFDFFF7A6FF9F
:1016A000686805F09FFE021E04D03B681349D868A5
:1016B00008F086F9124804F06DFB124B1B68002BF2
:1016C00001DA05F0B3FE0BF0F3FCF7BD2CF60108D0
:1016D00088F4010800A20008D0D4061080A00008F9
:1016E000D0A300083CA700083CF601080020000831
:1016F0000024000800C0020800B0020818D5061037
:101700000040001600012640F0B599B01EAB1B78D2
:101710000390049313781400302B03D0952040429B
:1017200019B0F0BD9378022BF8D108AD402200210A
:10173000280008F0EBF9E07822185379811D12791E
:10174000C9180291022AE9D1C21861780432914283
:10175000E4D1202B00DD20230100202800DD202102
:10176000401A002205900FE0501A2030070005981B
:10177000102684469444A44460460079013284468D
:1017800004A880196646C6559142EDD100220299FF
:10179000C91A64189A4212D10E2404ABE41821002D
:1017A000049806F0E9FB0028BAD140232088039A68
:1017B00001930095203B054906F0EEFAB0E7D11AF7
:1017C000A05C403168540132E4E7C04609000610CD
:1017D000037800205A1E012A05D90130052B02D0BA
:1017E000062B00D00238704703780422190000202D
:1017F0009143012905D00130022B02D0062B00D0E5
:101800000238704710B50C00FFF7E2FF012807D837
:1018100030235843044BC05C001B431E984110BD4D
:1018200001204042FBE7C04688F4010810B50400DF
:10183000FFF7DAFF00280EDB0CD02000FFF7C8FF0F
:10184000002808DB302343430448C01843780120B4
:101850005840404210BD0120FBE7C04688F4010813
:1018600010B5FFF7B5FF0022012805D83023434308
:101870000248C0182C300278100010BD88F401080E
:1018800010B5FFF7A5FF0022012804D830234343F9
:101890000248C018827C100010BDC04688F40108C0
:1018A000012805D8302343430348C01840697047D6
:1018B00001204042FBE7C04688F4010810B5FFF75D
:1018C00087FF012805D8302343430348C018007C14
:1018D00010BD01204042FBE788F401080023F0B569
:1018E0008DB00D00160004931360984203D10724B5
:1018F00020000DB0F0BD0029F9D04389002B01D1A3
:101900000324F5E701230A00009301004F3306A8E2
:10191000FFF762F9041EEBD10E276F4403003A0073
:1019200005A906A8FFF7AAF9002801D0013CDFE7C6
:101930003B88042BE4D104AA0599280000F0E0FBC1
:10194000002801D00124D3E7049BFF2BD0D83360BB
:10195000CEE70000F0B5150017221F000023FF2678
:10196000C1B0089108A95218119313702B690B90FC
:10197000380010960593FFF737FF002804DA01249A
:101980006442200041B0F0BD002800D1E5E03800FD
:10199000FFF74CFF041EF4D13800FFF78FFF431E02
:1019A0009841059B5B07DB0F984204D03800FFF796
:1019B00085FF013CE5E702220992089A12943B78E0
:1019C000002A05D006220992089A012A00D0099619
:1019D000099A934209D12B695B0706D53A00089909
:1019E0000B98FFF749FD0028C9D0A94912A806F0B5
:1019F0003DFA041EC5D1489B002B59D100242B89E8
:101A000026000693069AEB689446634407936B8915
:101A1000079A9B180A930A9BB34255D8002CB0D161
:101A200020AB202218A912A806F03EFA041EA8D165
:101A30004A9B002B00D0B2E000233A00009329001B
:101A4000944B12A8FFF7C8F8041E00D099E70125AF
:101A500005900990069007901A2608ABF6180EAC70
:101A6000330022000FA912A8FFF708F9002800DAB6
:101A700085E700D0FEE03388222B00D1B3E000D907
:101A800093E0102BE8D12688202EE5D1330020AA40
:101A90000F99380000F034FB041E00D071E73200CB
:101AA00020A918A808F01AF80028D5D10795D3E77F
:101AB000499B002BA2DD1A00489912A806F0E4F910
:101AC000041E00D05DE799E70A9B479A9B1B05928D
:101AD0009A4200D90593069BB34206D9059B069A04
:101AE0009B199A4201D2931B0593079BB34206D9D7
:101AF000059B079AF3189A4201D2931B0593059B05
:101B0000469A3100380000F0FBFA041E00D038E796
:101B10003B78099A934217D104222B69134213D0C0
:101B2000069BB34210D8079BB3420DD9469A069B39
:101B300002920F22F31A1A400192059A0899009214
:101B40000B983A00FFF7AAFC059A469912A806F0EE
:101B50009BF9059B0400F6185DE712904C4912A80A
:101B600006F084F9041E00D00BE7489B002B0AD135
:101B70006B892A897968D218EB6812A8D21806F006
:101B800083F904004AE7499B002BF1DD1A004899CC
:101B900012A806F079F9041E00D0F2E6E8E7202248
:101BA00018A94A9807F0A9FF46E7502B41D0812B8E
:101BB00000D051E72388012B00D04DE7172608AB52
:101BC000F61832002B000F99380000F099FA041E25
:101BD00000D0D6E631783800FFF714FE041E00D09E
:101BE000CFE6069538E73800FFF73AFE061E00DC20
:101BF00032E706F0CFF9B04200DA2DE723881A0069
:101C0000463A3A2A00D9BAE620AA0F99380000F0DD
:101C100077FA002800D0B2E6F6B2238820AA009610
:101C2000202118A8FFF770FD002800D014E70995BF
:101C300012E72388042B00D0A1E611AA0F993800DF
:101C400000F05EFA041E00D09BE6119BFF2B00D92A
:101C500095E610A9089800F01FF8041E00D090E641
:101C6000109BFF2B00D98AE6119A934200D9F3E624
:101C70000595F1E6079B012B00D080E6069B012B22
:101C800000D07CE6059B012B00D078E6099C90E60D
:101C900009000001FFFF000010B50C00FFF700FE77
:101CA000002803DB210005F095FC10BD0120404217
:101CB000FBE710B50C00FFF7F3FD002803DB210064
:101CC00005F0A0FC10BD01204042FBE710B5FFF776
:101CD0008DFC10BDF0B5002495B0FFF787FCFFF731
:101CE00039FC03F071FF1722C6490CA8069407F0CF
:101CF00004FF3F2002AB09222100C01807F006FFB5
:101D0000C02005AA06A9800005F0EAFAA04203D186
:101D10000CA9069805F0A6FABB4DBC4C2B68200018
:101D2000D96807F0A7FE2B68B94ED968300007F0D4
:101D3000A1FE2B680CAAB749D86807F041FE2B68B2
:101D40003000D96807F096FE2B682000D96807F0AC
:101D500091FE802005AA06A9400005F0C1FA039073
:101D600000280BD1AC4C01900090AC4BAC4A210048
:101D7000069804F04DF90390002813D02B68039ABD
:101D8000A849D86807F01CFE9F4BA7481B68D96874
:101D900007F070FE039843425841FFF749FC0020CA
:101DA00015B0F0BD0123A14AA14E1370A14BA24A68
:101DB0001A80E2695A60226A9A60A04B3380237CC1
:101DC000002B04D02B689E48D96807F053FEA378F7
:101DD000002B06D02B689B48D9688023737007F0CE
:101DE00049FE636A7360A36AB360237E012B2AD124
:101DF000230048331B78022B25D12A68924FD168E3
:101E00008A4A1370914B924A1A80E26C5A60226D92
:101E10009A60904B3B80230040331B78002B02D00C
:101E20008D4807F027FE230032331B78002B06D0A5
:101E30002B688A48D96880237B7007F01BFE636D8E
:101E40007B60A36DBB60794B85491A782B68D86895
:101E500007F0B6FD2B688348D96807F00BFEFE2219
:101E6000814BD2011A80814A5A60802252029A60C4
:101E7000230032331878002802D1A078002820D01F
:101E800004281ED800F0C4FE2B68071E784AD868C4
:101E900000D1784A3B00784907F092FD002F10D01E
:101EA000A378002B02D000236370737023003233B9
:101EB0001B78002B05D02200002331321370624AB8
:101EC00053705649200006F085F9021E07D02B6892
:101ED0006A49D86807F074FD0020FFF7A9FB09A83C
:101EE000FEF772FE0390002800D04DE72B6864488F
:101EF000D96807F0BFFD634B62681A60237A624AB3
:101F00001370002B04D0E06803F0FAFD03F06CFEC0
:101F10000127099B5D4E1A890B9B5D49D2182B68DE
:101F20003260D86807F04CFD237EBB4205D1230008
:101F300048331F78023F7B1E9F41207801380328D9
:101F400003D806F04BFA091212192B685148D968C8
:101F500007F090FD30BFFDE7FFF71EFB4A4B39004D
:101F60001A78306805F0D0FA0EE7FFF715FB02216A
:101F7000002001F079FBF1E70B26FFF70DFB0621AE
:101F80000E2001F071FB264B3E4D1B7802AA937286
:101F90003E4C2B68B618079323683F4808933A4B8A
:101FA0003E4A1B78121A0021337005F097FA3C4F15
:101FB0003C4A0021D21B380005F090FA089B184AD1
:101FC000236002AB9B7A1370079B2F4A2B603378F8
:101FD000137087F30888344E34480021321A05F014
:101FE0007DFA86F308883248324A0021121A05F039
:101FF00075FAFFF7FBFA244B29681A78206805F078
:102000001DFAC1E67CD5061000A20008ABD506106B
:10201000B5D50610E9D5061088F4010820F20108AC
:102020002CF6010814D606105ED8061080A0000811
:1020300094F201087CF20108017F0000027F000099
:1020400043D606107ED60610A0F2010888F20108D9
:10205000057F0000067F0000B9D60610F4D60610F2
:102060002FD706104AD7061014F2010800000610F8
:10207000A4D506109CD506107CD70610B6D706103E
:10208000E8D70610B0F20108ACF2010810F201081E
:1020900018D8061038D8061080A00008D0A3000871
:1020A000002000080024000800C0020800B0020858
:1020B0003CA700083CF6010810B50B4A1368002B3A
:1020C00002D10124644205E01C7804328442F5D137
:1020D00000240B600B68002B04D05B787F2B01D9A8
:1020E00000F01AFD200010BD84A0000810B50028E3
:1020F00004D043787F2B01D900F03AFD10BD0000D9
:10210000F7B54568060001921F008D4206D84E21A2
:102110001B4B1C4AFF311C4807F034FCCB189D4276
:1021200004D8A721194B174A4900F4E76D183A0063
:10213000290006F0EBF8041E1FD173787F2B06D11F
:102140003A002900019807F0D8FC2000FEBD5BB2E0
:10215000002B0FDA3B00019A2900300000F052F901
:10216000041EF2D00A4B22001B680A49D86807F007
:1021700027FCEAE701246442F4E701246442E4E72F
:1021800043D9061096D806105BD9061079D90610E7
:1021900000A2000897D90610F8B545680700160098
:1021A0001C008D4204D87C21214B224AFF3106E0DD
:1021B000CB189D4206D8BE211F4B1E4A49001F481E
:1021C00007F0E0FB6D182200290006F09FF80028B8
:1021D0002AD17B787F2B1DD1E30503D0184B154AFC
:1021E000C721EBE7EB0503D0164B124A9021DDE740
:1021F00001202F00640A640264194042711BC9194E
:10220000A74200D1F8BD380000F020FE80239B00DB
:10221000FF18F3E75BB2002B06DA23003200290037
:10222000380000F00FF9EDE701204042EAE7C04630
:1022300043D90610A6D8061079D906105BD9061026
:10224000BED90610E7D90610836870B505001600E0
:10225000934204D2DA21214B214A490005E08B4206
:1022600006D8B6211F4B1E4AFF311F4807F08AFBD4
:10227000446852181B199A4203D31C4B184ADB219D
:10228000EBE764183200210006F040F8002821D165
:102290006B787F2B16D1650A3419640A6D026402CB
:1022A000A54203D1280000F09FFD70BD0120641BF2
:1022B000640A4042002CF8D0013C6002401900F052
:1022C00093FDF7E75BB2002B04DA3100200000F049
:1022D000D9F8EAE701204042E7E7C046DED8061019
:1022E000B7D80610F8D806105BD9061011D9061019
:1022F00010B543787F2B05D05BB2002B05DA00F0D8
:10230000B7FC10BD80208000FBE701204042F8E7C9
:10231000020001290DD00320022909D00438002928
:1023200006D10120002A03D00430012A00D0FA305F
:1023300070470220002AFBD00430012AF8D0F9307F
:10234000F6E7000010B543787F2B09D05BB2FF2081
:10235000002B06DB034B044A0449054807F012FB37
:10236000002010BD3DD90610C8D806106902000033
:102370005BD90610F7B5060017000193FFF7C0FE02
:102380000500041E0AD001256D420BE03000FFF766
:10239000D9FF3B5D834205D10134E4B2019B9C42ED
:1023A000F4D301252800FEBDF8B50F001400144B2E
:1023B0001D68002D02D1012040421AE02A78043322
:1023C0008242F5D16B78A8687E2B02D98026B600B0
:1023D00001E00020012630180138310006F008F82D
:1023E0003B688342E7D300236A68834202D100201E
:1023F0003B60F8BD22606660921901330834F4E74F
:1024000084A00008F0B585B003937F2340780C00CA
:102410001840170000F0B6FB060000F0BBFB0500FB
:1024200000F0BCFBE8231B06E218039B019000931D
:1024300031003B00280002F077FD431E98414042E6
:1024400005B0F0BDF0B585B003937F2340780C0054
:102450001840170000F096FB060000F09BFB0500FB
:1024600000F09CFBE8231B06E218039B01900093FD
:1024700031003B00280002F09BFD431E9841404282
:1024800005B0F0BDF7B50400002000F07BFBE822AA
:10249000836905009B691206A4185B421C4000F08A
:1024A00079FBAB6906009F6900F078FB3B00009068
:1024B00029003000220002F0D7FD431E984140421F
:1024C000FEBD0000F0B589B006ACE07000202171BF
:1024D0002080A07000F056FB060000F05BFB0500BA
:1024E00000F05CFB310007000200280001F09AFEBA
:1024F000002815D101230497039333780200029337
:1025000005230190009371212300280001F0FEFBB8
:10251000002805D13B00034A3100280002F0DAFC14
:1025200009B0F0BD20A10700F0B500248BB009ADC3
:10253000E870200007912C80AC7000F023FB06901F
:1025400000F028FB060000F029FB069B0490039492
:102550001B780700029304230194009322002B00B0
:102560006521300001F0D2FBA0420CD108213000DF
:1025700001F064FDA04206D10300009701220799F3
:10258000300001F09BFC0BB0F0BD021E1DD04118C5
:102590008B1F1B780022342B17D14B1F1B782A3B33
:1025A000012B12D80B1F1B78193B022B0DD8CB1E09
:1025B0001B780F2B09D18B1E1B78032B05D10139FA
:1025C0000878903843425841C2B21000704700006A
:1025D00030B5002089B000F0D5FA050000F0DAFA35
:1025E000040000F0DBFA01230022049003932B780F
:1025F00020000293019200921300B72101F086FBA4
:10260000041E11D11F256D4429000320FFF78CFF04
:10261000041E09D129784BB2002B08DA29000420C6
:10262000FFF782FF041E0BD0200009B030BD8023CD
:10263000032019432970FFF745FF041EF4D1EDE78D
:1026400008212B780B420CD0002000F09BFA80224E
:10265000D8218369D2029A615A691160054A1A64C5
:10266000E2E7194304202970FFF72CFF0028EBD084
:102670000400D9E770170000F0B589B0079000207A
:102680000F0000F07FFA040000F084FA050000F06B
:1026900085FA0022049003922378060002930192A7
:1026A000009213009F21280001F030FB041E0FD17F
:1026B0004021280001F0C2FC041E09D10090030053
:1026C00001963A000799280001F0C4FB041E16D0B9
:1026D000200009B0F0BD012002F092FF3100280077
:1026E00001F0C4FC032802D0013F002FF3D13100D8
:1026F000280001F0BBFC0328EAD0024CE8E7024FB7
:10270000ECE7C0460200B200E903000010B507295B
:1027100000D901BE1F2314009C4300D001BE0E4B04
:102720001B689C695B69001BC0090001C0181F235E
:102730001A40032907D8C9008B408A4004689C438B
:102740002243026010BD0439C9008B408A404468AE
:102750009C4322434260F5E734F60108437802784F
:102760001B021A438378C0781B04134300061843E6
:1027700070470000F7B5A54BA54A9A58D10700D479
:102780007BE00F22A34FBB683D680093A24BDC6F38
:102790000193009B1440073A141B9C4200D91C0073
:1027A0009E4E002C18D1009B3D60BB60002B0CD1CD
:1027B000F92201209549D2008B5883438B50B86190
:1027C000FB69002B01D0FB699847F8230122DB004D
:1027D0008E49CA50CB58F7BD082C16D12800FFF7F8
:1027E000BDFF3060281DFFF7B9FF3060009B2D1939
:1027F0001B1B0093019BDC6F0F231C40073B1C1B22
:10280000009B9C42CDD91C00CBE7012C03D12A7838
:10281000834B1A60EAE7022C06D12A786B781B02F8
:102820001343804A1360E1E7032C07D16B782A78C1
:102830001B0213437B4A1360AA78E9E72800FFF7DD
:102840008DFF042CD1D03060052C01D12A79DFE72F
:10285000062C02D12A796B79E1E7072C07D16B7935
:102860002A791B0213436F4A1360AA79D0E7281D07
:10287000FFF774FF08243060B8E7910700D4A4E0A4
:102880000F22644D68496C69EB6808688C46024009
:10289000A24200D922006549654E002A16D1EB609C
:1028A0006C61002C0DD1F92202215848D2008358C6
:1028B0008B4383500320A8612B6A002B01D02B6A25
:1028C0009847F8236C61DB00022281E7082A19D1BE
:1028D0000868070A18705F70070C000E9F70D870A8
:1028E0000868070A18715F71070C000E9F71D87194
:1028F0009B18A41A62460F2012680240A242CCD94B
:102900002200CAE7012A03D14A4800681870EFE79D
:10291000022A04D130681870000A5870E8E7032AC8
:1029200007D130681870000A5870424800689870E3
:10293000DEE7042A08D10868070A18705F70070CE0
:10294000000E9F70D870D3E7052A0BD10868070ADC
:1029500018705F70070C000ED87036489F700068C2
:102960001871C5E7062A0CD10868070A18705F704D
:10297000070C000E9F70D87030681871000A5871EB
:10298000B6E7072A0FD10868070A18705F70070CAE
:10299000000E9F70D87030681871000A5871254871
:1029A00000689871A4E70A68100A1A705870100C31
:1029B000120E9870DA700A68100A1A715871100CA9
:1029C000120EDA719871082292E704210A4207D0A8
:1029D0000520104A9061F822D20099509B58FAE6DF
:1029E00008210A4202D00B4A0620F3E710200242D7
:1029F00006D00721074A9161F822D2009850EDE7EE
:102A00002020024200D1E6E6024AF4E700004240FC
:102A1000CC070000B4F20108080042409800424090
:102A20009000424094004240C4004240D8004240DE
:102A3000D4004240D000424010B52B4A03212B481D
:102A400000F062FA112203212848FFF75FFE284AAE
:102A50000421264800F058FA112204212348FFF7E8
:102A600055FE244A0521214800F04EFA1122052185
:102A70001E48FFF74BFE204A06211C4800F044FA8E
:102A8000112206211948FFF741FE1C4A0721174869
:102A900000F03AFA112207211448FFF737FE184BCD
:102AA0001B683C331B78022B12D9E2230F20154AF6
:102AB0009B00D1588143D150D15821308143080027
:102AC00020210143D1508021D05809060143D15023
:102AD000FA220D4B92000D490D4801F0A7F800288D
:102AE00001D10C4B186010BDBCDA061080053140D6
:102AF00088DA061054DA061020DA0610F0DA06102A
:102B000034F6010800002640B4F2010824DB061068
:102B10000000424044A1000870B50F4C23685A1CC5
:102B200018D0002B13D10D4D0D49280002F000FDE7
:102B30000022AB5E002B06DB1F2213401E3A9A4098
:102B40001300084A13600849084801F091FA236805
:102B50000133236070BDC04644A1000870A1000885
:102B60007527061000E100E0B4F2010800004240C1
:102B7000034A1368591C01DA013B13607047C046D1
:102B800044A10008024B80001B685B68C058704776
:102B90006CF301080048704700004240004870474D
:102BA000B4F2010837B50500FFF746FF041E21D136
:102BB000FFF7B2FF124B134A290013481D6002F0C1
:102BC00067F8041E12D106216846FFF755FD041E62
:102BD0000CD106216846FFF7D8FC002803D1FFF787
:102BE000C7FF20003EBDFFF7F3FC0400FFF7C0FF66
:102BF000002CF6D00122054B52421A60F1E7C04684
:102C00006CF30108B4F201080000424044A100083E
:102C1000F8B5144C6368022803D003281AD00128A1
:102C20001CD11B6818700C22013850430E4B0F4A00
:102C3000C55818184668077A31002800177200F046
:102C400063F928003A003100FFF760FD2000FFF72C
:102C5000A9FFF8BD04221B681A70E4E70120404276
:102C6000F7E7C04660A1000834DB06109CA000080E
:102C7000024B5B681B689B69586A704760A100083B
:102C8000024B5B681B689B695868704760A100082D
:102C9000014B18607047C04634F60108074A1368B4
:102CA0002E331B78834200D801BE13681A00AC3261
:102CB00012881B6A5043C0187047C04634F601089A
:102CC0001D4B98420FD010D840282FD005D800288F
:102CD00030D0102828D019481EE0802828D0802322
:102CE0005B009842F7D1144816E0154B984214D077
:102CF00008D8A0231B0698421CD0124B9842EAD158
:102D0000A0200BE0104B98420AD0104B984209D0FB
:102D10000F4B9842DFD10F487047A420C003FBE758
:102D20000D48F9E70D48F7E70D48F5E70D48F3E7DB
:102D30000D48F1E70020EFE706005200FF005200C7
:102D4000010000F0090000A0040000F0050000F000
:102D5000030000F001005200020052000300520084
:102D600001005000020050000500520010B5002084
:102D700002F06CFB0B4B1B681A1DD26F1B689B1873
:102D800019681C68090E01314B08181805F030FB52
:102D9000240AE4B201346308C018210005F028FBBE
:102DA00010BDC04634F6010810B50020FFF776FFCD
:102DB0000A4B1C682300B0331B68C0180368002B43
:102DC0000ADB074B1868FFF77BFF012263689A60F4
:102DD0009A68002AFCD110BD0248FCE734F60108CD
:102DE000B8F301080200500070B5C4050500E40DF9
:102DF0001ED102F069FF0F4B0F4A1A605D609C60A4
:102E0000DC600E4B1B685033197800290BD0FFF79C
:102E1000ADFFFA21890005F0EBFA0100084805F042
:102E2000E7FA084BC118802040000AF059F970BD3C
:102E30000548FCE7B8F301080001001C34F601085E
:102E400060F59000980800000600520070B5C405B7
:102E500006000D00E40D20D100291ED002F034FF41
:102E60000F4B104A1A605C609E60DD600E4B1B6861
:102E70004E33197800290BD0FFF778FFFA2189002B
:102E800005F0B6FA0100094805F0B2FA084BC1187E
:102E9000802040000AF024F970BD0648FCE7C046D7
:102EA000B8F301080001000534F60108C0EA210169
:102EB000482600000600520010B5072900D901BEBF
:102EC0001F2314009C4300D001BE0E4B1B689C695D
:102ED0005B69001BC0090001C0181F231A400329A9
:102EE00007D8C9008B408A4004689C432243026093
:102EF00010BD0439C9008B408A4044689C4322437A
:102F00004260F5E734F60108F0B5060085B00D0023
:102F10001400002800D1EAE0002A00D1E7E00729E8
:102F200000D901BE2368012B00D901BE0F236268BE
:102F30009A4300D001BE1F22237A934300D001BEE2
:102F4000E368032B00D901BE2369012B00D901BE20
:102F50006369012B00D901BEA369012B00D901BE11
:102F6000E369032B00D901BE236A012B00D901BEFE
:102F7000636A012B00D901BEA36A012B00D901BEEF
:102F8000E36A032B00D901BE236B072B00D901BED6
:102F90002368072D00D901BE0121A9400091012B12
:102FA00003D901BE009BB36003E0002BFAD1009B64
:102FB00073606368072D00D901BE0F221900914389
:102FC00000D001BE4B4FAA0002923A68A8007932A5
:102FD00012789219116801910F218140019888435C
:102FE00001000F200340A80083400B431360227AA6
:102FF00029003000FFF760FFE368082D00D901BE0B
:10300000032B00D901BE39686A007831087830187E
:1030100001680F00032191408F43390003273B4093
:103020009340194301602369082D00D901BE012B8B
:1030300000D901BE012700983B40C043AB40B169B5
:1030400001400B43B3616369072D00D901BE012B19
:1030500000D901BE27491032096801917A310978F7
:1030600071180F68BC4601273B40AB400393634691
:103070001840039B184308600321019B7B33187899
:10308000301803689C46A3693B40AB40E5690D409E
:10309000954091402B436546009A11438D432B4345
:1030A0000360626A0221BA4004200A40A16A019BBF
:1030B000890001400A43216A02980F4018211743F2
:1030C000E26A7C33D2000A401743226BE731520197
:1030D0000A401743FE2292001040874000201B78D0
:1030E000F61833688B431F43376005B0F0BD0248C4
:1030F000FBE7C04634F6010801005A00134B10B537
:103100001A6893695169C31ADB091B015B18140023
:1031100000217934016024782418216014007A3465
:1031200024782418216014007B342478241821602A
:103130001400783424787C3224182160816112785C
:10314000101801601960596010BDC04634F60108BE
:10315000084B1B68B0331B68C3181B68002B06DACA
:103160000B0C00D001BE89B24160002070470248BC
:10317000FCE7C04634F6010801008A000368002B12
:1031800007DAC2600B0C00D001BE89B2816000205A
:1031900070470148FCE7C04601008A00002900D1C1
:1031A00001BE074B1B68B0331B68C3181B68002B9C
:1031B00003DAC36800200B6070470248FCE7C04692
:1031C00034F6010801008A00024B1A68002A00D177
:1031D00018607047CCF30108F0B5204E059D3468A7
:1031E000002C00D101BE2C241F0060433468FF2650
:1031F00020181C0A37403440194E1B0C836033687A
:10320000076044602E331B789F4200D301BE3468B0
:103210002300AC331B887B43276A2F34DB190361FF
:1032200024784368A34200D301BE34688033246A03
:103230005B011B1984684361260C01D001BE01BEED
:103240002404260C34439C600023C2610162836124
:103250009D4201D02B888381F0BDC046CCF301088C
:1032600034F60108F0B5040085B0002800D101BE95
:103270006368032B00D901BEE36A002B00D101BEB5
:10328000236B002B00D101BEA36802AD2B80144B31
:1032900022681B68E16A9B8EE0689B186B806368FC
:1032A000A26A039300952369266A676AFFF794FF71
:1032B00000213B000A0000913000FFF78DFF216BD9
:1032C000280002F035F90022AB5E002B06DB1F223E
:1032D00013401E3A9A401300024A136005B0F0BD35
:1032E00034F6010800E100E0F0B5002A00D101BE8B
:1032F000164C2568002D00D101BE25682C246043A2
:103300006143281804696918002C1BD08D69002DB1
:103310001AD12568002D17DA0126350037004068DC
:1033200085404868874010683F0480B23843106089
:10333000E2604B628E612B0C00D001BE0020ADB26A
:10334000A560F0BD0248FCE70248FAE7CCF30108AB
:1033500004028A0007028A00002373B50400019367
:10336000984200D101BE2369002B00D101BE6369E0
:10337000002B00D101BE236A002B00D101BE62697F
:10338000D5682B0C22D01B04136013681A4B2069DC
:103390001B68B0331B68C3181B68002B16DA01A921
:1033A000FFF7FCFE0026B0420CD10198E2690368E9
:1033B0001E0CDBB29A4205D9226A9B009B58002B57
:1033C00000D0984731002069FFF7C2FEADB2002D52
:1033D00009D063691D6000251B68636AAB4205D094
:1033E00098476562A56163691B6873BDA36A002B7A
:1033F000F8D09847F6E7C04634F60108064A10B5FB
:103400001368002B00D101BE2C2343431068C01861
:10341000FFF7A2FF10BDC046CCF30108074A1368AE
:103420002E331B78834200D801BE13681A00AC32D9
:1034300012881B6A5043C0187047C04634F6010812
:10344000F8B5174B0D001B682E331B78834225D926
:10345000002923D01F240B681C401FD1FFF7DEFF7B
:1034600007002B680F4EDA0821003060686806F00C
:103470004DFB21003800FFF76BFE21002A00306869
:10348000FFF77CFE041E07D101003068FFF760FEE5
:1034900003002000002B00D00348F8BD0348FCE7E0
:1034A00034F60108D0F3010801018A0003018A0003
:1034B00010B50C00002A07D100290DD1FFF7AEFF8F
:1034C000064B1860200010BD002905D004490C608F
:1034D0004A60FFF7B5FFF6E70248F4E7D0F30108CA
:1034E0001400000803018A00F7B5184F04003B6878
:1034F0000191DE683368834226D90025A94202D1B2
:1035000004F027FF050038680368002B1ADA1F2231
:1035100001232240934064097268A40014192268B0
:1035200013420DD09A43226000240021FFF710FEC1
:10353000019B002B02D1280004F00FFF2000FEBDEC
:10354000034CF2E7034CF3E7034CF7E7D0F3010831
:10355000020188000301880004018A000A4B1B68ED
:10356000DB681A6882420DD959681F234209184046
:103570001E3B8340920050581840431E9841034B15
:10358000C01870470248FCE7D0F30108000188002A
:1035900004018A0037B503230024074D1A002800D0
:1035A00000940F2100F05AF9280000942300220013
:1035B000702100F053F937BD001A0140002307B510
:1035C000009303331A007F21014800F047F907BD3B
:1035D000001A0140F7B5214D01902D6808AC2C353B
:1035E0002D7824781F2D36D90C259B002B40093DC2
:1035F0002A401A436342634100251B011A4300928B
:103600001F272A00490000291ED00026019B940094
:103610001C1923680120014205D03800B0408343C3
:103620000098B040034308364908202EF2D12360A9
:10363000002A03D126685E40BE4307D124689C421D
:1036400007D10132042ADED12800FEBD044D01223B
:10365000D9E7034DF5E7034DF6E7C04634F6010818
:103660000300C2000200C20030B5114D2B685B6C34
:10367000C340DB0700D401BE0F2900D901BEF023EF
:103680000A041B030F241A400B002D6823401A4321
:10369000830228691B188020C0011A501858204046
:1036A000401A411E884103494042084030BDC0468F
:1036B00034F601080300C20010B5002800D101BE95
:1036C0004B89DB0B00D001BE02238A799A43012A81
:1036D00000D001BECA799A43012A00D001BE4A89AE
:1036E0007F2314009C4322D107248B79520223406C
:1036F00013434A7A313492071343CA79097AD200C4
:103700002240134301224A40920113431A000949FF
:103710000A409A420BD14262406A0840801A4342F2
:103720005841054B40421840044BC01810BD044896
:10373000FCE7C046DBFEFFE0FDFF3DFF0300C200EB
:103740000100C20030B5002800D101BE4B89DB0B5F
:1037500000D001BE8B79072B00D901BECB79072B96
:1037600000D901BE0B79073B182B00D901BE4C894B
:103770007F2322009A43131E2DD107250A68FF33A9
:103780009A434B7964021A438B792B4023434C7A3A
:103790003135A4072343CC79E4002C402343012492
:1037A0000D7A09796C40A4012343F82409066405C5
:1037B00021400B4343600260016891420DD1406893
:1037C000074A1040C01A43425841064B4042184035
:1037D000054BC01830BD0548FCE70348FAE7C04672
:1037E000FFFEFFFFFDFF3DFF0300C2000100C2001E
:1037F000002800D101BE8023426A1B0613434362A6
:10380000406A024BC00F0138184070470300C200E5
:10381000002800D101BE802342681B061343436089
:103820004068024BC00F0138184070470300C200C7
:1038300073B506AC2578002800D101BE022416001D
:10384000A643012E00D001BE1E00A643012E00D0CB
:1038500001BE00953030FFF7BDFE76BD13B504AC58
:103860002478002800D101BE032A00D901BE032B11
:1038700000D901BE00941030FFF7ACFE16BD0368FE
:1038800010B5020080241B0500D4403C82239B001D
:10389000D3580020DB05DB0DA34203D090239B000F
:1038A000D150013010BD036880201B0500D4403882
:1038B00070470000F0B5050085B00C001600002828
:1038C00000D147E1002900D144E10B78022B00D957
:1038D00001BE637B023B062B00D901BEA37B002BFC
:1038E00003D0023B012B00D901BEA31CDB7F012BBF
:1038F00000D901BE230028331B78012B00D901BE5B
:103900002378012B00D919E108236268083A934211
:103910009B415B42002B00D001BEA368053B042BFA
:1039200000D901BE6369FF2B00D901BEA369FF2B3B
:1039300000D901BEA37C002B09D02378002B05D130
:10394000A368092B02D1A37B002B00D001BE824BC0
:10395000626B1A4200D001BE804BE26B1A4200D06B
:1039600001BE2378022B03D10022A37F934201D012
:1039700063685A1E237F0021581E834118040823C0
:10398000A768BB42494107331A4080239B04134375
:103990000343C9020B432B602800276BFFF783FF0B
:1039A000874200D301BE2800A76BFFF77CFF874248
:1039B00000D301BE2800676AFFF775FF874200D376
:1039C00001BEC022217892040B0613402B64607F55
:1039D000E76A431E984183010093A37C07205A1E87
:1039E0009341227C9B020193531E9A411302627CF5
:1039F0000293531E9A415302F02203937B1E12033B
:103A00001B041340627B013A02401343A27B29301E
:103A1000120102401A43009B1A43019B1A43029B66
:103A20001A43039B1A43AA64207B431E9841E37BFD
:103A30000002002B00D08AE002394B4259414B0270
:103A4000A268511E0F2211400143C020194380007B
:103A50002950FF21A36909041B040B406169C9B205
:103A60000B43C42189006B502B581A4003329742F4
:103A700001D3102F00D901BE0021E37F22788B42B1
:103A800003D0531E59424B41190207203027637B54
:103A9000013A013B0340A07B0001384003430B4344
:103AA0006B64237B0F20591E8B411902A368013BD5
:103AB00003400B4351424A41120413438022FF2129
:103AC0009200AB50236B05320B40FF32AB50631CAE
:103AD000DB7F5F1EBB415F06A31CDB7F013B5842BF
:103AE00043411806230028331B78013B5A425341B7
:103AF0001A04636A0B403B43034313432B65A36BD8
:103B0000626B194081239B00E950154B3000134034
:103B1000144AAB50E36B144A1340144AAB500023D1
:103B20009E4209D01800124A7360B3603360F3609C
:103B300033623363F362726305B0F0BD0023A27F8A
:103B40009A4200D1E6E663685A1E0623DFE6802328
:103B50009B0075E70748EFE792F4FFFF8CF8FFFF43
:103B60006D0B0000C80F000073070000880F0000F5
:103B7000EFCDAB000160AA00114B08220360C02109
:103B80000F3B03640023FF328900836442500431F9
:103B900043500C3143501139FF3943644250FD32D8
:103BA0008350084A03658350074A8350074A83506D
:103BB000074A8350074A8350074A83507047C046DC
:103BC0000F000003C80E0000880E0000C80F0000A0
:103BD000880F0000080F0000480F000003685B001A
:103BE0005B080360002904D000234B600B600B626C
:103BF000CB627047036810B50400002B07D001208A
:103C000001F0FEFC2368013B2360002B01D0002063
:103C100010BD0148FCE7C0460200B200030A08706C
:103C20004B70030C000E8B70C870704710B50028E5
:103C300035D0002933D0002B31D05A62F922032429
:103C4000D2008358A34383500B68DBB2012B00D909
:103C500001BE8B68DBB2032B00D901BE4B68072B7A
:103C600000D901BECB68DBB2012B00D901BEC02256
:103C7000E0248B6892011B0313404A68E40212049B
:103C80002240134301220C6822401343CA6880215A
:103C9000120649040A4013430360002010BD014886
:103CA000FCE7C0460400B2000300481E10B5C4B2D1
:103CB000012C04D904291ED0082920D001BE032AD2
:103CC00000D901BE072813D804F088FB041312178B
:103CD0001212121B802109015818002808D0C02197
:103CE0001204890203680A4007490B401A43026024
:103CF00010BD8821EFE7032AE3D89021EBE7032AE0
:103D0000DFD89821E7E7C046FFFFFCFFF0B585B09C
:103D100001930AAB070001CB151F0090EDB20CA870
:103D200004781B780E98FA2D00D801BE1D1FEDB245
:103D3000FA2D00D801BE651E012D04D9FB26251FD2
:103D4000354200D001BE2402A446F0240D9D24017A
:103D5000EE07009D1204002D38D0019D002D00D1EA
:103D600001BEFF2B00D101BE6546406A254003908D
:103D7000C02029432C000025800202401143360C4C
:103D800029430025C02228001B04920213403965F4
:103D90001C43009B9D4202D2134B984201D105B0B7
:103DA000F0BD07227B6C1340032B0BD8019B0099BD
:103DB0005B5D0135234332008D4200D20022134364
:103DC0003B65EDB203A8FFF715FFE2E76546254026
:103DD0002C00C025406AAD022A402143350C0390D7
:103DE00011432E00CCE7C0460200B200F0B51D1F03
:103DF000EDB2069CFA2D00D801BE144E551EB542F8
:103E000000D901BE0727466C3E40032E1BD8C026B2
:103E10001B04B60233408026ADB2F60235432B4375
:103E200003650B1E0DD0059B21606260A260E361FB
:103E3000F9220223D200A3618158013B0B43835036
:103E400000231800F0BD024BFBE7C046FFFF000057
:103E50000100B20070B51D1FEDB2059CFA2D00D80F
:103E600001BE002A21D00726456C3540032D1ED8FF
:103E70008025561EB6B22D033543C0261B04B6025C
:103E800033402B4303650B1E0DD0049BE160226180
:103E900062612362F9220423D200A3618158023BAC
:103EA0000B4383500023180070BD024BFBE7024B0D
:103EB000F9E7C0460400B2000100B200F0B5060008
:103EC000181FC0B28FB0FA2800D801BE002A00D156
:103ED000AAE00724706C2040032800D9A6E08020C7
:103EE000541EA4B200032043C0241B04A402234098
:103EF00003433365081E0ED0149B00205B6A0791B4
:103F00000393042309920C900A930A9B042B02D179
:103F1000474B984201D10FB0F0BD099B079C00931D
:103F20003300C43301931D680F231D40009B9D4245
:103F300000D91D00002D17D1009B07940993002B79
:103F40000CD1F92202210320D200B3588B43B35085
:103F50000A900C9B002B01D00C9B9847009B03A858
:103F60000993FFF747FED0E7082D0AD13700D8376D
:103F700038682100FFF752FE3868211DFFF74EFE1A
:103F800005E0012D09D13300D0331B682370009B5D
:103F900064195B1B0093019BC5E7022D06D133001A
:103FA000D4331B6823701B0A6370F0E7032D0AD11A
:103FB0003300D4331B6823701B0A63703300D03383
:103FC0001B68A370E3E73700D83738682100042D59
:103FD000D4D0052D06D1FFF721FE3300D0331B6866
:103FE0002371D4E7062D08D1FFF718FE3300D43330
:103FF0001B6823711B0A6371C9E7072D0CD1FFF7FA
:104000000DFE3300D4331B6823711B0A6371330028
:10401000D0331B68A371BAE7FFF700FE3868211D93
:10402000FFF7FCFD0825B2E7024874E7024872E793
:104030000200B2000400B2000100B20000290CD05E
:104040000722436C1340032B09D8C023013989B2DE
:104050001B0319430165002070470248FCE7024832
:10406000FAE7C0460400B2000100B2008869704758
:1040700000230B604B608B600B61CB604B618B61ED
:10408000802302681B06134303607047F0B5046881
:1040900043691D20042C2AD11E38186001260020F7
:1040A0004C78E406240F3500270085402F40BD42A0
:1040B00006D001300528F6D1FF2200201A71F0BD8C
:1040C0000428F9D00C7914704C790532D4718C79AC
:1040D000D474CC790918D4770A7940001A601D305D
:1040E00000221A715A71EAE72328E5D002300A5CEF
:1040F000FF2AF9D01A60F3E7F8B505000E001700A3
:104100000D4C39002800FFF7B1FF864202D0013C78
:10411000002C0CD139002800FFF7A8FF301A4342C9
:104120005841064B40421840054BC018F8BD0120CD
:1041300001F066FAE5E7C046E9030000FEFF4DFF27
:104140000200B200F0B500270C0087B00E9D0600FB
:1041500010000A7909680495039702936379C9B23C
:1041600001930323009303003000FFF7CFFDB84213
:1041700016D121693000FFF761FFB84210D1237DCD
:104180000C9A009001950D993000FFF763FEB8423C
:1041900006D16C6A0A4BAA69032A01D0984201D160
:1041A00007B0F0BD00208442F5D00130013C01F0A1
:1041B00027FA60426041024B40421840EAE7C0469D
:1041C0000200B200F7B500258C79C0B20134E400DA
:1041D00001942F0008248446085D84450BD10E19F4
:1041E000F079FF2807D17078B84204D3B678012E51
:1041F00001D107002500019808348442ECD9002D34
:104200000BD04919087990704879507088791070EE
:104210000020CA7892001A60FEBD0148FCE7C04643
:104220008000B20030B58B6987B0DB680C001500E8
:10423000002B0FD019681A79012303932378C9B290
:104240000293FF230193002304950093FFF75EFD83
:1042500007B030BD0048FBE78000B20070B5160023
:1042600000220400080086B00A9D039204951900FC
:10427000037800920293FF23200001931300FFF7BD
:1042800045FD002806D103000095012231002000E1
:10429000FFF714FE06B070BD30B50F24012385B0C2
:1042A0008D696C442370AB6A002B0BD01B680092A5
:1042B000DBB22200FFF7D2FF002803D12378AA6BDC
:1042C000134023702078431E9841C0B205B030BD22
:1042D000F0B51F008B6989B01C6A0500002C47D01F
:1042E000002A47D0586A0E9EB04243D34869C6B2EE
:1042F0004869002800D10E7821682079C9B2079159
:1043000010990296049100210391617901911B6833
:1043100007990093130002002800FFF7F7FC00281C
:1043200024D1A1684B1C12D12169002904D0280096
:10433000FFF784FE002819D1109A237D01920F9A6D
:104340003900009228000E9AFFF750FD0EE0109BF6
:10435000227B0493FF230390019300900300C9B2D2
:1043600002962800FFF7D2FC0028DDD009B0F0BD8E
:104370000148FBE70148F9E78000B2000400B20001
:10438000F0B51F008B6989B09C680500002C43D0F4
:10439000002A43D04869C6B24869002800D10E7887
:1043A00021682079C9B207911099029604910021E1
:1043B0000391617901911B68079900931300020032
:1043C0002800FFF7A3FC002824D1A1684B1C12D1C0
:1043D0002169002904D02800FFF730FE002819D1F8
:1043E000109A237D01920F9A3900009228000E9AAC
:1043F000FFF730FD0EE0109B227B0493FF23039018
:10440000019300900300C9B202962800FFF77EFCDA
:104410000028DDD009B0F0BD0148FBE70148F9E70D
:104420008000B2000400B200F0B58C46002800D134
:1044300001BE83695868904219D31D6D002D03D0C9
:104440000020DF6C874201D10A480DE08300EC5860
:104450002668B24209D3E36861684B439B199A42CC
:1044600003D2634600201C60F0BD0130EAE7024839
:10447000FAE7C0460600B2000400B200F0B58BB007
:1044800006900D0014000793002900D101BE002CF6
:1044900031D000222300AE69099231687769611832
:1044A00099421FD109A92800FFF7BEFF002F20D095
:1044B0003A79FF2A1DD0114B98421AD0002816D104
:1044C000099B9968079B01920493012303932B781E
:1044D000C9B202933368069800932300FFF716FCD5
:1044E0000BB0F0BD1878120202430133D8E73968E7
:1044F000E8E70348F4E70148F2E7C0460400B200E9
:104500008000B200F0B5D5B008900C0009921E00F2
:10451000002900D101BE002310AA1380937011AAB4
:104520001380937012AA13809370626B22AD06926F
:104530001A005A550133642BFBD1320009990898AF
:10454000FFF7B2FB069B002B03D16A4F380055B032
:10455000F0BD5A9B01950293382310AA0093069947
:10456000099B0898FFF7EEFD071EEFD1AB79062BEC
:10457000EBD82B78532BE8D16B78462BE5D1AB7871
:10458000442BE2D1EB78502BDFD12B79052BDCD9F2
:104590006B790A93012BD8D1002513AB11AA22A95C
:1045A00055481395FFF70EFE14AB12AA22A95348E3
:1045B0001495FFF707FE524B984201D1E56425653B
:1045C000FF2015AB10AA22A900021595FFF7FAFDEE
:1045D000071EBBD1A368002B00D101BEE368002BEE
:1045E00000D101BE2369002B00D101BE6369002BFD
:1045F00000D101BEE369002B00D101BE236A002B6C
:1046000000D101BEA36A002B00D101BE5A9B22AD8E
:104610000293159B10AA00930699099B019508988F
:10462000FFF790FD012207901000297F16AB88400C
:1046300017901000697F1970A97F8840E97F1A9050
:104640001973692108A809181000C97F88406A21D8
:104650001D9008A80918C97F19766B210918C97F10
:1046600023AB8A402092DA7F3D231B18DA77AB78A0
:1046700000225B079B0F032B01D0224AD25C239BB5
:104680002260002B30DB0133DB0801221100636064
:104690002CAB1B7804201B09994006236162E1685A
:1046A0000B6000230B7121690B7108600521A26367
:1046B000A26A1371E36A1160002B00D101BE236B63
:1046C000002B00D101BE0022236B08A91A71A2326F
:1046D000521810784006400F05281BD8012203F01D
:1046E0007DFE13DFE5EBDFDF8022033B1206134381
:1046F000CBE7C0460500B20084FF000081FF000048
:104700008000B2000CDC061001225242E2631A6003
:10471000E36A1A606022E3691F251A6000221A7199
:104720000F232B9A2C991A40013250000A0E2A406E
:10473000013242434800BB4B800F4000C05A0F2358
:10474000424362640A0A15400B404022890400D4A7
:10475000383A0220013301355B006B43534322AAF0
:10476000A364A56893788643012E00D1ABE0202195
:10477000194000D1C1E0537A68712B6000232B717E
:10478000137A5B0900D0B4E0013BAB601F2222AB7F
:104790001B7A052613402B6102232B752368042BFB
:1047A00000D0EEE131AB1B785A0600D49E4F0120B9
:1047B000034229D09B0712D5E368002B0FD019685C
:1047C0001A795A9B03900493099BC9B20293FF2361
:1047D0000193002308980093FFF798FA0700924B83
:1047E0009F4201D0002F20D15A9B00220493012325
:1047F0000393099B00920293FF23B721019308982A
:104800001300FFF783FA0700002F0ED15A9B11AA5D
:1048100002933BAB0193139B069900930898099B65
:10482000FFF790FC071E00D1A5E0012054AB1B1838
:10483000C93B1A78012393401B38A36143080B93AB
:104840000F232B9E0020334001335B000793FA2394
:104850009B009C4618AD3300C3401F211A090A4033
:104860005B0A1C390B407D31022B06D06146032BBD
:1048700003D01021012B00D00F39079B01325A437E
:104880004A4307302A600C351C28E4D10B9B1038B2
:10489000584354AB18180538FF3883682364D9E0AF
:1048A0000221E1631A60E36A352232E74021E163C5
:1048B0001A60E36A05222CE78022E263423A1A601A
:1048C000E36A013225E71021194033D0D37B6E71A2
:1048D0002B6000232B71937B5B0927D1013BAB60DD
:1048E0001F2222AB9B7B032613402B6101232B75D8
:1048F00054E7FF232873AB6048E7FF265B0600D42C
:104900004CE7D37A29712B606971937A5B090AD1DC
:10491000013BAB601F2222AB9B7A042613402B6124
:1049200002232B753AE7AE602973F3E7FF232E735A
:10493000AB60D5E7334015D0537B29712B6069718B
:10494000137B5B090AD1013BAB601F2222AB1B7BAF
:10495000022613402B6101232B751FE7FF232973C8
:10496000AB60F2E703222A60043A2B716B71AA60F4
:104970002B612B7512E7013E3B9B042E09D83000BA
:1049800003F02CFD1D19151103009B0601D5EC2326
:104990002B60236A3B9A042E54D8300003F01EFD8E
:1049A000E2E2E2311300DB06F3D56C23F0E71B07EC
:1049B000EFD5BC23ECE75B07EBD53C23E8E79B078F
:1049C000E7D50C23E4E7802501206D001540404227
:1049D000002D0AD03E2200211A603C3A19715A710A
:1049E00098601A7319611A752CE0802111401DD04E
:1049F00034221D711A605D7198601D731D61323A19
:104A0000F1E7802101201140404200290ED03422DC
:104A10001A60002298601A715A711A731A61023270
:104A2000E1E7C04610DC06108000B20040252A40B5
:104A300000D18FE0122219711A60597198601973B0
:104A40001961197516AA3BA92000FFF71FFB002862
:104A500000D0EBE6236D002B00D177E55A9B12AA1C
:104A6000029322AB0193149B069900930898099B2B
:104A7000FFF768FB071E00D068E50600149B3B901B
:104A80000B93814B069007930221069A22ABD25CCE
:104A90000A4000D188E0079B002B51D1692208AB66
:104AA0006831C918D2180698069B105CCB5CB042DE
:104AB00000D0CCE05A1CD2B2E264012A46D90025CB
:104AC000226D9B000B92069A09950432D3180C9321
:104AD000069B08936821099B5B190993089B043383
:104AE0000893089A08AB5B18995C0F2319400023C0
:104AF0000A9A0A4200D1B5E06820089908AA12185B
:104B00005258150A0D920A0006990135521A0B994E
:104B1000043A8E58099A2D0232600C22534316AA89
:104B2000D3181A785968B2609A6832618D4200D3FE
:104B3000A2E00123F5607360089B0C9A9342C9D1EF
:104B4000079B1A00504B9A4200D09BE00023E3647D
:104B50002365FBE402211A7119605A7198601A7377
:104B60001A6140E740210A404139002A06D012224A
:104B70001A6000221A715A719960F0E702201860D9
:104B8000F8E70222236A01211A60002249421A71C1
:104B90005A7199601A731A611A7522A916AA20000F
:104BA000FFF774FA079F52E706995B18D87859788F
:104BB0000C901F2007919B7808A9401802709B0950
:104BC0000320012B05D0181E03D00420022B00D097
:104BD0002068069D0022AC463BAB844490422ED117
:104BE0005A9A09990492002202910090039201922C
:104BF00007990898FFF78AF80790002815D11F2514
:104C000008ABED185A9B0122009329000300089875
:104C1000FFF754F90790002807D17600F3B20C9AF9
:104C20002E781640721E96411E43069B083306934B
:104C3000069A0B9B934200D326E7144F86E4654601
:104C400022A9AD1A4D19ED789D540132C6E7069898
:104C500002339B00C318069306980B9B834200D334
:104C600021E7EAE701335200DBB2D2B2052B00D0D4
:104C70003FE7064A07923FE7F160280003F0B8FBE0
:104C8000706059E7079F61E40600B2000700B200B8
:104C9000F0B589B002900792002800D111E10029F7
:104CA00000D10EE14B680593002B00D109E1002AE9
:104CB00000D106E10B680693002B00D101E100232F
:104CC000C02603930493B602039B059A9B00D45815
:104CD000002C00D1D9E023785A1E012A06D90422DB
:104CE000043B9343DBB2002B00D001BE237A032B9D
:104CF00000D901BEA369002B00D101BE2278501E4D
:104D0000072800D9DBE003F069FB04D1DAD4DADA52
:104D1000DAD78021029B09015D18237A29686A4F3E
:104D2000180430403940014329600421606808407C
:104D30000DD0079902980091A169FFF7E3FB0028C5
:104D400005D00823039A9340049A1A430492A36956
:104D50001B68013B032B00D901BE002800D094E062
:104D600063689B0700D490E02169E06803F0C6FB0C
:104D7000002900D001BE2369544A934202D95A1E29
:104D8000134200D001BEFF218C466746E168A0694E
:104D9000B9438268036AA96021694942B943E9605D
:104DA00001680320013901406069471EB8410002D3
:104DB00001432962002A2DD010680021471C08D029
:104DC00067460740802011790006090431400743F7
:104DD000394329645179906809043140696400219C
:104DE000471C07D08027117BC0B209043F06314021
:104DF000384301430020A9641169814205D01F3066
:104E000001390140802000060843E864127D120445
:104E100032402A65002B2CD019680022481C07D08C
:104E200080201A79C9B212040006324001430A43B5
:104E30002A665A799968120432406A660022481C30
:104E400007D080201A7BC9B2120400063240014309
:104E50000A430021AA661A698A4205D01F31013A25
:104E60000A40802109061143E9661B7D1B0433407B
:104E70002B6702216268FF3111408022237A1206DB
:104E80001B0433400A4313432B60039B01330393FA
:104E9000039A069B934200D016E70020049B002B48
:104EA00002D0B2200004184309B0F0BD029B882153
:104EB00031E7029B90212EE7029B98212BE70448C3
:104EC000ECE70348F0E7C046FFFFFCFFFFFF0000F0
:104ED0000400B200F7B50F0000901500019396088A
:104EE00000D101362C00B54200D934002D1B0C4BEB
:104EF00020009C4200D91800241A80B200F080FBE8
:104F0000002CF4D1019A39000098FFF7C5F9002868
:104F100003D0002DE6D10348FEBD2000FCE7C046CB
:104F2000FFFF00000200B200F0B51F00002389B0AF
:104F300005900D0016000793994200D101BE002F85
:104F400000D101BEAA690E9B5268F318174893421C
:104F500027D909B0F0BD80230E9C5B029C4200D98A
:104F60001C003100AB6907AA1B68013B9954090A70
:104F7000002BFAD10F990193029100943B00290074
:104F80000598FFF7FDF90028E3D10F9A0321059852
:104F9000FFF7B2F80028DCD10E9B36191B1B0E93CD
:104FA0003F190E9B002BD6D1D3E7C0460400B200B8
:104FB000F0B51F00002389B004900C001500079382
:104FC000994200D101BE002F00D101BEA2690E9B03
:104FD0005168EB188B4243D8536A224805930E9BC5
:104FE000002B01D109B0F0BD0599280003F086FA25
:104FF0000E9B059A5B180E9E934200D3561A0F9A89
:1050000021000498FFF70EF90028EBD12900A369CD
:1050100007AA1B68013B9954090A002BFAD10F9982
:105020000193029100963B0021000498FFF750F98C
:105030000028D7D10F9A01210498FFF75DF80028C6
:10504000D0D1A2690F9B926C21000498FFF742FF18
:105050000028C7D10E9BBF199B1BAD190E93BEE74D
:105060000048BFE70400B200F0B58BB00393002303
:1050700005900191029208930993002900D101BE85
:10508000019B029A9B6909A904939F691B6C019873
:105090000793FFF7C9F9041E18D1099BDF685E6802
:1050A0001D687E4373190693039B002B00D1394C76
:1050B000029B3900581B03F021FA002903D1354B1C
:1050C0009C4206D1334C20000BB0F0BD0025069564
:1050D000EAE7029B039A9E18069BB34209D9721E07
:1050E00009A90198FFF7A0F9041E02D1099B1D68C8
:1050F000DF68701B390003F001FA0029E3D1254B6A
:105100009C42DFD0039B002BDDD0029A09A90198B5
:10511000FFF78AF93500041E0AD1099BDF685D6834
:105120001A697D431B680792ED18B54200D9350016
:10513000FA23079A9B005343069326E0109A01999D
:105140000598FFF76FF8041EDCD1049B029A1B68D8
:10515000013B08A95A54120A002BF9D10A00109BEE
:1051600001990598FFF78AF9041ECBD1109B069A86
:1051700001990598FFF7AEFE029B0400DB1902932C
:10518000039BDB1B03930028BCD1029BAB42D5D30E
:10519000B8E7C0460400B200A6220549D2008B58E9
:1051A0000220DB439B0702D0012388581840704738
:1051B00000002640074B01381B683B331B788342B5
:1051C00000D801BE8130044BFF308000C058C00FB2
:1051D0007047C04634F601080000264010B5FFF7BE
:1051E000DBFF0023022801D1014B1B68180010BD12
:1051F000D4F301080C4B1B683A331B78834200D868
:1052000001BED022094B80009200C3189858072293
:105210001040042807D1C022920098581F23034051
:10522000802040001843704734F6010800002640F3
:1052300010B51B4B1B683A331B78834200D801BE64
:10524000FFF7D8FF02281CD005D8002814D0012869
:1052500014D0002011E01223FF33984214D01423FD
:10526000FF33984218D0033B9842F2D10D4A0E4BBF
:10527000D058C00FC00300E00C4810BD0C4B18689C
:10528000FBE7FFF7ABFFF8E70A4B18690423184068
:10529000F3D080200002F0E7024A074BE8E7C0465F
:1052A00034F60108000026400C05000000127A00C8
:1052B000D8F30108000027403C05000010B5002885
:1052C00000D101BEB023154ADB00D3580F24990347
:1052D000DB01DB0F890BC371114B0160D358D9047B
:1052E000DB01DB0D0381B123DB00D358C90C8180C6
:1052F00019002140817219092140C172D9029B0015
:105300009B0F8373074BC90CD35881815A05DB016E
:10531000520FDB0D8271038210BDC0460000264093
:10532000840500008C05000010B5104B421E1B6860
:105330003B331B78934216D97F221F248030FF30E5
:105340000B4B8000C3581A400A701A0C2240180AEE
:105350008A701A012040E240487000209B009B0F99
:10536000CA700B7110BD0348FCE7C04634F6010853
:105370000000264001004A00F0B5324D87B02B688E
:1053800004003A331B78834200D801BE2000FFF7A7
:105390004FFF0600002C38D101AD14222100280057
:1053A00004F0B4FB2800FFF789FFB023264ADB0096
:1053B000D358002B03DAAC7B023C631E9C41EA7994
:1053C000019F531E9A41A8880132002C1AD0002850
:1053D00018D0002A16D00023190003F09FF90023EB
:1053E0000C0005003A003000190003F097F9E607B9
:1053F0006A0832436308801859412A00230003F0E9
:105400006DF90600300007B0F0BD2B683B331B7808
:10541000A342F7D301AD05220021280004F076FB5A
:1054200029002000FFF780FF2000FFF7C3FE0024C3
:10543000A04203D02C79023C631E9C412F786878EF
:10544000AA78C2E734F601080000264070B5114D75
:105450002B683C331B78984200D301BEE022012424
:105460000D4B8100C91892008B589B069B0F9C40E6
:105470002B683C331B78984200D301BE0F23885819
:105480001840FFF779FF63081818210002F0B0FFF9
:1054900070BDC04634F6010800002640174A30B5FA
:1054A00013681C00283424781F2C16D8820807247F
:1054B0001500A5432C1E0FD103342040A04081408D
:1054C0001B68920020339B180A00FF2181401C6852
:1054D000624011406140196030BD1B8F8B4200D18A
:1054E00001BE13681A680723184080231B0618435F
:1054F00080239B01C91889008850EDE734F6010824
:10550000084B10B59C680300074A10339B00944277
:1055100005D1002900D101BED058D15010BD034A99
:10552000D058FBE700ED00E000A0000800000610E6
:10553000F8B506000D0000283ED04368032B00D9C3
:1055400001BE0023F05E002828DB7188FFF7A6FF6C
:105550000024FF22032794460023F05E716883B283
:105560001F40FF006646BA4089013140D243B9402E
:10557000002815DB114E83089B009B19C026B6003E
:105580009F593A40114399510D4B9A680D4B9A42DD
:1055900002D12900FFF7B4FF2000F8BD0A4CD8E77C
:1055A0000F263340083B064E9B089B009B19DE6983
:1055B00032401143D961E7E7034CEDE700E100E039
:1055C00000ED00E000A000080100560070B5802545
:1055D00004002D02AC4205D8064B1868604302F067
:1055E000AFFE70BD044B186802F0AAFE034BE4182E
:1055F000F0E7C04688A1000884A100080080FFFFF2
:1056000010B5034B1B78584302F09AFE10BDC046FC
:105610008CA10008FEE7000002680A4B10B5DA61B1
:1056200042681A6282685A62C2689A620269DA62E1
:1056300042691A6382695A63C2699A63FFF7EAFF93
:1056400010BDC04600A70008B0235B059A89002A58
:1056500002D0988980B2704780204000FBE70000AC
:10566000044A13682E331B78002B00D101BE136847
:10567000186A704734F601087FB50D00042800D978
:1056800001BE6B1E012B04D9FB222B1F134200D03D
:1056900001BE264B8600F458042D01D0012D27D1E0
:1056A00000200FE0A3682B420BD1E36829001A68A1
:1056B0005B6802920193039302A8236898471C4BEE
:1056C0001C606469002C0BD01A4B9842EAD1012D62
:1056D000E8D1174B17481A68174B9A5104B070BDA0
:1056E000012DFBD1134B9842F3D0134B9C51F5E79E
:1056F000022D06D10E4B1B68181EEFD01C6903E06B
:105700001C006369002BFBD10020002CE6D0A368AD
:105710002B4209D1E36829001A685B680292019361
:10572000039302A8236898472469EEE71CF4010854
:1057300018F40108FF00420004F40108002800D119
:1057400001BE1A4B1B68190004C9C96F51180968BA
:10575000016219000831C96F5218126842621A00BA
:1057600042321278002A1FD09A68E0321268D206BC
:105770001AD5F222DB68D2019A580260F022D201D7
:105780009A5842600A4A9A5882600A4A9A58C260F5
:10579000094A9A580261094A9A584261084A9A5835
:1057A0008261084A9B58C3617047C04634F60108BD
:1057B00004780000087800000C78000010780000E1
:1057C0001478000018780000002800D101BE1A4BA0
:1057D0001B681A1D1968D26F8A18016A11601A00B5
:1057E00008321968D26F8A18416A11601A00423271
:1057F0001278002A1ED09A68E0321268D20619D5B3
:10580000F0224168DB68D201995081680B4A9950B7
:10581000C1680B4A995001690A4A995041690A4A7C
:1058200099508169094A9950C169094A995001689A
:10583000E83299507047C04634F6010804780000F9
:10584000087800000C780000107800001478000040
:1058500018780000B023F7B55B055A7807002126B9
:10586000002A01D05E78F6B2012F00D901BE624D48
:105870006B68002B00D07CE002F06BFD6B68009041
:10588000002B00D088E05D4C22681300AC331988EF
:1058900007234B43126A9B181A68002AFCDADB685C
:1058A000DA0020D51B0F1B0755480193FFF746FF71
:1058B0005449212E00D074E0902022680001131D6D
:1058C000DC6F13681C1923680B400343236013002B
:1058D00008331268DB6FD3181A6811400843186048
:1058E000474B019A13438022444E9205316813437B
:1058F0000A00AC321088072200244243096A521879
:10590000D36054605368FFF79FFE80235B0098428A
:105910005CD1380007F0D4FB32681300AC3319882F
:1059200007234B43126A9B181A68002AFCDADF68C7
:10593000FB0003D538010009FFF746FF324B326800
:105940001F401300AC33198807234B43126A009899
:105950009B180022DF605A6002F0FFFC002C0FD180
:105960006B68002B03D008210120FFF785FE200083
:10597000FEBD01210800FFF77FFE041E00D17BE77A
:105980006B68002B03D002210120FFF775FE1F4B2F
:105990009C42ECD01E4CEAE704210120FFF76CFE8C
:1059A00071E7802220685200031DDC6F03681C1918
:1059B00023680B4013432360030008330068DB6F48
:1059C000C318186801400A431A6089E7FFF748FEC8
:1059D0003368B0331B68C0180368002B0ADB04234C
:1059E0000C4A11690B431361012F01D030BF93E7BB
:1059F00020BF91E7054C8FE71CF4010834F601083D
:105A0000DCF30108FF00FFFFFFFFFFDF050042009E
:105A1000FF00420000ED00E0C022C0230349520015
:105A200088581B0603438B507047C0460000264031
:105A3000C023044A5B00D058800F431E9841C0B277
:105A40007047C04600002640C02280200649520010
:105A50008B58C0059B009B0803438B5080238858BC
:105A60001B0603438B50704700002640094B10B5BE
:105A70000400984200D901BEFFF7DAFF002808D1E0
:105A8000C423054A5B00D058A4B2000C0004204394
:105A9000D05010BDFFFF00000000264010B50400EC
:105AA0000F2800D901BEFFF7C3FF00280BD1C42285
:105AB000F02005495200000324048B580440034899
:105AC00003401C438C5010BD00002640FFFFF0FF38
:105AD000E0230121024ADB00D150D3587047C04671
