:0400000510037E3B2B
:020000041003E7
:1000000000C002083B7E03100D000000997E031023
:1000100000000000000000000000000000000000E0
:10002000000000000000000000000000957E0310AA
:100030000000000000000000957E0310957E031074
:10004000957E0310957E0310957E0310957E031018
:10005000957E0310957E0310957E0310957E031008
:10006000957E0310957E0310957E0310957E0310F8
:10007000957E0310957E0310957E0310957E0310E8
:1000800010B5064C2378002B07D1054B002B02D06E
:10009000044800E000BF0123237010BD447801082C
:1000A0000000000024EB0310044B10B5002B03D01C
:1000B0000349044800E000BF10BDC0460000000036
:1000C0004878010824EB0310012801D10120704772
:1000D0000220FCE710B51022044909F045FA002877
:1000E00001D1013010BD0220FCE7C046B8CB03109F
:1000F00004280AD0052804D101390800411E88418E
:100100007047401A41424841FAE70120F8E7806809
:100110002838704730B587B004000D008168103969
:10012000102302AA01F026FD00284BDB01283FD056
:1001300002A8FFF7CFFF28702000FFF7E8FF0100BB
:1001400001236A460732200001F014FD00283CDB41
:100150006B4607331B780F221A406A701B092B71FC
:10016000012801D0042A03D901236B7000232B71CD
:10017000A1682039AA1C0123200001F0FBFC002803
:1001800025DB012817D0A878FFF79EFFA870A1688B
:100190001839EA1C0123200001F0ECFC002818DBD0
:1001A00001280BD0E878FFF78FFFE87000200AE005
:1001B00003232B70C0E70323AB70E8E70323EB7046
:1001C000002000E0012007B030BD0120FBE7012046
:1001D000F9E70120F7E710B582B00C00C0B201A921
:1001E00001F0F0FB002803D00124200002B010BD74
:1001F00021000198FFF78EFF0400019801F0F6FB43
:10020000F3E7000030B585B0041E05D0012801D009
:10021000FF2002E0052000E0012002A9FFF7DBFF3C
:10022000002861D1002C05D0012C01D0FF2002E074
:10023000063000E002206946FFF7CDFF002855D1C7
:10024000002407E02B79042B28D002AA927893424D
:1002500024D00134022C3CD863001B195A00244DD1
:10026000AD1802AB19782878FFF742FF0028F0D0CC
:100270006B4619786878FFF73BFF0028E9D0AB7828
:10028000042B03D002AAD2789342E2D1EB78042B5C
:10029000D8D06A46D2789342DBD1D3E7154B1B689E
:1002A000D8686B79022B07D0032B10D0042B01D018
:1002B000114A02E0114A00E0114A124909F0BCF863
:1002C0006879831EDBB2022B0CD9FF200AE00E4AAC
:1002D000F3E7084B1B68DB68172201210B4809F084
:1002E0000DF9012005B030BDFF20FBE7FF20F9E745
:1002F000C8CB03101C710108ECCB031000CC031019
:10030000E4CB031008CC0310DCCB031020CC03108B
:1003100010B50B4B02689A4201D0002010BDC26894
:100320000389D843824208D8D41801200028F5D088
:100330008B68A342F2D80020F0E70020F6E7C04621
:100340003DB8F3960A7803789A420BD80CD34A78D2
:1003500043789A420AD80BD34A8843889A4209D2F2
:10036000082070470020FCE70820FAE70020F8E7A3
:100370000820F6E70020F4E770B504000D78401976
:10038000BC300278013A531E9A41D2B22C23534317
:1003900058226A439B181033E3180433081D1900D0
:1003A000FFF7D0FF00280ED0BF23E35CE218BC3279
:1003B0001278012A08D0002A05D0032A03D8E418AD
:1003C000BC340123237070BDE418BC3404232370B3
:1003D000F9E710B5BF23C25C002A1AD0002916D154
:1003E0008318BC331B78012B13D0042B11D00023AE
:1003F00001E00133DBB29A420BD9C118BC31097854
:100400000429F6D1C118BC3101240C70F1E7002396
:10041000F1E710BD70B50500BF23C25C673B5343D5
:10042000C318186A01F06CFBC4B2B023E85801F09D
:1004300067FBC0B2844200D270BD2000FCE710B55B
:100440000C00081D0822002109F0A6F801232360F2
:100450002371A371002010BDF0B583B004000F001C
:10046000BF23C05C01F053FBC0B201A901F0AAFA9E
:10047000051E22D1019801F069FB0600019801F0E8
:10048000B5FABF23E25C2C217943673B5343C9187B
:1004900064180023032B05D8E25C964208D101338F
:1004A000DBB2F7E70123002B04D0280003B0F0BD36
:1004B0000023F8E701256D42F7E701256D42F4E7D7
:1004C000F0B5DE4657464E464546E0B585B0BF23FB
:1004D000C35C9C46582362465343C3189F6A5B6DB6
:1004E0009846C0235B009F420ED898450CD8B02395
:1004F000C3589B689A4600260024002100230393DA
:1005000000220293019028E04B4B1B68DB683122EC
:1005100001214A4808F0F2FF002005B03CBC90469B
:100520009946A246AB46F0BD582560464543019822
:1005300081464D44C8008346686A8146CB4458468C
:10054000406883465B442D6DE00083465D446D68E2
:1005500052190131013493423CD0B94201D3444590
:1005600054D29342E0D01AD25825604645430198B0
:1005700081464D446D6AC80083465D446D685B19D1
:10058000022E02D001310126E5E72B4B1B68DB6808
:10059000392201212A4808F0B1FF0020BDE7582583
:1005A00060464543019881464D442D6DE0008346E9
:1005B0005D446D685219012E02D001340226CAE74B
:1005C0001D4B1B68DB68392201211D4808F096FF8E
:1005D0000020A2E702988146994448460290039879
:1005E0008346934458460390534505D8524503D853
:1005F000002600220023B0E70F4B1B68DB683A227D
:100600000121104808F07AFF002086E7029B9946F6
:10061000B94201D1444509D0074B1B68DB68302241
:100620000121094808F06AFF002076E7039B9945FD
:10063000F2D1012071E7C0461C71010880CD031082
:10064000B4CD0310F0CD03102CCE031010B582B042
:100650000B00C02252000192C13A845C002C05D0EC
:10066000012C01D0FF2202E0BA3A00E001229A42B6
:1006700005D0002C15D0012C11D0FF2212E05822F9
:1006800054430219526A2834041901A9180001F0D0
:1006900091FA002801D1019B236002B010BD06220F
:1006A00000E002229A4203D0032B08D00120F4E795
:1006B000582254430219126D54340419E5E7B42248
:1006C0008258B8300400E0E770B50400BF23C55C71
:1006D000002D05D0012D01D0FF2102E0052100E011
:1006E00001212000FFF7B2FF00281DD1002D05D009
:1006F000012D01D0FF2102E0062100E002212000AF
:10070000FFF7A4FF002801D001250EE003212000FF
:10071000FFF79CFF051E01D0012506E02000FFF732
:1007200079FEBE23E05400E00125280070BD0000E2
:1007300030B58FB005000C00BF23C05C01F0E7F9B5
:10074000C0B20DA901F03EF9002839D1BF23EA5CFF
:100750002C216143673B5343C91869180123009357
:100760003F330D9A07A800F0D1FB041E22D10023CD
:100770000A226A4403A907A800F03AFC002827DBF4
:1007800018DC0A236B441B880C2B1BD104AA039989
:100790000D9801F02DF9002816D104AB1A780E4BF4
:1007A0001B789A4212D204A92800FFF7E5FD002821
:1007B000DDD004000D9801F019F920000FB030BD14
:1007C0000124F7E70324F5E70124F3E70724F1E721
:1007D00001246442F1E7C0468070010810B50400AE
:1007E000BF230022C2541000BF23E35C154A1278D5
:1007F000934225D2E318BC331B78012B0CD0052B78
:100800000CD100212000FFF793FF002808D1BF2260
:10081000A35C0133A354E7E70021F3E70121F1E7EB
:1008200008280DD1002207E0D3B2BF216354E3189A
:10083000BC33BE3919705218024B1B789342F3DC5B
:1008400010BDC04680700108F0B5D646474680B559
:1008500083B0009101929A460A9B98460B9F00250F
:1008600012E05346E9182300114A009801F0C0F83D
:10087000002818D14346E91823000D4A019801F0D9
:10088000EDF8002811D12D19BD4206D27C1B802322
:10089000DB009C42E5D91C00E3E7002003B00CBC60
:1008A00090469A46F0BD0120F8E70120F6E7C046E1
:1008B0002079010810B582B01400BF23C05C01F09C
:1008C00026F9C0B201A901F07DF8002806D0012464
:1008D000019801F08BF8200002B010BD2023220007
:1008E0000021019801F084F8041EF1D00124EFE703
:1008F00070B506000C000025012D15DCBF23F15C4E
:100900002C226A43673B4B43D218B21829003000AF
:10091000FFF7D0FF002801D10135EDE7002D04DD00
:10092000002C02D1002000E0002070BDF0B5C646CA
:1009300000B584B00500464C2368DB6834220121F1
:10094000444808F0DBFD2368DB682022012142488F
:1009500008F0D4FDBF23EC5C002C05D0012C01D0A5
:10096000FF2002E0052000E0012003A901F02AF8A1
:100970004342584100F0DCFB002C05D0012C01D093
:10098000FF2002E0062000E0022002A901F01AF890
:100990004342584100F0CCFBBF23EA5C673B534322
:1009A000EB189B6A98460026002413E0BF23EA5CFC
:1009B000673B5343EB185B6AE2009B185F683A00A1
:1009C0003100039801F074F84342584100F0B0FB45
:1009D000F61901344445E9D31D4B1B68D868320031
:1009E0001E4908F029FD019600230093039A0299FD
:1009F0002800FFF729FFBF26AB5D58246343EB189F
:100A00001B6D5A680021029801F052F84342584188
:100A100000F08EFBAB5D5C432D196B6D013B2A6DC5
:100A2000DB00D31811681A68511A5A68029801F04D
:100A30003FF84342584100F07BFB039800F0D6FF9B
:100A4000029800F0D3FF002004B004BC9046F0BD33
:100A50001C71010838CC031070CC031094CC031027
:100A600010B5FFF763FF04006042604100F060FBD7
:100A7000200010BD10B586B00C001300BF22815CB1
:100A8000002004900390029041320192054A0092A6
:100A9000220000F0F7FC002801D106B010BD0320B1
:100AA000FBE7C04620B90108F0B585B007000C008F
:100AB0000192BF23C05C01F02AF8C0B203A900F084
:100AC00081FF00283FD1BF23FD5C2C306043673B92
:100AD0006B43C0183E1821003800FFF7BDFC00280A
:100AE00028D03369DB062CD4039D29003000FFF7A2
:100AF0000FFC00280DD1002C14D1144B1B68D868B2
:100B0000002C15D1124A134908F096FC01256D42BC
:100B100011E0019B2A0031003800FFF7ABFF051EF2
:100B200009D0E8E703988268002100F0C1FFE4E7FC
:100B3000094AE8E70125039800F058FF280005B0AE
:100B4000F0BD0125F7E701256D42F7E71C710108AB
:100B500060CE031074CE031068CE031070B505008C
:100B60000E00BF23C05CFFF74DFB0400022805D038
:100B7000042803D0032801D0200070BD32000121D9
:100B80002800FFF791FF012803D00028F4D00524A6
:100B9000F2E70400F0E7000070B504000D00FFF775
:100BA00093FD002811D100212000FFF7A1FE0028AD
:100BB0001AD12000FFF784FC002823D1BF23E35C77
:100BC000E418BC34012323700DE03D4B1B68D8684A
:100BD000C02252003B4908F02FFCBF23E35CE4181D
:100BE000BC340123237070BD354B1B68D868BF250A
:100BF000625D354908F020FC635DE418BC340123D4
:100C00002370F0E729002000FFF719FC00281CD111
:100C10002B68012B27D02D4B1B78012B03D90121E9
:100C20002000FFF7D6FB002000F082FA0021200010
:100C3000FFF75EFE4342584100F07AFABF23E35CBF
:100C4000E418BC3401232370CDE71D4B1B68D86822
:100C5000BF25625D1E4908F0EFFB635DE418BC34FC
:100C600001232370BFE72B79012BD4D1AB79012B62
:100C70000DD02A0001212000FFF716FF002818D010
:100C8000BF23E35CE318BC3305221A7008E0290097
:100C90002000FFF763FFBF23E35CE318BC33187049
:100CA0000A4B1B78012B9ED900212000FFF791FBF6
:100CB00099E7BF23E35CAA79E318BC331A70EFE726
:100CC0001C710108D8CC031020CD031080700108DE
:100CD00050CD0310F0B5C64600B584B00400884678
:100CE000C022002108F058FCBF230022E254002754
:100CF00035E03100280000F00AFFC0B2BF23E25CFB
:100D00002C217143673B5343C9182031611800F00F
:100D100059FE4342584100F00BFA0136012EE8D942
:100D20002100B031032000F04DFE0500684268410B
:100D300000F0FEF901A92000FFF72EFFBF23E35CBE
:100D4000E218BC321278022A05D0042A21D0032AE4
:100D500002D1012700E001270133BF22A354BF23A2
:100D6000E35C604A1278934215D21D005900C818FE
:100D700082025D48101858225A43A2185062CB18BC
:100D800099025A4BC9181165B423594AE2500026FA
:100D9000C4E70127E0E7012A01D9002F03D1BF23CF
:100DA0000022E25427E02000FFF718FD0500082884
:100DB000F5D10025F3E70822002102A808F0ECFB9A
:100DC0000123019301AA13711DE0052B09D025E031
:100DD00001A92000FFF744FE05006842684100F0C9
:100DE000A7F9BF23E35CE218BC321278FF2A1AD0BD
:100DF0000133BF22A354BF23E65C3A4B1B789E42CB
:100E00001DD2012BD7D8A319BC331B7801AA93712B
:100E1000042BDAD8022BDBD2012BE2D0A619BC3688
:100E2000FF233370DDE7334B1B68DB68F13A0121A8
:100E3000314808F063FB002000F07AF9FEE7BF2399
:100E40000022E2540AE0002200212000FFF72CFEDD
:100E5000051E20D1BF22A35C0133A354BF23E35C52
:100E6000204A127893420ED2E318BC331B78012B30
:100E7000E9D000212000FFF73BFD051EE3D0BF2392
:100E80000022E2541DE0236A5A7841460A715B68E9
:100E90008B600C60F3E70325F1E7BF23E05C0121E1
:100EA000891B933B4B43582242439B18E318186A13
:100EB00000F09CFD0136012EEFD9BF22A35C013367
:100EC000A354BF23E25C074B1B789A4205D2B023A0
:100ED000E05800F08BFD0026EDE7280004B004BCCC
:100EE0009046F0BD80700108207D010820A1010816
:100EF000209501081C710108A0CE031010B5010057
:100F00000148FFF7E7FE10BD60780108F0B5D6464E
:100F10004F4680B585B004000E00170099460CAB13
:100F20001B789A46002842D0002944D0002A46D097
:100F30000D89CB689C466544042303AA2900380028
:100F400000F056FD019000283DD103AB1A88264BD6
:100F50009A421CD07389002B3DD103AB1A88234BD6
:100F60009A423CD1266067604B46237253466372B7
:100F700073895B19E36003AA52889B186361043587
:100F80002561019805B00CBC91469A46F0BD738965
:100F900003AA51888B421AD149190423380000F062
:100FA00027FD0028D9D001235B420193E9E7012303
:100FB0005B420193E5E701235B420193E1E70123F3
:100FC0005B420193DDE701235B420193D9E70123F3
:100FD0005B420193D5E701235B420193D1E70123F3
:100FE0005B420193CDE7C046086900000769000035
:100FF000F0B583B004000F0016001D00002847D094
:101000000368002B47D04368002B1FD101204042CA
:101010003AE0042301AA2169606800F0E9FC002895
:101020003CD1637A002B03D02369E268934238D223
:10103000237AFF2B18D001AA1278934214D001AB67
:101040005B8822699446634404332361236962699F
:1010500093421BD222685289002ADAD0E2689A426F
:10106000D7D104332361D4E7002D02D001AB1B7824
:101070002B70236904333B6001AB5B8833802269AA
:10108000944663440433236103B0F0BD0120FBE7C1
:1010900001204042F8E701204042F5E701204042AC
:1010A000F2E70120F0E7000010B562B603F0F2FAB3
:1010B0000949C02252008B58012083438B50074AB4
:1010C0000021074801F0A2F9E122A0215202C90241
:1010D000044804F03FFB10BD00002640B0CE0310D2
:1010E000800031400100050010B50C4801F060F8A7
:1010F00003F0E8FA0A4A8021032001F03BFE094888
:1011000001F026FC084B1A684D23D35C002B00D15C
:1011100010BD064801F098FCFAE7C04600D5031060
:1011200000C0020820BA0108BCBE0108E8CF0310C5
:10113000F8B5002800D0F8BD2C4CE778A6792C4BE8
:101140001B68DB68472201212A4808F0D7F92A48A2
:101150002A4A121A002108F01FFA2948294A121AAD
:10116000002108F019FA284D284A521B00212800B6
:1011700008F012FAE770A67185F30888244C254818
:10118000221A002108F008FA84F30888012006F0EA
:1011900029FEFFF7A9FF05F015FF021E08D11E4B1F
:1011A0001B68002B0BDB1D4803F0F2FA0BF0E4FC8C
:1011B0000F4B1B68D8681A4908F03EF9EFE7194B46
:1011C0001A682E23D35C022B0AD9164B1A68136AAD
:1011D000AC21525A52009B18134ADA6072B6E2E709
:1011E000E9214900114803F00DF8EEE72CBE010893
:1011F0001C710108E4CE031080700108EC72010834
:1012000044780108A8BF0108000001080004010893
:1012100000C0020800B0020800012640004000168D
:101220002CCF0310BCBE0108214334125CCF031045
:10123000F8B504000D000178302914D095267642C7
:10124000002E18D0002E23D16146615C02291FD0E8
:1012500095267642002E37D1202B00DD2023202A30
:1012600027DD202225E08178022902D095267642CA
:10127000E8E70026E4E740220021280008F08CF986
:10128000E3785A1DA25C191D8C469F1DBF18D9E733
:10129000002EDFD16078991804318842DAD0952683
:1012A000764211E06146C81A2021C91A205C6854B0
:1012B000013B002BF6DC05E0B91A40239B1A615C68
:1012C000E954013A002AF7DC3000F8BD30B595B09A
:1012D000040018AB1D7804A91000FFF7A9FF00282F
:1012E00003D0002807D015B030BD0E216944280076
:1012F00006F06AFCF5E70E236B441888402301933F
:1013000004AB009320232200014906F017FCEAE712
:101310000900061003785A1ED2B2012A08D9053BEB
:10132000DBB2012B01D80120704701204042FBE7CE
:101330000020F9E70378012B0AD0052B0AD0022BF5
:101340000AD0062B01D10120704701204042FBE763
:101350000020F9E70020F7E70120F5E770B5050068
:10136000FFF7D8FF041E15DB2800FFF7E3FF002876
:1013700012DB07DDA3001C19E200084B9B18233386
:10138000187808E0A3001C19E200044B9B182033D6
:10139000187800E0002070BD0020FCE79CBC01082C
:1013A00010B50C00FFF7B6FF002809DB8300181802
:1013B000C300044A985C001B431E9841C0B210BD94
:1013C0000120FCE79CBC010810B50400FFF7B2FF48
:1013D00000280EDB0FDD2000FFF79CFF00280CDB50
:1013E00083001818C200064B9B18587801235840F8
:1013F00000E0012010BD0020FCE70120FAE7C04614
:101400009CBC0108F0B5A9B014001E001C4901A83D
:1014100006F0A8FB002831D1319B002B02D0329B73
:10142000002B09DC002829D12389E2689446634413
:101430006789FF18002513E01A00319901A806F00A
:10144000A1FBEFE723002E9A2900300000F0D0FA2C
:10145000002813D122002E9901A806F093FB2D1924
:10146000BD4205D27C1B2F9B9C42EBD91C00E9E7B7
:101470006B462022309901A806F094FB29B0F0BDFC
:1014800009000001F0B5BDB016001D001F2304AA1D
:101490009446634400221A70459B0493449B039333
:1014A0000CAB0293439B0193429B00932B003200B1
:1014B000FFF7A8FF041E0CD1469B002B04D020226E
:1014C0000CA9180008F05FF82800FFF77DFF041E44
:1014D00002D020003DB0F0BD00230093FF332A006E
:1014E000310034A8FFF712FD041EF2D10600089067
:1014F0000700099018E00123089315E0012B13D190
:10150000DA2304AA944663441B88202B00D9BAE04E
:1015100014AA3B99280000F06BFA002800D0B5E02F
:101520002800FFF71BFF0600D92304AA9446634452
:10153000DA2262443BA934A8FFF75AFD002800DAFA
:1015400097E06CDCD92304AA944663441B78102BE3
:1015500021D0DAB2102AD1D9222B34D0DBB2812BA0
:10156000E2D1593304AA944663441B881F22624483
:101570003B99280000F03CFA002800D07CE01F23B3
:1015800004AA9446634419782800FFF709FF00284D
:1015900074D10127C8E7DA2304AA944663441B8860
:1015A000202BC1D114AA3B99280000F021FA002871
:1015B00067D1202214A90CA807F0D6FF0028B3D1C8
:1015C00001230993B0E7002E26DD06F00DFBB042A3
:1015D00022DBDA2304AA944663441B881A00483AA3
:1015E00092B2382A54D814AA3B99280000F000FA85
:1015F0000790031E4FD1DA3304AA944663441B8834
:10160000F6B2009614AA20210CA8FFF75FFE061E72
:1016100000D170E7079E87E70126764284E7099BA1
:10162000002B10D0002F19D0089B002B00D050E7C2
:101630001A4B1B68DB682B220121194807F05EFF5B
:101640000124644245E7154B1B68DB682F2201210A
:10165000144807F053FF012464423AE70F4B1B681C
:10166000DB682A220121104807F048FF0124644268
:101670002FE7012464422CE704002AE70124644296
:1016800027E7040025E70124644222E7040020E75D
:10169000012464421DE7012464421AE71C71010819
:1016A00078D003101CD003104CD0031010B5FFF7F6
:1016B0001BFD10BDF8B5CE46474680B5826803686D
:1016C0001B89D218394B1A60394B1B68D8683949C5
:1016D00007F0B2FE384B1B7B012B12D00124364B96
:1016E0001B78032B16D8022B56D2012B4BD0304B34
:1016F0001B68DB6825220121304807F0FFFE30BF60
:10170000FDE72D4A3333D35C022B01D00124E6E7F9
:101710000024E4E7042BEAD106210E2001F02CFC82
:10172000224D2B689946264CE3789846A7792548A0
:10173000254A121A002107F02FFF2448244A121AC2
:10174000002107F029FF234E234A921B002130007D
:1017500007F022FF4B462B604346E370A77186F3E8
:1017600008881E4C1E48221A002107F015FF84F33A
:101770000888012006F036FBFFF798FF0021286853
:1017800005F042FC04E02100084B186805F0B8FCA5
:101790000CBC90469946F8BD0221002001F0ECFBFC
:1017A0002100024B186805F0ABFCF1E7A0BB010873
:1017B0001C710108A4D003109CBC0108C4D0031004
:1017C0002CBE010880700108EC7201084478010801
:1017D000A8BF0108000001080004010800C00208B9
:1017E00000B0020870B588B0FFF77EFCFFF75CFC24
:1017F0005E4C2368DB685E4D09220121280007F05A
:101800007DFE2368DB685B4E40220121300007F03B
:1018100075FE2368D868584B019300230093013369
:101820000122564907F008FE2368DB6840220121A7
:10183000300007F063FE2368DB68092201212800DD
:1018400007F05CFE2368DB68212201214C4807F089
:1018500055FE802004AA03A9400005F0CFFA002815
:101860004CD0002851D10123464A1370464A1370C8
:101870007F215170454B1869506058699060444A07
:1018800002201070517099695160D96991601B7B79
:10189000012B04D13D4A3333D35C83423ED0334BDA
:1018A0001B68D86801223B4907F0C6FD3A4B00226D
:1018B0001A707F325A7039495960FE2109029960C5
:1018C000374B032119705A70364A5A6080225201F0
:1018D0009A6006F06DFA05A8FFF710FB002839D0D2
:1018E000224B1B68DB68372201212F4807F006FED8
:1018F0000020FFF71DFC002008B070BD00232B4A1C
:101900002249039803F0A0FFABE7184B1B68DB6884
:1019100002002749180007F08FFDDCE70200194B91
:101920001870244B052119707D30587017498C6B45
:101930005C60CC6B9C60204B06241C705870086C5B
:101940005860496C9960094B1B68D8681B4907F0BF
:1019500073FDABE7054B1B68DB682F22012118489C
:1019600007F0CCFD05A8FFF7A5FEC4E71C71010830
:10197000ECD00310F8D00310170300003CD1031083
:1019800074D1031080700108B0BB01089CBC010831
:10199000D4BB0108ECD10310A4BB01080000031064
:1019A000C8BB010800F002103CD203102CBE010895
:1019B00098D10310BCBB0108E0BB0108C8D10310DB
:1019C0000CD2031010B500229300074C1B59002BBA
:1019D00007D01C78844201D00132F5E70B6000206B
:1019E00001E00120404210BD8470010870470000F2
:1019F00010B5140042787F2A19D1406888420AD96C
:101A0000CA1890420DD940181A00210000F014F9AC
:101A1000041E0ED114E00B4B0B4AFA210B4807F0C1
:101A2000EDFC0B4B084AFB21084807F0E7FC0124BA
:101A30006442084B1B68D8682200074907F0FCFC89
:101A4000200010BDF8D2031074D203100CD3031081
:101A500084D303101C7101089CD3031010B514002B
:101A600042787F2A19D14068884208D9CA18904222
:101A70000CD940181A00210000F066F910BD1E2193
:101A8000074B084AFF31084807F0B8FC8F21074B85
:101A9000044A4900044807F0B1FC01204042EDE748
:101AA000F8D2031084D203100CD3031084D3031094
:101AB00010B543787F2B18D14068884207D98B181E
:101AC00098420BD94018110000F046F910BD9D2135
:101AD000074B084A4900084807F090FC3C21074B97
:101AE000044AFF31044807F089FC01204042EDE739
:101AF000F8D2031098D203100CD3031084D3031030
:101B000043787F2B01D0FF2070478020FCE701291C
:101B100010D0022904D0002904D00120404200E066
:101B20000320704700280DD0012801D0FF20F8E7DE
:101B30000430F6E7002807D0012801D0FF20F0E7A5
:101B40000530EEE70120ECE70220EAE710B5437824
:101B50007F2B01D1002010BDBA21034B034AFF3176
:101B6000034807F04BFCC046DCD20310ACD2031094
:101B70000CD30310F0B583B0009015001E00FFF7E2
:101B800037FF0190002810D10024B44208D22F5D05
:101B90000098FFF7DBFF874204D10134E4B2F4E799
:101BA00001230193019803B0F0BD01235B4201932F
:101BB000F8E7000070B50024A3001A4D5B59002B14
:101BC00005D01D78854201D00134F5E71E00002BB9
:101BD00022D073787F2B22D1B368134884466344A4
:101BE0005D0A0B68AB4202D3746800200FE0FE214F
:101BF0000E4B0F4A49000F4807F000FCC300D318F2
:101C00008026B6005E601C60B44664440130A84281
:101C1000F4D30D60002070BD01204042FBE701209D
:101C20004042F8E784700108FF010000E4D203108D
:101C3000C4D203100CD3031010B50B000100180020
:101C400007F0A1FC002010BDF0B5D6464F46464631
:101C5000C0B5374CA54480461700364B994205D98C
:101C60008B18354A93420ED9002300E00023002B45
:101C700052D0F0231B06CE18730A99465C02002549
:101C800000239C462AE00123F1E780225205A21896
:101C900012786846C25401340133284A934217D857
:101CA000B442F2D3BD42F0D242465219107869468E
:101CB000C8545146002909D180214905601800788F
:101CC000C0B21278904201D0012292460135E2E77B
:101CD0005346002B0AD101239A46D144BD420ED26D
:101CE0006346002B0BD100239A46D6E780200003E1
:101CF00048444002694600F039FB8446EBE7104B4C
:101D00009C4512D00F4B9C450FD06346002B01D051
:101D1000022002E0002000E0012080239B009D447F
:101D20001CBC90469946A246F0BD0120F5E7C0468E
:101D300000FEFFFFFFFFFF0F00000810FF01000083
:101D4000020052000600520010B50B0001001800FE
:101D5000FFF77AFF10BD0000F0B5CE46474680B5CC
:101D6000394CA5444718C305DB0D9846FB05DB0D30
:101D70009946460A7C0A4346002B00D00136A41B34
:101D800075020020002C10D0280000F0A3FA0028D3
:101D900005D180239B009C466544013CF2E72B4B18
:101DA0002B4A7E212B4807F029FB4346002B09D103
:101DB0004B46002B25D181239B009D440CBC9046B3
:101DC0009946F0BD013E760242463100684607F072
:101DD000DAFB300000F07EFA00280CD142463100D8
:101DE0006846FFF731FF0028E2D0184B184A9521CA
:101DF000184807F003FB154B154A9121154807F0C9
:101E0000FDFA7D0A6D028024A400E41A2200390044
:101E1000684607F0B8FB280000F05CFA00280CD1F7
:101E2000220039006846FFF70FFF0028C3D0074B98
:101E3000074AA621074807F0E1FA044B044AA22109
:101E4000044807F0DBFAC046FCFDFFFFD8D30310BF
:101E5000C4D30310E0D30310F0B51D4C2568002D4A
:101E60002CD0AC6B2418266807002C6D2418A41BFA
:101E7000661EB441E4B2A446AC683C1926680F243F
:101E80003440062CF8D81206EC680419134323607A
:101E900063460B4311D0AB68FB181B68DB03FAD514
:101EA0000C4B1A682923D35C1F2B09D8084B1B68DD
:101EB0001B681B181B681B06F8D4F0BD0026D3E76F
:101EC000034B1B681B681B181B68002BF8D1F4E739
:101ED000ECBB0108BCBE010810B50400E0239B0563
:101EE00080220021FFF7B8FFD0239B05802200212C
:101EF0002000FFF7B1FFC0239B05802200212000B6
:101F0000FFF7AAFFB0239B05802200212000FFF7E6
:101F1000A3FFA0239B05802200212000FFF79CFF48
:101F200090239B05802200212000FFF795FF80234E
:101F30009B05802200212000FFF78EFFE0235B0538
:101F4000802200212000FFF787FFC0235B0580224D
:101F500000212000FFF780FFA0235B0580220021E5
:101F60002000FFF779FF80235B05802200212000FD
:101F7000FFF772FFC0231B05802200212000FFF71E
:101F80006BFF80231B05802200212000FFF764FFE8
:101F90008023DB04802200212000FFF75DFF002367
:101FA000802200212000FFF757FF0B4B1B689B0886
:101FB0000A4A116829228A5C1F2A0AD90D229340F5
:101FC000F02292051343802200212000FFF744FFF6
:101FD00010BD0C22F3E7C046F0BB0108BCBE0108EF
:101FE000054B1A682923D35C1F2B03D9034A044BE2
:101FF0001A607047034AFAE7BCBE0108ACD403106C
:10200000ECBB010858D40310F0B583B01400404B6A
:102010001B68002B70D0002941D000296ED0002C05
:102020006ED080221202944200D96CE0802212010C
:10203000944255D03CD980229201944252D045D945
:102040008022D20194424FD08022120294423BD18E
:102050000027304A12682925565D1F2E48D9651E73
:102060000191294251D11F2E02D93F022A494750DE
:102070009B6B1B1801991960A3082921525C1F2A28
:1020800038D80C2293401A00F0239B05134380227A
:102090000021FFF7E1FE214B1C60002031E0002A07
:1020A000BBD11A6D11181B4A1268946CA400B4E7D6
:1020B0008022920094420FD08022D20094420DD010
:1020C00080225200944211D015481AE08022520119
:1020D0009442F9D17027BCE77E27BAE77C27B8E79E
:1020E0007827B6E76027B4E74027B2E77F27B0E755
:1020F0000C4DB5E70D22C5E7094802E0084800E0AD
:10210000074803B0F0BD0648FBE70548F9E7C046BD
:10211000ECBB0108BCBE010888140000F0BB01083C
:102120000B003200FF3F000010B50400FFF758FF1E
:10213000194B1A682923D35C1F2B10D8174B236027
:10214000174B1A68536B1B1901211960154B1B683B
:10215000002B16D02000FFF7BFFE002010BD236823
:10216000114A134023600E4B1B685B681B190F4A12
:102170001A60226880231B06134323600323A36095
:10218000DEE7116D6118044B1B689A6C9200200009
:10219000FFF73AFFDEE7C046BCBE0108030000803F
:1021A000ECBB0108F0BB0108FFFFFE7F010002004D
:1021B000014B18607047C046BCBE0108C0054342D1
:1021C0005841C0B2704700001F4B984232D00ED920
:1021D0001E4B984234D01BD91D4B984226D01D4B24
:1021E000984225D01C4B98421ED01C481BE040282A
:1021F00022D007D9802821D080235B009842F4D1D7
:10220000114810E000280DD01028EED114480AE043
:10221000A0231B06984205D0124B9842E5D1A0207E
:10222000C00300E0002070470F48FCE70F48FAE7C2
:102230000F48F8E70448F6E70E48F4E70E48F2E7DF
:10224000A420C003EFE7C04606005200010000F0E2
:10225000040000F0050000F0030000F0FF00520051
:1022600001005000090000A00100520002005200CD
:1022700003005200020050000500520010B5114B3F
:102280001A682E23D35C002B14D00E4B1C68B0238D
:10229000E358226A944663441B68002B10DB0A4B08
:1022A0001868FFF791FF6268012393609368002B21
:1022B000FCD110BDE9214900044801F0A3FFE4E787
:1022C0000348F6E7BCBE0108F4BB01085CCF03106D
:1022D0000200500010B50400FFF770FF002834D052
:1022E00002F0F0F91A4B1B4A1A605C6000229A60F7
:1022F000DA60194B1B6850329A5C002A05D18020A5
:10230000002140000AF040FC20E01A6880215B5860
:10231000D3181A68120E1968090AFF230B400133FB
:10232000013253430D4C5C430D4B1868FA21890070
:1023300005F0C0FD0100200005F0BCFD094BC118EF
:10234000802040000AF020FC00E0074810BDC04695
:10235000F4BB01080001001CBCBE010860F5900040
:10236000A4700108980800000600520070B504002F
:102370000D00FFF723FF002836D0002D36D002F0E5
:10238000A1F91B4B1B4A1A6000225A609C60DD6059
:10239000194B1B684E329A5C002A05D1802000211F
:1023A00040000AF0F1FB20E01A6880215B58D31846
:1023B0001A68120E1968090AFF230B400133013213
:1023C00053430E4C5C430E4B1868FA21890005F00C
:1023D00071FD0100200005F06DFD0A4BC118802041
:1023E00040000AF0D1FB00E0074870BD0648FCE75A
:1023F000F4BB010800010005BCBE0108C0EA2101D0
:10240000A47001084826000006005200F8B5CE4628
:10241000474680B581460D001400002800D190E1A8
:10242000002A00D18FE1072900D902E12368012B9E
:1024300000D903E10F2362689A4300D003E1237AB5
:102440001F22934300D003E1E368032B00D904E18A
:102450002369012B00D905E16369012B00D906E14D
:10246000A369012B00D907E1E369032B00D908E137
:10247000236A012B00D909E1636A012B00D90AE123
:10248000A36A012B00D90BE1E36A032B00D90CE10D
:10249000236B072B00D90DE12768072D00D90EE12A
:1024A000012F00D910E1002F00D112E10123AB4030
:1024B0004A4693606768072D00D90FE10F233A0061
:1024C0009A4300D00FE1A800A04B1A687923D15C91
:1024D00049440A686A3B1E008640B2433B40834041
:1024E00013430B60277A072D00D901E11F233A001F
:1024F0009A4300D001E1954B1A6893694946CB1A7B
:10250000DB0952691B01D318032D00D8FAE02A1FFA
:102510005968D2001F20904081431F2007409740F8
:102520000F435F60E768082D00D9F6E0032F00D95C
:10253000F8E06800854B1A687823D15C49440A6842
:10254000753B1E008640B2433B40834013430B6003
:102550002769082D00D9EAE0012F03D97C497D487D
:1025600001F050FE4B469A6901231900A9408A43A5
:102570003B40AB4013434A4693616769072D00D93E
:10258000DAE0012F03D97449724801F03BFE6F4B2A
:1025900098467A2342461268D15C49440A68793BDE
:1025A0001800A84082431F40AF4017430F606A00E5
:1025B00010218C4694440D390A006646B24002430D
:1025C000404607687B20385C484406689643A26909
:1025D0001A40AA403243E66931406646B1400A4398
:1025E00002607C22BA5C4A4416001268FF218A43CA
:1025F000206A0340606A4700022038400343A06A13
:102600008700042038400343E06AC70018203840A0
:102610000343206B400101400B43AD00FE218900C4
:102620000D40AB401343336000200CBC90469946EC
:10263000F8BD4F21494801F0E5FDF7E65021474834
:1026400001F0E0FDF6E65121444801F0DBFDF6E63D
:102650005221424801F0D6FDF6E653213F4801F0F1
:10266000D1FDF5E654213D4801F0CCFDF4E65521BD
:102670003A4801F0C7FDF3E65621384801F0C2FDA3
:10268000F2E65721354801F0BDFDF1E65821334807
:1026900001F0B8FDF0E65921304801F0B3FDEFE656
:1026A0005A212E4801F0AEFDEEE65B212B4801F0E9
:1026B000A9FDEDE65C21294801F0A4FDECE62849DE
:1026C000244801F09FFDEBE62649224801F09AFDDF
:1026D000E9E60123AB404A465360EBE622491D4838
:1026E00001F090FDEAE621491A4801F08BFDEAE687
:1026F0001F49184801F086FDF8E61E49154801F00B
:1027000081FDF8E61A68E8001F2181408A431F21F5
:102710000F40874017431F6004E717490D4801F039
:1027200071FD03E715490B4801F06CFD01E7144901
:10273000084801F067FD0FE71249064801F062FD05
:102740001FE7114871E710486FE7C046BCBE01089B
:10275000740600003CD603100E040000B4D503102C
:102760003103000032030000CE030000CF0300005D
:102770009202000093020000F2060000F30600003F
:10278000730600000D04000001005A00F8B5CE46A3
:10279000474680B505000C001700984608AB1E7828
:1027A000072947D80F233A009A4348D14346012BC3
:1027B0004AD81F2332009A434BD12A6801231900BB
:1027C000A1408A4341460B40A34013432B602E4B4C
:1027D0001A687923D35C5B191A689046A0000F220F
:1027E00091461100814042468A4311004A463A40D0
:1027F00082400A431A60072C30D81F2332009A43C4
:1028000031D1214B1B689A69AD1AED095B692D0125
:102810005D19032C2CD9043C6B68E4001F22A240F4
:1028200093431F221640A6401E436E600CBC904688
:102830009946F8BDE321154801F0E4FCB2E7E42134
:10284000124801F0DFFCB1E7E521104801F0DAFCA5
:10285000AFE7E6210D4801F0D5FCAEE70C490D4885
:1028600001F0D0FCC9E70C490A4801F0CBFCC8E7ED
:102870002B68E4001F22A24093431F221640A6406B
:102880001E432E60D2E7C046BCBE0108B4D503107B
:10289000920200003CD603109302000070B50500C0
:1028A0000C000B4B1A68B023D3581B181B68002B65
:1028B0000CDA0B0C04D12404240C6C60002070BDD5
:1028C000B9218900034801F09DFCF4E70248F6E7CE
:1028D000BCBE01085CCF031001008A0070B5050082
:1028E0000C000368002B0CDAC2600B0C04D124042A
:1028F000240CAC60002070BD0349044801F082FC48
:10290000F5E70348F7E7C046CA0200005CCF0310B2
:1029100001008A0070B505000C1E0BD0094B1A6827
:10292000B023D3585B191B68002B08DAEB682360CF
:10293000002070BDA321044801F064FCEEE70348C9
:10294000F7E7C046BCBE0108C4D6031001008A00E8
:10295000034B1B68002B00D07047014B1860FBE74E
:1029600008BC0108F0B5C64600B506008846170049
:102970001D002F4B1B68002B3FD02D4B1C682C20BB
:1029800070432418FF231E002E4026602A0A13409D
:1029900063602D0CA560274B1A682E23D35C9E42E2
:1029A00030D2244B1B68AC229A5A7243196A8C4667
:1029B0006244226165682F229B5C9D4228D21D4B98
:1029C0001B681E6A80356D0176196661A5682B0C3F
:1029D00024D12B0C27D12D042B0C1D43B560E761AE
:1029E000434623620023A361069B002B02D00022F2
:1029F0009B5EA38104BC9046F0BDBF210E4801F050
:102A000001FCBAE7E92149000C4801F0FBFBC8E7EB
:102A1000F7214900094801F0F5FBD0E708490748CC
:102A200001F0F0FBD5E70749044801F0EBFBD2E7E2
:102A300008BC0108BCBE01084CD703105CCF0310D2
:102A40000D0200000E020000F0B58FB0041E43D04E
:102A50006368032B45D8E36A002B47D0236B002B18
:102A600049D007AA1300210061C961C321C921C34C
:102A700002AD290023001433C1CBC1C141CB41C1F8
:102A80000821535E0CAE33801D4B1B689B8E07994B
:102A900089B25B187380089B0D930B9B0A98009674
:102AA000A26AE16AFFF75EFF2B69E86800220092E4
:102AB0000021FFF757FF216B300001F01DFB0022C2
:102AC000B35E002B06DB1F2213401E3A9A40130010
:102AD0000C4A13600FB0F0BD5C210B4801F092FB73
:102AE000B6E75E21084801F08DFBB4E76221064895
:102AF00001F088FBB2E76321034801F083FBB0E7F4
:102B0000BCBE010800E100E04CD70310F8B504009A
:102B10000F0016001D00002A2BD0214B1B68002B34
:102B20002DD01F4B19682C232000584308187B43D5
:102B3000C918012423004A6893401B04426894404A
:102B40000769002F26D08A69002A25D13A68002A11
:102B500024DA32681204120C13433360FE6001233E
:102B60008B614D62230C10D12204120CBA6000203C
:102B7000F8BD0821FF310B4801F044FBCDE784216B
:102B80004900084801F03EFBCBE70749074801F040
:102B900039FBE9E70648EBE70648E9E70548E7E7D8
:102BA00008BC01084CD70310CA0200005CCF031018
:102BB00004028A0007028A0070B582B00400002374
:102BC0000193002813D02369002B16D06369002BD2
:102BD00019D0236A002B1CD06269D5682B0C1ED13A
:102BE0002D042D0C41D163691B6802B070BDDC213E
:102BF000FF31264801F006FBE5E7EE2149002348B6
:102C000001F000FBE2E7DE21FF31204801F0FAFA93
:102C1000DFE7EF2149001D4801F0F4FADCE71B046F
:102C20001360136820691A4B1A68B023D3581B1815
:102C30001B68002BD4DA01A9FFF76CFE00280ED127
:102C400001980268160CFF231340E2699A4207D9E3
:102C50009B00226AD358002B02D0984700E0002640
:102C600031002069FFF71AFEBAE763691D601B682F
:102C7000636A002B05D09847002363620023A36199
:102C8000B1E7A36A002BF9D09847F7E74CD70310B8
:102C9000BCBE010810B50400084B1B68002B07D010
:102CA000064B18682C236343C018FFF785FF10BD3F
:102CB000BC21FF31024801F0A5FAF1E708BC010888
:102CC0004CD7031070B505000C00244B1A682E2356
:102CD000D35C834239D9002939D00B68DB0638D15F
:102CE0002E23D35C984225D21C4B1A68136AAC2160
:102CF000525A55435D191A4E35602368DA0800218F
:102D0000606806F049FC00212800FFF7C7FD356820
:102D1000002C15D0220000212800FFF7DFFD00283D
:102D200019D10F4B18680021FFF7B8FD00280DD00E
:102D30000C480BE0E92149000B4801F063FAD3E7A6
:102D40000A49094801F05EFAE4E7094870BD0848FD
:102D5000FCE70748FAE70348F8E7C046BCBE0108AD
:102D60000CBC010801018A005CCF0310A203000023
:102D700003018A0010B50400002A0BD0002A22D0DB
:102D8000002922D0124B19605A6019002000FFF769
:102D900099FF10BD0029F1D10E4B1A682E23D35C88
:102DA00098420AD20B4B1A68136AAC21525A544308
:102DB0001C19094B1C600020EBE7E931490007486A
:102DC00001F020FAEEE70648E3E70548E1E7C046F0
:102DD00014C00208BCBE01080CBC01085CCF031083
:102DE00003018A00F0B583B00D00194B1B68DE6843
:102DF000336883422AD947091F231840012484409D
:102E000000290CD000230193114B18680368002B94
:102E100009DB104C002D15D0200003B0F0BD05F0EB
:102E200004F80190F0E77268BB00D3181A681442E6
:102E300006D0A2431A6000240021FFF72FFDE9E726
:102E4000054CF9E7019804F0F4FFE5E7034CE3E7EC
:102E50000CBC0108030188000201880004018A00FB
:102E60000A4B1B68DB681A6882420DD941091F2290
:102E700010401E3A8240586889000B581A4201D10E
:102E8000034802E0034800E0034870470CBC010817
:102E9000000188000101880004018A00F0B5DE46C7
:102EA00057464E464546E0B585B0804691469A461F
:102EB0000EAB1B789B462D4B1A682C23D35C1F2B23
:102EC0004AD94B00002203921600CC462FE0002581
:102ED000A9464D4629436546A9400A435B0801348B
:102EE000032C17D8D907F9D5E1008C461F21654678
:102EF000A9408A4303210140BD00AA460C25A946EA
:102F000055464E46354029435D46002DDFD11035EC
:102F1000A946DEE7019D029E8446BA462A60002E3D
:102F200012D02968914201D0114A03920136032E32
:102F300014D8002B12D0B50045442A68002401950E
:102F4000029660465746CBE7296851401F208143CF
:102F5000E7D0074A0392E9E7064B0393039805B0CD
:102F60003CBC90469946A246AB46F0BDBCBE0108AB
:102F70000300C2000200C20070B504000D00144B33
:102F80001B685B6CC340DB0715D50F2D18D80F23CA
:102F90001A002A402904F020000301400C48006870
:102FA00000690A431034A402225022581340AB4255
:102FB0000BD1002070BDA821064801F023F9E4E7F9
:102FC000A921044801F01EF9E1E70348F2E7C046F1
:102FD000BCBE0108D8D703100300C20070B50500BD
:102FE0000C00002837D06389DB0B3AD1A379012B81
:102FF00001D0032B3BD1E379012B01D0032B3CD132
:1030000062897F23110099430B1E3ED1A1790733BA
:103010000B40E079C000382101400B43217A0120A8
:1030200041408901402001400B43520219490A40A6
:103030001343627A92078021C9050A401343164A56
:103040001A409A4223D16B626A6A13490A409A4233
:1030500019D100201CE0BD214900104801F0D2F830
:10306000C1E77C21FF310D4801F0CCF8BEE7BE215D
:1030700049000A4801F0C6F8BDE77E21FF31074844
:1030800001F0C0F8BCE7064802E0064800E0054849
:1030900070BDC04600FEFF00DBFEFFE0D8D7031086
:1030A0000300C2000100C20070B505000C0000283A
:1030B00043D06389DB0B46D1A379072B49D8E37949
:1030C000072B4CD82379073BDBB2182B4DD86289EC
:1030D0007F23110099430B1E4FD16179FF33206884
:1030E00098430143A07907230340E679F60038208E
:1030F00030400343207A0126704080014026304052
:10310000034352021F480240134322791206F8205B
:10311000400502401343627A92078020C0050240B6
:1031200013436B6029602A688A4228D16A6816496D
:103130000A409A421FD1002022E0E12149001348B1
:1031400001F060F8B5E7C421FF31104801F05AF8EA
:10315000B2E7E22149000D4801F054F8AFE7C6217B
:10316000FF310A4801F04EF8ACE7E3214900074877
:1031700001F048F8ABE7064802E0064800E00448E2
:1031800070BDC04600FEFF00FFFEFFFFD8D7031052
:103190000300C2000100C20010B5041E09D0626A1B
:1031A00080231B0613436362636A002B06DA002048
:1031B00010BD0349034801F025F8F0E70248F7E79E
:1031C000FF010000D8D703100300C20010B5041E91
:1031D00009D0626880231B06134363606368002B79
:1031E00006DA002010BD0349034801F00BF8F0E7B0
:1031F0000248F7E74F020000D8D703100300C200CF
:10320000F0B585B00400039117001D000AAB1E78CD
:10321000002815D0012F01D0032F16D1012D05D084
:10322000032D03D00B490C4800F0ECFF2000303098
:1032300000962B003A000399FFF730FE05B0F0BD71
:103240000649054800F0DEFFE4E70549024800F0C2
:10325000D9FFE3E7BC040000D8D70310BA0400008C
:10326000BB040000F0B585B00400039115001E00FA
:103270000AAB1F7800280DD0032D10D8032E13D8C9
:1032800020001030009733002A000399FFF706FE54
:1032900005B0F0BD0749084800F0B4FFECE7074966
:1032A000054800F0AFFFE9E79F21C900024800F0A0
:1032B000A9FFE5E7F6040000D8D70310F7040000E3
:1032C00030B5C0239B00C4580F232340072B09D9D6
:1032D00000230FE0D024A4000459CC5401339342BE
:1032E000F8D330BD0023FAE7D024A40005595C00D0
:1032F0000D5301339342F7D3F3E710B51400C22303
:103300009B00C358DB05DB0D9A4204D22200FFF775
:10331000D7FF200010BD1C00F8E703681B050CD583
:10332000802282239B00C358DB05DB0D934206D02D
:1033300090239B00C150012070474022F1E70020FC
:10334000FAE730B580239B00C458F23BFF3B234093
:10335000072B09D900230FE0CD5C9024A400055170
:1033600001339342F8D330BD0023FAE75C00655A7D
:103370009024A400055101339342F7D3F3E710B52D
:10338000140003681B050DD5802282239B00C358BF
:10339000DB05DB0DD31AA34206D92200FFF7D1FFCC
:1033A000200010BD4022F0E71C00F6E7F8B5CE463D
:1033B000474680B505000C0003681B0516D580271D
:1033C00080239B00EB580F261E40A26A012A0FD8CB
:1033D00082239B00EB58DB05DB0D9F4202D0A36AE2
:1033E000012B22D00CBC90469946F8BD4027E7E758
:1033F000636A9946E262531E98464B46002B02D000
:103400004346002B03D12049204800F0FBFE4246F2
:1034100049462800FFF7B3FFA36A1B1AA362072ED1
:1034200000D9400048446062D2E70023A362072E1F
:1034300022D8636A1E7804F0F8FC90239B00EE50BB
:10344000F8231B018026B600EE50EB5804F0F1FC87
:103450000F4BEA580F4B13401E430F4B1A420ED12D
:103460000B4BEE502368022213432360236B002B87
:10347000B8D001209847B5E7636A1E88DBE70749A3
:10348000074800F0BFFEEBE71D050000ECD8031075
:10349000880F0000FEFDFFFF8CF8FFFFEA0400002C
:1034A00078D90310F0B5C64600B505000C000368D6
:1034B0001B053CD580267608A769E3699846002F4E
:1034C00001D0002B03D13449344800F09BFE424622
:1034D00039002800FFF711FF236A1B182362E369F4
:1034E0001B1AE36133D1A368002B2CD0E768B742E5
:1034F0001FD3771E2B681B051DD580239F421CD22E
:10350000C1229200AE58FF239E431F403E43AE505F
:10351000234B0122EA506368012293436360236BCB
:10352000002B01D00420984704BC9046F0BD4026F3
:10353000C1E7013FDEE74023E0E7D02189001948D9
:1035400000F060FEDCE7164B0022EA50E3E7A269D8
:10355000C02189006F580F213940072900D9400048
:103560001018A061B342DFD25C1E2B681B050BD57F
:1035700080239C420AD2C12189006A58FF239A43C2
:10358000234013436B50CFE74023F2E7D02189005B
:10359000044800F037FEEEE772040000ECD8031098
:1035A000C80F000078D90310F0B5C64600B5050075
:1035B0000C001600002800D1D1E1002900D1D0E193
:1035C0000B78022B21D8637B023BDBB2062B21D880
:1035D000A37B002B03D0022B01D0032B1FD121236F
:1035E000E35C012B20D82823E35C012B21D823782E
:1035F000012B23D9A37F002B00D1B6E06368013BE8
:10360000062B00D9B3E000231EE04921C54800F095
:10361000F9FDD8E74A21C34800F0F4FDD8E74B2173
:10362000C04800F0EFFDDAE74C21BE4800F0EAFDAB
:10363000D9E74D21BB4800F0E5FDD8E76268083ABC
:10364000082393429B415B42002B00D091E0A3688A
:10365000053B042B00D991E06369FF2B00D992E070
:10366000A369FF2B00D993E0A37C002B0AD0237819
:10367000002B03D1A368092B00D18EE05421A94867
:1036800000F0C0FDA84B626B1A4200D08AE0A74B45
:10369000E26B1A4200D08AE02378022B00D18BE043
:1036A0006368591E237F002B00D18BE080235B02CF
:1036B000A268082A00D987E08022120113430F2252
:1036C0000A4013438022920413432B60236B2A6821
:1036D00012057BD5802293427AD2A36B2A68120509
:1036E0007BD5802293427AD2636A2A6812057BD501
:1036F000802293427AD220780306C022920413409B
:103700002B64637F002B76D04023A27C002A74D0E8
:103710008022D2001343227C002A70D080225200E3
:103720001343627C002A6CD0802292001343E16A2A
:103730004A1E1204F0273F033A401343677B013FC0
:1037400007223A401343A77B3F0130223A401343FC
:10375000AB64237B002B56D080225200E37B002BEE
:1037600056D1022851D0002054E000236CE70123F9
:103770006AE74F216B4800F045FD68E75021694832
:1037800000F040FD68E75121664800F03BFD67E727
:103790005221644800F036FD66E7A37B002B00D180
:1037A00070E76BE756215F4800F02CFD6FE757216B
:1037B0005C4800F027FD6FE7A37F002B00D06FE788
:1037C00000216FE7002373E7002277E7402282E7BA
:1037D0006C21544800F016FD7FE7402282E76D21FE
:1037E000504800F00FFD7FE7402282E76E214D48F0
:1037F00000F008FD7FE7002387E700228AE7002228
:103800008EE7002292E70022A8E7FF30FF3001E0B8
:10381000802080001043A3685A1E0F2398461A4048
:103820000243C027BF00EA51FF2260690240A0693D
:103830000004FF231B0418400243C42080002A50C8
:10384000EA59434613400333994201D3102903D95F
:103850008421344800F0D6FCE37F002B04D0237889
:10386000012B5BD0002100E00021627B013A07239D
:1038700013400B43A17B090130220A4013436B64C0
:10388000237B002B5ED080214900A3685A1E0F23A2
:1038900013400B432278012A56D000221343802282
:1038A0009200AB50FF23226B1340C1229200AB5019
:1038B0002023E35C002B4AD080239B042122A25CBE
:1038C000012A46D0002213432822A25C012A43D0B9
:1038D00000221343FF22616A11400B432B65A36B47
:1038E0001A4081239B00EA50114B626B1340114A2E
:1038F000AB50E36B104A1340104AAB50002E32D04D
:10390000002373603360B360F3603362F362336348
:103910000B4B7363002004BC9046F0BD802149002E
:10392000A3E7C04660D8031092F4FFFF8CF8FFFFB6
:103930006D0B0000C80F000073070000880F000027
:10394000EFCDAB000021A0E780225202A6E70023C2
:10395000B4E780225204B6E780225202B9E7034856
:10396000D9E70248D7E70020D5E7C0460160AA00A2
:1039700003685B005B080360002904D000234B60F0
:103980000B600B62CB627047F8B507000E001500A4
:103990001C1E2FD0234B626B9A4231D1002E01D0D6
:1039A000002D04D1CA21FF311F4800F02BFC002E4E
:1039B0001FD0002D1DD03B681B0527D580235B0839
:1039C000A660E5600022226162619D4220D35D1EF7
:1039D0003B681B051ED580239D421DD2C121890055
:1039E0007B58FF22934315401D437D500F4BFE3AF9
:1039F000FA50F8BDC821FF310B4800F003FCC9E7BD
:103A0000E4214900084800F0FDFBC7E74023D6E762
:103A1000013DDDE74023DFE7D0218900044800F0C5
:103A2000F1FBDBE7EFCDAB0060D80310C80F00005F
:103A300078D9031008694B69834204D9CB694A6974
:103A40009B1A181870474B69C01AFBE7F0B5C646B9
:103A500000B507000D0003681B0509D580235B082E
:103A60009846C2239B00FE58F605F60D2C6935E0FA
:103A70004023F4E7002437E02B6B002B01D0082013
:103A800098476B69A34232D1244B0022FA50002C94
:103A90001DD0013C2C61EC6829003800FFF7CAFFFB
:103AA000241AA04510D9002C2DD0013C3B681B05E1
:103AB0002BD580239C422AD2C1229200BB58FF20E2
:103AC000834320401843B85004BC9046F0BDEB68D7
:103AD0005C1EDFE76300AA68D152013E002ED9D0F8
:103AE0000134EB68A342C5D06B69A342C4D0D02394
:103AF0009B00F958403BFA580F231340072BE9D895
:103B0000AB681955E9E70024D0E74023D2E7D0217C
:103B10008900034800F076FBCEE7C046C80F0000DE
:103B200078D90310486870470868704770B5046812
:103B30004568022928D008292DD0012901D01D4827
:103B400028E029002000FFF7EFFFC3072AD429004F
:103B50002000FFF7E7FFC30726D482229200A35874
:103B6000DB05DB0DA158C90B01220A409B18002B75
:103B70001CD1C2239B00E358DB0519D1290020008A
:103B8000FFF7F6FE002005E0226880231B061343A2
:103B90002360002070BD226880231B06134323602E
:103BA0000020F7E70348F5E70248F3E70148F1E7AB
:103BB0000048EFE7FF00420070B504000D00E0236D
:103BC0001B01C3581B073FD5444BC358C822920062
:103BD00013400BD04A681A434A60FC2212018350FA
:103BE00083580B6B002B01D0102098473B4BE358B8
:103BF0001B0508D56B688022120113436B60FC2300
:103C00001B01E250E358354BE358DB070ED5EB6957
:103C1000002B54D1AB68002B03D029002000FFF704
:103C200015FFFC231B010122E250E3582B4BE35804
:103C30005B0709D52B6B002B01D040209847FC2354
:103C40001B010422E250E358E0231B01E3585B0709
:103C500034D5234BE358A022D20013400BD02A685E
:103C60001A432A60F8221201A350A3582B6B002B91
:103C700001D0202098471A4BE358DB0724D4184B77
:103C8000E3589B050CD50022164BE2502B6801210E
:103C90008B432B60EA622B6B002B01D002209847EC
:103CA0000F4BE358DB0609D52B6B002B01D080208E
:103CB0009847F8231B011022E250E35870BD2900F9
:103CC0002000FFF7EFFBACE729002000FFF76EFBB9
:103CD000F8231B010122E250E358D0E7CC0F00008B
:103CE0008C0F0000880F000010B504000E4B1A68FE
:103CF0003A23D35C834209D92300D0339B000B4A7B
:103D0000985807231840042806D010BD6E21FF31B3
:103D1000074800F077FAEFE7C034A400A3581B303F
:103D20000340E1301843F0E7BCBE01080000264024
:103D300004DA031010B5041E32D01C49B023DB0096
:103D4000CB589A03920B22608022520413405A1ED1
:103D50009341E371164BCB58DA04D20CA2801B0CB2
:103D6000DB05DB0D2381B123DB00CB580F221000D4
:103D70001840A07218090240E2721A0AD204D20C4A
:103D8000A2811B0F03221340A3730A4BCB58190ABD
:103D900004320A40A2711B0CDB05DB0D238210BD2F
:103DA0000549064800F02EFAC7E7C0460000264045
:103DB000840500008C050000A102000004DA031055
:103DC0000138114B1A683B23D35C83421AD98130E6
:103DD000FF3080000D4BC3587F221A400A70180A2A
:103DE0001F2210404870180C02408A708022120571
:103DF0001A40501E8241CA701B0F032213400B71E0
:103E0000002070470248FCE7BCBE010800002640C5
:103E100001004A00F0B5C64600B586B004007A4BF2
:103E20001A683C23D35C984251D22300E0339B00B4
:103E3000764A9A5812090323134001259D40724B7C
:103E40001A683C23D35C9C4246D2E034A4006F4BFA
:103E5000E3580F241C4027002000FFF745FF0328EC
:103E600064D03ED8012849D04BD8694E002F00D1EC
:103E70007CE0654B1A683B23D35CA34200D398E0F7
:103E80000023984600240022002B17D00023300086
:103E9000002104F0C3F906000F0042460023200071
:103EA000002104F0BBF902000B00CC0750082043AE
:103EB00059088019794104F091F9060068088019C1
:103EC000290003F0F7FF06B004BC9046F0BD51494D
:103ED000514800F097F9A8E750494F4800F092F98F
:103EE000B3E71223FF3398422DD01423FF339842B7
:103EF00032D0033B98421CD00026B7E7484B1E68DF
:103F0000B4E7424AA623DB00D25803231340032B15
:103F100009D03E4AA623DB00D25801231340022BCE
:103F200001D00026A2E73F4B1E689FE73E4B1E686C
:103F30009CE7364A3D4BD358002B01DB002695E722
:103F40008026360292E73A4B18690426064000D1D3
:103F50008CE78026360289E72C4A364BD358002B53
:103F600001DB002682E7802636027FE7142200214B
:103F700001A805F011FB01A8FFF7DCFE234AB023DE
:103F8000DB00D358002B09DB002301A9019A8C88A0
:103F9000C97900290AD00221884675E701AB9B7BCD
:103FA000022B01D00123F0E70023EEE70121884630
:103FB0006AE70522002101A805F0EEFA01A9200018
:103FC000FFF7FEFE013C104B1A683B23D35C9C427A
:103FD0000DD28134FF34A4000C4BE358002B0BDBD3
:103FE000002301A90A784C78897888464CE7124961
:103FF000094800F007F9ECE701AB1B79022B01D06F
:104000000123EEE70023ECE7BCBE010800002640D8
:1040100000127A00EB0700008CDA0310AC070000F6
:1040200018BC010814BC010810BC01080C050000F4
:10403000000027403C050000EF03000070B50500BC
:104040000C00194B1B6828229A5C1F2A15D880087F
:104050000722010091430A1E20D103321540ED00D2
:10406000FC32AA401B68203380001B181968AC4042
:104070004C4014404C401C6010E01B8F8B420ED013
:1040800007232B40084A1268126880252D061D431D
:1040900080239B019C466444A400A55070BD8021F0
:1040A000024800F0AFF8EBE7BCBE010814DB0310D8
:1040B00070B504000D000C4B9A680C4B9A4204D06A
:1040C0001034A4000A4BE05870BD002905D010340C
:1040D000064BA400E058E550F6E74221FF310548C1
:1040E00000F090F8F3E7C04600ED00E00070010832
:1040F0000000031014DB0310F0B5CE46474680B530
:1041000083B0061E019155D04368032B2AD80023A3
:10411000F05E00282BDA284C0022B35E7168002B79
:104120002ADB9A08254FC0329200D05984460320DA
:104130000340DB00FC30814605009D406046A843FB
:10414000050089014846084098402843D0511C4B3F
:104150009A681C4B9A4227D0200003B00CBC9046B2
:104160009946F0BD3C21184800F04CF8CFE7718823
:10417000FFF764FF0024CFE79BB20F221A40083AF2
:104180009208063292000E4884466244556803271E
:104190003B40DB00FF2007009F40BD4389010140F9
:1041A000994029435160D2E70023F05E0199FFF75F
:1041B0007FFFD1E7004CCFE70100560000E100E0AF
:1041C00000ED00E00070010814DB031010B50400DE
:1041D00006E0084B186803F01FFE074B9C4664443A
:1041E00080231B029C42F4D8044B1868604303F000
:1041F00013FE10BDAC7001080080FFFFB070010815
:1042000001BEFEE770B50D00044C1822010020002D
:1042100006F05EF8A5610020FFF7F2FF08780108BC
:10422000FEE7000010B50A4B0268DA6142681A62C4
:1042300082685A62C2689A620269DA6242691A63E3
:1042400082695A63C2699A63FFF7EAFF10BDC046EC
:104250000878010830B500283CD0C368002B3BD05B
:104260000368002B3AD00579AA001E4BD258002AC9
:1042700028D0140000E01A005369002B07D08242B6
:1042800005D0197E027E9142F5D81C00F3E78242E8
:1042900026D02369002B08D0636943610461002B99
:1042A00000D018616061012015E0027E237E9A42F1
:1042B000F2D24461002303612061AD00094BE85054
:1042C000012008E0AD00074BE85000234361036183
:1042D000012000E0002030BD0020FCE70020FAE7CC
:1042E0000020F8E754BC010810B5021E27D004795D
:1042F000A100144BC9580B00002B03D093420ED0E1
:104300005B69F9E7002000281AD08A4209D01A69AF
:10431000596951615B69002B12D01A6110E00120CC
:10432000F1E74B69002B05D0A400064AA3500022F8
:104330001A6105E0A400034B0022E25000E00020D7
:1043400010BDC04654BC010870B584B006000D0015
:10435000022803D9042801D0032816D16B1EDBB232
:10436000012B03D9042D01D0082D13D1B3002E4AFF
:104370009C58042D2ED0012D2ED0022D3DD12B4B3B
:104380001C68002C3CD024693AE029492948FFF7F1
:1043900039FFE3E728492748FFF734FFE6E7A3683A
:1043A0002B420BD1E3681A6802925B680193039376
:1043B000290002A8236898471C4B1C606469002CE4
:1043C00004D01E4B9842EAD1012DE8D1012D05D031
:1043D00004B070BD0020F2E70020F0E7174B9842D0
:1043E00004D0B600164B0022F250F1E7B6000F4B96
:1043F0001A68134BF250EBE71C006369002BFBD1EA
:10440000002000E02469002CE2D0A3682B42F9D1FF
:10441000E3681A6802925B6801930393290002A87B
:1044200023689847EEE7C04654BC010850BC010819
:10443000F50900009CDB0310F6090000FF004200B4
:104440003CBC010810B5041E1DD0114B1B68DB6875
:10445000F222D2019A582260F022D2019A58626068
:104460000C4A9A58A2600C4A9A58E2600B4A9A5831
:1044700022610B4A9A5862610A4A9A58A2610A4A12
:104480009B58E36110BD09490948FFF7BBFEDCE713
:10449000BCBE010804780000087800000C78000019
:1044A000107800001478000018780000140B000049
:1044B0009CDB031010B5041E1CD0114B1B68DB687D
:1044C000F022D201616899500E4AA16899500E4AB3
:1044D000E16899500D4A216999500D4A61699950D6
:1044E0000C4AA16999500C4AE16999502168E83257
:1044F000995010BD09490A48FFF784FEDDE7C04620
:10450000BCBE010804780000087800000C780000A8
:104510001078000014780000187800003C0B0000B0
:104520009CDB031070B50600012850D8504B5B6827
:10453000002B51D001210120FFF706FF041E00D0FF
:104540007BE003F072FC0500494B5B68002B03D055
:1045500004210120FFF7F8FE464B1B6841229A5CBC
:10456000002A04D09A68E023D358DB0636D4B0235F
:104570005B059B899BB2002B07D0B0235B059B8911
:104580009BB28022520093422CD1300008F004FBF1
:10459000384B1B6841229A5C002A4BD0002849D036
:1045A000E02299688A58D20644D5B0225205527842
:1045B000002A3CD0B02252055278212A49D01A6AEA
:1045C000AC21595ACB005B1AD318D86830E02A497D
:1045D0002A48FFF717FEA9E70024B2E72848FFF7AB
:1045E00031FFC4E7234B1A682E23D35C002B12D073
:1045F000204B1A68116AB023D3585B181B68002B34
:1046000012DB204A136904210B431361012E08D0E9
:1046100030BF0020BCE7E92149001B48FFF7F2FD4D
:10462000E6E720BF0020B3E70020184CB0E71448AD
:10463000FFF740FF280003F0FCFB002C0BD10C4BD4
:104640005B68002B03D008210120FFF77DFE2000CE
:1046500070BD0B48ECE7064B5B68002B03D00221D2
:104660000120FFF771FE094B9C42F0D0084CEEE7A9
:1046700054BC0108BCBE0108B20200009CDB031060
:104680001CBC010800ED00E05CCF031005004200F7
:10469000FF0042000749C02252008B589B009B0834
:1046A0008020C00503438B50885880231B0603439A
:1046B0008B5070470000264010B50020FEF7EAFA44
:1046C00010BD000010B50020FFF7A4FB00282AD081
:1046D000154B1860154B1B681C6880229B58E4180A
:1046E0002168090E013103F0E5FB114B18602368C6
:1046F0001B0AFF211940013103F0DCFB0D4B186050
:10470000441E0D49200003F0D5FB01300B4B1870FF
:10471000FA218900200003F0CDFB0130084B18601E
:10472000C003084B186010BDA4700108BCBE01088E
:10473000A8700108A070010840420F00B470010881
:10474000B0700108AC700108034A90235B01D35894
:10475000032018407047C0460000204010B503F009
:1047600064FB084C902149016358074A1A40074BE3
:1047700013436350034B5B68DB06FBD503F059FB27
:1047800010BDC04600002040FCFF00000100FA05FB
:1047900070B5050083051AD103F047FB0400FFF74D
:1047A000D3FF032819D00E4B802292009D509020F9
:1047B00040011A580B4911400B4A0A431A50084B42
:1047C0005B68DB06FBD5200003F033FB70BD9D2149
:1047D00049000648FFF716FDDEE7FFF7BFFFE2E7F7
:1047E00000002040FCFF00000300FA0524DC031059
:1047F000F0B5D6464F4680B583B004008946019295
:104800001F004200344BD65A431C162B04D8DBB28F
:104810005B00314A9D5A00E0EA250123A3402F4A5C
:1048200013420AD14E443E803B88AB4252D2002014
:1048300003B00CBC91469A46F0BD142C12D8A300CC
:10484000274AD3589F46274B9A4615E0264B9A464F
:1048500012E0264B9A460FE0254B9A460CE0254B7A
:104860009A4609E0FF2149002348FFF7CBFC0023CB
:104870009A4601E0214B9A463D805346002BD3D007
:10488000142C0BD8A4001E4B1B599F4601220CE090
:1048900002220AE0102208E0022206E01949164826
:1048A000FFF7B0FC002200E004229145BCD2534641
:1048B00049465B5C9B199BB201998C4663443B80E3
:1048C0004B4601339342AFDA53464B445B789E1913
:1048D000B5B2A9E70C48ABE700DE03109403100063
:1048E000A0DC03104CDD031054DD031058DD031071
:1048F0005CDD03106CDD031070DD031050DD031070
:10490000F4DC03101502000000000204F0B583B0CF
:10491000070003F08AFA050038787978BA786B4690
:104920000633FFF765FF041E0ED16B4606331B8866
:10493000D908C9B207221A40164B595C012393408B
:104940000B405A1E9341DEB2002C01D1002E1ED125
:10495000002C05D0280003F06CFA200003B0F0BD55
:1049600038787978BA786B460633FFF741FF041E32
:10497000F0D16B46DA88D108C9B207231A40054B3B
:104980005B18012191401A780A431A70E2E7024C41
:10499000E0E7C04668BC01080100020430B583B0FE
:1049A000040003F042FA050020786178A2786B4693
:1049B0000633FFF71DFF00280CD16B46DA88D108BB
:1049C000C9B207231A40094B5B18012191401A789C
:1049D0008A431A70002804D1280003F02AFA03B091
:1049E00030BD03490348FFF70DFCF5E768BC01083B
:1049F0008702000070DD0310F0B5D6464F464646EC
:104A0000C0B582B081460D00002A03D003239A4628
:104A1000144F17E08A46FBE70134002F10D0A04561
:104A20000EDD01A8042303704570E6B28670FFF71F
:104A30006DFF0028F0D14B461D705E700027EBE73C
:104A40000135EDB2002F06D0554504D8064B5B5D0D
:104A500098460024E1E7380002B01CBC9046994615
:104A6000A246F0BD0200020448DD031000B583B089
:104A700001AB04221A7002785A7042789A701800BA
:104A8000FFF78CFF03B000BD70B582B0026811144F
:104A9000FF230B400E2B17D8184909688E69DB01DC
:104AA000F6180489230AE4B2FF2515400093012378
:104AB000220029003000FDF769FE0A2C08D00B2CDB
:104AC00011D0002002B070BD0C4B1B689E69E8E756
:104AD000072D03D80123AB40B360F2E7084909482A
:104AE000FFF790FBF6E7072D03D80123AB40736077
:104AF000E7E703490348FFF785FBF6E7BCBE01087B
:104B0000310300003CD6031010B582B00214FF231D
:104B100013400E2B0ED90A4B1B689C69FF210140E4
:104B200000230093013308222000FDF72FFE002010
:104B300002B010BD024A12689469DB01E418EDE787
:104B4000BCBE010801BE00207047012805D0022824
:104B500001D0002070470320FCE70220FAE702287A
:104B60000FD005D9032807D0042807D1082002E078
:104B7000012803D1022070470620FCE701BE022075
:104B8000F9E70420F7E710B50300814206D8411A7F
:104B900064204843190003F08DF910BD091A642000
:104BA0004843190003F086F9F7E7000010B5EFF36A
:104BB0000580103800B2FFF7C5FF8000034BC358D3
:104BC00019001C311868FEF7F7FF10BDC0BE0108C0
:104BD00070B505000C000020FFF71CF9084B1A689F
:104BE0001368802152589B181968090E01314B082F
:104BF000C01803F05FF9691C614303F05BF970BDF5
:104C0000BCBE010870B586B00500082422E02E0065
:104C100066430020FFF7FEF8184B1A6813688021DE
:104C200052589B181968090E01314B08C01803F03F
:104C300041F973081818310003F03CF901382100DC
:104C4000FFF7C6FF01002800FFF79DFF01AB1855D5
:104C50000134E4B2102CDAD901AB197A0820082308
:104C600001E00133DBB2102B06D801AAD25C8A42E4
:104C7000F7D211001800F4E706B070BDBCBE010801
:104C8000F0B5D646474680B585B00D004468236828
:104C9000029323001C33039302A8FEF747FF019001
:104CA000E268531C10D01114FF230B400E2B06D8C2
:104CB000A34909688969DB018846984406E0A04B4E
:104CC0001B689B69984601E00023984667697B1C36
:104CD0000ED03E14FF2333400E2B05D898490968A7
:104CE0008E69DB01F61804E0954B1B689E6900E0B5
:104CF0000026022D00D1B0E0082D00D1ADE0012D3D
:104D000005D0019805B00CBC90469A46F0BD019BB9
:104D1000002BF6D14346002B31D0FE351540072D30
:104D20005FD8874B1A68434691695B1ADB09526961
:104D30001B01D318032D59D92A1F5B68D200D34019
:104D40001A001F231340BC22A354072D55D801235A
:104D5000AB4042469360072D55D8794B1A684346BD
:104D600091695B1ADB0952691B01D318032D4FD9D6
:104D7000043D5A68ED001F21A9408A435A60002E65
:104D8000BFD0FF253D40072D49D86D4B1A68936968
:104D9000F31ADB0952691B01D318032D44D92A1FCA
:104DA0005B68D200D3401A001F231340BD22A354D6
:104DB000072D40D80123AB40B360072D41D8604B8D
:104DC0001B689A69B61AF6095B6936019E19032DAC
:104DD0003CD9043D7368ED001F22AA4093437360E1
:104DE0008FE758495848FFF70DFA9AE71B68EA0021
:104DF000D3401A001F231340A5E7DC218900524845
:104E0000FFF700FAA3E751494F48FFF7FBF9A4E782
:104E10001968ED001F20A84081431960AFE7494998
:104E20004948FFF7EFF9B0E71B68EA00D3401A00E2
:104E30001F231340BAE7DC2189004348FFF7E2F95A
:104E4000B8E742494048FFF7DDF9B8E73368ED00BD
:104E50001F22AA409343336053E74346002B21D0DF
:104E6000FF251540BC23E35C9A46072D3DD81F2340
:104E700052469A433ED1324B1A68434691695B1AB7
:104E8000DB0952691B01D318032D38D9043D5A6838
:104E9000ED001F21A9408A431F2150460140A9402F
:104EA0000A435A60002E00D12BE7FF253D40BD2369
:104EB000E45C072D2FD81F2322009A4330D1204BCA
:104EC0001B689A69B61AF6095B6936019E19032DAB
:104ED0002BD9043D7368ED001F22AA4093431F2283
:104EE0001440AC401C4374600BE718491648FFF7A8
:104EF00089F9BCE716491448FFF784F9BBE71A683B
:104F0000ED001F21A9408A431F2150460140A940BE
:104F10000A431A60C6E70D490B48FFF773F9CAE761
:104F20000B490948FFF76EF9C9E73368ED001F2206
:104F3000AA4093431F221440AC401C433460E0E677
:104F4000BCBE0108BF0200003CD603109202000064
:104F50009302000010B5041E2FD02379172B18D010
:104F600063795B00184A9B5E002B0BDB1F2213400A
:104F70001E3A9A401300154980228B50BFF34F8F81
:104F8000BFF36F8F201DFFF709FD2000A030FFF752
:104F9000ABF92000083000F091FB20000C3000F04D
:104FA0008DFB2000143000F089FB2000103000F051
:104FB00085FB237E002B02D010BD01BECDE7200073
:104FC0001930FFF753FDF7E74CDE031000E100E076
:104FD000F0B5DE4657464E464546E0B583B0040080
:104FE0000F00904600210068FEF7C2FC637EA17EA0
:104FF000032B20D8002B01D1032909D9012B00D183
:10500000BDE0022B00D1BEE0032B14D1002912D148
:10501000AC4A10686D22855CAB406A3AAA401340E6
:105020006C22825C0A40816813438022D2051343BC
:105030008022D2008B503800FFF7E4FD0500A06508
:105040003E0046430020FEF7E5FE9E4B1A681368BB
:10505000802152589B181968090E01314B08C0185D
:1050600002F028FF73081818310002F023FF0138FE
:10507000627E931EDBB2012B00D888E0A37E002A5B
:1050800000D0E5E0032B00D9FCE0FF2800D9FCE0CC
:105090008C4A11688A687026895B52189B009B189D
:1050A0001A6889490A400106090C0A431A6000235C
:1050B00001932900FFF78CFD01004346002B00D02F
:1050C00018603800FFF75FFD0A2800D9E9E0637E29
:1050D000A77E032B30D8002B01D1032F09D9012B38
:1050E00000D1E1E0022B00D1E2E0032B24D1002F1C
:1050F00022D1744A10686F22815C6C3A16008E408F
:10510000B0466C21415C8C466E21415C66468E4007
:105110003100464631436D26865DB340B2401340B0
:105120000B436246174081683B43802212061343BB
:105130008022D2008B508B587023E35C002B00D16F
:10514000BAE080235B02E26D082A00D8B6E00022B4
:105150001343013D0F2215401D4323688022920412
:1051600015431D601968802212060A431A600198CF
:1051700003B03CBC90469946A246AB46F0BD072919
:1051800000D845E73DE7012900D93DE740E7A37E88
:10519000022A25D0032A52D1002B53D14B4A9042E8
:1051A00053D89B009A46474A126894467622614635
:1051B0008E5A8A689219524411688946FF214B46DB
:1051C000194003021943116063469A68B21813002C
:1051D00053441A68F8218A431A600023019368E750
:1051E000012B26D83A4A904226D89B009B46354A46
:1051F00013689C4674229E5A9B68991959440A6800
:10520000344B1A40019203029946334B9A464B465F
:1052100052461340019A1A430A6063469A68B618C8
:1052200033005B441A68F8218A431A600023019313
:105230003FE72A4B01933CE7284B019339E7274B83
:10524000019336E7254B019333E7244B019330E775
:10525000012A1DD1072B1ED81D4A90421ED8194A7B
:1052600011688A687226895B52189B009B181A681D
:1052700018490A400102184E31400A431A600023BF
:10528000019316E7154B019313E7144B019310E7B5
:10529000124B01930DE7114B01930AE70F4B01935A
:1052A00007E70F4B019312E7072F00D821E719E713
:1052B000012F00D919E71CE7002344E780221201DF
:1052C00046E7C046BCBE0108FF00FFFFFFFFFF002E
:1052D000FFFF0000FF0000FF00FFFF0001004A0089
:1052E00003005904F0B5C64600B58CB0041E019108
:1052F0000292039326D017232371163B2376023B99
:10530000A360E360236163610922B249019800F060
:10531000A8F906000922B049029800F0A2F9050098
:10532000002E00D152E1002800D151E173685A7873
:1053300041684B789A4207D0A84F38000CB004BCA3
:105340009046F0BD01BED6E7032206A804F01BF983
:1053500006A8FFF7DBFA071EEFD106AB1A88A2807A
:105360009B78A371092304AA1370019A131404A94A
:105370004B706B461B798B7009A904A802880A80C0
:105380008B7008A90A808B7007A802808370FFF7D2
:10539000BDFA071E01D1019AE260002F00D199E009
:1053A00063799B008E4A9B582360002F0BD1039B8F
:1053B000002B00D1ABE001232376022203992000C9
:1053C000193004F0E0F8002F00D1A9E0002F00D13F
:1053D000E2E0002F00D1E4E0002F74D1200054302F
:1053E0004022804904F0CFF8129B002B00D1DDE071
:1053F000129B1B680193E365129B1879FFF7AFFBC3
:105400006123E054129B187AFFF79FFB6223E0545C
:105410002100543125001C352A002068FEF7C4F80D
:10542000129BD968002904D01A692B002068FEF766
:10543000ABFA98232268E2500433E45004336A4AFA
:10544000E25004330122E2540023A732A350220089
:105450009832AC216250B022A3500432A3502000F5
:10546000A030FEF7F7FE002800D1604F0022C023D5
:10547000E2500433E250303BE250637998005C49DB
:10548000445005925B4D5B005B5F04AA13800723C9
:10549000538059491000FEF72FFE63795B005B5F74
:1054A000002B06DB1F2213401E3A9A401300534A7A
:1054B0001360237E002B00D180E0226811688023D6
:1054C0001B060B431360002F00D136E72000FFF7C7
:1054D00041FD32E7092304AA1370029A131404A9A8
:1054E0004B706B461B7A8B700BA904A802880A804C
:1054F0008B700AA90A808B7007A802808370FFF75F
:1055000005FA071E00D04BE7029AA26048E723760F
:105510000122012120001930FFF76EFA070052E73F
:105520006279637EA77E364909683D20085C824225
:105530002AD2032B2AD8002B01D1032F07D9012B04
:105540001CD0022B1DD0032B22D1002F22D16D2085
:10555000085C84468340984603206346984043464F
:1055600003406C20085C384089680343C0208000F9
:105570008446624492005350002727E7072FE6D95C
:10558000DFE7012FDFD8E2E71E4F1FE71D4F1DE7C2
:105590001C4F1BE71B4F19E72800FFF775FA0700A0
:1055A00017E73000FFF770FA070015E721005431C4
:1055B00022001C322068FDF7F7FF3AE7E1210022C4
:1055C00049022000FFF704FD07007CE7034FB4E623
:1055D000024FB2E61CDF0310B0DE031000005A04D5
:1055E00030DE03105CDE0310814C031001005A040E
:1055F000C0BE01084CDE0310AD4B031000E100E01B
:10560000BCBE010801004A00F8B507000D001600F5
:10561000D0239B000268D358340003E0D0239B00C2
:105620003A68D3585A1C08D1002EF7D0002C07D066
:105630000120FEF7CBFD013CF0E72B700020F8BD08
:105640000048FCE702005A0470B505000C00002079
:1056500003E021002868FDF760FE0028F9D0002053
:1056600070BD30B50024944208D265002D19AB00FE
:10567000CB181D68854202D00134F4E700231800DE
:1056800030BD10B584B00400FFF73EFA002800D00A
:1056900001BE09236A4613702314537003AA6B4694
:1056A0001B881380E4B2947002AA1380947001A83E
:1056B00003808470FFF772F904B010BD10B50400C8
:1056C0000068431C04D0FFF7DCFF01235B4223602A
:1056D00010BD000010B501000148FFF7B5FF10BD77
:1056E000DCBE010810B582B06B46DC1D00232370C0
:1056F000002221000248FFF787FF207802B010BD8A
:10570000DCBE010870B50D001600002901D0002490
:1057100006E0002406E02878FFF7DCFF01350134BD
:10572000B442F8DB200070BD70B50D0016000029F2
:105730000CD00024B4420ADAFFF7D4FF28700134F9
:105740000A2804D00D2802D00135F3E700242000F8
:1057500070BD0000F0B58BB0039205AB0B4E1A0084
:105760003400E0CCE0C260CC60C2009300230A00A9
:1057700001000748FFF7B6FD002801D00BB0F0BDCF
:10578000002203990248FFF723FCF7E788DF0310A4
:10579000DCBE0108F0B58DB00C000292039312AB91
:1057A00020CB1E7800230B930A930AAA0BA900F0C2
:1057B000F5F9071E02D038000DB0F0BD214B009363
:1057C000029B22000A990B9801F006FD002836DDA5
:1057D000002304930593022005AA04A9FF3001F0D9
:1057E0000DFB00280AD0812005AA04A9400001F081
:1057F00005FB002807D065277F42DCE70399049862
:1058000001F024F9EFE72900049800F0B5FE071E27
:10581000D1D106A9200000F0DCF9071ECBD1290068
:10582000079800F061FC071EC5D132000399099862
:1058300000F07AFA0700069801F0B8FFBBE71427DA
:105840007F42B8E7005F2D00F0B587B00291039268
:105850001F0000230593049304AA05A900F09EF9F4
:10586000041E02D0200007B0F0BD049800F0A8F894
:10587000040003F053FE051E33D01B4B009323009E
:1058800002000499059801F0A7FC002805DC142407
:105890006442280003F04CFEE4E7280002F0EAF836
:1058A000061E1BD00100114800F0C4F800280FD0DC
:1058B000006900280FD00197039B0093029B2200F0
:1058C0002900FFF767FF0400300001F06FFFE0E7F9
:1058D00001246442F8E701246442F5E705246442A8
:1058E000D7E764246442BDE7005F2D009CDF03100E
:1058F00070B505000E00002813D0002914D0002434
:10590000162C0ADCA3000B4A9958280004F0BEFCB0
:10591000002801D00134F3E73460172C07D00020B1
:1059200070BD05204042FBE705204042F8E7052016
:105930004042F5E7B870010810B5040001000C48BA
:1059400004F0A4FC00280DD021000A4804F09EFCBD
:10595000002809D02100084804F098FC002805D050
:10596000002000E0002010BD0120FCE70220FAE743
:10597000B8E00310C4E00310D0E0031010B5040039
:1059800001000C4804F082FC00280DD021000A48D8
:1059900004F07CFC002809D02100084804F076FCC3
:1059A000002805D0002000E0002010BD0120FCE709
:1059B0000220FAE7D8E00310E4E00310ECE0031063
:1059C00003004000C01880080322024004239B1AF1
:1059D000C018704770B50E000860C368202B20D136
:1059E000846807E02900104804F050FC00280ED11C
:1059F000B4602468002C12D0256A002DF9D029004B
:105A00000A4804F043FC0028ECD17460F1E7290057
:105A1000074804F03BFC0028EBD1F460E9E70020E4
:105A200070BD02204042FBE730E1031028E1031083
:105A30003CE1031070B590B006000C00002503E0B7
:105A40002368002B15D01C00002C1FD0216A0029D0
:105A500004D0300004F01AFC002817D0A368002BF3
:105A6000EED00E2D11D8A90001AA8C5001351C00D2
:105A7000EAE7002D0DD0002DE6D0013DAA0001ABD4
:105A8000D3581C68002CF6D0DEE70024200010B0AC
:105A900070BD0024FAE70000F8B50F0016000028DA
:105AA0006DD001003748FFF7C5FF002867D0846834
:105AB0001AE021003448FFF7BDFF002806D033006C
:105AC00013331B01FB185B7A012B43D021002F48B5
