:02000004100DDD
:1000000000C0020853870D100D000000B1870D10CD
:1000100000000000000000000000000000000000E0
:10002000000000000000000000000000AD870D107F
:100030000000000000000000AD870D10AD870D101E
:10004000AD870D10AD870D10AD870D10AD870D106C
:10005000AD870D10AD870D10AD870D10AD870D105C
:10006000AD870D10AD870D10AD870D10AD870D104C
:10007000AD870D10AD870D10AD870D10AD870D103C
:10008000AD870D10AD870D10AD870D10AD870D102C
:10009000AD870D10AD870D10AD870D10AD870D101C
:1000A000AD870D10AD870D10AD870D10AD870D100C
:1000B000AD870D10AD870D10AD870D10AD870D10FC
:1000C00010B5064C2378002B07D1054B002B02D02E
:1000D000044800E000BF0123237010BDE49800082D
:1000E00000000000E4EC0D10044B10B5002B03D011
:1000F0000349044800E000BF10BDC04600000000F6
:10010000E8980008E4EC0D1003000120042B05D052
:10011000052B04D101390800411E884170475B1A44
:1001200058425841FAE7000070B50C00816886B06B
:100130001023103902AA050002F02AF90123002831
:100140000FDB984210D1023323706B46A968DE1D85
:10015000283901233200280002F01AF900280DDAAC
:100160000123180006B070BD10221E4902A808F035
:100170008FFE431E984101302070E6E70F2332784E
:100180001340120963702271012801D0042B03D996
:100190000123637000232371A968A21C2039012365
:1001A000280002F0F5F80028DADB0323012804D048
:1001B000A378013B5A1E93410133A370A968E21C46
:1001C00018390123280002F0E3F80028C8DB0323D4
:1001D000012804D0E378013B5A1E93410133E370B8
:1001E0000023BEE7D0D40D1037B50D00C0B201A971
:1001F00001F080FF0124002807D129000198FFF7B2
:1002000093FF0400019801F08DFF20003EBD000027
:10021000F0B5040089B00120002C03D00430012C7B
:1002200000D0FA3004A9FFF7DFFF002802D0FF203A
:1002300009B0F0BD0220002C03D00430012C00D006
:10024000F93006AD2900FFF7CFFF0028EFD10400F9
:1002500004AB1B78244E00932B78019304ABDB781E
:100260000293EB78039304AB9F78A05D0099351956
:10027000FFF74AFF00282CD068780199FFF744FF68
:10028000002826D0AB78042B02D0029A934220D1CA
:10029000EB78042B02D0039A93421AD12B79042BCA
:1002A00015D1124B124A1B68D8686B79022B06D005
:1002B000104A032B03D0104A042B00D00F4A1049D8
:1002C00008F058FD6879831E022BB1D9AFE7BB4215
:1002D000E7D00634122CC8D1044B0A481B68D968F1
:1002E00008F0A2FD0120A3E7E0D40D105C92000805
:1002F000F7D40D10F2D40D100ED50D10FCD40D1046
:1003000015D50D102BD50D10F7B5A52758231600C0
:100310000191FF00C25D00215A433300821804009E
:1003200001F052FC051E0FD15823E25D01215A4312
:100330002C32A2183300200001F046FC002803D024
:10034000019B002B00D005002800FEBD73B50E00F8
:1003500000210500009101F0E9FF6946C0B201F0FB
:10036000C9FE012400280BD101AA0099300001F038
:100370003FFA041E04D10199280001F018FC040082
:10038000009801F0CFFE200076BD37B5D022D20014
:100390000192593AFF3A825C0D0003000121002AC4
:1003A00003D0FE31012A00D1FA39A9420ED15824D6
:1003B00054431A19526A283401A928001C1902F062
:1003C00001F8002801D1019B23603EBD0221002AD3
:1003D00003D00431012A00D0F9310120A942F4D11F
:1003E000582454431A19126D5434E5E7F0B5A52783
:1003F0008DB00992FF000400C05D0E0001F096FF71
:100400000AA9C0B201F076FE002800D0A6E02C2593
:100410007543E35D310018000793089501F086FFEE
:100420000BA9C0B201F066FE002820D02C23582270
:10043000079973434A439B18E1180A690125D006BE
:1004400064D448481B59834229D0002E04D00A980E
:100450000021826801F010FF434B444A1B68D868B2
:10046000002E00D1424A434908F084FC0FE00B986B
:1004700001F076FF05000B9801F054FE5823E25D71
:100480005343089A9B18E3181A1D9A4201D101257B
:100490003CE00133591E0978A942F6D0C6E7CB6883
:1004A0000989C8438342D0D80A9F5B18B9688B4238
:1004B000CBD2A523DB00E35C3978069306980223B0
:1004C000002803D00433012800D0F93358250798B9
:1004D000454308982D18651999421DD0A5238E20F3
:1004E000DB00E35C800058430023049303930293F2
:1004F000E0231B020193204BB83000932A00201800
:100500003B00069901F0B0F9051E9ED10A9801F052
:1005100009FE28000DB0F0BD5307DFD58E20069BE5
:1005200080005843099BB830009320183B002A00F4
:10053000069900F0ADFD002800DA86E7CED1A523AC
:10054000DB00E05C8E239B005843B8302018099AEA
:10055000012100F063FD0028C0D076E701256D423F
:10056000D7E7C0463DB8F3965C9200084BD50D1016
:1005700043D50D1055D50D102C720108A52370B56B
:10058000DB00C55C04000121002D03D00431012DE6
:1005900000D0FA312000FFF7F8FE002802D0012534
:1005A000280070BD0221002D03D00431012D00D0A0
:1005B000F9312000FFF7E9FE051EF0D1A523DB008D
:1005C000E25C58235343E318186A01F09FFEB434E9
:1005D0002060E5E710B520220400FF210C3008F070
:1005E0006FFC012200232260024AE3626260A36082
:1005F00010BDC0460101000142790023012A06D145
:100600000268012A03D10379013B58424341180093
:1006100070470000F0B500258BB005900691089258
:100620000993119B9D4201D3002010E0119B5C1B9C
:1006300080239B009C4200D91C00099B354AE91885
:100640000698230001F076FD002802D001200BB0AF
:10065000F0BDA522059BD2009B5C9C466146069B93
:100660001A780223002903D0FD33012900D1F93B78
:10067000089909789A421AD08B421AD158226046BA
:1006800042438B4220D0059B2C3209989A1813695B
:100690005B070ED511892818461A0B000796884269
:1006A00016D20E1BA14200DA2600002715E08B426D
:1006B000E4D1109B174AE9180898230001F08AFD3D
:1006C0000028C3D12D19ACE7059B10989A18DEE7D6
:1006D0000F27079926000F400021D2689A180319A6
:1006E000934203D90026904200D2161A8E20624609
:1006F00080005043059AB830079B1018054ACB1864
:100700008918029101970096069A614600F078FEDA
:10071000CFE7C0462C9E0008F0B5A1B00491CA4AAC
:100720000021A527040008F0CBFB0023FF00E355C0
:1007300002930393C54BE05D1B78984233D3012BA2
:100740000ED9039B002B0BD00023A525E355013BBD
:100750000293ED00BD4B605D1B78834200D9F6E04B
:10076000A5270023FF00B94EE355E05D337898429A
:1007700000D28FE10023A525E3555827ED00635DE6
:1007800032789A4200D97AE23022002114A808F087
:1007900097FB236A04995A780A715B680C6003938B
:1007A000039A8A6082E2012B06D98E239B0058436C
:1007B000B830201800F078FE5825D0232A00E65DD6
:1007C0009B0173437243A249A21859185162A1496F
:1007D00030005B181365002101F0A8FDE15DC0B297
:1007E00069432031611801F085FC4342584100F013
:1007F000A9FE0121300001F099FDE15DC0B269431D
:100800004C31611801F076FC02904342584100F0EF
:1008100099FE2000FFF7B2FE011E0DD0D0228E4BB4
:100820008E491B68D200D86808F0A4FA0122E35D63
:10083000E318B0331A706AE002002000FFF764FD8D
:10084000002804D0844BE25D1B688549EBE720005B
:1008500001F0DCF90028E9D014AD2800FFF7BAFE5A
:100860002800FFF7C9FE059000281FD1774B1B78A1
:10087000012B0CD8002000F065FE2A00002120008A
:10088000FFF742FD4342584100F05CFECEE7E25DD7
:10089000002AEFD023000121B0339A189A42E9D000
:1008A0001878042800D119700133F7E7EB79069323
:1008B000012B38D1E05DFFF7ABFC831E0600022B55
:1008C0000BD82A0006992000FFF790FD012803D0DD
:1008D000002802D0052600E00600E35DE318B033EF
:1008E0001E705A4B1B78012B11D9E25D002A0ED0E5
:1008F000A318B03319781300012911D0042900D1AD
:1009000019E223000121B0339A18934219D1E35D13
:10091000E218B0321278023A022A01D80122039278
:100920000133E35506E72A0001212000FFF75EFDB1
:10093000E35D0522E318B033002800D1EA791A708C
:10094000CFE71878042800D119700133DDE72318A8
:10095000B0331F7804239F43013F7B1E9F41FFB2AA
:10096000390001F0E3FC09A9C0B201F0C3FB002883
:100970000BD001230293099801F0D4FB029B002BBA
:1009800070D1635D01336355E4E658212C26635D25
:10099000774359430123C919009361183F33099ADA
:1009A0000EA800F0E7F902900028E4D137000A26EB
:1009B00006ABF618320000230AA90EA800F02CFAA4
:1009C000031E00DAB4E10998D5D133880C2B36D157
:1009D0000BAE32000A9901F0ADFB0028C9D11B4BC8
:1009E00032781B7893422CD90221A318B0331B789C
:1009F000023BDBB299424041582378435A43801866
:100A00002018027D33799A42D1D808D3427D737978
:100A10009A42CCD803D3C28AF3889A42C7D2635D84
:100A2000E318B0331A78012A07D0002A03D0032A2A
:100A300001D801221A7008239CE70422FAE7032355
:100A400098E7072396E7C0462C050000C0900008F1
:100A50002CA200082C0A01085C92000880D50D1019
:100A6000C5D50D10B64B029A1B78082A00D077E640
:100A70000293002B00D173E6220000230121B03243
:100A800063551170029A8A4202D02200B13211706D
:100A9000029365E614AD012B09D98E239B005843C0
:100AA000B830201800F000FD2800FFF793FDE35D4B
:100AB000E318B0331878E8710138042800D9D9E078
:100AC00007F084FE9203030392009E4E9E48336813
:100AD000D96808F0A9F933689C48D96808F0A4F9E6
:100AE000E35D01200293002B03D0FE30012B00D1E7
:100AF000FA380BA901F0FEFA4342584100F022FDFA
:100B0000029B0220002B03D0FD30012B00D1F938CD
:100B10000EA901F0EFFA4342584100F013FD5822AC
:100B20000025E35D03955343E3189B6A0692079300
:100B3000079B039AE05D934224D1069A4243A3188F
:100B4000DB6B5B0736D433682A008149D86808F02C
:100B500011F900230195582500930B9A0E99200056
:100B6000FFF758FD2900E05D41432C316118FFF784
:100B7000EDFB0290002856D033687648D96808F01B
:100B800053F928E0069B039A58432018436AD20081
:100B90009B185B6829001A000B98059301F06CFB09
:100BA0004342584100F0CEFC059BED18039B0133F6
:100BB0000393BDE78E239B0058432C3214ABB8300F
:100BC0000093A21820180E9B029900F061FA0028E9
:100BD0001ADA03230293029D6B425D41280000F064
:100BE000B1FC280000F0AEFCE35DE218B0321278F0
:100BF000FF2A42D1534B58481B68D96808F014F9B2
:100C0000002000F09FFCFEE700289CD18E23E05DD1
:100C10009B005843B830201814AA012100F0FEF9B7
:100C2000002890D0D5E7E35D02996B43E3181B6D74
:100C30000E985A6801F020FB4342584100F082FCB4
:100C4000E35D0E985D4365196B6D2A6D013BDB001A
:100C5000D31811681A68511A5A6801F00DFB434203
:100C6000584100F06FFC0B9801F05CFA0E9801F00F
:100C700059FAB0E7FF221A70B6E7013373E5E318BB
:100C8000B0331B78012B09D1002220001100FFF79F
:100C9000ADFB002822D00323029307E014AA002111
:100CA0002000FFF731FB02900028EDD0A52500239E
:100CB0005827ED006355635D32789A423DD97B43F6
:100CC000E318D86C01F02EFA635D7B43E318186AD1
:100CD00001F028FA635D01336355ECE7605D23188A
:100CE000B0331B78012B0ED1390041436118FFF757
:100CF0002DFB0290002806D0124B18481B68D968BB
:100D000008F092F8D2E73900605D414361180A6A41
:100D100000F0D0F80290002806D00A4B625D1B68F4
:100D20000F49D86808F026F8635D0133635526E55E
:100D300001235B42ACE6059AF1E5029821B0F0BDD3
:100D4000C09000085C920008F4D50D1029D60D1053
:100D50004AD60D108DD60D10C9D60D10D8D60D104F
:100D600017D70D1010B501000148FFF7D5FC10BDD5
:100D700000990008F0B587B002930CAB1B78040013
:100D80000D0000920393002805D101235B420193DB
:100D9000019807B0F0BD0029F7D0009B002BF4D0DC
:100DA000CB680F8905AEFF18320004233900009884
:100DB00001F0C0F901900028E7D1154A31886B890C
:100DC000914221D171889942DFD1C919042332009F
:100DD000009801F0AFF90028D7D105AA0D4B118872
:100DE0009942D2D1009B256063606B461B892381A9
:100DF0006B461B7BA3726B89DB19E3605288D318A7
:100E000063613B1D2361C3E7002BE6D0BDE7C0460D
:100E10000869000007690000F0B585B00400009182
:100E200001921E00002803D10120404205B0F0BD10
:100E30000368002BF8D04368002BF5D02269636962
:100E40009A4218D223685B89002B04D0E36893424E
:100E500001D10433236103AD04232A0021696068B2
:100E600001F068F90028DFD1A27A2369002A04D0B2
:100E7000E2689A4201D80120D8E76A882189171DC3
:100E8000BC460B4FB94202D02D888D420DD1002EA9
:100E900002D003A909883180009904330B60019BBB
:100EA0001A80236963442361C0E763442361C5E773
:100EB000FFFF0000F0B50025D9B003900095514B1D
:100EC0000AA81600FFF756FF0295A84204D0012495
:100ED0006442200059B0F0BD0E2704ABFF1807ACE8
:100EE0003B00220008A90AA8FFF796FF0028EED1D0
:100EF0003B88602B0FD18022238852009342E6D892
:100F000018AA0899300001F015F90028DFD12388CC
:100F100001250293E0E7102BDED12388202BD6D8C1
:100F200010AA0899300001F005F9041ECFD1002D58
:100F3000CDD0029858AB20380890181801382022DC
:100F4000FF3810A907F0B3FF039B2F4E9B010493BA
:100F50003F23049A09941A43337805922B4D002BB2
:100F600009D1802221005201280007F0A9FF284B57
:100F70002B60012333706888244B264EC3180393DB
:100F8000039B09AFB34224D8049B234A1B051B0DC6
:100F900013433B806B461E897E806B88321D92B264
:100FA0009B18184A93422BDC80229BB25201934239
:100FB00022D804223900039807F079FF0398029A97
:100FC000043018A907F073FF6B880433F6186E809D
:100FD0007FE704223100380007F069FF3B881A0BD5
:100FE000012A04D1059A1B051B0D9A4206D009ABB4
:100FF0005B880433F618C3E701246AE7022468E734
:10100000032466E7FFFF00002C52020800080008D6
:1010100016200400040800083F100000F0B587B057
:10102000174C02AD019028000F00160007F08AF857
:10103000230007CD07C380212000124A890007F052
:101040009BF8114D280007F0F3F8002816D12888E6
:10105000210007F0A1F8002810D13A010C32B21893
:1010600028881023094907F05BF8002806D18E2351
:101070005B005F43019A1C3BFF3BBB5407B0F0BDD4
:10108000305202080100C0042E5202080100004044
:10109000F0B50700D5B0180016001D0000F098FB51
:1010A000002808D1BE4BBF481B68D96807F0BCFEBA
:1010B0000124644248E1280000F020FB041E00DA0D
:1010C00042E18E235B004343DB5D06900124002B4D
:1010D00000D039E100932A003233310025A8FFF710
:1010E00049FE031EE4D12E2602AAB61832000FA92B
:1010F00025A8FFF791FE041E00D025E13388712B4F
:10110000D6D137AE32000F99280001F013F800282D
:10111000CED1280000F03EFB071EC9DD07F0A4F881
:10112000B842C5DBA04D1022290019A8113507F0DF
:10113000BEFE102229001DA807F0B9FE10222900CA
:1011400021A807F0B4FE13A81294139407F0A0F896
:1011500043424341954A5B42134007933023041EA8
:10116000149300D0F0E00EAD2900380007F06EF8BF
:10117000041E00D0E8E0288811AA10A907F01AF888
:10118000041E00D0E0E03378042B00D0FDE0C02244
:101190008021109BD2051A40C9058A4200D0D6E0B2
:1011A000119BDC1DE4082000129407F04BFE051E85
:1011B00000D1ECE02200310007F079FE102219ABDB
:1011C0000EAE318803931DAB0193079B04920292EC
:1011D00000932A00230013A807F00EF8041E00D085
:1011E000D9E0149A2BA913A806F05AFF041E00D0C8
:1011F000D1E0308812AB129A290006F0EBFF040010
:10120000280007F029FE002C00D09DE008AD280042
:1012100016AE159406F096FF33002A0013CA13C3C6
:1012200080213227624A0901300006F0A5FF02AB97
:10123000FF18380006F0FCFF041E00D084E0388858
:10124000310006F0A9FF041E00D07DE0A2213888FD
:1012500020232FAAC90506F063FF041E00D073E007
:101260003988534A15A807F021F8041E6CD136239B
:1012700002A9FF335B181022190015A807F026F801
:10128000041E61D1162102ABFF312022C91815A816
:1012900007F02CF8041E57D1388806F0F3FE041E20
:1012A00052D1444E280006F04DFF320008AB13CB5C
:1012B00013C28021404A8900300006F05DFF3F4D97
:1012C000280006F0B5FF041E3ED12888310006F044
:1012D00063FF041E38D1288810232BAA384906F052
:1012E0001FFF041E30D1374E2988334A300006F0E4
:1012F00081FE041E28D1102221A9300006F09CFE98
:10130000041E21D1069B5A9A1B010C333621D31897
:10131000102202A814AFFF31091801970092300083
:1013200006F09AFE149B0400102B32D100280BD13A
:10133000020001003B00300006F06CFE041E03D1E9
:10134000288806F09FFE0400200055B0F0BD1E4A1C
:101350001E491A408A4203D1119BDC08103422E74F
:101360001B498A4205D10324119BDB085C434A34A4
:1013700019E7184A1340184A934200D013E7119B0B
:10138000DC1DE408640001340DE7872491E68D2418
:101390008FE684248DE6280007F05EFDD4E7C04682
:1013A0005C92000873D70D1051D70D10090120224F
:1013B00009008002305202080100C0042E520208C7
:1013C000010000403C520208FFFFFFEF00000160F7
:1013D000000002600000FFEF0000036010B5040091
:1013E000100000F08BF90023984206DB1D33FF3319
:1013F0005843035D581E8341DBB2180010BD000046
:10140000F0B51D00170089B004AC06000C220021C5
:10141000200007F055FD2B0F23732B0D637338004D
:101420002B0B2D09A373E57300F068F9002804DA8B
:10143000002000F087F809B0F0BD8E235B00584310
:10144000805D01384342584100F07CF8134B144D45
:101450001988144A280006F0CDFD0028EBD110228F
:101460002100280006F0E8FD0028E4D10E9B03AC23
:101470000093109B0E9A19000194280006F0ECFDD1
:10148000039B0E9A01009342D5D10028D3D10200CC
:101490002300280006F0BEFDCDE7C0462E5202080C
:1014A0003C5202080100C0048E2210B592000021B7
:1014B00006F012F910BD000010B504F00BFF04F0A7
:1014C00041FF04F053FF62B604F0F2FEC022012097
:1014D000074952008B5883438B500648064A002127
:1014E00001F00CFFE120400205F020F810BDC046DD
:1014F0000000264080003240ACD70D1010B50C48DB
:1015000001F06CFD04F04CFF0A4A8021032002F038
:10151000B3FA094802F0A4F8084B1B684D331B7856
:10152000002B02D0064802F013F901F027FE10BD8F
:1015300088E00D1000000008405202083C570208E5
:1015400058D80D10F7B5041E49D16A46244B254DD5
:101550001B78254FD3706B68244801933B68D9688A
:1015600007F062FC2248234A2100121A07F0A8FC67
:101570002148224A2100121A07F0A2FC204E214ADB
:101580002100921B300007F09BFC6B46144ADB786D
:101590001370019B6B6086F308881B4E1B4821006B
:1015A000321A07F08DFC86F30888012007F02CF82A
:1015B000FFF7A4FF686805F0FBFF021E04D03B683C
:1015C0001349D86807F0D6FB124804F04DFF124BC0
:1015D0001B68002B01DA06F00FF80BF061FFF7BD76
:1015E00034570208AC5502085C920008E0D70D1091
:1015F000C09000082C940008E49800087C5702086A
:10160000002000080024000800C0020800B0020802
:1016100028D80D100040001600012640F0B599B002
:101620001EAB1B780390049313781400302B03D067
:101630009520404219B0F0BD9378022BF8D108AD47
:1016400040220021280007F03BFCE0782218537963
:10165000811D1279C9180291022AE9D1C218617854
:1016600004329142E4D1202B00DD20230100202808
:1016700000DD2021401A002205900FE0501A203092
:1016800007000598102684469444A44460460079D7
:101690000132844604A880196646C6559142EDD1B0
:1016A00000220299C91A64189A4212D10E2404AB7E
:1016B000E4182100049806F0C9FD0028BAD140239F
:1016C0002088039A01930095203B054906F07EFC93
:1016D000B0E7D11AA05C403168540132E4E7C0465B
:1016E00009000610037800205A1E012A05D901308E
:1016F000052B02D0062B00D0023870470378042255
:10170000190000209143012905D00130022B02D09D
:10171000062B00D00238704710B50C00FFF7E2FF2F
:10172000012807D828235843044BC05C001B431EE4
:10173000984110BD01204042FBE7C046AC5502086D
:1017400010B50400FFF7DAFF00280DDB0BD02000F6
:10175000FFF7C8FF002807DB282343430448C018CD
:1017600043780120584010BD01204042FBE7C046AD
:10177000AC55020810B5FFF7B5FF0022012805D8C7
:10178000282343430248C0180530C27F100010BD13
:10179000AC55020810B5FFF7A5FF0022012804D8B8
:1017A000282343430248C018427A100010BDC046A7
:1017B000AC550208012805D8282343430348C01824
:1017C000C068704701204042FBE7C046AC550208A4
:1017D00010B5FFF787FF012805D8282343430348A6
:1017E000C018007A10BD01204042FBE7AC5502084A
:1017F0000023F0B58DB00D001600049313609842DD
:1018000003D1072420000DB0F0BD0029F9D0438991
:10181000002B01D10324F5E701230A000093010006
:101820004F3306A8FFF7A6FA041EEBD10E276F442C
:1018300003003A0005A906A8FFF7EEFA002801D038
:10184000013CDFE73B88042BE4D104AA059928007A
:1018500000F070FC002801D00124D3E7049BFF2B8B
:10186000D0D83360CEE70000F0B51F001723002664
:101870001400FF25BFB006AA9B181E7023690990AB
:10188000380006910E950F960493FFF737FFB0428C
:1018900003DA012040423FB0F0BD002800D1DDE076
:1018A0003800FFF74DFF0028F5DB3800FFF790FF09
:1018B000431E9841049B5B07DB0F984203D038001E
:1018C000FFF786FFE5E702220792069A10963B781B
:1018D000002A05D006220792069A012A00D0079511
:1018E000079A93420BD123695B0708D53A00069902
:1018F0000998FFF773FD002801D10138CBE7A34910
:1019000010A806F0DDFB0028C5D1469B002B58D15E
:101910000020238905000493049AE36894466344F5
:1019200005936389059A9B180893089BAB4254D88A
:101930000028B0D11EAB202216A910A806F0DEFBAD
:101940000028A8D1489B002B00D0A8E000233A0033
:10195000009321008E4B10A8FFF70CFA00289AD1B3
:1019600005000790049005901A2606ABF6180CACFB
:10197000330022000DA910A8FFF74EFA002800DA64
:1019800087E700D0F4E03388222B00D1A8E000D90B
:101990008BE0102BE8D12488202CE5D123001EAA4F
:1019A0000D99380000F0C6FB002800D073E7220034
:1019B0001EA916A807F06CFA0028D5D101230593BB
:1019C000D2E7479B002BA3DD1A00469910A806F02A
:1019D00085FB002800D05EE79AE7089B459E5B1BCD
:1019E0009E4200D91E00049BAB4204D9049A73198D
:1019F0009A4200D2561B059BAB4204D9059AAB19FB
:101A00009A4200D2561B3300449A2900380000F055
:101A100091FB002800D03EE73B78079A934216D10D
:101A200004222369134212D0049BAB420FD8059BBA
:101A3000AB420CD9449A049B02920F22EB1A1A4033
:101A4000019200963A0006990998FFF7D9FC3200F6
:101A5000449910A806F042FBAD1966E710904B4977
:101A600010A806F02DFB002800D014E7469B002BA1
:101A700009D1638922897968D218E36810A8D2183D
:101A800006F02CFB54E7479B002BF2DD1A00469929
:101A900010A806F023FB002800D0FCE6E9E720228E
:101AA00016A9489807F003FA50E7502B3FD0812B36
:101AB00000D059E72388172406AAA41822000D99FC
:101AC000380000F037FB002800D0E4E62178380029
:101AD000FFF722FE002800D0DDE60123049343E750
:101AE0003800FFF747FE061E00DC3DE706F0BCFBB2
:101AF000B04200DA38E723881A00463A3A2A00D979
:101B0000C7E61EAA0D99380000F014FB002800D08B
:101B1000BFE6F6B223881EAA0096202116A8FFF77A
:101B20007DFD002800D01FE7012307931CE72388D1
:101B3000042B00D0ADE60FAA0D99380000F0FAFA98
:101B4000002800D0A7E60F9BFF2B00D9A1E60EA925
:101B5000069800F01FF8002800D09CE60E9BFF2B93
:101B600000D996E60F9A934200D9FDE60125FBE6DF
:101B7000059B002B00D18CE6049B002B00D188E64E
:101B8000002D00D185E60798B7E6C04609000001A0
:101B9000FFFF000010B50C00FFF70CFE002803DB70
:101BA000210005F017FE10BD01204042FBE710B5F3
:101BB0000C00FFF7FFFD002803DB210005F022FEEB
:101BC00010BD01204042FBE7A52313B5DB00C05C3C
:101BD000140000F0ABFB01A9C0B200F08BFA0028A2
:101BE00005D00124019800F09DFA200016BD01984F
:101BF000FFF7A6FD011EF4D122002023019800F07A
:101C000099FA0400601E8441ECE70000F7B5A527AF
:101C10005825FF00C35D06006B43C318D86CFFF75F
:101C20008FFD041E08D0354B35481B680024D96849
:101C300007F0FAF82000FEBDF05D68433018836AB3
:101C40000093D023009ADB009A4203D8426D0192A0
:101C50009A424BD9294B2B481B68D96807F0E4F806
:101C6000E8E7A94221D1D700BC46476A0132BC440B
:101C700067467F68BC46DF006144BC46076D0133A0
:101C8000BC4467467F68BC466544009FBA42E8D3BF
:101C9000019FBB42E5D300998A4201D1BB422BD0C0
:101CA000164B19481B68D968D8E7A94211D2D7004A
:101CB000BC46476ABC4467467F68BC466144022E06
:101CC00004D10E4B11481B68D968C7E701320126C1
:101CD000DBE7DF00BC46076DBC4467467F68BC4657
:101CE0006544012EEDD001330226CEE72600230005
:101CF000220025002100C8E701249BE75C92000830
:101D00008CD80D10B8D80D1024D90D10EAD80D10AC
:101D100010B5FFF7F3FB10BD10B50F4B98782A33C1
:101D20001C78002C0ED02000002404280CD800F0D1
:101D3000A5FF0A4B041E1B6808D1D968084807F0A4
:101D400073F801E00028EFD1200010BD0200054922
:101D5000D86807F00FF8F7E7AC5502085C92000866
:101D600075D90D10A2D90D10F0B593B0FFF7C6FBD1
:101D7000FFF7A2FB1722B2490AA807F098F837200C
:101D800002AB09220021C01807F09AF8C02003AA6C
:101D900004A9800005F07CFB002803D10AA904985F
:101DA00005F038FBA74DA84C2B682000D96807F038
:101DB0003BF8A64E2B683000D96807F035F82B6841
:101DC0000AAAA349D86806F0D5FF2B683000D96865
:101DD00007F02AF82B682000D96807F025F82B684F
:101DE0009C48D96807F020F8802003AA04A9400085
:101DF00005F04EFB061E08D1974C0300974A2100C0
:101E0000049804F05BFC061E12D02B683200944943
:101E1000D86806F0AFFF8B4B92481B68D96807F073
:101E200003F870427041FFF78DFB002013B0F0BD46
:101E300001238D4E8D4A33708D4B8E4F1A8062690F
:101E40005A60A2699A608C4B3B80237A002B04D0A5
:101E50002B688A48D96806F0E7FFA378002B06D0E4
:101E60002B688748D96880237B7006F0DDFFE36923
:101E70007B60236ABB602B68D868237C012B00D071
:101E80008FE0230038331B78022B00D089E03370B9
:101E90007C4A7D4B7D4F1A80E26B5A60226C9A60BF
:101EA0007B4B3B80230030331B78002B03D0010099
:101EB000784806F0B9FF23002A331B78002B06D0A0
:101EC0002B687548D96880237B7006F0ADFF636C82
:101ED00032787B60A36C7149BB602B68D86806F0D0
:101EE00049FFFE226E4BD2011A806E4A5A60802250
:101EF00052029A606C4B6D4A1A806D4A5A60802279
:101F000052019A60FFF708FF00280DD0A378002B3C
:101F100001D00023637023002A331B78002B03D0E9
:101F20002300002229331A7006F042FB021E07D05C
:101F30002B686049D86806F01DFF0020FFF702FB00
:101F400007A8FEF70FFF061E00D064E72B685A486B
:101F5000D96806F069FF594B6268594F1A60079BB0
:101F600058491A89099BD2182B683A60D86806F03C
:101F700001FF0122237C019293420AD123003833CE
:101F80001B78022B05D12B684F48D96806F04CFF0F
:101F900001962078013803284AD806F017FC090575
:101FA000050E327849499AE70221002001F0D6FD5A
:101FB0000199386805F0A6FB2DE706210E2001F0F7
:101FC000CDFD264B3D4D1B7802AAD3703C4C2B68AF
:101FD0003F48404A05932368121A0021069305F0F2
:101FE0007BFB3D4F3D4A0021D21B380005F074FBBE
:101FF000069B1A4A236002ABDB781370059B2B60AB
:1020000087F30888364F374800213A1A05F064FBF9
:1020100087F308883448354A0021121A05F05CFB22
:10202000FFF76CFA2A680021206805F0EDFAF2E665
:102030002B682F48D96806F0F7FE30BFFDE7C04691
:1020400055D90D105C920008E0D90D10EAD90D1099
:102050002BDA0D1056DA0D10AC5502083457020871
:1020600078DA0D10B4DC0D10C0900008017F00007C
:10207000D0530208F4530208027F0000A7DA0D10C3
:10208000E2DA0D10057F0000DC530208005402085C
:10209000067F00001DDB0D1058DB0D1093DB0D10CB
:1020A000C453020800000D10E8530208037F00002B
:1020B00000F00C10D4DB0D1020DC0D100C540208C5
:1020C000C053020850DC0D1070DC0D10B7DB0D1092
:1020D000C09000082C94000800200008002400088C
:1020E00000C0020800B00208E49800087C5702080B
:1020F0008EDC0D1010B50A4A1368002B02D10124A2
:10210000644205E01C7804328442F5D100240B605F
:102110000B685B787F2B01D900F020FD200010BDFB
:10212000C4900008437810B57F2B01D900F040FD22
:1021300010BD0000F7B54468050017001E008C4272
:1021400005D8F9211C4B1D4A1D4806F0F5FDCB189A
:102150009C4203D81B4B194AFA21F5E76418320058
:10216000210006F0CBFA0190002803D0164B134A49
:10217000FF21E9E76B787F2B07D12100320038007F
:1021800006F095FE019C2000FEBD5BB2002B0FDA2D
:10219000210033003A00280000F04CF9041EF2D070
:1021A0000A4B22001B680A49D86806F0E3FDEAE7FB
:1021B00001246442F4E7C04698DD0D10ECDC0D10FC
:1021C000A9DD0D10C7DD0D10DEDD0D105C920008DD
:1021D00007DE0D10F8B54468060017001D008C429C
:1021E00004D892211D4B1E4A490006E0CB189C42A0
:1021F00006D826211B4B1A4AFF311B4806F09CFDCE
:1022000064182A00210006F079FA002803D0174B41
:10221000134A9621E8E773787F2B12D1EB0503D0A0
:10222000134B0F4A3421E7E780239B009D4204D1E2
:102230003900200000F0E8FFF8BD0E4B084A9C2151
:10224000D2E75BB2002B06DA2B003A002100300007
:1022500000F010F9F0E701204042EDE798DD0D10A5
:10226000FCDC0D10C7DD0D10A9DD0D102EDE0D10EC
:1022700063DE0D1080DE0D1070B545680600140099
:102280008D4204D8AF211B4B1B4A490006E08B1836
:102290009D4206D86021194B174AFF31184806F0B5
:1022A0004BFDD30503D0174B134AB021EDE76D1852
:1022B000290006F023FA002803D0134B0E4A6821A8
:1022C000EBE773787F2B09D1640A002C00D170BD35
:1022D000013C6002401900F059FFF6E75BB2002BA9
:1022E00004DA2100280000F0E5F8F0E70120404280
:1022F000EDE7C04698DD0D100DDD0D10C7DD0D10AA
:10230000A9DD0D1063DE0D104BDD0D1010B5437807
:102310007F2B05D05BB2002B05DA00F0E3FC10BD8B
:1023200080208000FBE701204042F8E702000129FD
:102330000DD00320022909D00438002906D101203C
:10234000002A03D00430012A00D0FA30704702205E
:10235000002AFBD00430012AF8D0F930F6E700005B
:1023600010B543787F2B0AD05BB2FF20002B07DB30
:10237000F721044B044A4900044806F0DDFC002024
:10238000C0B210BD80DD0D101EDD0D10A9DD0D10D9
:10239000F7B5060017000193FFF7CCFE0500041EF9
:1023A0000AD001256D420BE03000FFF7D9FF3B5DFD
:1023B000834205D10134E4B2019B9C42F4D3012550
:1023C0002800FEBD70B5164B1C68002C02D1012000
:1023D00040421DE0257804338542F5D163787E2B99
:1023E000F5D91048A3681B1808685B0A984206D202
:1023F0008D210D4B0D4A89000D4806F09DFC80256E
:1024000060685C022418AD00844202D100200B6099
:1024100070BD8026B6001060556080190832F3E761
:10242000C4900008FF01000086DD0D1034DD0D10A2
:10243000A9DD0D10F0B585B003937F2340780C0023
:102440001840170000F0E0FB060000F0E5FB050077
:1024500000F0E6FBE8231B06E218039B01900093C3
:1024600031003B00280003F0E3F9431E984140424D
:1024700005B0F0BDF0B585B003937F2340780C0024
:102480001840170000F0C0FB060000F0C5FB050077
:1024900000F0C6FBE8231B06E218039B01900093A3
:1024A00031003B00280003F013FA431E98414042DC
:1024B00005B0F0BDF7B50400002000F0A5FBE82250
:1024C000836905009B691206A4185B421C4000F05A
:1024D000A3FBAB6906009F6900F0A2FB3B000090E4
:1024E00029003000220003F05BFA431E984140426D
:1024F000FEBD0000F0B589B006ACE070002021718F
:102500002080A07000F080FB060000F085FB050035
:1025100000F086FB310007000200280002F082FC78
:10252000002815D101230497039333780200029306
:1025300005230190009371212300280002F0ACF9DB
:10254000002805D13B00034A3100280003F046F97A
:1025500009B0F0BD20A10700F0B500248BB009AD93
:10256000E870200007912C80AC7000F04DFB0690C5
:1025700000F052FB060000F053FB069B049003940E
:102580001B780700029304230194009322002B0080
:102590006521300002F080F9A0420CD10821300002
:1025A00002F054FBA04206D10300009701220799D4
:1025B000300002F081FA0BB0F0BD021E1DD04118B0
:1025C0008B1F1B780022342B17D14B1F1B782A3B03
:1025D000012B12D80B1F1B78193B022B0DD8CB1ED9
:1025E0001B780F2B09D18B1E1B78032B05D10139CA
:1025F0000878903843425841C2B21000704700003A
:1026000030B5002089B000F0FFFA050000F004FBAF
:10261000040000F005FB01230022049003932B78B3
:1026200020000293019200921300B72102F034F9C6
:10263000041E11D11F256D4429000320FFF78CFFD4
:10264000041E09D129784BB2002B08DA2900042096
:10265000FFF782FF041E0BD0200009B030BD80239D
:10266000032019432970FFF745FF041EF4D1EDE75D
:1026700008212B780B420CD0002000F0C5FA8022F4
:10268000D8218369D2029A615A691160054A1A6495
:10269000E2E7194304202970FFF72CFF0028EBD054
:1026A0000400D9E770170000F0B589B0079000204A
:1026B0000F0000F0A9FA040000F0AEFA050000F0E7
:1026C000AFFA00220490039223780600029301924D
:1026D000009213009F21280002F0DEF8041E0FD1A3
:1026E0004021280002F0B2FA041E09D10090030034
:1026F00001963A000799280002F0A0F9041E16D0AE
:10270000200009B0F0BD012003F004FC31002800D6
:1027100002F0B4FA032802D0013F002FF3D13100B8
:10272000280002F0ABFA0328EAD0024CE8E7024F97
:10273000ECE7C0460200B200E903000070B50600F5
:102740000C001500072903D91449154803F0ECFBC8
:102750001F232A009A4303D01249114803F0E4FBD7
:10276000114B1B689A695B69B01AC0090001C01857
:102770001F231D40032C07D8E400A340A540026896
:102780009A431543056070BD043CE400A340A54096
:1027900042689A4315434560F5E7C046920200003F
:1027A0009DDE0D10930200003C570208437802782A
:1027B0001B021A438378C0781B0413430006184396
:1027C00070470000F7B5A54BA54A9A58D10700D429
:1027D0007BE00F22A34FBB683D680093A24BDC6FE8
:1027E0000193009B1440073A141B9C4200D91C0023
:1027F0009E4E002C18D1009B3D60BB60002B0CD17D
:10280000F92201209549D2008B5883438B50B8613F
:10281000FB69002B01D0FB699847F8230122DB00FC
:102820008E49CA50CB58F7BD082C16D12800FFF7A7
:10283000BDFF3060281DFFF7B9FF3060009B2D19E8
:102840001B1B0093019BDC6F0F231C40073B1C1BD1
:10285000009B9C42CDD91C00CBE7012C03D12A78E8
:10286000834B1A60EAE7022C06D12A786B781B02A8
:102870001343804A1360E1E7032C07D16B782A7871
:102880001B0213437B4A1360AA78E9E72800FFF78D
:102890008DFF042CD1D03060052C01D12A79DFE7DF
:1028A000062C02D12A796B79E1E7072C07D16B79E5
:1028B0002A791B0213436F4A1360AA79D0E7281DB7
:1028C000FFF774FF08243060B8E7910700D4A4E054
:1028D0000F22644D68496C69EB6808688C460240B9
:1028E000A24200D922006549654E002A16D1EB604C
:1028F0006C61002C0DD1F92202215848D200835876
:102900008B4383500320A8612B6A002B01D02B6AD4
:102910009847F8236C61DB00022281E7082A19D16D
:102920000868070A18705F70070C000E9F70D87057
:102930000868070A18715F71070C000E9F71D87143
:102940009B18A41A62460F2012680240A242CCD9FA
:102950002200CAE7012A03D14A4800681870EFE74D
:10296000022A04D130681870000A5870E8E7032A78
:1029700007D130681870000A587042480068987093
:10298000DEE7042A08D10868070A18705F70070C90
:10299000000E9F70D870D3E7052A0BD10868070A8C
:1029A00018705F70070C000ED87036489F70006872
:1029B0001871C5E7062A0CD10868070A18705F70FD
:1029C000070C000E9F70D87030681871000A58719B
:1029D000B6E7072A0FD10868070A18705F70070C5E
:1029E000000E9F70D87030681871000A5871254821
:1029F00000689871A4E70A68100A1A705870100CE1
:102A0000120E9870DA700A68100A1A715871100C58
:102A1000120EDA719871082292E704210A4207D057
:102A20000520104A9061F822D20099509B58FAE68E
:102A300008210A4202D00B4A0620F3E71020024286
:102A400006D00721074A9161F822D2009850EDE79D
:102A50002020024200D1E6E6024AF4E700004240AC
:102A6000CC07000010540208080042409800424081
:102A70009000424094004240C4004240D80042408E
:102A8000D4004240D000424010B5294A03212948D1
:102A900000F034FC112203212648FFF74FFE264A9E
:102AA0000421244800F02AFC112204212148FFF7C8
:102AB00045FE224A05211F4800F020FC1122052175
:102AC0001C48FFF73BFE1E4A06211A4800F016FC80
:102AD000112206211748FFF731FE1A4A072115482F
:102AE00000F00CFC112207211248FFF727FE164BBD
:102AF0001B683C331B78022B12D9E2230F20134AA8
:102B00009B00D1588143D150D158213081430800D6
:102B100020210143D1508021D05809060143D150D2
:102B2000FA220B4B92000B490B4801F02BFE10BD13
:102B300068DF0D108005324034DF0D1000DF0D100E
:102B4000CCDE0D109CDF0D103C5702080000264023
:102B500010540208D0DF0D100000424070B50E4C3A
:102B60002368002B13D10D4D0D49280003F064F9A3
:102B70000022AB5E002B06DB1F2213401E3A9A4058
:102B80001300084A13600849084802F079F82368DE
:102B90000133236070BDC04680540208D8910008FC
:102BA000C5270D1000E100E010540208000042406B
:102BB000114A10B51368002B1DD0013B1360002B88
:102BC00019D10E4A13685B005B0813600C4A0021A0
:102BD000535E002B0ADB1F210B401E3999400B006E
:102BE0000849CB67BFF34F8FBFF36F8F91780023F6
:102BF000D05E03F0E9F810BD8054020800004240A6
:102C0000D891000804E100E0024B80001B685B687B
:102C1000C0587047CC54020800487047000042403A
:102C2000004870471054020837B50500FFF72CFF25
:102C3000041E1BD1FFF792FF0D4B0E4A29000E48D0
:102C40001D6002F08DFC041E0ED106216846FFF7C0
:102C50002BFD041E08D106216846FFF7AEFC0028B4
:102C600002D0FFF7CDFC0400FFF7A2FF20003EBD1D
:102C7000CC5402081054020800004240F8B5164C2B
:102C8000431E6268032B23D81800126805F09EFDCE
:102C9000021A1C1E012111700C2253430F48104AC6
:102CA0001D58C0184668077A31002800177200F0D6
:102CB00025FB28003A003100FFF740FD2000FFF718
:102CC000B3FFF8BD0221E6E70421E4E70821E2E7CB
:102CD00001204042F5E7C046C891000880910008F5
:102CE000E0900008024B5B681B689B69586A70475C
:102CF000C8910008024B5B681B689B695868704765
:102D0000C8910008F7B51C4C01932468251E02D019
:102D1000A56B45192D68266D8619AD1B6E1EB54134
:102D2000A668EDB287190F26B44663463E681E407A
:102D3000062EFAD8E3681206C618019B13433360C7
:102D4000002D01D1002912D08022A3685202C3189D
:102D500019681142FCD02368C018084B1B6829333E
:102D60001B781F2B04D8802302681A42FCD1F7BDC0
:102D70000368002BFCD1FAE7185502083C570208FB
:102D800010B51F24084B89061B6829331B789C4209
:102D9000A441130064420C34A34080220B43002161
:102DA000FFF7B0FF10BDC0463C57020810B5040045
:102DB00000220E21FFF7E4FF200000220D21FFF783
:102DC000DFFF200000220C21FFF7DAFF20000022A5
:102DD0000B21FFF7D5FF200000220A21FFF7D0FFCB
:102DE000200000220921FFF7CBFF2000002208214C
:102DF000FFF7C6FF200000220721FFF7C1FF2000D8
:102E000000220621FFF7BCFF200000220521FFF76A
:102E1000B7FF200000220421FFF7B2FF20000022AC
:102E20000321FFF7ADFF200000220221FFF7A8FFDA
:102E3000200000220121FFF7A3FF00222000110043
:102E4000FFF79EFF034B0F211A6820009208FFF73F
:102E500097FF10BD1C550208054B1B6829331A78D3
:102E6000044B1F2A00D9044B044A13607047C04624
:102E70003C570208E0DF0D1034E00D101855020831
:102E80002F4B70B514001A68002A2CD0002909D1E4
:102E9000002C28D1136DC1182A4B1B689C6C00298B
:102EA00021D0A400284B651E9D421CD880231B0105
:102EB0009C423ED00DD880239B009C421DD0802395
:102EC000DB009C4233D080235B009C420BD17F23EC
:102ED00014E080239B019C422DD006D880267023CD
:102EE0007601B4420AD0194820E08023DB019C42DD
:102EF00023D0802600233602F3E77E23114E366866
:102F0000293636781F2E00D8114D2942EBD11F2EBD
:102F100002D9104D1B024351936BA208C3181960CC
:102F20000F21FFF72DFF00200B4B1C6070BD7C2391
:102F3000E4E77823E2E76023E0E74023DEE7C046EA
:102F4000185502083C570208FF7F00000B003200B2
:102F5000FF3F0000881400001C55020810B5040053
:102F6000FFF77AFF174A1849136829331B781F2B7C
:102F700017D8164B2360012009684B6BE3181860C3
:102F8000134B1B68002B07D11368096D9A6C6118ED
:102F900092002000FFF774FF2000FFF707FF0020DA
:102FA00010BD23680B48034023600B680A485B6828
:102FB000E3181860802320681B0603432360032363
:102FC000A360D8E73C5702081855020803000080A8
:102FD0001C550208FFFFFE7F01000200014B186034
:102FE0007047C0463C570208044B1B681A1DD26F3D
:102FF0001B689B181868000E7047C0463C570208B3
:10300000044B1B681A1DD26F1B689B181868000AB6
:10301000C0B270473C5702081D4B98420FD010D8E1
:1030200040282FD005D8002830D0102828D01948A3
:103030001EE0802828D080235B009842F7D11448F6
:1030400016E0154B984214D008D8A0231B069842CE
:103050001CD0124B9842EAD1A0200BE0104B9842B2
:103060000AD0104B984209D00F4B9842DFD10F483D
:103070007047A420C003FBE70D48F9E70D48F7E7C8
:103080000D48F5E70D48F3E70D48F1E70020EFE7BD
:1030900006005200FF005200010000F0090000A0ED
:1030A000040000F0050000F0030000F001005200F1
:1030B00002005200030052000100500002005000C4
:1030C0000500520070B50A4D04002B682E331B78A2
:1030D000834204D8E9210748490002F025FF2B6804
:1030E0001A00AC3210884443186A201870BDC046DC
:1030F0003C5702083CE10D1010B50020FFF7E2FF3D
:103100000A4B1C682300B0331B68C0180368002BEF
:103110000ADB074B1868FFF77FFF012263689A609C
:103120009A68002AFCD110BD0248FCE73C5702080F
:1031300020550208020050000D4B10B51860002801
:1031400004D0FE235B42038000234380094B1B68AD
:103150001A004C321278002A08D04D331B78002B0D
:1031600004D002220449002000F090FB10BDC046AC
:10317000305502083C570208B194000810B50248C7
:10318000FFF7DAFF10BDC0461000000870B5C40597
:103190000500E40D28D103F003F9144B144A1A601A
:1031A0005D609C60DC60134B1B685033197800290C
:1031B00015D0FFF719FF0400FFF722FFFA210134B1
:1031C000013060430C4B0D4C89004443186805F0F6
:1031D00007FB0100200005F003FB094BC11880200C
:1031E00040000AF065F970BD0648FCE7205502086A
:1031F0000001001C3C570208E491000860F59000B3
:10320000980800000600520070B5C40506000D00C5
:10321000E40D2AD1002928D003F0C2F8144B154A36
:103220001A605C609E60DD60134B1B684E3319783A
:10323000002915D0FFF7D8FE0400FFF7E1FEFA21C0
:103240000134013060430D4B0D4C89004443186834
:1032500005F0C6FA0100200005F0C2FA094BC118BA
:10326000802040000AF024F970BD0748FCE7C04602
:1032700020550208000100053C570208E4910008AF
:10328000C0EA2101482600000600520070B5060081
:103290000C001500072903D91449154802F044FE13
:1032A0001F232A009A4303D01249114802F03CFE22
:1032B000114B1B689A695B69B01AC0090001C018FC
:1032C0001F231D40032C07D8E400A340A54002683B
:1032D0009A431543056070BD043CE400A340A5403B
:1032E00042689A4315434560F5E7C04692020000E4
:1032F0009DDE0D10930200003C570208F0B585B02A
:1033000000900D001400002800D137E1002A00D100
:1033100034E1072903D94F21994802F005FE2368BB
:10332000012B03D95021964802F0FEFD0F2362685D
:103330009A4303D05121924802F0F6FD1F22237ACE
:10334000934303D052218E4802F0EEFDE368032B35
:1033500003D953218A4802F0E7FD2369012B03D9E1
:103360005421874802F0E0FD6369012B03D9552100
:10337000834802F0D9FDA369012B03D95621804867
:1033800002F0D2FDE369032B03D957217C4802F0F8
:10339000CBFD236A012B03D95821794802F0C4FDE3
:1033A000636A012B03D95921754802F0BDFDA36A58
:1033B000012B03D95A21724802F0B6FDE36A032BB0
:1033C00003D95B216E4802F0AFFD236B072B03D9B5
:1033D0005C216B4802F0A8FD2668072D03D96949D6
:1033E000694802F0A1FD0122AA400192012E07D9ED
:1033F0006649654802F098FD009B019A9A6004E0D6
:10340000002EF9D1009B019A5A606668072D03D9F6
:103410005F495D4802F088FD0F2332009A4303D0D4
:103420005C49594802F080FD0F215B4FAB000293CD
:103430003B68080079331A78009B0E40D218136855
:10344000A9009C46AB00984063468E4083431E43D0
:103450001660227A29000098FFF718FFE668082D09
:1034600003D94E49484802F05FFD032E03D94C4969
:10347000454802F059FD032108006B0003933B68A7
:103480006F00B8400E40BE4078331A78009B9A18FF
:10349000136883431E4316602669082D03D94149EA
:1034A000394802F041FD012E03D93F49364802F068
:1034B0003BFD019A009BD74301221640AE409B6919
:1034C0003B401E43009B9E616669072D03D9374927
:1034D0002D4802F029FD012E03D935492A4802F072
:1034E00023FD01202C4B06401968AE400B0084469A
:1034F0007A331B78009AD3181A68174037431F6035
:103500000B0062467B331878009B6E001818A36985
:1035100010361340AB40E56902321540B540B24069
:103520002B43019D07682A4397433B4303600220D6
:1035300004257C310A78009B9A18636A11685B0045
:103540000340A06A8000284003436046256A284063
:1035500018250343E06AC00028400343206BFF2482
:10356000400120400343FE20029D80000540AB4007
:103570000020A1430B43136005B0F0BD0D48FBE7ED
:103580006DE10D10310300009DDE0D1032030000CF
:10359000CE030000CF0300003C570208F2060000F3
:1035A000F306000073060000740600000D0400001E
:1035B0000E04000001005A000B4B70B51B6805009B
:1035C000B0331B680C00C3181B68002B0ADA0B0C05
:1035D00004D0B9210548890002F0A6FC0020A4B25D
:1035E0006C6070BD0248FCE73C5702083CE10D10DE
:1035F00001008A00036870B505000C00002B0ADA90
:10360000C2600B0C03D00549054802F08DFC002078
:10361000A4B2AC6070BD0348FCE7C046CA0200001B
:103620003CE10D1001008A0070B505000C1E03D1AD
:10363000A321084802F078FC074B1B68B0331B68D5
:10364000EB181B68002B03DA0020EB68236070BDC9
:103650000248FCE79AE10D103C57020801008A007D
:10366000024B1A68002A00D11860704734550208CE
:10367000F0B5304D1F002B6885B004000291039215
:10368000002B03D1BF212C4802F04EFC2C23FF223B
:103690005C432B683D001C193B0A3F0CA760274F79
:1036A000134063603B68154025602E331B789D42B4
:1036B00004D3E9212248490002F036FC3B681A0095
:1036C000AC32128855431A6A2F33AD1825611B7826
:1036D00065689D4204D3F7211948490002F024FC93
:1036E0003B681E6A2B0080335B01F3186361A3689B
:1036F00001931B0C08D0124F1249380002F014FC41
:103700001149380002F010FC019B6D011B041A0CDA
:1037100013430E4A7519AD182B60039BE361029B9E
:1037200023620023A3610A9B002B01D01B88A38185
:1037300005B0F0BD34550208CAE10D103C5702082F
:103740003CE10D100D0200000E0200000810000008
:10375000F0B5040085B0002803D15C21214802F0B7
:10376000E3FB6368032B03D95E211E4802F0DCFBF8
:10377000E36A002B03D162211A4802F0D5FB236BC8
:10378000002B03D16321174802F0CEFBA36802ADE2
:103790002B80154B22681B68E16A9B8EE0689B18A2
:1037A000AB706368A26A039300952369266A676A0F
:1037B000FFF75EFF00213B000A0000913000FFF799
:1037C00057FF216B280002F037FB0022AB5E002B75
:1037D00006DB1F2213401E3A9A401300034A13606F
:1037E00005B0F0BDCAE10D103C57020800E100E051
:1037F000F7B504000F00151E019304D108211D48E0
:10380000FF3102F091FB1C4E3368002B04D1842160
:103810001848490002F088FB2C235C4332685F4360
:1038200014192669D719002E1FD0BB69002B1ED191
:103830003368002B1BDA01226368140011009C40DE
:103840007B6899402B6809049BB20B432B60019B5A
:10385000F5607B62BA61230C03D00849084802F086
:1038600063FB0020A4B2B460FEBD0648FCE7064836
:10387000FAE7C046CAE10D1034550208CA0200003A
:103880003CE10D1004028A0007028A00F8B5114FCE
:1038900004003B680E001500002B04D1B4210E4833
:1038A000490002F041FB2C2060433C682418236A45
:1038B000002B04D1B6210848490002F035FBE3692A
:1038C000AB4204D90020236AAD00EE50F8BD034896
:1038D000FCE7C04634550208CAE10D100A028A000E
:1038E000002373B504000193984204D1DC212C48D5
:1038F000FF3102F019FB2369002B04D1EE21284887
:10390000490002F011FB6369002B04D1DE21244839
:10391000FF3102F009FB236A002B04D1EF2120487C
:10392000490002F001FB6269D5682B0C22D01B0410
:10393000136013681B4B20691B68B0331B68C318E6
:103940001B68002B16DA01A9FFF76EFE0026B042B5
:103950000CD10198E26903681E0CDBB29A4205D9CA
:10396000226A9B009B58002B00D0984731002069A9
:10397000FFF722FEADB2002D09D063691D6000255E
:103980001B68636AAB4205D098476562A5616369AD
:103990001B6873BDA36A002BF8D09847F6E7C046B2
:1039A000CAE10D103C57020870B5084C05002368A9
:1039B000002B04D1BC210648FF3102F0B5FA2C20BF
:1039C000454320684019FFF78BFF70BD345502084E
:1039D000CAE10D1070B50A4D04002B682E331B7818
:1039E000834204D8E9210748490002F09DFA2B6878
:1039F0001A00AC3210884443186A201870BDC046C3
:103A00003C5702083CE10D10F8B5174B0D001B6840
:103A10002E331B78834225D9002923D01F240B681D
:103A20001C401FD1FFF7D6FF07002B680F4EDA08A6
:103A300021003060686805F043FA21003800FFF784
:103A4000BBFD21002A003068FFF7D4FD041E07D11A
:103A500001003068FFF7B0FD03002000002B00D00C
:103A60000348F8BD0348FCE73C57020838550208F4
:103A700001018A0003018A0010B50C00002A07D159
:103A800000290DD1FFF7A6FF064B1860200010BDDE
:103A9000002905D004490C604A60FFF7B5FFF6E73E
:103AA0000248F4E7385502081400000803018A00B0
:103AB000F7B5184F04003B680191DE683368834214
:103AC00026D90025A94202D104F03BFE0500386842
:103AD0000368002B1ADA1F22012322409340640955
:103AE0007268A4001419226813420DD09A43226010
:103AF00000240021FFF760FD019B002B02D128006C
:103B000004F023FE2000FEBD034CF2E7034CF3E774
:103B1000034CF7E7385502080201880003018800CA
:103B200004018A000A4B1B68DB681A6882420DD9BF
:103B300059681F23420918401E3B83409200505889
:103B40001840431E9841034BC01870470248FCE7D9
:103B5000385502080001880004018A0070B5154E2E
:103B6000040033680D005B6CC340DB0703D4A8215D
:103B7000114802F0D9F90F2D03D9A9210E4802F0FE
:103B8000D3F9F0222B041203290013400F22114015
:103B90000B433168A402096964188021C90163508C
:103BA00060581040401B431E9841044B404218404F
:103BB00070BDC0463C570208FBE10D100300C20077
:103BC00070B504000D00002804D1BD21244849002F
:103BD00002F0AAF96B89DB0B04D07C212048FF316D
:103BE00002F0A2F90222AB799343012B04D0BE214B
:103BF0001B48490002F098F90222EB799343012B0C
:103C000004D07E211648FF3102F08EF96A897F23A5
:103C10001100994322D10721AB7952020B40134383
:103C20006A7A313192071343EA79D2000A4013438A
:103C30000122297A4A40920113431A0009490A4095
:103C40009A420BD16262606A0840801A434258412E
:103C5000054B40421840054BC01870BD0448FCE7B6
:103C6000FBE10D10DBFEFFE0FDFF3DFF0300C200A6
:103C70000100C20070B504000D00002804D1E1214C
:103C80002E48490002F050F96B89DB0B04D0C421A7
:103C90002A48FF3102F048F9AB79072B04D9E22119
:103CA0002648490002F040F9EB79072B04D9C621D8
:103CB0002248FF3102F038F92B79073B182B04D941
:103CC000E3211E48490002F02FF96B897F22190079
:103CD00091430A1E2ED12968FF3291430A00697967
:103CE000A8790A4307215B02084018436B7A3131F7
:103CF0009B071843EB79DB000B4018430123297A1B
:103D00004B40F8219B0118432B7949051B060B40BA
:103D1000034363602260216891420DD16068084AC4
:103D20001040C01A43425841064B40421840064BCF
:103D3000C01870BD0548FCE70348FAE7FBE10D1029
:103D4000FFFEFFFFFDFF3DFF0300C2000100C200B8
:103D500010B5041E03D10749074802F0E5F8802397
:103D6000626A1B0613436362606A044BC00F01382A
:103D7000184010BDFF010000FBE10D100300C20060
:103D800010B5041E03D10749074802F0CDF880237F
:103D900062681B06134363606068044BC00F013800
:103DA000184010BD4F020000FBE10D100300C200DF
:103DB00070B504000D00002804D1A5212348C900D6
:103DC00002F0B2F80222AB799343012B03D02049D1
:103DD0001E4802F0A9F80222EB799343012B03D08D
:103DE0001C491A4802F0A0F81B4B1B682C331B78A7
:103DF0001F2B27D86A897F231100994324D10721DB
:103E0000AB7952020B4013436A7A31319207134364
:103E1000EA79D2000A4013430122297A4A409201EA
:103E200013431A000D490A409A420DD16262606A3A
:103E30000840801A43425841094B40421840094B00
:103E4000C01870BD0848FCE70848FAE7FBE10D1010
:103E5000290500002A0500003C570208DBFEFFE0B0
:103E6000FDFF3DFF0300C2000200C2000100C200CE
:103E700070B505000C00002803D12F492F4802F02F
:103E800053F8A379032B03D92D492C4802F04CF8A1
:103E9000E379032B04D9AF212848C90002F044F884
:103EA0002379073B182B03D92649244802F03CF814
:103EB000254B1B682C331B781F2B37D862897F2337
:103EC0001100994334D10721A37952020B401343C7
:103ED000627A313192071343E279D2000A401343E8
:103EE0000122217A4A40F82192011343227949059F
:103EF00012060A4013431A0014490A409A4217D185
:103F0000FF2320689843030060796A6003432B60B5
:103F1000286898420ED168680840801A4342584188
:103F20000B4B404218400B4BC01870BD0A48FCE7D1
:103F30000A48FAE70748F8E776050000FBE10D10AC
:103F400077050000790500003C570208DBFEFFFF03
:103F5000FDFF3DFF0300C2000200C2000100C200DD
:103F600010B5041E03D10B490B4801F0DDFF0B4BCC
:103F70001B682C331B781F2B0AD88023626A1B0610
:103F800013436362606A064BC00F0138184010BDCE
:103F90000448FCE7BE050000FBE10D103C57020899
:103FA0000300C2000200C20010B5041E03D10B4979
:103FB0000B4801F0B9FF0B4B1B682C331B781F2BF0
:103FC0000AD8802362681B06134363606068064B4F
:103FD000C00F0138184010BD0448FCE71706000068
:103FE000FBE10D103C5702080300C2000200C200B2
:103FF00070B504000D00002803D12249224801F0C9
:1040000093FF2B78032B03D920491F4801F08CFF25
:104010006B78032B03D91E491B4801F085FF1D4B0C
:104020001B682C331B781F2B27D8AA887F231100ED
:10403000994324D107212B7852020B401343EA788D
:104040003131920713436A78D2000A4013430122A8
:10405000A9784A40920113431A000F490A409A4234
:104060000DD16262606A0840801A434258410B4B8E
:10407000404218400A4BC01870BD0A48FCE70A4885
:10408000FAE7C04657080000FBE10D105808000091
:10409000590800003C570208DBFEFFE0FDFF3DFF32
:1040A0000300C2000200C2000100C20070B504009B
:1040B0000D00002803D12249224801F035FF2B785A
:1040C000032B03D920491F4801F02EFF6B78032BE7
:1040D00003D91E491B4801F027FF1D4B1B682C33D9
:1040E0001B781F2B27D8AA887F231100994324D13E
:1040F00007212B7852020B401343EA7831319207A3
:1041000013436A78D2000A4013430122A9784A4037
:10411000920113431A000F490A409A420DD162607E
:1041200060680840801A434258410B4B4042184097
:104130000A4BC01870BD0A48FCE70A48FAE7C046B7
:10414000A8080000FBE10D10A9080000AA08000063
:104150003C570208DBFEFFE0FDFF3DFF0300C2000D
:104160000200C2000100C20010B5041E03D10B49B9
:104170000B4801F0D9FE0B4B1B682C331B781F2B0F
:104180000AD88023626A1B0613436362606A064B87
:10419000C00F0138184010BD0448FCE7EC080000CF
:1041A000FBE10D103C5702080300C2000200C200F0
:1041B00010B5041E03D10B490B4801F0B5FE0B4BA3
:1041C0001B682C331B781F2B0AD8802362681B06C0
:1041D000134363606068064BC00F0138184010BD80
:1041E0000448FCE745090000FBE10D103C570208BC
:1041F0000300C2000200C20070B504000D000028D8
:1042000003D12249224801F08FFE2B78032B03D9DA
:1042100020491F4801F088FE6B78032B03D91E4903
:104220001B4801F081FE1D4B1B682C331B781F2B94
:1042300027D8AA887F231100994324D107212B78FE
:1042400052020B401343EA783131920713436A78E4
:10425000D2000A4013430122A9784A409201134335
:104260001A000F490A409A420DD16262606A084002
:10427000801A434258410B4B404218400A4BC01829
:1042800070BD0A48FCE70A48FAE7C046A9090000E1
:10429000FBE10D10AA090000AB0900003C57020821
:1042A000DBFEFFE0FDFF3DFF0300C2000200C20095
:1042B0000100C20070B504000D00002803D122499E
:1042C000224801F031FE2B78032B03D920491F48E7
:1042D00001F02AFE6B78032B03D91E491B4801F01D
:1042E00023FE1D4B1B682C331B781F2B27D8AA8855
:1042F0007F231100994324D107212B7852020B40D0
:104300001343EA783131920713436A78D2000A40A6
:1043100013430122A9784A40920113431A000F491E
:104320000A409A420DD1626060680840801A434298
:1043300058410B4B404218400A4BC01870BD0A4808
:10434000FCE70A48FAE7C046FA090000FBE10D1055
:10435000FB090000FC0900003C570208DBFEFFE0FF
:10436000FDFF3DFF0300C2000200C2000100C200C9
:10437000094B1B682C331B781F2B0AD88023426AF9
:104380001B0613434362406A044BC00F01381840B8
:1043900070470348FCE7C0463C5702080300C200D0
:1043A0000200C200094B1B682C331B781F2B0AD854
:1043B000802342681B06134343604068044BC00FD0
:1043C0000138184070470348FCE7C0463C570208D4
:1043D0000300C2000200C200036810B5020080247E
:1043E0001B0500D4403C82239B00D3580020DB05F2
:1043F000DB0DA34203D090239B00D150013010BDB0
:10440000036880201B0500D440387047F0B50500D4
:1044100085B00C001600002800D177E1002900D1FA
:1044200074E10B78022B03D94921B94801F07CFDD6
:10443000637B023B062B03D94A21B54801F074FD8A
:10444000A37B002B06D0023B012B03D94B21B048A4
:1044500001F06AFDA31CDB7F012B03D94C21AC4882
:1044600001F062FD230028331B78012B03D94D2175
:10447000A74801F059FD2378012B00D93AE1082320
:104480006268083A93429B415B42002B03D04F2164
:104490009F4801F049FDA368053B042B03D9502137
:1044A0009B4801F041FD6369FF2B03D951219848D6
:1044B00001F03AFDA369FF2B03D95221944801F082
:1044C00033FDA37C002B0CD02378002B05D1A368EF
:1044D000092B02D1A37B002B03D054218C4801F07F
:1044E00023FD8C4B626B1A4203D05621884801F0A1
:1044F0001BFD894BE26B1A4203D05721844801F01F
:1045000013FD2378022B03D10022A37F934201D015
:1045100063685A1E237F0021581E83411804082314
:10452000A768BB42494107331A4080239B041343C9
:104530000343C9020B432B602800276BFFF760FF82
:10454000874203D36C21724801F0EEFC2800A76B70
:10455000FFF756FF874203D36D216D4801F0E4FC5D
:104560002800676AFFF74CFF874203D36E21684833
:1045700001F0DAFCC022217892040B0613402B6470
:10458000607FE76A431E984183010093A37C072064
:104590005A1E9341227C9B020193531E9A4113029F
:1045A000627C0293531E9A415302F02203937B1EB6
:1045B00012031B041340627B013A02401343A27BA7
:1045C0002930120102401A43009B1A43019B1A43EF
:1045D000029B1A43039B1A43AA64207B431E984103
:1045E000E37B0002002B00D08DE002394B425941A1
:1045F0004B02A268511E0F2211400143C0201943F3
:1046000080002950FF21A36909041B040B40616944
:10461000C9B20B43C42189006B502B581A40033296
:10462000974201D3102F03D98421394801F07CFC33
:104630000021E37F22788B4203D0531E59424B4125
:10464000190207203027637B013A013B0340A07B1E
:104650000001384003430B436B64237B0F20591E3A
:104660008B411902A368013B03400B4351424A416D
:10467000120413438022FF219200AB50236B0532BA
:104680000B40FF32AB50631CDB7F5F1EBB415F06FC
:10469000A31CDB7F013B584243411806230028330B
:1046A0001B78013B5A4253411A04636A0B403B4357
:1046B000034313432B65A36B626B194081239B005B
:1046C000E950164B30001340154AAB50E36B154AC6
:1046D0001340154AAB5000239E4209D01800134ADC
:1046E0007360B3603360F36033623363F3627263A9
:1046F00005B0F0BD0023A27F9A4200D1C5E66368F1
:104700005A1E0623BEE680239B0072E70848EFE7A7
:1047100028E20D1092F4FFFF8CF8FFFF6D0B0000F4
:10472000C80F000073070000880F0000EFCDAB003A
:104730000160AA0003685B005B080360002904D0E5
:1047400000234B600B600B62CB627047036810B5AF
:104750000400002B07D0012001F0DCFB2368013BA3
:104760002360002B01D0002010BD0148FCE7C046AB
:104770000200B200030A08704B70030C000E8B702D
:10478000C870704770B504000D00002841D00029A2
:104790003FD0002B3DD05A62F9220321D20083582A
:1047A0008B4383502B68DBB2012B03D957311A4856
:1047B00001F0BAFBAB68DBB2032B03D95B211648CF
:1047C00001F0B2FB6B68072B03D95C21124801F0A2
:1047D000ABFBEB68DBB2012B03D95D210E4801F086
:1047E000A3FBC022E021AB6892011B0313406A685F
:1047F000C90212040A4013430122296800200A401A
:1048000080211343EA68490412060A4013432360D7
:1048100070BD0248FCE7C04659E20D100400B2002A
:1048200070B54E1EF3B204001500012B07D9042900
:1048300025D0082927D0E521154801F075FB032D67
:1048400003D9E621124801F06FFB072E14D830007F
:1048500003F0BCFF041312171212121B80231B015A
:10486000E418002C08D0C0222D04920223681540C1
:10487000084A13401D43256070BD8823EFE7032AD3
:10488000DFD89023EBE7032ADBD89823E7E7C0467D
:1048900059E20D10FFFFFCFFF0B5160089B005933B
:1048A0000EAB04CB01901B780291049310AB1D78E2
:1048B000331FDBB20392129CFA2B04D83E213B48F3
:1048C000FF3101F031FB049B043BDBB2FA2B04D82F
:1048D0009F213648490001F027FB6B1E012B08D9A8
:1048E000FB222B1F134204D040213048FF3101F03E
:1048F0001BFB119B2D02DF07039B3604002B46D0C8
:10490000059B002B04D1A0212848490001F00CFB95
:10491000049BFF2B04D142212448FF3101F004FB0A
:10492000F0231B011D40636A0793C0239B021E40B6
:10493000029B2B4333433E0C00270024C0221F431D
:10494000019B20001F650727049B92021B04134054
:104950001D43039B9C4202D2154B984201D109B0E2
:10496000F0BD019B5B6C3B40032B0CD8059B03996E
:104970001B5D01342B4332008C4200D200221343D2
:10498000019AE4B2136507A8FFF7E0FEE1E7F02320
:104990001B011D40636A3F0C0793C0239B021E400E
:1049A000029B2B4333433E00C7E7C04659E20D103C
:1049B0000200B200F7B50093043BDBB205000F0024
:1049C0001600099CFA2B04D8AA211948FF3101F0DE
:1049D000ABFA731E0193174B721E9A4204D9D5216C
:1049E0001348490001F0A0FA07226B6C1340032B17
:1049F0001CD8C022009B92021B0413406A468021EF
:104A00009288C9020A4313432B65381E0DD0089BB8
:104A10002760F922A660E36102230020A361D2008F
:104A2000A958013B0B436660AB50FEBD0248FCE752
:104A300059E20D10FFFF00000100B200F7B501932D
:104A4000043BDBB205000F001600099CFA2B03D8CB
:104A50001549164801F068FA002E21D007226B6C28
:104A60001340032B1ED88023C021721E1B0392B259
:104A70001A43019B89021B040B4013432B65381E0C
:104A80000DD0089BE760F9226661236204230020B1
:104A9000A361D200A958023B0B432661AB50FEBD77
:104AA0000348FCE70348FAE76D02000059E20D10E5
:104AB0000400B2000100B200F0B51F00043BDBB2FD
:104AC0008FB006000D001400FA2B03D85A495B483A
:104AD00001F02AFA002C00D1AAE00722736C1340DF
:104AE000032B00D9A6E08023621E92B21B0313435E
:104AF000C0223F04920217401F433765281E0ED084
:104B0000149B00205B6A07950393042309940C907F
:104B10000A930A9B042B02D1494B984201D10FB052
:104B2000F0BD099B079C00933300C43301931D68BB
:104B30000F231D40009B9D4200D91D00002D17D161
:104B4000009B07940993002B0CD1F922022103202A
:104B5000D200B3588B43B3500A900C9B002B01D06A
:104B60000C9B9847009B03A80993FFF7EFFDD0E744
:104B7000082D0AD13700D83738682100FFF7FAFD31
:104B80003868211DFFF7F6FD05E0012D09D133003E
:104B9000D0331B682370009B64195B1B0093019B3F
:104BA000C5E7022D06D13300D4331B6823701B0ADE
:104BB0006370F0E7032D0AD13300D4331B682370F0
:104BC0001B0A63703300D0331B68A370E3E7370020
:104BD000D83738682100042DD4D0052D06D1FFF731
:104BE000C9FD3300D0331B682371D4E7062D08D1EB
:104BF000FFF7C0FD3300D4331B6823711B0A6371B8
:104C0000C9E7072D0CD1FFF7B5FD3300D4331B687E
:104C100023711B0A63713300D0331B68A371BAE799
:104C2000FFF7A8FD3868211DFFF7A4FD0825B2E7AE
:104C3000044874E7044872E7CA02000059E20D1004
:104C40000200B2000400B2000100B20000290CD042
:104C50000722436C1340032B09D8C023013989B2C2
:104C60001B0319430165002070470248FCE7024816
:104C7000FAE7C0460400B2000100B200886970473C
:104C800000230B604B608B600B61CB604B618B61D1
:104C9000802302681B061343036070470268436960
:104CA00070B51D20042A21D100200125053A1A6083
:104CB0004A78D206120F2C00160084402640B442D7
:104CC00006D001300528F6D1FF2200201A7170BDF0
:104CD0000428F9D009180A7940001A601D30002212
:104CE0001A715A71F3E72328EED002300A5CFF2ACA
:104CF000F9D01A60F3E70000F8B505000E001700C0
:104D00000D4C39002800FFF7B9FF864202D0013C64
:104D1000002C0CD139002800FFF7B0FF301A4342B5
:104D20005841064B40421840054BC018F8BD0120C1
:104D300001F0F0F8E5E7C046E9030000FEFF4DFF93
:104D40000200B200F0B500270C0087B00E9D0600EF
:104D500010000A7909680495039702936379C9B230
:104D600001930323009303003000FFF795FDB84241
:104D700016D121693000FFF769FFB84210D1237DB9
:104D80000C9A009001950D993000FFF757FEB8423C
:104D900006D16C6A0A4BAA69032A01D0984201D154
:104DA00007B0F0BD00208442F5D00130013C01F095
:104DB000B1F860426041024B40421840EAE7C04609
:104DC0000200B200F7B500258C79C0B20134E400CE
:104DD00001942F0008248446085D84450BD10E19E8
:104DE000F079FF2807D17078B84204D3B678012E45
:104DF00001D107002500019808348442ECD9002D28
:104E00000BD04919087990704879507088791070E2
:104E10000020CA7892001A60FEBD0148FCE7C04637
:104E20008000B20030B58B6987B0DB680C001500DC
:104E3000002B0FD019681A79012303932378C9B284
:104E40000293FF230193002304950093FFF724FDB1
:104E500007B030BD0048FBE78000B20070B5160017
:104E600000220400080086B00A9D039204951900F0
:104E7000037800920293FF23200001931300FFF7B1
:104E80000BFD002806D1030000950122310020000F
:104E9000FFF712FE06B070BD30B50F24012385B0B8
:104EA0008D696C442370AB6A002B0BD01B68009299
:104EB000DBB22200FFF7D2FF002803D12378AA6BD0
:104EC000134023702078431E9841C0B205B030BD16
:104ED000F0B50F0087B0151E15D08E697469002CCF
:104EE00013D02279FF2A10D0216804930123039361
:104EF0003B78019202933368C9B200932B00FFF70D
:104F0000CBFC07B0F0BD0248FBE70248F9E7C0461A
:104F10000400B2008000B200F0B51F008B6989B0B8
:104F20001C6A0500002C47D0002A47D0586A0E9E04
:104F3000B04243D34869C6B24869002800D10E7810
:104F400021682079C9B20791109902960491002135
:104F50000391617901911B68079900931300020086
:104F60002800FFF799FC002824D1A1684B1C12D11E
:104F70002169002904D02800FFF768FE002819D114
:104F8000109A237D01920F9A3900009228000E9A00
:104F9000FFF710FD0EE0109B227B0493FF2303908C
:104FA000019300900300C9B202962800FFF774FC39
:104FB0000028DDD009B0F0BD0148FBE70148F9E762
:104FC0008000B2000400B200F0B51F008B6989B008
:104FD0009C680500002C43D0002A43D04869C6B223
:104FE0004869002800D10E7821682079C9B207915C
:104FF00010990296049100210391617901911B6837
:1050000007990093130002002800FFF745FC0028D1
:1050100024D1A1684B1C12D12169002904D0280099
:10502000FFF714FE002819D1109A237D01920F9AE0
:105030003900009228000E9AFFF700FD0EE0109B49
:10504000227B0493FF230390019300900300C9B2D5
:1050500002962800FFF720FC0028DDD009B0F0BD43
:105060000148FBE70148F9E78000B2000400B20004
:10507000F0B5BFB006900D0007921F00002903D1C4
:10508000C249C34800F050FF002308AA1380937060
:1050900009AA138093706A6B0CAC05921A001A551A
:1050A0000133642BFBD13A0007990698FFF7B8FB50
:1050B000059B002B04D1B74B049304983FB0F0BD7F
:1050C000449B01940293382308AA00930599079BF7
:1050D0000698FFF737FE04900028EED1A379062B3F
:1050E000E9D82378532BE6D16378462BE3D1A37814
:1050F000442BE0D1E378502BDDD12379052BDAD98D
:105100006379012BD7D100240AAB09AA0CA9A248C4
:105110000A94FFF757FEFF200BAB08AA0CA9000268
:105120000B94FFF74FFE0490A042C6D1AB68A34298
:1051300003D19A49964800F0F7FEEB68002B03D1A3
:105140009749934800F0F0FE2B69002B03D1954955
:105150008F4800F0E9FE6B69002B03D192498C481F
:1051600000F0E2FEEB69002B03D19049884800F083
:10517000DBFE2B6A002B03D18D49854800F0D4FE5D
:10518000AB6A002B03D18B49814800F0CDFE449BD4
:105190000CAC02930B9B08AA00930194079B059902
:1051A0000698FFF7CFFDA37804905B079B0F0022C2
:1051B000032B01D0804AD25C0D9B2A60002B36DB8A
:1051C0000133DB08012211006B6016AB1B78042051
:1051D0001B09994006236962E9680B6000230B7183
:1051E00029690B7108600521AA63AA6A1371EB6A29
:1051F0001160002B03D17149654800F095FE2B6BBF
:10520000002B03D16E49624800F08EFE00222B6B0A
:1052100004A91A715A32521810784006400F052816
:1052200010D8012203F0D2FA086F757B6F6F8022CD
:10523000033B12061343C5E701225242EA631A6098
:10524000EB6A1A606022EB691F241A6000221A714F
:105250000F23159A16991A40013250000A0E224067
:10526000013242434800800F564E4000805B0B40A5
:1052700042436A640A0A14404022890400D4383A3E
:105280000221013301345B00634353430CAEAB6432
:10529000AC68B3788F43012F48D020221A405FD0EA
:1052A000737A6171236000232371337A5B0953D1D0
:1052B000013BA3601F220CAB1B7A0527134023611F
:1052C000022323752B68042B00D038E1449B09AAE4
:1052D000029325AB01930A9B059900930698079BBF
:1052E000FFF730FD049003000120002B00D0F1E017
:1052F000791E259B042900D992E0080003F066FA84
:10530000A6A29E9A8C000221E9631A60EB6A3522FC
:1053100097E74021E9631A60EB6A052291E7802252
:10532000EA63423A1A60EB6A01328AE710221A40B5
:1053300051D0F37B6771236000232371B37B5B093A
:1053400045D1013BA3601F220CAB9B7B032713407D
:10535000236101232375B5E7FF232173A360A9E728
:10536000FF275B06AED5F37A227123606271B37AB0
:105370005B0929D1013BA3601F220CAB9B7A042758
:1053800013402361022323759CE7C046AB0900004C
:105390009AE20D100500B20084FF0000E40900004D
:1053A000E5090000E6090000E7090000E80900003F
:1053B000E9090000EA09000086E20D10C8080000B3
:1053C000C908000092E20D10A7602273D4E7FF2302
:1053D0002773A360B7E73B4015D0737B227123602E
:1053E0006271337B5B090AD1013BA3601F220CABC6
:1053F0001B7B0227134023610123237562E7FF23F0
:105400002273A360F2E703222260043A23716371DE
:10541000A2602361237555E79B0601D5EC23236029
:105420002B6A259A04294ED8080003F0CFF9797920
:1054300079311300DB06F3D56C23F0E71B07EFD5BA
:10544000BC23ECE75B07EBD53C23E8E79B07E7D5FC
:105450000C23E4E780240120640014404042002C27
:105460000AD03E2200211A603C3A19715A719860A4
:105470001A7319611A7526E08021114018D0342260
:105480001C711A605C7198601C731C61323AF1E700
:105490008021012011404042002909D034221A60A5
:1054A000002298601A715A711A731A610232E1E788
:1054B000402422402CD0122219711A605971986030
:1054C00019731961197525A92800FFF7E7FB002852
:1054D00000D1F2E501233618013E32781B389340A3
:1054E000AB610723159A4008584313000738C3409F
:1054F0000F210A40D9050132C90E013152005B0566
:105500004A439B0F15495B005B5A5A432A64D4E512
:1055100002211A7119605A7198601A731A61A9E709
:1055200040210A404139002A06D012221A60002286
:105530001A715A719960F0E702201860F8E70222A8
:105540002B6A01211A600022494299601A715A712E
:105550001A731A611A750CA9B6E7C0468AE20D10D3
:10556000F0B589B0061E079200D12DE1002900D1C7
:105570002AE14B680593002B00D125E1002A00D1D8
:1055800022E10B680693002B00D11DE10023039359
:105590000493039B059A9B00D458002C4FD023788A
:1055A0005A1E012A08D9FB22043B134204D0992138
:1055B0008648490000F0B8FC237A032B04D9342133
:1055C0008248FF3100F0B0FCA369002B04D19A217E
:1055D0007E48490000F0A8FCA3691B68013B032B2F
:1055E00004D936217948FF3100F09EFC2278501E04
:1055F000072800D9E6E003F0E9F80432E534E5E5F0
:10560000E5368023C0201B01F518237A80021F0491
:10561000296838406E4F3940014329606168490765
:1056200023D5079930000091A169FFF721FD0028DB
:105630001BD00823039A9340049A1A430492039BB5
:1056400001330393039A069B9342A2D10020049B4B
:10565000002B02D0B2200004184309B0F0BD88230B
:10566000D0E79023CEE79823CCE763689B07E6D585
:105670002169E06803F03AF9002904D05221534827
:10568000FF3100F051FC2369524A934202D95A1E5D
:10569000134204D0A9214D48490000F045FCFF27E2
:1056A000E168A069B9438268036AA9602169494237
:1056B000B943E96001680320013901406069471E70
:1056C000B841000201432962002A37D01068002146
:1056D000471C0CD0117909048C46C0216746890209
:1056E0003940FF2707408020000607433943C02088
:1056F00029645179800209049768014069648446ED
:105700000021781C08D06046117BFFB209040840D4
:1057100080210906394301430020A96411698142AF
:1057200005D01F3001390140802000060843C02108
:10573000E864127D890212040A402A65002B32D0E7
:1057400019680022481C09D0C0201A79800212046E
:1057500002408020C9B2000601430A43C0202A66E5
:105760005A7980021204996802406A6600224F1C2E
:1057700007D01A7BC9B21204024080200006014300
:105780000A430021AA661A698A4205D01F31013AEC
:105790000A40802109061143C022E9661B7D92025E
:1057A0001B0413402B67C0220221237A92021B04A0
:1057B00013406268FF311140802212060A431343EE
:1057C0002B603CE7044842E7034846E79AE20D10A5
:1057D000FFFFFCFFFFFF00000400B200F7B50F0061
:1057E000009015000193960800D101362C00B542B7
:1057F00000D934002D1B0C4B20009C4200D918000E
:10580000241A80B200F086FB002CF4D1019A3900F2
:105810000098FFF741FB002803D0002DE6D1034894
:10582000FEBD2000FCE7C046FFFF00000200B20002
:10583000F0B51F00002389B005900D0016000793F6
:10584000994203D11E491F4800F06EFB002F03D17F
:105850001D491C4800F068FBAA690E9B5268F318AA
:105860001A48934227D909B0F0BD80230E9C5B02F1
:105870009C4200D91C003100AB6907AA1B68013BA0
:105880009954090A002BFAD10F99019302910094BF
:105890003B0029000598FFF797FB0028E3D10F9AFA
:1058A00003210598FFF728FA0028DCD10E9B361952
:1058B0001B1B0E933F190E9B002BD6D1D3E7C0467E
:1058C0006D0B00009AE20D106E0B00000400B20098
:1058D000F0B51F00002389B004900C001500079359
:1058E000994203D12B492C4800F01EFB002F04D114
:1058F000BC212948090100F017FBA2690E9B5168E1
:10590000EB188B4243D8536A244805930E9B002B17
:1059100001D109B0F0BD0599280002F0E7FF0E9B08
:10592000059A5B180E9E934200D3561A0F9A2100D7
:105930000498FFF777FA0028EBD12900A36907AA9A
:105940001B68013B9954090A002BFAD10F99019366
:10595000029100963B0021000498FFF7DDFA002831
:10596000D7D10F9A01210498FFF7C6F90028D0D1AA
:10597000A2690F9B926C21000498FFF72FFF00286B
:10598000C7D10E9BBF199B1BAD190E93BEE70348F1
:10599000BFE7C046BF0B00009AE20D100400B20042
:1059A000F0B51D00002385B001900C001600039394
:1059B000994203D12649274800F0B6FAA36977191E
:1059C0005A68974242D89B6930001900009302F050
:1059D0008DFF00293AD10099380002F087FF1E4858
:1059E000002930D005B0F0BD0099300002F07EFFF4
:1059F000009A6B182F00934200D3571A0A9A21007D
:105A00000198FFF70FFA0028ECD13100A36903AA2F
:105A10001B68013B9954090A002BFAD10A9B21000B
:105A20000198FFF755FA0028DCD1A36921001A6C10
:105A3000FA239B005A4301980A9BFFF7CFFEF61901
:105A4000ED1B0028CED1002DCED1CBE70248C9E70F
:105A50001F0C00009AE20D100400B200A6220549B6
:105A6000D2008B580220DB439B0702D001238858C9
:105A7000184070470000264010B5094B441E1B68B3
:105A80003B331B78A34203D80649074800F04CFA81
:105A90008134064BFF34A400E058C00F10BDC0464F
:105AA0003C570208EF030000FEE20D100000264004
:105AB00010B50F4B04001B683A331B78834204D89F
:105AC0006E210C48FF3100F02FFA0B4BA400E418B4
:105AD000D0239B00E05807231840042807D1C02397
