:020000041006E4
:1000000000C00208A37E06100D000000017F06104C
:1000100000000000000000000000000000000000E0
:10002000000000000000000000000000FD7E06103F
:100030000000000000000000FD7E0610FD7E06109E
:10004000FD7E0610FD7E0610FD7E0610FD7E06106C
:10005000FD7E0610FD7E0610FD7E0610FD7E06105C
:10006000FD7E0610FD7E0610FD7E0610FD7E06104C
:10007000FD7E0610FD7E0610FD7E0610FD7E06103C
:1000800010B5064C2378002B07D1054B002B02D06E
:10009000044800E000BF0123237010BD94980008BD
:1000A0000000000074DB0610044B10B5002B03D0D9
:1000B0000349044800E000BF10BDC0460000000036
:1000C0009898000874DB061003000120042B05D06B
:1000D000052B04D101390800411E884170475B1A85
:1000E00058425841FAE7000070B50C00816886B0AC
:1000F0001023103902AA050001F088FF012300280F
:100100000FDB984210D1023323706B46A968DE1DC5
:10011000283901233200280001F078FF00280DDA89
:100120000123180006B070BD10221E4902A808F075
:1001300003FA431E984101302070E6E70F2332781E
:100140001340120963702271012801D0042B03D9D6
:100150000123637000232371A968A21C20390123A5
:10016000280001F053FF0028DADB0323012804D024
:10017000A378013B5A1E93410133A370A968E21C86
:1001800018390123280001F041FF0028C8DB0323B0
:10019000012804D0E378013B5A1E93410133E370F8
:1001A0000023BEE778CB061037B50D00C0B201A919
:1001B00001F0ECFD0124002807D129000198FFF788
:1001C00093FF0400019801F0F9FD20003EBD0000FE
:1001D000F0B5040089B00120002C03D00430012CBC
:1001E00000D0FA3004A9FFF7DFFF00283AD102302F
:1001F000002C03D00430012C00D0F93006AD2900CA
:10020000FFF7D2FF00282DD1040004AB1B781A4E53
:1002100000932B78019304ABDB780293EB78039384
:1002200004AB9F78A05D00993519FFF74DFF0028BA
:100230001CD068780199FFF747FF002816D0AB78EB
:10024000042B02D0029A934210D1EB78042B02D0F7
:10025000039A93420AD12B79042B05D16879831E26
:10026000022B07D9FF2005E0BB42F7D00634122C41
:10027000D8D1012009B0F0BD88CB0610F7B5A5276D
:10028000582316000191FF00C25D00215A4333003C
:100290008218040001F0C0FB051E0FD15823E25D57
:1002A00001215A432C32A2183300200001F0B4FB84
:1002B000002803D0019B002B00D005002800FEBDC4
:1002C00073B50E0000210500009101F06DFE694636
:1002D000C0B201F05BFD012400280BD101AA0099F6
:1002E000300001F0ADF9041E04D10199280001F09D
:1002F00086FB0400009801F061FD200076BD37B553
:10030000C02292000192A522D200825C0D0003005F
:100310000121002A03D0FE31012A00D1FA39A94275
:100320000ED1582454431A19526A283401A92800BE
:100330001C1901F085FE002801D1019B23603EBD00
:100340000221002A03D00431012A00D0F931012012
:10035000A942F4D1582454431A19126D5434E5E7D4
:10036000F0B5A5278DB00992FF000400C05D0E0016
:1003700001F01AFE0AA9C0B201F008FD002800D061
:100380009CE02C257543E35D310018000793089528
:1003900001F00AFE0BA9C0B201F0F8FC002816D04B
:1003A0002C235822079973434A439B18E1180A6982
:1003B000D0061CD443481B59834220D0002E16D0AF
:1003C0000A980021826801F095FD34004EE00B98F8
:1003D00001F004FE05000B9801F0F0FC5823E25DEB
:1003E0005343089A9B18E3181A1D9A4201D101241D
:1003F0003CE00133591E0978A942F6D0D0E7CB681A
:100400000989C8438342D9D80A9F5B18B9688B42CF
:10041000D4D2A523DB00E35C397806930698022347
:10042000002803D00433012800D0F9335825079859
:10043000454308982D18651999421DD0A5238E2093
:10044000DB00E35C80005843002304930393029392
:10045000E0231B0201931C4BB830201800932A00A4
:100460003B00069901F028F9041EA7D10A9801F073
:10047000A5FC20000DB0F0BD5307DFD58E20069BF4
:1004800080005843099BB830009320183B002A0095
:10049000069900F04DFD002800DA8FE7CED1A523A4
:1004A000DB00E05C8E239B005843B8302018099A8B
:1004B000012100F003FD0028C0D07FE70124644241
:1004C000D7E7C0463DB8F396DC010108A52370B517
:1004D000DB00C55C04000121002D03D00431012D97
:1004E00000D0FA312000FFF70AFF002802D00125D2
:1004F000280070BD0221002D03D00431012D00D051
:10050000F9312000FFF7FBFE051EF0D1A523DB002B
:10051000E25C58235343E318186A01F035FDB43404
:100520002060E5E710B520220400FF210C3008F020
:100530001BF8012200232260024AE3626260A3608A
:1005400010BDC0460101000142790023012A06D1F5
:100550000268012A03D10379013B58424341180044
:1005600070470000F0B500258BB005900691089209
:100570000993119B9D4201D3002010E0119B5C1B4D
:1005800080239B009C4200D91C00099B354AE91836
:100590000698230001F01AFC002802D001200BB0BD
:1005A000F0BDA522059BD2009B5C9C466146069B44
:1005B0001A780223002903D0FD33012900D1F93B29
:1005C000089909789A421AD08B421AD1582260466B
:1005D00042438B4220D0059B2C3209989A1813690C
:1005E0005B070ED511892818461A0B00079688421A
:1005F00016D20E1BA14200DA2600002715E08B421E
:10060000E4D1109B174AE9180898230001F020FC58
:100610000028C3D12D19ACE7059B10989A18DEE786
:100620000F27079926000F400021D2689A18031956
:10063000934203D90026904200D2161A8E206246B9
:1006400080005043059AB830079B1018054ACB1814
:100650008918029101970096069A614600F016FEED
:10066000CFE7C046DC9D0008F0B5A1B00591C44AB3
:100670000021040007F078FFA5220023D2001F000C
:100680001600A3540493BF4BA05D1B78984232D34D
:10069000012B0ED9049B002B0BD000230127A5258D
:1006A000A3557F42ED00B74B605D1B78834200D9B4
:1006B000EBE0A5250023ED00B24E6355605D337875
:1006C000984200D277E100236355A525ED00635DD4
:1006D00032789A4200D944E23022002114A807F06F
:1006E00043FF236A05995A780A715B680C6003938B
:1006F000039A8A604AE2012B06D98E239B00584355
:10070000B830201800F016FE5825C0232A00A75D37
:100710005B017B437A439C49A218591851629B495B
:1007200038005B181365002101F03EFCA15DC0B2EA
:1007300069432031611801F029FB4342584100F020
:1007400037FE0121380001F02FFCA15DC0B26943E2
:100750004C31611801F01AFB07007842784100F033
:1007600027FE2000FFF7B2FE011E05D00122A35D87
:10077000E318B0331A7069E002002000FFF77EFD35
:100780000028F3D1200001F068F90028EED014AD64
:100790002800FFF7C7FE2800FFF7D6FE06900028C6
:1007A0001FD1784B1B78012B0CD8002000F000FEE5
:1007B0002A0000212000FFF761FD4342584100F06C
:1007C000F7FDD3E7A25D002AEFD023000121B0336B
:1007D0009A189A42E9D01878042800D11970013388
:1007E000F7E7EB790793012B3CD1A05DFFF7F0FC15
:1007F0000300023B0390022B0CD82A00079920002B
:10080000FFF7AEFD012804D0002803D00523039391
:1008100000E003906A46A35D127BE318B0331A70C0
:10082000A25DA318B0331978564B1B78012B0DD954
:10083000002A0BD01300012911D0042900D1DAE1DC
:1008400023000121B0339A18934218D1A35DE21816
:10085000B0321278023A022A01D8012204920133FE
:10086000A35510E72A0001212000FFF779FDA35DC1
:100870000522E318B0330028D1D1EA79CFE7187800
:10088000042800D119700133DEE72318B0331F7834
:1008900004239F43013F7B1E9F41FFB2390001F0BB
:1008A00083FB09A9C0B201F071FA002809D0012721
:1008B000099801F083FA002F6AD1635D0133635513
:1008C000F1E658212C26635D774359430123C9196A
:1008D000009361183F33099A0EA800F09BF9071E98
:1008E000E6D103960A2606ABF618320000230AA9C1
:1008F0000EA800F0E1F9031E00DA79E10998D7D1DA
:1009000033880C2B37D10BAE32000A9901F05EFA16
:100910000028CCD11B4B32781B7893422DD9022171
:10092000A318B0331B78023BDBB299424041039BD2
:10093000584358235A4380182018027D33799A422D
:10094000D0D808D3427D73799A42CBD803D3C28AD8
:10095000F3889A42C6D2635DE318B0331A78012A4D
:1009600007D0002A03D0032A01D801221A700827D1
:100970009EE70422FAE703279AE7072798E7C0468D
:100980002C05000080900008DCA10008DCD10008E4
:100990009B4B1B78082F00D08BE61F1E00D188E6EA
:1009A000220000230121B032635511708F4200D024
:1009B00051701F007DE6012B09D98E239B005843FF
:1009C000B830201800F0B6FC14A8FFF7ABFD3F21AB
:1009D000665D06AAA319B033187852181070013852
:1009E000042800D9B8E007F099FA9D0303039D009D
:1009F0000120002E03D0FE30012E00D1FA380BA9C1
:100A000001F0C4F94342584100F0D2FC0220002E0C
:100A100003D0FD30012E00D1F9380EA901F0B6F94E
:100A20004342584100F0C4FC5822635D0692534390
:100A3000E3189B6A079300231F000393079B605DE5
:100A4000BB423FD1069A4243A318DB6B5B0751D4EC
:100A5000039B5826019300230B9A00930E992000C4
:100A6000FFF780FD3100605D41432C316118FFF7D5
:100A700027FC071E4ED1635D01007343E3181B6D15
:100A80000E985A6801F036FA4342584100F090FC43
:100A9000635D0E985E43A619736D326D013BDB00FA
:100AA000D31811681A68511A5A6801F023FA4342A0
:100AB000584100F07DFC0B9801F080F90E9801F090
:100AC0007DF927E0069BFA0058432018436A0399F2
:100AD0009B185B680B981A00049301F00BFA4342D1
:100AE000584100F065FC049A039B944663440393C9
:100AF0000137A3E78E239B0058432C32B83014AF44
:100B0000A218201800970E9B310000F011FA00285F
:100B100012DA03277E427E41300000F049FC3000AB
:100B200000F046FC635DE218B0321278FF2A16D15D
:100B3000002000F03DFCFEE7002889D18E23605D97
:100B40009B005843B83020183A00012100F0B6F954
:100B5000002800D17CE7DCE7FF221A70E2E70133CE
:100B6000AAE5E318B0331B78012B08D1002220003E
:100B70001100FFF7F5FB002820D0032706E014AA98
:100B800000212000FFF77AFB071EEFD0A5250023E8
:100B9000ED006355635D32789A422ED95822534353
:100BA000E318D86C01F00AF95822635D5343E31847
:100BB000186A01F003F9635D0133EAE7605D231809
:100BC000B0331B78012B0BD05821605D4143611875
:100BD0000A6A00F0BFF8635D07000133635576E5EC
:100BE000582141436118FFF76BFB071EECD0CDE79E
:100BF00001277F425DE5069A30E6380021B0F0BD5E
:100C00008090000810B501000148FFF72DFD10BDD0
:100C1000B0980008F0B587B002930CAB1B780400C5
:100C20000D0000920393002805D101235B4201933C
:100C3000019807B0F0BD0029F7D0009B002BF4D03D
:100C4000CB680F8905AEFF183200042339000098E5
:100C500001F0BCF801900028E7D1154A31886B8972
:100C6000914221D171889942DFD1C9190423320000
:100C7000009801F0ABF80028D7D105AA0D4B1188D8
:100C80009942D2D1009B256063606B461B8923810A
:100C90006B461B7BA3726B89DB19E3605288D31808
:100CA00063613B1D2361C3E7002BE6D0BDE7C0466F
:100CB0000869000007690000F0B585B004000091E4
:100CC00001921E00002803D10120404205B0F0BD72
:100CD0000368002BF8D04368002BF5D022696369C4
:100CE0009A4218D223685B89002B04D0E3689342B0
:100CF00001D10433236103AD04232A002169606814
:100D000001F064F80028DFD1A27A2369002A04D018
:100D1000E2689A4201D80120D8E76A882189171D24
:100D2000BC460B4FB94202D02D888D420DD1002E0A
:100D300002D003A909883180009904330B60019B1C
:100D40001A80236963442361C0E763442361C5E7D4
:100D5000FFFF0000F0B50025D9B003900095514B7E
:100D60000AA81600FFF756FF0295A84204D00124F6
:100D70006442200059B0F0BD0E2704ABFF1807AC49
:100D80003B00220008A90AA8FFF796FF0028EED131
:100D90003B88602B0FD18022238852009342E6D8F3
:100DA00018AA0899300001F011F80028DFD1238833
:100DB00001250293E0E7102BDED12388202BD6D823
:100DC00010AA0899300001F001F8041ECFD1002DBF
:100DD000CDD0029858AB203808901818013820223E
:100DE000FF3810A907F0B7FB039B2F4E9B0104931C
:100DF0003F23049A09941A43337805922B4D002B14
:100E000009D1802221005201280007F0ADFB284BB8
:100E10002B60012333706888244B264EC31803933C
:100E2000039B09AFB34224D8049B234A1B051B0D27
:100E300013433B806B461E897E806B88321D92B2C5
:100E40009B18184A93422BDC80229BB2520193429A
:100E500022D804223900039807F07DFB0398029AF8
:100E6000043018A907F077FB6B880433F6186E80FE
:100E70007FE704223100380007F06DFB3B881A0B36
:100E8000012A04D1059A1B051B0D9A4206D009AB15
:100E90005B880433F618C3E701246AE7022468E795
:100EA000032466E7FFFF0000DCE1010800080008FA
:100EB00016200400040800083F100000F0B587B0B9
:100EC000174C02AD019028000F00160006F094FDAB
:100ED000230007CD07C380212000124A890006F0B5
:100EE000A5FD114D280006F0FDFD002816D128882B
:100EF000210006F0ABFD002810D13A010C32B218E7
:100F000028881023094906F065FD002806D18E23A4
:100F10005B005F43019A1C3BFF3BBB5407B0F0BD35
:100F2000E0E101080100C004DEE101080100004029
:100F3000F0B50700D5B0180016001D0000F070FBDA
:100F4000002802D10124644248E1280000F0FEFAA2
:100F5000041E00DA42E18E235B004343DB5D069012
:100F60000124002B00D039E100932A0032333100F4
:100F700025A8FFF74FFE031EE4D12E2602AAB618BD
:100F800032000FA925A8FFF797FE041E00D025E127
:100F90003388712BD6D137AE32000F99280000F07C
:100FA00015FF0028CED1280000F01CFB071EC9DD6C
:100FB00006F0B4FDB842C5DB9E4D1022290019A8E9
:100FC000113507F0C8FA102229001DA807F0C3FA4E
:100FD0001022290021A807F0BEFA13A81294139436
:100FE00006F0B0FD43424341934A5B4213400793EE
:100FF0003023041E149300D0F0E00EAD2900380019
:1010000006F07EFD041E00D0E8E0288811AA10A991
:1010100006F02AFD041E00D0E0E03378042B00D057
:10102000FDE0C0228021109BD2051A40C9058A42EA
:1010300000D0D6E0119BDC1DE4082000129407F0DC
:1010400055FA051E00D1ECE02200310007F083FACA
:10105000102219AB0EAE318803931DAB0193079B91
:101060000492029200932A00230013A806F01EFDAA
:10107000041E00D0D9E0149A2BA913A806F06AFC2C
:10108000041E00D0D1E0308812AB129A290006F07D
:10109000FBFC0400280007F033FA002C00D09DE090
:1010A00008AD280016AE159406F0A6FC33002A0001
:1010B00013CA13C380213227604A0901300006F0A9
:1010C000B5FC02ABFF18380006F00CFD041E00D082
:1010D00084E03888310006F0B9FC041E00D07DE0C1
:1010E000A221388820232FAAC90506F073FC041E0C
:1010F00000D073E03988514A15A806F031FD041E6E
:101100006CD1362302A9FF335B181022190015A8F1
:1011100006F036FD041E61D1162102ABFF312022FC
:10112000C91815A806F03CFD041E57D1388806F0F2
:1011300003FC041E52D1424E280006F05DFC320032
:1011400008AB13CB13C280213E4A8900300006F061
:101150006DFC3D4D280006F0C5FC041E3ED12888DC
:10116000310006F073FC041E38D1288810232BAA06
:10117000364906F02FFC041E30D1354E2988314AFD
:10118000300006F091FB041E28D1102221A9300066
:1011900006F0ACFB041E21D1069B5A9A1B010C33AE
:1011A0003621D318102202A814AFFF310918019775
:1011B0000092300006F0AAFB149B0400102B32D1E1
:1011C00000280BD1020001003B00300006F07CFB40
:1011D000041E03D1288806F0AFFB0400200055B0A0
:1011E000F0BD1C4A1C491A408A4203D1119BDC08FD
:1011F000103422E719498A4205D10324119BDB08E8
:101200005C434A3419E7164A1340164A934200D009
:1012100013E7119BDC1DE408640001340DE787240B
:1012200091E68D248FE684248DE6280007F068F986
:10123000D4E7C0469ACB061009012022090080029B
:10124000E0E101080100C004DEE101080100004006
:10125000ECE10108FFFFFFEF000001600000026009
:101260000000FFEF0000036010B50400100000F064
:101270006DF90023984206DB1D33FF335843035DAD
:10128000581E8341DBB2180010BD0000F0B51D00F0
:10129000170089B004AC06000C220021200007F0E2
:1012A00063F92B0F23732B0D637338002B0B2D0960
:1012B000A373E57300F04AF9002804DA002000F077
:1012C00077F809B0F0BD8E235B005843805D01388C
:1012D0004342584100F06CF8134B144D1988144ADE
:1012E000280006F0E1FA0028EBD1102221002800A6
:1012F00006F0FCFA0028E4D10E9B03AC0093109B8F
:101300000E9A19000194280006F000FB039B0E9A28
:1013100001009342D5D10028D3D102002300280038
:1013200006F0D2FACDE7C046DEE10108ECE10108A3
:101330000100C0048E2210B59200002105F038FE95
:1013400010BD000010B504F08FF904F0C5F904F0E9
:10135000D7F962B604F076F9C022012002495200A2
:101360008B5883438B5010BD0000264010B50B48AE
:1013700001F06EFC04F0DEF9094A8021032002F03E
:1013800057F9084801F07CFF074B1B684D331B7869
:10139000002B02D0054801F0E1FF10BD64CF06101C
:1013A00000000008F0E1010874E70108BCCB06105A
:1013B000F7B5041E40D16A46204F214DFB782148E5
:1013C0009370BB792100D3701F4A6B68121A019386
:1013D00007F0CAF81D481E4A2100121A07F0C4F887
:1013E0001C4E1D4A2100921B300007F0BDF86B46D1
:1013F0009B78FB706B46DB78BB71019B6B6086F35F
:101400000888164E16482100321A07F0ADF886F308
:101410000888012006F09EFCFFF7A8FF686805F029
:101420005BFD104804F0ECF90F4B1B68002B01DA50
:1014300005F076FD0BF088FBF7BDC046E4E6010839
:101440005CE5010880900008E0930008949800088B
:101450007CE70108002000080024000800C0020802
:1014600000B002080040001600012640F0B599B017
:101470001EAB1B780390049313781400302B03D019
:101480009520404219B0F0BD9378022BF8D108ADF9
:1014900040220021280007F067F8E07822185379ED
:1014A000811D1279C9180291022AE9D1C218617806
:1014B00004329142E4D1202B00DD202301002028BA
:1014C00000DD2021401A002205900FE0501A203044
:1014D00007000598102684469444A4446046007989
:1014E0000132844604A880196646C6559142EDD162
:1014F00000220299C91A64189A4212D10E2404AB30
:10150000E4182100049806F0FBFA0028BAD1402321
:101510002088039A01930095203B054906F0B0F915
:10152000B0E7D11AA05C403168540132E4E7C0460C
:1015300009000610037800205A1E012A05D901303F
:10154000052B02D0062B00D0023870470378042206
:10155000190000209143012905D00130022B02D04F
:10156000062B00D00238704710B50C00FFF7E2FFE1
:10157000012807D828235843044BC05C001B431E96
:10158000984110BD01204042FBE7C0465CE50108E0
:1015900010B50400FFF7DAFF00280DDB0BD02000A8
:1015A000FFF7C8FF002807DB282343430448C0187F
:1015B00043780120584010BD01204042FBE7C0465F
:1015C0005CE5010810B5FFF7B5FF0022012805D83A
:1015D000282343430248C0180530C27F100010BDC5
:1015E0005CE5010810B5FFF7A5FF0022012804D82B
:1015F000282343430248C018427A100010BDC04659
:101600005CE50108012805D8282343430348C01896
:10161000C068704701204042FBE7C0465CE5010816
:1016200010B5FFF787FF012805D828234343034857
:10163000C018007A10BD01204042FBE75CE50108BC
:101640000023F0B58DB00D0016000493136098428E
:1016500003D1072420000DB0F0BD0029F9D0438943
:10166000002B01D10324F5E701230A0000930100B8
:101670004F3306A8FFF7CEFA041EEBD10E276F44B6
:1016800003003A0005A906A8FFF716FB002801D0C1
:10169000013CDFE73B88042BE4D104AA059928002C
:1016A00000F094FB002801D00124D3E7049BFF2B1A
:1016B000D0D83360CEE70000F0B51F001723002616
:1016C0001400FF25BFB006AA9B181E70236909905D
:1016D000380006910E950F960493FFF737FFB0423E
:1016E00003DA012040423FB0F0BD002800D1DDE028
:1016F0003800FFF74DFF0028F5DB3800FFF790FFBB
:10170000431E9841049B5B07DB0F984203D03800CF
:10171000FFF786FFE5E702220792069A10963B78CC
:10172000002A05D006220792069A012A00D00795C2
:10173000079A93420BD123695B0708D53A000699B3
:101740000998FFF791FD002801D10138CBE7A349A3
:1017500010A806F00FF90028C5D1469B002B58D1E0
:101760000020238905000493049AE36894466344A7
:1017700005936389059A9B180893089BAB4254D83C
:101780000028B0D11EAB202216A910A806F010F92F
:101790000028A8D1489B002B00D0A8E000233A00E5
:1017A000009321008E4B10A8FFF734FA00289AD13D
:1017B00005000790049005901A2606ABF6180CACAD
:1017C000330022000DA910A8FFF776FA002800DAEE
:1017D00087E700D0F4E03388222B00D1A8E000D9BD
:1017E0008BE0102BE8D12488202CE5D123001EAA01
:1017F0000D99380000F0EAFA002800D073E72200C3
:101800001EA916A806F098FE0028D5D1012305933D
:10181000D2E7479B002BA3DD1A00469910A806F0DB
:10182000B7F8002800D05EE79AE7089B459E5B1B4F
:101830009E4200D91E00049BAB4204D9049A73193E
:101840009A4200D2561B059BAB4204D9059AAB19AC
:101850009A4200D2561B3300449A2900380000F007
:10186000B5FA002800D03EE73B78079A934216D19C
:1018700004222369134212D0049BAB420FD8059B6C
:10188000AB420CD9449A049B02920F22EB1A1A40E5
:10189000019200963A0006990998FFF7F7FC32008A
:1018A000449910A806F074F8AD1966E710904B49FA
:1018B00010A806F05FF8002800D014E7469B002B24
:1018C00009D1638922897968D218E36810A8D218EF
:1018D00006F05EF854E7479B002BF2DD1A004699AC
:1018E00010A806F055F8002800D0FCE6E9E7202211
:1018F00016A9489806F02FFE50E7502B3FD0812BB9
:1019000000D059E72388172406AAA41822000D99AD
:10191000380000F05BFA002800D0E4E621783800B7
:10192000FFF722FE002800D0DDE60123049343E701
:101930003800FFF747FE061E00DC3DE706F0EEF834
:10194000B04200DA38E723881A00463A3A2A00D92A
:10195000C7E61EAA0D99380000F038FA002800D01A
:10196000BFE6F6B223881EAA0096202116A8FFF72C
:101970007DFD002800D01FE7012307931CE7238883
:10198000042B00D0ADE60FAA0D99380000F01EFA26
:10199000002800D0A7E60F9BFF2B00D9A1E60EA9D7
:1019A000069800F01FF8002800D09CE60E9BFF2B45
:1019B00000D996E60F9A934200D9FDE60125FBE691
:1019C000059B002B00D18CE6049B002B00D188E600
:1019D000002D00D185E60798B7E6C0460900000152
:1019E000FFFF000010B50C00FFF70CFE002803DB22
:1019F000210005F049FB10BD01204042FBE710B576
:101A00000C00FFF7FFFD002803DB210005F054FB6D
:101A100010BD01204042FBE7A52313B5DB00C05CED
:101A2000140000F0C1FA01A9C0B200F0AFF900281B
:101A300005D00124019800F0C1F9200016BD0198DD
:101A4000FFF7A6FD011EF4D122002023019800F02B
:101A5000BDF90400601E8441ECE7F7B5A5265824C3
:101A6000F600835D05006343C318D86CFFF790FD53
:101A7000002850D1AB5D6343EB189A6A0092C022F4
:101A800000999200914214D8596D0191914210D859
:101A900006000200010005000400009FB94209D3BE
:101AA000019FBA4206D3009B994202D1D21B5042F9
:101AB0005041FEBDAC4212D1CF00BC465F6A01313D
:101AC000BC4467467F68BC46D7006444BC461F6D73
:101AD0000132BC4467467F68BC466544DDE7AC42E2
:101AE0000CD2CF00BC465F6ABC4467467F68BC46E8
:101AF0006444022EDDD001310126CEE7D700BC467A
:101B00001F6DBC4467467F68BC466544012ED0D03B
:101B100001320226C1E70020CBE710B5FFF726FC13
:101B200010BD000010B5084B9A782A3318780028A9
:101B300007D002000020042A05D8100000F0DCFEC7
:101B400001E0002AF6D110BD5CE50108F0B589B0CE
:101B5000FFF70CFCFFF7F6FB802001AA02A940006A
:101B600005F02AF9041E00D08BE06E4D03006E4A8A
:101B70002900029803F0FAFE041E00D081E0012340
:101B80006A4A6B4913706B4B198069695960A9697E
:101B900099606949694B1980A978002901D0802191
:101BA0005970E9695960296A99602B7C012B1AD117
:101BB0002B0038331B78022B15D11370604B614A10
:101BC0001A80EA6B5A602A6C9A605F4A5F4B1A80EF
:101BD0002A002A321278002A01D080225A706A6CB8
:101BE0005A60AA6C9A60FE22594BD2011A80594A57
:101BF0005A60802252029A60574B584A1A80584ABB
:101C00005A60802252019A60FFF78CFF00280DD0A5
:101C1000AB78002B01D000236B702B002A331B788C
:101C2000002B03D02B00002229331A7006F07AF81B
:101C3000002802D00020FFF7BBFB05A8FEF7E2FF5B
:101C4000041E1ED10126474B6A68474F1A60059B48
:101C50001A89079BD3183B602A7CB24205D12A001F
:101C600038321678023E721E9641287801380328D1
:101C700056D806F053F9020D0D143100180005F086
:101C8000ADF960426041FFF793FB002009B0F0BD61
:101C90000221002001F088FD31003868EFE70621BD
:101CA0000E2001F081FD6A461F4B2E4EDB782E4D33
:101CB00093701D4B2D489B790021D37033682C4ABB
:101CC00003932B68121A049305F072F9294F2A4ADC
:101CD0000021D21B380005F06BF9049B124A2B60DF
:101CE0006B469B78D3706B46DB789371039B3360B4
:101CF00087F30888214F224800213A1A05F058F945
:101D000087F308881F48204A0021121A05F050F96D
:101D1000FFF72CFB32680021286805F009F9B0E7CD
:101D200030BFFDE75CE50108E4E6010880900008AB
:101D3000017F000080E30108027F0000A4E30108A6
:101D40008CE30108057F0000067F0000B0E3010876
:101D500074E301080000061098E30108037F000007
:101D600000F00510BCE3010870E301088090000852
:101D7000E0930008002000080024000800C00208CA
:101D800000B00208949800087CE7010810B50A4AE0
:101D90001368002B02D10124644205E01C78043250
:101DA0008442F5D100240B600B685B787F2B01D94E
:101DB00000F012FD200010BD84900008437810B59B
:101DC0007F2B01D900F032FD10BD0000F7B544684B
:101DD000050017001E008C4205D8F921174B184A40
:101DE000184806F051FBCB189C4203D8164B144AF6
:101DF000FA21F5E764183200210006F025F8019079
:101E0000002803D0114B0E4AFF21E9E76B787F2BA6
:101E100006D132002100380006F09DFB0198FEBD7E
:101E20005BB2002B06DA33003A002100280000F0F4
:101E30003FF9F4E701204042F1E7C0469CCC061090
:101E4000F0CB0610ADCC0610CBCC0610E2CC0610C1
:101E5000F8B54468060017001D008C4204D8922192
:101E60001D4B1E4A490006E0CB189C4206D826218D
:101E70001B4B1A4AFF311B4806F006FB64182A0068
:101E8000210005F0E1FF002803D0174B134A9621EB
:101E9000E8E773787F2B12D1EB0503D0134B0F4A81
:101EA0003421E7E780239B009D4204D139002000C4
:101EB00000F0BAFFF8BD0E4B084A9C21D2E75BB296
:101EC000002B06DA2B003A002100300000F010F958
:101ED000F0E701204042EDE79CCC061000CC061054
:101EE000CBCC0610ADCC06100BCD061040CD0610A5
:101EF0005DCD061070B54568060014008D4204D80B
:101F0000AF211B4B1B4A490006E08B189D4206D8A7
:101F10006021194B174AFF31184806F0B5FAD3056E
:101F200003D0174B134AB021EDE76D18290005F0D7
:101F30008BFF002803D0134B0E4A6821EBE7737820
:101F40007F2B09D1640A002C00D170BD013C6002D6
:101F5000401900F02BFFF6E75BB2002B04DA2100FA
:101F6000280000F0E5F8F0E701204042EDE7C04628
:101F70009CCC061011CC0610CBCC0610ADCC0610B4
:101F800040CD06104FCC061010B543787F2B05D0FE
:101F90005BB2002B05DA00F0DFFC10BD8020800072
:101FA000FBE701204042F8E7020001290DD00320A1
:101FB000022909D00438002906D10120002A03D0C3
:101FC0000430012A00D0FA3070470220002AFBD0EA
:101FD0000430012AF8D0F930F6E7000010B5437854
:101FE0007F2B0AD05BB2FF20002B07DBF721044BCD
:101FF000044A4900044806F047FA0020C0B210BD68
:1020000084CC061022CC0610ADCC0610F7B5060025
:1020100017000193FFF7DAFE0500041E0AD0012520
:102020006D420BE03000FFF7D9FF3B5D834205D1E5
:102030000134E4B2019B9C42F4D301252800FEBD8B
:1020400070B5164B1C68002C02D1012040421DE0E7
:10205000257804338542F5D163787E2BF5D9104875
:10206000A3681B1808685B0A984206D28D210D4BA5
:102070000D4A89000D4806F007FA802560685C0269
:102080002418AD00844202D100200B6070BD802670
:10209000B6001060556080190832F3E7849000089C
:1020A000FF0100008ACC061038CC0610ADCC06101B
:1020B000F0B585B003937F2340780C0018401700DB
:1020C00000F0E0FB060000F0E5FB050000F0E6FB99
:1020D000E8231B06E218039B0190009331003B00AC
:1020E000280002F073FD431E9841404205B0F0BD48
:1020F000F0B585B003937F2340780C00184017009B
:1021000000F0C0FB060000F0C5FB050000F0C6FBB8
:10211000E8231B06E218039B0190009331003B006B
:10212000280002F0A3FD431E9841404205B0F0BDD7
:10213000F7B50400002000F0A5FBE8228369050044
:102140009B691206A4185B421C4000F0A3FBAB691C
:1021500006009F6900F0A2FB3B00009029003000C0
:10216000220002F0EBFD431E98414042FEBD0000FC
:10217000F0B589B006ACE070002021712080A0701D
:1021800000F080FB060000F085FB050000F086FBF8
:10219000310007000200280002F012F8002815D1D3
:1021A00001230497039333780200029305230190DF
:1021B000009371212300280001F03CFD002805D187
:1021C0003B00034A3100280002F0D6FC09B0F0BD04
:1021D00020A10700F0B500248BB009ADE870200005
:1021E00007912C80AC7000F04DFB069000F052FB84
:1021F000060000F053FB069B049003941B78070035
:10220000029304230194009322002B0065213000E7
:1022100001F010FDA0420CD10821300001F0E4FED5
:10222000A04206D10300009701220799300001F077
:1022300011FE0BB0F0BD021E1DD041188B1F1B7884
:102240000022342B17D14B1F1B782A3B012B12D8AD
:102250000B1F1B78193B022B0DD8CB1E1B780F2BA5
:1022600009D18B1E1B78032B05D1013908789038D2
:1022700043425841C2B210007047000030B5002000
:1022800089B000F0FFFA050000F004FB040000F044
:1022900005FB01230022049003932B782000029376
:1022A000019200921300B72101F0C4FC041E11D169
:1022B0001F256D4429000320FFF78CFF041E09D160
:1022C00029784BB2002B08DA29000420FFF782FF9F
:1022D000041E0BD0200009B030BD80230320194319
:1022E0002970FFF745FF041EF4D1EDE708212B7894
:1022F0000B420CD0002000F0C5FA8022D82183695F
:10230000D2029A615A691160054A1A64E2E71943D8
:1023100004202970FFF72CFF0028EBD00400D9E738
:1023200070170000F0B589B0079000200F0000F092
:10233000A9FA040000F0AEFA050000F0AFFA00229E
:1023400004900392237806000293019200921300F6
:102350009F21280001F06EFC041E0FD140212800AF
:1023600001F042FE041E09D10090030001963A00DC
:102370000799280001F030FD041E16D0200009B096
:10238000F0BD012002F090FF3100280001F044FE72
:10239000032802D0013F002FF3D13100280001F0C3
:1023A0003BFE0328EAD0024CE8E7024FECE7C046C8
:1023B0000200B200E903000070B506000C00150031
:1023C000072903D91449154802F078FF1F232A0072
:1023D0009A4303D01249114802F070FF114B1B6859
:1023E0009A695B69B01AC0090001C0181F231D401B
:1023F000032C07D8E400A340A54002689A43154384
:10240000056070BD043CE400A340A54042689A43C7
:1024100015434560F5E7C046920200007ACD0610EC
:102420009302000074E70108437802781B021A4304
:102430008378C0781B0413430006184370470000DC
:10244000F7B5A54BA54A9A58D10700D47BE00F22D7
:10245000A34FBB683D680093A24BDC6F0193009BC8
:102460001440073A141B9C4200D91C009E4E002CBD
:1024700018D1009B3D60BB60002B0CD1F9220120DC
:102480009549D2008B5883438B50B861FB69002B70
:1024900001D0FB699847F8230122DB008E49CA501E
:1024A000CB58F7BD082C16D12800FFF7BDFF3060D0
:1024B000281DFFF7B9FF3060009B2D191B1B0093EF
:1024C000019BDC6F0F231C40073B1C1B009B9C42A5
:1024D000CDD91C00CBE7012C03D12A78834B1A609D
:1024E000EAE7022C06D12A786B781B021343804A54
:1024F0001360E1E7032C07D16B782A781B021343A2
:102500007B4A1360AA78E9E72800FFF78DFF042CC7
:10251000D1D03060052C01D12A79DFE7062C02D119
:102520002A796B79E1E7072C07D16B792A791B02AD
:1025300013436F4A1360AA79D0E7281DFFF774FF91
:1025400008243060B8E7910700D4A4E00F22644D5E
:1025500068496C69EB6808688C460240A24200D961
:1025600022006549654E002A16D1EB606C61002C93
:102570000DD1F92202215848D20083588B43835051
:102580000320A8612B6A002B01D02B6A9847F823FF
:102590006C61DB00022281E7082A19D10868070A6A
:1025A00018705F70070C000E9F70D8700868070ADB
:1025B00018715F71070C000E9F71D8719B18A41AD7
:1025C00062460F2012680240A242CCD92200CAE71C
:1025D000012A03D14A4800681870EFE7022A04D1A3
:1025E00030681870000A5870E8E7032A07D130688D
:1025F0001870000A5870424800689870DEE7042A94
:1026000008D10868070A18705F70070C000E9F70E9
:10261000D870D3E7052A0BD10868070A18705F70D5
:10262000070C000ED87036489F7000681871C5E717
:10263000062A0CD10868070A18705F70070C000E94
:102640009F70D87030681871000A5871B6E7072A71
:102650000FD10868070A18705F70070C000E9F7092
:10266000D87030681871000A587125480068987150
:10267000A4E70A68100A1A705870100C120E9870AD
:10268000DA700A68100A1A715871100C120EDA7199
:102690009871082292E704210A4207D00520104AC7
:1026A0009061F822D20099509B58FAE608210A421C
:1026B00002D00B4A0620F3E71020024206D0072181
:1026C000074A9161F822D2009850EDE7202002429B
:1026D00000D1E6E6024AF4E700004240CC070000E1
:1026E000C0E3010808004240980042409000424088
:1026F00094004240C4004240D8004240D4004240CE
:10270000D000424010B5294A0321294800F006FCB8
:10271000112203212648FFF74FFE264A04212448B0
:1027200000F0FCFB112204212148FFF745FE224A5C
:1027300005211F4800F0F2FB112205211C48FFF77C
:102740003BFE1E4A06211A4800F0E8FB1122062132
:102750001748FFF731FE1A4A0721154800F0DEFB43
:10276000112207211248FFF727FE164B1B683C3346
:102770001B78022B12D9E2230F20134A9B00D15859
:102780008143D150D1582130814308002021014399
:10279000D1508021D05809060143D150FA220B4B69
:1027A00092000B490B4801F0BBF910BD44CE061056
:1027B0008005314010CE0610DCCD0610A8CD0610E5
:1027C00078CE061074E7010800002640C0E3010837
:1027D000ACCE06100000424070B50E4C2368002BB2
:1027E00013D10D4D0D49280002F0F0FC0022AB5E24
:1027F000002B06DB1F2213401E3A9A401300084AA2
:1028000013600849084801F009FC2368013323607C
:1028100070BDC04630E401088C91000841240610C8
:1028200000E100E0C0E3010800004240114A10B599
:102830001368002B1DD0013B1360002B19D10E4AE9
:1028400013685B005B0813600C4A0021535E002B89
:102850000ADB1F210B401E3999400B000849CB674A
:10286000BFF34F8FBFF36F8F51880023D05E02F00C
:1028700077FC10BD30E40108000042408C91000854
:1028800004E100E0024B80001B685B68C0587047A1
:102890007CE401080048704700004240004870474F
:1028A000C0E3010837B50500FFF72CFF041E1BD15C
:1028B000FFF792FF0D4B0E4A29000E481D6002F0F3
:1028C0001DF8041E0ED106216846FFF72BFD041EDD
:1028D00008D106216846FFF7AEFC002802D0FFF7BA
:1028E000CDFC0400FFF7A2FF20003EBD7CE4010800
:1028F000C0E3010800004240F8B5144C63680228A8
:1029000003D003281AD001281CD11B6818700C2290
:10291000013850430E4B0F4AC55818184668077ABD
:1029200031002800177200F0F9FA28003A0031004F
:10293000FFF742FD2000FFF7B5FFF8BD04221B683A
:102940001A70E4E701204042F7E7C0467C91000896
:1029500040910008A0900008024B5B681B689B69CF
:10296000586A70477C910008024B5B681B689B6942
:10297000586870477C910008F7B51C4C0193246897
:10298000251E02D0A56B45192D68266D8619AD1B35
:102990006E1EB541A668EDB287190F26B446634690
:1029A0003E681E40062EFAD8E3681206C618019B40
:1029B00013433360002D01D1002912D08022A36877
:1029C0005202C31819681142FCD02368C018084B82
:1029D0001B6829331B781F2B04D8802302681A42F6
:1029E000FCD1F7BD0368002BFCD1FAE7C8E401086D
:1029F00074E7010810B51F24084B89061B682933AA
:102A00001B789C42A441130064420C34A3408022F2
:102A10000B430021FFF7B0FF10BDC04674E701086B
:102A200010B5040000220E21FFF7E4FF2000002271
:102A30000D21FFF7DFFF200000220C21FFF7DAFF56
:102A4000200000220B21FFF7D5FF200000220A21E1
:102A5000FFF7D0FF200000220921FFF7CBFF200065
:102A600000220821FFF7C6FF200000220721FFF700
:102A7000C1FF200000220621FFF7BCFF200000223A
:102A80000521FFF7B7FF200000220421FFF7B2FF66
:102A9000200000220321FFF7ADFF200000220221C9
:102AA000FFF7A8FF200000220121FFF7A3FF00226B
:102AB00020001100FFF79EFF034B0F211A68200032
:102AC0009208FFF797FF10BDCCE40108054B1B6887
:102AD00029331A78044B1F2A00D9044B044A136087
:102AE0007047C04674E70108BCCE061010CF061030
:102AF000C8E401082F4B70B514001A68002A2CD0C6
:102B0000002909D1002C28D1136DC1182A4B1B684C
:102B10009C6C002921D0A400284B651E9D421CD826
:102B200080231B019C423ED00DD880239B009C42F9
:102B30001DD08023DB009C4233D080235B009C426D
:102B40000BD17F2314E080239B019C422DD006D81B
:102B5000802670237601B4420AD0194820E08023F1
:102B6000DB019C4223D0802600233602F3E77E233C
:102B7000114E3668293636781F2E00D8114D29425D
:102B8000EBD11F2E02D9104D1B024351936BA208AB
:102B9000C31819600F21FFF72DFF00200B4B1C609D
:102BA00070BD7C23E4E77823E2E76023E0E740237D
:102BB000DEE7C046C8E4010874E70108FF7F0000B3
:102BC0000B003200FF3F000088140000CCE4010835
:102BD00010B50400FFF77AFF174A18491368293324
:102BE0001B781F2B17D8164B2360012009684B6BED
:102BF000E3181860134B1B68002B07D11368096D8D
:102C00009A6C611892002000FFF774FF2000FFF714
:102C100007FF002010BD23680B48034023600B68AA
:102C20000A485B68E3181860802320681B0603438A
:102C300023600323A360D8E774E70108C8E4010810
:102C400003000080CCE40108FFFFFE7F01000200CA
:102C5000014B18607047C04674E70108044B1B68BD
:102C60001A1DD26F1B689B181868000E7047C0466B
:102C700074E70108044B1B681A1DD26F1B689B1870
:102C80001868000AC0B2704774E701081D4B9842EB
:102C90000FD010D840282FD005D8002830D01028C9
:102CA00028D019481EE0802828D080235B00984255
:102CB000F7D1144816E0154B984214D008D8A02339
:102CC0001B0698421CD0124B9842EAD1A0200BE080
:102CD000104B98420AD0104B984209D00F4B9842A3
:102CE000DFD10F487047A420C003FBE70D48F9E788
:102CF0000D48F7E70D48F5E70D48F3E70D48F1E714
:102D00000020EFE706005200FF005200010000F033
:102D1000090000A0040000F0050000F0030000F02E
:102D20000100520002005200030052000100500056
:102D3000020050000500520070B50A4D04002B68D7
:102D40002E331B78834204D8E9210748490002F05A
:102D5000B5FA2B681A00AC3210884443186A201860
:102D600070BDC04674E7010818D0061010B50020E9
:102D7000FFF7E2FF0A4B1C682300B0331B68C01842
:102D80000368002B0ADB074B1868FFF77FFF01225F
:102D900063689A609A68002AFCD110BD0248FCE77B
:102DA00074E70108D0E401080200500070B5C405C2
:102DB0000500E40D28D102F0BDFC144B144A1A6042
:102DC0005D609C60DC60134B1B68503319780029F0
:102DD00015D0FFF743FF0400FFF74CFFFA21013441
:102DE000013060430C4B0D4C89004443186805F0DA
:102DF0009FF80100200005F09BF8094BC1188020C6
:102E0000400009F0B1FE70BD0648FCE7D0E40108BF
:102E10000001001C74E701089891000860F590001B
:102E2000980800000600520070B5C40506000D00A9
:102E3000E40D2AD1002928D002F07CFC144B154A5D
:102E40001A605C609E60DD60134B1B684E3319781E
:102E5000002915D0FFF702FF0400FFF70BFFFA214E
:102E60000134013060430D4B0D4C89004443186818
:102E700005F05EF80100200005F05AF8094BC11872
:102E80008020400009F070FE70BD0748FCE7C04696
:102E9000D0E401080001000574E7010898910008DA
:102EA000C0EA2101482600000600520070B5060065
:102EB0000C001500072903D91449154802F0FEF942
:102EC0001F232A009A4303D01249114802F0F6F951
:102ED000114B1B689A695B69B01AC0090001C018E0
:102EE0001F231D40032C07D8E400A340A54002681F
:102EF0009A431543056070BD043CE400A340A5401F
:102F000042689A4315434560F5E7C04692020000C7
:102F10007ACD06109302000074E70108F0B585B081
:102F200000900D001400002800D137E1002A00D1E4
:102F300034E1072903D94F21994802F0BFF92368EA
:102F4000012B03D95021964802F0B8F90F2362688B
:102F50009A4303D05121924802F0B0F91F22237AFC
:102F6000934303D052218E4802F0A8F9E368032B63
:102F700003D953218A4802F0A1F92369012B03D90F
:102F80005421874802F09AF96369012B03D955212E
:102F9000834802F093F9A369012B03D95621804895
:102FA00002F08CF9E369032B03D957217C4802F026
:102FB00085F9236A012B03D95821794802F07EF95B
:102FC000636A012B03D95921754802F077F9A36A86
:102FD000012B03D95A21724802F070F9E36A032BDE
:102FE00003D95B216E4802F069F9236B072B03D9E3
:102FF0005C216B4802F062F92668072D03D9694904
:10300000694802F05BF90122AA400192012E07D91A
:103010006649654802F052F9009B019A9A6004E003
:10302000002EF9D1009B019A5A606668072D03D9DA
:103030005F495D4802F042F90F2332009A4303D002
:103040005C49594802F03AF90F215B4FAB000293FB
:103050003B68080079331A78009B0E40D218136839
:10306000A9009C46AB00984063468E4083431E43B4
:103070001660227A29000098FFF718FFE668082DED
:1030800003D94E49484802F019F9032E03D94C4997
:10309000454802F013F9032108006B0003933B68D5
:1030A0006F00B8400E40BE4078331A78009B9A18E3
:1030B000136883431E4316602669082D03D94149CE
:1030C000394802F0FBF8012E03D93F49364802F097
:1030D000F5F8019A009BD74301221640AE409B6948
:1030E0003B401E43009B9E616669072D03D937490B
:1030F0002D4802F0E3F8012E03D935492A4802F0A1
:10310000DDF801202C4B06401968AE400B008446C8
:103110007A331B78009AD3181A68174037431F6018
:103120000B0062467B331878009B6E001818A36969
:1031300010361340AB40E56902321540B540B2404D
:103140002B43019D07682A4397433B4303600220BA
:1031500004257C310A78009B9A18636A11685B0029
:103160000340A06A8000284003436046256A284047
:1031700018250343E06AC00028400343206BFF2466
:10318000400120400343FE20029D80000540AB40EB
:103190000020A1430B43136005B0F0BD0D48FBE7D1
:1031A00049D00610310300007ACD0610320300002A
:1031B000CE030000CF03000074E70108F206000010
:1031C000F306000073060000740600000D04000002
:1031D0000E04000001005A000B4B70B51B6805007F
:1031E000B0331B680C00C3181B68002B0ADA0B0CE9
:1031F00004D0B9210548890002F060F80020A4B28B
:103200006C6070BD0248FCE774E7010818D0061036
:1032100001008A00036870B505000C00002B0ADA73
:10322000C2600B0C03D00549054802F047F80020A6
:10323000A4B2AC6070BD0348FCE7C046CA020000FF
:1032400018D0061001008A0070B505000C1E03D1CD
:10325000A321084802F032F8074B1B68B0331B6803
:10326000EB181B68002B03DA0020EB68236070BDAD
:103270000248FCE776D0061074E7010801008A00D6
:10328000024B1A68002A00D118607047E4E4010874
:10329000F7B52C4D1F002B68040000910192002B04
:1032A00003D1BF21284802F009F82C23FF225C43F8
:1032B0002B683D001C193B0A3F0CA760234F1340AD
:1032C00063603B68154025602E331B789D4204D314
:1032D000E9211F48490001F0F1FF3B681A00AC32B8
:1032E000128855431A6A2F33AD1825611B7865681B
:1032F0009D4204D3F7211648490001F0DFFF3B68E7
:1033000080351B6A6D01A668ED186561330C08D025
:103310000F4F1049380001F0D1FF0F49380001F07C
:10332000CDFF33041A0C1343AB60019BE361009B98
:1033300023620023A361089B002B01D01B88A3817B
:10334000F7BDC046E4E40108A6D0061074E7010802
:1033500018D006100D0200000E020000F0B50400A7
:1033600085B0002803D15C21214801F0A7FF6368E4
:10337000032B03D95E211E4801F0A0FFE36A002B56
:1033800003D162211A4801F099FF236B002B03D16E
:103390006321174801F092FFA36802AD2B80154B03
:1033A00022681B68E16A9B8EE0689B186B806368EB
:1033B000A26A039300952369266A676AFFF768FF8C
:1033C00000213B000A0000913000FFF761FF216BF4
:1033D000280001F0FBFE0022AB5E002B06DB1F2263
:1033E00013401E3A9A401300034A136005B0F0BD23
:1033F000A6D0061074E7010800E100E0F7B504006C
:103400000F00151E019304D108211D48FF3101F062
:1034100055FF1C4E3368002B04D184211848490005
:1034200001F04CFF2C235C4332685F43141926697A
:10343000D719002E1FD0BB69002B1ED13368002B7B
:103440001BDA01226368140011009C407B689940DC
:103450002B6809049BB20B432B60019BF5607B62D8
:10346000BA61230C03D00849084801F027FF002067
:10347000A4B2B460FEBD0648FCE70648FAE7C046C1
:10348000A6D00610E4E40108CA02000018D0061015
:1034900004028A0007028A00002373B50400019326
:1034A000984204D1DC212C48FF3101F007FF236949
:1034B000002B04D1EE212848490001F0FFFE63698A
:1034C000002B04D1DE212448FF3101F0F7FE236AEE
:1034D000002B04D1EF212048490001F0EFFE626982
:1034E000D5682B0C22D01B04136013681B4B20697A
:1034F0001B68B0331B68C3181B68002B16DA01A9C0
:10350000FFF7A2FE0026B0420CD10198E2690368E1
:103510001E0CDBB29A4205D9226A9B009B58002BF5
:1035200000D0984731002069FFF756FEADB2002D5C
:1035300009D063691D6000251B68636AAB4205D032
:1035400098476562A56163691B6873BDA36A002B18
:10355000F8D09847F6E7C046A6D0061074E70108F1
:1035600070B5084C05002368002B04D1BC21064827
:10357000FF3101F0A3FE2C20454320684019FFF7DE
:103580008BFF70BDE4E40108A6D0061070B50A4DAB
:1035900004002B682E331B78834204D8E9210748A6
:1035A000490001F08BFE2B681A00AC3210884443AE
:1035B000186A201870BDC04674E7010818D00610BC
:1035C000F8B5174B0D001B682E331B78834225D9A5
:1035D000002923D01F240B681C401FD1FFF7D6FF02
:1035E00007002B680F4EDA0821003060686804F08D
:1035F000BBFF21003800FFF7EFFD21002A003068F3
:10360000FFF708FE041E07D101003068FFF7E4FD54
:1036100003002000002B00D00348F8BD0348FCE75E
:1036200074E70108E8E4010801018A0003018A0047
:1036300010B50C00002A07D100290DD1FFF7A6FF15
:10364000064B1860200010BD002905D004490C600D
:103650004A60FFF7B5FFF6E70248F4E7E8E401083F
:103660001400000803018A00F7B5184F04003B68F6
:103670000191DE683368834226D90025A94202D130
:1036800004F007FC050038680368002B1ADA1F22D3
:1036900001232240934064097268A400141922682F
:1036A00013420DD09A43226000240021FFF794FDBD
:1036B000019B002B02D1280004F0EFFB2000FEBD8F
:1036C000034CF2E7034CF3E7034CF7E7E8E40108A7
:1036D000020188000301880004018A000A4B1B686C
:1036E000DB681A6882420DD959681F2342091840C5
:1036F0001E3B8340920050581840431E9841034B94
:10370000C01870470248FCE7E8E40108000188009F
:1037100004018A00F7B5214D01902D6808AC2C35C5
:103720002D7824781F2D36D90C259B002B40093D80
:103730002A401A436342634100251B011A43009249
:103740001F272A00490000291ED00026019B940053
:103750001C1923680120014205D03800B040834382
:103760000098B040034308364908202EF2D1236068
:10377000002A03D126685E40BE4307D124689C42DC
:1037800007D10132042ADED12800FEBD044D0122FA
:10379000D9E7034DF5E7034DF6E7C04674E70108A6
:1037A0000300C2000200C20070B5154E0400336869
:1037B0000D005B6CC340DB0703D4A821114801F066
:1037C0007DFD0F2D03D9A9210E4801F077FDF022D0
:1037D0002B041203290013400F2211400B433168C0
:1037E000A402096964188021C9016350605810401F
:1037F000401B431E9841044B4042184070BDC046D8
:1038000074E70108D7D006100300C20070B50400A9
:103810000D00002804D1BD212448490001F04EFDCF
:103820006B89DB0B04D07C212048FF3101F046FD81
:103830000222AB799343012B04D0BE211B484900DF
:1038400001F03CFD0222EB799343012B04D07E2151
:103850001648FF3101F032FD6A897F231100994338
:1038600022D10721AB7952020B4013436A7A3131DE
:1038700092071343EA79D2000A4013430122297ABE
:103880004A40920113431A0009490A409A420BD157
:103890006262606A0840801A43425841054B4042C8
:1038A0001840054BC01870BD0448FCE7D7D006107F
:1038B000DBFEFFE0FDFF3DFF0300C2000100C20090
:1038C00070B504000D00002804D1E1212E48490004
:1038D00001F0F4FC6B89DB0B04D0C4212A48FF31D2
:1038E00001F0ECFCAB79072B04D9E2212648490012
:1038F00001F0E4FCEB79072B04D9C6212248FF3103
:1039000001F0DCFC2B79073B182B04D9E3211E487E
:10391000490001F0D3FC6B897F22190091430A1EF4
:103920002ED12968FF3291430A006979A8790A43A8
:1039300007215B02084018436B7A31319B0718431B
:10394000EB79DB000B4018430123297A4B40F82127
:103950009B0118432B7949051B060B400343636009
:103960002260216891420DD16068084A1040C01A57
:1039700043425841064B40421840064BC01870BDA8
:103980000548FCE70348FAE7D7D00610FFFEFFFF23
:10399000FDFF3DFF0300C2000100C20010B5041E80
:1039A00003D10749074801F089FC8023626A1B069E
:1039B00013436362606A044BC00F0138184010BDA6
:1039C000FF010000D7D006100300C20010B5041E8E
:1039D00003D10749074801F071FC802362681B0688
:1039E000134363606068044BC00F0138184010BD7A
:1039F0004F020000D7D006100300C200F0B585B01A
:103A00001E000AAB1B7804000F001500039300286A
:103A100003D11049104801F051FC02232A009A43B7
:103A2000012A03D00D490C4801F048FC0223320062
:103A30009A43012A03D00A49074801F03FFC2000BD
:103A4000039B2A000093390033003030FFF762FEF9
:103A500005B0F0BDBA040000D7D00610BB040000CA
:103A6000BC040000F0B585B01E000AAB1B78040052
:103A70000F0015000393002803D10E490E4801F0F2
:103A80001DFC032D03D90D490B4801F017FC032E33
:103A900004D99F210848C90001F010FC2000039BB5
:103AA0002A000093390033001030FFF733FE05B0D1
:103AB000F0BDC046F6040000D7D00610F7040000A1
:103AC000036810B5020080241B0500D4403C82230B
:103AD0009B00D3580020DB05DB0DA34203D09023CD
:103AE0009B00D150013010BD036810B50400002BBD
:103AF00007D0012001F0D8FB2368013B2360002B95
:103B000001D0002010BD0148FCE7C0460200B20011
:103B1000030A08704B70030C000E8B70C87070475E
:103B200070B504000D00002841D000293FD0002BC3
:103B30003DD05A62F9220321D20083588B4383502F
:103B40002B68DBB2012B03D957311A4801F0B6FBC1
:103B5000AB68DBB2032B03D95B21164801F0AEFB47
:103B60006B68072B03D95C21124801F0A7FBEB68B7
:103B7000DBB2012B03D95D210E4801F09FFBC0226F
:103B8000E021AB6892011B0313406A68C90212046A
:103B90000A4013430122296800200A408021134370
:103BA000EA68490412060A401343236070BD0248C4
:103BB000FCE7C04604D106100400B20070B54E1EEA
:103BC000F3B204001500012B07D9042925D00829D8
:103BD00027D0E521154801F071FB032D03D9E6211B
:103BE000124801F06BFB072E14D8300004F096F950
:103BF000041312171212121B80231B01E418002C4D
:103C000008D0C0222D04920223681540084A1340B0
:103C10001D43256070BD8823EFE7032ADFD890237A
:103C2000EBE7032ADBD89823E7E7C04604D1061068
:103C3000FFFFFCFFF0B5160089B005930EAB04CB77
:103C400001901B780291049310AB1D78331FDBB2F7
:103C50000392129CFA2B04D83E213B48FF3101F01D
:103C60002DFB049B043BDBB2FA2B04D89F21364882
:103C7000490001F023FB6B1E012B08D9FB222B1FEF
:103C8000134204D040213048FF3101F017FB119B53
:103C90002D02DF07039B3604002B46D0059B002B2B
:103CA00004D1A0212848490001F008FB049BFF2B08
:103CB00004D142212448FF3101F000FBF0231B0115
:103CC0001D40636A0793C0239B021E40029B2B4347
:103CD00033433E0C00270024C0221F43019B2000D9
:103CE0001F650727049B92021B0413401D43039B7F
:103CF0009C4202D2154B984201D109B0F0BD019B04
:103D00005B6C3B40032B0CD8059B03991B5D013476
:103D10002B4332008C4200D200221343019AE4B2BA
:103D2000136507A8FFF7E0FEE1E7F0231B011D4044
:103D3000636A3F0C0793C0239B021E40029B2B43E8
:103D400033433E00C7E7C04604D106100200B2006C
:103D5000F7B50093043BDBB205000F001600099C89
:103D6000FA2B04D8AA211948FF3101F0A7FA731ED3
:103D70000193174B721E9A4204D9D521134849006A
:103D800001F09CFA07226B6C1340032B1CD8C02255
:103D9000009B92021B0413406A4680219288C9024C
:103DA0000A4313432B65381E0DD0089B2760F92268
:103DB000A660E36102230020A361D200A958013B61
:103DC0000B436660AB50FEBD0248FCE704D1061011
:103DD000FFFF00000100B200F7B50193043BDBB226
:103DE00005000F001600099CFA2B03D81549164848
:103DF00001F064FA002E21D007226B6C1340032BD4
:103E00001ED88023C021721E1B0392B21A43019B4D
:103E100089021B040B4013432B65381E0DD0089BF1
:103E2000E760F9226661236204230020A361D200C7
:103E3000A958023B0B432661AB50FEBD0348FCE78B
:103E40000348FAE76D02000004D106100400B20036
:103E50000100B200F0B51F00043BDBB28FB00600DA
:103E60000D001400FA2B03D85A495B4801F026FADA
:103E7000002C00D1AAE00722736C1340032B00D959
:103E8000A6E08023621E92B21B031343C0223F04AC
:103E9000920217401F433765281E0ED0149B002046
:103EA0005B6A07950393042309940C900A930A9B79
:103EB000042B02D1494B984201D10FB0F0BD099BB0
:103EC000079C00933300C43301931D680F231D40EA
:103ED000009B9D4200D91D00002D17D1009B079427
:103EE0000993002B0CD1F92202210320D200B358F0
:103EF0008B43B3500A900C9B002B01D00C9B98472E
:103F0000009B03A80993FFF7EFFDD0E7082D0AD126
:103F10003700D83738682100FFF7FAFD3868211DCF
:103F2000FFF7F6FD05E0012D09D13300D0331B6802
:103F30002370009B64195B1B0093019BC5E7022D56
:103F400006D13300D4331B6823701B0A6370F0E77B
:103F5000032D0AD13300D4331B6823701B0A63700E
:103F60003300D0331B68A370E3E73700D8373868D5
:103F70002100042DD4D0052D06D1FFF7C9FD330053
:103F8000D0331B682371D4E7062D08D1FFF7C0FD9D
:103F90003300D4331B6823711B0A6371C9E7072DF3
:103FA0000CD1FFF7B5FD3300D4331B6823711B0A16
:103FB00063713300D0331B68A371BAE7FFF7A8FD24
:103FC0003868211DFFF7A4FD0825B2E7044874E70F
:103FD000044872E7CA02000004D106100200B200D1
:103FE0000400B2000100B20000290CD00722436C8B
:103FF0001340032B09D8C023013989B21B0319438D
:104000000165002070470248FCE70248FAE7C04615
:104010000400B2000100B2008869704700230B6001
:104020004B608B600B61CB604B618B6180230268BE
:104030001B061343036070470268436970B51D2077
:10404000042A21D100200125053A1A604A78D206B7
:10405000120F2C00160084402640B44206D00130D6
:104060000528F6D1FF2200201A7170BD0428F9D06E
:1040700009180A7940001A601D3000221A715A711D
:10408000F3E72328EED002300A5CFF2AF9D01A6049
:10409000F3E70000F8B505000E0017000D4C3900DD
:1040A0002800FFF7B9FF864202D0013C002C0CD15A
:1040B00039002800FFF7B0FF301A43425841064B41
:1040C00040421840054BC018F8BD012001F0ECF843
:1040D000E5E7C046E9030000FEFF4DFF0200B20025
:1040E000F0B500270C0087B00E9D060010000A797D
:1040F00009680495039702936379C9B20193032376
:10410000009303003000FFF795FDB84216D12169F6
:104110003000FFF769FFB84210D1237D0C9A009060
:1041200001950D993000FFF757FEB84206D16C6A31
:104130000A4BAA69032A01D0984201D107B0F0BD09
:1041400000208442F5D00130013C01F0ADF860421E
:104150006041024B40421840EAE7C0460200B2000C
:10416000F7B500258C79C0B20134E40001942F002A
:1041700008248446085D84450BD10E19F079FF2888
:1041800007D17078B84204D3B678012E01D1070068
:104190002500019808348442ECD9002D0BD0491930
:1041A0000879907048795070887910700020CA782A
:1041B00092001A60FEBD0148FCE7C0468000B200D4
:1041C00030B58B6987B0DB680C001500002B0FD071
:1041D00019681A79012303932378C9B20293FF2344
:1041E0000193002304950093FFF724FD07B030BD31
:1041F0000048FBE78000B20070B516000022040002
:10420000080086B00A9D0392049519000378009275
:104210000293FF23200001931300FFF70BFD0028FA
:1042200006D103000095012231002000FFF712FEA5
:1042300006B070BD30B50F24012385B08D696C4484
:104240002370AB6A002B0BD01B680092DBB22200FC
:10425000FFF7D2FF002803D12378AA6B1340237005
:104260002078431E9841C0B205B030BDF0B50F00B4
:1042700087B0151E15D08E697469002C13D0227971
:10428000FF2A10D021680493012303933B78019205
:1042900002933368C9B200932B00FFF7CBFC07B041
:1042A000F0BD0248FBE70248F9E7C0460400B2004F
:1042B0008000B200F0B51F008B6989B01C6A050050
:1042C000002C47D0002A47D0586A0E9EB04243D3F4
:1042D0004869C6B24869002800D10E782168207963
:1042E000C9B2079110990296049100210391617956
:1042F00001911B6807990093130002002800FFF743
:1043000099FC002824D1A1684B1C12D121690029F5
:1043100004D02800FFF768FE002819D1109A237DE9
:1043200001920F9A3900009228000E9AFFF710FDB3
:104330000EE0109B227B0493FF23039001930090D7
:104340000300C9B202962800FFF774FC0028DDD0F4
:1043500009B0F0BD0148FBE70148F9E78000B20071
:104360000400B200F0B51F008B6989B09C6805009D
:10437000002C43D0002A43D04869C6B248690028BF
:1043800000D10E7821682079C9B207911099029660
:10439000049100210391617901911B6807990093B1
:1043A000130002002800FFF745FC002824D1A16873
:1043B0004B1C12D12169002904D02800FFF714FEFC
:1043C000002819D1109A237D01920F9A390000928A
:1043D00028000E9AFFF700FD0EE0109B227B04934D
:1043E000FF230390019300900300C9B202962800B6
:1043F000FFF720FC0028DDD009B0F0BD0148FBE745
:104400000148F9E78000B2000400B200F0B5BFB087
:1044100006900D0007921F00002903D1C249C3482E
:1044200000F04CFF002308AA1380937009AA1380A0
:1044300093706A6B0CAC05921A001A550133642B09
:10444000FBD13A0007990698FFF7B8FB059B002BB4
:1044500004D1B74B049304983FB0F0BD449B019442
:104460000293382308AA00930599079B0698FFF743
:1044700037FE04900028EED1A379062BE9D82378E3
:10448000532BE6D16378462BE3D1A378442BE0D1BC
:10449000E378502BDDD12379052BDAD96379012B11
:1044A000D7D100240AAB09AA0CA9A2480A94FFF7A5
:1044B00057FEFF200BAB08AA0CA900020B94FFF7D4
:1044C0004FFE0490A042C6D1AB68A34203D19A49E3
:1044D000964800F0F3FEEB68002B03D19749934810
:1044E00000F0ECFE2B69002B03D195498F4800F0BA
:1044F000E5FE6B69002B03D192498C4800F0DEFE8B
:10450000EB69002B03D19049884800F0D7FE2B6A55
:10451000002B03D18D49854800F0D0FEAB6A002BFB
:1045200003D18B49814800F0C9FE449B0CAC029337
:104530000B9B08AA00930194079B05990698FFF727
:10454000CFFDA37804905B079B0F0022032B01D0C3
:10455000804AD25C0D9B2A60002B36DB0133DB08DE
:10456000012211006B6016AB1B7804201B099940D7
:1045700006236962E9680B6000230B7129690B71DE
:1045800008600521AA63AA6A1371EB6A1160002B07
:1045900003D17149654800F091FE2B6B002B03D1CC
:1045A0006E49624800F08AFE00222B6B04A91A7142
:1045B0005A32521810784006400F052810D80122B0
:1045C00003F0ACFC086F757B6F6F8022033B120613
:1045D0001343C5E701225242EA631A60EB6A1A608C
:1045E0006022EB691F241A6000221A710F23159AAA
:1045F00016991A40013250000A0E224001324243FD
:104600004800800F564E4000805B0B4042436A6476
:104610000A0A14404022890400D4383A02210133A6
:1046200001345B00634353430CAEAB64AC68B378B6
:104630008F43012F48D020221A405FD0737A6171D6
:10464000236000232371337A5B0953D1013BA360BC
:104650001F220CAB1B7A052713402361022323750D
:104660002B68042B00D038E1449B09AA029325ABA8
:1046700001930A9B059900930698079BFFF730FD6D
:10468000049003000120002B00D0F1E0791E259B4F
:10469000042900D992E0080003F040FCA6A29E9AEB
:1046A0008C000221E9631A60EB6A352297E740210A
:1046B000E9631A60EB6A052291E78022EA63423AD5
:1046C0001A60EB6A01328AE710221A4051D0F37B5C
:1046D0006771236000232371B37B5B0945D1013BE4
:1046E000A3601F220CAB9B7B032713402361012394
:1046F0002375B5E7FF232173A360A9E7FF275B06B6
:10470000AED5F37A227123606271B37A5B0929D145
:10471000013BA3601F220CAB9B7A0427134023614B
:10472000022323759CE7C046AB09000044D1061064
:104730000500B20084FF0000E4090000E509000064
:10474000E6090000E7090000E8090000E9090000A7
:10475000EA09000031D10610C8080000C9080000AD
:104760003CD10610A7602273D4E7FF232773A36010
:10477000B7E73B4015D0737B227123606271337BB6
:104780005B090AD1013BA3601F220CAB1B7B0227F4
:10479000134023610123237562E7FF232273A36083
:1047A000F2E703222260043A23716371A26023615D
:1047B000237555E79B0601D5EC2323602B6A259AC8
:1047C00004294ED8080003F0A9FB79797931130048
:1047D000DB06F3D56C23F0E71B07EFD5BC23ECE732
:1047E0005B07EBD53C23E8E79B07E7D50C23E4E721
:1047F00080240120640014404042002C0AD03E2254
:1048000000211A603C3A19715A7198601A73196143
:104810001A7526E08021114018D034221C711A60CC
:104820005C7198601C731C61323AF1E780210120B1
:1048300011404042002909D034221A6000229860B9
:104840001A715A711A731A610232E1E74024224048
:104850002CD0122219711A6059719860197319615C
:10486000197525A92800FFF7E7FB002800D1F2E51C
:1048700001233618013E32781B389340AB61072381
:10488000159A4008584313000738C3400F210A40C7
:10489000D9050132C90E013152005B054A439B0F15
:1048A00015495B005B5A5A432A64D4E502211A7108
:1048B00019605A7198601A731A61A9E740210A4079
:1048C0004139002A06D012221A6000221A715A7148
:1048D0009960F0E702201860F8E702222B6A0121B4
:1048E0001A600022494299601A715A711A731A614A
:1048F0001A750CA9B6E7C04634D10610F0B589B0D8
:10490000061E079200D12DE1002900D12AE14B6853
:104910000593002B00D125E1002A00D122E10B688C
:104920000693002B00D11DE1002303930493039B06
:10493000059A9B00D458002C4FD023785A1E012A88
:1049400008D9FB22043B134204D099218648490030
:1049500000F0B4FC237A032B04D934218248FF31C0
:1049600000F0ACFCA369002B04D19A217E484900D9
:1049700000F0A4FCA3691B68013B032B04D936217A
:104980007948FF3100F09AFC2278501E072800D9A0
:10499000E6E003F0C3FA0432E534E5E5E5368023CA
:1049A000C0201B01F518237A80021F0429683840B3
:1049B0006E4F3940014329606168490723D5079943
:1049C00030000091A169FFF721FD00281BD00823CA
:1049D000039A9340049A1A430492039B013303936E
:1049E000039A069B9342A2D10020049B002B02D085
:1049F000B2200004184309B0F0BD8823D0E790230B
:104A0000CEE79823CCE763689B07E6D52169E06889
:104A100003F014FB002904D052215348FF3100F069
:104A20004DFC2369524A934202D95A1E134204D0C4
:104A3000A9214D48490000F041FCFF27E168A06929
:104A4000B9438268036AA96021694942B943E960B0
:104A500001680320013901406069471EB841000226
:104A600001432962002A37D010680021471C0CD06E
:104A7000117909048C46C021674689023940FF2715
:104A800007408020000607433943C020296451793C
:104A90008002090497680140696484460021781CFB
:104AA00008D06046117BFFB2090408408021090646
:104AB000394301430020A9641169814205D01F30A8
:104AC00001390140802000060843C021E864127DBE
:104AD000890212040A402A65002B32D0196800228C
:104AE000481C09D0C0201A7980021204024080209C
:104AF000C9B2000601430A43C0202A665A798002DF
:104B00001204996802406A6600224F1C07D01A7B83
:104B1000C9B2120402408020000601430A4300216A
:104B2000AA661A698A4205D01F31013A0A408021DB
:104B300009061143C022E9661B7D92021B04134043
:104B40002B67C0220221237A92021B041340626861
:104B5000FF311140802212060A4313432B603CE7C9
:104B6000044842E7034846E744D10610FFFFFCFF34
:104B7000FFFF00000400B200F7B50F000090150021
:104B80000193960800D101362C00B54200D93400BB
:104B90002D1B0C4B20009C4200D91800241A80B217
:104BA00000F082FB002CF4D1019A39000098FFF745
:104BB00041FB002803D0002DE6D10348FEBD2000B4
:104BC000FCE7C046FFFF00000200B200F0B51F0086
:104BD000002389B005900D0016000793994203D178
:104BE0001E491F4800F06AFB002F03D11D491C48D5
:104BF00000F064FBAA690E9B5268F3181A489342AE
:104C000027D909B0F0BD80230E9C5B029C4200D9DD
:104C10001C003100AB6907AA1B68013B9954090AC3
:104C2000002BFAD10F990193029100943B002900C7
:104C30000598FFF797FB0028E3D10F9A0321059809
:104C4000FFF728FA0028DCD10E9B36191B1B0E93A8
:104C50003F190E9B002BD6D1D3E7C0466D0B000049
:104C600044D106106E0B00000400B200F0B51F0026
:104C7000002389B004900C0015000793994203D1DA
:104C80002B492C4800F01AFB002F04D1BC212948E5
:104C9000090100F013FBA2690E9B5168EB188B42CF
:104CA00043D8536A244805930E9B002B01D109B0C9
:104CB000F0BD0599280003F0C1F90E9B059A5B1819
:104CC0000E9E934200D3561A0F9A21000498FFF7C4
:104CD00077FA0028EBD12900A36907AA1B68013BDA
:104CE0009954090A002BFAD10F9901930291009669
:104CF0003B0021000498FFF7DDFA0028D7D10F9A76
:104D000001210498FFF7C6F90028D0D1A2690F9BB2
:104D1000926C21000498FFF72FFF0028C7D10E9B4B
:104D2000BF199B1BAD190E93BEE70348BFE7C046F2
:104D3000BF0B000044D106100400B200F0B51D0006
:104D4000002385B001900C0016000393994203D113
:104D50002649274800F0B2FAA36977195A689742A2
:104D600042D89B6930001900009303F067F90029CD
:104D70003AD10099380003F061F91E48002930D07B
:104D800005B0F0BD0099300003F058F9009A6B1897
:104D90002F00934200D3571A0A9A21000198FFF777
:104DA0000FFA0028ECD13100A36903AA1B68013B6C
:104DB0009954090A002BFAD10A9B21000198FFF7A8
:104DC00055FA0028DCD1A36921001A6CFA239B0054
:104DD0005A4301980A9BFFF7CFFEF619ED1B0028F6
:104DE000CED1002DCED1CBE70248C9E71F0C000081
:104DF00044D106100400B200A6220549D2008B5807
:104E00000220DB439B0702D00123885818407047DB
:104E10000000264010B5094B441E1B683B331B782D
:104E2000A34203D80649074800F048FA8134064BEC
:104E3000FF34A400E058C00F10BDC04674E701085D
:104E4000EF030000A8D106100000264010B50F4B5C
:104E500004001B683A331B78834204D86E210C4847
:104E6000FF3100F02BFA0B4BA400E418D0239B0079
:104E7000E05807231840042807D1C0239B00E058BE
:104E80001F23034080204000184310BD74E7010831
:104E900079D106100000264010B5041E03D1174931
:104EA000174800F00BFAB023164ADB00D3580F2046
:104EB0009903DB01DB0F890BE371134B2160D3589E
:104EC000D904DB01DB0D2381B123DB00D358C90CEE
:104ED000A18019000140A17219090140E172D902B3
:104EE0009B009B0FA373094BC90CD358A1815A0592
:104EF000DB01520FDB0DA271238210BDA102000065
:104F000079D1061000002640840500008C050000C1
:104F100010B5104B421E1B683B331B78934216D9C9
:104F20007F221F248030FF300B4B8000C3581A4073
:104F30000A701A0C2240180A8A701A012040E240B6
:104F4000487000209B009B0FCA700B7110BD034876
:104F5000FCE7C04674E701080000264001004A0053
:104F6000F0B5574D89B02B6806003C331B7898424A
:104F700003D35449544800F0A1F9E0240122534BD3
:104F8000B700FF18A4003B599B069B0F9A402B6863
:104F900001923C331B789E4203D34D494A4800F0AE
:104FA0008DF90F233C591C402000FFF74FFF0328C9
:104FB00054D008D8012813D062D9FFF71DFF454B04
:104FC00002280BD10DE01223FF33984250D0142356
:104FD000FF33984251D0033B984241D0002601E074
:104FE0003D4B1E68002C4DD103AD1422210028003A
:104FF00003F0BAFA2800FFF74FFFB023334ADB0073
:10500000D358002B03DAAC7B023C631E9C41EA7947
:10501000039F531E9A41A8880132002C16D000230A
:10502000190003F01BF900230C0005003A003000C2
:10503000190003F013F9E6076A0832436308801881
:1050400059412A00230003F0E9F80600019B5808A3
:105050008019190002F06CFF09B0F0BD1F4BC0E7CA
:105060001A4A1F4BD358002BB8DA80263602B9E70C
:105070001C4B1B695B07F8D4B0E7144A1A4BF1E7E5
:105080001A4EAFE72B683B331B78A342DED303AD48
:1050900005220021280003F067FA29002000FFF70D
:1050A00037FF2000FFF7B6FE0024A04203D02C7982
:1050B000023C631E9C412F786878AA78ADE7C04611
:1050C00074E70108EB070000A8D106100000264095
:1050D000AC070000F0E40108F4E40108ECE4010886
:1050E0000C050000000027403C05000000127A007B
:1050F00070B5194E050033680C001A00283212787A
:105100001F2A15D882080721100088430FD10320D9
:105110002840C00084401B68920020339B18220066
:10512000FF24844019684A4014404C401C6070BD04
:105130001B8F8B4203D18021084800F0BFF83368F1
:1051400007201A68802328401B06184380239B01F0
:10515000E418A400A050EAE774E70108D8D10610CB
:105160000A4B10B51B681A00283212781F2A03D880
:10517000198FFFF7BDFF10BD80221B688900C91879
:1051800012028B585B005B088B50F4E774E7010850
:105190000A4B70B59B680A4E10300D008400B34274
:1051A00009D1002904D142210648FF3100F086F8D8
:1051B0003059355170BD044B1859FBE700ED00E044
:1051C00000900008D8D1061000000610F8B50600BF
:1051D0000D00002841D04368032B03D93C2120480F
:1051E00000F06CF80023F05E002828DB7188FFF7E0
:1051F0007FFF0024FF22032794460023F05E71689E
:1052000083B21F40FF006646BA4089013140D24355
:10521000B940002815DB134E83089B009B19C0265C
:10522000B6009F593A40114399510F4B9A680F4B62
:105230009A4202D12900FFF7ABFF2000F8BD0C4CC9
:10524000D8E70F263340083B074E9B089B009B196D
:10525000DE6932401143D961E7E7054CEDE7C0460E
:10526000D8D1061000E100E000ED00E00090000859
:105270000100560070B5802504002D02AC4205D80F
:10528000064B1868604302F0FBFD70BD044B1868C4
:1052900002F0F6FD034BE418F0E7C046A4910008C5
:1052A000A09100080080FFFF10B5034B1B78584306
:1052B00002F0E6FD10BDC046A891000870B50D00D3
:1052C000044C01001822200003F0E4FFA56101BE98
:1052D000FEE7C04658980008FEE7000002680A4B47
:1052E00010B5DA6142681A6282685A62C2689A62CC
:1052F0000269DA6242691A6382695A63C2699A630F
:10530000FFF7EAFF10BDC04658980008B0235B05C0
:105310005A782120002A01D05878C0B27047B023B3
:105320005B059A89002A02D0988980B27047802054
:105330004000FBE710B5074C23682E331B78002B89
:1053400004D1E92104484900FFF7B8FF2368186A2F
:1053500010BDC04674E7010818D006107FB50600DE
:105360000D00042803D92E492E48FFF7A7FF6B1E16
:10537000012B07D9FB222B1F134203D02A492948AE
:10538000FFF79CFF294BB600F458042D01D0012DE6
:1053900027D100200FE0A3682B420BD1E36829003E
:1053A0001A685B6802920193039302A823689847E6
:1053B0001F4B1C606469002C0BD01E4B9842EAD135
:1053C000012DE8D11A4B1B481A681B4B9A5104B0A7
:1053D00070BD012DFBD1174B9842F3D0164B9C5159
:1053E000F5E7022D06D1124B1B68181EEFD01C6981
:1053F00003E01C006369002BFBD10020002CE6D0E9
:10540000A3682B4209D1E36829001A685B680292FD
:105410000193039302A8236898472469EEE7C046E6
:10542000F509000007D20610F609000030E5010872
:105430002CE50108FF00420018E5010810B5041E24
:1054400003D111491148FFF739FFF222104BD20165
:105450001B68DB689A582260F022D2019A58626079
:105460000C4A9A58A2600C4A9A58E2600B4A9A5821
:1054700022610B4A9A5862610A4A9A58A2610A4A02
:105480009B58E36110BDC046140B000007D2061004
:1054900074E7010804780000087800000C78000028
:1054A00010780000147800001878000010B5041E71
:1054B00003D110491048FFF701FFF0220F4B61683C
:1054C0001B68D201DB689950A1680D4A9950E168C8
:1054D0000C4A995021690C4A995061690B4A9950BC
:1054E000A1690B4A9950E1690A4A99502168E8324A
:1054F000995010BD3C0B000007D2061074E701085C
:1055000004780000087800000C7800001078000093
:105510001478000018780000F7B50700012803D9B7
:1055200040494148FFF7CAFE404D6B68002B4AD105
:1055300002F0AFFC6B680190002B56D13C4E3368F3
:105540001A0041321278002A07D09B68E0331B68AA
:10555000DB0602D53748FFF771FFFFF7E0FE802337
:105560005B00984246D1380007F0E6FA0024336821
:105570001A0041321278002A17D0002815D09B68F3
:10558000E0331B68DB0610D5FFF7C0FE294B21284E
:1055900008D032681300AC33198807234B43126AD2
:1055A0009B18DB681800FFF781FF019802F075FC7B
:1055B000002C0ED16B68002B03D008210120FFF7CF
:1055C000CDFE2000FEBD01210800FFF7C7FE041E2E
:1055D000AED06B68002B03D002210120FFF7BEFE86
:1055E000154B9C42EDD0154CEBE704210120FFF751
:1055F000B5FEA3E7FFF79EFE3368B0331B68C01803
:105600000368002B0BDB04230D4A11690B43136164
:10561000012F02D030BF0020A8E720BFFBE7002009
:10562000054CA4E7B202000007D2061030E50108DD
:1056300074E70108F8E4010805004200FF00420099
:1056400000ED00E0C0228020064952008B58C005C2
:105650009B009B0803438B50802388581B06034301
:105660008B50704700002640F0B50125184B2C00E8
:105670001B68184E1F006D37397898688C402100E0
:105680008024E4050C438021C90044501C0072347E
:1056900024880322201804682640D424A40134431B
:1056A0001E0004603C786C367F193F783678986825
:1056B000BE4017006F331B782A409F408023A240D2
:1056C0003E431B0633431A4342504358F0BDC04685
:1056D00074E70108FF0000FF074B1A6813003D3311
:1056E0001B78052B07D913006D33197801238B40E4
:1056F0009168024A8B50704774E70108140C00004F
:1057000010B5064C064A00212000FDF707FC054AAB
:1057100001212000FDF702FC10BDC046800231408F
:1057200038D206106CD2061010B50020FDF718FF15
:1057300010BD000010B50020FFF712FC002829D092
:10574000154B1860154B1B681A1D1C68D36FE418A5
:105750002168090E013102F0EBFB114B1860216842
:10576000090AC9B2013102F0E3FB0E4B441E186076
:105770000D49200002F0DCFBFA210C4B01301870BF
:105780008900200002F0D4FB094B01301860094B5E
:10579000C003186010BDC0469891000874E7010866
:1057A0009C9100089491000840420F00A8910008C5
:1057B000A4910008A09100089023034A5B01D058EF
:1057C000032318407047C0460000204010B59024C5
:1057D00002F05FFB074B64011A5907491140074A61
:1057E0000A431A51102259681142FCD002F055FBAD
:1057F00010BDC04600002040FCFF00000100FA057B
:10580000F8B50700830504D09D2110484900FFF733
:1058100055FD90250E4C6D0102F03BFB63590600CF
:10582000DB439B0701D1FFF7D1FF80239B00E750AB
:105830006359084A1A40084B1343635110236268A6
:105840001A42FCD0300002F028FBF8BDA0D20610AE
:1058500000002040FCFF00000300FA05F8B5080036
:105860000D0014000E1E05D0731B9C4203DCE043A8
:10587000C0172040F8BD377839000348FEF720F9FB
:105880000028F9D00136EFE700006540002070B530
:1058900081420ED0D025074CAD00904209DA635901
:1058A0005E1CFCD0DBB20B5401300A2B01D00D2B57
:1058B000F3D170BD00006540F0B58DB01D0012AB96
:1058C00040CB02921B780F000393002306AA05A980
:1058D0000593069300F021F9041E3FD1224B3A00B4
:1058E00000930699029B059801F000FC002838DD22
:1058F000022008AA07A9FF300794089401F05CFA77
:10590000002802D06524644228E02900079801F0AD
:1059100079F80028F6D1033008AA07A9FF3001F072
:105920004BFA0028EED13100079800F0E1FD041E8B
:1059300014D109A9380000F008F9041E0ED1310075
:105940000A9800F0BBFB041E08D1039A29000B98AB
:1059500000F01AF90400099801F0ECFD20000DB0E8
:10596000F0BD1424CFE7C046005F2D00F0B51F0046
:10597000002387B00291039204A905AA06000493AC
:10598000059300F0CAF8041E1ED1059800F068F8CF
:10599000040002F0ABFD051E1CD0104B020000936A
:1059A00005992300049801F0A1FB00280FDD039B5B
:1059B000220000930197029B29003000FFF77CFF33
:1059C0000400280002F09CFD200007B0F0BD142464
:1059D0006442F6E764246442F6E7C046005F2D00A7
:1059E00010B5010004000B4803F02AFC0023984284
:1059F0000DD02100084803F023FC0123002806D025
:105A00002100064803F01CFC434243415B001800A0
:105A100010BDC046F4D30610FDD3061009D40610FD
:105A200010B5010004000B4803F00AFC0023984263
:105A30000DD02100084803F003FC0123002806D004
:105A40002100064803F0FCFB434243415B00180081
:105A500010BDC0460ED4061017D406101FD4061071
:105A6000032358438008984304307047F8B5C3684F
:105A70000D000860202B19D184680E4F002C01D135
:105A80002000F8BD266A002E06D031000A4803F037
:105A9000D7FB002802D16C602468EFE731003800A2
:105AA00003F0CEFB0028F7D1AC60F5E702204042BE
:105AB000E7E7C0462DD4061027D40610F0B507003E
:105AC0000D00002491B001AE002D02D1280011B0CC
:105AD000F0BD296A002904D0380003F0B1FB00288A
