:020000041006E4
:1000000000C002089B8F06100D000000F98F06103B
:1000100000000000000000000000000000000000E0
:10002000000000000000000000000000F58F061036
:100030000000000000000000F58F0610F58F06108C
:10004000F58F0610F58F0610F58F0610F58F061048
:10005000F58F0610F58F0610F58F0610F58F061038
:10006000F58F0610F58F0610F58F0610F58F061028
:10007000F58F0610F58F0610F58F0610F58F061018
:1000800010B5064C2378002B07D1054B002B02D06E
:10009000044800E000BF0123237010BDC8A500087C
:1000A0000000000078B20610044B10B5002B03D0FE
:1000B0000349044800E000BF10BDC0460000000036
:1000C000CCA5000878B20610F7B5684D2B68403310
:1000D0001B78002B00D101BEE02201206449920070
:1000E0008B589B069B0F98402B68019040331B78E0
:1000F000002B00D101BE0F238A5813402A683E32DC
:100100001278934200D301BE2A683E32127893429D
:1001100000D301BE2A683E321278934200D301BE5A
:10012000534A9C00A418D02207209200A2580240F3
:10013000042A07D1C0229200A25818301040802211
:10014000520002438820400082425ED005D8002A37
:100150000DD0022A50D000260AE01220FF30824241
:1001600058D01420FF308242F5D1424A4EE0424E30
:10017000002B57D1B0248020E4000A594004970393
:10018000024094463D4A3E4D885804328A584D59A3
:100190000C59C004BF0BC00C1900002C04DA9100EC
:1001A000890F02394C1EA1416246531E9A41013209
:1001B00000291AD0002818D0002A16D000231900D0
:1001C0000AF096F800230C0005003A0030001900F0
:1001D0000AF08EF8E6076A0832436308801859412E
:1001E0002A0023000AF064F80600019B58088019D1
:1001F000190009F0D1FFFEBDA620C0000A58002654
:10020000D2439207B4D00A58B2E71E4A8E58F60F6E
:10021000F603ADE704201C4A16690640A8D08026E4
:100220003602A5E72A683F3212789342DDD8013BB7
:10023000164D9A4213D97F271F226159080A0B0CC9
:100240000F4089001040890F1A40002364599C42D6
:1002500003DA02390B00591E8B411900A8E701BED1
:1002600000210A0008000F00EFE7C046E4A50008DF
:10027000000026403C05000000127A0084050000C2
:100280008C0500000C05000000002740FC05000064
:10029000074B5B68DB681A68002A06D05B68186841
:1002A00001231840034BC01870470348FCE7C046C1
:1002B000E4A500080001880004018A004378027860
:1002C0001B021A438378C0781B04134300061843AB
:1002D0007047F7B500258C79C0B20134E400019471
:1002E0002F0008248446085D84450BD10E19F0794F
:1002F000FF2807D17078B84204D3B678012E01D117
:1003000007002500019808348442ECD9002D0BD059
:1003100049190879907048795070887910700020D8
:10032000CA7892001A60FEBD0048FCE78000B20067
:10033000074A136833331B78834200D801BE136821
:100340001A00BA3212881B6A5043C0187047C04660
:10035000E4A5000870B504000020FFF7E9FF144B86
:1003600014491B68BC331A68002382180568002DE5
:1003700006DB8B4202D18420404270BD0133F5E799
:100380008B42F8D00123C460836000230A491068BF
:10039000002803DA8B42EED00133F8E78B42EAD033
:1003A000A0222368120600209342E6D01800E4E75A
:1003B000E4A50008983A0000009435771FB5084B73
:1003C000002402936B4602A8039301AB01940093AF
:1003D000FFF7C0FFA04200D00194019804B010BD07
:1003E000001B0035002803D00378013B1F2B00D9E8
:1003F00070470130F6E7002210B504001000A15C40
:100400000B00303B092B09D830380818531C032A3D
:1004100003D000011A00042BF1D110BD0B00413BA9
:10042000052B01D83738F0E70B00613B052B01D8CD
:100430005738EAE70020F0E7F0B50B7885B0039075
:1004400017004D1C222B17D0116000202AE05C2AD7
:1004500007D1019A5278002AF7D0019A013301326C
:100460000192019A01320192019A1278222A00D156
:10047000A7E0002AEBD1E8E701950023F4E72B7809
:100480005C2B11D0237001350134019B9D42F6D3C2
:100490000023039A23700833D36013000198029A53
:1004A00001301A6105B0F0BD6B78662B63D014D8AB
:1004B0002F2B61D007D8222B5ED0484B3D605B6864
:1004C00002989847C1E75C2B56D0622BF5D10823E0
:1004D00023700134063BED18D7E7722B50D006D8B5
:1004E0006E2BEAD10A2323700134083BF3E7742B07
:1004F00048D0752BE1D1019B5B1B052BDDDDA81CD2
:10050000FFF779FF364B374AC31806009342D4D918
:100510000028D2D0344B334AC318934234D8019ABE
:10052000AB1DD31A052BC8DDAB795C2BC5D1EB799C
:10053000752BC2D128000830FFF75DFF284B294AF0
:10054000C3189342B9D8294BB6021E4080238005B8
:10055000800D5B020643F6180C23254A96421FD9EC
:10056000244A9642A9D83F2030408026764206434E
:10057000E670042212E00C23237001340223AAE760
:100580000D23F9E70923F7E77F2804D91A4B98428E
:100590000ED90623E1E7062301222070A4189AE76A
:1005A0003F203040802676420643A6700322F5E7BE
:1005B0003F20802306405B421E4366708633022242
:1005C000ECE7019A501AC01A044B04301B68984794
:1005D0000290041E00D058E737E7C04680A000080C
:1005E0000024FFFFFF0300000028FFFF00FC0F00B6
:1005F000FFFF0000FFFF1000FF070000F8B5802696
:1006000004007600002C00D1F8BDE368276833426F
:1006100004D1A068002801D0FFF7F0FFE3680B4D7C
:10062000334204D12069002801D06B6898478022AA
:10063000E3689200134204D1206A002801D06B685D
:10064000984720006B6898473C00DBE780A00008D3
:1006500070B5056804000020FFF76AFE0023164904
:100660000268002A05DB8B4201D1FF2070BD0133F7
:10067000F6E78B42F9D0012223002A4000D02368FC
:100680000E4C2468BC342468C360012383600023BB
:1006900005192D68002D03DA8B42E6D00133F7E708
:1006A0008B42E2D0C068002A00D10068A0231B065C
:1006B0009842DBD10020D9E7983A0000E4A5000871
:1006C000002210B5094B86B00193039003AB0400E0
:1006D00001A8029304920591FFF7BAFF43425841E3
:1006E00040420440200006B010BDC0460022003544
:1006F000034B1B68BC331B68C0180068C00F7047F1
:10070000E4A50008DC23F0B5002487B09B05049322
:1007100004AE02AB736002902000039401911700B5
:10072000FFF706FE05002300144C2A68002A07DBA9
:10073000A34203D10120404207B0F0BD0133F4E7EA
:10074000A342F7D00123EE600026AB602800FFF73C
:10075000CFFF002803D0A642ECD00136F6E7A64230
:10076000E8D0A023049A1B069A4201D00498E3E73C
:10077000029B019A3B60039B1360DDE7983A0000FF
:1007800070B5FFF7A1FC002822D0124B1B681A009D
:10079000883212681B689B1819681C68090E0131A1
:1007A000240A09F0F9FCE1B2013109F0F5FC451E1B
:1007B0000949280009F0F0FCFA21084C01302072A8
:1007C0008900280009F0E8FC0130E060C0032061E6
:1007D00070BDC046E4A5000840420F0080A000089C
:1007E000174A30B513681C002C3424781F2C16D8F7
:1007F000820807241500A5432C1E0FD10334204086
:10080000A04081401B68920020339B180A00FF2102
:1008100081401C68624011406140196030BD9B8F6F
:100820008B4200D101BE13681A6807231840802349
:100830001B06184380239B01C91889008850EDE7E7
:10084000E4A50008F8B5436805000C00032B00D9A7
:1008500001BE0023E85E00282CDB6988FFF7C0FF9B
:100860000020FF27032639000023EA5E6D6893B25B
:100870001E40F600B140AD013D40C943B540002ADD
:100880001ADB134E93089B009B19C026B6009F5994
:1008900039400D439D510F490F4B8D689D4208D142
:1008A00089688B4205D1002C00D101BE1032920024
:1008B0009C50F8BD0948D4E70F263340083B054E4D
:1008C0009B089B009B19DE6931400D43DD61E2E727
:1008D00000E100E000ED00E000A00008010056008B
:1008E00010B5FFF7F1FB0C4B1B681A008832126839
:1008F0001B689B1819681C68090E01314B081818F1
:1009000009F04AFC240AE4B201346308C01821004B
:1009100009F042FC10BDC046E4A50008F0B58C46C5
:10092000002800D101BE83695868904219D91D6D15
:10093000002D03D00020DF6C874201D10A480DE072
:100940008300EC582668B24209D3E36861684B43E0
:100950009B199A4203D2634600201C60F0BD01300F
:10096000EAE70248FAE7C0460600B2000400B20017
:1009700000290CD00722436C1340032B09D8C02355
:10098000013989B21B0319430165002070470248F1
:10099000FCE70248FAE7C0460400B2000100B200DA
:1009A000F7B50200C4324C690D00CB6801921168A2
:1009B0000F220A40A24200D9220007000100D437CA
:1009C000D8310097002A12D1EB606C61002C0CD159
:1009D000F9220221D20083588B4383500320A8615F
:1009E0002B6A002B01D02B6A98476C61F7BD082A4F
:1009F00019D10E68370A1E705F70370C360E9F7063
:100A0000DE700E68370A1E715F71370C360E9F71EB
:100A1000DE710F269B18A41A019A12683240A24276
:100A2000D0D92200CEE7012A04D10600D03636689C
:100A30001E70EEE7022A05D1009E36681E70360A47
:100A40005E70E6E7032A09D1009E36681E70360AFA
:100A50005E700600D03636689E70DAE7042A08D148
:100A60000E68370A1E705F70370C360E9F70DE708E
:100A7000CFE7052A0CD10E68370A1E705F70370C5D
:100A8000360EDE7006009F70D03636681E71C0E7E5
:100A9000062A0DD10E68370A1E705F70370C360EAD
:100AA000DE70009E9F7036681E71360A5E71B0E778
:100AB000072A11D10E68370A1E705F70370C360E88
:100AC000DE70009E9F7036681E71360A5E710600E9
:100AD000D03636689E719CE70A68160A1A705E70F6
:100AE000160C120E9E70DA700A68160A1A715E7180
:100AF000160C120EDA719E7108228AE7F0B58B6827
:100B000085B00193030008330D680393DC6F0F2356
:100B10001C40073B1C1B019B00900F009C4200D90E
:100B20001C00009B009E943398360293002C14D135
:100B3000019B3D60BB60002B0DD1F9220120009B81
:100B4000D2009B58009983438B50B861FB69002BFE
:100B500001D0FB69984705B0F0BD082C16D12800DC
:100B6000FFF7ACFB3060281DFFF7A8FB3060019B4E
:100B70002D191B1B0193039BDC6F0F231C40073BAC
:100B80001C1B019B9C42D1D91C00CFE7012C04D136
:100B90002A78009B90331A60E9E7022C06D12A7864
:100BA0006B781B021343029A1360E0E7032C07D112
:100BB0006B782A781B021343029A1360AA78E8E73D
:100BC0002800FFF77BFB042CD0D03060052C01D12E
:100BD0002A79DEE7062C02D12A796B79E1E7072C26
:100BE00007D16B792A791B021343029A1360AA7901
:100BF000CFE7281DFFF762FB08243060B7E7F0B5A8
:100C0000490085B0019199000C230AAC1940247861
:100C1000093B1A400A436142614100261F2709012E
:100C20000A4303900292019D9900CD400F220024B7
:100C30001540039A51180A680120054205D0380072
:100C4000A04082430298A040024308346D08202C43
:100C5000F2D10A605C1E002B07D10B685A401F239B
:100C60009A4309D1300005B0F0BD0B68934205D11D
:100C70002300621CD7D1F5E7014EF3E7004EF7E7FA
:100C80000300C20010B5002800D101BE4B89DB0B68
:100C900000D001BE02238A799A43012A00D001BE06
:100CA000CA799A43012A00D001BE4A897F231400E1
:100CB0009C4322D107248B795202234013434A7A62
:100CC000313492071343CA79097AD2002240134380
:100CD00001224A40920113431A0009490A409A42EC
:100CE0000BD14262406A0840801A43425841054B8A
:100CF00040421840044BC01810BD0448FCE7C046F1
:100D0000DBFEFFE0FDFF3DFF0300C2000100C2006B
:100D1000F8B51E4D1700EA680E00002A00D101BE8A
:100D20002C24FF2144431800EA68084014191A0AC9
:100D30000A401B0CA36020606260FFF7F9FA2B6881
:100D40002061343361681B78994200D301BE0F4B98
:100D50001B681A6A0B0080335B01D3186361A368B8
:100D6000180C01D001BE01BE49011B0452180849EC
:100D7000180C0343521813600023A361069BE7611C
:100D80002662002B01D01B88A381F8BDE4A50008D2
:100D90000810000070B504000D00FFF7A9FC002842
:100DA00002D00020656070BD0048FCE701008A00A9
:100DB000F8B5264BDA68002A00D101BEDC68002CA9
:100DC00000D101BE2369002B00D101BE6369002B55
:100DD00000D101BE236A002B00D101BE6269D56833
:100DE0002B0C1ED01B04136020691368FFF780FCD6
:100DF000002816D027693800FFF77AFC061E0CD0B1
:100E0000F868E26903681E0CDBB2934205D2226ADD
:100E10009B009B58002B00D0984731002069FFF7BA
:100E2000B9FFADB2002D09D063691D6000251B68B4
:100E3000636AAB4205D098476562A56163691B6828
:100E4000F8BDA36A002BF8D09847F6E7E4A50008A0
:100E500010B5072900D901BE1F2314009C4300D000
:100E600001BE0E4B1B689C695B69001BC009000139
:100E7000C0181F231A40032907D8C9008B408A4095
:100E800004689C432243026010BD0439C9008B40B2
:100E90008A4044689C4322434260F5E7E4A5000889
:100EA000F0B5060085B00D001400002800D1F2E076
:100EB000072900D901BE2368012B00D901BE0F23E9
:100EC00062689A4300D001BE1F22237A934300D068
:100ED00001BEE368032B00D901BE2369012B00D9B1
:100EE00001BE6369012B00D901BE236A012B00D921
:100EF00001BE636A012B00D901BEA36A012B00D990
:100F000001BEE36A032B00D901BE236B072B00D976
:100F100001BEE369032B00D901BEA369012B00D9EF
:100F200001BE01231A00AA405C4F01926A0002929E
:100F3000103294463A68E169833210788019026869
:100F40000292A2691340AB4003220393634611400F
:100F50009940039B0B4361468A4001990A430299D9
:100F600091430B4303606368072D00D901BE0F2234
:100F70001900914300D001BE0F20AA0002923A68E6
:100F80000700813212780340B2181168A8008C461D
:100F9000A9008F4061468340B9430B431360227A16
:100FA00029003000FFF754FFE368082D00D901BE87
:100FB000032B00D901BE0320384A07001268034002
:100FC000803212786800B218116883408C4669003C
:100FD0008F406146B9430B4313602369082D00D944
:100FE00001BE012B00D901BE0199B269CF43012195
:100FF0000B40AB403A401343B3616269072D00D9FF
:1010000001BE012A00D901BE244B19680B008233AE
:101010001878843130180368029301231A40AA40DB
:101020009C46029B1F401743022207600427636A05
:1010300009785B001340A26A711892003A40674633
:101040001343226A08681740E26A3B43D70018221C
:101050003A40FF271A43236BB8435B013B401343DD
:10106000FE229C469200AB0013401A006346934058
:10107000184308602068072D00D901BE012804D953
:1010800001BE019B0020B36003E00028F9D1019B61
:10109000736005B0F0BD0248FBE7C046E4A5000858
:1010A00001005A0010B50020FFF742F9FFF720FBBE
:1010B000002844D1234A244913698B420FD010D809
:1010C000402B36D005D8002B37D0102B2FD01F48FF
:1010D0001FE0802B2FD0802149008B42F7D11A4886
:1010E00017E01B498B421CD009D8A02109068B426E
:1010F00023D01849A0208B42E9D1C00309E016494A
:101100008B4210D015498B420FD015498B42DED14E
:101110001448136801225B689A609A68002AFCD11F
:1011200010BDA420E9E71048F3E71048F1E71048A4
:10113000EFE71048EDE71048EBE70020E9E70D483E
:10114000EEE7C046E4A5000806005200FF0052008A
:10115000010000F0090000A0040000F0050000F00C
:10116000030000F001005200020052000300520090
:10117000010050000200500005005200024B8000A8
:101180001B6A5B68C0587047E4A50008034A5369AE
:10119000591C01DA013B53617047C04680A000082A
:1011A00010B5144C63695A1C23D0002B1ED12000AB
:1011B00011491830FFF746FB1822A35E002B06DB0F
:1011C0001F2213401E3A9A4013000C4A136000225B
:1011D0000B4B5A629A62DA625A631A639A63DA6351
:1011E0008023084A1B0611680B43136063690133AF
:1011F000636110BD80A000080912061000E100E044
:10120000E4A500080000424070B501251B4C1C4BB2
:10121000E3582B4209D01B4920002431FFF76EFC14
:10122000F823DB00E550E35870BD02252B4205D0C2
:10123000144920002431FFF7B3FBF1E704221342E5
:1012400006D005210F4BD963F823DB00E250EAE713
:101250000822134202D00B4B0621F4E710210B4267
:1012600006D00722074BDA63F823DB00E150DAE708
:1012700020210B42D8D0034BF5E7C0460000424086
:10128000CC070000E4A5000810B5002804D043787E
:101290007F2B01D9FFF77AFF10BD10B50B4A1368F9
:1012A000002B02D10124644205E01C780432844200
:1012B000F5D100240B600B68002B04D05B787F2BEA
:1012C00001D9FFF76DFF200010BDC04640A60610F3
:1012D0000223002803D00433012800D0F93318007A
:1012E0007047F7B5284E05003300FF335F7E0123BA
:1012F000002F03D0FE33012F00D1FA3BAB420ED1B9
:101300005820784333185B6A283001931F4B3618F6
:101310001F68002F10D1012464422000FEBD380058
:10132000FFF7D6FF01248542F7D1582078433318C0
:101330001B6D54300193E9E73A7804339542E7D1C5
:101340007B78BC687E2B02D98025AD0001E00024AB
:10135000012528190138290008F01EFF0300C020CC
:101360008000834200D96D0000237968019A002C27
:1013700003D18342CFD83360CFE71160556049195C
:10138000641B01330832F2E75CF2010840A6061044
:1013900010B5020001290DD00320022909D004381C
:1013A000002906D10120002A03D00430012A00D0F0
:1013B000FA3010BDFFF78CFFFBE703780422190019
:1013C00000209143012905D00130022B02D0062BC9
:1013D00000D002387047037800205A1E012A05D930
:1013E0000130052B02D0062B00D00238704770B5B3
:1013F00004000800FFF7EFFF00282ADB6023190034
:101400004143154A51188D6BC96BA54202D8491941
:10141000A14208D858431018026C436CD318944268
:1014200017D39C4215D2F0230C4A1B06E318002068
:1014300093420DD90A4B9C420BD9C022094B52054D
:101440005B6A1B689B695B689B189C4240414042F9
:1014500070BD0120FBE7C04614EE0108FFFF050048
:10146000FFFFFF1780A0000810B504002422002110
:1014700007F013FE200010BD70B590B007AE050058
:1014800030000C00FFF7F0FF80230D4A9B004E3226
:10149000039210220A930B4B1C340B930A4B01A8A6
:1014A00007930A4B0496019303AB029305940692AB
:1014B000FEF750FF002801D101232B7610B070BD3C
:1014C000E4A500080100C0040024800000090035E4
:1014D00010B50A780478012394420BD80CD34478D1
:1014E0004A78944206D807D340884A88904201D867
:1014F00090429B41180010BD01235B42FAE710B5F2
:101500000400FFF73DF90D4B0D4A1A6100225C61A2
:101510009A61DA611B685433187890420BD0FFF758
:10152000DFF9FA21890008F037FE0100054808F0CC
:1015300033FE054BC01809F07BF810BDE4A5000888
:101540000001001C60F5900098080000064B10B5E3
:101550001B6828209847041E03D02822002107F08A
:101560009CFD200010BDC04680A0000870B5144B43
:10157000144E3360FFF704F98023134D03202B60D2
:101580002B0008336B60FEF7D3FE04002B687060FD
:10159000DA080021686807F080FD00212000FFF7CD
:1015A000F9FB2368002B05DA0021E5602000A1602B
:1015B000FFF7F0FBF368002B01D1044BF36070BD23
:1015C0007CA90610E4A5000800000008B4A80008E3
:1015D00010B5010004000B4808F01AF800239842E7
:1015E0000DD02100084808F013F80123002806D088
:1015F0002100064808F00CF8434243415B00180004
:1016000010BDC0461CAC061025AC061031AC06104F
:1016100010B5010004000B4807F0FAFF00239842C0
:101620000DD02100084807F0F3FF0123002806D061
:101630002100064807F0ECFF434243415B001800DD
:1016400010BDC04636AC06103FAC061047AC0610C5
:10165000F0B507000D00002491B001AE002D02D1BD
:10166000280011B0F0BD296A002904D0380007F025
:10167000CFFF0028F4D0AB68002B06D00E2C12D878
:10168000A200955101341D00E8E72B68002BFAD128
:10169000002C0AD0013CA3009B591B68002BF2D1FF
:1016A000002CF7D1EFE70025DAE72500D8E710B5E1
:1016B000FFF7CEFF0124002809D08168002906D059
:1016C0000448FFF7C5FF002801D0C468E4B2200039
:1016D00010BDC0464FAC0610F0B5002685B0009393
:1016E000150003003400029003911F785A1C0192E8
:1016F000002F08D0039B002B0FDB1300029A9B1ACC
:10170000039A9A4209DA009BA34261D9002D01D0C5
:1017100000232B55200005B0F0BD3B00093B042BF6
:1017200034D9202F32D02C483900183008F00DFD64
:10173000031E05D12D2F0AD05F2F49D1264B5733D9
:10174000032E23D8300008F0E9FE05102335224B84
:101750005633F5E7002D06D0009A944238D21F4A3E
:101760009B1A9B002B55012610E0621C002D0BD00C
:10177000009991422CD919492C195B1A217818111A
:1017800001431B012170AB5414000226019BACE7FE
:10179000621C002D0BD00099914219D90F492C19C8
:1017A0005B1A2178981001439B012170AB541400FF
:1017B0000326EBE7002D08D0009AA24208D907497A
:1017C0002A195B1A11780B43137001340026DDE7E8
:1017D000012464429EE7C04640A6061058A60610A3
:1017E000F8B50E002E21170008F0AFFC041E0CD037
:1017F000451C2E21280008F0A8FC002805D0001B5D
:101800000138386000203560F8BD16204042FBE703
:10181000F0B5040085B00F001600002901D10020AA
:1018200013E004226F49380008F0A5FC002803D11A
:101830000223E360381D08E005226B49380008F0F8
:101840009AFC002803D1E060781D05B0F0BD0422A9
:101850006649380008F08FFC002806D101230122D8
:10186000E3600023A261E361E4E73B78222B05D12A
:10187000320039002000FEF7DFFDE6E72D2B03D014
:101880001A00303A092A24D800250A2203A9380070
:10189000039507F073FF030003988742BFD05A1CDB
:1018A0000AD1534A914211D10122514B5242A261B5
:1018B000E3610423E360C8E7002B07D1802212060E
:1018C000914203D1802300221B06F0E7A361E1616E
:1018D000EFE75B2B35D1781CFEF784FD037805001C
:1018E0005D2B26D00023013D01930093FFF72EFED0
:1018F000009B071E6FD0002B19D0019B186043601E
:10190000681CFEF76FFD320001003800FFF780FF12
:10191000FEF768FD051E06D0037801972C2BE5D055
:101920005D2B08D030600098FEF768FE77E70090E6
:10193000E6E7002300931023E360009B681CA3608C
:1019400083E77B2B4BD1781CFEF74CFD0378070017
:101950007D2B38D00023013F01930093FFF7F6FD64
:10196000009B051E37D0002B17D0019B18604360E9
:10197000781CFEF737FD320001002800FEF75CFD01
:10198000FEF730FD0028CED02B692B6200232B619F
:1019900003783A2B03D03060C5E70090E8E70130C8
:1019A000FEF720FD320001002800FFF731FFFEF7AF
:1019B00019FD071EB7D0037801952C2BCED07D2BB7
:1019C00003D03060AFE7002300932023E360009B47
:1019D000781CA36039E7002B00D120E7A3E737602C
:1019E0001DE7C04657AC06105CAC061062AC061092
:1019F000FFFFFF7F70B50600FFF7A8FD00230B4D2A
:101A000004002B6598420ED03000FEF7EBFC2A0054
:101A1000010050322000FFF7FBFE051E03D120001D
:101A2000FEF7ECFD2C00200070BDC046E4A50008C8
:101A300010B5034B1B7A584307F09EFA10BDC04601
:101A400080A00008F0B585B002930AAB070001CB77
:101A50000E9D01900CA80478101FC0B21B78FA28C4
:101A600000D801BE181FC0B2FA2800D801BE601EFF
:101A7000012804D9FB26201F304200D001BE2602D7
:101A8000F0240D982401C00303900198120400284B
:101A900040D00298002800D101BEC0208002FF2B58
:101AA00000D101BE02400020344021436E6A0A4347
:101AB000002502433A65C02228001B04920213400D
:101AC0001C43019B9D4202D2174B984201D105B0A5
:101AD000F0BD07227B6C1340032B0BD8029B0199AE
:101AE0005B5D01352343039A8D4200D200221343EC
:101AF0003B65EDB200208642E3D00130013EFFF7A6
:101B000097FF3000431E9841084B40421840064B57
:101B1000C018D6E7C02034408002024021436E6ADC
:101B20000A430398C4E7C0460200B200FEFF4DFF1F
:101B3000F0B587B002930B6805000E0010000A791B
:101B4000D9B224239C462B4C0C9FA4446346049397
:101B50000023039373790193032300930300280068
:101B6000FFF770FF002832D131692800FEF700FF2F
:101B700000282CD1337D1A1FD2B2FA2A00D801BE18
:101B8000002F33D007216A6C0A40032A30D8802204
:101B9000791E89B212030A43C0211B0489020B403B
:101BA00013432B650D9B00202363F9220423A763B5
:101BB000D2006064E363A958023B0B43AB50A56CB1
:101BC00067630D4BE26B032A01D0984201D107B045
:101BD000F0BD00208542F5D00130013DFFF728FF20
:101BE00068426841044B40421840EAE70348EEE788
:101BF0000348ECE7E4A500080200B2000400B200CC
:101C00000100B20030B58B6987B0DB680C001500AD
:101C1000002B0FD019681A79012303932378C9B2D6
:101C20000293FF230193002304950093FFF70AFF1B
:101C300007B030BD0048FBE78000B200F0B50500FA
:101C4000181FC0B28BB0FA2800D801BE0724686CF8
:101C50002040032801D9174C19E0C0201B04800242
:101C600003408020541E0003204303432B650C1EB9
:101C70000DD0109B00245E6A042303910592089402
:101C80000693069B042B02D10B4FBC4202D12000CD
:101C90000BB0F0BD002469462800FEF781FEA64285
:101CA000EFD00120013EFFF7C3FEA642E9D13C0080
:101CB000E7E7C0460100B2000200B200F0B5D5B0BF
:101CC00008900C0009921E00002900D101BE0023DB
:101CD000190010AA1380937011AA1380937012AA8E
:101CE00013809370626B079222AA99540133642B7C
:101CF000FBD1099B581EC3B2012B08D9099B042BA9
:101D000000D1CCE3082B01D100F0CFFB01BE032EA4
:101D100000D901BE072818D808F00AFC08001D00E9
:101D20001700C403170017001700CB038022089B7D
:101D300012019A18002A08D0C020330480021168CA
:101D40000340714801400B431360079B002B05D1F2
:101D50006E4B069307E3089B8822E9E7382322AD00
:101D600000930195099B10AA07990898FFF7E0FED8
:101D70000690002800D0F6E2AB79062BE8D82B7845
:101D8000532BE5D16B78462BE2D1AB78442BDFD1D6
:101D9000EB78502BDCD12B79052BD9D96B790B93B0
:101DA000012BD5D1139013AB11AA29005848FEF787
:101DB00090FA069B12AA1493290014AB5548FEF71B
:101DC00088FA554A069B904201D1E3642365FF20BF
:101DD000159310AA15AB22A90002FEF77AFA069015
:101DE000002800D0BFE2A368002B00D101BEE36849
:101DF000002B00D101BE2369002B00D101BE636915
:101E0000002B00D101BEE369002B00D101BE236A83
:101E1000002B00D101BEA36A002B00D101BE159B8F
:101E200022AD009310AA099B079901950898FFF726
:101E30007FFE01220A901000297F16AB8840179080
:101E40001000697F1970A97F8840E97F1A90197383
:101E5000692108A809181000C97F88406A211D90CF
:101E600008A80918C97F19766B210918C97F23AB07
:101E70008A402092DA7F3D231B18DA77AB78002264
:101E80005B079B0F032B02D0244A5732D25C22609F
:101E900023A8FEF713FA002830DB0130C008012226
:101EA00011002CAB1B7860601B099940062361620E
:101EB000E16804200B6000230B7121690B7108603D
:101EC0000521A263A26A1371E36A1160002B00D19D
:101ED00001BE236B002B00D101BE0022236B08A999
:101EE0001A71A232521810784006400F05281DD8EA
:101EF000012208F013FB15E7EDF3E7E78023033831
:101F00001B061843CBE7C046FFFFFCFF0500B200ED
:101F100084FF000081FF00008000B20040A6061090
:101F200001225242E2631A60E36A1A606022E369A6
:101F30001F271A6000221A710F232B9A2C991A401E
:101F4000013250000A0E3A4001324243BE4D480071
:101F5000800F40005A35405B0B40424362640A0ADE
:101F600017404022890400D4383A022001335B0034
:101F700001377B43534322AAA364A5689378864321
:101F8000012E00D1B1E02021194000D1C7E0537AE1
:101F900068712B6000232B71137A5B0900D0BAE0C3
:101FA000013BAB601F2222AB1B7A052613402B613D
:101FB00002232B752368042B00D0EEE131AB1B7894
:101FC0005A0601D4A14A0692012003422DD09B0754
:101FD00013D5E368002B10D019681A799C4B039035
:101FE00024330493099BC9B20293FF230193002376
:101FF00008980093FFF726FD0690069B1A00934B66
:102000009A4201D0002A21D1914B0022243304931B
:1020100001230393099B00920293FF23B7210193AD
:1020200008981300FFF70EFD0690069B002B0DD1BC
:102030003BAB0193139B11AA00930799099B089846
:10204000FFF776FD0690002800D1A6E0012054ABF2
:102050001B18C93B1A78012393401B38A36143081E
:102060000C930F232B9E0020334001335B000A9317
:10207000FA239B0080279C4618AD3300C3401F21E4
:102080001A090A405B0A1C390B403900022B06D0A2
:102090006146032B03D01021012B00D00F390A9B7E
:1020A00001325A434A4307302A600C351C28E4D1D8
:1020B0000C9B1038584354AB18180538FF38836808
:1020C0002364DBE00221E1631A60E36A35222CE736
:1020D0004021E1631A60E36A052226E78022E26379
:1020E000423A1A60E36A01321FE71021194033D0E7
:1020F000D37B6E712B6000232B71937B5B0927D1FF
:10210000013BAB601F2222AB9B7B032613402B615C
:1021100001232B754EE7FF232873AB6042E7FF26B0
:102120005B0600D446E7D37A29712B606971937AF4
:102130005B090AD1013BAB601F2222AB9B7A0426CC
:1021400013402B6102232B7534E7AE602973F3E74C
:10215000FF232E73AB60D5E7334015D0537B297135
:102160002B606971137B5B090AD1013BAB601F22B5
:1021700022AB1B7B022613402B6101232B7519E731
:10218000FF232973AB60F2E703222A60043A2B7124
:102190006B71AA602B612B750CE7013E3B9B042EF3
:1021A00009D8300008F0BAF91D19151103009B0673
:1021B00001D5EC232B60236A3B9A042E56D83000BD
:1021C00008F0ACF9DCDCDC311300DB06F3D56C2362
:1021D000F0E71B07EFD5BC23ECE75B07EBD53C230F
:1021E000E8E79B07E7D50C23E4E7802501206D0095
:1021F00015404042002D0AD03E2200211A603C3A90
:1022000019715A7198601A7319611A752EE080213C
:1022100011401FD034221D711A605D7198601D73CA
:102220001D61323AF1E7802101201140404200292E
:1022300010D034221A60002298601A715A711A73F1
:102240001A610232E1E7C04640A606108000B200E3
:10225000E4A5000840252A4000D187E01222197128
:102260001A605971986019731961197516AA3BA9FA
:10227000200004F0BDFD002800D0E8E6236D002B0F
:1022800071D022AB0193149B12AA00930799099B6A
:102290000898FFF74DFC0690002864D10700149BB6
:1022A0003B900C93844B07900A930221079A22AB30
:1022B000D25C0A4000D184E00A9B002B4AD16922FB
:1022C00008AB6831C918D2180798079B105CCB5C23
:1022D000B84200D0C6E05A1CD2B2E264012A3FD90B
:1022E0000025226D9B000992079A079F04329B18D4
:1022F0000C9308956822089B04375B19089308AB78
:102300009B18D95D0F23194000230B9A0A4200D174
:10231000B3E0682108AA5218D2590999150A0D92FA
:10232000079A0135BA1A043A8E58089A2D0232607B
:102330000C22534316AAD3181A785968B2609A68C7
:1023400032618D4200D3A2E00123F56073600C9BE3
:102350009F42CFD10A9B1A00574B9A4200D09CE073
:102360000023E3642365069855B0F0BD02211A717D
:1023700019605A7198601A731A6146E740210A4041
:102380004139002A06D012221A6000221A715A71AD
:102390009960F0E702201860F8E70222236A012121
:1023A0001A60002249421A715A7199601A731A61AF
:1023B0001A7522A916AA200004F01AFD0A9B06939A
:1023C00059E707995B18D87859780D901F208C46EB
:1023D0009B7808A9401802709B090320012B05D0A7
:1023E000181E03D00420022B00D020680022079D75
:1023F0003BAB2E1890422ED10022304D0999243546
:102400000291009004950392019261460898FFF7AB
:1024100019FB0A90002814D11F2608ABF618009566
:102420000300012231000898FFF708FC0A900028F9
:1024300007D17F00FBB20D9A377817407A1E97417B
:102440001F43079B08330793079A0C9B934200D3C3
:102450002BE71B4B7DE4B51A22A94D19ED789D544D
:102460000132C7E7079802339B00C3180793079808
:102470000C9B834200D327E7EBE701335200DBB22A
:10248000D2B2052B00D041E70D4A0A9241E7F16034
:10249000280007F081FE706059E70A9B59E4032E7B
:1024A00000D936E4089B902242E4032E01D9FFF7BD
:1024B00030FC089B98223BE40600B200E4A500082B
:1024C0000700B200F0B58DB009932D4B079008912D
:1024D000150096089E424DD8002E00D101362C00E2
:1024E000B54200D93400A54246D92D1B254B20000A
:1024F0009C4200D91800844240D9241A80B2FFF7C8
:1025000097FA002CF2D11F2704ABFF1801233B7070
:10251000089B9B6906939B6A002B26D01968099B30
:1025200003940493089BC9B21B7822000293FF23F3
:102530000094019307982300FFF784FA00280ED136
:10254000099B01220093390023000798FFF776FBCF
:10255000002804D1069B9A6B3B7813403B701F23E5
:1025600004AA9B181878002802D0002DB7D106487D
:102570000DB0F0BD1E00B2E70025B7E70024BDE7AF
:1025800040420F00FFFF00000200B20070B588B0AB
:1025900006ADE870002029712880A870FEF7EEFDD6
:1025A000104C06002434010022000F48FFF72AFBDC
:1025B000002815D101230494039333780200029379
:1025C00005230190009371212B000748FFF73AFA89
:1025D000002805D12300054A31000348FFF772FFA8
:1025E00008B070BDE4A500080000424020A107002B
:1025F000F0B500248BB009AEF07020000791348054
:10260000B470FEF7BBFD124F039424370497037890
:10261000104D02930423019400932200330065219E
:102620002800FFF70FFAA0420DD107226B6C134070
:10263000032B0AD8084B063A2B650799030000972D
:102640002800FFF7FBFA0BB0F0BD0448FBE7C046DB
:10265000E4A500080000424007000C000100B200A1
:102660006A4AF0B5130069331B788FB0002B03D191
:10267000537A002B00D126E2042B00D923E2644CCC
:10268000626A022B05D0032B00D18EE0012B00D013
:1026900016E2126813700C21013B59435D4A53182E
:1026A0005D6E9E6E1300220064335B181F7A303219
:1026B000310028001772FEF7F3FB3A0028003100C2
:1026C000FEF7C6FB544D03212A0054480832FEF79A
:1026D000E7FB112203215148FEF7BAFB2A0004212F
:1026E0003C324E48FEF7DCFB112204214B48FEF73A
:1026F000AFFB2A00052170324848FEF7D1FB1122BA
:1027000005214648FEF7A4FB454D06212A00434813
:102710002432FEF7C5FB112206214048FEF798FB44
:102720002A00072158323D48FEF7BAFB1122072143
:102730003A48FEF78DFB3B4F3B6840331B78022B3A
:1027400012D9E2230F20384A9B00D1588143D1503F
:10275000D15821308143080020210143D1508021EC
:10276000D05809060143D150FA23F92203212F4DF5
:102770009B00BB64D200AB5800268B43AB50882330
:102780005B022B606661FEF70BFD230020333B628A
:10279000636A06950893B3420BD1FEF7F7FC244C0D
:1027A00001221B4B52425A6175E1042112681170DB
:1027B00071E7236A0993002BEFD00796079B089ACD
:1027C0009B00D558002D00D1FBE02B785A1E012A22
:1027D00004D9FB22043B134200D001BE2B7A032B09
:1027E00000D901BEAB69002B00D101BE2A78501E72
:1027F000072800D96AE107F09BFE1D000E01690160
:1028000010016901690169011201C04614EE010855
:1028100080A0000840A60610C0A606108005314022
:1028200040A70610E4A50008000026400000424032
:102830000400B200AB4CC0272B7ABF0219042068F9
:102840003940A94F3840014304202160696808409D
:1028500009D0A969A548FFF731FA002803D0082359
:10286000079A93401E43AB691B68013B032B00D9B9
:1028700001BE002800D0A4E06B689B0700D4A0E054
:102880002969E86807F00EFD002900D001BE2B6918
:10289000974A934202D95A1E134200D001BEFF212B
:1028A0008C466746E968A869B9438268036AA160F3
:1028B00029694942B943E1600168032001390140B7
:1028C0006869471EB841000201432162002A35D0E1
:1028D00010680021471C0AD0C0271179BF020904E3
:1028E0003940674607408020000607433943C02728
:1028F00021645179BF020904906839406164002164
:10290000471C09D0C027117BBF020904394080272A
:10291000C0B23F06384301430020A16411698142DF
:1029200005D01F3001390140802000060843C02136
:10293000E064127D890212040A402265002B32D025
:1029400019680022481C09D0C0201A79800212049C
:1029500002408020C9B2000601430A43C02022661B
:102960005A798002120499680240626600224F1C64
:1029700007D01A7BC9B2120402408020000601432E
:102980000A430021A2661A698A4205D01F31013A22
:102990000A40802109061143C022E1661B7D920294
:1029A0001B0413402367C02202212B7A92021B04CE
:1029B00013406A68FF311140802212060A43134314
:1029C0002360079B01330793079A099B934200D02A
:1029D000F4E6002E00D07CE03000FEF7CFFB454D42
:1029E00003962B002433049303783200029301965C
:1029F000009633009F213D48FFF724F8041E00D0C5
:102A00006AE00721069B5A6C0A40032A09D9FEF79F
:102A1000BDFB394CC4E6394C0DE7394C0BE7394C5A
:102A200009E7394B069A1365069B5B6C0B40032B39
:102A3000EDD8069A354B0CAF13650623F9222F63A8
:102A40006B63AB63023B6E64EB63069BD2009958E9
:102A500002230B4306992E4E8B50EB6B032B02D0B7
:102A6000013E002E06D1EB6B032B07D0FEF78EFB49
:102A7000284C95E60120FEF7DBFFEEE73B78342B90
:102A800007D17B782A3B012B03D8BB78193B022B5B
:102A900042D9FEF77BFB20000FB0F0BD802303205E
:102AA00019432970FFF772FD041E15D15DE019432B
:102AB00004202970FFF76AFD002860D004000BE0B5
:102AC00001246442E7E701204042E5E7002E00D1FF
:102AD00063E6B22424043443FEF758FB002CDAD01A
:102AE0005EE6C04600084240FFFFFCFF0000424097
:102AF000FFFF0000E4A500080100B200800842408A
:102B000000094240800942403F000C0005000800D7
:102B1000E90300000200B200FB780F2BB9D13E7927
:102B2000032EB6D17B79902BB3D10020FEF726FB84
:102B3000012300222435049503930378B7210293DF
:102B40000192009213001448FEF77CFF041EC3D1CB
:102B50001F2504ABED1829003000FFF749FD041EC6
:102B6000BAD129784BB2002B98DA29000420FFF75C
:102B70003FFD041EB0D108212B780B4297D00020D6
:102B8000FEF7FCFA8022D8218369D2029A615A6941
:102B90001160024A1A649FE700004240701700006B
:102BA00070B504000D0086B00021142201A806F0C3
:102BB00074FA29002000FEF74BFD0400002C18D009
:102BC00021001C48FEF744FD0028F7D00569002DC0
:102BD0000AD0194E2900300006F01AFD00280BD14A
:102BE000310001A807F0BFFA210001A8FEF730FD6F
:102BF0000400200006B070BD104E2900300006F021
:102C000007FD0028ECD029000D4806F001FD002842
:102C1000E6D00C4E2900300006F0FAFC0028DFD088
:102C20002900094806F0F4FC0028DDD121000748FE
:102C3000C1E7C04667AC06106CAC061073AC06105A
:102C40007AAC061082AC06108AAC061090AC061066
:102C5000F0B5FA4CFA4BA544FA4C2360FA4B63608A
:102C6000FEF7C8FE0390002800D115E30100F748E5
:102C7000FEF7EEFC0190002800D109E3F44E0100BC
:102C80003000FFF78DFF019905003000FEF70FFDC2
:102C90000600002D00D1DAE2AF6908228897636E42
:102CA00088A97B408AAD2EA8899307F05EF8082298
:102CB0002EA9280007F059F8E64B2CA806CD06C32C
:102CC0008C96636E082273408CA98EAD8D9307F0AD
:102CD0004CF82CA90822280007F047F89022DD4B79
:102CE00092009B1806CD06C39097636E08225F4042
:102CF00090A992AD2AA8919707F037F808222AA93F
:102D0000280007F032F8D34B28A8603306CD06C35D
:102D10009496636E08225E4094A996AC959607F04F
:102D200024F8082228A9200007F01FF8A122C94B87
:102D300092009B1806CC06C30023C74D01992800BA
:102D40000293FFF72DFF019904002800FEF7AFFC66
:102D5000002C00D17EE29221E36889005A1E934143
:102D6000BC4ADBB250541100683113720B70A323BC
:102D70009B00D054B94D01992800FFF711FF01992C
:102D800004002800FEF793FC0490002C00D165E2BB
:102D9000E468AC4E63425C41B14B64421C40B14BB1
:102DA0000822E4188094736E80A9634082AD26A83F
:102DB000819306F0DAFF082226A9280006F0D5FF45
:102DC000A44F24A83B00183306CD06C3049B049AE5
:102DD0008493736E84A9534086AD0822859306F0D0
:102DE000C4FF082224A9280006F0BFFF93239B00FC
:102DF000FB1806CD06C37894736E08225C40799464
:102E000078A97AAC22A806F0B0FF082222A92000F7
:102E100006F0ABFF3B00783306CC06C3049B049A54
:102E20007C93736E7CA953407EAC082220A87D93CE
:102E300006F09BFF0822200020A906F096FFA4239D
:102E40009B00FF180CCC0CC7874D01992800FFF799
:102E5000A7FE019904002800FEF729FC0490002C2D
:102E600000D1FFE1A469774E6894736E0822634035
:102E700068A96AAD1EA8699306F077FF08221EA90B
:102E8000280006F072FF734F1CA83B00243306CDC8
:102E900006C3049B049A6C93736E6CA953406EAD89
:102EA00008226D9306F061FF08221CA9280006F095
:102EB0005CFF95239B00FB1806CD06C37094736ED0
:102EC00008225C40719470A972AC1AA806F04DFFFC
:102ED00008221AA9200006F048FF3B00843306CCE4
:102EE00006C3049B049A7493736E74A9534076AC22
:102EF000082218A8759306F038FF0822200018A9A8
:102F000006F033FFA6239B00FF180CCC0CC7574DCF
:102F100001992800FFF744FE019904002800FEF7FC
:102F2000C6FB0490002C00D1A0E1A469454E589442
:102F3000736E0822634058A95AAD16A8599306F03B
:102F400014FF082216A9280006F00FFF414F14A80D
:102F50003B002C3306CD06C3049B049A5C93736E2E
:102F60005CA953405EAD08225D9306F0FEFE082288
:102F700014A9280006F0F9FE97239B00FB1806CD44
:102F800006C36094736E08225C40619460A962ACD1
:102F900012A806F0EAFE082212A9200006F0E5FEBB
:102FA0003B008C3306CC06C3049B049A6493736E77
:102FB00064A9534066AC082210A8659306F0D5FEBC
:102FC0000822200010A906F0D0FEA8239B00FF18BD
:102FD0000CCC0CC7264C01992000FFF7E1FD0199AC
:102FE00005902000FEF763FB059B0490002B00D1A9
:102FF00040E100250824059B124F9B6948A90193D5
:1030000048937B6E019A4AAE534036A822004993FA
:1030100006F0ABFE36A92200300006F0A6FE2B001B
:103020000C4A0933DB00D31806CE06C3049B049A6E
:103030004C937B6E4CA953401CE0C0469CFDFFFFA7
:1030400005A1061080A0000819A106101CAC0610EE
:1030500054AD061014EE01082DAE061096AC061005
:10306000ABAAAAFAAAAAAA1A9EAC0610ADAC061080
:10307000B7AC06104EAE220034A84D9306F075FE94
:1030800034A92200300006F070FE2B00844A4D3334
:10309000DB00D31806CE06C3019B019A50937B6ECA
:1030A00050A9534052AE220032A8519306F05DFE63
:1030B00032A92200300006F058FE2B00784A153362
:1030C000DB00D31806CE06C3049B049A54937B6E90
:1030D00054A9534056AE220030A8559306F045FE41
:1030E000220030A9300006F040FE6B1D6C4ADB0068
:1030F000D318A12292009B18013506CE06C3032DDA
:1031000000D078E703996748FEF7A2FA059B040010
:10311000002B00D1BCE09921614B634A634E8900CA
:103120005A5044315A5001003000FFF739FD210058
:1031300005003000FEF7BBFA0690002D00D19DE09F
:10314000AB6904935A4E21003000FFF729FD21009E
:1031500005003000FEF7ABFA0790002D00D192E099
:10316000AB690593002308240193049B514F3893C6
:103170007B6E049A38A953403AAD22000EA83993C9
:1031800006F0F3FD0EA92200280006F0EEFD019BDB
:10319000434A0D331B01D31806CD06C3059B059A80
:1031A0003C937B6E3CA953403EAE22000CA83D935D
:1031B00006F0DBFD22000CA9300006F0D6FD019BD5
:1031C0000AA81D01364B5D192B00D83306CE06C365
:1031D000069B069A40937B6E40A9534042AE220064
:1031E000419306F0C2FD22000AA9300006F0BDFDA1
:1031F000B6239B00ED180CCE0CC5079B079A449391
:103200007B6E44A9534046AD220008A8459306F0C2
:10321000ACFD220008A9280006F0A7FD019B204A6A
:103220002E331B01D31806CD06C3019B0133019336
:10323000172B9AD1B2231A4A1B499B00D1500398ED
:10324000FDF7DCF9029899239B009D44F0BD012312
:103250005B4272E501235B4202938BE501235B42F3
:103260000293F1E501235B42029350E601235B42A6
:103270000293AFE601235B42029343E701235B42E3
:10328000049502935EE701235B420595029369E78B
:1032900001235B420293CDE705235B420293D1E712
:1032A00014EE0108C1AC061001010101CBAC0610FF
:1032B000D3AC061080A00008F7B5184C0700230017
:1032C000FF33587E3900FEF763F801A9C0B2FDF75D
:1032D000E4FF051E03D001256D422800FEBD0198C4
:1032E00043787F2B05D05BB2FF26002B02DB03F077
:1032F000FFFD2E00FDF7C8FF23005820FF335B7E43
:1033000058432C235F43C0192018031D9842E4D072
:103310000130421E1278B242F8D0DCE75CF20108BC
:1033200010B543787F2B05D05BB2FF20002B02DB6A
:1033300003F0DEFD00200B001C78844205D1013330
:103340005C1AA242F8D8012010BD0020FCE7FEE77D
:10335000FDE7FCE7FBE7FAE7F9E7F8E7F7E7F6E769
:103360007047F0B5D5B006910100CE48FEF770F970
:10337000002801D100F002FC83680293039300232C
:103380001F0005930193039B002B00D098E0029B44
:10339000DB680193202B00D0F1E3029C2100C2489E
:1033A000FEF756F9051E00D176E1037E069A9A4291
:1033B00000D071E10100BD48FEF74AF9BC4C00287D
:1033C00000D163E18269BB4B3C925B6E3CA95340E8
:1033D0003EAE082220A83D9306F0C7FC082220A993
:1033E000300006F0C2FC230006CE06C32900B24816
:1033F000FEF72EF91423002800D08369E36029002A
:10340000AE48FEF725F90123002802D0C3685A1EF2
:10341000934123742900AA48FEF71AF9002800D125
:1034200037E1836926006361002335363370290054
:10343000A448FEF70DF9002807D00169A24806F05C
:10344000E7F8002801D101233370230035331B78BE
:1034500095342370029E002F00D090E331009248F3
:10346000FEF7F6F8002800D142E18369904C1CADCC
:10347000DFB222002B0003CA03C3082229001EA8C2
:1034800006F073FC8B4B1E9A1F995B6E4B409A4261
:1034900001D0FFF75CFF2B689F4200D028E131008C
:1034A0008A48FEF7D5F8002800D11AE26023826925
:1034B000571E7B43E41802233434227003931EE129
:1034C00003998348FEF7C4F8002802D08668002ECE
:1034D00003D1039B1B68039355E731007D48FEF73A
:1034E000B7F8002800D1AEE0002503697A4C0493B8
:1034F0002434AB001959049806F08AF8002800D14A
:1035000040E30135042DF4D10024734F343707977D
:10351000079AA3009958049806F07AF8071E05D078
:103520000134172CF4D10527183C7F4231006B4839
:10353000FEF78EF8002801D08369059331006848B2
:10354000FEF786F8002813D000218369C269019133
:10355000019901310191002A01D1AB4205D90199AC
:103560006D001D29F4D11F230193631C05D16AE06E
:10357000631C68D0019B002B65D04D4B22019B182A
:10358000B62246AD92009B182A0003CB03C2082244
:10359000290048A806F0E9FB464B489A49995B6E1A
:1035A0004B409A4201D0FFF7D2FE2B68012B18D175
:1035B000059B059A4E933F4B4EA95B6E4CAD534015
:1035C00044A808224F9306F0D0FB082244A9280003
:1035D00006F0CBFB2200364B0D3212019B1806CDB4
:1035E00006C32200324B2E3240AD12019B182A0036
:1035F00003CB03C20822290042A806F0B6FB2D4BDC
:10360000429A43995B6E4B409A4201D0FFF79FFE6E
:103610002B68012B17D1019B019A5293254B52A97C
:103620005B6E50AD53404AA80822539306F09DFBB1
:10363000082228004AA906F098FB1D4B24011C19FA
:10364000D8340CCD0CC4366841E72649049805F0FF
:10365000DFFF0028F7D131002048FDF7F9FF0028EF
:1036600007D0134B204A9A5C012A02D18269C833E1
:103670001A6031001A48FDF7EBFF0028E3D00C4B2D
:103680001A4A9A5C012ADED1CC339FE201277F429D
:10369000ACE6FA231B01C5E62468002C00D07DE6C9
:1036A000D8E6C0461CAC061054AD0610FEAC0610A1
:1036B00014EE010880A0000805AD06100DAD06103F
:1036C00018AD061024AD061031AD061036AD06104B
:1036D000C1AC061067AC0610C0A70610CBAC061034
:1036E000D3AC0610F6AC0610CA020000CB020000F4
:1036F0003668002E00D0B1E6012337000393002E78
:1037000000D0F2E03100CD48FDF7A2FF0190002883
:1037100000D05CE13100CA48FDF79AFFC94C00288F
:103720000FD0442392227B439200E3189B181B780E
:10373000012B06D1C2685F33511E8A417B43E318D7
:103740001A723100C048FDF783FF0190002839D07C
:1037500044237B43E418932312AD9B00E4182B0011
:1037600014A806CC06C30822290006F0FEFAB74CBE
:10377000149A1599636E4B409A4201D0FFF7E7FD0A
:103780002B68012B1ED1019B34A9DB6810A85A1E9F
:103790009341AF4A5B421340AE4A9B183493626E2A
:1037A00036AC53400822359306F0DFFA082210A900
:1037B000200006F0DAFA60227A43A24B9B181833F5
:1037C00006CC06C33100A448FDF742FF0190002853
:1037D00033D044237B439B4A0CACD31895229200F0
:1037E0009B18220003CB03C2082221000EA806F07A
:1037F000BCFA964D0E9A0F996B6E4B409A4201D0CF
:10380000FFF7A5FD2368012B17D1019B30A99B6908
:1038100032AC30936A6E0AA853400822319306F006
:10382000A4FA08220AA9200006F09FFA60237B432D
:10383000844AD318243306CC06C331008748FDF7E9
:1038400007FF002800D11BE1C368102B00D017E14F
:10385000002385680193002D00D111E14422019BD2
:103860007A430533DB009A18764B22AC9B189022E2
:1038700092009B18220003CB03C20822210024A837
:1038800006F073FA714B249A25995B6E4B409A426D
:1038900001D0FFF75CFD2368012B1AD1AB696B4A9D
:1038A0002C93526E2CA953402EAC082226A82D939F
:1038B00006F05BFA082226A9200006F056FA0C232F
:1038C0007B43019A9B1809335E4ADB00D31806CC70
:1038D00006C3019B01330193032B00D1D0E02D6877
:1038E000B9E701230700039309E731005C48FDF7BE
:1038F000AFFE002800D105E78468002C00D101E765
:1039000021005848FDF7A4FE00282FD0056956492C
:10391000280005F07DFE00282AD121005348FDF73C
:1039200097FE00280ED0442399217B43454A890005
:10393000D3185B181B78012B04D15F337B43D2185B
:103940008369936321004A48FDF782FE00280DD069
:1039500044237B433B4A4749D3185B181B78012B10
:1039600004D15F337B43D2188369D3632468C4E7EF
:103970004149280005F04CFE0028F7D121003B48C2
:10398000FDF766FE00280DD044237B432D4A3B49BA
:10399000D3185B181B78012B04D15F337B43D218FB
:1039A0008369136421003248FDF752FE0028DDD000
:1039B00044237B43234A3149D3185B181B78012BDE
:1039C000D4D15F337B43D21883695364CEE7442359
:1039D0007B431C4A18ACD318972292009B182200F4
:1039E00003CB03C2082221001AA806F0BEF9174D26
:1039F0001A9A1B996B6E4B409A4201D0FFF7A7FCB5
:103A00002368012B00D085E6019B38A99B693AAC5D
:103A100038936A6E16A853400822399306F0A5F928
:103A2000082216A9200006F0A0F960237B43054A6E
:103A3000D3182C3306CC06C36CE6C046ADAC0610DA
:103A40002DAE061014EE010896AC061080A00008FA
:103A500055555505555555159EAC0610B7AC061075
:103A6000C1AC061067AC061042AD0610CBAC061018
:103A7000D3AC06106502000047AD061066020000D8
:103A800031005448FDF7E4FD60237B43524CE318BA
:103A9000002866D082695A7231005048FDF7D8FD7F
:103AA00060237B43E31801330122002804D0C1695D
:103AB00082690A43511E8A41DA77002F1CD13100F6
:103AC0004748FDF7C5FD1423002800D08369E3664D
:103AD00031004448FDF7BCFD002844D0C3685A1E9D
:103AE000934122007032137031003F48FDF7B0FD62
:103AF00000283CD083696367039B022B3ED1029B65
:103B0000029EDB680193202B29D131003748FDF755
:103B10009FFD00282ED08269D3B2022B2AD1571ED6
:103B200060227A43A41822003432137031003048E6
:103B3000FDF78EFD002812D082692E4B28925B6E15
:103B400028A953402AAD082208A8299306F00DF9A8
:103B50000822280008A906F008F90CCD0CC401239E
:103B6000ACE4587298E7230070331870BCE7FA236E
:103B70001B01C0E73668002EC7D1F0E700273800E8
:103B800055B0F0BD1C49049805F042FD002800D056
:103B90005BE531001948FDF75BFD002808D0B22233
:103BA0000D4B92009A5C012A02D18269C0331A60DF
:103BB00031001348FDF74CFD002800D143E5064BCA
:103BC000104A9A5CC433012A00D03CE582691A602D
:103BD00039E5C0464FAD061014EE010857AD06108A
:103BE00005AD06100DAD061018AD061036AD061069
:103BF00054AD061080A0000862AD0610CBAC0610D4
:103C0000D3AC0610C9020000F0B58BB001900D00D6
:103C100016000C00002A01D0541E641806A90A00E0
:103C20002D4BD03381CB81C2082208A806F09DF825
:103C30002A4B089A09995B6E4B409A4201D0FFF7D4
:103C400086FB02AB9C466246234B069FD83303CBD0
:103C500003C20822614604A806F087F81F4B049AA5
:103C600005995B6E4B409A4201D0FFF770FB012330
:103C7000029A01329340DB19BD4225D39D42924105
:103C8000A74203D8A34201D901225242BD4201D822
:103C9000A74216D39D4201D2A34212D3002A10D1CB
:103CA00001992800FDF7A3FB002806D1002E04D0BF
:103CB000701E40190199FDF79AFB0BB0F0BD002270
:103CC000E6E701204042F8E7A742F8D80022A342E5
:103CD000DCD901225242DBE714EE010880A0000883
:103CE000F0B5836893B007001600934205D2E12136
:103CF0008D4A8E4B1032490006E08B4207D8C42112
:103D0000894A8B4B1032FF318A4805F083F94468A9
:103D100052181B199A4204D3834A874B1032E2216E
:103D2000E9E7641832002100FFF76EFF051E49D154
:103D30007B787F2B17D13619670A760A7F027602C5
:103D4000B74204D13800FDF7DAFB13B0F0BD012013
:103D5000F51B6D0A4042002DF7D0013D6802C019E5
:103D6000FDF7CDFBF7E75BB2002B2BDAFDF706FA88
:103D7000836906000A939B690F950893E8231B0645
:103D8000E418089B109559422140013B5B180993A8
:103D90000A9B07915B680693069A099B934211D28E
:103DA0000A9B0A001B6C10A90B93FCF7B7FD041EBD
:103DB00000D0B1E0109BDA681D685F68089B06922E
:103DC000934202D201204042BFE7069B5F436B1E35
:103DD000FF18079B0699581B06F064FA0029F1D1D9
:103DE000099BBB420AD21A0010A93000FCF796FDCD
:103DF000041E12D1109B1D68DB680693099B06996F
:103E0000581C401B06F04EFA0029DBD1089B002B02
:103E100007D1601E8441604297E7484B9842D1D059
:103E2000ECE7079A10A93000FCF778FD099F041E03
:103E30000ED1109B1A695F680B92DA6806921A68B5
:103E4000069B013A5F43099BD7199F4200D91F0087
:103E5000FA230B9A9B0053430C9335E01202110096
:103E60001A5C013311430A0049E02A79FF2A4FD036
:103E7000324B98424CD000284CD1119B99680123B9
:103E80002F4D0393243504953378019202932368D0
:103E9000C9B200932B480FABFDF7D4FD041EB5D17A
:103EA0002B000C9A31002748FEF70CFB089B069A62
:103EB00004009342ADD99446079B63440793089B43
:103EC0009B1A08930028A1D1079BBB429ED21C4A93
:103ED000310024321B48FDF795FE041E96D10A9B43
:103EE000079A1B680FA9013B5A54120A002BFAD1FA
:103EF000B4691193226865690D921A000FA80D9993
:103F00009942ABD111A93000FCF708FD002DACD1CE
:103F10000D4C7BE72968B2E7084B984200D151E786
:103F2000089B2F00069354E740A8061073AD0610B7
:103F30008DAD0610D8AC0610A6AD06100400B20078
:103F4000E4A50008000042408000B200F0B54768D8
:103F50008DB0060006921D008F4207D8AD214C4A55
:103F60004C4B213249004C4805F054F8CB189F4285
:103F700005D85C21464A494B2132FF31F3E77F18CF
:103F80002A003900FFF740FE041E00D07DE0707863
:103F90007F2807D12A003900069805F0E6FE2000A8
:103FA0000DB0F0BD43B2002B6FDA7F231840FDF750
:103FB000E5F8E8231B06FB18061E07930B9400D1B7
:103FC00001BE069B002B00D101BEB269079B516860
:103FD000EB188B4259D897683148002D03D1441E05
:103FE000A0414042DCE7B369079A18680BAB0400B4
:103FF000013CE254120A002CFAD13A7909923A684B
:104000000394D1B2274A2432049208923278029261
:104010007A79009001922448099AFDF713FD00284F
:1040200033D1B9684B1C20D13969002904D01E480E
:10403000FCF79EFC002828D180232C005B029D42C7
:1040400000D91C00174A3B7D2432009206992200B9
:104050001548FDF7F3FD002817D1079B2D1B1B19F1
:104060000793069B1B190693B7E7089B3A7B0493BB
:1040700003943378C9B20293FF23009401930A4852
:104080002300FDF7DFFC0028CED00120A9E7C046C1
:1040900040A80610D2AD0610D8AC0610EAAD061046
:1040A0000400B200E4A5000800004240F7B5002576
:1040B0000127144B2900FF335C7E3E002000FDF7F2
:1040C00067F901A9C0B2FDF7E8F8011E0DD1582229
:1040D00062432C246C430B4B1219D21801982023F5
:1040E000FFF734FF0600701E86410198FDF7CCF8FB
:1040F000002E03D03E006E403000FEBD012DFBD0EF
:104100003D00D6E75CF2010870B50C0001231100F8
:1041100022000500FFF71AFF012200280FDB002C08
:1041200006D021002800FFF7FBF80323002804D164
:104130002378013B5A1E9341013300222370100063
:1041400070BDF0B587B00D00C0B201A9FDF7A5F8AC
:104150000126002821D1019C1023A16802AA103950
:104160002000FFF7F3FE002814DB102202A9200034
:10417000FFF7D6F8002813D003232B706B46A168F5
:10418000DF1C283901233A002000FFF7DFFE00285A
:1041900011DA01260198FDF777F8300007B0F0BD7D
:1041A00016491022343102A805F0C0FF431E984181
:1041B00001302870E2E70F263B7801221E401B09E0
:1041C0006E702B7139002000FFF7AAF8002801D18A
:1041D000042E03D901236B7000232B71A268A91C44
:1041E000203A2000FFF790FF0028D2D1A268E91CF6
:1041F000183A2000FFF788FF0600CBE740A806101A
:10420000F0B51E00036885B0040000910192002BF8
:1042100002D04368002B1CD10120404237E06A885D
:104220002189171DBC461B4FB94202D02D888D42F3
:104230000DD1002E02D003A90988318000990433E2
:104240000B60019B1A802369634423611FE0634470
:104250002361226963699A4218D223685B89002B23
:1042600004D0E368934201D10433236103AD0423F6
:104270002A0021696068FFF769FE0028CCD1A27A84
:104280002369002ACBD0E2689A42C8D8012005B041
:10429000F0BDC046FFFF0000F0B587B002930CAB45
:1042A0001B7804000D0000920393002A05D101231E
:1042B0005B420193019807B0F0BDCB680F8905AE52
:1042C000FF183200042339000098FFF73FFE0190E9
:1042D0000028ECD1144A31886B89914221D1718830
:1042E0009942E4D1C919042332000098FFF72EFE49
:1042F0000028DCD105AA0D4B11889942D7D1009B2B
:10430000256063606B461B8923816B461B7BA37210
:104310006B89DB19E3605288D31863613B1D23610D
:10432000C8E7002BE6D0C2E7086900000769000073
:1043300030B5154C8BB006A923000A00683321CB99
:1043400021C2082208A805F010FD089A099B616E99
:104350004B409A4201D0FEF7FAFF6D46069B04A936
:10436000013B0493626E02A853400822059305F0B6
:10437000FCFC082202A9280005F0F7FC68340CCDEB
:104380000CC40BB030BDC04680A00008F0B5514B46
:10439000514D89B00290059506A8703350CB50C09E
:1043A0000C0012018B180393A678E068A18822788C
:1043B0006378B446002800D101BE032A00D901BEAB
:1043C000032B00D901BE454E376830373F781F2F89
:1043D00000D876E0674610300097FCF710FC059097
:1043E000059B002B5CD1E0680595A188002800D1D1
:1043F00001BE336830331B781F2B64D97F235940AB
:1044000000230093013310301A00FCF7F8FB0590ED
:10441000059B002B44D16389E0689C460595A279F1
:10442000E379277A002800D101BE160002218E43CD
:10443000012E00D001BE1E0002218E43012E00D0AD
:1044400001BE264E3668303636781F2E3DD961467D
:104450003030C9B20097FCF7D2FB0590059B002BCA
:104460001ED1E06805956189002800D101BE1B4B73
:104470001B6830331B781F2B29D97F235940002319
:1044800000930133C9B230301A00FCF7B8FB059035
:10449000059B002B04D1039B1034A34200D083E77B
:1044A000059B06AC002B04D122000A4B783303CBCA
:1044B00003C2FFF73DFF029B06CC06C3029809B07A
:1044C000F0BD07488BE70648A1E70548C5E7044863
:1044D000DDE7C04680A000080300C200E4A5000894
:1044E0000200C200F0B58BB003AD9446070028006F
:1044F0000C00624E62490093029670310CC90CC0E8
:10450000634607936B461B7807A90B716378A06815
:104510004B71A3788B71E378CB7123790B7263793C
:104520004B72E38800964B81002800D101BE4B8975
:10453000DB0B00D001BE8B79072B00D901BECB79F4
:10454000072B00D901BE0B79073B182B00D901BE00
:104550004B897F221E009643321E00D087E0079EC3
:10456000FF32964332004E795B02164301968A79F8
:104570009446072266463240382613434A7A920709
:104580001343CA79D200324013430A7A9446012277
:104590006646724092011A430B79F8211B064905C1
:1045A0000B401343019A43600260026801999142F3
:1045B0005FD1426833490A409B1A5A425341324AFA
:1045C0005B4213402D4A9B180293029B002B0DD196
:1045D000009A07A90292227BA0688A71627BCA7145
:1045E000E2894B724A81FCF74DFB0290029B002B43
:1045F00011D1009B0293A368002B00D101BE802241
:10460000596812060A435A605B681F4ADB17134059
:104610001A4A9B180293029B002B11D1009B029314
:10462000A368002B00D101BE8022596A12060A43FA
:104630005A625B6A144ADB171340104A9B180293B4
:10464000029B002B0BD102990D4B05AA002912D019
:104650007033110011CB11C12B0003CA03C3FFF744
:1046600067FE3B00380006CD06C30BB0F0BD074B1C
:10467000AAE7024BA8E77833EBE7C0460300C20085
:1046800080A00008FFFEFFFFFDFF3DFF0100C2000C
:10469000F0B5314C9BB003932300029016007033A9
:1046A00006AA0F0003CB03C200230C930593636E8D
:1046B00008220CA908AD0AA80D9305F056FB0822A4
:1046C0000AA9280005F051FB039B06CD06C3002E66
:1046D00039D07B89002B36D001233200009339007A
:1046E0004F3314A8FFF7D8FD031E2CD110AD2A00BC
:1046F00012A914A8FFF784FD002824D12B88042BCD
:1047000021D105AA12993000FFF720FC00281AD108
:10471000059A14A91492636E12A8534008221593A7
:1047200005F023FB082212A9280005F01EFB039BBD
:10473000783406CD06C30EA90B0005CC05C30822AC
:1047400006A805F012FBFFF7F3FD029A06AB03CBB8
:1047500003C202981BB0F0BD80A0000873B56C4680
:1047600022000C4B0500703341CB41C20800FCF71E
:1047700032FE012807D8602343430748C0182300AE
:10478000183006C806C3FFF7D3FD2B00280006CC5F
:1047900006C376BD80A0000814EE010873B56C4610
:1047A00022000B4B0500703341CB41C2012907D8D1
:1047B00060234B430749C91823002C3105C905C3A1
:1047C000FFF7B6FD2B00280006CC06C376BDC04619
:1047D00080A0000814EE010870B58AB06B46009006
:1047E000596006A90A0011CB11C2082208A805F0D9
:1047F000BCFA114D089A099B696E4B409A4201D050
:10480000FEF7A5FD02A92B000A006833069C41CBE8
:1048100041C2082204A805F0A8FA049A059B696E13
:104820004B409A4201D0FEF792FD029BA34201D079
:10483000FEF78DFD0AB070BD80A00008F0B58DB008
:104840006D46194C2A0023006833070003CB03C2CE
:104850000822290008A805F088FA082208A90AA851
:1048600005F083FA0A9A0B9B616E4B409A4201D085
:10487000FEF76DFD089B06A901330693626E02AE3A
:10488000534004A808220793683405F06EFA082202
:1048900004A9300005F069FA0CCE0CC43B003800C6
:1048A00006CD06C30DB0F0BD80A00008F0B5864C63
:1048B000864EA5440693330002900591170070338D
:1048C0000FAA03CB03C211AC33002200703303CB19
:1048D00003C22DA8FFF7B2FF3300220008AD7033EA
:1048E00003CB03C239002800FFF738FF230006CDB1
:1048F00006C32D982E99FFF76FFF25AD2B0006CC30
:1049000006C323AC33002200703303CB03C229ABB0
:104910009C461A00290009C909C26346299A5B68A6
:10492000716E4B409A4201D0FEF711FD27AB1A0081
:1049300003CC03C2279A289B716E4B409A4201D048
:10494000FEF705FD259A239B9A4206D16A68249BAF
:104950009A4202D1012464421BE23800FCF72DFD8B
:10496000041E00DA15E2039018206043029B1B1816
:1049700004931B78002B00D012E200933A003233EC
:10498000059937A8FFF788FC031EE3D1122506AA74
:10499000AD182A000CA937A8FFF732FC002800D078
:1049A00000E22B88902BD5D94CAA0C993800FFF740
:1049B000CDFA0028CED12BA8FFF740FF434E0FAD14
:1049C00033002A00703303CB03C233002FAA7033A5
:1049D00003CB03C23800FCF7FEFC012807D8602394
:1049E00043433B48C01824302FAB06C806C3FFF72B
:1049F0009FFC2A002FAB03CB03C22B982C99FFF707
:104A0000EBFE1FAB1A00290081C981C221AA110047
:104A100081CB81C12199229B726E5340994201D072
:104A2000FEF795FC1F9B1BAB1A00290081C981C2B0
:104A30001DAA110081CB81C11D991E9B726E53402E
:104A4000994201D0FEF783FC1B9B002B00DC81E721
:104A500017AB1A00290081C981C219AA110081CBA4
:104A600081C119991A9B726E5340994201D0FEF789
:104A70006EFC179FFBF7A2FC874200DD6AE713ABD1
:104A80001A0003CD03C215AA110021CB21C115992B
:104A9000169B726E5340994201D0FEF758FC1223C8
:104AA0000C4906AA9B184431102233A843AE1D8836
:104AB000139F05F05AF93000FCF7D6FC50230D93F4
:104AC000012C09DD872446E7A4FDFFFF80A0000834
:104AD00014EE010840A80610912DF3D1B24B71AD30
:104AE00071973DA80BAF3D933E956F60FBF732FC8D
:104AF000041E00D04DE13B88AC4A3DA83D923E9556
:104B0000719302966E60FBF725FC041E00D040E115
:104B10008C2206AB52009B181B78042BD2D1CF22DB
:104B2000029B12021B8813408222D2019342C9D1F8
:104B3000029B0E905B880EAE05939D4B3DA83D9366
:104B40009C4B3E952E606B60FBF704FC041E00D06E
:104B50001FE18A22984BFF323D93984B3DA86B6032
:104B600006ABD21820233E952E60AA60EB60FBF7BF
:104B7000F1FB041E00D00CE18F4B3DA83D93904B00
:104B80003E956B6033ABAB6010232E60EB60FBF7A0
:104B9000E1FB041E00D0FCE08A4A3B883D920222E1
:104BA000AB604CABEB60059BFF320733DB085B006F
:104BB00001333DA83E952E606A602B61FBF7CAFB6E
:104BC000041E00D0E5E0804B3DAD319371AB6B60CE
:104BD0000D9B31A832953D96AB60FBF7BBFB041EE5
:104BE00000D0D6E00E9043A8FCF73EFC80231B01CA
:104BF0004693F421882306AA52185B011380734B55
:104C000006AA319316239B183D93029B704E6B604E
:104C100075ABAB60202331A847963295EB60FBF76C
:104C200099FB041E00D0B4E006ABDB8A694A0EAFE4
:104C300031A8319232952F606B60AE60FBF78AFB32
:104C4000041E00D0A5E0644B102631937A2306AAF7
:104C5000FF339B1831A832952F606B60AE60FBF775
:104C600079FB041E00D094E05C4B06AA31935A23D2
:104C7000FF339B186B60202331A832952F60AB6007
:104C8000FBF768FB041E00D083E006ABDB8A544FC1
:104C900031A8319732952B60FBF75CFB0797041E18
:104CA00077D143A8FCF7E0FB80239B0046934D4B54
:104CB00031A847934C4B32954393444B4B4F319320
:104CC000039BEE605B000593059A494B9B182B6094
:104CD000029B6B6071ABAB60FBF73CFB041E58D1D1
:104CE000059A434B6C37D35A424A6B603D4B31A80F
:104CF000319232952F60AB60FBF72CFB041E48D13C
:104D00003D4B31A831937DAB32952F606B60AE6027
:104D1000FBF720FB041E3CD1384B06AA31937A23C3
:104D2000FF339B186B60039B069A1B010C33D3184F
:104D3000EB6031A80DAB6B6132952F60AE602E61D8
:104D4000FBF708FB0D9B0400B34227D1002820D1BC
:104D50002B4B3E9031933F900DAB3DAD31A832953A
:104D60003D974093FBF7F6FA041E12D11F4A039BAE
:104D70004C325B009B5A079A31A8319232953D9391
:104D8000FBF7E8FA040004983200013081A904F02E
:104D9000ECFF200097239B009D44F0BD8424DAE5BE
:104DA0000124F6E70400F4E70016003500020035A0
:104DB000001D00350901203000040035020200000A
:104DC0000302000000060035000700350009003529
:104DD00009008002001E0035001F0035002000354C
:104DE000000A00350100C00400248000E4A500088A
:104DF00030A60008000B0035000C0035000D003512
:104E0000000E00350023F0B5AFB004937A4B00904C
:104E1000019106AA703303CB03C2082005F072F992
:104E2000009B06000120002B03D00430012B00D092
:104E3000FA3004A9FCF731FA0124002847D110A860
:104E4000FFF7FCFC6C4C06AD23002A00703303CB4B
:104E500003C202AF019938003300049AFFF718FC2F
:104E60002B003A0003CA03C310981199FFF7B4FC52
:104E7000082229000AA804F078FF08AD23002A00C0
:104E8000783303CB03C208220AA90EA804F06DFFF1
:104E90000E9A0F9B616E4B409A4201D0FEF757FA73
:104EA000082229000CA804F060FF0C9A0D9B616E8B
:104EB0004B409A4201D0FEF74AFA0A9A089B9A425E
:104EC0000ED00B9A099B9A420AD00124644230000A
:104ED00005F022F90498FCF7D7F920002FB0F0BDB7
:104EE0003100082212A804F040FF14AD23002A006C
:104EF000703303CB03C22AA8FFF7A0FC23002A00CB
:104F0000703303CB03C238000099FFF747FC2B0036
:104F100006CF06C32A982B99FFF75EFC08222900CA
:104F200026A804F022FF082226A928A804F01DFFC5
:104F3000289A299B616E4B409A4201D0FEF707FAEE
:104F4000269B102BC1D80822290022A804F00DFFAF
:104F5000082222A924A804F008FF249A259B616E48
:104F60004B409A4201D0FEF7F2F9082212A91EA87E
:104F7000229B04F0FAFE08221EA920A804F0F5FEE8
:104F8000209A2199636E4B409A4201D0FEF7DFF9D7
:104F9000082229001AA81E9B04F0E7FE08221AA97D
:104FA0001CA804F0E2FE1C9A1D9B616E4B409A42C5
:104FB00001D0FEF7CCF9082212A916A81A9D04F018
:104FC000D4FE082216A918A804F0CFFE189A199941
:104FD000636E4B409A4201D0FEF7B9F9074A169B1F
:104FE0002D04AD182CA805AA2C952D920593FBF73E
:104FF0002FFB04006BE7C04680A0000800010036CC
:10500000F0B5DC4CD3B02300039008AA703303CB77
:1050100003C2230008AA703303CB03C228A8FFF7FA
:105020000DFC230004AE08AA703303CB03C230008A
:10503000D1491422FFF7AAF9320008AB03CA03C30F
:1050400028982999FFF7C8FB082208A91CA804F092
:105050008CFE1AAD23002A00783303CB03C208224A
:105060001CA920A804F081FE209A219B616E4B4070
:105070009A4201D0FEF76BF9082229001EA804F01D
:1050800074FE1E9A1F9B616E4B409A4201D0FEF740
:105090005EF91C9A1A9B9A4200D08AE01D9A1B9BCB
:1050A0009A4200D085E0230008AA703303CB03C2E4
:1050B00026A8FFF7C3FB230008AA703303CB03C263
:1050C0002AAD23002A002700703303CB03C2AB4B69
:1050D00070371A6FAA4B1A4200D1A6E136A8FFF723
:1050E000ADFB2B0006CF06C3A64903225831300082
:1050F000FFF74CF904AB06CB06C536983799FFF796
:105100006BFB9E4B70335B78002B47D02AAD290098
:1051100008222EA804F029FE2CAF23003A00783391
:1051200003CB03C208222EA932A804F01EFE329A35
:10513000339B616E4B409A4201D0FEF708F908227A
:10514000390030A804F011FE309A319B616E4B405B
:105150009A4201D0FEF7FBF82E9A2C9B9A421DD161
:105160002F9A2D9B9A4219D123002A00703303CB2A
:1051700003C234A8FFF762FB23002A00703303CB7D
:1051800003C28149032208313000FFF7FFF804AB66
:1051900006CB06C534983599FFF71EFBFFF7C8F814
:1051A00008222AA908A804F0E0FD26982799FFF70D
:1051B00013FB08A9082214A804F0D7FD12AD2300A0
:1051C0002A00783303CB03C2082214A918A804F0DC
:1051D000CCFD189A199B616E4B409A4201D0FEF7A4
:1051E000B6F80822290016A804F0BFFD169A179BEE
:1051F000616E4B409A4201D0FEF7A9F8149A129BB7
:105200009A4200D08FE0159A6B689A4200D08AE0EB
:10521000230008AA703303CB03C224A8FFF70EFBB8
:10522000230008AA703303CB03C270343AAB06CC18
:1052300006C300230193554A554B0199D358554A4B
:105240008A1802921578032B01D0092D5BD92E0004
:1052500044AC2200504F0D363301FB1803CB03C280
:105260000822210046A804F080FD424B469A479947
:105270005B6E4B409A4201D0FEF769F82368002B21
:1052800041D040AC23003601BF1906CF06C342A867
:105290000822210004F069FD364B429A43995B6E67
:1052A0004B409A4201D0FEF752F82B013A4D266846
:1052B0003CACED182300D83506CD06C33EA8082225
:1052C000210004F052FD2B4B3E9A3F995B6E4B4000
:1052D0009A4201D0FEF73BF8276848A83AACFFF79E
:1052E000ADFA2200234B04AD703303CB03C23B0065
:1052F000320002992800FFF7F5F80CCD0CC448984D
:105300004999FFF769FA019B10330193A02B92D1C1
:10531000FFF70EF808223AA908A804F026FD249801
:105320002599FFF759FA08A908220CA804F01DFDD9
:10533000104C0AAD23002A00783303CB03C20822A5
:105340000CA910A804F011FD109A119B616E4B403E
:105350009A4201D0FDF7FBFF082229000EA804F0B5
:1053600004FD0E9A0F9B616E4B409A4216D0FDF7DA
:10537000EEFF13E080A00008DCAA0610E4A50008F8
:10538000FF00FF0040A80610C0A806100000204043
:10539000C42000003CAA061014EE01080C9A0A9BD7
:1053A0009A4239D10D9A6B689A4235D1230008AAE6
:1053B000703303CB03C222A8FFF740FA230008AAE8
:1053C000703303CB03C24AAD23002900364A703341
:1053D000079241CB41C100260192344AB3019B1888
:1053E00033491A68B3015B181B68002A28DA0136B2
:1053F000102EF2D1079B019A934241D14CA9102E55
:1054000050D0FEF795FF0822290008A804F0ADFC53
:1054100022982399FFF7E0F9FEF78AFF039B08AA79
:1054200003CA03C3039853B0F0BD38A923000A0090
:10543000783381CB81C20822280004F096FC60E614
:10544000002BD4DB1B4B1C49F718BF013831380047
:10545000FBF718FC0790079B002BCBD18022174B42
:10546000120607937B6A13437B627B6A144ADB173D
:105470001340124A9B180793079B002BB7D0B9E73C
:10548000079A0E4B9A4209D14EA970340B0005CCF5
:1054900005C30822280004F068FCB2E7079B002B34
:1054A000AFD150A97834F1E70400C20004202340B2
:1054B00024202340808C0001C0A806100300C200F5
:1054C000FDFF3DFFF0B5A5B004AC04906160029211
:1054D00003932AAB1B782B9A0193644B02AF9A4239
:1054E00000D0C1E0624B634D12936A6E12A9534023
:1054F00010A8082213930AAE04F037FC082210A962
:1055000006A804F032FC330008A806CF06C3082220
:1055100006A904F02AFC082231000CA804F025FC9E
:105520000C9A0D9B696E4B409A4201D0FDF70FFF1C
:10553000082208A90EA804F018FC0E9A0F9B696EA9
:105540004B409A4201D0FDF702FF0A9A089B9A420B
:1055500009D17268099B9A4205D1474B1B68002B01
:1055600001DA01F017FC019B002B0BD001F02EFC9F
:1055700001F01EFCC022C0234049520088581B067F
:1055800003438B5020A90B00220041CA41C30822CB
:1055900022A804F0EAFB229A23996B6E4B409A42B0
:1055A00001D0FDF7D4FE89232099354A5B01D15003
:1055B0001CA90B00220041CA41C308221EA804F006
:1055C000D4FB1E9A1F996B6E4B409A4201D0FDF797
:1055D000BEFE1C9A2B4B18A99A600B00220041CAF0
:1055E00041C308221AA804F0C0FB1A9A1B996B6EDB
:1055F0004B409A4201D0FDF7AAFE189B14A91E68E1
:105600000B0005CC05C3082216A804F0AEFB169AC1
:1056100017996B6E4B409A4201D0FDF798FE1A48DD
:105620001A49149B091A5C68FBF74AF8184D194986
:105630002800491BFBF744F8174B1C635E6385F396
:10564000088816481649091AFBF73AF886F30888BD
:1056500014481549091AFBF733F8FBF787FF0020B8
:1056600001F0B8FCA047FEE7FEE7C046186EA9713E
:105670009B71CA2780A00008000126400000264038
:105680000000204000ED00E080A0000860A30008BA
:10569000002000080024000864A6000800B00208EA
:1056A00000C00208C8A5000888F30108F0B58DB055
:1056B00002A90A002F4B543311CB11C2082204A8AF
:1056C00004F053FB2C4E049A059B716E4B409A429A
:1056D00001D0FDF73CFE6A46029B284CDBB2D3703A
:1056E000D71C2748274AE368121A0021019303F0C8
:1056F000D4FC2548254A0021121A03F0CEFC244D83
:10570000244A0021521B280003F0C7FC3B7806A95D
:10571000DBB20693726E08A853400AAE08220793C4
:1057200004F023FB082208A9300004F01EFB114BF3
:10573000543306CE06C3019BE36085F30888164DFB
:10574000164800212A1A03F0A8FC85F308880120D6
:1057500001F040FCFBF70AFFE06801F0D9FB1048BC
:1057600001F08EFB0F4B1B68002B01DA01F012FBDE
:1057700004F04EFFE4A5000880A0000814EE010824
:1057800080A0000860A30008C8A5000888F30108ED
:10579000002000080024000800C0020800B0020831
:1057A000004000160001264010B5002801D1FFF787
:1057B0007DFF10BDF0B505008BB0080014001F0080
:1057C000FBF7FBFD061E01DAFFF770FF18234343CA
:1057D000ED1828787600013843425841FFF7E4FF7E
:1057E000230F6B73230DAB73230BEB73204B240937
:1057F0001A006C334C32B25A1E491E0004931E4BE1
:105800002C7402A804AC029103946260A360FAF7BE
:10581000A1FD002829D1194B01350293102302A8BC
:10582000039404966560A360FAF794FD00281CD1E8
:10583000134B01AD0293109B02A86360E3600394D5
:105840002660A76027616561FAF784FD019B9F428E
:105850000BD1002809D10B4B6060A06002A8029315
:1058600003942660E560FAF775FD0BB0F0BDC04605
:10587000E4A50008000B00350100C004000C003551
:10588000000D0035000E0035F0B56F4E6F4D330042
:105890002F006F4C7033A54403910592099012AA12
:1058A00003CB03C2FF370399787EFBF771FD11A983
:1058B000C0B2FBF7F2FC002809D0FEF739FD099BC6
:1058C00012AA03CA03C30998624B9D44F0BD7B7EB4
:1058D00003980493FDF7F0FC00280BD02C235820EC
:1058E000039A5343049A42439B18EB181C691023F4
:1058F0001C4015D001233093726E30A9534024A868
:105900000822319304F031FA082224A932A804F0C5
:105910002CFA082232A912A804F027FA01F0E5F9BE
:10592000039B002B26D07B7E58430100403014316E
:1059300049194019FBF7CCFD00281BDA2000FDF7C0
:10594000BBFC002816D0119821008268FEF7C8F928
:1059500001232C93726E2CA9534022A808222D9368
:1059600004F003FA082222A92EA804F0FEF9082266
:105970002EA9D0E72C23039A0499534358224A4373
:10598000324F9B18DB19069326A8FEF757FF2E4BC4
:1059900012AD1A002900703211CA11C1119A34AE29
:1059A00002923200703303CB03C22B4B5B7E180094
:1059B0000793FBF78DFC029B1B7883425CD1069B0F
:1059C0001B6908935B0757D530240798059B6043F4
:1059D000B830C019029A0699FEF768FF00283FDA2E
:1059E000FEF7A6FC08223100280004F0BEF9269834
:1059F0002799FEF7F1FE2C23039904984B43582175
:105A00004143124A5B18985814490F4C884201D1FF
:105A100001F02DF9039B002B04D01198002182681E
:105A2000FEF75EF901232893626E28A9534018A857
:105A30000822299304F099F9082218A92AA804F049
:105A400094F908222AA966E780A000085CF2010800
:105A500004FAFFFFFC0500005BF301083DB8F39674
:105A6000002809D1C14B0599587E6043B830C01950
:105A7000FBF702FD0028B3D148A8FEF7DFFEBC4DBE
:105A8000BC4E2B0034AA703303CB03C23300FF3368
:105A90005B7E4AAA05932B00703303CB03C24CAC48
:105AA0002B0022000027703303CB03C2DC976B6E00
:105AB0000822DCA9C2A8DD9304F057F90822C2A984
:105AC0004EA804F052F9DA976B6E0822DAA9C0A842
:105AD000DB9304F04AF90822C0A950A804F045F964
