:02000004100DDD
:1000000000C002080B800D100D00000069800D106B
:1000100000000000000000000000000000000000E0
:1000200000000000000000000000000065800D10CE
:10003000000000000000000065800D1065800D10BC
:1000400065800D1065800D1065800D1065800D10A8
:1000500065800D1065800D1065800D1065800D1098
:1000600065800D1065800D1065800D1065800D1088
:1000700065800D1065800D1065800D1065800D1078
:1000800065800D1065800D1065800D1065800D1068
:1000900065800D1065800D1065800D1065800D1058
:1000A00065800D1065800D1065800D1065800D1048
:1000B00065800D1065800D1065800D1065800D1038
:1000C00010B5064C2378002B07D1054B002B02D02E
:1000D000044800E000BF0123237010BDACA7000856
:1000E00000000000A4DA0D10044B10B5002B03D063
:1000F0000349044800E000BF10BDC04600000000F6
:10010000B0A70008A4DA0D10F7B5A52758231600EC
:100110000191FF00C25D00215A43330082180400A0
:1001200000F036FF051E0FD15823E25D01215A432E
:100130002C32A2183300200000F02AFF002803D040
:10014000019B002B00D005002800FEBD10B50A78E9
:100150000478012394420BD80CD344784A78944213
:1001600006D807D340884A88904201D890429B41E4
:10017000180010BD01235B42FAE773B50E000021A1
:100180000500009101F01EFF6946C0B201F0FEFDBE
:10019000012400280BD101AA0099300001F0BAFA1D
:1001A000041E04D10199280001F09FFC040000986E
:1001B00001F006FE200076BDF0B5A527FF0085B052
:1001C0000400C05D0E0001F0FDFE03A9C0B201F005
:1001D000DDFD051E04D001256D42280005B0F0BDEF
:1001E000039801F009FF0190039801F0E9FD5823FD
:1001F000E25D53432C2256439E19A419231D9C42B1
:10020000EBD00134621E127801998A42F7D0E2E7FE
:1002100037B5D022D2000192593AFF3A825C0D00E4
:1002200003000121002A03D0FE31012A00D1FA394E
:10023000A9420ED1582454431A19526A283401A9EC
:1002400028001C1901F00AFF002801D1019B23603E
:100250003EBD0221002A03D00431012A00D0F93129
:100260000120A942F4D1582454431A19126D543470
:10027000E5E70000F0B5A5278BB006910792FF00D7
:100280000400C05D01F09EFE09A9C0B201F07EFD30
:10029000002800D09CE006992000E65DFFF78CFF67
:1002A000002806D10124099801F08AFD20000BB036
:1002B000F0BD2C235820069A5343020072439B182A
:1002C000E3181D6910231D40ECD1069B002B17D0AD
:1002D000E35D584301004030143161182018FFF7E6
:1002E00035FF00280CDA29002000FFF765FF002801
:1002F00006D009980021826801F000FE069CD2E732
:100300002C23069A5343582272439B181959324A98
:10031000914203D0069B002BC4D0EAE7E318DA68C9
:100320001B89D9438A42F5D8099DD218AB689A42F5
:10033000F0D2A523DB00E75C29780222002F03D04E
:100340000432012F00D0F932582306985E432C3B2B
:100350004343F618A619914219D0A5238E20DB003D
:10036000E35C800058430023049303930293E0234B
:100370001B020193194BB8302018009332002B0058
:10038000390001F003FA041E00D18CE7C2E733699B
:100390005B07E2D58E2080007843079BB83000933E
:1003A00020182B003200390000F092FE0028B1DB4B
:1003B000D3D1A523DB00E05C8E239B005843B830EB
:1003C0002018079A012100F05BFE0028C5D0A1E7A4
:1003D000012464426AE7C0463DB8F396F480010800
:1003E000A52370B5DB00C55C04000121002D03D0FE
:1003F0000431012D00D0FA312000FFF709FF002859
:1004000002D00125280070BD0221002D03D0043147
:10041000012D00D0F9312000FFF7FAFE051EF0D1C2
:10042000A523DB00E25C58235343E318186A01F06C
:10043000B9FDB4342060E5E710B520220400FF21A7
:100440000C3009F095F9012200232260024AE36290
:100450006260A36010BDC046010100014279002323
:10046000012A06D10268012A03D10379013B5842CF
:100470004341180070470000F0B500258BB005908F
:10048000079108920993119B9D4201D3002010E02F
:10049000119B5C1B80239B009C4200D91C00099B84
:1004A000384AE9180798230001F094FC002802D08C
:1004B00001200BB0F0BDA522059BD2009B5C9C46A1
:1004C0006246079B19780223002A03D0FD33012AD4
:1004D00000D1F93B089A1278994237D0934237D12C
:1004E000582761464F4393423DD0059B2C37099EC8
:1004F000DF193B695B072BD53889AB19834236D2AC
:10050000A0423BDA421B921B0026211A92B20696A9
:10051000FF681E19C719BE4202D9BB4218D2F91A88
:10052000002915D01B1A8E20664680007043154F97
:100530009B18D219059E0292069AB830019200913A
:100540003018079A614600F011FF01E09342C7D1CD
:10055000109B0C4AE9180898230001F077FC00284A
:10056000A6D12D198FE7059B109EDF19C1E70F2239
:100570001E1A1640069621000022C9E700210A0033
:100580000691C5E7F4AC0008F0B5A1B00591CC4ADE
:100590000021A527040009F0EBF80023FF00E35534
:1005A0000493013B0393C74BE05D1B78984233D320
:1005B000012B0ED9049B002B0BD00023A525E3555E
:1005C000013B0393ED00BF4B605D1B78834200D974
:1005D000E9E0A5250023ED00BA4E6355605D337850
:1005E000984200D274E100236355A5255827ED00F9
:1005F000635D32789A4200D941E23022002114A88A
:1006000009F0B6F8236A05995A780A715B680C609C
:100610000493049A8A6049E2012B06D98E239B0039
:100620005843B830201800F0F5FE5825D0232A0092
:10063000E65D9B0173437243A349A21859185162A6
:10064000A24930005B181365002101F0BBFCE15D9D
:10065000C0B269432031611801F098FB4342584110
:1006600000F014FF0121300001F0ACFCE15DC0B2EC
:1006700069434C31611801F089FB039043425841B2
:1006800000F004FF2000FFF7ABFE011E05D00122A1
:10069000E35DE318B0331A7065E002002000FFF755
:1006A00033FD0028F3D1200000F08DFC0028EED0AF
:1006B00014AD2800FFF7C0FE2800FFF7CFFE06901C
:1006C00000281FD17F4B1B78012B0CD8002000F095
:1006D000DDFE2A0000212000FFF716FD43425841AD
:1006E00000F0D4FED3E7E25D002AEFD02300012121
:1006F000B0339A189A42E9D01878042800D11970BA
:100700000133F7E7EB790793012B38D1E05D00F077
:10071000E9FB831E0600022B0BD82A000799200054
:10072000FFF7A8FD012803D0002802D0052600E02D
:100730000600E35DE318B0331E70E25DA318B0332A
:100740001978604B1B78012B0DD9002A0BD01300B0
:10075000012911D0042900D1DEE123000121B033A9
:100760009A18934219D1E35DE218B0321278023A36
:10077000022A01D8012204920133E35513E72A002B
:1007800001212000FFF776FDE35D0522E318B03379
:10079000002800D1EA791A70CFE71878042800D130
:1007A00019700133DDE72318B0331F7804239F430A
:1007B000013F7B1E9F41FFB2390001F003FC09A9F4
:1007C000C0B201F0E3FA00280BD00123039309988B
:1007D00001F0F6FA039B002B5AD1635D0133635598
:1007E000F1E658212C26635D774359430123C9194B
:1007F000009361183F33099A0EA800F09BF903900B
:100800000028E4D1022704960A2606ABF618320027
:1008100000230AA90EA800F0DFF9031E00DA78E130
:100820000998D4D133880C2B2ED10BAE32000A9903
:1008300001F0D0FA0028C8D1224B31781B788B42C6
:1008400024D96318B0331A78049B023AD2B2974283
:100850004041584358234B431433C01820180CA967
:10086000FFF774FC0028CFDA635DE318B0331A7821
:10087000012A07D0002A03D0032A01D801221A70C6
:100880000390A4E70422FAE703239FE707239DE7E9
:100890000C4B039A1B78082A00D09AE60393002B8E
:1008A00000D196E6220000230121B0326355117079
:1008B000039A8A4202D02200B1321170039388E673
:1008C0002C050000C0A00008F4B00008F4180108CE
:1008D00014AE012B09D98E239B005843B830201841
:1008E00000F098FD3000FFF7A7FD675DE319B03316
:1008F0001878F0710138042800D9BBE007F0C2FB7A
:10090000A0030303A0000120002F03D0FE30012F1D
:1009100000D1FA380BA901F039FA4342584100F0EE
:10092000B5FD0220002F03D0FD30012F00D1F93892
:100930000EA901F02BFA4342584100F0A7FD5822BE
:10094000635D06925343E3189B6A079300231E00DE
:100950000393079B605DB34240D1069A4243A318BC
:10096000DB6B5B0752D4039B5826019300230B9A41
:1009700000930E992000FFF77FFD3100605D414339
:100980002C316118FFF7F9FB039000284FD1635D0C
:1009900003997343E3181B6D0E985A6801F0AEFA81
:1009A0004342584100F072FD635D0E985E43A61904
:1009B000736D326D013BDB00D31811681A68511A50
:1009C0005A6801F09BFA4342584100F05FFD0B98D2
:1009D00001F0F6F90E9801F0F3F928E0069BF20019
:1009E00058432018436A03999B185B680B981A00B8
:1009F000049301F083FA4342584100F047FD049A02
:100A0000039B9446634403930136A2E78E239B0025
:100A100058432C32B83014AEA218201800960E9B02
:100A2000390000F055FB002814DA03230393039EDA
:100A300073425E41300000F029FD300000F026FDD9
:100A4000635DE218B0321278FF2A16D1002000F060
:100A50001DFDFEE7002886D18E23605D9B00584374
:100A6000B83020183200012100F00AFB002800D124
:100A700079E7DAE7FF221A70E2E70133ACE5E31821
:100A8000B0331B78012B09D1002220001100FFF7A1
:100A9000F1FB002822D00323039307E014AA0021CE
:100AA0002000FFF731FB03900028EDD0A52500239F
:100AB0005827ED006355635D32789A422ED97B4307
:100AC000E318D86C01F07CF9635D7B43E318186A86
:100AD00001F076F9635D01336355ECE7605D23183F
:100AE000B0331B78012B0BD03900605D4143611896
:100AF0000A6A00F0BFF8635D03900133635577E540
:100B0000390041436118FFF738FB03900028EBD010
:100B1000CCE701235B42D1E6069A2CE6039821B08C
:100B2000F0BDC04610B501000148FFF72DFD10BD16
:100B3000C8A70008F0B587B002930CAB1B7804007F
:100B40000D0000920393002805D101235B4201931D
:100B5000019807B0F0BD0029F7D0009B002BF4D01E
:100B6000CB680F8905AEFF183200042339000098C6
:100B700001F030F901900028E7D1154A31886B89DE
:100B8000914221D171889942DFD1C91904233200E1
:100B9000009801F01FF90028D7D105AA0D4B118844
:100BA0009942D2D1009B256063606B461B892381EB
:100BB0006B461B7BA3726B89DB19E3605288D318E9
:100BC00063613B1D2361C3E7002BE6D0BDE7C04650
:100BD0000869000007690000F0B585B004000091C5
:100BE00001921E00002803D10120404205B0F0BD53
:100BF0000368002BF8D04368002BF5D022696369A5
:100C00009A4218D223685B89002B04D0E368934290
:100C100001D10433236103AD04232A0021696068F4
:100C200001F0D8F80028DFD1A27A2369002A04D085
:100C3000E2689A4201D80120D8E76A882189171D05
:100C4000BC460B4FB94202D02D888D420DD1002EEB
:100C500002D003A909883180009904330B60019BFD
:100C60001A80236963442361C0E763442361C5E7B5
:100C7000FFFF0000F0B50025D9B003900095514B5F
:100C80000AA81600FFF756FF0295A84204D00124D7
:100C90006442200059B0F0BD0E2704ABFF1807AC2A
:100CA0003B00220008A90AA8FFF796FF0028EED112
:100CB0003B88602B0FD18022238852009342E6D8D4
:100CC00018AA0899300001F085F80028DFD12388A0
:100CD00001250293E0E7102BDED12388202BD6D804
:100CE00010AA0899300001F075F8041ECFD1002D2C
:100CF000CDD0029858AB203808901818013820221F
:100D0000FF3810A908F02BFD039B2F4E9B01049385
:100D10003F23049A09941A43337805922B4D002BF4
:100D200009D1802221005201280008F021FD284B22
:100D30002B60012333706888244B264EC31803931D
:100D4000039B09AFB34224D8049B234A1B051B0D08
:100D500013433B806B461E897E806B88321D92B2A6
:100D60009B18184A93422BDC80229BB2520193427B
:100D700022D804223900039808F0F1FC0398029A63
:100D8000043018A908F0EBFC6B880433F6186E8069
:100D90007FE704223100380008F0E1FC3B881A0BA1
:100DA000012A04D1059A1B051B0D9A4206D009ABF6
:100DB0005B880433F618C3E701246AE7022468E776
:100DC000032466E7FFFF0000F46002080008000843
:100DD00016200400040800083F1000000300012052
:100DE000042B05D0052B04D101390800411E884190
:100DF00070475B1A58425841FAE7000070B50C0082
:100E0000816886B01023103902AA050001F00CF9A0
:100E1000012300280FDB984210D1023323706B4668
:100E2000A968DE1D283901233200280001F0FCF8F2
:100E300000280DDA0123180006B070BD10221E49EB
:100E400002A808F07DFC431E984101302070E6E7BF
:100E50000F2332781340120963702271012801D0E8
:100E6000042B03D90123637000232371A968A21CFA
:100E700020390123280001F0D7F80028DADB03230A
:100E8000012804D0A378013B5A1E93410133A3707B
:100E9000A968E21C18390123280001F0C5F80028D0
:100EA000C8DB0323012804D0E378013B5A1E934199
:100EB0000133E3700023BEE7F0CC0D1037B50D0011
:100EC000C0B201A900F062FF0124002807D1290067
:100ED0000198FFF793FF0400019800F071FF2000D4
:100EE0003EBD0000F0B5040089B00120002C03D005
:100EF0000430012C00D0FA3004A9FFF7DFFF0028EE
:100F00003AD10230002C03D00430012C00D0F9304B
:100F100006AD2900FFF7D2FF00282DD1040004AB55
:100F20001B781A4E00932B78019304ABDB78029365
:100F3000EB78039304AB9F78A05D00993519FFF718
:100F40004DFF00281CD068780199FFF747FF002863
:100F500016D0AB78042B02D0029A934210D1EB78D2
:100F6000042B02D0039A93420AD12B79042B05D18A
:100F70006879831E022B07D9FF2005E0BB42F7D01A
:100F80000634122CD8D1012009B0F0BD00CD0D10CF
:100F9000A52337B5DB00C05C150001F013F801A9EB
:100FA000C0B200F0F3FE0124011E07D120232A0065
:100FB000019800F00FFF0400601E8441019800F0CA
:100FC000FFFE20003EBDA523F7B5DB00C25C582321
:100FD0005A43D0238218976ADB0000209F4212D820
:100FE000516D019199420ED80300010005000400E3
:100FF000B94209D3019EB34206D30020B94202D1BF
:101000009B1B58425841FEBDAC4212D1CE00B446A3
:10101000566A0131B44466467668B446DE006444DC
:10102000B446166D0133B44466467668B4466544EA
:10103000DEE7AC420CD2CE00B446566AB4446646F3
:101040007668B446644402280FD001310120CFE70E
:10105000DE00B446166DB44466467668B446654410
:10106000012802D001330220C2E70020CBE710B5EF
:1010700004002422002108F07BFB200010BD0000AA
:1010800070B58AB0050001A80C001600FFF7EFFF4D
:1010900080239B0004930B4B210105930A4B6200B4
:1010A00001930A4B0C319B187118102201A806F00D
:1010B000A3FC002804D18E210123490061434B5534
:1010C0000AB070BD0100C00400248000F660020870
:1010D000F0B50600CFB0180015001C0000F00AFBA8
:1010E000002802D10120404215E1200000F098FACA
:1010F000002800DA0FE18E235B0043439B5D0390E1
:101100000120002B00D006E1009322003233290099
:1011100016A8FFF70FFD031EE4D10E2502AAAD1895
:101120002A0007A916A8FFF757FD002800D0F2E013
:101130002B88712BD6D131AD2A000799200000F001
:1011400049FE0028CED1200000F0B6FA071EC9DD06
:1011500006F0B6FCB842C5DB724C102221000AA88A
:10116000113408F0FCFA210010220EA808F0F7FA5A
:101170002100102212A81CAC08F0F1FA2000FFF7A1
:1011800076FF302306AE31003800089306F08AFC63
:10119000002800D0BFE03088210006F03FFC002886
:1011A00000D0B8E02B78042B00D0B6E0CF22238803
:1011B000120213408222D201934200D0ADE0099086
:1011C000594909A8678806F08FFC002800D0A2E0E2
:1011D00010230EAA554909A806F02EFC002800D0BD
:1011E00099E010230AAA524909A806F025FC002814
:1011F00000D090E002210737FF087F0001373288D6
:101200002B000097FF3109A806F038FC002800D019
:1012100081E0089A25A909A806F020FC00287AD1C7
:1012200009902000FFF723FF80231B011F938823D1
:1012300012255B01238002AB3E4EED182B002022CD
:1012400029A92000209606F0D7FB002863D1298821
:10125000320009A806F056FC00285CD11E2302A922
:10126000FF335B181022190009A806F05BFC002868
:1012700051D1FD2102AB2022C91809A806F062FC59
:10128000002848D1288806F079FB002843D11CA803
:10129000FFF7EDFE80239B001F93274B274D1C93E8
:1012A000039B274F5E00AB19102225A91CA820978D
:1012B00006F0A2FB00282ED1224C715B3A002000E0
:1012C00006F014FB002826D1102212A9200006F0F7
:1012D0002FFB00281FD1039B549A1B010C331E21A6
:1012E000D318102202A808AFFF3109180197009205
:1012F000200006F02DFB089B102B10D100280AD1EE
:10130000020001003B00200006F000FB002802D193
:10131000705B06F033FB4FB0F0BD8720E3E684201E
:10132000E1E6C04612CD0D10090120300202000096
:10133000030200000900800200248000F660020819
:101340000100C004FC60020810B50400100000F0A9
:1013500067F90023984206DB1D33FF335843035DD2
:10136000581E8341DBB2180010BD0000F0B51D000F
:10137000170089B004AC0C2200210600200008F000
:10138000F7F92B0F23732B0D637338002B0B2D09EB
:10139000E573A37300F044F9051E04DA002000F0A1
:1013A00075F809B0F0BD8E235B004343985D6D0076
:1013B00001384342584100F069F8134B134AE95A87
:1013C000134D280006F092FA0028EAD110222100DD
:1013D000280006F0ADFA0028E3D10E9B03AC009381
:1013E000109B0E9A19000194280006F0B1FA039B95
:1013F0000E9A01009342D4D10028D2D102002300DA
:10140000280006F083FACCE7F66002080100C00469
:10141000FC6002088E2210B59200002105F0F4FD58
:1014200010BD000010B562B604F0D8F9C02201204A
:10143000024952008B5883438B5010BD0000264058
:101440007047000010B50C4801F080FA04F0A6FACD
:101450000A4A8021032001F0ABFE094801F012FD89
:10146000084B1B684D331B78002B02D0064801F057
:101470005DFD01F039FB10BD0CD00D10000000081F
:10148000006102087066020834CD0D10F7B5041E25
:101490003CD16A461E4B1F4D1B78D71CD3701E488B
:1014A0001E4A6B682100121A019308F061F91C486A
:1014B0001C4A2100121A08F05BF91B4E1B4A21003E
:1014C000921B300008F054F93B78114A1370019BCD
:1014D0006B6086F30888164E16482100321A08F011
:1014E00047F986F30888012006F0E6FCFFF7AAFF1B
:1014F000686805F00DFD104804F0B4FA0F4B1B6846
:10150000002B01DA05F028FD0BF0EAFBF7BDC04621
:1015100068660208C4640208C0A0000840A400086D
:10152000ACA7000878660208002000080024000824
:1015300000C0020800B0020800400016000126406A
:10154000F0B599B01EAB1B78039004931378140088
:10155000302B03D09520404219B0F0BD9378022B78
:10156000F8D108AD40220021280008F001F9E07808
:1015700022185379811D1279C9180291022AE9D1E2
:10158000C218617804329142E4D1202B00DD20237F
:101590000100202800DD2021401A002205900FE0E4
:1015A000501A203007000598102684469444A4441D
:1015B000604600790132844604A880196646C65503
:1015C0009142EDD100220299C91A64189A4212D1AF
:1015D0000E2404ABE4182100049806F063FA0028F6
:1015E000BAD140232088039A01930095203B0549F6
:1015F00006F068F9B0E7D11AA05C403168540132B6
:10160000E4E7C04609000610037800205A1E012AAC
:1016100005D90130052B02D0062B00D002387047C7
:1016200003780422190000209143012905D00130DC
:10163000022B02D0062B00D00238704710B50C00E8
:10164000FFF7E2FF012807D830235843044BC05C62
:10165000001B431E984110BD01204042FBE7C046DD
:10166000C464020810B50400FFF7DAFF00280EDB9F
:101670000CD02000FFF7C8FF002808DB30234343CD
:101680000448C018437801205840404210BD012052
:10169000FBE7C046C464020810B5FFF7B5FF00229F
:1016A000012805D8302343430248C0182C30027863
:1016B000100010BDC464020810B5FFF7A5FF00229A
:1016C000012804D8302343430248C018827C10000C
:1016D00010BDC046C4640208012805D83023434326
:1016E0000348C0184069704701204042FBE7C046EC
:1016F000C464020810B5FFF787FF012805D830231E
:1017000043430348C018007C10BD01204042FBE762
:10171000C46402080023F0B58DB00D0016000493D8
:101720001360984203D1072420000DB0F0BD0029BA
:10173000F9D04389002B01D10324F5E701230A00E6
:10174000009301004F3306A8FFF7F4F9041EEBD114
:101750000E276F4403003A0005A906A8FFF73CFADC
:10176000002801D0013CDFE73B88042BE4D104AA28
:101770000599280000F02EFB002801D00124D3E7B2
:10178000049BFF2BD0D83360CEE70000F0B51500E6
:1017900017221F000023FF26C1B0089108A9521884
:1017A000119313702B690B90380010960593FFF777
:1017B00037FF002804DA01246442200041B0F0BD64
:1017C000002800D1E5E03800FFF74CFF041EF4D1FB
:1017D0003800FFF78FFF431E9841059B5B07DB0F27
:1017E000984204D03800FFF785FF013CE5E702226C
:1017F0000992089A12943B78002A05D00622099291
:10180000089A012A00D00996099A934209D12B69B6
:101810005B0706D53A0008990B98FFF795FD00285D
:10182000C9D0A94912A806F0B7F8041EC5D1489B33
:10183000002B59D100242B8926000693069AEB68C9
:101840009446634407936B89079A9B180A930A9BF3
:10185000B34255D8002CB0D120AB202218A912A831
:1018600006F0B8F8041EA8D14A9B002B00D0B2E0C5
:1018700000233A0000932900944B12A8FFF75AF96D
:10188000041E00D099E70125059009900690079065
:101890001A2608ABF6180EAC330022000FA912A8C6
:1018A000FFF79AF9002800DA85E700D0FEE03388D8
:1018B000222B00D1B3E000D993E0102BE8D1268889
:1018C000202EE5D1330020AA0F99380000F082FACB
:1018D000041E00D071E7320020A918A807F030FFDD
:1018E0000028D5D10795D3E7499B002BA2DD1A002C
:1018F000489912A806F05EF8041E00D05DE799E74B
:101900000A9B479A9B1B05929A4200D90593069B16
:10191000B34206D9059B069A9B199A4201D2931BA2
:101920000593079BB34206D9059B079AF3189A4281
:1019300001D2931B0593059B469A3100380000F0B5
:1019400049FA041E00D038E73B78099A934217D130
:1019500004222B69134213D0069BB34210D8079B75
:10196000B3420DD9469A069B02920F22F31A1A40EF
:101970000192059A089900920B983A00FFF7F6FC3D
:10198000059A469912A806F015F8059B0400F6186A
:101990005DE712904C4912A805F0FEFF041E00D02E
:1019A0000BE7489B002B0AD16B892A897968D218EA
:1019B000EB6812A8D21805F0FDFF04004AE7499B26
:1019C000002BF1DD1A00489912A805F0F3FF041E60
:1019D00000D0F2E6E8E7202218A94A9807F0BFFEF7
:1019E00046E7502B41D0812B00D051E72388012BB3
:1019F00000D04DE7172608ABF61832002B000F99E0
:101A0000380000F0E7F9041E00D0D6E6317838003F
:101A1000FFF714FE041E00D0CFE6069538E7380025
:101A2000FFF73AFE061E00DC32E706F049F8B04246
:101A300000DA2DE723881A00463A3A2A00D9BAE696
:101A400020AA0F99380000F0C5F9002800D0B2E6AE
:101A5000F6B2238820AA0096202118A8FFF770FD6F
:101A6000002800D014E7099512E72388042B00D042
:101A7000A1E611AA0F99380000F0ACF9041E00D0BD
:101A80009BE6119BFF2B00D995E610A9089800F062
:101A90001FF8041E00D090E6109BFF2B00D98AE6A9
:101AA000119A934200D9F3E60595F1E6079B012BC5
:101AB00000D080E6069B012B00D07CE6059B012B25
:101AC00000D078E6099C90E609000001FFFF0000C5
:101AD00010B50C00FFF700FE002803DB210005F025
:101AE0000FFB10BD01204042FBE710B50C00FFF7D3
:101AF000F3FD002803DB210005F01AFB10BD0120D7
:101B00004042FBE710B5FFF79DFC10BDF0B58DB06E
:101B1000FFF798FCFFF786FC03F020FF80200023EE
:101B200005AA06A94000069305F070F90390002865
:101B300000D0A2E07C4D7D4C019000902B007C4AAF
:101B40002100069804F05CF80390031E00D094E096
:101B5000784901330B70784A784B794E1A80E269E4
:101B60005A60226A9A60774B3380A078002801D0AF
:101B700080237370636A7360A36AB3602300323397
:101B80001A78237E012B17D1230048331B78022BB0
:101B900012D10B706C4B6D491980E16C5960216D4D
:101BA00099606B4B6B491980002A01D080215970D4
:101BB000616D5960A16D9960FE21674BC901198063
:101BC00066495960802149029960002A18D01000A6
:101BD000042817D800F076FE002813D0A378002B35
:101BE00002D0002363707370230032331B78002B04
:101BF00008D02200002331321370554A537001E09F
:101C00000028E5D12900200006F022F9002802D0A2
:101C10000020FFF73BFC09A8FEF784FF0390002893
:101C20002BD14F4B62684F4F1A60237A3B70002BC9
:101C300004D0E06803F02EFE03F0A0FE0126099B0D
:101C40000B9A1B89484D9B182B60237EB34205D10C
:101C5000230048331E78023E731E9E4120780138CF
:101C600003285FD806F00EFA02111118FFF7E8FBFF
:101C70003A783100286805F0DDF90398434258416D
:101C8000FFF704FC00200DB0F0BDFFF7D9FB0221E7
:101C9000002001F001FBEBE70B26FFF7D1FB06214B
:101CA0000E2001F0F9FA224B2D4D1B7802AA9372F7
:101CB0002D4C2B68B618079323682C480893294BA2
:101CC0002B4A1B78121A0021337005F09DF9294F19
:101CD000294A0021D21B380005F096F9089B144AC6
:101CE000236002AB9B7A1370079B1E4A2B603378EC
:101CF000137087F30888214E21480021321A05F01D
:101D000083F986F308881F481F4A0021121A05F03C
:101D10007BF9FFF797FB134B29681A78206805F0C9
:101D200023F9AAE730BFFDE790620208C464020805
:101D300068660208C0A00008017F0000EC6202088B
:101D400004630208027F0000F8620208057F0000B9
:101D500010630208067F00008462020800000D1074
:101D6000206302081C63020880620208C0A0000809
:101D700040A40008002000080024000800C0020859
:101D800000B00208ACA700087866020810B50B4A3C
:101D90001368002B02D10124644205E01C78043250
:101DA0008442F5D100240B600B68002B04D05B78D3
:101DB0007F2B01D900F00AFD200010BDC4A000084F
:101DC00010B5002804D043787F2B01D900F02AFDFC
:101DD00010BD0000F7B54568060001921F008D4256
:101DE00006D84E21154B164AFF31164807F050FC15
:101DF000CB189D4204D8A721134B114A4900F4E7A0
:101E00006D183A00290006F0D3F8041E13D1737838
:101E10007F2B06D13A002900019807F0A0FC200092
:101E2000FEBD5BB2002B06DA3B00019A29003000B0
:101E300000F042F9F4E701204042F1E715CE0D1021
:101E400068CD0D102DCE0D104BCE0D10F8B5456898
:101E5000070016001C008D4204D87C21214B224A29
:101E6000FF3106E0CB189D4206D8BE211F4B1E4A0B
:101E700049001F4807F00CFC6D182200290006F0ED
:101E800097F800282AD17B787F2B1DD1E30503D05A
:101E9000184B154AC721EBE7EB0503D0164B124A46
:101EA0009021DDE701202F00640A6402641940429A
:101EB000711BC919A74200D1F8BD380000F04EFED1
:101EC00080239B00FF18F3E75BB2002B06DA2300A8
:101ED00032002900380000F00FF9EDE70120404200
:101EE000EAE7C04615CE0D1078CD0D104BCE0D1083
:101EF0002DCE0D1069CE0D1092CE0D10836870B5E9
:101F000005001600934204D2DA21214B214A4900F0
:101F100005E08B4206D8B6211F4B1E4AFF311F48F1
:101F200007F0B6FB446852181B199A4203D31C4BA6
:101F3000184ADB21EBE764183200210006F038F87C
:101F4000002821D16B787F2B16D1650A3419640AD9
:101F50006D026402A54203D1280000F0CDFD70BDE2
:101F60000120641B640A4042002CF8D0013C60024E
:101F7000401900F0C1FDF7E75BB2002B04DA310035
:101F8000200000F0D9F8EAE701204042E7E7C04628
:101F9000B0CD0D1089CD0D10CACD0D102DCE0D1068
:101FA000E3CD0D1010B543787F2B05D05BB2002B2D
:101FB00005DA00F0BBFC10BD80208000FBE70120AB
:101FC0004042F8E7020001290DD00320022909D080
:101FD0000438002906D10120002A03D00430012A48
:101FE00000D0FA3070470220002AFBD00430012ACA
:101FF000F8D0F930F6E7000010B543787F2B09D010
:102000005BB2FF20002B06DB034B044A0449054862
:1020100007F03EFB002010BD0FCE0D109ACD0D1025
:10202000690200002DCE0D10F7B5060017000193D0
:10203000FFF7D0FE0500041E0AD001256D420BE01B
:102040003000FFF7D9FF3B5D834205D10134E4B294
:10205000019B9C42F4D301252800FEBDF8B50F007A
:102060001400144B1D68002D02D1012040421AE0DB
:102070002A7804338242F5D16B78A8687E2B02D986
:102080008026B60001E0002001263018013831001A
:1020900006F002F83B688342E7D300236A68834274
:1020A00002D100203B60F8BD2260666092190133C6
:1020B0000834F4E7C4A00008F0B585B003937F238B
:1020C00040780C001840170000F0B6FB060000F046
:1020D000BBFB050000F0BCFBE8231B06E218039BDA
:1020E0000190009331003B00280002F0E3FD431E05
:1020F0009841404205B0F0BDF0B585B003937F2311
:1021000040780C001840170000F096FB060000F025
:102110009BFB050000F09CFBE8231B06E218039BD9
:102120000190009331003B00280002F007FE431E9F
:102130009841404205B0F0BDF7B50400002000F022
:102140007BFBE822836905009B691206A4185B42A9
:102150001C4000F079FBAB6906009F6900F078FB3A
:102160003B00009029003000220002F043FE431E95
:1021700098414042FEBD0000F0B589B006ACE07069
:10218000002021712080A07000F056FB060000F0B6
:102190005BFB050000F05CFB31000700020028003B
:1021A00001F006FF002815D101230497039333782B
:1021B000020002930523019000937121230028005F
:1021C00001F06AFC002805D13B00034A31002800D9
:1021D00002F046FD09B0F0BD20A10700F0B50024D3
:1021E0008BB009ADE870200007912C80AC7000F036
:1021F00023FB069000F028FB060000F029FB069B5D
:10220000049003941B780700029304230194009325
:1022100022002B006521300001F03EFCA0420CD1D1
:102220000821300001F0D0FDA04206D10300009744
:1022300001220799300001F007FD0BB0F0BD021E2E
:102240001DD041188B1F1B780022342B17D14B1F38
:102250001B782A3B012B12D80B1F1B78193B022B32
:102260000DD8CB1E1B780F2B09D18B1E1B78032B8F
:1022700005D101390878903843425841C2B2100064
:102280007047000030B5002089B000F0D5FA050095
:1022900000F0DAFA040000F0DBFA012300220490D7
:1022A00003932B7820000293019200921300B72130
:1022B00001F0F2FB041E11D11F256D4429000320FB
:1022C000FFF78CFF041E09D129784BB2002B08DAE6
:1022D00029000420FFF782FF041E0BD0200009B064
:1022E00030BD8023032019432970FFF745FF041EEA
:1022F000F4D1EDE708212B780B420CD0002000F040
:102300009BFA8022D8218369D2029A615A691160AE
:10231000054A1A64E2E7194304202970FFF72CFFED
:102320000028EBD00400D9E770170000F0B589B0A1
:10233000079000200F0000F07FFA040000F084FAFC
:10234000050000F085FA002204900392237806002D
:1023500002930192009213009F21280001F09CFB40
:10236000041E0FD14021280001F02EFD041E09D1CA
:102370000090030001963A000799280001F030FC14
:10238000041E16D0200009B0F0BD012003F002F8B1
:102390003100280001F030FD032802D0013F002F5A
:1023A000F3D13100280001F027FD0328EAD0024CC8
:1023B000E8E7024FECE7C0460200B200E903000084
:1023C00010B5072900D901BE1F2314009C4300D07B
:1023D00001BE0E4B1B689C695B69001BC0090001B4
:1023E000C0181F231A40032907D8C9008B408A4010
:1023F00004689C432243026010BD0439C9008B402D
:102400008A4044689C4322434260F5E770660208B4
:10241000437802781B021A438378C0781B04134365
:102420000006184370470000F7B5A54BA54A9A5817
:10243000D10700D47BE00F22A34FBB683D68009317
:10244000A24BDC6F0193009B1440073A141B9C4283
:1024500000D91C009E4E002C18D1009B3D60BB6033
:10246000002B0CD1F92201209549D2008B588343CF
:102470008B50B861FB69002B01D0FB699847F823AA
:102480000122DB008E49CA50CB58F7BD082C16D16B
:102490002800FFF7BDFF3060281DFFF7B9FF30604F
:1024A000009B2D191B1B0093019BDC6F0F231C400D
:1024B000073B1C1B009B9C42CDD91C00CBE7012C89
:1024C00003D12A78834B1A60EAE7022C06D12A78D6
:1024D0006B781B021343804A1360E1E7032C07D19A
:1024E0006B782A781B0213437B4A1360AA78E9E7CA
:1024F0002800FFF78DFF042CD1D03060052C01D1CE
:102500002A79DFE7062C02D12A796B79E1E7072CDB
:1025100007D16B792A791B0213436F4A1360AA799A
:10252000D0E7281DFFF774FF08243060B8E7910753
:1025300000D4A4E00F22644D68496C69EB68086818
:102540008C460240A24200D922006549654E002A0D
:1025500016D1EB606C61002C0DD1F9220221584894
:10256000D20083588B4383500320A8612B6A002B31
:1025700001D02B6A9847F8236C61DB00022281E7C7
:10258000082A19D10868070A18705F70070C000E36
:102590009F70D8700868070A18715F71070C000EE9
:1025A0009F71D8719B18A41A62460F2012680240CE
:1025B000A242CCD92200CAE7012A03D14A480068C6
:1025C0001870EFE7022A04D130681870000A5870BA
:1025D000E8E7032A07D130681870000A58704248AB
:1025E00000689870DEE7042A08D10868070A1870A6
:1025F0005F70070C000E9F70D870D3E7052A0BD1CF
:102600000868070A18705F70070C000ED87036480B
:102610009F7000681871C5E7062A0CD10868070A80
:1026200018705F70070C000E9F70D87030681871BA
:10263000000A5871B6E7072A0FD10868070A187010
:102640005F70070C000E9F70D87030681871000A18
:102650005871254800689871A4E70A68100A1A7032
:102660005870100C120E9870DA700A68100A1A71FD
:102670005871100C120EDA719871082292E7042139
:102680000A4207D00520104A9061F822D2009950E2
:102690009B58FAE608210A4202D00B4A0620F3E7CB
:1026A0001020024206D00721074A9161F822D20089
:1026B0009850EDE72020024200D1E6E6024AF4E716
:1026C00000004240CC07000024630208080042409A
:1026D000980042409000424094004240C400424072
:1026E000D8004240D4004240D000424010B52B4AAE
:1026F00003212B4800F090FA112203212848FFF70C
:102700005FFE284A0421264800F086FA112204219F
:102710002348FFF755FE244A0521214800F07CFAA2
:10272000112205211E48FFF74BFE204A06211C48B6
:1027300000F072FA112206211948FFF741FE1C4AE7
:102740000721174800F068FA112207211448FFF703
:1027500037FE184B1B683C331B78022B12D9E2233F
:102760000F20154A9B00D1588143D150D1582130B8
:102770008143080020210143D1508021D05809060F
:102780000143D150FA220D4B92000D490D4801F042
:1027900013F9002801D10C4B186010BD64CF0D1047
:1027A0008005324030CF0D10FCCE0D10C8CE0D107C
:1027B00098CF0D10706602080000264024630208BE
:1027C000CCCF0D100000424084A1000870B50F4C22
:1027D00023685A1C18D0002B13D10D4D0D49280029
:1027E00002F070FD0022AB5E002B06DB1F221340BF
:1027F0001E3A9A401300084A13600849084801F03D
:10280000FDFA23680133236070BDC04684A100082F
:10281000B0A1000829240D1000E100E024630208A3
:1028200000004240034A1368591C01DA013B13605F
:102830007047C04684A10008024B80001B685B689B
:10284000C0587047DC6302080048704700004240EF
:10285000004870472463020837B50500FFF746FFBC
:10286000041E21D1FFF7B2FF124B134A290013486F
:102870001D6002F0D3F8041E12D106216846FFF74E
:1028800055FD041E0CD106216846FFF7D8FC002830
:1028900003D1FFF7C7FF20003EBDFFF7F3FC0400A4
:1028A000FFF7C0FF002CF6D00122054B52421A6000
:1028B000F1E7C046DC6302082463020800004240DE
:1028C00084A10008F8B5164C431E6268032B23D878
:1028D0001800126805F0D6FB021A1C1E01211170A7
:1028E0000C2253430F48104A1D58C0184668077AF7
:1028F00031002800177200F08FF928003A003100EB
:10290000FFF75EFD2000FFF7A7FFF8BD0221E6E715
:102910000421E4E70821E2E701204042F5E7C04650
:10292000A0A10008DCCF0D10DCA00008024B5B6802
:102930001B689B69586A7047A0A10008024B5B683E
:102940001B689B6958687047A0A10008014B18607C
:102950007047C04670660208074A13682E331B781A
:10296000834200D801BE13681A00AC3212881B6A79
:102970005043C0187047C046706602081D4B98420D
:102980000FD010D840282FD005D8002830D01028DC
:1029900028D019481EE0802828D080235B00984268
:1029A000F7D1144816E0154B984214D008D8A0234C
:1029B0001B0698421CD0124B9842EAD1A0200BE093
:1029C000104B98420AD0104B984209D00F4B9842B6
:1029D000DFD10F487047A420C003FBE70D48F9E79B
:1029E0000D48F7E70D48F5E70D48F3E70D48F1E727
:1029F0000020EFE706005200FF005200010000F047
:102A0000090000A0040000F0050000F0030000F041
:102A10000100520002005200030052000100500069
:102A2000020050000500520010B5002002F0D6FB55
:102A30000B4B1B681A1DD26F1B689B1819681C680A
:102A4000090E01314B08181805F026FB240AE4B2E0
:102A500001346308C018210005F01EFB10BDC046FC
:102A60007066020810B50020FFF776FF0A4B1C685D
:102A70002300B0331B68C0180368002B0ADB074B28
:102A80001868FFF77BFF012263689A609A68002A42
:102A9000FCD110BD0248FCE77066020828640208F9
:102AA000020050000D4B10B51860002804D0FE2322
:102AB0005B42038000234380094B1B681A004C32A1
:102AC0001278002A08D04D331B78002B04D0022244
:102AD0000449002000F0A4FA10BDC0463864020882
:102AE0007066020861A4000810B50248FFF7DAFF1B
:102AF00010BDC0461000000870B5C4050500E40D07
:102B00001ED102F04BFF0F4B0F4A1A605D609C60B4
:102B1000DC600E4B1B685033197800290BD0FFF78F
:102B200083FFFA21890005F0B7FA0100084805F093
:102B3000B3FA084BC118802040000AF0C1F870BDFC
:102B40000548FCE7286402080001001C70660208C2
:102B500060F59000980800000600520070B5C405AA
:102B600006000D00E40D20D100291ED002F016FF52
:102B70000F4B104A1A605C609E60DD600E4B1B6854
:102B80004E33197800290BD0FFF74EFFFA21890048
:102B900005F082FA0100094805F07EFA084BC118D9
:102BA000802040000AF08CF870BD0648FCE7C04663
:102BB000286402080001000570660208C0EA2101CD
:102BC000482600000600520010B5072900D901BEB2
:102BD0001F2314009C4300D001BE0E4B1B689C6950
:102BE0005B69001BC0090001C0181F231A4003299C
:102BF00007D8C9008B408A4004689C432243026086
:102C000010BD0439C9008B408A4044689C4322436C
:102C10004260F5E770660208F0B5060085B00D0069
:102C20001400002800D1EAE0002A00D1E7E00729DB
:102C300000D901BE2368012B00D901BE0F236268B1
:102C40009A4300D001BE1F22237A934300D001BED5
:102C5000E368032B00D901BE2369012B00D901BE13
:102C60006369012B00D901BEA369012B00D901BE04
:102C7000E369032B00D901BE236A012B00D901BEF1
:102C8000636A012B00D901BEA36A012B00D901BEE2
:102C9000E36A032B00D901BE236B072B00D901BEC9
:102CA0002368072D00D901BE0121A9400091012B05
:102CB00003D901BE009BB36003E0002BFAD1009B57
:102CC00073606368072D00D901BE0F22190091437C
:102CD00000D001BE4B4FAA0002923A68A800793298
:102CE00012789219116801910F218140019888434F
:102CF00001000F200340A80083400B431360227A99
:102D000029003000FFF760FFE368082D00D901BEFD
:102D1000032B00D901BE39686A0078310878301871
:102D200001680F00032191408F43390003273B4086
:102D30009340194301602369082D00D901BE012B7E
:102D400000D901BE012700983B40C043AB40B169A8
:102D500001400B43B3616369072D00D901BE012B0C
:102D600000D901BE27491032096801917A310978EA
:102D700071180F68BC4601273B40AB400393634684
:102D80001840039B184308600321019B7B3318788C
:102D9000301803689C46A3693B40AB40E5690D4091
:102DA000954091402B436546009A11438D432B4338
:102DB0000360626A0221BA4004200A40A16A019BB2
:102DC000890001400A43216A02980F4018211743E5
:102DD000E26A7C33D2000A401743226BE73152018A
:102DE0000A401743FE2292001040874000201B78C3
:102DF000F61833688B431F43376005B0F0BD0248B7
:102E0000FBE7C0467066020801005A00084B1B68C9
:102E1000B0331B68C3181B68002B06DA0B0C00D0FC
:102E200001BE89B24160002070470248FCE7C046FD
:102E30007066020801008A000368002B07DAC2608E
:102E40000B0C00D001BE89B28160002070470148A0
:102E5000FCE7C04601008A00002900D101BE074BF3
:102E60001B68B0331B68C3181B68002B03DAC368E8
:102E700000200B6070470248FCE7C04670660208FD
:102E800001008A00024B1A68002A00D118607047BE
:102E90003C640208F0B5224E059D3468002C00D138
:102EA00001BE2C24FF27604334681E0A20181C0032
:102EB0003E4046601B4E1B0C836033683C40046000
:102EC0002E331B789C4200D301BE33681F00AC3701
:102ED0003F887C431F6A2F33E419046147681B78DD
:102EE0009F4200D301BE33681C6A3B0080335B0104
:102EF000E318436183681E0C01D001BE01BE1B04B0
:102F00001E0C33437F01084EE419A41923600023EB
:102F1000C261016283619D4201D02B888381F0BD33
:102F20003C6402087066020808100000F0B5040056
:102F300085B0002800D101BE6368032B00D901BE13
:102F4000E36A002B00D101BE236B002B00D101BE30
:102F5000A36802AD2B80144B22681B68E16A9B8E2C
:102F6000E0689B18AB706368A26A039300952369BD
:102F7000266A676AFFF78EFF00213B000A00009176
:102F80003000FFF787FF216B280002F09BF9002239
:102F9000AB5E002B06DB1F2213401E3A9A40130043
:102FA000024A136005B0F0BD7066020800E100E05F
:102FB000F0B5002A00D101BE164C2568002D00D1C5
:102FC00001BE25682C2460436143281804696918F0
:102FD000002C1BD08D69002D1AD12568002D17DA21
:102FE00001263500370040688540486887401068F2
:102FF0003F0480B238431060E2604B628E612B0C5C
:1030000000D001BE0020ADB2A560F0BD0248FCE7D3
:103010000248FAE73C64020804028A0007028A00B8
:1030200010B50B4C2368002B00D101BE2C23434369
:103030002068C018036A002B00D101BEC369934207
:1030400004D9036A00209200D15010BD0148FCE76A
:103050003C6402080A028A00002373B5040001934D
:10306000984200D101BE2369002B00D101BE6369E3
:10307000002B00D101BE236A002B00D101BE626982
:10308000D5682B0C22D01B04136013681A4B2069DF
:103090001B68B0331B68C3181B68002B16DA01A924
:1030A000FFF7DAFE0026B0420CD10198E26903680E
:1030B0001E0CDBB29A4205D9226A9B009B58002B5A
:1030C00000D0984731002069FFF7A0FEADB2002D77
:1030D00009D063691D6000251B68636AAB4205D097
:1030E00098476562A56163691B6873BDA36A002B7D
:1030F000F8D09847F6E7C04670660208064A10B551
:103100001368002B00D101BE2C2343431068C01864
:10311000FFF7A2FF10BDC0463C640208074A1368CF
:103120002E331B78834200D801BE13681A00AC32DC
:1031300012881B6A5043C0187047C0467066020868
:10314000F8B5174B0D001B682E331B78834225D929
:10315000002923D01F240B681C401FD1FFF7DEFF7E
:1031600007002B680F4EDA0821003060686806F00F
:10317000FFFA21003800FFF749FE21002A003068DD
:10318000FFF75AFE041E07D101003068FFF73EFE2C
:1031900003002000002B00D00348F8BD0348FCE7E3
:1031A000706602084064020801018A0003018A0077
:1031B00010B50C00002A07D100290DD1FFF7AEFF92
:1031C000064B1860200010BD002905D004490C6092
:1031D0004A60FFF7B5FFF6E70248F4E740640208EB
:1031E0001400000803018A00F7B5184F04003B687B
:1031F0000191DE683368834226D90025A94202D1B5
:1032000004F0FBFE050038680368002B1ADA1F2261
:1032100001232240934064097268A40014192268B3
:1032200013420DD09A43226000240021FFF7EEFDE7
:10323000019B002B02D1280004F0E3FE2000FEBD1C
:10324000034CF2E7034CF3E7034CF7E74064020852
:10325000020188000301880004018A000A4B1B68F0
:10326000DB681A6882420DD959681F234209184049
:103270001E3B8340920050581840431E9841034B18
:10328000C01870470248FCE740640208000188004B
:1032900004018A007047704730B5114D2B685B6C94
:1032A000C340DB0700D401BE0F2900D901BEF023C3
:1032B0000A041B030F241A400B002D6823401A43F5
:1032C000830228691B188020C0011A50185820401A
:1032D000401A411E884103494042084030BDC04663
:1032E000706602080300C20010B5002800D101BEBC
:1032F0004B89DB0B00D001BE02238A799A43012A55
:1033000000D001BECA799A43012A00D001BE4A8981
:103310007F2314009C4322D107248B79520223403F
:1033200013434A7A313492071343CA79097AD20097
:103330002240134301224A40920113431A000949D3
:103340000A409A420BD14262406A0840801A4342C6
:103350005841054B40421840044BC01810BD04486A
:10336000FCE7C046DBFEFFE0FDFF3DFF0300C200BF
:103370000100C20030B5002800D101BE4B89DB0B33
:1033800000D001BE8B79072B00D901BECB79072B6A
:1033900000D901BE0B79073B182B00D901BE4C891F
:1033A0007F2322009A43131E2DD107250A68FF337D
:1033B0009A434B7964021A438B792B4023434C7A0E
:1033C0003135A4072343CC79E4002C402343012466
:1033D0000D7A09796C40A4012343F8240906640599
:1033E00021400B4343600260016891420DD1406867
:1033F000074A1040C01A43425841064B4042184009
:10340000054BC01830BD0548FCE70348FAE7C04645
:10341000FFFEFFFFFDFF3DFF0300C2000100C200F1
:10342000002800D101BE8023426A1B061343436279
:10343000406A024BC00F0138184070470300C200B9
:10344000002800D101BE802342681B06134343605D
:103450004068024BC00F0138184070470300C2009B
:1034600010B5002800D101BE02238A799A43012AAF
:1034700000D001BECA799A43012A00D001BE194B7F
:103480001B682C331B781F2B27D84A897F231400F5
:103490009C4324D107248B795202234013434A7A58
:1034A000313492071343CA79097AD2002240134378
:1034B00001224A40920113431A000B490A409A42E2
:1034C0000DD14262406A0840801A43425841074B7E
:1034D00040421840064BC01810BD0648FCE706489D
:1034E000FAE7C04670660208DBFEFFE0FDFF3DFF25
:1034F0000300C2000200C2000100C20030B5002873
:1035000000D101BE8B79032B00D901BECB79032BEF
:1035100000D901BE0B79073B182B00D901BE224B05
:103520001B682C331B781F2B37D84A897F23140044
:103530009C4334D107248B795202234013434A7AA7
:10354000313492071343CA79D20022401343012237
:103550000C7A6240F824920113430A79640512063A
:10356000224013431A00114C22409A4217D1FF23E4
:103570000D6849799D432B000B434260036001684D
:1035800099420ED140682040801A43425841084B6E
:1035900040421840074BC01830BD0748FCE70748B9
:1035A000FAE70448F8E7C04670660208DBFEFFFF52
:1035B000FDFF3DFF0300C2000200C2000100C20087
:1035C000002800D101BE094B1B682C331B781F2B30
:1035D0000AD88023426A1B0613434362406A044BA5
:1035E000C00F0138184070470248FCE770660208B7
:1035F0000300C2000200C200002800D101BE094B36
:103600001B682C331B781F2B0AD8802342681B06AB
:10361000134343604068044BC00F013818407047A3
:103620000248FCE7706602080300C2000200C20004
:1036300010B5002800D101BE0B78032B00D901BEC4
:103640004B78032B00D901BE184B1B682C331B7819
:103650001F2B27D88A887F2314009C4324D107245A
:103660000B78520223401343CA7831349207134334
:103670004A788978D2002240134301224A409201BD
:1036800013431A000A490A409A420DD14262406A25
:103690000840801A43425841064B40421840064BAE
:1036A000C01810BD0548FCE70548FAE77066020837
:1036B000DBFEFFE0FDFF3DFF0300C2000200C20091
:1036C0000100C20010B5002800D101BE0B78032B09
:1036D00000D901BE4B78032B00D901BE184B1B68E3
:1036E0002C331B781F2B27D88A887F2314009C43F8
:1036F00024D107240B78520223401343CA78313473
:10370000920713434A788978D2002240134301225A
:103710004A40920113431A000A490A409A420DD1C5
:10372000426040680840801A43425841064B40427C
:103730001840064BC01810BD0548FCE70548FAE7DD
:1037400070660208DBFEFFE0FDFF3DFF0300C200E4
:103750000200C2000100C200002800D101BE094BD6
:103760001B682C331B781F2B0AD88023426A1B0648
:1037700013434362406A044BC00F0138184070473E
:103780000248FCE7706602080300C2000200C200A3
:10379000002800D101BE094B1B682C331B781F2B5E
:1037A0000AD8802342681B06134343604068044BD9
:1037B000C00F0138184070470248FCE770660208E5
:1037C0000300C2000200C20010B5002800D101BEF3
:1037D0000B78032B00D901BE4B78032B00D901BE17
:1037E000184B1B682C331B781F2B27D88A887F2304
:1037F00014009C4324D107240B7852022340134326
:10380000CA783134920713434A788978D20022402B
:10381000134301224A40920113431A000A490A4005
:103820009A420DD14262406A0840801A4342584190
:10383000064B40421840064BC01810BD0548FCE737
:103840000548FAE770660208DBFEFFE0FDFF3DFF7A
:103850000300C2000200C2000100C20010B500282F
:1038600000D101BE0B78032B00D901BE4B78032B8E
:1038700000D901BE184B1B682C331B781F2B27D88F
:103880008A887F2314009C4324D107240B7852029A
:1038900023401343CA783134920713434A78897816
:1038A000D2002240134301224A40920113431A00DE
:1038B0000A490A409A420DD1426040680840801A85
:1038C00043425841064B40421840064BC01810BDB9
:1038D0000548FCE70548FAE770660208DBFEFFE0F2
:1038E000FDFF3DFF0300C2000200C2000100C20054
:1038F000094B1B682C331B781F2B0AD88023426A84
:103900001B0613434362406A044BC00F0138184042
:1039100070470348FCE7C046706602080300C20017
:103920000200C200094B1B682C331B781F2B0AD8DE
:10393000802342681B06134343604068044BC00F5A
:103940000138184070470348FCE7C046706602081B
:103950000300C2000200C200036810B50200802408
:103960001B0500D4403C82239B00D3580020DB057C
:10397000DB0DA34203D090239B00D150013010BD3A
:10398000036810B50400002B07D0012001F002FDF0
:103990002368013B2360002B01D0002010BD0148AB
:1039A000FCE7C0460200B200030A08704B70030C2B
:1039B000000E8B70C870704710B5002835D00029F4
:1039C00033D0002B31D05A62F9220324D20083581D
:1039D000A34383500B68DBB2012B00D901BE8B6877
:1039E000DBB2032B00D901BE4B68072B00D901BE07
:1039F000CB68DBB2012B00D901BEC022E0248B686A
:103A000092011B0313404A68E4021204224013434C
:103A100001220C6822401343CA688021120649041F
:103A20000A4013430360002010BD0148FCE7C04674
:103A30000400B2000300481E10B5C4B2012C04D922
:103A400004291ED0082920D001BE032A00D901BEB6
:103A5000072813D804F016FB041312171212121BB6
:103A6000802109015818002808D0C02112048902B9
:103A700003680A4007490B401A43026010BD8821C1
:103A8000EFE7032AE3D89021EBE7032ADFD8982158
:103A9000E7E7C046FFFFFCFFF0B585B001930AAB36
:103AA000070001CB151F0090EDB20CA804781B781D
:103AB0000E98FA2D00D801BE1D1FEDB2FA2D00D8C8
:103AC00001BE651E012D04D9FB26251F354200D0FD
:103AD00001BE2402A446F0240D9D2401EE07009DA2
:103AE0001204002D38D0019D002D00D101BEFF2B06
:103AF00000D101BE6546406A25400390C02029439D
:103B00002C000025800202401143360C2943002579
:103B1000C02228001B049202134039651C43009BFD
:103B20009D4202D2134B984201D105B0F0BD07224D
:103B30007B6C1340032B0BD8019B00995B5D013517
:103B4000234332008D4200D2002213433B65EDB285
:103B500003A8FFF715FFE2E7654625402C00C025C6
:103B6000406AAD022A402143350C039011432E00D8
:103B7000CCE7C0460200B200F0B51D1FEDB2069CB6
:103B8000FA2D00D801BE144E551EB54200D901BE13
:103B90000727466C3E40032E1BD8C0261B04B602E6
:103BA00033408026ADB2F60235432B4303650B1E2E
:103BB0000DD0059B21606260A260E361F9220223BF
:103BC000D200A3618158013B0B43835000231800AE
:103BD000F0BD024BFBE7C046FFFF00000100B20052
:103BE00070B51D1FEDB2059CFA2D00D801BE002A4C
:103BF00021D00726456C3540032D1ED88025561E42
:103C0000B6B22D033543C0261B04B60233402B4306
:103C100003650B1E0DD0049BE1602261626123628B
:103C2000F9220423D200A3618158023B0B43835045
:103C30000023180070BD024BFBE7024BF9E7C046BA
:103C40000400B2000100B200F0B50600181FC0B2B7
:103C50008FB0FA2800D801BE002A00D1AAE00724BC
:103C6000706C2040032800D9A6E08020541EA4B226
:103C700000032043C0241B04A402234003433365F4
:103C8000081E0ED0149B00205B6A07910393042347
:103C900009920C900A930A9B042B02D1474B98423D
:103CA00001D10FB0F0BD099B079C00933300C433D2
:103CB00001931D680F231D40009B9D4200D91D00EC
:103CC000002D17D1009B07940993002B0CD1F922EA
:103CD00002210320D200B3588B43B3500A900C9BAF
:103CE000002B01D00C9B9847009B03A80993FFF77A
:103CF00047FED0E7082D0AD13700D83738682100B1
:103D0000FFF752FE3868211DFFF74EFE05E0012D3A
:103D100009D13300D0331B682370009B64195B1BEF
:103D20000093019BC5E7022D06D13300D4331B68F5
:103D300023701B0A6370F0E7032D0AD13300D433DC
:103D40001B6823701B0A63703300D0331B68A37099
:103D5000E3E73700D83738682100042DD4D0052D8B
:103D600006D1FFF721FE3300D0331B682371D4E75F
:103D7000062D08D1FFF718FE3300D4331B682371DA
:103D80001B0A6371C9E7072D0CD1FFF70DFE330045
:103D9000D4331B6823711B0A63713300D0331B6853
:103DA000A371BAE7FFF700FE3868211DFFF7FCFD9D
:103DB0000825B2E7024874E7024872E70200B20041
:103DC0000400B2000100B20000290CD00722436CAD
:103DD0001340032B09D8C023013989B21B031943AF
:103DE0000165002070470248FCE70248FAE7C04638
:103DF0000400B2000100B2008869704700230B6024
:103E00004B608B600B61CB604B618B6180230268E0
:103E10001B06134303607047F0B5046843691D2017
:103E2000042C2AD11E381860012600204C78E406A4
:103E3000240F3500270085402F40BD4206D00130B9
:103E40000528F6D1FF2200201A71F0BD0428F9D010
:103E50000C7914704C790532D4718C79D474CC7986
:103E60000918D4770A7940001A601D3000221A71AF
:103E70005A71EAE72328E5D002300A5CFF2AF9D01C
:103E80001A60F3E7F8B505000E0017000D4C390075
:103E90002800FFF7B1FF864202D0013C002C0CD174
:103EA00039002800FFF7A8FF301A43425841064B5B
:103EB00040421840054BC018F8BD012001F06AFAD5
:103EC000E5E7C046E9030000FEFF4DFF0200B20037
:103ED000F0B500270C0087B00E9D060010000A798F
:103EE00009680495039702936379C9B20193032388
:103EF000009303003000FFF7CFFDB84216D12169CF
:103F00003000FFF761FFB84210D1237D0C9A00907A
:103F100001950D993000FFF763FEB84206D16C6A37
:103F20000A4BAA69032A01D0984201D107B0F0BD1B
:103F300000208442F5D00130013C01F02BFA6042B0
:103F40006041024B40421840EAE7C0460200B2001E
:103F5000F7B500258C79C0B20134E40001942F003C
:103F600008248446085D84450BD10E19F079FF289A
:103F700007D17078B84204D3B678012E01D107007A
:103F80002500019808348442ECD9002D0BD0491942
:103F90000879907048795070887910700020CA783C
:103FA00092001A60FEBD0148FCE7C0468000B200E6
:103FB00030B58B6987B0DB680C001500002B0FD083
:103FC00019681A79012303932378C9B20293FF2356
:103FD0000193002304950093FFF75EFD07B030BD09
:103FE0000048FBE78000B20070B516000022040014
:103FF000080086B00A9D0392049519000378009288
:104000000293FF23200001931300FFF745FD0028D2
:1040100006D103000095012231002000FFF714FEB5
:1040200006B070BD30B50F24012385B08D696C4496
:104030002370AB6A002B0BD01B680092DBB222000E
:10404000FFF7D2FF002803D12378AA6B1340237017
:104050002078431E9841C0B205B030BDF0B51F00B6
:104060008B6989B01C6A0500002C47D0002A47D014
:10407000586A0E9EB04243D34869C6B248690028C8
:1040800000D10E7821682079C9B207911099029663
:10409000049100210391617901911B6807990093B4
:1040A000130002002800FFF7F7FC002824D1A168C4
:1040B0004B1C12D12169002904D02800FFF784FE8F
:1040C000002819D1109A237D01920F9A390000928D
:1040D00028000E9AFFF750FD0EE0109B227B049300
:1040E000FF230390019300900300C9B202962800B9
:1040F000FFF7D2FC0028DDD009B0F0BD0148FBE796
:104100000148F9E78000B2000400B200F0B51F00DA
:104110008B6989B09C680500002C43D0002A43D0ED
:104120004869C6B24869002800D10E782168207914
:10413000C9B2079110990296049100210391617907
:1041400001911B6807990093130002002800FFF7F4
:10415000A3FC002824D1A1684B1C12D1216900299D
:1041600004D02800FFF730FE002819D1109A237DD3
:1041700001920F9A3900009228000E9AFFF730FD45
:104180000EE0109B227B0493FF2303900193009089
:104190000300C9B202962800FFF77EFC0028DDD09C
:1041A00009B0F0BD0148FBE70148F9E78000B20023
:1041B0000400B200F0B58C46002800D101BE83692E
:1041C0005868904219D31D6D002D03D00020DF6C7C
:1041D000874201D10A480DE08300EC582668B242BC
:1041E00009D3E36861684B439B199A4203D2634643
:1041F00000201C60F0BD0130EAE70248FAE7C04643
:104200000600B2000400B200F0B58BB006900D00BD
:1042100014000793002900D101BE002C31D00022E8
:104220002300AE69099231687769611899421FD1FC
:1042300009A92800FFF7BEFF002F20D03A79FF2AF6
:104240001DD0114B98421AD0002816D1099B9968AD
:10425000079B01920493012303932B78C9B2029325
:104260003368069800932300FFF716FC0BB0F0BDEF
:104270001878120202430133D8E73968E8E70348A7
:10428000F4E70148F2E7C0460400B2008000B20043
:10429000F0B5D5B008900C0009921E00002900D19D
:1042A00001BE002310AA1380937011AA138093708B
:1042B00012AA13809370626B22AD06921A005A55AF
:1042C0000133642BFBD1320009990898FFF7B2FB48
:1042D000069B002B03D16A4F380055B0F0BD5A9BA6
:1042E00001950293382310AA00930699099B089818
:1042F000FFF7EEFD071EEFD1AB79062BEBD82B783D
:10430000532BE8D16B78462BE5D1AB78442BE2D127
:10431000EB78502BDFD12B79052BDCD96B790A9305
:10432000012BD8D1002513AB11AA22A9554813950A
:10433000FFF70EFE14AB12AA22A953481495FFF7FB
:1043400007FE524B984201D1E5642565FF2015AB6D
:1043500010AA22A900021595FFF7FAFD071EBBD18E
:10436000A368002B00D101BEE368002B00D101BE81
:104370002369002B00D101BE6369002B00D101BE6F
:10438000E369002B00D101BE236A002B00D101BEDE
:10439000A36A002B00D101BE5A9B22AD0293159B4C
:1043A00010AA00930699099B01950898FFF790FDC4
:1043B000012207901000297F16AB8840179010004B
:1043C000697F1970A97F8840E97F1A901973692164
:1043D00008A809181000C97F88406A211D9008A804
:1043E0000918C97F19766B210918C97F23AB8A4048
:1043F0002092DA7F3D231B18DA77AB7800225B0727
:104400009B0F032B01D0224AD25C239B2260002BFE
:1044100030DB0133DB080122110063602CAB1B7819
:1044200004201B09994006236162E1680B600023A8
:104430000B7121690B7108600521A263A26A1371D7
:10444000E36A1160002B00D101BE236B002B00D169
:1044500001BE0022236B08A91A71A23252181078EB
:104460004006400F05281BD8012203F00BFE13DF86
:10447000E5EBDFDF8022033B12061343CBE7C046A8
:104480000500B20084FF000081FF00008000B20040
:10449000C0D00D1001225242E2631A60E36A1A6032
:1044A0006022E3691F251A6000221A710F232B9ADC
:1044B0002C991A40013250000A0E2A400132424320
:1044C0004800BB4B800F4000C05A0F234243626438
:1044D0000A0A15400B404022890400D4383A0220D1
:1044E000013301355B006B43534322AAA364A568E3
:1044F00093788643012E00D1ABE02021194000D1F2
:10450000C1E0537A68712B6000232B71137A5B0929
:1045100000D0B4E0013BAB601F2222AB1B7A052622
:1045200013402B6102232B752368042B00D0EEE18E
:1045300031AB1B785A0600D49E4F0120034229D08C
:104540009B0712D5E368002B0FD019681A795A9B84
:1045500003900493099BC9B20293FF2301930023A4
:1045600008980093FFF798FA0700924B9F4201D0FA
:10457000002F20D15A9B0022049301230393099B0F
:1045800000920293FF23B721019308981300FFF7CD
:1045900083FA0700002F0ED15A9B11AA02933BAB5E
:1045A0000193139B069900930898099BFFF790FCD1
:1045B000071E00D1A5E0012054AB1B18C93B1A7897
:1045C000012393401B38A36143080B930F232B9EB9
:1045D0000020334001335B000793FA239B009C4685
:1045E00018AD3300C3401F211A090A405B0A1C3969
:1045F0000B407D31022B06D06146032B03D01021E6
:10460000012B00D00F39079B01325A434A43073030
:104610002A600C351C28E4D10B9B1038584354AB4E
:1046200018180538FF3883682364D9E00221E16354
:104630001A60E36A352232E74021E1631A60E36AD7
:1046400005222CE78022E263423A1A60E36A0132D3
:1046500025E71021194033D0D37B6E712B600023E6
:104660002B71937B5B0927D1013BAB601F2222ABEF
:104670009B7B032613402B6101232B7554E7FF23FB
:104680002873AB6048E7FF265B0600D44CE7D37A7B
:1046900029712B606971937A5B090AD1013BAB6088
:1046A0001F2222AB9B7A042613402B6102232B7519
:1046B0003AE7AE602973F3E7FF232E73AB60D5E7CB
:1046C000334015D0537B29712B606971137B5B09D3
:1046D0000AD1013BAB601F2222AB1B7B0226134099
:1046E0002B6101232B751FE7FF232973AB60F2E7D2
:1046F00003222A60043A2B716B71AA602B612B751F
:1047000012E7013E3B9B042E09D8300003F0BAFCAF
:104710001D19151103009B0601D5EC232B60236A9C
:104720003B9A042E54D8300003F0ACFCE2E2E231B4
:104730001300DB06F3D56C23F0E71B07EFD5BC2392
:10474000ECE75B07EBD53C23E8E79B07E7D50C23B9
:10475000E4E7802501206D0015404042002D0AD07D
:104760003E2200211A603C3A19715A7198601A73FE
:1047700019611A752CE0802111401DD034221D7161
:104780001A605D7198601D731D61323AF1E78021F6
:1047900001201140404200290ED034221A6000222C
:1047A00098601A715A711A731A610232E1E7C046B1
:1047B000C4D00D108000B20040252A4000D18FE007
:1047C000122219711A60597198601973196119755B
:1047D00016AA3BA92000FFF71FFB002800D0EBE63C
:1047E000236D002B00D177E55A9B12AA029322ABCE
:1047F0000193149B069900930898099BFFF768FBA7
:10480000071E00D068E50600149B3B900B93814B7C
:10481000069007930221069A22ABD25C0A4000D18F
:1048200088E0079B002B51D1692208AB6831C91879
:10483000D2180698069B105CCB5CB04200D0CCE04E
:104840005A1CD2B2E264012A46D90025226D9B008F
:104850000B92069A09950432D3180C93069B089381
:104860006821099B5B190993089B04330893089AF4
:1048700008AB5B18995C0F23194000230A9A0A427F
:1048800000D1B5E06820089908AA12185258150AF4
:104890000D920A0006990135521A0B99043A8E5866
:1048A000099A2D0232600C22534316AAD3181A78A3
:1048B0005968B2609A6832618D4200D3A2E0012348
:1048C000F5607360089B0C9A9342C9D1079B1A004C
:1048D000504B9A4200D09BE00023E3642365FBE445
:1048E00002211A7119605A7198601A731A6140E7AF
:1048F00040210A404139002A06D012221A600022C3
:104900001A715A719960F0E702201860F8E70222E4
:10491000236A01211A60002249421A715A71996072
:104920001A731A611A7522A916AA2000FFF774FAE1
:10493000079F52E706995B18D87859780C901F208A
:1049400007919B7808A9401802709B090320012B4E
:1049500005D0181E03D00420022B00D02068069D2D
:104960000022AC463BAB844490422ED15A9A09991E
:1049700004920022029100900392019207990898F4
:10498000FFF78AF80790002815D11F2508ABED180E
:104990005A9B01220093290003000898FFF754F95D
:1049A0000790002807D17600F3B20C9A2E781640B3
:1049B000721E96411E43069B08330693069A0B9B74
:1049C000934200D326E7144F86E4654622A9AD1A28
:1049D0004D19ED789D540132C6E7069802339B00CD
:1049E000C318069306980B9B834200D321E7EAE79E
:1049F00001335200DBB2D2B2052B00D03FE7064AAA
:104A000007923FE7F160280003F046FB706059E72A
:104A1000079F61E40600B2000700B200F0B589B05C
:104A200002900792002800D111E1002900D10EE187
:104A30004B680593002B00D109E1002A00D106E163
:104A40000B680693002B00D101E10023C0260393DD
:104A50000493B602039B059A9B00D458002C00D106
:104A6000D9E023785A1E012A06D90422043B934335
:104A7000DBB2002B00D001BE237A032B00D901BE8C
:104A8000A369002B00D101BE2278501E072800D94F
:104A9000DBE003F0F7FA04D1DAD4DADADAD78021EE
:104AA000029B09015D18237A29686A4F1804304077
:104AB0003940014329600421606808400DD00799FE
:104AC00002980091A169FFF7E3FB002805D00823B5
:104AD000039A9340049A1A430492A3691B68013B0A
:104AE000032B00D901BE002800D094E063689B0727
:104AF00000D490E02169E06803F054FB002900D065
:104B000001BE2369544A934202D95A1E134200D06F
:104B100001BEFF218C466746E168A069B9438268FF
:104B2000036AA96021694942B943E9600168032029
:104B3000013901406069471EB84100020143296202
:104B4000002A2DD010680021471C08D06746074076
:104B50008020117900060904314007433943296454
:104B6000517990680904314069640021471C07D0DD
:104B70008027117BC0B209043F063140384301430E
:104B80000020A9641169814205D01F30013901401C
:104B9000802000060843E864127D120432402A6532
:104BA000002B2CD019680022481C07D080201A79CD
:104BB000C9B212040006324001430A432A665A79F8
:104BC0009968120432406A660022481C07D080208F
:104BD0001A7BC9B212040006324001430A43002185
:104BE000AA661A698A4205D01F31013A0A4080211B
:104BF00009061143E9661B7D1B0433402B67022124
:104C00006268FF3111408022237A12061B04334070
:104C10000A4313432B60039B01330393039A069BC0
:104C2000934200D016E70020049B002B02D0B22054
:104C30000004184309B0F0BD029B882131E7029BB4
:104C400090212EE7029B98212BE70448ECE70348CC
:104C5000F0E7C046FFFFFCFFFFFF00000400B200CA
:104C6000F7B50F00009015000193960800D10136AA
:104C70002C00B54200D934002D1B0C4B20009C4267
:104C800000D91800241A80B200F084FB002CF4D163
:104C9000019A39000098FFF7C5F9002803D0002DCC
:104CA000E6D10348FEBD2000FCE7C046FFFF000040
:104CB0000200B200F0B51F00002389B005900D007E
:104CC00016000793994200D101BE002F00D101BE0A
:104CD000AA690E9B5268F3181748934227D909B066
:104CE000F0BD80230E9C5B029C4200D91C00310069
:104CF000AB6907AA1B68013B9954090A002BFAD13A
:104D00000F990193029100943B0029000598FFF749
:104D1000FDF90028E3D10F9A03210598FFF7B2F8B7
:104D20000028DCD10E9B36191B1B0E933F190E9BDE
:104D3000002BD6D1D3E7C0460400B200F0B51F0067
:104D4000002389B004900C0015000793994200D10C
:104D500001BE002F00D101BEA2690E9B5168EB1865
:104D60008B4243D8536A224805930E9B002B01D1F6
:104D700009B0F0BD0599280003F014FA0E9B059ABE
:104D80005B180E9E934200D3561A0F9A2100049886
:104D9000FFF70EF90028EBD12900A36907AA1B68C9
:104DA000013B9954090A002BFAD10F990193029102
:104DB00000963B0021000498FFF750F90028D7D156
:104DC0000F9A01210498FFF75DF80028D0D1A2695D
:104DD0000F9B926C21000498FFF742FF0028C7D177
:104DE0000E9BBF199B1BAD190E93BEE70048BFE792
:104DF0000400B200F0B58BB003930023059001913D
:104E0000029208930993002900D101BE019B029AE6
:104E10009B6909A904939F691B6C01980793FFF78D
:104E2000C9F9041E18D1099BDF685E681D687E43BE
:104E300073190693039B002B00D1394C029B390058
:104E4000581B03F0AFF9002903D1354B9C4206D122
:104E5000334C20000BB0F0BD00250695EAE7029B1D
:104E6000039A9E18069BB34209D9721E09A901989C
:104E7000FFF7A0F9041E02D1099B1D68DF68701BB3
:104E8000390003F08FF90029E3D1254B9C42DFD094
:104E9000039B002BDDD0029A09A90198FFF78AF93C
:104EA0003500041E0AD1099BDF685D681A697D43DD
:104EB0001B680792ED18B54200D93500FA23079A0E
:104EC0009B005343069326E0109A01990598FFF73B
:104ED0006FF8041EDCD1049B029A1B68013B08A9F1
:104EE0005A54120A002BF9D10A00109B0199059817
:104EF000FFF78AF9041ECBD1109B069A01990598F9
:104F0000FFF7AEFE029B0400DB190293039BDB1B41
:104F100003930028BCD1029BAB42D5D3B8E7C0466F
:104F20000400B200A6220549D2008B580220DB43C0
:104F30009B0702D001238858184070470000264084
:104F4000074B01381B683B331B78834200D801BEF6
:104F50008130044BFF308000C058C00F7047C046FE
:104F6000706602080000264010B5FFF7DBFF002343
:104F7000022801D1014B1B68180010BD44640208CF
:104F80000C4B1B683A331B78834200D801BED022F9
:104F9000094B80009200C31898580722104004283B
:104FA00007D1C022920098581F2303408020400060
:104FB00018437047706602080000264010B51B4B6E
:104FC0001B683A331B78834200D801BEFFF7D8FF35
:104FD00003281CD005D8012816D013D9FFF7C4FF29
:104FE00011E01223FF33984213D01423FF33984269
:104FF00017D0033B984217D10D4A0E4BD058C00F23
:10500000C00300E00C4810BD0C4B1868FBE70C4BCC
:10501000FBE70C4B186904231840F4D080200002F1
:10502000F1E7034A084BE9E70020ECE77066020865
:10503000000026400C05000000127A0048640208B7
:10504000A8640208000027403C05000010B50028B5
:1050500000D101BEB023154ADB00D3580F249903B9
:10506000DB01DB0F890BC371114B0160D358D904ED
:10507000DB01DB0D0381B123DB00D358C90C818038
:1050800019002140817219092140C172D9029B0087
:105090009B0F8373074BC90CD35881815A05DB01E1
:1050A000520FDB0D8271038210BDC0460000264006
:1050B000840500008C05000010B5104B421E1B68D3
:1050C0003B331B78934216D97F221F248030FF3058
:1050D0000B4B8000C3581A400A701A0C2240180A61
:1050E0008A701A012040E240487000209B009B0F0C
:1050F000CA700B7110BD0348FCE7C0467066020819
:105100000000264001004A00F0B5324D87B02B6800
:1051100004003A331B78834200D801BE2000FFF719
:105120004DFF0600002C38D101AD142221002800CB
:1051300004F01EFB2800FFF789FFB023264ADB009E
:10514000D358002B03DAAC7B023C631E9C41EA7906
:10515000019F531E9A41A8880132002C1AD00028C2
:1051600018D0002A16D00023190003F069F9002393
:105170000C0005003A003000190003F061F9E60761
:105180006A0832436308801859412A00230003F05B
:1051900037F90600300007B0F0BD2B683B331B78B1
:1051A000A342F7D301AD05220021280004F0E0FA64
:1051B00029002000FFF780FF2000FFF7C1FE002438
:1051C000A04203D02C79023C631E9C412F78687862
:1051D000AA78C2E7706602080000264070B5114D3B
:1051E0002B683C331B78984200D301BEE022012497
:1051F0000D4B8100C91892008B589B069B0F9C4059
:105200002B683C331B78984200D301BE0F2388588B
:105210001840FFF779FF63081818210002F03CFFDF
:1052200070BDC0467066020800002640184A30B5BE
:1052300013681C00283424781F2C16D882080724F1
:105240001500A5432C1E0FD103342040A0408140FF
:105250001B68920020339B180A00FF2181401C68C4
:10526000624011406140196030BD1B8FDBB28B4240
:1052700000D101BE13681A680723184080231B065B
:10528000184380239B01C91889008850ECE7C04669
:1052900070660208084B10B59C680300074A10337B
:1052A0009B00944205D1002900D101BED058D150B5
:1052B00010BD034AD058FBE700ED00E000A0000855
:1052C00000000D10F8B506000D0000283ED0436820
:1052D000032B00D901BE0023F05E002828DBB17843
:1052E000FFF7A4FF0024FF22032794460023F05E6B
:1052F000716883B21F40FF006646BA4089013140A1
:10530000D243B940002815DB114E83089B009B193E
:10531000C026B6009F593A40114399510D4B9A68E7
:105320000D4B9A4202D12900FFF7B4FF2000F8BDCF
:105330000A4CD8E70F263340083B064E9B089B00DB
:105340009B19DE6932401143D961E7E7034CEDE771
:1053500000E100E000ED00E000A0000801005600C0
:1053600070B5802504002D02AC4205D8064B1868A4
:10537000604302F039FE70BD044B186802F034FE41
:10538000034BE418F0E7C046C8A10008C4A1000818
:105390000080FFFF10B5034B1B78584302F024FE3A
:1053A00010BDC046CCA10008FEE7000002680A4B11
:1053B00010B5DA6142681A6282685A62C2689A62FB
:1053C0000269DA6242691A6382695A63C2699A633E
:1053D000FFF7EAFF10BDC04670A70008B0235B05C9
:1053E0009A89002A02D0988980B2704780204000B4
:1053F000FBE70000044A13682E331B78002B00D112
:1054000001BE1368186A7047706602087FB50D0008
:10541000042800D901BE6B1E012B04D9FB222B1FCF
:10542000134200D001BE264B8600F458042D01D053
:10543000012D27D100200FE0A3682B420BD1E36898
:1054400029001A685B6802920193039302A82368FB
:1054500098471C4B1C606469002C0BD01A4B984277
:10546000EAD1012DE8D1174B17481A68174B9A510A
:1054700004B070BD012DFBD1134B9842F3D0134BF8
:105480009C51F5E7022D06D10E4B1B68181EEFD07C
:105490001C6903E01C006369002BFBD10020002C79
:1054A000E6D0A3682B4209D1E36829001A685B683B
:1054B00002920193039302A8236898472469EEE7B8
:1054C0008C64020888640208FF00420074640208C9
:1054D000002800D101BE1A4B1B68190004C9C96F0E
:1054E00051180968016219000831C96F5218126811
:1054F00042621A0042321278002A1FD09A68E032C3
:105500001268D2061AD5F222DB68D2019A580260DC
:10551000F022D2019A5842600A4A9A5882600A4A96
:105520009A58C260094A9A580261094A9A584261D7
:10553000084A9A588261084A9B58C3617047C0461E
:105540007066020804780000087800000C780000FB
:10555000107800001478000018780000002800D1AE
:1055600001BE1A4B1B681A1D1968D26F8A18016A8E
:1055700011601A0008321968D26F8A18416A1160E6
:105580001A0042321278002A1ED09A68E03212685D
:10559000D20619D5F0224168DB68D20199508168A2
:1055A0000B4A9950C1680B4A995001690A4A9950AF
:1055B00041690A4A99508169094A9950C169094A61
:1055C00099500168E83299507047C04670660208E9
:1055D00004780000087800000C78000010780000C3
:1055E0001478000018780000B023F7B55B055A78EE
:1055F00007002126002A01D05E78F6B2012F00D9DB
:1056000001BE624D6B68002B00D07CE002F0F5FC1F
:105610006B680090002B00D088E05D4C226813007E
:10562000AC33198807234B43126A9B181A68002A67
:10563000FCDADB68DA0020D51B0F1B075548019305
:10564000FFF746FF5449212E00D074E090202268D5
:105650000001131DDC6F13681C1923680B40034302
:105660002360130008331268DB6FD3181A681140E7
:1056700008431860474B019A13438022444E920519
:10568000316813430A00AC321088072200244243D9
:10569000096A5218D36054605368FFF79FFE802355
:1056A0005B0098425CD1380007F012FB32681300AF
:1056B000AC33198807234B43126A9B181A68002AD7
:1056C000FCDADF68FB0003D538010009FFF746FF6D
:1056D000324B32681F401300AC33198807234B4309
:1056E000126A00989B180022DF605A6002F089FC61
:1056F000002C0FD16B68002B03D008210120FFF78D
:1057000085FE2000FEBD01210800FFF77FFE041E7C
:1057100000D17BE76B68002B03D002210120FFF74B
:1057200075FE1F4B9C42ECD01E4CEAE70421012081
:10573000FFF76CFE71E7802220685200031DDC6FCA
:1057400003681C1923680B401343236003000833CC
:105750000068DB6FC318186801400A431A6089E7C4
:10576000FFF748FE3368B0331B68C0180368002B8E
:105770000ADB04230C4A11690B431361012F01D08A
:1057800030BF93E720BF91E7054C8FE78C64020898
:10579000706602084C640208FF00FFFFFFFFFFDF96
:1057A00005004200FF00420000ED00E0C022C023DF
:1057B0000349520088581B0603438B507047C0466C
:1057C00000002640C023044A5B00D058800F431ECF
:1057D0009841C0B27047C04600002640C0228020D9
:1057E000064952008B58C0059B009B0803438B5011
:1057F000802388581B0603438B50704700002640C7
:10580000094B10B50400984200D901BEFFF7DAFF3A
:10581000002808D1C423054A5B00D058A4B2000C6C
:1058200000042043D05010BDFFFF000000002640C0
:1058300010B504000F2800D901BEFFF7C3FF0028F0
:105840000BD1C422F02005495200000324048B58D8
:105850000440034803401C438C5010BD0000264008
:10586000FFFFF0FFE0230121024ADB00D150D358B3
:105870007047C04600002640C0220123044910B5ED
:105880005200885803438B50FFF7ECFF10BDC04611
:1058900000002640F8B5284B421E05009A4248D821
:1058A000264B1A78002A44D10124254F1C703B78DE
:1058B000244E002B07D1FFF7DFFFE122D200B358BF
:1058C000A343B3503C70C022012100245200B358BE
:1058D0008B43B3501C4B1D801C4BA2009918498868
:1058E000A94221D8D35A9D4200D21D00184B200056
:1058F0001C70FFF79DFFC22328005B00F65803F0E1
:1059000031FE144A144B02F0A5FE02F0C3FD112330
:105910001C1B103BA3408019C01A80B2FFF770FF18
:10592000FFF7AAFF0020F8BD01340D2CD5D1013CB2
:10593000DCE701204042F6E76F170000A46402088C
:10594000A564020800002640A2640208CCD00D1015
:10595000A064020833DFC14F1C409F3FC0220120DA
:10596000044952008B5883438B500022024B1A701B
:105970007047C04600002640A4640208C0220120EF
:10598000024952008B5883438B50704700002640D9
:1059900010B50020FDF7B2FB10BD000010B50020CF
:1059A000FFF71CFC002829D0154B1860154B1B680D
:1059B0001A1D1C68D36FE4182168090E013102F02A
:1059C0006BFB114B18602168090AC9B2013102F062
:1059D00063FB0E4B441E18600D49200002F05CFB77
:1059E000FA210C4B013018708900200002F054FBA2
:1059F000094B01301860094BC003186010BDC04648
:105A0000BCA1000870660208C0A10008B8A1000887
:105A100040420F00CCA10008C8A10008C4A10008A2
:105A2000024BD86F032318407047C0460400214042
:105A300010B502F0E2FA0749074ACB6F1A40074B4C
:105A40001343CB67102306490A681A42FCD002F0C0
:105A5000D8FA10BD04002140FCFF00000100FA0547
:105A60008800214070B583050600002B00D001BEE0
:105A70000E4C02F0C2FAE36F0500DB439B0701D135
:105A8000FFF7D6FFB0230A4A9B00D650E36F094ABE
:105A900009491A40094B1343E36710230A681A4265
:105AA000FCD0280002F0ADFA70BDC04604002140D1
:105AB00000002140FCFF0000880021400300FA059F
:105AC000F8B508000D0014000E1E05D0731B9C4293
:105AD00003DCE043C0172040F8BD377839000348A5
