:02000004101DCD
:1000000000C00E087BA61D100D000000D9A61D1013
:1000100000000000000000000000000000000000E0
:10002000000000000000000000000000D5A61D1028
:100030000000000000000000D5A61D10D5A61D1070
:10004000D5A61D10D5A61D10D5A61D10D5A61D1010
:10005000D5A61D10D5A61D10D5A61D10D5A61D1000
:10006000D5A61D10D5A61D10D5A61D10D5A61D10F0
:10007000D5A61D10D5A61D10D5A61D10D5A61D10E0
:1000800010B5064C2378002B07D1054B002B02D06E
:10009000044800E000BF0123237010BDB89601089A
:1000A00000000000B4B91D10044B10B5002B03D0A4
:1000B0000349044800E000BF10BDC0460000000036
:1000C000BC960108B4B91D10F7B5684D2B684033D4
:1000D0001B78002B00D101BEE02201206449920070
:1000E0008B589B069B0F98402B68019040331B78E0
:1000F000002B00D101BE0F238A5813402A683E32DC
:100100001278934200D301BE2A683E32127893429D
:1001100000D301BE2A683E321278934200D301BE5A
:10012000534A9C00A418D02207209200A2580240F3
:10013000042A07D1C0229200A25818301040802211
:10014000520002438820400082425ED005D8002A37
:100150000DD0022A50D000260AE01220FF30824241
:1001600058D01420FF308242F5D1424A4EE0424E30
:10017000002B57D1B0248020E4000A594004970393
:10018000024094463D4A3E4D885804328A584D59A3
:100190000C59C004BF0BC00C1900002C04DA9100EC
:1001A000890F02394C1EA1416246531E9A41013209
:1001B00000291AD0002818D0002A16D000231900D0
:1001C0000AF0BCFC00230C0005003A0030001900C6
:1001D0000AF0B4FCE6076A08324363088018594104
:1001E0002A0023000AF08AFC0600019B58088019A7
:1001F00019000AF0D9FDFEBDA620C0000A5800264D
:10020000D2439207B4D00A58B2E71E4A8E58F60F6E
:10021000F603ADE704201C4A16690640A8D08026E4
:100220003602A5E72A683F3212789342DDD8013BB7
:10023000164D9A4213D97F271F226159080A0B0CC9
:100240000F4089001040890F1A40002364599C42D6
:1002500003DA02390B00591E8B411900A8E701BED1
:1002600000210A0008000F00EFE7C046D8960108F9
:10027000000026403C05000000127A0084050000C2
:100280008C0500000C05000000002740FC05000064
:10029000074B9B68DB681A68002A06D05B68186801
:1002A00001231840034BC01870470348FCE7C046C1
:1002B000D89601080001880004018A00437802787A
:1002C0001B021A438378C0781B04134300061843AB
:1002D000704730B5050001230F24FD350949FF356E
:1002E0005B42027801305A40130922409200525872
:1002F00053401A0923409B005B585340A842F0D159
:10030000D84330BD30AF1D10F7B500258C79C0B291
:100310000134E40001942F0008248446085D8445DC
:100320000BD10E19F079FF2807D17078B84204D3A9
:10033000B678012E01D107002500019808348442C7
:10034000ECD9002D0BD0491908799070487950707C
:10035000887910700020CA7892001A60FEBD0148AA
:10036000FCE7C0468000B200074A136833331B78AD
:10037000834200D801BE13681A00BA3212881B6A81
:100380005043C0187047C046D896010870B50400A5
:100390000020FFF7E9FF144B14491B68BC331A68AF
:1003A000002382180568002D06DB8B4202D18420D1
:1003B000404270BD0133F5E78B42F8D00123C460A1
:1003C000836000230A491068002803DA8B42EED0CC
:1003D0000133F8E78B42EAD0A022236812060020FE
:1003E0009342E6D01800E4E7D8960108983A000056
:1003F000009435771FB5084B002402936B4602A882
:10040000039301AB01940093FFF7C0FFA04200D01B
:100410000194019804B010BD001B0035002803D0E2
:100420000378013B1F2B00D970470130F6E700220B
:1004300010B504001000A15C0B00303B092B09D85B
:1004400030380818531C032A03D000011A00042B6B
:10045000F1D110BD0B00413B052B01D83738F0E737
:100460000B00613B052B01D85738EAE70020F0E785
:10047000F0B50B7885B0039017004D1C222B17D0D8
:10048000116000202AE05C2A07D1019A5278002AE4
:10049000F7D0019A013301320192019A013201929F
:1004A000019A1278222A00D1A7E0002AEBD1E8E7CE
:1004B00001950023F4E72B785C2B11D023700135D4
:1004C0000134019B9D42F6D30023039A2370083325
:1004D000D36013000198029A01301A6105B0F0BD93
:1004E0006B78662B63D014D82F2B61D007D8222BC2
:1004F0005ED0484B3D605B6802989847C1E75C2B33
:1005000056D0622BF5D1082323700134063BED1839
:10051000D7E7722B50D006D86E2BEAD10A2323706E
:100520000134083BF3E7742B48D0752BE1D1019BD4
:100530005B1B052BDDDDA81CFFF779FF364B374A27
:10054000C31806009342D4D90028D2D0344B334A82
:10055000C318934234D8019AAB1DD31A052BC8DDBA
:10056000AB795C2BC5D1EB79752BC2D12800083053
:10057000FFF75DFF284B294AC3189342B9D8294B8E
:10058000B6021E4080238005800D5B020643F618EC
:100590000C23254A96421FD9244A9642A9D83F20C7
:1005A0003040802676420643E670042212E00C2397
:1005B000237001340223AAE70D23F9E70923F7E7A3
:1005C0007F2804D91A4B98420ED90623E1E7062367
:1005D00001222070A4189AE73F20304080267642FE
:1005E0000643A6700322F5E73F20802306405B42C6
:1005F0001E43667086330222ECE7019A501AC01A35
:10060000044B04301B6898470290041E00D058E742
:1006100037E7C046809001080024FFFFFF03000079
:100620000028FFFF00FC0F00FFFF0000FFFF10008D
:10063000FF070000F8B5802604007600002C00D1EA
:10064000F8BDE3682768334204D1A068002801D0D0
:10065000FFF7F0FFE3680B4D334204D12069002817
:1006600001D06B6898478022E3689200134204D15E
:10067000206A002801D06B68984720006B68984773
:100680003C00DBE78090010870B50568040000209D
:10069000FFF76AFE002316490268002A05DB8B4239
:1006A00001D1FF2070BD0133F6E78B42F9D0012262
:1006B00023002A4000D023680E4C2468BC342468F0
:1006C000C36001238360002305192D68002D03DA20
:1006D0008B42E6D00133F7E78B42E2D0C068002AB4
:1006E00000D10068A0231B069842DBD10020D9E787
:1006F000983A0000D8960108002210B5094B86B040
:100700000193039003AB040001A8029304920591A6
:10071000FFF7BAFF4342584140420440200006B070
:1007200010BDC04600220035034B1B68BC331B685C
:10073000C0180068C00F7047D8960108DC23F0B5D8
:10074000002487B09B05049304AE02AB7360029053
:100750002000039401911700FFF706FE0500230017
:10076000144C2A68002A07DBA34203D1012040422F
:1007700007B0F0BD0133F4E7A342F7D00123EE60E8
:100780000026AB602800FFF7CFFF002803D0A64269
:10079000ECD00136F6E7A642E8D0A023049A1B0667
:1007A0009A4201D00498E3E7029B019A3B60039BC5
:1007B0001360DDE7983A000070B5FFF785FC00286C
:1007C00022D0124B1B681A00883212681B689B18D3
:1007D00019681C68090E0131240A0AF0E5FAE1B231
:1007E00001310AF0E1FA451E094928000AF0DCFA55
:1007F000FA21084C01302072890028000AF0D4FA4E
:100800000130E060C003206170BDC046D896010889
:1008100040420F0080900108C0228020064952000B
:100820008B58C0059B009B0803438B50802388583E
:100830001B0603438B50704700002640174A30B513
:1008400013681C002C3424781F2C16D88208072427
:100850001500A5432C1E0FD103342040A040814039
:100860001B68920020339B180A00FF2181401C68FE
:10087000624011406140196030BD9B8F8B4200D1B6
:1008800001BE13681A680723184080231B0618430B
:1008900080239B01C91889008850EDE7D89601088C
:1008A0000A4B10B51B681A002C3212781F2A03D885
:1008B000998FFFF7C3FF10BD80221B688900C918FC
:1008C00012028B585B005B088B50F4E7D896010846
:1008D000F8B5436805000C00032B00D901BE0023C6
:1008E000E85E00282CDB6988FFF7A8FF0020FF27BF
:1008F000032639000023EA5E6D6893B21E40F600BD
:10090000B140AD013D40C943B540002A1ADB134E4A
:1009100093089B009B19C026B6009F5939400D4390
:100920009D510F490F4B8D689D4208D189688B42BC
:1009300005D1002C00D101BE103292009C50F8BDB0
:100940000948D4E70F263340083B054E9B089B001F
:100950009B19DE6931400D43DD61E2E700E100E013
:1009600000ED00E0009001080100560010B5FFF70F
:10097000ABFB0C4B1B681A00883212681B689B1873
:1009800019681C68090E01314B0818180AF00CFA96
:10099000240AE4B201346308C01821000AF004FA02
:1009A00010BDC046D8960108F0B58C46002800D18D
:1009B00001BE83695868904219D91D6D002D03D07E
:1009C0000020DF6C874201D10A480DE08300EC581B
:1009D0002668B24209D3E36861684B439B199A4287
:1009E00003D2634600201C60F0BD0130EAE70248F4
:1009F000FAE7C0460600B2000400B20000290CD09D
:100A00000722436C1340032B09D8C023013989B254
:100A10001B0319430165002070470248FCE70248A8
:100A2000FAE7C0460400B2000100B200F7B50200C8
:100A3000C4324C690D00CB68019211680F220A4044
:100A4000A24200D9220007000100D437D831009714
:100A5000002A12D1EB606C61002C0CD1F92202212A
:100A6000D20083588B4383500320A8612B6A002B4C
:100A700001D02B6A98476C61F7BD082A19D10E681E
:100A8000370A1E705F70370C360E9F70DE700E686E
:100A9000370A1E715F71370C360E9F71DE710F269B
:100AA0009B18A41A019A12683240A242D0D922009F
:100AB000CEE7012A04D10600D03636681E70EEE774
:100AC000022A05D1009E36681E70360A5E70E6E77F
:100AD000032A09D1009E36681E70360A5E70060031
:100AE000D03636689E70DAE7042A08D10E68370AD5
:100AF0001E705F70370C360E9F70DE70CFE7052AD0
:100B00000CD10E68370A1E705F70370C360EDE701F
:100B100006009F70D03636681E71C0E7062A0DD1D8
:100B20000E68370A1E705F70370C360EDE70009E3E
:100B30009F7036681E71360A5E71B0E7072A11D1C0
:100B40000E68370A1E705F70370C360EDE70009E1E
:100B50009F7036681E71360A5E710600D0363668A0
:100B60009E719CE70A68160A1A705E70160C120EC7
:100B70009E70DA700A68160A1A715E71160C120EEF
:100B8000DA719E7108228AE7F0B58B6885B001930F
:100B9000030008330D680393DC6F0F231C40073BF1
:100BA0001C1B019B00900F009C4200D91C00009B65
:100BB000009E943398360293002C14D1019B3D6023
:100BC000BB60002B0DD1F9220120009BD2009B5865
:100BD000009983438B50B861FB69002B01D0FB69FE
:100BE000984705B0F0BD082C16D12800FFF766FB2A
:100BF0003060281DFFF762FB3060019B2D191B1B25
:100C00000193039BDC6F0F231C40073B1C1B019BC4
:100C10009C42D1D91C00CFE7012C04D12A78009B3B
:100C200090331A60E9E7022C06D12A786B781B0210
:100C30001343029A1360E0E7032C07D16B782A78FC
:100C40001B021343029A1360AA78E8E72800FFF713
:100C500035FB042CD0D03060052C01D12A79DEE799
:100C6000062C02D12A796B79E1E7072C07D16B7941
:100C70002A791B021343029A1360AA79CFE7281D31
:100C8000FFF71CFB08243060B7E7F0B5490085B0DA
:100C9000019199000C230AAC19402478093B1A40B1
:100CA0000A436142614100261F2709010A4303905C
:100CB0000292019D9900CD400F2200241540039A15
:100CC00051180A680120054205D03800A04082432F
:100CD0000298A040024308346D08202CF2D10A602B
:100CE0005C1E002B07D10B685A401F239A4309D181
:100CF000300005B0F0BD0B68934205D12300621CA3
:100D0000D7D1F5E7014EF3E7004EF7E70300C20045
:100D100010B5002800D101BE4B89DB0B00D001BE0D
:100D200002238A799A43012A00D001BECA799A43E4
:100D3000012A00D001BE4A897F2314009C4322D19E
:100D400007248B795202234013434A7A31349207A5
:100D50001343CA79097AD2002240134301224A4040
:100D6000920113431A0009490A409A420BD1426288
:100D7000406A0840801A43425841054B404218409F
:100D8000044BC01810BD0448FCE7C046DBFEFFE082
:100D9000FDFF3DFF0300C2000100C200F8B51E4D7B
:100DA00017002A690E00002A00D101BE2C24FF2161
:100DB000444318002A69084014191A0A0A401B0CF7
:100DC000A36020606260FFF7CFFA2B6820613433A4
:100DD00061681B78994200D301BE0F4B1B681A6AE9
:100DE0000B0080335B01D3186361A368180C01D03A
:100DF00001BE01BE49011B0452180849180C0343E7
:100E0000521813600023A361069BE7612662002B42
:100E100001D01B88A381F8BDD896010808100000F6
:100E200070B504000D00FFF77FFC002802D0002001
:100E3000656070BD0048FCE701008A00F8B5264BEC
:100E40001A69002A00D101BE1C69002C00D101BE24
:100E50002369002B00D101BE6369002B00D101BEC4
:100E6000236A002B00D101BE6269D5682B0C1ED00D
:100E70001B04136020691368FFF756FC002816D086
:100E800027693800FFF750FC061E0CD0F868E269AD
:100E900003681E0CDBB2934205D2226A9B009B586A
:100EA000002B00D0984731002069FFF7B9FFADB2A1
:100EB000002D09D063691D6000251B68636AAB4281
:100EC00005D098476562A56163691B68F8BDA36A90
:100ED000002BF8D09847F6E7D896010810B50729F7
:100EE00000D901BE1F2314009C4300D001BE0E4B4D
:100EF0001B689C695B69001BC0090001C0181F23A7
:100F00001A40032907D8C9008B408A4004689C43D3
:100F10002243026010BD0439C9008B408A404468F6
:100F20009C4322434260F5E7D8960108F0B50600DD
:100F300085B00D001400002800D1F2E0072900D987
:100F400001BE2368012B00D901BE0F2362689A43BA
:100F500000D001BE1F22237A934300D001BEE36874
:100F6000032B00D901BE2369012B00D901BE63699F
:100F7000012B00D901BE236A012B00D901BE636A8F
:100F8000012B00D901BEA36A012B00D901BEE36A7F
:100F9000032B00D901BE236B072B00D901BEE369E7
:100FA000032B00D901BEA369012B00D901BE012387
:100FB0001A00AA405C4F01926A00029210329446D5
:100FC0003A68E16983321078801902680292A26956
:100FD0001340AB4003220393634611409940039BA7
:100FE0000B4361468A4001990A43029991430B439E
:100FF00003606368072D00D901BE0F2219009143D9
:1010000000D001BE0F20AA0002923A680700813288
:1010100012780340B2181168A8008C46A9008F40CE
:1010200061468340B9430B431360227A29003000A4
:10103000FFF754FFE368082D00D901BE032B00D948
:1010400001BE0320384A070012680340803212783C
:101050006800B218116883408C4669008F40614671
:10106000B9430B4313602369082D00D901BE012B3E
:1010700000D901BE0199B269CF4301210B40AB40B9
:101080003A401343B3616269072D00D901BE012ABA
:1010900000D901BE244B19680B00823318788431C3
:1010A00030180368029301231A40AA409C46029B11
:1010B0001F401743022207600427636A09785B0018
:1010C0001340A26A711892003A4067461343226A9D
:1010D00008681740E26A3B43D70018223A40FF27CE
:1010E0001A43236BB8435B013B401343FE229C46EB
:1010F0009200AB0013401A00634693401843086007
:101100002068072D00D901BE012804D901BE019B2A
:101110000020B36003E00028F9D1019B736005B0A3
:10112000F0BD0248FBE7C046D896010801005A000E
:1011300010B50020FFF718F9FFF7F6FA002844D1A0
:10114000234A244953698B420FD010D8402B36D004
:1011500005D8002B37D0102B2FD01F481FE0802B35
:101160002FD0802149008B42F7D11A4817E01B4944
:101170008B421CD009D8A02109068B4223D01849E4
:10118000A0208B42E9D1C00309E016498B4210D060
:1011900015498B420FD015498B42DED11448136894
:1011A00001225B689A609A68002AFCD110BDA420D5
:1011B000E9E71048F3E71048F1E71048EFE7104877
:1011C000EDE71048EBE70020E9E70D48EEE7C04601
:1011D000D896010806005200FF005200010000F0FE
:1011E000090000A0040000F0050000F0030000F07A
:1011F00001005200020052000300520001005000A2
:101200000200500005005200024B80005B6A5B68E0
:10121000C0587047D8960108034A5369591C01DA2F
:10122000013B53617047C0468090010810B5144CD3
:1012300063695A1C23D0002B1ED12000114918309D
:10124000FFF746FB1822A35E002B06DB1F2213408C
:101250001E3A9A4013000C4A136000220B4B9A620C
:10126000DA621A639A635A63DA631A648023084A5B
:101270001B0611680B43136063690133636110BD82
:101280008090010895121D1000E100E0D896010839
:101290000000424070B501251B4C1C4BE3582B420B
:1012A00009D01B4920002831FFF76EFCF823DB0032
:1012B000E550E35870BD02252B4205D014492000AB
:1012C0002831FFF7B3FBF1E70422134206D00521D2
:1012D0000F4B1964F823DB00E250EAE708221342BF
:1012E00002D00B4B0621F4E710210B4206D0072257
:1012F000074B1A64F823DB00E150DAE720210B42A8
:10130000D8D0034BF5E7C04600004240CC070000B0
:10131000D896010810B5002804D043787F2B01D956
:10132000FFF77AFF10BD10B50B4B74331A68002A13
:1013300002D10124644205E0147804338442F5D1DB
:1013400000240A600B68002B04D05B787F2B01D946
:10135000FFF76CFF200010BD30AF1D1002230028E6
:1013600003D00433012800D0F9331800704701235B
:10137000002803D00433012800D0FA331800704746
:101380009823F7B53B4C5B00E55C06002800FFF7AF
:10139000EEFFB0420ED15820684323185B6A283014
:1013A00000930419344B74331F68002F1DD10120A2
:1013B0004042FEBD2800FFF7D1FF864206D15820EB
:1013C000684323181B6D54300093EAE7032E04D1C1
:1013D000B4342368294C0093E4E70120072EE8D1B8
:1013E000C0342368264C0093DCE73A7804339642F5
:1013F000DAD17B78BD687F2B02D18026B6000AE067
:101400005BB2002B20DA1F4B5A69002AF5D05B6AC9
:101410001B689B699E6970190138310009F0C4FC92
:10142000FA23DB00984200D976007B68009F019385
:1014300000230093002D0AD1FA23009ADB009A4280
:10144000B5D822602800B4E700250126E3E7310083
:10145000019809F02FFD711AA94200D92900019BBA
:1014600079603B605B180193009B6D1A0133009318
:101470000837DFE738DE060830AF1D10F0DE06085B
:10148000FCDE06088090010810B501290AD003236C
:10149000022905D0043B002902D1FFF768FF0300B1
:1014A000180010BDFFF75AFFF9E70378042219006E
:1014B00000209143012905D00130022B02D0062BD8
:1014C00000D002387047037800205A1E012A05D93F
:1014D0000130052B02D0062B00D0023870470B7864
:1014E00070B50400072B20D1204B1A00C8321268B7
:1014F000CC331B68D318944235D39C4233D2F023AB
:101500001B4A1B06E318002093420DD9194B9C423D
:1015100029D9C022184B52055B6A1B689B695B681E
:101520009B189C424041404270BD032B05D10F4B9C
:101530001A00D0321268D433DBE70800FFF7C3FF8C
:10154000002810DB642319004143084A5118CD6B71
:10155000096CA54202D84919A142D0D858431018A5
:10156000426C836CC6E70120DDE7C046E8D902087B
:10157000FFFF1C00FFFFFF178090010810B5FFF769
:101580004BF9E0230121044ADB00D058084201D086
:10159000D150D35810BDC0460000264010B50400FD
:1015A0002422002109F0BBF8200010BD0300012017
:1015B000042B05D0052B04D101390800411E8841B8
:1015C00070475B1A58425841FAE7013800B50528C0
:1015D0001BD809F0CBFB1803061A0910A020400104
:1015E00000BDA0208001FBE7094B30331B78012BA5
:1015F0000BD9F020F6E7064B30331B78012B04D9CA
:10160000A020C001ECE70020EAE701204042E7E724
:101610008090010842790023012A06D10268012A3C
:1016200003D10379013B5842434118007047064BF0
:1016300010B51B6828209847041E03D028220021DB
:1016400009F06DF8200010BD8090010810B504006D
:10165000FFF7B2F80D4B0E4A5A6100229C61DA6125
:101660001A621B685433187890420BD0FFF77EF94A
:10167000FA21890009F098FB0100064809F094FB63
:10168000054BC01809F044FC10BDC046D8960108AF
:101690000001001C60F590009808000070B5144B24
:1016A000144E3360FFF788F88023134D03202B601E
:1016B0002B0008336B60FEF757FE04002B68B06008
:1016C000DA080021686809F02AF800212000FFF7F5
:1016D000A7FB2368002B05DA0021E5602000A1604C
:1016E000FFF79EFB3369002B01D1044B336170BDC2
:1016F0008CB21D10D896010800000008089A010855
:10170000F0B593B007000D000192022931D009AC69
:101710002000FFF743FF80239B000C93164B6900CA
:101720000D93164B06940993154B2C010393154BFF
:1017300005AA78335B180593230001990C33CB1865
:101740000793102303A804920893FEF71FFE061EBA
:101750000CD1182321005D43019B7F192C315918AE
:10176000781C102209F0DDF801233B70300013B023
:10177000F0BD87267642F9E70100C004002480000E
:1017800000090035D896010810B5010004000B4887
:1017900008F0CDFF002398420DD02100084808F042
:1017A000C6FF0123002806D02100064808F0BFFF2D
:1017B000434243415B00180010BDC0462CB51D10CC
:1017C00035B51D1041B51D1010B5010004000B48C2
:1017D00008F0ADFF002398420DD02100084808F022
:1017E000A6FF0123002806D02100064808F09FFF2D
:1017F000434243415B00180010BDC04646B51D1072
:101800004FB51D1057B51D10F0B507000D00002491
:1018100091B001AE002D02D1280011B0F0BD296AAF
:10182000002904D0380008F082FF0028F4D0AB680B
:10183000002B06D00E2C12D8A200955101341D00A9
:10184000E8E72B68002BFAD1002C0AD0013CA3005A
:101850009B591B68002BF2D1002CF7D1EFE7002534
:10186000DAE72500D8E710B5FFF7CEFF01240028FE
:1018700009D08168002906D00448FFF7C5FF002879
:1018800001D0C468E4B2200010BDC0465FB51D1091
:10189000F0B5002685B000931500030034000290D7
:1018A00003911F785A1C0192002F08D0039B002B34
:1018B0000FDB1300029A9B1A039A9A4209DA009BE3
:1018C000A34261D9002D01D000232B55200005B083
:1018D000F0BD3B00093B042B34D9202F32D02C48DB
:1018E0003900143009F0E0F8031E05D12D2F0AD07D
:1018F0005F2F49D1264B5333032E23D8300009F0F4
:1019000035FA05102335224B5233F5E7002D06D06A
:10191000009A944238D21F4A9B1A9B002B550126ED
:1019200010E0621C002D0BD0009991422CD919496E
:101930002C195B1A2178181101431B012170AB543B
:1019400014000226019BACE7621C002D0BD000990D
:10195000914219D90F492C195B1A2178981001432B
:101960009B012170AB5414000326EBE7002D08D037
:10197000009AA24208D907492A195B1A11780B4329
:10198000137001340026DDE7012464429EE7C0465F
:10199000B0AF1D10C4AF1D10F8B50E002E211700FA
:1019A00009F082F8041E0CD0451C2E21280009F0F5
:1019B0007BF8002805D0001B013838600020356016
:1019C000F8BD16204042FBE7F0B5040085B00F00DB
:1019D0001600002901D1002013E004226F493800CD
:1019E00009F078F8002803D10223E360381D08E0ED
:1019F00005226B49380009F06DF8002803D1E0603A
:101A0000781D05B0F0BD04226649380009F062F87F
:101A1000002806D101230122E3600023A261E361D3
:101A2000E4E73B78222B05D1320039002000FEF795
:101A30001FFDE6E72D2B03D01A00303A092A24D8DF
:101A400000250A2203A93800039508F027FF0300A8
:101A500003988742BFD05A1C0AD1534A914211D1F0
:101A60000122514B5242A261E3610423E360C8E7C3
:101A7000002B07D180221206914203D1802300223D
:101A80001B06F0E7A361E161EFE75B2B35D1781C22
:101A9000FEF7C4FC037805005D2B26D00023013D32
:101AA00001930093FFF7C3FD009B071E6FD0002B2F
:101AB00019D0019B18604360681CFEF7AFFC320030
:101AC00001003800FFF780FFFEF7A8FC051E06D0D6
:101AD000037801972C2BE5D05D2B08D0306000985F
:101AE000FEF7A8FD77E70090E6E7002300931023B8
:101AF000E360009B681CA36083E77B2B4BD1781CC1
:101B0000FEF78CFC037807007D2B38D00023013FC3
:101B100001930093FFF78BFD009B051E37D0002B30
:101B200017D0019B18604360781CFEF777FC3200E9
:101B300001002800FEF79CFCFEF770FC0028CED0C8
:101B40002B692B6200232B6103783A2B03D0306082
:101B5000C5E70090E8E70130FEF760FC32000100C5
:101B60002800FFF731FFFEF759FC071EB7D00378B6
:101B700001952C2BCED07D2B03D03060AFE7002316
:101B800000932023E360009B781CA36039E7002BBF
:101B900000D120E7A3E737601DE7C04667B51D10F9
:101BA0006CB51D1072B51D10FFFFFF7F70B50600EC
:101BB000FFF73DFD00230B4D0400EB6798420ED06C
:101BC0003000FEF72BFC2A0001007C322000FFF7DA
:101BD000FBFE051E03D12000FEF72CFD2C0020008B
:101BE00070BDC046D896010870B504000D0086B0DF
:101BF0000021142201A808F092FD29002000FFF71F
:101C000003FE0400002C18D021001C48FFF7FCFD47
:101C10000028F7D00569002D0AD0194E29003000A0
:101C200008F085FD00280BD1310001A808F04AFF1B
:101C3000210001A8FFF7E8FD0400200006B070BDF8
:101C4000104E2900300008F072FD0028ECD0290069
:101C50000D4808F06CFD0028E6D00C4E290030003D
:101C600008F065FD0028DFD02900094808F05FFD75
:101C70000028DDD121000748C1E7C04677B51D1017
:101C80007CB51D1083B51D108AB51D1092B51D10B1
:101C90009AB51D10A0B51D10F0B5FA4CFA4BA5442D
:101CA000FA4C2360FA4B6360FFF780FF0290002834
:101CB00000D114E30100F748FFF7A6FD00900028CB
:101CC00000D108E3F44E01003000FFF78DFF0099CA
:101CD00005003000FFF7C7FD0600002D00D1D9E256
:101CE000AF6908228697636B86A97B4088AD2CA8D4
:101CF000879308F016FE08222CA9280008F011FE90
:101D0000E64B2AA806CD06C38A96636B0822734069
:101D10008AA98CAD8B9308F004FE2AA9082228001A
:101D200008F0FFFD9222DD4B92009B1806CD06C302
:101D30008E97636B08225F408EA990AD28A88F977D
:101D400008F0EFFD082228A9280008F0EAFDD34B8F
:101D500026A8643306CD06C39296636B08225E40C4
:101D600092A994AC939608F0DCFD082226A92000E5
:101D700008F0D7FDA322C94B92009B1806CC06C3DE
:101D80000023C74D009928000193FFF72DFF00990C
:101D900004002800FFF767FD002C00D17DE29421AC
:101DA000E36889005A1E9341BC4ADBB250541100CB
:101DB0006C3113720B70A5239B00D054B94D009960
:101DC0002800FFF711FF009904002800FFF74BFDE2
:101DD0000390002C00D164E2E468AC4E63425C41A5
:101DE000B14B64421C40B14B0822E4187E94736BE3
:101DF0007EA9634080AD24A87F9308F092FD08225D
:101E000024A9280008F08DFDA44F22A83B001C3314
:101E100006CD06C3039B039A8293736B82A953403A
:101E200084AD0822839308F07CFD082222A92800B3
:101E300008F077FD95239B00FB1806CD06C376942A
:101E4000736B08225C40779476A978AC20A808F0E0
:101E500068FD082220A9200008F063FD3B008033C4
:101E600006CC06C3039B039A7A93736B7AA95340FB
:101E70007CAC08221EA87B9308F053FD08222000AA
:101E80001EA908F04EFDA6239B00FF180CCC0CC722
:101E9000874D00992800FFF7A7FE0099040028004D
:101EA000FFF7E1FC0390002C00D1FEE1A469774E1E
:101EB0006694736B0822634066A968AD1CA867939B
:101EC00008F02FFD08221CA9280008F02AFD734FF6
:101ED0001AA83B00283306CD06C3039B039A6A93D6
:101EE000736B6AA953406CAD08226B9308F019FD1F
:101EF00008221AA9280008F014FD97239B00FB185C
:101F000006CD06C36E94736B08225C406F946EA975
:101F100070AC18A808F005FD082218A9200008F0E8
:101F200000FD3B008C3306CC06C3039B039A7293DF
:101F3000736B72A9534074AC082216A8739308F00F
:101F4000F0FC0822200016A908F0EBFCA8239B0057
:101F5000FF180CCC0CC7574D00992800FFF744FE22
:101F6000009904002800FFF77EFC0390002C00D1AC
:101F70009FE1A469454E5694736B0822634056A9AD
:101F800058AD14A8579308F0CCFC082214A92800D7
:101F900008F0C7FC414F12A83B00303306CD06C302
:101FA000039B039A5A93736B5AA953405CAD082262
:101FB0005B9308F0B6FC082212A9280008F0B1FCD7
:101FC00099239B00FB1806CD06C35E94736B082211
:101FD0005C405F945EA960AC10A808F0A2FC0822E7
:101FE00010A9200008F09DFC3B00943306CC06C3EA
:101FF000039B039A6293736B62A9534064AC0822FB
:102000000EA8639308F08DFC082220000EA908F0AA
:1020100088FCAA239B00FF180CCC0CC7264C009907
:102020002000FFF7E1FD009904902000FFF71BFC62
:10203000049B0390002B00D13FE100230824009370
:10204000049B124F9D69220046957B6B46A96B400D
:1020500048AE34A8479308F064FC34A9220030004D
:1020600008F05FFC009B0D4A0933DB00D318059391
:10207000043306CE06C3039B039A4A937B6B4AA99B
:102080001CE0C046A4FDFFFFDDA81D1080900108E4
:10209000F1A81D102CB51D105AB61D10E8D9020864
:1020A0009EB61D10A6B51D10ABAAAAFAAAAAAA1A16
:1020B000AEB51D10BDB51D10C7B51D1053404CAEBB
:1020C000220032A84B9308F02CFC32A922003000E9
:1020D00008F027FC009B844A4E33DB00D31806CE61
:1020E00006C34E957B6B22005D404F954EA950ADC7
:1020F00030A808F016FC220030A9280008F011FCD6
:10210000059B2EA8683306CD06C3039B039A529302
:102110007B6B52A9534054AD2200539308F001FC4D
:1021200022002EA9280008F0FCFB009B6E4A053314
:10213000DB00D318A32292009B1806CD06C3009B98
:1021400001330093032B00D07AE702996748FFF729
:102150005BFB049B0400002B00D1BCE09B21624B85
:10216000634A644E89005A5044315A50010030008D
:10217000FFF73AFD210005003000FFF774FB0490E3
:10218000002D00D19DE0AB6900935B4E2100300033
:10219000FFF72AFD210005003000FFF764FB0590E2
:1021A000002D00D192E0AB69039300250824009B29
:1021B000524F36937B6B009A36A9534038AE2200BB
:1021C0000CA8379308F0ADFB0CA92200300008F0F2
:1021D000A8FB454A2B01D318D83306CE06C3039B70
:1021E000039A3A937B6B3AA953403CAE22000AA86B
:1021F0003B9308F096FB0AA92200300008F091FBFF
:102200002B00394A0E331B01D31806CE06C3049B9C
:10221000049A3E937B6B3EA9534040AE220008A82F
:102220003F9308F07EFB08A92200300008F079FBFC
:102230002B002D4A2E331B01D31806CE06C3059B57
:10224000059A42937B6B42A9534044AE220006A8F4
:10225000439308F066FB220006A9300008F061FBFA
:102260002B00214A0A331B01D318922292009B189B
:10227000013506CE06C3172D99D1B4231A4A1C493D
:102280009B00D1500298FEF7D5F9019897239B0047
:102290009D44F0BD01235B4273E501235B42019342
:1022A0008CE501235B420193F2E501235B4201933C
:1022B00051E601235B420193B0E601235B420193A7
:1022C00043E701235B42009501935EE701235B42F4
:1022D0000395019369E701235B420193CDE7052351
:1022E0005B420193D1E7C046E8D90208D1B51D1081
:1022F00001010101DBB51D10E3B51D10809001083F
:1023000010B5034B1B7A584308F0A6F910BDC04620
:1023100080900108F0B585B002930AAB070001CBAD
:102320000E9D01900CA80478101FC0B21B78FA28EB
:1023300000D801BE181FC0B2FA2800D801BE601E26
:10234000012804D9FB26201F304200D001BE2602FE
:10235000F0240D982401C003039001981204002872
:1023600040D00298002800D101BEC0208002FF2B7F
:1023700000D101BE02400020344021436E6A0A436E
:10238000002502433A65C02228001B049202134034
:102390001C43019B9D4202D2174B984201D105B0CC
:1023A000F0BD07227B6C1340032B0BD8029B0199D5
:1023B0005B5D01352343039A8D4200D20022134313
:1023C0003B65EDB200208642E3D00130013EFFF7CD
:1023D00097FF3000431E9841084B40421840064B7F
:1023E000C018D6E7C02034408002024021436E6A04
:1023F0000A430398C4E7C0460200B200FEFF4DFF47
:10240000F0B587B002930B6805000E0010000A7942
:10241000D9B228239C462B4C0C9FA44463460493BA
:10242000002303937379019303230093030028008F
:10243000FFF770FF002832D131692800FEF7DEFA7D
:1024400000282CD1337D1A1FD2B2FA2A00D801BE3F
:10245000002F33D007216A6C0A40032A30D880222B
:10246000791E89B212030A43C0211B0489020B4062
:1024700013432B650D9B00206363F9220423E7635C
:10248000D200A0642364A958023B0B43AB50E56C17
:10249000A7630D4B226C032A01D0984201D107B0EB
:1024A000F0BD00208542F5D00130013DFFF728FF47
:1024B00068426841044B40421840EAE70348EEE7AF
:1024C0000348ECE7D89601080200B2000400B2000D
:1024D0000100B20030B58B6987B0DB680C001500D5
:1024E000002B0FD019681A79012303932378C9B2FE
:1024F0000293FF230193002304950093FFF70AFF43
:1025000007B030BD0048FBE78000B200F0B5050021
:10251000181FC0B28BB0FA2800D801BE0724686C1F
:102520002040032801D9174C19E0C0201B04800269
:1025300003408020541E0003204303432B650C1EE0
:102540000DD0109B00245E6A042303910592089429
:102550000693069B042B02D10B4FBC4202D12000F4
:102560000BB0F0BD002469462800FEF75FFAA642D2
:10257000EFD00120013EFFF7C3FEA642E9D13C00A7
:10258000E7E7C0460100B2000200B200F0B5D5B0E6
:1025900008900C0009921E00002900D101BE002302
:1025A000190010AA1380937011AA1380937012AAB5
:1025B00013809370626B079222AA99540133642BA3
:1025C000FBD1099B581EC3B2012B08D9099B042BD0
:1025D00000D1CCE3082B01D100F0CFFB01BE032ECC
:1025E00000D901BE072818D808F0D4FB08001D0048
:1025F0001700C403170017001700CB038022089BA5
:1026000012019A18002A08D0C020330480021168F1
:102610000340714801400B431360079B002B05D119
:102620006E4B069307E3089B8822E9E7382322AD27
:1026300000930195099B10AA07990898FFF7E0FEFF
:102640000690002800D0F6E2AB79062BE8D82B786C
:10265000532BE5D16B78462BE2D1AB78442BDFD1FD
:10266000EB78502BDCD12B79052BD9D96B790B93D7
:10267000012BD5D1139013AB11AA29005848FDF7AF
:1026800043FE069B12AA1493290014AB5548FDF78C
:102690003BFE554A069B904201D1E3642365FF202F
:1026A000159310AA15AB22A90002FDF72DFE069086
:1026B000002800D0BFE2A368002B00D101BEE36870
:1026C000002B00D101BE2369002B00D101BE63693C
:1026D000002B00D101BEE369002B00D101BE236AAB
:1026E000002B00D101BEA36A002B00D101BE159BB7
:1026F00022AD009310AA099B079901950898FFF74E
:102700007FFE01220A901000297F16AB88401790A7
:102710001000697F1970A97F8840E97F1A901973AA
:10272000692108A809181000C97F88406A211D90F6
:1027300008A80918C97F19766B210918C97F23AB2E
:102740008A402092DA7F3D231B18DA77AB7800228B
:102750005B079B0F032B02D0244A5332D25C2260CA
:1027600023A8FDF7ABFD002830DB0130C0080122B3
:1027700011002CAB1B7860601B0999400623616235
:10278000E16804200B6000230B7121690B71086064
:102790000521A263A26A1371E36A1160002B00D1C4
:1027A00001BE236B002B00D101BE0022236B08A9C0
:1027B0001A71A232521810784006400F05281DD811
:1027C000012208F0D3FA15E7EDF3E7E78023033899
:1027D0001B061843CBE7C046FFFFFCFF0500B20015
:1027E00084FF000081FF00008000B200B0AF1D1028
:1027F00001225242E2631A60E36A1A606022E369CE
:102800001F271A6000221A710F232B9A2C991A4045
:10281000013250000A0E3A4001324243BE4D480098
:10282000800F40005635405B0B40424362640A0A09
:1028300017404022890400D4383A022001335B005B
:1028400001377B43534322AAA364A5689378864348
:10285000012E00D1B1E02021194000D1C7E0537A08
:1028600068712B6000232B71137A5B0900D0BAE0EA
:10287000013BAB601F2222AB1B7A052613402B6164
:1028800002232B752368042B00D0EEE131AB1B78BB
:102890005A0601D4A14A0692012003422DD09B077B
:1028A00013D5E368002B10D019681A799C4B03905C
:1028B00028330493099BC9B20293FF230193002399
:1028C00008980093FFF726FD0690069B1A00934B8D
:1028D0009A4201D0002A21D1914B0022283304933F
:1028E00001230393099B00920293FF23B7210193D5
:1028F00008981300FFF70EFD0690069B002B0DD1E4
:102900003BAB0193139B11AA00930799099B08986D
:10291000FFF776FD0690002800D1A6E0012054AB19
:102920001B18C93B1A78012393401B38A361430845
:102930000C930F232B9E0020334001335B000A933E
:10294000FA239B0080279C4618AD3300C3401F210B
:102950001A090A405B0A1C390B403900022B06D0C9
:102960006146032B03D01021012B00D00F390A9BA5
:1029700001325A434A4307302A600C351C28E4D1FF
:102980000C9B1038584354AB18180538FF3883682F
:102990002364DBE00221E1631A60E36A35222CE75D
:1029A0004021E1631A60E36A052226E78022E263A0
:1029B000423A1A60E36A01321FE71021194033D00E
:1029C000D37B6E712B6000232B71937B5B0927D126
:1029D000013BAB601F2222AB9B7B032613402B6184
:1029E00001232B754EE7FF232873AB6042E7FF26D8
:1029F0005B0600D446E7D37A29712B606971937A1C
:102A00005B090AD1013BAB601F2222AB9B7A0426F3
:102A100013402B6102232B7534E7AE602973F3E773
:102A2000FF232E73AB60D5E7334015D0537B29715C
:102A30002B606971137B5B090AD1013BAB601F22DC
:102A400022AB1B7B022613402B6101232B7519E758
:102A5000FF232973AB60F2E703222A60043A2B714B
:102A60006B71AA602B612B750CE7013E3B9B042E1A
:102A700009D8300008F07AF91D19151103009B06DA
:102A800001D5EC232B60236A3B9A042E56D83000E4
:102A900008F06CF9DCDCDC311300DB06F3D56C23C9
:102AA000F0E71B07EFD5BC23ECE75B07EBD53C2336
:102AB000E8E79B07E7D50C23E4E7802501206D00BC
:102AC00015404042002D0AD03E2200211A603C3AB7
:102AD00019715A7198601A7319611A752EE0802164
:102AE00011401FD034221D711A605D7198601D73F2
:102AF0001D61323AF1E78021012011404042002956
:102B000010D034221A60002298601A715A711A7318
:102B10001A610232E1E7C046B0AF1D108000B2007A
:102B2000D896010840252A4000D187E01222197169
:102B30001A605971986019731961197516AA3BA921
:102B4000200005F001FB002800D0E8E6236D002BF3
:102B500071D022AB0193149B12AA00930799099B91
:102B60000898FFF74DFC0690002864D10700149BDD
:102B70003B900C93844B07900A930221079A22AB57
:102B8000D25C0A4000D184E00A9B002B4AD1692222
:102B900008AB6831C918D2180798079B105CCB5C4A
:102BA000B84200D0C6E05A1CD2B2E264012A3FD932
:102BB0000025226D9B000992079A079F04329B18FB
:102BC0000C9308956822089B04375B19089308AB9F
:102BD0009B18D95D0F23194000230B9A0A4200D19C
:102BE000B3E0682108AA5218D2590999150A0D9222
:102BF000079A0135BA1A043A8E58089A2D023260A3
:102C00000C22534316AAD3181A785968B2609A68EE
:102C100032618D4200D3A2E00123F56073600C9B0A
:102C20009F42CFD10A9B1A00574B9A4200D09CE09A
:102C30000023E3642365069855B0F0BD02211A71A4
:102C400019605A7198601A731A6146E740210A4068
:102C50004139002A06D012221A6000221A715A71D4
:102C60009960F0E702201860F8E70222236A012148
:102C70001A60002249421A715A7199601A731A61D6
:102C80001A7522A916AA200005F05EFA0A9B06937F
:102C900059E707995B18D87859780D901F208C4612
:102CA0009B7808A9401802709B090320012B05D0CE
:102CB000181E03D00420022B00D020680022079D9C
:102CC0003BAB2E1890422ED10022304D0999283569
:102CD0000291009004950392019261460898FFF7D3
:102CE00019FB0A90002814D11F2608ABF61800958E
:102CF0000300012231000898FFF708FC0A90002821
:102D000007D17F00FBB20D9A377817407A1E9741A2
:102D10001F43079B08330793079A0C9B934200D3EA
:102D20002BE71B4B7DE4B51A22A94D19ED789D5474
:102D30000132C7E7079802339B00C318079307982F
:102D40000C9B834200D327E7EBE701335200DBB251
:102D5000D2B2052B00D041E70D4A0A9241E7F1605B
:102D6000280008F021F8706059E70A9B59E4032E07
:102D700000D936E4089B902242E4032E01D9FFF7E4
:102D800030FC089B98223BE40600B200D89601086C
:102D90000700B200F0B58DB009932D4B0790089154
:102DA000150096089E424DD8002E00D101362C0009
:102DB000B54200D93400A54246D92D1B254B200031
:102DC0009C4200D91800844240D9241A80B2FFF7EF
:102DD00097FA002CF2D11F2704ABFF1801233B7098
:102DE000089B9B6906939B6A002B26D01968099B58
:102DF00003940493089BC9B21B7822000293FF231B
:102E00000094019307982300FFF784FA00280ED15D
:102E1000099B01220093390023000798FFF776FBF6
:102E2000002804D1069B9A6B3B7813403B701F230C
:102E300004AA9B181878002802D0002DB7D10648A4
:102E40000DB0F0BD1E00B2E70025B7E70024BDE7D6
:102E500040420F00FFFF00000200B20070B588B0D2
:102E600006ADE870002029712880A870FEF7CCF923
:102E7000104C06002834010022000F48FFF72AFBFF
:102E8000002815D1012304940393337802000293A0
:102E900005230190009371212B000748FFF73AFAB0
:102EA000002805D12300054A31000348FFF772FFCF
:102EB00008B070BDD89601080000424020A107006C
:102EC000F0B500248BB009AEF0702000079134807B
:102ED000B470FEF799F9124F0394283704970378DA
:102EE000104D0293042301940093220033006521C6
:102EF0002800FFF70FFAA0420DD107226B6C134098
:102F0000032B0AD8084B063A2B6507990300009754
:102F10002800FFF7FBFA0BB0F0BD0448FBE7C04602
:102F2000D89601080000424007000C000100B200E2
:102F300070B5802504002D02064BAC4204D8D86839
:102F4000604307F089FB70BD186907F085FB024BF1
:102F5000E418F1E7809001080080FFFF0A23F0B534
:102F600091B00993D24A03216032D248FDF7DEFFC7
:102F700011220321CF48FDF7B1FFCF4C04212200DD
:102F8000CC481432FDF7D2FF11220421C948FDF7C5
:102F9000A5FF220005214832C648FDF7C7FF1122D0
:102FA0000521C448FDF79AFF220006217C32C14862
:102FB000FDF7BCFF11220621BE48FDF78FFFBF4A77
:102FC00007213032BB48FDF7B1FF11220721B94874
:102FD000FDF784FFBA4D2B6840331B78022B12D9C2
:102FE000E2230F20B74A9B00D1588143D150D158DA
:102FF00021308143080020210143D1508021D05845
:1030000009060143D150FA23F9220321AE4E9B0059
:10301000EB64D200B35800278B43B3508823AB4CEA
:103020005B0233606761FEF701F9230020336B62B6
:10303000636A0A93BB4210D1FEF7EEF80122A34B5C
:103040005242A34C5A61FA204000FFF771FF099BDE
:10305000013B0993002B85D184E1236A0B93002B5C
:10306000EAD007970897089B0A9A9B00D558002D2D
:1030700000D1E8E02B785A1E012A04D9FB22043B38
:10308000134200D001BE2B7A032B00D901BEAB69DD
:10309000002B00D101BE2A78501E072800D976E106
:1030A00007F078FE08000001750102017501750145
:1030B00075010401874CC0272B7ABF0219042068D0
:1030C0003940854F38400143042021606968084039
:1030D0000BD0A9697C48FFF759FA002805D00823CE
:1030E000089A9340079A1A430792AB691B68013B01
:1030F000032B00D901BE002800D0A4E06B689B0719
:1031000000D4A0E02969E86807F0D4FE002900D0C7
:1031100001BE2B69714A934202D95A1E134200D054
:1031200001BEFF218C466746E968A869B9438268F9
:10313000036AA16029694942B943E160016803203B
:10314000013901406869471EB8410002014321620C
:10315000002A35D010680021471C0AD0C0271179F9
:10316000BF02090439406746074080200006074334
:103170003943C02721645179BF020904906839405E
:1031800061640021471C09D0C027117BBF020904DC
:1031900039408027C0B23F06384301430020A16474
:1031A0001169814205D01F3001390140802000069D
:1031B0000843C021E064127D890212040A4022659E
:1031C000002B32D019680022481C09D0C0201A797F
:1031D0008002120402408020C9B2000601430A4363
:1031E000C02022665A798002120499680240626601
:1031F00000224F1C07D01A7BC9B212040240802063
:10320000000601430A430021A2661A698A4205D0DA
:103210001F31013A0A40802109061143C022E166AC
:103220001B7D92021B0413402367C02202212B7ACC
:1032300092021B0413406A68FF311140802212067B
:103240000A4313432360089B01330893089A0B9B9E
:10325000934200D007E7079B002B00D09BE0079824
:10326000FDF7D2FF164D9F212B0028330493079BB7
:103270000393037814480293079B019300931A0069
:10328000FFF748F8041E00D089E00721726C0A405D
:10329000032A2DD9FDF7C0FF01220C4B52425A617F
:1032A0000F4CD0E60F4C06E70F4C04E70F4C02E73B
:1032B000B0AF1D108005314030B01D10B0B01D10F2
:1032C000D896010800002640000042408090010886
:1032D0000400B20000084240FFFFFCFFFFFF0000B7
:1032E0000100B2008008424000094240800942408B
:1032F0004F4B3365736C0B40032BCBD84D4B0EAF4C
:10330000336506236F63AB63EB63079BF922AB6402
:103310000423D2002B64B158023B0B43B350464EFA
:103320002B6C032B02D0013E002E0AD12B6C032BF9
:103330000BD0FDF771FF0122404B52425A61404CC5
:1033400081E60120FEF7DCFFEAE73B78342B07D16A
:103350007B782A3B012B03D8BB78193B022B27D95A
:10336000FDF75AFF200011B0F0BD80230320194360
:103370002970FFF773FD041E11D142E019430420A8
:103380002970FFF76BFD002845D0040007E0079B7C
:10339000002B00D150E6B224079B24041C43FDF708
:1033A0003BFF002CDED00122244B52425A614AE6F8
:1033B000FB780F2BD4D13E79032ED1D17B79902B82
:1033C000CED10020FDF720FF0123002228350495EF
:1033D00003930378B72102930192009213001948D6
:1033E000FEF798FF041EDAD11F2506ABED18290061
:1033F0003000FFF765FD041ED1D129784BB2002BB8
:10340000B3DA29000420FFF75BFD041EC7D10821B1
:103410002B780B42B2D00020FDF7F6FE8022D82197
:103420008369D2029A615A691160074A1A64B6E741
:103430003F000C0005000800E9030000809001082F
:103440000200B2000000424070170000FEE7FDE7F6
:10345000FCE7FBE7FAE7F9E7F8E7F7E7F6E7704795
:10346000F0B5D5B006910100D448FEF7CDF900289B
:1034700001D100F011FC83680293039300231F0025
:1034800005930193039B002B00D0A2E0029BDB6815
:103490000193202B01D000F000FC029C2100C848C1
:1034A000FEF7B2F9051E00D182E1037E069A9A4228
:1034B00000D07DE10100C348FEF7A6F9C24C002808
:1034C00000D16DE18269C14B3C925B6B3CA95340DA
:1034D0003EAE082220A83D9307F023FA082220A937
:1034E000300007F01EFA230006CE06C32900B848B4
:1034F000FEF78AF91423002800D08369E3602900CD
:10350000B448FEF781F90123002802D0C3685A1E8F
:10351000934123742900B048FEF776F9002800D1C2
:1035200041E1836963612900AC48FEF76DF9002829
:1035300000D13BE18369A361260000233936337053
:103540002900A748FEF760F9002807D00169A548BF
:1035500007F0EDF8002801D101233370230039333F
:103560001B789D342370029E002F00D095E331001C
:103570009348FEF749F9002800D147E18369924C4E
:103580001CADDFB222002B0003CA03C308222900AE
:103590001EA807F0C6F98D4B1E9A1F995B6B4B4016
:1035A0009A4201D0FFF752FF2B689F4200D02DE1D5
:1035B00031008D48FEF728F9002800D120E264236D
:1035C0008269571E7B43E418022338342270039328
:1035D00023E103998548FEF717F9002802D0866891
:1035E000002E03D1039B1B6803934BE731008048F7
:1035F000FEF70AF9002800D1AFE0002503697D4CF1
:1036000004936434AB001959049807F090F800282B
:1036100000D145E30135042DF4D10024754F7437F2
:103620000797079AA3009958049807F080F8071E97
:1036300005D00134172CF4D10527183C7F42310006
:103640006D48FEF7E1F8002801D083690593310049
:103650006A48FEF7D9F8002813D000218369C269AF
:103660000191019901310191002A01D1AB4205D9A3
:1036700001996D001D29F4D11F230193631C05D10D
:103680006BE0631C69D0019B002B66D022004E4B7F
:103690002E3246AD12019B182A0003CB03C208222A
:1036A000290048A807F03DF9484B489A49995B6BB7
:1036B0004B409A4201D0FFF7C9FE2B68012B17D16E
:1036C000059B059A4E93414B4EA95B6B4CAD534005
:1036D00044A808224F9307F024F9082244A928009F
:1036E00007F01FF9384B22019B18D83306CD06C3CB
:1036F0002200354B0A3212019B18922240AD9200F3
:103700009B182A0003CB03C20822290042A807F015
:1037100008F92E4B429A43995B6B4B409A4201D079
:10372000FFF794FE2B68012B17D1019B019A52934E
:10373000264B52A95B6B50AD53404AA808225393C5
:1037400007F0EFF8082228004AA907F0EAF80E343B
:103750001D4B24011C190CCD0CC4366840E72849C8
:10376000049806F0E4FF0028F7D131002248FEF764
:103770004BF8002807D0144B224A9A5C012A02D148
:103780008269D0331A6031001C48FEF73DF80028EA
:10379000E3D00D4B1C4A9A5C012ADED1D433A3E25C
:1037A00001277F42A2E6FA231B01BBE6A061C3E624
:1037B0002468002C00D071E6D5E6C0462CB51D105B
:1037C0005AB61D10F0B51D10E8D902088090010806
:1037D000F7B51D10FFB51D100AB61D1016B61D1049
:1037E0002AB61D1037B61D103CB61D10D1B51D10E0
:1037F00077B51D10B0B01D10DBB51D10E3B51D1061
:10380000E8B51D10D2020000D30200003668002E79
:1038100000D0ACE6012337000393002E00D0F3E084
:103820003100CD48FDF7F0FF0190002800D05DE1A8
:103830003100CA48FDF7E8FFC94C00280FD04423E7
:1038400094227B439200E3189B181B78012B06D12E
:10385000C2686333511E8A417B43E3181A723100F8
:10386000C048FDF7D1FF0190002839D044237B43A5
:10387000E418952312AD9B00E4182B0014A806CC85
:1038800006C30822290007F04CF8B74C149A159982
:10389000636B4B409A4201D0FFF7D8FD2B68012B98
:1038A0001ED1019B34A9DB6810A85A1E9341AF4A70
:1038B0005B421340AE4A9B183493626B36AC534064
:1038C0000822359307F02DF8082210A9200007F0F0
:1038D00028F864227A43A24B9B181C3306CC06C3FB
:1038E0003100A448FDF790FF0190002833D0442315
:1038F0007B439B4A0CACD318972292009B18220062
:1039000003CB03C2082221000EA807F00AF8964D47
:103910000E9A0F996B6B4B409A4201D0FFF796FDC0
:103920002368012B17D1019B30A99B6932AC3093DE
:103930006A6B0AA853400822319306F0F2FF08226E
:103940000AA9200006F0EDFF64237B43844AD318C4
:10395000283306CC06C331008748FDF755FF002801
:1039600000D11BE1C368102B00D017E1002385684C
:103970000193002D00D111E14422019B7A430533CC
:10398000DB009A18764B22AC9B18922292009B186F
:10399000220003CB03C20822210024A806F0C1FFA5
:1039A000714B249A25995B6B4B409A4201D0FFF7EB
:1039B0004DFD2368012B1BD1AB696B4A2C93526BD5
:1039C0002CA953402EAC082226A82D9306F0A9FF5F
:1039D000082226A9200006F0A4FF6422019B7A4356
:1039E0000933DB009A185E4B9B18043306CC06C3E0
:1039F000019B01330193032B00D1CFE02D68B8E781
:103A000001230700039308E731005C48FDF7FCFE43
:103A1000002800D104E78468002C00D100E72100D1
:103A20005748FDF7F1FE00282FD0056955492800B9
:103A300006F07DFE00282AD121005348FDF7E4FE60
:103A400000280ED044239B217B43454A8900D3188C
:103A50005B181B78012B04D163337B43D218836935
:103A6000D36321004948FDF7CFFE00280DD0442341
:103A70007B433B4A4649D3185B181B78012B04D182
:103A800063337B43D218836913642468C4E74149D4
:103A9000280006F04CFE0028F7D121003A48FDF737
:103AA000B3FE00280DD044237B432D4A3A49D31856
:103AB0005B181B78012B04D163337B43D2188369D5
:103AC000536421003148FDF79FFE0028DDD04423D8
:103AD0007B43234A3049D3185B181B78012BD4D180
:103AE00063337B43D21883699364CEE744237B43DB
:103AF0001B4A18ACD318992292009B18220003CBC2
:103B000003C2082221001AA806F00BFF164D1A9ACC
:103B10001B996B6B4B409A4201D0FFF797FC2368CF
:103B2000012B00D084E6019B38A99B693AAC3893FD
:103B30006A6B16A853400822399306F0F2FE082259
:103B400016A9200006F0EDFE64237B43044AD31837
:103B5000303306CC06C36BE6BDB51D109EB61D10F6
:103B6000E8D90208A6B51D108090010855555505E5
:103B700055555515AEB51D10C7B51D10D1B51D1045
:103B800077B51D1048B61D10DBB51D10E3B51D102F
:103B90006D0200004DB61D106E0200003100544849
:103BA000FDF732FE64237B43524CE318002866D0B5
:103BB00082695A7231005048FDF726FE64237B4328
:103BC000E31805330122002804D0C16982690A4341
:103BD000511E8A41DA77002F1CD131004748FDF78A
:103BE00013FE1423002800D0836923673100444862
:103BF000FDF70AFE002844D0C3685A1E93412200F4
:103C00007432137031003F48FDF7FEFD00283CD0B0
:103C10008369A367039B022B3ED1029B029EDB6854
:103C20000193202B29D131003748FDF7EDFD002805
:103C30002ED08269D3B2022B2AD1571E64227A4336
:103C4000A41822003832137031003048FDF7DCFD33
:103C5000002812D082692E4B28925B6B28A9534012
:103C60002AAD082208A8299306F05BFE0822280046
:103C700008A906F056FE0CCD0CC40123A7E4587227
:103C800098E7230074331870BCE7FA231B01C0E7E0
:103C90003668002EC7D1F0E70027380055B0F0BDD8
:103CA0001C49049806F043FD002800D057E5310078
:103CB0001948FDF7A9FD002808D0B4220D4B920049
:103CC0009A5C012A02D18269C8331A603100134814
:103CD000FDF79AFD002800D13FE5064B104A9A5C9B
:103CE000CC33012A00D038E582691A6035E5C04638
:103CF00055B61D10E8D902085DB61D10F7B51D10A8
:103D0000FFB51D100AB61D103CB61D105AB61D1089
:103D10008090010868B61D10DBB51D10E3B51D10BD
:103D2000D1020000F0B58BB001900D0016000C0020
:103D3000002A01D0541E641806A90A002D4BD8335E
:103D400081CB81C2082208A806F0EBFD2A4B089A15
:103D500009995B6B4B409A4201D0FFF777FB02ABAE
:103D60009C466246234B069FE03303CB03C20822E6
:103D7000614604A806F0D5FD1F4B049A05995B6BBC
:103D80004B409A4201D0FFF761FB0123029A0132B6
:103D90009340DB19BD4225D39D429241A74203D8EF
:103DA000A34201D901225242BD4201D8A74216D3F3
:103DB0009D4201D2A34212D3002A10D101992800BA
:103DC000FDF78DFB002806D1002E04D0701E40198F
:103DD0000199FDF784FB0BB0F0BD0022E6E701205E
:103DE0004042F8E7A742F8D80022A342DCD90122DA
:103DF0005242DBE7E8D902088090010830B5154C43
:103E00008BB006A923000A00383321CB21C2082237
:103E100008A806F086FD089A099B616B4B409A4200
:103E200001D0FFF713FB6D46069B04A9013B0493E9
:103E3000626B02A853400822059306F072FD082227
:103E400002A9280006F06DFD38340CCD0CC40BB06F
:103E500030BDC04680900108F0B5514B514D89B03E
:103E60000290059506A8403350CB50C00C001201BB
:103E70008B180393A678E068A18822786378B4460B
:103E8000002800D101BE032A00D901BE032B00D9AE
:103E900001BE454E376830373F781F2F00D876E097
:103EA000674610300097FCF7F0FE0590059B002B4D
:103EB0005CD1E0680595A188002800D101BE336877
:103EC00030331B781F2B64D97F2359400023009384
:103ED000013310301A00FCF7D8FE0590059B002B2B
:103EE00044D16389E0689C460595A279E379277AF5
:103EF000002800D101BE160002218E43012E00D001
:103F000001BE1E0002218E43012E00D001BE264EAE
:103F10003668303636781F2E3DD961463030C9B20A
:103F20000097FCF7B2FE0590059B002B1ED1E068C0
:103F300005956189002800D101BE1B4B1B683033F9
:103F40001B781F2B29D97F2359400023009301336D
:103F5000C9B230301A00FCF798FE0590059B002B83
:103F600004D1039B1034A34200D083E7059B06AC29
:103F7000002B04D122000A4B483303CB03C2FFF7C6
:103F80003DFF029B06CC06C3029809B0F0BD07486E
:103F90008BE70648A1E70548C5E70448DDE7C046CA
:103FA000809001080300C200D89601080200C200F8
:103FB000F0B58BB003AD9446070028000C00624EAC
:103FC00062490093029640310CC90CC063460793C6
:103FD0006B461B7807A90B716378A0684B71A378B7
:103FE0008B71E378CB7123790B7263794B72E38821
:103FF00000964B81002800D101BE4B89DB0B00D01D
:1040000001BE8B79072B00D901BECB79072B00D9D4
:1040100001BE0B79073B182B00D901BE4B897F22CB
:104020001E009643321E00D087E0079EFF32964363
:1040300032004E795B02164301968A799446072234
:1040400066463240382613434A7A92071343CA79A8
:10405000D200324013430A7A9446012266467240E7
:1040600092011A430B79F8211B0649050B401343B3
:10407000019A436002600268019991425FD14268EF
:1040800033490A409B1A5A425341324A5B42134019
:104090002D4A9B180293029B002B0DD1009A07A971
:1040A0000292227BA0688A71627BCA71E2894B729C
:1040B0004A81FCF72DFE0290029B002B11D1009B40
:1040C0000293A368002B00D101BE8022596812061A
:1040D0000A435A605B681F4ADB1713401A4A9B1851
:1040E0000293029B002B11D1009B0293A368002B2B
:1040F00000D101BE8022596A12060A435A625B6AE5
:10410000144ADB171340104A9B180293029B002BA2
:104110000BD102990D4B05AA002912D04033110092
:1041200011CB11C12B0003CA03C3FFF767FE3B008D
:10413000380006CD06C30BB0F0BD074BAAE7024B13
:10414000A8E74833EBE7C0460300C20080900108AF
:10415000FFFEFFFFFDFF3DFF0100C20073B56C468F
:1041600022000C4B0500403341CB41C20800FDF753
:10417000AAF9012807D8642343430748C01823003D
:104180001C3006C806C3FFF739FE2B00280006CCFA
:1041900006C376BD80900108E8D9020873B56C4665
:1041A00022000B4B0500403341CB41C2012907D807
:1041B00064234B430749C9182300303105C905C39F
:1041C000FFF71CFE2B00280006CC06C376BDC046B8
:1041D00080900108E8D9020870B58AB06B4600905B
:1041E000596006A90A0011CB11C2082208A806F0DE
:1041F00098FB114D089A099B696B4B409A4201D07C
:10420000FFF724F902A92B000A003833069C41CBA2
:1042100041C2082204A806F084FB049A059B696B3E
:104220004B409A4201D0FFF711F9029BA34201D003
:10423000FFF70CF90AB070BD80900108F0B58DB0A1
:104240006D46194C2A0023003833070003CB03C204
:104250000822290008A806F064FB082208A90AA879
:1042600006F05FFB0A9A0B9B616B4B409A4201D0B0
:10427000FFF7ECF8089B06A901330693626B02AEC8
:10428000534004A808220793383406F04AFB08225A
:1042900004A9300006F045FB0CCE0CC43B003800EE
:1042A00006CD06C30DB0F0BD80900108F0B5DB4C23
:1042B000D3B02300039008AA403303CB03C22300EA
:1042C00008AA403303CB03C228A8FFF7B7FF230097
:1042D00004AE08AA403303CB03C23000D0491422F5
:1042E000FFF7BAFD320008AB03CA03C32898299927
:1042F000FFF772FF082208A91CA806F012FB1AADEE
:1043000023002A00483303CB03C208221CA920A89B
:1043100006F007FB209A219B616B4B409A4201D02B
:10432000FFF794F8082229001EA806F0FAFA1E9A50
:104330001F9B616B4B409A4201D0FFF787F81C9A94
:104340001A9B9A4200D088E01D9A1B9B9A4200D08B
:1043500083E0230008AA403303CB03C226A8FFF75B
:104360006DFF230008AA403303CB03C22AAD23000C
:104370002A002700403303CB03C2AA4B40379A6977
:10438000A94B1A4200D1A4E136A8FFF757FF2B0032
:1043900006CF06C3A549032250313000FFF75CFD6C
:1043A00004AB06CB06C536983799FFF715FF9D4B32
:1043B0005B7E002B46D02AAD290008222EA806F0ED
:1043C000B0FA2CAF23003A00483303CB03C20822D3
:1043D0002EA932A806F0A5FA329A339B616B4B40A6
:1043E0009A4201D0FFF732F80822390030A806F0CF
:1043F00098FA309A319B616B4B409A4201D0FFF79B
:1044000025F82E9A2C9B9A421CD12F9A2D9B9A42CA
:1044100018D123002A00403303CB03C234A8FFF78E
:104420000DFF23002A00403303CB03C2032280493F
:104430003000FFF711FD04AB06CB06C53498359963
:10444000FFF7CAFEFFF7DAFC08222AA908A806F03F
:1044500068FA26982799FFF7BFFE08A9082214A832
:1044600006F05FFA12AD23002A00483303CB03C2E3
:10447000082214A918A806F054FA189A199B616B1F
:104480004B409A4201D0FEF7E1FF0822290016A80E
:1044900006F047FA169A179B616B4B409A4201D07F
:1044A000FEF7D4FF149A129B9A4200D08EE0159A20
:1044B0006B689A4200D089E0230008AA403303CBFE
:1044C00003C224A8FFF7BAFE230008AA403303CB97
:1044D00003C240343AAB06CC06C300230193554ACD
:1044E000554B0199D358554A8A1802921578032BD7
:1044F00001D0092D5AD944AC2200514E2F01F31995
:10450000D83303CB03C20822210046A806F009FADB
:10451000424B469A47995B6B4B409A4201D0FEF75B
:1045200095FF2368002B41D040AC2300F619D83604
:1045300006CE06C342A80822210006F0F2F9374B46
:10454000429A43995B6B4B409A4201D0FEF77EFF43
:104550003B4B0E3526682D013CAC5D1923003EA86F
:1045600006CD06C30822210006F0DBF92B4B3E9A4C
:104570003F995B6B4B409A4201D0FEF767FF27687B
:1045800048A83AACFFF75AFE2200244B04AD403352
:1045900003CB03C23B00320002992800FFF708FD5D
:1045A0000CCD0CC448984999FFF716FE019B1033B7
:1045B0000193A02B93D1FFF721FC08223AA908A868
:1045C00006F0AFF924982599FFF706FE08A90822FE
:1045D0000CA806F0A6F9114C0AAD23002A004833B6
:1045E00003CB03C208220CA910A806F09AF9109A6E
:1045F000119B616B4B409A4201D0FEF727FF0822C6
:1046000029000EA806F08DF90E9A0F9B616B4B40A6
:104610009A4217D0FEF71AFF14E0C04680900108B6
:10462000ECB31D1058970108FF00FF0030B11D10BA
:10463000B0B11D1000002040C42000004CB31D107C
:10464000E8D902080C9A0A9B9A4239D10D9A6B68F4
:104650009A4235D1230008AA403303CB03C222A8D3
:10466000FFF7ECFD230008AA403303CB03C24AAD99
:1046700023002900364A4033079241CB41C100262E
:104680000192344AB3019B1833491A68B3015B188D
:104690001B68002A28DA0136102EF2D1079B019AF6
:1046A000934241D14CA9102E50D0FFF7A7FB08220E
:1046B000290008A806F035F922982399FFF78CFD08
:1046C000FFF79CFB039B08AA03CA03C3039853B0DC
:1046D000F0BD38A923000A00483381CB81C20822EB
:1046E000280006F01EF962E6002BD4DB1B4B1C49A8
:1046F000F718BF0130313800FCF70AFB0790079B21
:10470000002BCBD18022174B120607937B6A1343F1
:104710007B627B6A144ADB171340124A9B1807938B
:10472000079B002BB7D0B9E7079A0E4B9A4209D1E5
:104730004EA940340B0005CC05C30822280006F022
:10474000F0F8B2E7079B002BAFD150A94834F1E74E
:104750000400C2000420234024202340808C000158
:10476000B0B11D100300C200FDFF3DFFF0B5A5B0C4
:1047700004AC04906160029203932AAB1B782B9ADD
:104780000193644B02AF9A4200D0C1E0624B634D8B
:1047900012936A6B12A9534010A8082213930AAE11
:1047A00006F0BFF8082210A906A806F0BAF83300F0
:1047B00008A806CF06C3082206A906F0B2F8082208
:1047C00031000CA806F0ADF80C9A0D9B696B4B40BC
:1047D0009A4201D0FEF73AFE082208A90EA806F078
:1047E000A0F80E9A0F9B696B4B409A4201D0FEF7DE
:1047F0002DFE0A9A089B9A4209D17268099B9A4237
:1048000005D1474B1B68002B01DA03F007FC019B25
:10481000002B0BD0FCF700F803F00EFCC022C023E5
:104820004049520088581B0603438B5020A90B00B7
:10483000220041CA41C3082222A806F072F8229A37
:1048400023996B6B4B409A4201D0FEF7FFFD892301
:104850002099354A5B01D1501CA90B00220041CAA6
:1048600041C308221EA806F05CF81E9A1F996B6BC4
:104870004B409A4201D0FEF7E9FD1C9A2B4B18A938
:104880009A600B00220041CA41C308221AA806F010
:1048900048F81A9A1B996B6B4B409A4201D0FEF76D
:1048A000D5FD189B14A91E680B0005CC05C3082272
:1048B00016A806F036F8169A17996B6B4B409A4279
:1048C00001D0FEF7C3FD1A481A49149B091A5C6807
:1048D000FBF712FF184D19492800491BFBF70CFF85
:1048E000174B9C65DE6585F3088816481649091A3A
:1048F000FBF702FF86F3088814481549091AFBF7ED
:10490000FBFEFCF7CBFE002003F006FEA047FEE70F
:10491000FEE7C046186EA9719B71CA2780900108F6
:1049200000012640000026400000204000ED00E08D
:10493000809001086093010800E0000800E400088E
:104940005897010800B00E0800C00E08B89601087C
:104950007CDF0608F0B58FB00CA90B00674A11CABE
:1049600011C308220AA805F0DCFF654E0A9A0B9BCA
:10497000716B4B409A4201D0FEF768FD6A460C9B72
:10498000604CDBB2D71D3B70E3680393A3690293CD
:10499000029B002B0CD0029A5B4B9A4201D8013348
:1049A0000293FA20029BFEF7C3FA029BFA3B0293A2
:1049B0005648574A0021121A05F0B1FE5548564A8A
:1049C0000021121A05F0ABFE544D554A0021521B2E
:1049D000280005F0A4FE3B7804A9DBB20493726BB7
:1049E00006A8534008AE0822059305F09AFF082256
:1049F00006A9300005F095FF404B06CE06C3039B89
:104A0000E360029BA36185F30888464D4648002178
:104A10002A1A05F084FE85F30888012003F07CFD46
:104A2000FCF73CFEE06803F023FDA3693F48002B40
:104A300000D13F4803F0E4FC3E4B1B68002B01DA39
:104A400003F0ECFAA569002D2AD03B483B495C30C5
:104A5000FBF73EFF20223A4B1A603A4B3A4C3B4E52
:104A60009D421FD820223A4BDA67BFF34F8FBFF326
:104A70006F8F16210520FBF713FFC0220121520082
:104A8000A35828008B43A3500022324B1A73802373
:104A9000A2591B061343A35103F0F4FA03F09CFB45
:104AA00006F02EFAFBF7B8FE8022A3591206134334
:104AB000A351C0235B00E3589B0F05D1C4225200D1
:104AC000A35825490B40A350E1220127D200A35847
:104AD0003B43A350C2235B00E058013880B203F08F
:104AE000B9FAE023DB00E750E35803F0A5FA03F03E
:104AF00073FB0028D6D1194BED18AEE75897010883
:104B000080900108E8D90208E703000080900108BE
:104B100060930108B89601087CDF060800E00008F1
:104B200000E4000800C00E0800B00E080094010860
:104B30000040001600012640B0B11D107D151D106B
:104B400000E100E0BC0A0000000026400C05000067
:104B500004E100E0D8960108FFFFF0FF31F8FFFF05
:104B600010B5002801D1FFF7F5FE10BDF0B585683E
:104B7000060000200F0095B0954240410792FFF7D4
:104B8000EFFFAF4280414042FFF7EAFF7468079BA6
:104B90002D19D819A8428041E4194042FFF7E0FFDF
:104BA000079A21003000FFF7BDF8002803D001204C
:104BB000404215B0F0BD73787F2B17D1079B650A73
:104BC0001F197F0A6D027F02BD4203D12800FCF746
:104BD0003DFDEEE701207F1B7F0A4042002FE8D019
:104BE000013F78024019FCF731FDF7E75BB2002B7B
:104BF000DDDA079B002BDAD0FCF706FB83690500A2
:104C00009F69E8231B067F42E4183C400A94002673
:104C1000AB690A9A0C939B6911960993013B9B1807
:104C200008930C9B12965B680693069A089B934226
:104C300013D36C4CAB69079A9B699A4200D91A004E
:104C400007998A1A07920A9AD3180A93079B002B8E
:104C500000D1BAE0002CDAD0A9E70C9B0A9A1B6CB1
:104C600012A928000D93FBF79FFE041E00D0B0E0B0
:104C7000129BDA681E685F68099B06929342D8D33C
:104C80005743731EFF180A9B0699981B06F012F9EA
:104C90000029CED1089BBB420AD21A0012A92800D3
:104CA000FBF782FE041E2DD1129B1E68DB68069363
:104CB000089B0699581C801B06F0FCF80A9B0B9376
:104CC0000029B6D1099B002BB4D00B9A12A9280059
:104CD000FBF76AFE089F041E0ED1129B1A695F68DB
:104CE0000D92DA6806921A68069B013A5F43089BA8
:104CF000D7199F4200D91F00FA230D9A9B005343F6
:104D00000E933AE0374B984293D0D1E7120211004C
:104D10001A5C013311430A004AE03279FF2A50D06D
:104D2000304B98424DD000284DD1139B99680123F8
:104D30002D4E0393283604962B7801920293236814
:104D4000C9B20093294811ABFDF7E4FA041EB9D1AA
:104D500033000E9A29002548FEF71CF8099B069A95
:104D60000400934200D865E794460B9B63440B9381
:104D7000099B9B1A09930028A4D10B9BBB42A1D28B
:104D8000194A290028321948FDF7A4FB041E99D1BD
:104D90000C9B0B9A1B6811A9013B5A54120A002B59
:104DA000FAD1AC691393226866690F921A0011A8B0
:104DB0000F999942AAD113A92800FBF7F5FD002EFF
:104DC000ABD10B4C7EE73168B1E7601E8441604295
:104DD000EFE6044B984200D12BE7099B370006937E
:104DE00051E7C0460400B200D896010800004240D6
:104DF0008000B2000023F0B585B0050003A90720AC
:104E00000393FCF790FA012400282DD12E78032E6D
:104E10000FD09823164A5B00D75C3800FCF7A7FA3E
:104E200001903800FCF79AFA019B9E4201D086421D
:104E30001AD13000FCF7C9FBA022010052010398EF
:104E4000FFF794FE040060426041FFF789FE2B7873
:104E5000032B06D0A968602260392800FFF786FE80
:104E600004000398FCF756FA200005B0F0BDC046D8
:104E700038DE0608F0B546680500B14280410C00F6
:104E80001F009BB040420992FFF76AFEE019B04252
:104E9000804134194042FFF763FE3A0021002800A8
:104EA000FEF740FF061E00D0DDE068787F283ED187
:104EB000F80543425841FFF753FEE005434258418D
:104EC000FFF74EFE780A40020319012025000793E0
:104ED0004042079B9D4201D11BB0F0BDEF05FF0D85
:104EE00023D1099B1E1B7619002E1ED0FBF764FCF4
:104EF000714B724A5A619F61DD611E621B685233B9
:104F0000187800280BD0FBF731FDFA21890005F055
:104F10004BFF01006A4805F047FF6A4BC01805F0D7
:104F2000F7FF80239B00ED18D3E76748F9E743B20A
:104F3000002B00DB97E07F231840FCF765F9E8239E
:104F40001B06E318051E08930F9600D101BEAA693F
:104F5000089B5168FB188B4200D984E0536A166A9B
:104F60000A93554B28330C930A99089805F0A2FF31
:104F70000A9ACB1907979A4201D8531A07930C9AA9
:104F800029005248FDF7A6FA00286CD1AB69089AAF
:104F900018680FAB0400013CE254120A002CFAD14D
:104FA00032790D9232680394D1B2434A2832049286
:104FB0000B922A78029272790090019243480D9ADE
:104FC000FDF7A8F900284ED1B1684B1C3BD13169DF
:104FD000002904D03D48FBF711FD002843D1337D63
:104FE0001A1FD2B2FA2A41D9079A002A3BD00721C8
:104FF0003648426C0A40032A35D8C0221B0492026C
:1050000013408022D2021343079A013A92B213430B
:105010000365099B002B2BD1274BAA692833926C7F
:1050200029002A48FDF7B6FE00281CD1079A099BE3
:10503000944663440993089BBF1A63440893002F66
:1050400092D1380048E70B9B327B049303942B7872
:10505000C9B20293FF23009401931C482300FDF77B
:1050600059F90028B3D00120404235E701BEBBE723
:10507000114B0222DC6C099B1093079B12930023B7
:1050800017931692169A022A13D1114A9342EAD024
:1050900010A90E48FBF778FD00239C42F2D00120B6
:1050A000013CFDF72DF963426341094A5B4213401D
:1050B000E8E7002BB0D0D6E7D8960108000100053C
:1050C000C0EA2101482600000600520000004240CC
:1050D0000200B200F0B547680600B94280410C00FA
:1050E0001D008DB040420692FFF73AFD6019B842AC
:1050F00080413F194042FFF733FD2A00390030005C
:10510000FEF710FE041E00D07DE070787F2807D1E6
:105110002A003900069805F004FC20000DB0F0BD0F
:1051200043B2002B6FDA7F231840FCF76DF8E823B9
:105130001B06FB18061E07930B9400D101BE069BAD
:10514000002B00D101BEB269079B5168EB188B425E
:1051500059D897682D48002D03D1441EA0414042E4
:10516000DCE7B369079A18680BAB0400013CE25412
:10517000120A002CFAD13A7909923A680394D1B212
:10518000234A283204920892327802927A79009067
:1051900001922048099AFDF7BDF8002833D1B9687B
:1051A0004B1C20D13969002904D01A48FBF726FC92
:1051B000002828D180232C005B029D4200D91C00CE
:1051C000134A3B7D28320092069922001148FDF7D0
:1051D0009DF9002817D1079B2D1B1B190793069BD0
:1051E0001B190693B7E7089B3A7B04930394337823
:1051F000C9B20293FF230094019306482300FDF7F0
:1052000089F80028CED00120A9E7C0460400B200EA
:10521000D896010800004240F0B59827050087B0F5
:10522000284C03917F002900E05DFCF72DF904A9CB
:10523000C0B2FCF778F8002806D001260498FCF7E5
:1052400069F8300007B0F0BD2C226A43E35D02929A
:1052500058225343029905ADCB18E3181A89DB682D
:105260000498D31801932A0004230199FFF732FF11
:10527000061EE2D15822E35D5343029AD318E41884
:105280002A88114B64899A4218D16B88A34201D0B5
:105290000326D3E7019B2A00191904980423FFF77A
:1052A00019FF0028C9D1094B2A889A42F0D16B888E
:1052B0001C19019BE418039B1C60BFE7002CF2D073
:1052C000E6E7C04638DE0608086900000769000006
:1052D000F0B51E00036885B0040000910192002B18
:1052E00002D04368002B1CD10120404237E06A887D
:1052F0002189171DBC461B4FB94202D02D888D4213
:105300000DD1002E02D003A9098831800099043301
:105310000B60019B1A802369634423611FE063448F
:105320002361226963699A4218D223685B89002B42
:1053300004D0E368934201D10433236103AD042315
:105340002A0021696068FFF7C5FE0028CCD1A27A47
:105350002369002ACBD0E2689A42C8D8012005B060
:10536000F0BDC046FFFF0000F0B587B002930CAB64
:105370001B7804000D0000920393002A05D101233D
:105380005B420193019807B0F0BDCB680F8905AE71
:10539000FF183200042339000098FFF79BFE0190AC
:1053A0000028ECD1144A31886B89914221D171884F
:1053B0009942E4D1C919042332000098FFF78AFE0C
:1053C0000028DCD105AA0D4B11889942D7D1009B4A
:1053D000256063606B461B8923816B461B7BA37230
:1053E0006B89DB19E3605288D31863613B1D23612D
:1053F000C8E7002BE6D0C2E7086900000769000093
:10540000F0B5854C854DA54404930DAF2B001600D7
:105410003A0002900591403303CB03C20FAC2B003E
:105420002200403303CB03C22BA8FEF707FF2B005B
:105430002200403303CB03C2310006A8FEF78EFEE4
:10544000230006AA03CA03C32B982C99FEF7C4FEB7
:1054500023AB1A0003CC03C221AC2A0021009C46D6
:10546000403209CA09C127AB1900634605CB05C103
:105470002799289B6A6B5340994201D0FDF7E6FFBC
:1054800025AB1A0003CC03C2259A269B696B4B40BF
:105490009A4201D0FDF7DAFF239A219B9A4206D166
:1054A000249A229B9A4202D1012464421CE23000D9
:1054B000FBF7FBFF041E00DA16E218234343029AAF
:1054C00003909B5C002B00D015E200933200323336
:1054D000059935A8FFF748FF031EE5D1122504AA58
:1054E000AD182A000AA935A8FFF7F2FE002800D05F
:1054F00003E22B88902BD7D94AAA0A993000FFF7EC
:10550000E9FD0028D0D129A8FEF798FE434D3A00C6
:105510002B00403303CB03C22B002DAA403303CB17
:1055200003C23000FBF7CFFF012807D864234343B1
:105530003B48C01828302DAB06C806C3FEF75EFCFA
:105540003A002DAB03CB03C229982A99FEF744FEFB
:105550001DAB1A00390041C941C21FAA110041CB3D
:1055600041C11F99209B6A6B5340994201D0FDF7BE
:105570006DFF1D9B19AB1A00390041C941C21BAA1E
:10558000110041CB41C11B991C9B6A6B534099424E
:1055900001D0FDF75BFF199B002B00DC84E715AB06
:1055A0001A00390041C941C217AA110041CB41C1BB
:1055B0001799189B6A6B5340994201D0FDF746FF3B
:1055C000159EFAF717FF864200DD6DE711AB1A0052
:1055D00003CF03C213AA110041CB41C11399149BFD
:1055E0006A6B5340994201D0FDF730FF12230D49F9
:1055F00004AA9B186431102231A841AE1D88119F66
:1056000005F08FF93000FBF7C9FF50230B93012CF5
:105610000ADD872449E7C046ACFDFFFF8090010802
:10562000E8D90208B0B11D10912DF2D1B44B6FAD85
:105630006F973BA809AF3B933C956F60FAF7A6FEC6
:10564000041E00D050E13B88AE4A3BA83B923C95FB
:105650006F9302966E60FAF799FE041E00D043E144
:105660008C2204AB52009B181B78042BD1D1CF2283
:10567000029B12021B8813408222D2019342C8D19E
:10568000029B0C905B880CAE05939F4B3BA83B9311
:105690009E4B3C952E606B60FAF778FE041E00D09E
:1056A00022E18A229A4BFF323B939A4B3BA86B60D4
:1056B00004ABD21820233C952E60AA60EB60FAF769
:1056C00065FE041E00D00FE1914B3BA83B93924B2B
:1056D0003C956B6031ABAB6010232E60EB60FAF74A
:1056E00055FE041E00D0FFE08C4A3B883B9202220C
:1056F000AB604AABEB60059BFF320733DB085B0016
:1057000001333BA83C952E606A602B61FAF73EFEA0
:10571000041E00D0E8E0824B3BAF2F936FAB7B6061
:105720000B9B2FA830973B96BB60FAF72FFE041E09
:1057300000D0D9E041AE0C903000FBF72FFF802362
:105740001B014493774B04AA459388235B01338064
:10575000754B2FA82F9316239B183B93029B3097D2
:105760007B6073ABBB602023FB60FAF70FFE041E67
:1057700000D0B9E004ABDB8A6C4A7B60694B0CADAE
:105780002FA82F9230973D60BB60FAF7FFFD041EF3
:1057900000D0A9E0664B04AA2F937A23FF339B180D
:1057A0007B6010232FA830973D60BB60FAF7EEFDB9
:1057B000041E00D098E05A225E4BFF322F9304ABB8
:1057C000D2187A6020222FA830973D60BA60FAF78D
:1057D000DDFD041E00D087E004AAD38A564D2FA811
:1057E0002F9530973B60FAF7D1FD0595041E00D048
:1057F0007AE03000FBF7D2FE8023504A9B004592AE
:10580000494A4F4E2F92039A44934E4B5500783697
:10581000419373193B601023029A2FA87A606FAAF4
:105820003097BA60FB60FAF7B1FD041E5CD1AB5B48
:10583000454D464A7B60414B60352FA82F923097EB
:105840003D60BB60FAF7A2FD041E4DD11022404B13
:105850002FA82F937BAB30973D607B60BA60FAF73F
:1058600095FD041E40D1039B04AA1E01394B0499E7
:105870002F937A23FF339B187B60330010220C3365
:10588000CB18FB602FA80BAB7B6130973D60BA60F3
:105890003A61FAF77BFD0B9B0400102B29D10028FD
:1058A00022D12D4B3C902F933D900BAB3BAF2FA8BB
:1058B00030973B953E93FAF769FD041E14D1204AB8
:1058C000039B78325B009B5A059A2FA82F923B933B
:1058D0003097FAF75BFD04003000049B2C30181859
:1058E00010227FA905F01DF8200095239B009D4400
:1058F000F0BD8424D9E50124F6E70400F4E7C046AE
:105900000016003500020035001D00350901203069
:10591000000400350202000003020000000600350A
:10592000000700350900800200090035001E00351F
:10593000001F003500200035000A00350100C004BA
:10594000D89601080024800058970108000B003504
:10595000000C0035000D0035000E0035F0B5314C5F
:105960009BB00393230002901600403306AA0F0059
:1059700003CB03C200230C930593636B08220CA98D
:1059800008AD0AA80D9304F0CCFF08220AA928004C
:1059900004F0C7FF039B06CD06C3002E39D07B89D8
:1059A000002B36D001233200009339004F3314A866
:1059B000FFF7DAFC031E2CD110AD2A0012A914A89F
:1059C000FFF786FC002824D12B88042B21D105AABF
:1059D00012993000FFF77EFB00281AD1059A14A90E
:1059E0001492636B12A853400822159304F099FF98
:1059F000082212A9280004F094FF039B483406CD26
:105A000006C30EA90B0005CC05C3082206A804F0A6
:105A100088FFFEF7F3F9029A06AB03CB03C20298A4
:105A20001BB0F0BD809001080023F0B5794DAFB0F8
:105A3000049306AC2B00220001910090403303CB6D
:105A400003C2082004F04AFF07000098FBF78FFC10
:105A500004A9FBF768FC0126002846D110A8FEF730
:105A6000EDFB2B002200403303CB03C202AE0199B1
:105A700030003B00049AFFF771FF2300320003CA95
:105A800003C310981199FEF7A7FB082221000AA86A
:105A900004F047FF08AC2B002200483303CB03C2BD
:105AA00008220AA90EA804F03CFF0E9A0F9B696B0E
:105AB0004B409A4201D0FDF7C9FC082221000CA8F6
:105AC00004F02FFF53490C9A0D9B496B4B409A42AF
:105AD00001D0FDF7BBFC0A9A089B9A420ED00B9AA4
