:02000004101DCD
:1000000000C00E088BA61D100D000000E9A61D10F3
:1000100000000000000000000000000000000000E0
:10002000000000000000000000000000E5A61D1018
:100030000000000000000000E5A61D10E5A61D1050
:10004000E5A61D10E5A61D10E5A61D10E5A61D10D0
:10005000E5A61D10E5A61D10E5A61D10E5A61D10C0
:10006000E5A61D10E5A61D10E5A61D10E5A61D10B0
:10007000E5A61D10E5A61D10E5A61D10E5A61D10A0
:1000800010B5064C2378002B07D1054B002B02D06E
:10009000044800E000BF0123237010BDC89501088B
:1000A0000000000078B91D10044B10B5002B03D0E0
:1000B0000349044800E000BF10BDC0460000000036
:1000C000CC95010878B91D10F7B5684D2B68403301
:1000D0001B78002B00D101BEE02201206449920070
:1000E0008B589B069B0F98402B68019040331B78E0
:1000F000002B00D101BE0F238A5813402A683E32DC
:100100001278934200D301BE2A683E32127893429D
:1001100000D301BE2A683E321278934200D301BE5A
:10012000534A9C00A418D02207209200A2580240F3
:10013000042A07D1C0229200A25818301040802211
:10014000520002438820400082425ED005D8002A37
:100150000DD0022A50D000260AE01220FF30824241
:1001600058D01420FF308242F5D1424A4EE0424E30
:10017000002B57D1B0248020E4000A594004970393
:10018000024094463D4A3E4D885804328A584D59A3
:100190000C59C004BF0BC00C1900002C04DA9100EC
:1001A000890F02394C1EA1416246531E9A41013209
:1001B00000291AD0002818D0002A16D000231900D0
:1001C0000AF0C4FC00230C0005003A0030001900BE
:1001D0000AF0BCFCE6076A083243630880185941FC
:1001E0002A0023000AF092FC0600019B580880199F
:1001F00019000AF0E1FDFEBDA620C0000A58002645
:10020000D2439207B4D00A58B2E71E4A8E58F60F6E
:10021000F603ADE704201C4A16690640A8D08026E4
:100220003602A5E72A683F3212789342DDD8013BB7
:10023000164D9A4213D97F271F226159080A0B0CC9
:100240000F4089001040890F1A40002364599C42D6
:1002500003DA02390B00591E8B411900A8E701BED1
:1002600000210A0008000F00EFE7C046E4950108EE
:10027000000026403C05000000127A0084050000C2
:100280008C0500000C05000000002740FC05000064
:10029000074B5B68DB681A68002A06D05B68186841
:1002A00001231840034BC01870470348FCE7C046C1
:1002B000E49501080001880004018A00437802786F
:1002C0001B021A438378C0781B04134300061843AB
:1002D000704730B5050001230F24FD350949FF356E
:1002E0005B42027801305A40130922409200525872
:1002F00053401A0923409B005B585340A842F0D159
:10030000D84330BD40AF1D10F7B500258C79C0B281
:100310000134E40001942F0008248446085D8445DC
:100320000BD10E19F079FF2807D17078B84204D3A9
:10033000B678012E01D107002500019808348442C7
:10034000ECD9002D0BD0491908799070487950707C
:10035000887910700020CA7892001A60FEBD0148AA
:10036000FCE7C0468000B200074A136833331B78AD
:10037000834200D801BE13681A00BA3212881B6A81
:100380005043C0187047C046E495010870B504009A
:100390000020FFF7E9FF144B14491B68BC331A68AF
:1003A000002382180568002D06DB8B4202D18420D1
:1003B000404270BD0133F5E78B42F8D00123C460A1
:1003C000836000230A491068002803DA8B42EED0CC
:1003D0000133F8E78B42EAD0A022236812060020FE
:1003E0009342E6D01800E4E7E4950108983A00004B
:1003F000009435771FB5084B002402936B4602A882
:10040000039301AB01940093FFF7C0FFA04200D01B
:100410000194019804B010BD001B0035002803D0E2
:100420000378013B1F2B00D970470130F6E700220B
:1004300010B504001000A15C0B00303B092B09D85B
:1004400030380818531C032A03D000011A00042B6B
:10045000F1D110BD0B00413B052B01D83738F0E737
:100460000B00613B052B01D85738EAE70020F0E785
:10047000F0B50B7885B0039017004D1C222B17D0D8
:10048000116000202AE05C2A07D1019A5278002AE4
:10049000F7D0019A013301320192019A013201929F
:1004A000019A1278222A00D1A7E0002AEBD1E8E7CE
:1004B00001950023F4E72B785C2B11D023700135D4
:1004C0000134019B9D42F6D30023039A2370083325
:1004D000D36013000198029A01301A6105B0F0BD93
:1004E0006B78662B63D014D82F2B61D007D8222BC2
:1004F0005ED0484B3D605B6802989847C1E75C2B33
:1005000056D0622BF5D1082323700134063BED1839
:10051000D7E7722B50D006D86E2BEAD10A2323706E
:100520000134083BF3E7742B48D0752BE1D1019BD4
:100530005B1B052BDDDDA81CFFF779FF364B374A27
:10054000C31806009342D4D90028D2D0344B334A82
:10055000C318934234D8019AAB1DD31A052BC8DDBA
:10056000AB795C2BC5D1EB79752BC2D12800083053
:10057000FFF75DFF284B294AC3189342B9D8294B8E
:10058000B6021E4080238005800D5B020643F618EC
:100590000C23254A96421FD9244A9642A9D83F20C7
:1005A0003040802676420643E670042212E00C2397
:1005B000237001340223AAE70D23F9E70923F7E7A3
:1005C0007F2804D91A4B98420ED90623E1E7062367
:1005D00001222070A4189AE73F20304080267642FE
:1005E0000643A6700322F5E73F20802306405B42C6
:1005F0001E43667086330222ECE7019A501AC01A35
:10060000044B04301B6898470290041E00D058E742
:1006100037E7C046809001080024FFFFFF03000079
:100620000028FFFF00FC0F00FFFF0000FFFF10008D
:10063000FF070000F8B5802604007600002C00D1EA
:10064000F8BDE3682768334204D1A068002801D0D0
:10065000FFF7F0FFE3680B4D334204D12069002817
:1006600001D06B6898478022E3689200134204D15E
:10067000206A002801D06B68984720006B68984773
:100680003C00DBE78090010870B50568040000209D
:10069000FFF76AFE002316490268002A05DB8B4239
:1006A00001D1FF2070BD0133F6E78B42F9D0012262
:1006B00023002A4000D023680E4C2468BC342468F0
:1006C000C36001238360002305192D68002D03DA20
:1006D0008B42E6D00133F7E78B42E2D0C068002AB4
:1006E00000D10068A0231B069842DBD10020D9E787
:1006F000983A0000E4950108002210B5094B86B035
:100700000193039003AB040001A8029304920591A6
:10071000FFF7BAFF4342584140420440200006B070
:1007200010BDC04600220035034B1B68BC331B685C
:10073000C0180068C00F7047E4950108DC23F0B5CD
:10074000002487B09B05049304AE02AB7360029053
:100750002000039401911700FFF706FE0500230017
:10076000144C2A68002A07DBA34203D1012040422F
:1007700007B0F0BD0133F4E7A342F7D00123EE60E8
:100780000026AB602800FFF7CFFF002803D0A64269
:10079000ECD00136F6E7A642E8D0A023049A1B0667
:1007A0009A4201D00498E3E7029B019A3B60039BC5
:1007B0001360DDE7983A000070B5FFF785FC00286C
:1007C00022D0124B1B681A00883212681B689B18D3
:1007D00019681C68090E0131240A0AF0EDFAE1B229
:1007E00001310AF0E9FA451E094928000AF0E4FA45
:1007F000FA21084C01302072890028000AF0DCFA46
:100800000130E060C003206170BDC046E49501087E
:1008100040420F0080900108174A30B513681C0051
:100820002C3424781F2C16D8820807241500A543E1
:100830002C1E0FD103342040A04081401B68920041
:1008400020339B180A00FF2181401C686240114040
:100850006140196030BD9B8F8B4200D101BE13688F
:100860001A680723184080231B06184380239B0126
:10087000C91889008850EDE7E4950108F8B5436888
:1008800005000C00032B00D901BE0023E85E002800
:100890002CDB6988FFF7C0FF0020FF270326390003
:1008A0000023EA5E6D6893B21E40F600B140AD01D0
:1008B0003D40C943B540002A1ADB134E93089B0004
:1008C0009B19C026B6009F5939400D439D510F49D1
:1008D0000F4B8D689D4208D189688B4205D1002C51
:1008E00000D101BE103292009C50F8BD0948D4E7F7
:1008F0000F263340083B054E9B089B009B19DE6981
:1009000031400D43DD61E2E700E100E000ED00E091
:10091000009001080100560010B5FFF7D5FB0C4B05
:100920001B681A00883212681B689B1819681C68BB
:10093000090E01314B0818180AF03EFA240AE4B2F5
:1009400001346308C01821000AF036FA10BDC04611
:10095000E4950108F0B58C46002800D101BE8369FA
:100960005868904219D91D6D002D03D00020DF6C0E
:10097000874201D10A480DE08300EC582668B24254
:1009800009D3E36861684B439B199A4203D26346DB
:1009900000201C60F0BD0130EAE70248FAE7C046DB
:1009A0000600B2000400B20000290CD00722436CFC
:1009B0001340032B09D8C023013989B21B03194303
:1009C0000165002070470248FCE70248FAE7C0468C
:1009D0000400B2000100B200F7B50200C4324C6955
:1009E0000D00CB68019211680F220A40A24200D983
:1009F000220007000100D437D8310097002A12D115
:100A0000EB606C61002C0CD1F9220221D2008358DA
:100A10008B4383500320A8612B6A002B01D02B6AE3
:100A200098476C61F7BD082A19D10E68370A1E7005
:100A30005F70370C360E9F70DE700E68370A1E71BD
:100A40005F71370C360E9F71DE710F269B18A41A4A
:100A5000019A12683240A242D0D92200CEE7012A80
:100A600004D10600D03636681E70EEE7022A05D1A2
:100A7000009E36681E70360A5E70E6E7032A09D1CA
:100A8000009E36681E70360A5E700600D0363668E4
:100A90009E70DAE7042A08D10E68370A1E705F706C
:100AA000370C360E9F70DE70CFE7052A0CD10E682A
:100AB000370A1E705F70370C360EDE7006009F70AE
:100AC000D03636681E71C0E7062A0DD10E68370A87
:100AD0001E705F70370C360EDE70009E9F70366899
:100AE0001E71360A5E71B0E7072A11D10E68370A07
:100AF0001E705F70370C360EDE70009E9F70366879
:100B00001E71360A5E710600D03636689E719CE70B
:100B10000A68160A1A705E70160C120E9E70DA7051
:100B20000A68160A1A715E71160C120EDA719E713D
:100B300008228AE7F0B58B6885B00193030008337B
:100B40000D680393DC6F0F231C40073B1C1B019BAC
:100B500000900F009C4200D91C00009B009E943323
:100B600098360293002C14D1019B3D60BB60002B92
:100B70000DD1F9220120009BD2009B58009983439C
:100B80008B50B861FB69002B01D0FB69984705B019
:100B9000F0BD082C16D12800FFF790FB3060281D0F
:100BA000FFF78CFB3060019B2D191B1B0193039BEE
:100BB000DC6F0F231C40073B1C1B019B9C42D1D9BF
:100BC0001C00CFE7012C04D12A78009B90331A60D7
:100BD000E9E7022C06D12A786B781B021343029AAC
:100BE0001360E0E7032C07D16B782A781B021343CC
:100BF000029A1360AA78E8E72800FFF75FFB042C4D
:100C0000D0D03060052C01D12A79DEE7062C02D144
:100C10002A796B79E1E7072C07D16B792A791B02D6
:100C20001343029A1360AA79CFE7281DFFF746FB0A
:100C300008243060B7E7F0B5490085B0019199000C
:100C40000C230AAC19402478093B1A400A4361423C
:100C5000614100261F2709010A4303900292019D6A
:100C60009900CD400F2200241540039A51180A68BC
:100C70000120054205D03800A04082430298A040E0
:100C8000024308346D08202CF2D10A605C1E002B50
:100C900007D10B685A401F239A4309D1300005B091
:100CA000F0BD0B68934205D12300621CD7D1F5E754
:100CB000014EF3E7004EF7E70300C20010B500282D
:100CC00000D101BE4B89DB0B00D001BE02238A7923
:100CD0009A43012A00D001BECA799A43012A00D062
:100CE00001BE4A897F2314009C4322D107248B79BB
:100CF0005202234013434A7A313492071343CA798C
:100D0000097AD2002240134301224A409201134340
:100D10001A0009490A409A420BD14262406A0840CF
:100D2000801A43425841054B40421840044BC018BA
:100D300010BD0448FCE7C046DBFEFFE0FDFF3DFFC1
:100D40000300C2000100C200F8B51E4D1700EA689A
:100D50000E00002A00D101BE2C24FF2144431800BC
:100D6000EA68084014191A0A0A401B0CA3602060A4
:100D70006260FFF7F9FA2B682061343361681B78F1
:100D8000994200D301BE0F4B1B681A6A0B008033D7
:100D90005B01D3186361A368180C01D001BE01BECA
:100DA00049011B0452180849180C034352181360D8
:100DB0000023A361069BE7612662002B01D01B88FC
:100DC000A381F8BDE49501080810000070B5040087
:100DD0000D00FFF7A9FC002802D00020656070BD5F
:100DE0000048FCE701008A00F8B5264BDA68002AC3
:100DF00000D101BEDC68002C00D101BE2369002BAC
:100E000000D101BE6369002B00D101BE236A002B13
:100E100000D101BE6269D5682B0C1ED01B04136083
:100E200020691368FFF780FC002816D02769380076
:100E3000FFF77AFC061E0CD0F868E26903681E0C06
:100E4000DBB2934205D2226A9B009B58002B00D054
:100E5000984731002069FFF7B9FFADB2002D09D0E6
:100E600063691D6000251B68636AAB4205D0984723
:100E70006562A56163691B68F8BDA36A002BF8D0A1
:100E80009847F6E7E495010810B5072900D901BE97
:100E90001F2314009C4300D001BE0E4B1B689C69AD
:100EA0005B69001BC0090001C0181F231A400329F9
:100EB00007D8C9008B408A4004689C4322430260E3
:100EC00010BD0439C9008B408A4044689C432243CA
:100ED0004260F5E7E4950108F0B5060085B00D0025
:100EE0001400002800D1F2E0072900D901BE2368D0
:100EF000012B00D901BE0F2362689A4300D001BEC6
:100F00001F22237A934300D001BEE368032B00D94C
:100F100001BE2369012B00D901BE6369012B00D9F1
:100F200001BE236A012B00D901BE636A012B00D9DF
:100F300001BEA36A012B00D901BEE36A032B00D9CD
:100F400001BE236B072B00D901BEE369032B00D937
:100F500001BEA369012B00D901BE01231A00AA40DA
:100F60005C4F01926A000292103294463A68E1693D
:100F700083321078801902680292A2691340AB4054
:100F800003220393634611409940039B0B43614640
:100F90008A4001990A43029991430B4303606368B5
:100FA000072D00D901BE0F221900914300D001BEC8
:100FB0000F20AA0002923A6807008132127803409B
:100FC000B2181168A8008C46A9008F406146834082
:100FD000B9430B431360227A29003000FFF754FF16
:100FE000E368082D00D901BE032B00D901BE032000
:100FF000384A070012680340803212786800B2183D
:10100000116883408C4669008F406146B9430B43A9
:1010100013602369082D00D901BE012B00D901BE40
:101020000199B269CF4301210B40AB403A401343D1
:10103000B3616269072D00D901BE012A00D901BE42
:10104000244B19680B0082331878843130180368F8
:10105000029301231A40AA409C46029B1F4017435B
:10106000022207600427636A09785B001340A26AC2
:10107000711892003A4067461343226A0868174085
:10108000E26A3B43D70018223A40FF271A43236BFA
:10109000B8435B013B401343FE229C469200AB00E9
:1010A00013401A0063469340184308602068072DD8
:1010B00000D901BE012804D901BE019B0020B36004
:1010C00003E00028F9D1019B736005B0F0BD024830
:1010D000FBE7C046E495010801005A0010B5002066
:1010E000FFF742F9FFF720FB002844D1234A2449A7
:1010F00013698B420FD010D8402B36D005D8002B67
:1011000037D0102B2FD01F481FE0802B2FD08021ED
:1011100049008B42F7D11A4817E01B498B421CD07B
:1011200009D8A02109068B4223D01849A0208B4260
:10113000E9D1C00309E016498B4210D015498B4212
:101140000FD015498B42DED11448136801225B6829
:101150009A609A68002AFCD110BDA420E9E71048E3
:10116000F3E71048F1E71048EFE71048EDE71048C3
:10117000EBE70020E9E70D48EEE7C046E4950108FB
:1011800006005200FF005200010000F0090000A01C
:10119000040000F0050000F0030000F00100520020
:1011A00002005200030052000100500002005000F3
:1011B00005005200024B80001B6A5B68C0587047F4
:1011C000E4950108034A5369591C01DA013B536154
:1011D0007047C0468090010810B5144C63695A1CD2
:1011E00023D0002B1ED1200011491830FFF746FBF9
:1011F0001822A35E002B06DB1F2213401E3A9A40E2
:1012000013000C4A136000220B4B5A629A62DA6296
:101210005A631A639A63DA638023084A1B061168CB
:101220000B43136063690133636110BD8090010853
:1012300041121D1000E100E0E49501080000424069
:1012400070B501251B4C1C4BE3582B4209D01B49A0
:1012500020002431FFF76EFCF823DB00E550E35853
:1012600070BD02252B4205D0144920002431FFF720
:10127000B3FBF1E70422134206D005210F4BD963DB
:10128000F823DB00E250EAE70822134202D00B4BBE
:101290000621F4E710210B4206D00722074BDA6340
:1012A000F823DB00E150DAE720210B42D8D0034BD2
:1012B000F5E7C04600004240CC070000E495010875
:1012C00010B5002804D043787F2B01D9FFF77AFFAF
:1012D00010BD10B50B4B40331A68002A02D101240F
:1012E000644205E0147804338442F5D100240A6096
:1012F0000B68002B04D05B787F2B01D9FFF76CFFC4
:10130000200010BD40AF1D100223002803D004337D
:10131000012800D0F933180070470123002803D0BA
:101320000433012800D0FA33180070479823F7B52A
:101330003B4C5B00E55C06002800FFF7EEFFB04287
:101340000ED15820684323185B6A28300093041993
:10135000344B40331F68002F1DD101204042FEBD99
:101360002800FFF7D1FF864206D158206843231892
:101370001B6D54300093EAE7032E04D1B434236884
:10138000294C0093E4E70120072EE8D1C0342368FC
:10139000264C0093DCE73A7804339642DAD17B7826
:1013A000BD687F2B02D18026B6000AE05BB2002B1D
:1013B00020DA1F4B5A69002AF5D05B6A1B689B69CB
:1013C0009E6970190138310009F0F6FCFA23DB0040
:1013D000984200D976007B68009F01930023009318
:1013E000002D0AD1FA23009ADB009A42B5D8226078
:1013F0002800B4E700250126E3E73100019809F051
:1014000061FD711AA94200D92900019B79603B60F6
:101410005B180193009B6D1A013300930837DFE7D7
:10142000F8DC060840AF1D10B0DD0608BCDD06087C
:101430008090010810B501290AD00323022905D0A4
:10144000043B002902D1FFF768FF0300180010BD1C
:10145000FFF75AFFF9E703780422190000209143AF
:10146000012905D00130022B02D0062B00D0023812
:101470007047037800205A1E012A05D90130052B38
:1014800002D0062B00D0023870470B7870B50400EC
:10149000072B20D1204B1A00C0321268C4331B68BE
:1014A000D318944235D39C4233D2F0231B4A1B06F7
:1014B000E318002093420DD9194B9C4229D9C02230
:1014C000184B52055B6A1B689B695B689B189C42C2
:1014D0004041404270BD032B05D10F4B1A00C8326A
:1014E0001268CC33DBE70800FFF7C3FF002810DBEE
:1014F000602319004143084A51188D6BC96BA542FE
:1015000002D84919A142D0D858431018026C436C34
:10151000C6E70120DDE7C046B0D80208FFFF1C0087
:10152000FFFFFF178090010810B50400242200215E
:1015300009F0FDF8200010BD03000120042B05D0A8
:10154000052B04D101390800411E884170475B1A00
:1015500058425841FAE7013800B505281BD809F070
:101560000DFC1803061A0910A020400100BDA020A0
:101570008001FBE7094B30331B78012B0BD9F0209E
:10158000F6E7064B30331B78012B04D9A020C001AD
:10159000ECE70020EAE701204042E7E780900108FD
:1015A00042790023012A06D10268012A03D1037976
:1015B000013B5842434118007047064B10B51B6869
:1015C00028209847041E03D02822002109F0AFF8F4
:1015D000200010BD8090010870B5144B144E33608C
:1015E000FFF7EAF88023134D03202B602B0008330C
:1015F0006B60FEF7B9FE04002B687060DA0800210A
:10160000686809F094F800212000FFF7DFFB2368E9
:10161000002B05DA0021E5602000A160FFF7D6FB72
:10162000F368002B01D1044BF36070BD64B21D1050
:10163000E495010800000008D0980108F0B593B0C7
:1016400007000D000192022931D009AC2000FFF7FC
:101650006BFF80239B000C93164B69000D93164B78
:1016600006940993154B2C010393154B05AA4C3393
:101670005B180593230001990C33CB1807931023B3
:1016800003A804920893FEF781FE061E0CD11823CE
:1016900021005D43019B7F192C315918781C1022C1
:1016A00009F047F901233B70300013B0F0BD8726E5
:1016B0007642F9E70100C0040024800000090035EB
:1016C000E495010810B50400FFF776F80D4B0E4ABB
:1016D0001A6100225C619A61DA611B6854331878E0
:1016E00090420BD0FFF718F9FA21890009F064FB4A
:1016F0000100064809F060FB054BC01809F008FC22
:1017000010BDC046E49501080001001C60F5900082
:101710009808000010B5010004000B4809F00FF80C
:10172000002398420DD02100084809F008F8012351
:10173000002806D02100064809F001F84342434141
:101740005B00180010BDC04604B51D100DB51D107E
:1017500019B51D1010B5010004000B4808F0EFFF8B
:10176000002398420DD02100084808F0E8FF01232B
:10177000002806D02100064808F0E1FF434243411B
:101780005B00180010BDC0461EB51D1027B51D100A
:101790002FB51D10F0B507000D00002491B001AE6B
:1017A000002D02D1280011B0F0BD296A002904D013
:1017B000380008F0C4FF0028F4D0AB68002B06D036
:1017C0000E2C12D8A200955101341D00E8E72B68B9
:1017D000002BFAD1002C0AD0013CA3009B591B68B6
:1017E000002BF2D1002CF7D1EFE70025DAE7250036
:1017F000D8E710B5FFF7CEFF0124002809D0816893
:10180000002906D00448FFF7C5FF002801D0C468AE
:10181000E4B2200010BDC04637B51D10F0B500265B
:1018200085B00093150003003400029003911F78E7
:101830005A1C0192002F08D0039B002B0FDB1300D2
:10184000029A9B1A039A9A4209DA009BA34261D931
:10185000002D01D000232B55200005B0F0BD3B002A
:10186000093B042B34D9202F32D02C48390060306A
:1018700009F022F9031E05D12D2F0AD05F2F49D17F
:10188000264B9F33032E23D8300009F077FA05103A
:101890002335224B9E33F5E7002D06D0009A944263
:1018A00038D21F4A9B1A9B002B55012610E0621C60
:1018B000002D0BD0009991422CD919492C195B1A93
:1018C0002178181101431B012170AB54140002262A
:1018D000019BACE7621C002D0BD00099914219D9F5
:1018E0000F492C195B1A2178981001439B01217034
:1018F000AB5414000326EBE7002D08D0009AA24257
:1019000008D907492A195B1A11780B43137001345F
:101910000026DDE7012464429EE7C04640AF1D106B
:10192000A0AF1D10F8B50E002E21170009F0C4F865
:10193000041E0CD0451C2E21280009F0BDF80028FB
:1019400005D0001B0138386000203560F8BD162036
:101950004042FBE7F0B5040085B00F0016000029F7
:1019600001D1002013E004226F49380009F0BAF8D1
:10197000002803D10223E360381D08E005226B49EB
:10198000380009F0AFF8002803D1E060781D05B0F9
:10199000F0BD04226649380009F0A4F8002806D1F9
:1019A00001230122E3600023A261E361E4E73B78C5
:1019B000222B05D1320039002000FEF759FDE6E761
:1019C0002D2B03D01A00303A092A24D800250A22E8
:1019D00003A93800039508F069FF030003988742C4
:1019E000BFD05A1C0AD1534A914211D10122514B06
:1019F0005242A261E3610423E360C8E7002B07D1F0
:101A000080221206914203D1802300221B06F0E7B8
:101A1000A361E161EFE75B2B35D1781CFEF7FEFC9B
:101A2000037805005D2B26D00023013D0193009330
:101A3000FFF7C3FD009B071E6FD0002B19D0019B41
:101A400018604360681CFEF7E9FC320001003800B2
:101A5000FFF780FFFEF7E2FC051E06D00378019732
:101A60002C2BE5D05D2B08D030600098FEF7E2FD0E
:101A700077E70090E6E7002300931023E360009BE4
:101A8000681CA36083E77B2B4BD1781CFEF7C6FC58
:101A9000037807007D2B38D00023013F019300938A
:101AA000FFF78BFD009B051E37D0002B17D0019B45
:101AB00018604360781CFEF7B1FC3200010028007A
:101AC000FEF7D6FCFEF7AAFC0028CED02B692B62CD
:101AD00000232B6103783A2B03D03060C5E70090D8
:101AE000E8E70130FEF79AFC320001002800FFF71A
:101AF00031FFFEF793FC071EB7D0037801952C2B1E
:101B0000CED07D2B03D03060AFE70023009320239D
:101B1000E360009B781CA36039E7002B00D120E72D
:101B2000A3E737601DE7C0463FB51D1044B51D1043
:101B30004AB51D10FFFFFF7F70B50600FFF73DFDA2
:101B400000230B4D04002B6598420ED03000FEF7A9
:101B500065FC2A00010050322000FFF7FBFE051E45
:101B600003D12000FEF766FD2C00200070BDC046AA
:101B7000E495010870B504000D0086B00021142220
:101B800001A808F0D4FD29002000FFF703FE04009F
:101B9000002C18D021001C48FFF7FCFD0028F7D0CE
:101BA0000569002D0AD0194E2900300008F0C7FD44
:101BB00000280BD1310001A808F08CFF210001A8FA
:101BC000FFF7E8FD0400200006B070BD104E2900AC
:101BD000300008F0B4FD0028ECD029000D4808F0D2
:101BE000AEFD0028E6D00C4E2900300008F0A7FD1D
:101BF0000028DFD02900094808F0A1FD0028DDD128
:101C000021000748C1E7C0464FB51D1054B51D104F
:101C10005BB51D1062B51D106AB51D1072B51D10A3
:101C200078B51D1010B5034B1B7A584308F01CFD06
:101C300010BDC04680900108F0B585B002930AAB94
:101C4000070001CB0E9D01900CA80478101FC0B2B4
:101C50001B78FA2800D801BE181FC0B2FA2800D895
:101C600001BE601E012804D9FB26201F304200D08F
:101C700001BE2602F0240D982401C00303900198B0
:101C80001204002840D00298002800D101BEC020D4
:101C90008002FF2B00D101BE0240002034402143CE
:101CA0006E6A0A43002502433A65C02228001B04DD
:101CB000920213401C43019B9D4202D2174B984253
:101CC00001D105B0F0BD07227B6C1340032B0BD86C
:101CD000029B01995B5D01352343039A8D4200D23B
:101CE000002213433B65EDB200208642E3D0013071
:101CF000013EFFF797FF3000431E9841084B4042DA
:101D00001840064BC018D6E7C0203440800202407D
:101D100021436E6A0A430398C4E7C0460200B2003A
:101D2000FEFF4DFFF0B587B002930B6805000E0073
:101D300010000A79D9B224239C462B4C0C9FA44452
:101D40006346049300230393737901930323009361
:101D500003002800FFF770FF002832D13169280006
:101D6000FEF722FE00282CD1337D1A1FD2B2FA2AA8
:101D700000D801BE002F33D007216A6C0A40032A25
:101D800030D88022791E89B212030A43C0211B0475
:101D900089020B4013432B650D9B00202363F9221E
:101DA0000423A763D2006064E363A958023B0B439A
:101DB000AB50A56C67630D4BE26B032A01D09842D0
:101DC00001D107B0F0BD00208542F5D00130013DC2
:101DD000FFF728FF68426841044B40421840EAE799
:101DE0000348EEE70348ECE7E49501080200B2007F
:101DF0000400B2000100B20030B58B6987B0DB6827
:101E00000C001500002B0FD019681A7901230393D9
:101E10002378C9B20293FF23019300230495009312
:101E2000FFF70AFF07B030BD0048FBE78000B200B3
:101E3000F0B50500181FC0B28BB0FA2800D801BE5B
:101E40000724686C2040032801D9174C19E0C020F2
:101E50001B04800203408020541E000320430343E0
:101E60002B650C1E0DD0109B00245E6A0423039189
:101E7000059208940693069B042B02D10B4FBC429B
:101E800002D120000BB0F0BD002469462800FEF707
:101E9000A3FDA642EFD00120013EFFF7C3FEA642FC
:101EA000E9D13C00E7E7C0460100B2000200B20001
:101EB000F0B5D5B008900C0009921E00002900D1A1
:101EC00001BE0023190010AA1380937011AA138079
:101ED000937012AA13809370626B079222AA99548E
:101EE0000133642BFBD1099B581EC3B2012B08D9C7
:101EF000099B042B00D1CCE3082B01D100F0CFFBD0
:101F000001BE032E00D901BE072818D808F04AFFE9
:101F100008001D001700C403170017001700CB03AB
:101F20008022089B12019A18002A08D0C02033048E
:101F3000800211680340714801400B431360079B06
:101F4000002B05D16E4B069307E3089B8822E9E737
:101F5000382322AD00930195099B10AA0799089890
:101F6000FFF7E0FE0690002800D0F6E2AB79062BE2
:101F7000E8D82B78532BE5D16B78462BE2D1AB78A0
:101F8000442BDFD1EB78502BDCD12B79052BD9D921
:101F90006B790B93012BD5D1139013AB11AA2900A8
:101FA0005848FEF7B1F9069B12AA1493290014AB06
:101FB0005548FEF7A9F9554A069B904201D1E364C2
:101FC0002365FF20159310AA15AB22A90002FEF786
:101FD0009BF90690002800D0BFE2A368002B00D137
:101FE00001BEE368002B00D101BE2369002B00D1A4
:101FF00001BE6369002B00D101BEE369002B00D153
:1020000001BE236A002B00D101BEA36A002B00D1C0
:1020100001BE159B22AD009310AA099B079901955B
:102020000898FFF77FFE01220A901000297F16AB67
:10203000884017901000697F1970A97F8840E97F58
:102040001A901973692108A809181000C97F8840DF
:102050006A211D9008A80918C97F19766B210918F3
:10206000C97F23AB8A402092DA7F3D231B18DA77A1
:10207000AB7800225B079B0F032B02D0244A1F3250
:10208000D25C226023A8FEF719F9002830DB01306A
:10209000C008012211002CAB1B7860601B0999401D
:1020A00006236162E16804200B6000230B71216943
:1020B0000B7108600521A263A26A1371E36A1160C3
:1020C000002B00D101BE236B002B00D101BE0022EA
:1020D000236B08A91A71A232521810784006400FDB
:1020E00005281DD8012208F049FE15E7EDF3E7E7C2
:1020F000802303381B061843CBE7C046FFFFFCFFD5
:102100000500B20084FF000081FF00008000B200E3
:10211000C0AF1D1001225242E2631A60E36A1A60E6
:102120006022E3691F271A6000221A710F232B9A7D
:102130002C991A40013250000A0E3A4001324243B3
:10214000BE4D4800800F40002235405B0B404243AB
:1021500062640A0A17404022890400D4383A0220F7
:1021600001335B0001377B43534322AAA364A56874
:1021700093788643012E00D1B1E02021194000D18F
:10218000C7E0537A68712B6000232B71137A5B09C7
:1021900000D0BAE0013BAB601F2222AB1B7A0526C0
:1021A00013402B6102232B752368042B00D0EEE132
:1021B00031AB1B785A0601D4A14A06920120034292
:1021C0002DD09B0713D5E368002B10D019681A791E
:1021D0009C4B039024330493099BC9B20293FF23C1
:1021E0000193002308980093FFF726FD0690069BB5
:1021F0001A00934B9A4201D0002A21D1914B002220
:102200002433049301230393099B00920293FF2339
:10221000B721019308981300FFF70EFD0690069B67
:10222000002B0DD13BAB0193139B11AA009307998F
:10223000099B0898FFF776FD0690002800D1A6E0DC
:10224000012054AB1B18C93B1A78012393401B385B
:10225000A36143080C930F232B9E002033400133CE
:102260005B000A93FA239B0080279C4618AD33003D
:10227000C3401F211A090A405B0A1C390B40390070
:10228000022B06D06146032B03D01021012B00D076
:102290000F390A9B01325A434A4307302A600C35F2
:1022A0001C28E4D10C9B1038584354AB181805383F
:1022B000FF3883682364DBE00221E1631A60E36A8C
:1022C00035222CE74021E1631A60E36A052226E704
:1022D0008022E263423A1A60E36A01321FE710216A
:1022E000194033D0D37B6E712B6000232B71937B0D
:1022F0005B0927D1013BAB601F2222AB9B7B0326EE
:1023000013402B6101232B754EE7FF232873AB602D
:1023100042E7FF265B0600D446E7D37A29712B609B
:102320006971937A5B090AD1013BAB601F2222AB32
:102330009B7A042613402B6102232B7534E7AE6091
:102340002973F3E7FF232E73AB60D5E7334015D035
:10235000537B29712B606971137B5B090AD1013BA7
:10236000AB601F2222AB1B7B022613402B61012393
:102370002B7519E7FF232973AB60F2E703222A606C
:10238000043A2B716B71AA602B612B750CE7013E2F
:102390003B9B042E09D8300008F0F0FC1D191511E4
:1023A00003009B0601D5EC232B60236A3B9A042E85
:1023B00056D8300008F0E2FCDCDCDC311300DB0630
:1023C000F3D56C23F0E71B07EFD5BC23ECE75B07E5
:1023D000EBD53C23E8E79B07E7D50C23E4E7802512
:1023E00001206D0015404042002D0AD03E22002100
:1023F0001A603C3A19715A7198601A7319611A750A
:102400002EE0802111401FD034221D711A605D71B1
:1024100098601D731D61323AF1E78021012011405F
:102420004042002910D034221A60002298601A71AC
:102430005A711A731A610232E1E7C046C0AF1D102B
:102440008000B200E495010840252A4000D187E0D1
:10245000122219711A6059719860197319611975EE
:1024600016AA3BA9200006F065F8002800D0E8E68F
:10247000236D002B71D022AB0193149B12AA009301
:102480000799099B0898FFF74DFC0690002864D136
:102490000700149B3B900C93844B07900A930221F6
:1024A000079A22ABD25C0A4000D184E00A9B002B41
:1024B0004AD1692208AB6831C918D2180798079B1E
:1024C000105CCB5CB84200D0C6E05A1CD2B2E264C9
:1024D000012A3FD90025226D9B000992079A079F88
:1024E00004329B180C9308956822089B04375B19EB
:1024F000089308AB9B18D95D0F23194000230B9A52
:102500000A4200D1B3E0682108AA5218D2590999A9
:10251000150A0D92079A0135BA1A043A8E58089A8C
:102520002D0232600C22534316AAD3181A78596828
:10253000B2609A6832618D4200D3A2E00123F56057
:1025400073600C9B9F42CFD10A9B1A00574B9A4253
:1025500000D09CE00023E3642365069855B0F0BDED
:1025600002211A7119605A7198601A731A6146E74C
:1025700040210A404139002A06D012221A60002266
:102580001A715A719960F0E702201860F8E7022288
:10259000236A01211A60002249421A715A71996016
:1025A0001A731A611A7522A916AA200005F0C2FF33
:1025B0000A9B069359E707995B18D87859780D90CC
:1025C0001F208C469B7808A9401802709B090320A5
:1025D000012B05D0181E03D00420022B00D0206848
:1025E0000022079D3BAB2E1890422ED10022304D89
:1025F0000999243502910090049503920192614655
:102600000898FFF719FB0A90002814D11F2608AB81
:10261000F61800950300012231000898FFF708FC26
:102620000A90002807D17F00FBB20D9A3778174037
:102630007A1E97411F43079B08330793079A0C9B09
:10264000934200D32BE71B4B7DE4B51A22A94D1909
:10265000ED789D540132C7E7079802339B00C318F9
:10266000079307980C9B834200D327E7EBE70133DE
:102670005200DBB2D2B2052B00D041E70D4A0A92DC
:1026800041E7F160280008F097FB706059E70A9B6A
:1026900059E4032E00D936E4089B902242E4032E2D
:1026A00001D9FFF730FC089B98223BE40600B200FA
:1026B000E49501080700B200F0B58DB009932D4BE9
:1026C00007900891150096089E424DD8002E00D123
:1026D00001362C00B54200D93400A54246D92D1B45
:1026E000254B20009C4200D91800844240D9241A6E
:1026F00080B2FFF797FA002CF2D11F2704ABFF1826
:1027000001233B70089B9B6906939B6A002B26D094
:102710001968099B03940493089BC9B21B78220093
:102720000293FF230094019307982300FFF784FA94
:1027300000280ED1099B012200933900230007983D
:10274000FFF776FB002804D1069B9A6B3B78134079
:102750003B701F2304AA9B181878002802D0002D74
:10276000B7D106480DB0F0BD1E00B2E70025B7E7AF
:102770000024BDE740420F00FFFF00000200B2004E
:1027800070B588B006ADE870002029712880A87067
:10279000FEF710FD104C06002434010022000F4803
:1027A000FFF72AFB002815D1012304940393337803
:1027B0000200029305230190009371212B0007482A
:1027C000FFF73AFA002805D12300054A31000348F3
:1027D000FFF772FF08B070BDE495010800004240A9
:1027E00020A10700F0B500248BB009AEF0702000E6
:1027F00007913480B470FEF7DDFC124F0394243748
:1028000004970378104D029304230194009322004F
:10281000330065212800FFF70FFAA0420DD10722EF
:102820006B6C1340032B0AD8084B063A2B650799AB
:10283000030000972800FFF7FBFA0BB0F0BD044837
:10284000FBE7C046E49501080000424007000C0089
:102850000100B20070B5802504002D02064BAC4289
:1028600004D8D868604307F0FFFE70BD186907F010
:10287000FBFE024BE418F1E7809001080080FFFFA7
:102880000A23F0B591B00993D34C03212200D34819
:102890002C32FEF721FB11220321D048FEF7F4FA77
:1028A000220004216032CD48FEF716FB11220421DC
:1028B000CA48FEF7E9FACA4C05212200C74814327B
:1028C000FEF70AFB11220521C448FEF7DDFA2200BB
:1028D00006214832C148FEF7FFFA11220621BF48FF
:1028E000FEF7D2FA220007217C32BC48FEF7F4FA48
:1028F00011220721B948FEF7C7FABA4D2B684033B9
:102900001B78022B12D9E2230F20B74A9B00D15823
:102910008143D150D1582130814308002021014307
:10292000D1508021D05809060143D150FA23F92211
:102930000321AE4E9B00AB64D200B35800278B43FB
:10294000B3508823AA4C5B0233606761FEF744FCF6
:10295000230020332B62636A0A93BB4210D1FEF737
:1029600031FC0122A24B5242A24C5A61FA20400093
:10297000FFF770FF099B013B0993002B84D183E192
:10298000236A0B93002BEAD007970897089B0A9AB3
:102990009B00D558002D00D1E8E02B785A1E012A63
:1029A00004D9FB22043B134200D001BE2B7A032B37
:1029B00000D901BEAB69002B00D101BE2A78501EA0
:1029C000072800D975E108F0EDF90800000174014D
:1029D00002017401740174010401874CC0272B7A31
:1029E000BF02190420683940844F38400143042055
:1029F0002160696808400BD0A9697C48FFF758FA44
:102A0000002805D00823089A9340079A1A43079292
:102A1000AB691B68013B032B00D901BE002800D025
:102A2000A4E06B689B0700D4A0E02969E86808F07F
:102A300049FA002900D001BE2B69714A934202D99C
:102A40005A1E134200D001BEFF218C466746E9683A
:102A5000A869B9438268036AA16029694942B943F8
:102A6000E16001680320013901406869471EB841EF
:102A7000000201432162002A35D010680021471C62
:102A80000AD0C0271179BF020904394067460740C0
:102A90008020000607433943C02721645179BF02D3
:102AA00009049068394061640021471C09D0C0279F
:102AB000117BBF02090439408027C0B23F0638436A
:102AC00001430020A1641169814205D01F30013902
:102AD0000140802000060843C021E064127D890285
:102AE00012040A402265002B32D019680022481CCB
:102AF00009D0C0201A798002120402408020C9B295
:102B0000000601430A43C02022665A79800212045B
:102B100099680240626600224F1C07D01A7BC9B236
:102B2000120402408020000601430A430021A266ED
:102B30001A698A4205D01F31013A0A4080210906EC
:102B40001143C022E1661B7D92021B0413402367E0
:102B5000C02202212B7A92021B0413406A68FF31C3
:102B60001140802212060A4313432360089B01335D
:102B70000893089A0B9B934200D007E7079B002B12
:102B800000D09AE00798FEF715FB164D9F212B0009
:102B900024330493079B0393037814480293079B01
:102BA000019300931A00FFF747F8041E00D088E055
:102BB0000721726C0A40032A2CD9FEF703FB01227D
:102BC0000B4B52425A610F4CD0E60F4C06E70F4CAC
:102BD00004E70F4C02E7C046C0AF1D10800531402E
:102BE00040B01D10E495010800002640000042405E
:102BF000809001080400B20000084240FFFFFCFF83
:102C0000FFFF00000100B20080084240000942407E
:102C1000800942404F4B3365736C0B40032BCCD87B
:102C20004D4B0EAF336506232F636B63AB63079B7E
:102C3000F9226B640423D200EB63B158023B0B43CF
:102C4000B350464EEB6B032B02D0013E002E0AD14F
:102C5000EB6B032B0BD0FEF7B5FA0122404B52422F
:102C60005A61404C82E60120FEF7DCFFEAE73B7840
:102C7000342B07D17B782A3B012B03D8BB78193B37
:102C8000022B27D9FEF79EFA200011B0F0BD802359
:102C9000032019432970FFF773FD041E11D142E090
:102CA000194304202970FFF76BFD002845D004006C
:102CB00007E0079B002B00D151E6B224079B2404B8
:102CC0001C43FEF77FFA002CDED00122244B524237
:102CD0005A614BE6FB780F2BD4D13E79032ED1D12C
:102CE0007B79902BCED10020FEF764FA01230022DD
:102CF0002435049503930378B7210293019200923F
:102D000013001948FEF798FF041EDAD11F2506AB01
:102D1000ED1829003000FFF765FD041ED1D1297898
:102D20004BB2002BB3DA29000420FFF75BFD041E31
:102D3000C7D108212B780B42B2D00020FEF73AFA17
:102D40008022D8218369D2029A615A691160074AA8
:102D50001A64B6E73F000C0005000800E903000014
:102D6000809001080200B20000004240701700008D
:102D7000FEE7FDE7FCE7FBE7FAE7F9E7F8E7F7E747
:102D8000F6E77047F0B5D5B006910100CD48FEF7E3
:102D900001FD002801D100F001FC83680293039338
:102DA00000231F0005930193039B002B00D098E0A4
:102DB000029BDB680193202B00D0F0E3029C2100F2
:102DC000C148FEF7E7FC051E00D176E1037E069AB6
:102DD0009A4200D071E10100BC48FEF7DBFCBC4C1C
:102DE000002800D163E18269BA4B3C925B6B3CA93D
:102DF00053403EAE082220A83D9307F09AFD0822DA
:102E000020A9300007F095FD230006CE06C3290057
:102E1000B148FEF7BFFC1423002800D08369E360AB
:102E20002900AE48FEF7B6FC0123002802D0C36893
:102E30005A1E934123742900A948FEF7ABFC0028D1
:102E400000D137E183692600636100233536337092
:102E50002900A448FEF79EFC002807D00169A2487B
:102E600007F06DFC002801D10123337023003533B6
:102E70001B7895342370029E002F00D08FE3310021
:102E80009148FEF787FC002800D141E18369904C0E
:102E90001CADDFB222002B0003CA03C308222900A5
:102EA0001EA807F046FD8B4B1E9A1F995B6B4B408B
:102EB0009A4201D0FFF75CFF2B689F4200D027E1C8
:102EC00031008A48FEF766FC002800D119E2602331
:102ED0008269571E7B43E418022334342270039323
:102EE0001DE103998248FEF755FC002802D0866850
:102EF000002E03D1039B1B68039355E731007D48E7
:102F0000FEF748FC002800D1AEE0002503697A4CAA
:102F100004933034AB001959049807F010FC0028D2
:102F200000D13FE30135042DF4D10024724F403726
:102F30000797079AA3009958049807F000FC071E0A
:102F400005D00134172CF4D10527183C7F423100FD
:102F50006A48FEF71FFC002801D083690593310001
:102F60006748FEF717FC002813D000218369C26967
:102F70000191019901310191002A01D1AB4205D99A
:102F800001996D001D29F4D11F230193631C05D104
:102F90006AE0631C68D0019B002B65D04C4B22017A
:102FA0009B18B62246AD92009B182A0003CB03C2A1
:102FB0000822290048A807F0BCFC464B489A4999CA
:102FC0005B6B4B409A4201D0FFF7D2FE2B68012B7E
:102FD00018D1059B059A4E933E4B4EA95B6B4CADA9
:102FE000534044A808224F9307F0A3FC082244A9A9
:102FF000280007F09EFC2200354B0D3212019B1871
:1030000006CD06C32200324B2E3240AD12019B1872
:103010002A0003CB03C20822290042A807F089FC3A
:103020002C4B429A43995B6B4B409A4201D0FFF77D
:103030009FFE2B68012B17D1019B019A5293254BC0
:1030400052A95B6B50AD53404AA80822539307F036
:1030500070FC082228004AA907F06BFC1C4B2401D5
:103060001C19D8340CCD0CC4366841E725490498A6
:1030700007F065FB0028F7D131002048FEF78AFBF6
:10308000002807D0124B204A9A5C012A02D182699B
:10309000C8331A6031001A48FEF77CFB0028E3D0E1
:1030A0000B4B1A4A9A5C012ADED1CC339EE20127EF
:1030B0007F42ACE6FA231B01C5E62468002C00D051
:1030C0007DE6D8E604B51D101EB61D109DB51D1079
:1030D000B0D8020880900108A4B51D10ACB51D1031
:1030E000B7B51D10C3B51D10D0B51D10D5B51D1039
:1030F0007EB51D104FB51D10C0B01D1088B51D1038
:1031000090B51D1095B51D10CA020000CB0200003D
:103110003668002E00D0B2E6012337000393002E5C
:1031200000D0F2E03100CD48FEF734FB01900028DA
:1031300000D05CE13100CA48FEF72CFBC94C0028E6
:103140000FD0442392227B439200E3189B181B78F4
:10315000012B06D1C2685F33511E8A417B43E318BD
:103160001A723100C048FEF715FB0190002839D0D3
:1031700044237B43E418932312AD9B00E4182B00F7
:1031800014A806CC06C30822290007F0D2FBB74CCE
:10319000149A1599636B4B409A4201D0FFF7E8FDF2
:1031A0002B68012B1ED1019B34A9DB6810A85A1E85
:1031B0009341AF4A5B421340AE4A9B183493626B13
:1031C00036AC53400822359307F0B3FB082210A910
:1031D000200007F0AEFB60227A43A24B9B18183305
:1031E00006CC06C33100A448FEF7D4FA01900028AB
:1031F00033D044237B439B4A0CACD31895229200D6
:103200009B18220003CB03C2082221000EA807F05E
:1032100090FB964D0E9A0F996B6B4B409A4201D0E2
:10322000FFF7A6FD2368012B17D1019B30A99B69ED
:1032300032AC30936A6B0AA853400822319307F0EE
:1032400078FB08220AA9200007F073FB60237B4368
:10325000844AD318243306CC06C331008748FEF7CE
:1032600099FA002800D11BE1C368102B00D017E1A8
:10327000002385680193002D00D111E14422019BB8
:103280007A430533DB009A18764B22AC9B189022C8
:1032900092009B18220003CB03C20822210024A81D
:1032A00007F047FB714B249A25995B6B4B409A4280
:1032B00001D0FFF75DFD2368012B1AD1AB696B4A82
:1032C0002C93526B2CA953402EAC082226A82D9388
:1032D00007F02FFB082226A9200007F02AFB0C2369
:1032E0007B43019A9B1809335E4ADB00D31806CC56
:1032F00006C3019B01330193032B00D1D0E02D685D
:10330000B9E701230700039309E731005C48FEF7A2
:1033100041FA002800D105E78468002C00D101E7BC
:1033200021005848FEF736FA00282FD00569564983
:10333000280007F004FA00282AD121005348FEF79C
:1033400029FA00280ED0442399217B43454A89005D
:10335000D3185B181B78012B04D15F337B43D21841
:103360008369936321004A48FEF714FA00280DD0C0
:1033700044237B433B4A4749D3185B181B78012BF6
:1033800004D15F337B43D2188369D3632468C4E7D5
:103390004149280007F0D3F90028F7D121003B4824
:1033A000FEF7F8F900280DD044237B432D4A3B4912
:1033B000D3185B181B78012B04D15F337B43D218E1
:1033C0008369136421003248FEF7E4F90028DDD058
:1033D00044237B43234A3149D3185B181B78012BC4
:1033E000D4D15F337B43D21883695364CEE744233F
:1033F0007B431C4A18ACD318972292009B182200DA
:1034000003CB03C2082221001AA807F092FA174D35
:103410001A9A1B996B6B4B409A4201D0FFF7A8FC9C
:103420002368012B00D085E6019B38A99B693AAC43
:1034300038936A6B16A853400822399307F079FA3B
:10344000082216A9200007F074FA60237B43054A7E
:10345000D3182C3306CC06C36CE6C046E1B51D106C
:1034600062B61D10B0D80208F8B51D108090010892
:10347000555555055555551500B61D100FB61D105F
:103480007EB51D104FB51D10EBB51D1088B51D1074
:1034900090B51D1065020000F0B51D106602000019
:1034A00031005448FEF776F960237B43524CE31811
:1034B000002866D082695A7231005048FEF76AF9D6
:1034C00060237B43E31801330122002804D0C16943
:1034D00082690A43511E8A41DA77002F1CD13100DC
:1034E0004748FEF757F91423002800D08369E366A4
:1034F00031004448FEF74EF9002844D0C3685A1EF4
:10350000934122007032137031003F48FEF742F9B8
:1035100000283CD083696367039B022B3ED1029B4A
:10352000029EDB680193202B29D131003748FEF73A
:1035300031F900282ED08269D3B2022B2AD1571E2E
:1035400060227A43A41822003432137031003048CC
:10355000FEF720F9002812D082692E4B28925B6B6F
:1035600028A953402AAD082208A8299307F0E1F9B9
:103570000822280008A907F0DCF90CCD0CC40123AF
:10358000ADE4587298E7230070331870BCE7FA2353
:103590001B01C0E73668002EC7D1F0E700273800CE
:1035A00055B0F0BD1C49049807F0C9F8002800D0B8
:1035B0005CE531001948FEF7EDF8002808D0B2228A
:1035C0000D4B92009A5C012A02D18269C0331A60C5
:1035D00031001348FEF7DEF8002800D144E5064B21
:1035E000104A9A5CC433012A00D03DE582691A6012
:1035F0003AE5C04619B61D10B0D8020821B61D1014
:10360000A4B51D10ACB51D10B7B51D10D5B51D1056
:103610001EB61D10809001082CB61D1088B51D1017
:1036200090B51D10C9020000F0B58BB001900D00DF
:1036300016000C00002A01D0541E641806A90A00C6
:103640002D4BD03381CB81C2082208A807F071F935
:103650002A4B089A09995B6B4B409A4201D0FFF7BD
:1036600087FB02AB9C466246234B069FD83303CBB5
:1036700003C20822614604A807F05BF91F4B049AB5
:1036800005995B6B4B409A4201D0FFF771FB012318
:10369000029A01329340DB19BD4225D39D429241EB
:1036A000A74203D8A34201D901225242BD4201D808
:1036B000A74216D39D4201D2A34212D3002A10D1B1
:1036C00001992800FDF7E1FE002806D1002E04D064
:1036D000701E40190199FDF7D8FE0BB0F0BD002215
:1036E000E6E701204042F8E7A742F8D80022A342CB
:1036F000DCD901225242DBE7B0D8020880900108F1
:1037000030B5154C8BB006A923000A00383321CB05
:1037100021C2082208A807F00CF9089A099B616BDE
:103720004B409A4201D0FFF723FB6D46069B04A94C
:10373000013B0493626B02A853400822059307F0F3
:10374000F8F8082202A9280007F0F3F838340CCD65
:103750000CC40BB030BDC04680900108F0B5514B91
:10376000514D89B00290059506A8403350CB50C00A
:103770000C0012018B180393A678E068A1882278C8
:103780006378B446002800D101BE032A00D901BEE7
:10379000032B00D901BE454E376830373F781F2FC5
:1037A00000D876E0674610300097FDF744FA0590A0
:1037B000059B002B5CD1E0680595A188002800D10D
:1037C00001BE336830331B781F2B64D97F235940E7
:1037D00000230093013310301A00FDF72CFA0590F6
:1037E000059B002B44D16389E0689C460595A2792E
:1037F000E379277A002800D101BE160002218E430A
:10380000012E00D001BE1E0002218E43012E00D0E9
:1038100001BE264E3668303636781F2E3DD96146B9
:103820003030C9B20097FDF706FA0590059B002BD2
:103830001ED1E06805956189002800D101BE1B4BAF
:103840001B6830331B781F2B29D97F235940002355
:1038500000930133C9B230301A00FDF7ECF905903E
:10386000059B002B04D1039B1034A34200D083E7B7
:10387000059B06AC002B04D122000A4B483303CB36
:1038800003C2FFF73DFF029B06CC06C3029809B0B6
:10389000F0BD07488BE70648A1E70548C5E704489F
:1038A000DDE7C046809001080300C200E4950108EE
:1038B0000200C200F0B58BB003AD944607002800AB
:1038C0000C00624E62490093029640310CC90CC054
:1038D000634607936B461B7807A90B716378A06852
:1038E0004B71A3788B71E378CB7123790B72637979
:1038F0004B72E38800964B81002800D101BE4B89B2
:10390000DB0B00D001BE8B79072B00D901BECB7930
:10391000072B00D901BE0B79073B182B00D901BE3C
:103920004B897F221E009643321E00D087E0079EFF
:10393000FF32964332004E795B02164301968A7934
:103940009446072266463240382613434A7A920745
:103950001343CA79D200324013430A7A94460122B3
:103960006646724092011A430B79F8211B064905FD
:103970000B401343019A436002600268019991422F
:103980005FD1426833490A409B1A5A425341324A36
:103990005B4213402D4A9B180293029B002B0DD1D2
:1039A000009A07A90292227BA0688A71627BCA7181
:1039B000E2894B724A81FDF781F90290029B002B4C
:1039C00011D1009B0293A368002B00D101BE80227D
:1039D000596812060A435A605B681F4ADB17134096
:1039E0001A4A9B180293029B002B11D1009B029351
:1039F000A368002B00D101BE8022596A12060A4337
:103A00005A625B6A144ADB171340104A9B180293F0
:103A1000029B002B0BD102990D4B05AA002912D055
:103A20004033110011CB11C12B0003CA03C3FFF7B0
:103A300067FE3B00380006CD06C30BB0F0BD074B58
:103A4000AAE7024BA8E74833EBE7C0460300C200F1
:103A500080900108FFFEFFFFFDFF3DFF0100C20057
:103A600073B56C4622000C4B0500403341CB41C27C
:103A70000800FDF7FEFC012807D8602343430748F0
:103A8000C0182300183006C806C3FFF739FE2B0004
:103A9000280006CC06C376BD80900108B0D8020885
:103AA00073B56C4622000B4B0500403341CB41C23D
:103AB000012907D860234B430749C91823002C313B
:103AC00005C905C3FFF71CFE2B00280006CC06C362
:103AD00076BDC04680900108B0D8020870B58AB0A3
:103AE0006B460090596006A90A0011CB11C208224A
:103AF00008A806F01EFF114D089A099B696B4B4000
:103B00009A4201D0FFF734F902A92B000A0038339A
:103B1000069C41CB41C2082204A806F00AFF049A81
:103B2000059B696B4B409A4201D0FFF721F9029B3C
:103B3000A34201D0FFF71CF90AB070BD80900108C4
:103B4000F0B58DB06D46194C2A00230038330700BC
:103B500003CB03C20822290008A806F0EAFE0822C7
:103B600008A90AA806F0E5FE0A9A0B9B616B4B4078
:103B70009A4201D0FFF7FCF8089B06A9013306938F
:103B8000626B02AE534004A808220793383406F053
:103B9000D0FE082204A9300006F0CBFE0CCE0CC4E7
:103BA0003B00380006CD06C30DB0F0BD8090010883
:103BB000F0B5A5B004AC04906160029203932AAB07
:103BC0001B782B9A0193644B02AF9A4200D0C1E05C
:103BD000624B634D12936A6B12A9534010A80822DE
:103BE00013930AAE06F0A5FE082210A906A806F057
:103BF000A0FE330008A806CF06C3082206A906F0D7
:103C000098FE082231000CA806F093FE0C9A0D9B3A
:103C1000696B4B409A4201D0FFF7AAF8082208A925
:103C20000EA806F086FE0E9A0F9B696B4B409A42D7
:103C300001D0FFF79DF80A9A089B9A4209D1726851
:103C4000099B9A4205D1474B1B68002B01DA04F00F
:103C500043FC019B002B0BD004F05AFC04F04AFCFF
:103C6000C022C0234049520088581B0603438B5092
:103C700020A90B00220041CA41C3082222A806F055
:103C800058FE229A23996B6B4B409A4201D0FFF762
:103C90006FF889232099354A5B01D1501CA90B008C
:103CA000220041CA41C308221EA806F042FE1E9A05
:103CB0001F996B6B4B409A4201D0FFF759F81C9A41
:103CC0002B4B18A99A600B00220041CA41C308225D
:103CD0001AA806F02EFE1A9A1B996B6B4B409A425B
:103CE00001D0FFF745F8189B14A91E680B0005CCFE
:103CF00005C3082216A806F01CFE169A17996B6BCE
:103D00004B409A4201D0FFF733F81A481A49149BE6
:103D1000091A5C68FCF7F0FC184D19492800491B8A
:103D2000FCF7EAFC174BDC661E6785F3088816482B
:103D30001649091AFCF7E0FC86F30888144815496F
:103D4000091AFCF7D9FCFDF747FC002004F0C8FC79
:103D5000A047FEE7FEE7C046186EA9719B71CA270F
:103D6000809001080001264000002640000020400D
:103D700000ED00E0809001086093010800E0000879
:103D800000E40008E495010800B00E0800C00E0829
:103D9000C89501083CDE0608F0B58DB002A90A00FE
:103DA0002F4B543311CB11C2082204A806F0C1FDD9
:103DB0002C4E049A059B716B4B409A4201D0FEF742
:103DC000D7FF6A46029B284CDBB2D370D71C27482A
:103DD000274AE368121A0021019306F0A8FC25483F
:103DE000254A0021121A06F0A2FC244D244A002183
:103DF000521B280006F09BFC3B7806A9DBB2069319
:103E0000726B08A853400AAE0822079306F091FD92
:103E1000082208A9300006F08CFD114B543306CE61
:103E200006C3019BE36085F30888164D1648002100
:103E30002A1A06F07CFC85F30888012004F050FC67
:103E4000FDF7CAFBE06804F0F5FB104804F0BAFB8C
:103E50000F4B1B68002B01DA04F03EFB07F068F8FB
:103E6000E495010880900108B0D80208809001080C
:103E700060930108C89501083CDE060800E00008D0
:103E800000E4000800C00E0800B00E080040001654
:103E90000001264010B5002801D1FFF77DFF10BDBD
:103EA000F0B58568060000200F0095B095424041AE
:103EB0000792FFF7EFFFAF4280414042FFF7EAFF72
:103EC0007468079B2D19D819A8428041E419404213
:103ED000FFF7E0FF079A21003000FFF7A5FB00285D
:103EE00003D00120404215B0F0BD73787F2B17D16D
:103EF000079B650A1F197F0A6D027F02BD4203D12D
:103F00002800FDF7DFFBEEE701207F1B7F0A404220
:103F1000002FE8D0013F78024019FDF7D3FBF7E707
:103F20005BB2002BDDDA079B002BDAD0FDF742F9FC
:103F3000836905009F69E8231B067F42E4183C4023
:103F40000A940026AB690A9A0C939B69119609930F
:103F5000013B9B1808930C9B12965B680693069A8C
:103F6000089B934213D36C4CAB69079A9B699A42A6
:103F700000D91A0007998A1A07920A9AD3180A9345
:103F8000079B002B00D1BAE0002CDAD0A9E70C9BEC
:103F90000A9A1B6C12A928000D93FCF7DBFC041E87
:103FA00000D0B0E0129BDA681E685F68099B069239
:103FB0009342D8D35743731EFF180A9B0699981B48
:103FC00006F080FF0029CED1089BBB420AD21A001E
:103FD00012A92800FCF7BEFC041E2DD1129B1E68FE
:103FE000DB680693089B0699581C801B06F06AFF45
:103FF0000A9B0B930029B6D1099B002BB4D00B9AD6
:1040000012A92800FCF7A6FC089F041E0ED1129BE3
:104010001A695F680D92DA6806921A68069B013A7F
:104020005F43089BD7199F4200D91F00FA230D9ABE
:104030009B0053430E933AE0374B984293D0D1E71D
:10404000120211001A5C013311430A004AE032796E
:10405000FF2A50D0304B98424DD000284DD1139BB1
:10406000996801232D4E0393243604962B780192F0
:1040700002932368C9B20093294811ABFDF7DCFD18
:10408000041EB9D133000E9A29002548FEF714FB0F
:10409000099B069A0400934200D865E794460B9B5F
:1040A00063440B93099B9B1A09930028A4D10B9B93
:1040B000BB42A1D2194A290024321948FDF79CFEBF
:1040C000041E99D10C9B0B9A1B6811A9013B5A54F1
:1040D000120A002BFAD1AC691393226866690F9219
:1040E0001A0011A80F999942AAD113A92800FCF728
:1040F00031FC002EABD10B4C7EE73168B1E7601E7E
:1041000084416042EFE6044B984200D12BE7099BC3
:104110003700069351E7C0460400B200E495010859
:10412000000042408000B2000023F0B585B00500D9
:1041300003A907200393FDF7CCF8012400282DD113
:104140002E78032E0FD09823164A5B00D75C3800D8
:10415000FDF7E3F801903800FDF7D6F8019B9E4289
:1041600001D086421AD13000FDF7F5F9A0220100F6
:1041700052010398FFF794FE040060426041FFF78C
:1041800089FE2B78032B06D0A968602260392800AD
:10419000FFF786FE04000398FDF792F8200005B0B3
:1041A000F0BDC046F8DC0608F0B546680500B1422F
:1041B00080410C001F009BB040420992FFF76AFE4D
:1041C000E019B042804134194042FFF763FE3A00E3
:1041D00021002800FFF728FA061E00D0DDE06878ED
:1041E0007F283ED1F80543425841FFF753FEE005D2
:1041F00043425841FFF74EFE780A4002031901205E
:10420000250007934042079B9D4201D11BB0F0BDA2
:10421000EF05FF0D23D1099B1E1B7619002E1ED022
:10422000FCF7CAFA714B724A1A615F619D61DE61E7
:104230001B685233187800280BD0FCF76DFBFA216D
:10424000890006F0B9FD01006A4806F0B5FD6A4B29
:10425000C01806F05DFE80239B00ED18D3E7674889
:10426000F9E743B2002B00DB97E07F231840FCF70F
:10427000A1FFE8231B06E318051E08930F9600D143
:1042800001BEAA69089B5168FB188B4200D984E0E3
:10429000536A166A0A93554B24330C930A9908986B
:1042A00006F010FE0A9ACB1907979A4201D8531AC2
:1042B00007930C9A29005248FDF79EFD00286CD107
:1042C000AB69089A18680FAB0400013CE254120A6B
:1042D000002CFAD132790D9232680394D1B2434A5C
:1042E000243204920B922A78029272790090019201
:1042F00043480D9AFDF7A0FC00284ED1B1684B1C35
:104300003BD13169002904D03D48FCF74DFB002822
:1043100043D1337D1A1FD2B2FA2A41D9079A002A13
:104320003BD007213648426C0A40032A35D8C022C8
:104330001B04920213408022D2021343079A013ACF
:1043400092B213430365099B002B2BD1274BAA691B
:104350002433926C29002A48FEF7AEF900281CD1BC
:10436000079A099B944663440993089BBF1A6344C8
:104370000893002F92D1380048E70B9B327B0493BF
:1043800003942B78C9B20293FF23009401931C4835
:104390002300FDF751FC0028B3D00120404235E74F
:1043A00001BEBBE7114B02229C6C099B1093079B3B
:1043B0001293002317931692169A022A13D1114AC8
:1043C0009342EAD010A90E48FCF7B4FB00239C42AC
:1043D000F2D00120013CFDF725FC63426341094A0C
:1043E0005B421340E8E7002BB0D0D6E7E495010824
:1043F00000010005C0EA2101482600000600520025
:10440000000042400200B200F0B547680600B94221
:1044100080410C001D008DB040420692FFF73AFD2E
:104420006019B84280413F194042FFF733FD2A002E
:1044300039003000FFF7F8F8041E00D07DE07078F6
:104440007F2807D12A003900069806F072FA20006A
:104450000DB0F0BD43B2002B6FDA7F231840FCF79C
:10446000A9FEE8231B06FB18061E07930B9400D138
:1044700001BE069B002B00D101BEB269079B5168AB
:10448000EB188B4259D897682D48002D03D1441E54
:10449000A0414042DCE7B369079A18680BAB0400FF
:1044A000013CE254120A002CFAD13A7909923A6896
:1044B0000394D1B2234A24320492089232780292B1
:1044C0007A79009001922048099AFDF7B5FB0028FF
:1044D00033D1B9684B1C20D13969002904D01A485E
:1044E000FCF762FA002828D180232C005B029D4251
:1044F00000D91C00134A3B7D243200920699220009
:104500001148FDF795FC002817D1079B2D1B1B199F
:104510000793069B1B190693B7E7089B3A7B049306
:1045200003943378C9B20293FF23009401930648A1
:104530002300FDF781FB0028CED00120A9E7C0466B
:104540000400B200E495010800004240F0B598274D
:10455000050087B0284C03917F002900E05DFCF73F
:1045600069FF04A9C0B2FCF7B4FE002806D00126FA
:104570000498FCF7A5FE300007B0F0BD2C226A437A
:10458000E35D029258225343029905ADCB18E3181C
:104590001A89DB680498D31801932A00042301992F
:1045A000FFF732FF061EE2D15822E35D5343029A21
:1045B000D318E4182A88114B64899A4218D16B8861
:1045C000A34201D00326D3E7019B2A0019190498BE
:1045D0000423FFF719FF0028C9D1094B2A889A4202
:1045E000F0D16B881C19019BE418039B1C60BFE78A
:1045F000002CF2D0E6E7C046F8DC060808690000A7
:1046000007690000F0B51E00036885B00400009142
:104610000192002B02D04368002B1CD101204042A4
:1046200037E06A882189171DBC461B4FB94202D06A
:104630002D888D420DD1002E02D003A9098831802A
:10464000009904330B60019B1A8023696344236142
:104650001FE063442361226963699A4218D2236888
:104660005B89002B04D0E368934201D104332361BA
:1046700003AD04232A0021696068FFF7C5FE002806
:10468000CCD1A27A2369002ACBD0E2689A42C8D85A
:10469000012005B0F0BDC046FFFF0000F0B587B0B7
:1046A00002930CAB1B7804000D0000920393002AC8
:1046B00005D101235B420193019807B0F0BDCB689F
:1046C0000F8905AEFF183200042339000098FFF768
:1046D0009BFE01900028ECD1144A31886B899142ED
:1046E00021D171889942E4D1C9190423320000987C
:1046F000FFF78AFE0028DCD105AA0D4B11889942EC
:10470000D7D1009B256063606B461B8923816B4674
:104710001B7BA3726B89DB19E3605288D31863613A
:104720003B1D2361C8E7002BE6D0C2E70869000003
:1047300007690000F0B5854C854DA54405930FAF82
:104740002B0016003A0003900691403303CB03C2BE
:1047500011AC2B002200403303CB03C22DA8FFF77E
:10476000EFF92B002200403303CB03C2310008A82D
:10477000FFF776F9230008AA03CA03C32D982E99E0
:10478000FFF7ACF925AB1A0003CC03C223AC2A0017
:1047900021009C46403209CA09C129AB1900634671
:1047A00005CB05C129992A9B6A6B5340994201D0D8
:1047B000FEF7DEFA27AB1A0003CC03C2279A289B28
:1047C000696B4B409A4201D0FEF7D2FA259A239B9F
:1047D0009A4206D1269A249B9A4202D1012464422D
:1047E0001EE23000FCF737FE041E00DA18E2182340
:1047F0004343039A04909B5C002B00D017E2009384
:1048000032003233069937A8FFF748FF031EE5D17F
:10481000122506AAAD182A000CA937A8FFF7F2FE48
:10482000002800D005E22B88902BD7D94CAA0C99F0
:104830003000FFF7E9FD0028D0D12BA8FFF780F961
:10484000434D3A002B00403303CB03C22B002FAA69
:10485000403303CB03C23000FCF70BFE012807D81E
:10486000602343433B48C01824302FAB06C806C31F
:10487000FEF746FF3A002FAB03CB03C22B982C99CF
:10488000FFF72CF91FAB1A00390041C941C221AA18
:10489000110041CB41C12199229B6A6B534099423F
:1048A00001D0FEF765FA1F9B1BAB1A00390041C906
:1048B00041C21DAA110041CB41C11D991E9B6A6BCB
:1048C0005340994201D0FEF753FA1B9B002B00DCAA
:1048D00084E717AB1A00390041C941C219AA110077
:1048E00041CB41C119991A9B6A6B5340994201D03F
:1048F000FEF73EFA179EFBF77DFD864200DD6DE771
:1049000013AB1A0003CF03C215AA110041CB41C15A
:104910001599169B6A6B5340994201D0FEF728FA0D
:1049200012230D4906AA9B183C31102233A843AE2E
:104930001D88139F05F0FDFF3000FCF7F5FD5023A7
:104940000D93012C0ADD872449E7C046A4FDFFFF33
:1049500080900108B0D8020840B11D10912DF2D10D
:10496000B54B71AD71973DA80BAF3D933E956F6010
:10497000FBF70CFD041E00D052E13B88AF4A3DA876
:104980003D923E95719303966E60FBF7FFFC041E0B
:1049900000D045E18C2206AB52009B181B78042BFB
:1049A000D1D1CF22039B12021B8813408222D20155
:1049B0009342C8D1039B0E905B880EAE0693A04B2A
:1049C0003DA83D939F4B3E952E606B60FBF7DEFC50
:1049D000041E00D024E18A229B4BFF323D939B4B67
:1049E0003DA86B6006ABD21820233E952E60AA60CE
:1049F000EB60FBF7CBFC041E00D011E1924B3DA80D
:104A00003D93934B3E956B6033ABAB6010232E60B0
:104A1000EB60FBF7BBFC041E00D001E18D4A3B8834
:104A20003D920222AB604CABEB60069BFF3207333A
:104A3000DB085B0001333DA83E952E606A602B6168
:104A4000FBF7A4FC041E00D0EAE0834B3DAF31939A
:104A500071AB7B600D9B31A832973D96BB60FBF735
:104A600095FC041E00D0DBE043AE0E903000FCF756
:104A70005BFD80231B014693784B06AA479388234E
:104A80005B013380764B31A8319316239B183D93FD
:104A9000039B32977B6075ABBB602023FB60FBF709
:104AA00075FC041E00D0BBE006ABDB8A6D4A7B6060
:104AB0006A4B0EAD31A8319232973D60BB60FBF777
:104AC00065FC041E00D0ABE0674B06AA31937A2345
:104AD000FF339B187B60102331A832973D60BB6089
:104AE000FBF754FC041E00D09AE05A225F4BFF32C1
:104AF000319306ABD2187A60202231A832973D60FC
:104B0000BA60FBF743FC041E00D089E006AAD38AF2
:104B1000574D31A8319532973B60FBF737FC07952D
:104B2000041E00D07CE03000FCF7FEFC514D8023D9
:104B30002E00514A9B004792494A46933192049A6B
:104B40004E4B52004C364393B3183B6010230692F1
:104B5000039A31A87A6071AA3297BA60FB60FBF7BA
:104B600015FC041E5CD1069B454A9B5B74357B603B
:104B7000414B31A8319232973D60BB60FBF706FC98
:104B8000041E4DD110223F4B31A831937DAB32979B
:104B90003D607B60BA60FBF7F9FB041E40D1049BCB
:104BA00006AA1E01384B059931937A23FF339B18CF
:104BB0007B60330010220C33CB18FB6031A80DABA7
:104BC0007B6132973D60BA603A61FBF7DFFB0D9B7A
:104BD0000400102B29D1002822D12C4B3E90319378
:104BE0003F900DAB3DAF31A832973D954093FBF719
:104BF000CDFB041E14D11F4A049B4C325B009B5A10
:104C0000079A31A831923D933297FBF7BFFB04001E
:104C10003000059B2C301818102281A905F089FE60
:104C2000200097239B009D44F0BD8424D7E50124F8
:104C3000F6E70400F4E7C046001600350002003530
:104C4000001D00350901203000040035020200007B
:104C5000030200000006003500070035090080024D
:104C600000090035001E0035001F0035002000350A
:104C7000000A0035E49501080100C004002480000A
:104C8000000B0035000C0035000D0035000E00351E
:104C9000F0B5314C9BB003932300029016004033D3
:104CA00006AA0F0003CB03C200230C930593636B8A
:104CB00008220CA908AD0AA80D9305F03AFE0822B7
:104CC0000AA9280005F035FE039B06CD06C3002E79
:104CD00039D07B89002B36D0012332000093390074
:104CE0004F3314A8FFF7DAFC031E2CD110AD2A00B5
:104CF00012A914A8FFF786FC002824D12B88042BC6
:104D000021D105AA12993000FFF77EFB00281AD1A5
:104D1000059A14A91492636B12A8534008221593A4
:104D200005F007FE082212A9280005F002FE039BE9
:104D3000483406CD06C30EA90B0005CC05C30822D6
:104D400006A805F0F6FDFEF7DBFC029A06AB03CBE6
:104D500003C202981BB0F0BD809001080023F0B59B
:104D6000794DAFB0049306AC2B0022000191009066
:104D7000403303CB03C2082005F0B8FD07000098BC
:104D8000FCF7CBFA04A9FCF7A4FA0126002846D1C7
:104D900010A8FEF7D5FE2B002200403303CB03C240
:104DA00002AE019930003B00049AFFF771FF230027
:104DB000320003CA03C310981199FEF78FFE082230
:104DC00021000AA805F0B5FD08AC2B0022004833ED
:104DD00003CB03C208220AA90EA805F0AAFD0E9A69
:104DE0000F9B696B4B409A4201D0FDF7C1FF08222F
:104DF00021000CA805F09DFD53490C9A0D9B496BB1
:104E00004B409A4201D0FDF7B3FF0A9A089B9A42A1
:104E10000ED00B9A099B9A420AD00126764238009E
:104E200005F06EFD0498FCF74BFA30002FB0F0BD92
:104E30003900082212A805F07CFD14AC2B002200DA
:104E4000403303CB03C22AA8FEF77AFE2B002200D0
:104E5000403303CB03C230000099FEF721FE23004C
:104E600006CE06C32A982B99FEF738FE08222100A9
:104E700026A805F05EFD082226A928A805F059FD00
:104E8000289A299B696B4B409A4201D0FDF770FF2D
:104E9000269B102BC1D80822210022A805F049FD2D
:104EA000082222A924A805F044FD274D249A259B19
:104EB000696B4B409A4201D0FDF75AFF082212A9B4
:104EC0001EA8229B05F035FD08221EA920A805F08A
:104ED00030FD209A21996B6B4B409A4201D0FDF72F
:104EE00047FF082221001AA81E9B05F022FD082278
:104EF0001AA91CA805F01DFD1C9A1D9B696B4B404F
:104F00009A4201D0FDF734FF082212A916A81A9C74
:104F100005F00FFD082216A918A805F00AFD189A39
:104F200019996B6B4B409A4201D0FDF721FF074A5C
:104F3000169B2404A4182CA805AA2C942D92059342
:104F4000FBF7A2FB06006AE780900108000100362B
:104F5000F0B51F000B788BB005001600032B06D0B0
:104F60000800FCF778FA041E02DAFEF715FF0124A8
:104F700018236343ED1828786400013843425841F0
:104F8000FEF788FF330F6B73330DAB73330B3609AA
:104F90002E741F4EEB7333004C33E35A04AC1D4A9E
:104FA00063601D4B743602A8029203940496A360BA
:104FB000FBF7ECF9002829D1184B01350293102397
:104FC00002A8039404966560A360FBF7DFF900284C
:104FD0001CD1134B01AD0293109B02A86360E360E8
:104FE00003942660A76027616561FBF7CFF9019BF9
:104FF0009F420BD1002809D10A4B6060A06002A833
:10500000029303942660E560FBF7C0F90BB0F0BD96
:10501000E4950108000B00350100C004000C0035C8
:10502000000D0035000E0035F0B5C64C1F00A5443C
:10503000C54C0690230007910892403310AA03CB79
:1050400003C22300002512AA403303CB03C2B49548
:10505000636B0822B4A98AA8B59305F06AFC0822FC
:105060008AA914A805F065FCB695636B0822B6A959
:1050700088A8B79305F05DFC082288A916A805F05A
:1050800058FC082005F032FC0490A84200D189E0C9
:10509000172308AA9B183A691D7018AB520700D451
:1050A000B4E0483406CC06C3A22308AADB009B1850
:1050B0001868FCF7D0F9002874DB00D12AE2A2239B
:1050C00008AADB009B181868FCF7D3F9002869DBF5
:1050D000602343439D48C018037A002B62D09EA8EA
:1050E000FEF72EFD984E12AC33002200403303CB66
:1050F00003C2A22308AADB009B180AAD1968280086
:10510000FEF7AEFC230006CD06C39E989F99FEF7DE
:10511000E5FC0822210082A805F00BFC082218A952
:1051200080A805F006FC082282A986A805F001FCEB
:10513000869A879B716B4B409A4201D0FDF718FE0F
:10514000082280A984A805F0F4FB7F49849A859BF6
:10515000496B4B409A4201D0FDF70AFE829A809B30
:105160009A4255D0839A819B9A4251D0FFA8210040
:105170000822FFAC243005F0DCFB5C34FFA90822D8
:105180002431200005F0D5FBFFAB6F495C331A6872
:105190006368496B4B409A4201D0FDF7E9FDFFABD4
:1051A00024331B68049814AC05F0AAFB08222100E4
:1051B0001EA805F0BEFB08221EA920A805F0B9FB19
:1051C000614D209A219B696B4B409A4201D0FDF7BB
:1051D000CFFD082221001AA81E9B05F0AAFB082279
:1051E0001AA91CA805F0A5FB1C9A1D9B696B4B40D6
:1051F0009A4201D0FDF7BCFD1A9BFEF781FA069B8F
:1052000006CC06C30698524B9D44F0BD403449E796
:105210000023FFAA0C3208981360FCF775F8A2234C
:1052200008AADB009B181B6809901B78834211D1E8
:105230003B695B070ED5A22308AADB009B18186800
:10524000FCF709F90028ADDB18235843079BC35C22
:10525000002BA7D0FFA83F4B5C3003603E4AFFAB5A
:10526000FFA99C330C31436019605A60FBF78EF83C
:10527000061E97D13B8904000293029AFB6894466C
:10528000634403937B89039A9B180593059BA34270
:1052900068D9002E00D085E7059B1D1B8023DB020B
:1052A0009D4200D91D00029BA34204D9029A2B19EA
:1052B0009A4200D2151B039BA34204D9039A631997
:1052C0009A4200D2151BA22008AEC00080192B0004
:1052D000224A21000068FFF797F8A22308AADB0002
:1052E0009B181B68099A1B780600934216D104226A
:1052F0003B69134212D0029BA3420FD8039BA342E7
:105300000CD9A221029B08A8E21A144BC9000093F1
:1053100009182B0009680798FFF71AFE002E0FD115
:10532000FFA80F4B5C3003600C4AFFABFFA99C3316
:105330000C31436019605A609D60FBF727F8060046
:105340006419A3E7E4FAFFFF80900108B0D80208CF
:105350001C0500000010003509000001F8DC0208FF
:1053600000110035002E00D01CE7FFA8894B5C30EF
:105370000360FFAAFFAB9C333C325A602022FFA996
:105380009A60FFAA0C31243243601960DA60FAF7A0
:10539000FDFF002800D005E7A222002308A9D200C3
:1053A00000935218FFA87C4B126839000C30FFF7AD
:1053B00075F9002800D0F5E61A2408ABE418FFA818
:1053C00023000EAA0FA90C30FFF71CF9002800D00B
:1053D000E8E62388222B00D1D4E100D9E6E0102BA7
:1053E000EAD108AB1B8B202B00D0DBE6A22008AC57
:1053F000FFADC00000199C352A000F990068FFF727
:1054000003F8041E00D0CDE698A8FEF799FB634B85
:1054100012A91A00403241CA41C11900C8AA10009D
:1054200040319C4648C948C0FFA93C31665C285DB4
:10543000864206D10134202CF8D16346483303CB91
:1054400003C2FEF75DF90822C8A912A805F071FA97
:1054500098989999FEF742FB082212A96CA805F0CA
:1054600068FA4E4D6AAC2B002200483303CB03C2CE
:1054700008226CA970A805F05CFA709A719B696BA0
:105480004B409A4201D0FDF773FC082221006EA820
:1054900005F04FFA41496E9A6F9B496B4B409A4217
:1054A00001D0FDF765FC6C9A6A9B9A4204D06D9A14
:1054B0006B9B9A4200D075E6384C12AA2300403309
:1054C00003CB03C2082214A966A805F032FA082209
:1054D00066A968A805F02DFA689A699B616B4B4034
:1054E0009A4201D0FDF744FC9623669ADB011343F0
:1054F0002A4AAA93526BAAA9534064A80822AB93E4
:1055000005F017FA082264A9ACA805F012FA0822DF
:10551000ACA931E1FFAB0C33FFAD1860204B5C351B
:105520002B60FFACFFAE1F4B9C340C3628006C6028
:1055300026606360FAF72AFF002800D032E67A89F5
:105540003B8908A99B18FA6828009B18A222D20060
:1055500052181268FFA952685C310292124A6C60BC
:105560000A60FFAA9C321660029AA3606260FAF792
:105570000DFF002800D015E6064B6C602B60FFABDA
:105580003C3363602023A360FFAB24332660E360D9
:105590002800FCE600120035FFFF000080900108A3
:1055A000001000350900000100110035502B00D11A
:1055B00022E3812B00D0FFE608AB1B8B012B00D030
:1055C000F0E5A220172408AAC00008ADA4184019CD
:1055D00022000F990068FEF717FF002800D0E1E5D0
:1055E0009AA8FEF7ADFA944D12AA2B00403303CBD4
:1055F00003C22278B2A9B2926B6B9CA853400822D6
:10560000B39305F096F908229CA9B8A805F091F982
:10561000B8A90822BAA805F08CF92B00BCAA40331F
:1056200003CB03C2A22308AADB009B181868FBF770
:1056300020FF0600012838D80822BAA9C0A805F022
:1056400078F9602373437D4EBEACF6182300C4A8DE
:1056500006CE06C30822C0A905F06BF9C49AC59905
:105660006B6B4B409A4201D0FDF782FB2100082270
:10567000C2A805F05EF9704CC29AC399636B4B40A7
:105680009A4201D0FDF774FBC09ABE9BC6A99A420C
:1056900076D1C19ABF9B9A4272D148340B0005CC97
:1056A00005C30822BCA805F044F9FEF729F8082232
:1056B000BCA912A805F03DF99A989B99FEF70EFA3D
:1056C000082212A97AA805F034F95B4D78AC2B00BA
:1056D0002200403303CB03C208227AA97EA805F03A
:1056E00028F97E9A7F9B696B4B409A4201D0FDF767
:1056F0003FFB082221007CA805F01BF94E497C9A4B
:105700007D9B496B4B409A4201D0FDF731FB7A9A61
:10571000789B9A4204D17B9A799B9A4200D141E5C9
:10572000454C12AA2300403303CB03C2082214A91C
:1057300074A805F0FEF8082274A976A805F0F9F817
:10574000769A779B616B4B409A4201D0FDF710FB34
:105750002623749AAEA91343374AAE93526B72A8AC
:1057600053400822AF9305F0E4F8082272A9B0A8CC
:1057700005F0DFF80822B0A914A805F0DAF81BE656
:1057800040348BE796A8FEF7DBF92B4B10A91A00E3
:10579000403211CA11C1CAAC2200403303CB03C24C
:1057A000A22308AADB009B181868FBF762FE0128F9
:1057B00006D8602343432148C01848300CC80CC4A5
:1057C000FDF79EFF0822CAA910A805F0B2F8969826
:1057D0009799FEF783F9082210A960A805F0A9F8A7
:1057E000082260A962A805F0A4F81349629A639B95
:1057F000496B4B409A4201D0FDF7BAFA082210A932
:105800005CA8609B05F095F808225CA95EA805F0ED
:1058100090F809495E9A5F9B496B4B409A4201D0D0
:10582000FDF7A6FA5C9B002B0ADC034B10AA403361
:1058300003CB03C2C0E5C04680900108B0D802087F
:10584000082210A958A805F074F8082258A95AA8E7
:1058500005F06FF8E4495A9A5B9B496B4B409A42BA
:1058600001D0FDF785FA589CFAF7C4FD8442DCDCD0
:105870000EAB1B88802B00D994E4A22008ACC0009A
:10588000FFAA00199C320F990068FEF7BDFD0028A1
:1058900000D087E490A8FEF753F9D34C12AA230056
:1058A000403303CB03C2082210A992A805F041F8A7
:1058B000082292A994A805F03CF8949A959B616BF4
:1058C0004B409A4201D0FDF753FA929B4034039328
:1058D000CCAB06CC06C3FFAC9C342378302B00D075
:1058E00073E1FFA8402200215C30657804F01FFFBF
:1058F000A378022B00D068E1E378FFAAA032D25C43
:10590000022A00D061E1FFAAA132D45C9A1D029262
:105910001A190432954200D057E10422202B02DDEF
:105920001C3B1A002023202C04DD0299203C09197D
:1059300020240291AD49FFAE5C36FFA8FFADE49193
:105940009C30F11A243582182031E4A829606A605D
:10595000AB60E595FAF798FEFFAA9C329446FFAB40
:10596000361B243340361E60029BA0496344E4A8E2
:105970006B60E491E595AC60FAF786FE9A4BDEAA7F
:10598000483303CB03C20822DEA9CCA804F0D1FF20
:10599000CCA90822D8A804F0CCFF934DD6AC2B009C
:1059A0002200483303CB03C20822D8A9DCA804F0A4
:1059B000C0FFDC9ADD9B696B4B409A4201D0FDF73A
:1059C000D7F908222100DAA804F0B3FF8649DA9A51
:1059D000DB9B496B4B409A4201D0FDF7C9F9D89A3D
:1059E000D69B9A4224D1D99AD79B9A4220D17E4CF9
:1059F000CCAD23002A00403303CB03C27C4BFFAA6B
:105A0000E4936B461B7B24321360E4A828AB5360FD
:105A1000E592FAF7BBFC2300E0A94033002800D14F
:105A2000D7E00A0011CB11C20822280004F081FF40
:105A3000CCA90822D0A804F07CFF6B4DCEAC2B0083
:105A40002200483303CB03C20822D0A9D4A804F013
:105A500070FFD49AD59B696B4B409A4201D0FDF7F9
:105A600087F908222100D2A804F063FF5E49D29A88
:105A7000D39B496B4B409A4201D0FDF779F9D09AFC
:105A8000CE9B9A422FD1D19ACF9B9A422BD1564C82
:105A9000CCAD23002A00403303CB03C228AB1A88C5
:105AA000D4239B05E493FFAB24331A60514AE4A846
:105AB0005A60FFAA3C329A602022DA60FFAA5C3268
:105AC0001A614022E5935A61FAF760FC2300E2A9CB
:105AD0004033002800D181E00A0011CB11C2082216
