:020000041006E4
:1000000000C00208BB4206100D0000002543061088
:1000100000000000000000000000000000000000E0
:100020000000000000000000000000002143061056
:1000300000000000000000002143061021430610CC
:1000400021430610214306102143061021430610C8
:1000500021430610214306102143061021430610B8
:1000600021430610214306102143061021430610A8
:100070002143061021430610214306102143061098
:1000800010B5064C2378002B07D1054B002B02D06E
:10009000044800E000BF0123237010BDCCA7020874
:1000A000000000001CCE0610044B10B5002B03D03E
:1000B0000349044800E000BF10BDC0460000000036
:1000C000D0A702081CCE061070B51A4D04002B688C
:1000D0002E331B78002B04D1E9211748490003F087
:1000E00015FF00202968154A0B6A1D68002D06DBE4
:1000F000904202D10120404270BD0130F5E79042AC
:10010000F8D00120B0310968DC6098605B180021EC
:100110001868002803DA9142ECD00131F8E79142E7
:10012000E8D0A0222368120600209342E4D01800F1
:10013000E2E7C0468CAF0208F8B60610983A000015
:100140001FB500230193D82300049B05C01802901B
:1001500001AB02A80C000393FFF7B6FF002801D102
:10016000019B236004B010BD13B5084BC47A986896
:1001700001A9C0B2FFF7E4FF002803D1019B9C4214
:10018000804116BD01204042FBE7C04694AF020803
:100190001FB5064B0004C018029001AB02A80191E4
:1001A0000393FFF791FF05B000BDC0460001003684
:1001B00010B5034BC17A9868C0B2FFF7E9FF10BDD4
:1001C00094AF020830B585B001AD01912A71437832
:1001D00004006B7183782900AB71C378EB710379EC
:1001E0002B7243796B72C38880686B8102F022FBAB
:1001F000002813D1237B2900AB71637BA068EB71CE
:10020000E3896B8102F0BCFA002807D1A06802F0F4
:1002100097FB002802D1A06802F07AFB05B030BD40
:1002200000200949094B10B55B1A834203D05C1EBC
:100230000200234202D010BD01325B08022BFBD129
:100240000348FFF7BFFFF6E700A0020800C002085E
:1002500054B70610134A0300D06810B511699842CC
:1002600002D80918994206D8506991694118834209
:1002700014D38B4212D2F0210B4C090659180020DE
:10028000A1420DD99278824208D0084A1268D168FA
:1002900012698A18934240418B4200D201204042A9
:1002A00010BDC04694AF0208FFFF070008AA02086D
:1002B00010B50400002901D001390C18144B196D38
:1002C0005A6D0123013293405B18884217D398423C
:1002D00092418C4203D39C4201D201225242884275
:1002E00003D88C4201D901225242984203D89C4241
:1002F00001D901225242100010BD0022F1E78C42C8
:10030000FBD300229C42EAD201225242E9E7C046D6
:1003100094AF020870B505000C00FFF7C9FF002874
:100320000AD12800FFF796FF002805D1002C03D042
:10033000601E4019FFF78EFF70BD000070B51A4DAA
:1003400004002B682E331B78002B04D1E9211748B9
:10035000490003F0DBFD00212A681548136A1D6877
:10036000002D06DB814202D18420404270BD013164
:10037000F5E78142F8D00121B0321268DC60996063
:100380009B1800220B491868002803DA8A42EBD038
:100390000132F8E78A42E7D0A02223681206002043
:1003A0009342E3D01800E1E78CAF0208F8B60610DC
:1003B000983A00000094357710B5D42488B005939E
:1003C0000A9BA40506930B9B0094029002AC68461E
:1003D0000194039104920793FFF7B0FF08B010BD9A
:1003E00000B5064B89B00093029002AB68460193BA
:1003F00003910492FFF7A2FF09B000BD000B003586
:1004000010B5074C88B00094029002AC6846019485
:10041000039104920593FFF791FF08B010BDC04609
:10042000000E003500B5064B89B00093029002AB78
:100430006846019303910492FFF780FF09B000BD65
:10044000000C003510B588B005930A9B074C069345
:100450000B9B0094029002AC6846019403910492B5
:100460000793FFF76BFF08B010BDC046000D0035C5
:1004700000B5054B89B00093029002AB684601932A
:10048000FFF75CFF09B000BD000A003500B5054B61
:1004900089B00093029002AB68460193FFF74EFFCC
:1004A00009B000BD0005003500B5064B89B00093CA
:1004B000029002AB6846019303910492FFF73EFF5E
:1004C00009B000BD000400351FB5054B0290009334
:1004D000684602AB01930391FFF730FF05B000BD02
:1004E000001000357FB5064B0390019301A803ABC4
:1004F000029304910592FFF721FF07B000BDC046AB
:100500000011003510B5074C86B00094029002AC83
:1005100068460194039104920593FFF70FFF06B01C
:1005200010BDC0460012003510B5074C86B00094CF
:10053000029002AC68460194039104920593FFF780
:10054000FDFE06B010BDC0460009003530B50500FF
:1005500089B005AC0C220021200006F02BFE074BD1
:100560006846009302AB01930294FFF7E7FE2B006D
:1005700007CC07C3280009B030BDC04600060035CF
:100580007FB5064B0390019301A803AB029304913E
:100590000592FFF7D3FE07B000BDC0460007003547
:1005A0007FB5054B0390019301A803AB029304911F
:1005B000FFF7C4FE07B000BD000800357FB5064B4D
:1005C0000390019301A803AB029304910592FFF7F6
:1005D000B5FE07B000BDC0460002003510B5074C9F
:1005E00086B00094029002AC684601940391049294
:1005F0000593FFF7A3FE06B010BDC046000100350D
:1006000010B58CB006930E9B0A4C07930F9B019478
:100610000893109B03900993119B03AC0A93129BC0
:1006200001A80294049105920B93FFF787FE0CB08A
:1006300010BDC046000300351FB5054B0290009366
:10064000684602AB01930391FFF778FE05B000BD49
:10065000001500351FB5054B02900093684602ABAC
:1006600001930391FFF76AFE05B000BD0016003547
:10067000F0B58DB01D0012AB40CB02921B780F007D
:100680000393002305AA04A90493059300F03DF900
:10069000041E3BD1204B3A0000930599029B04981D
:1006A00006F042F9002834DD022007AA06A9FF302F
:1006B0000694079401F0B6F9002803D129000698A2
:1006C00000F0FAFF812007AA06A9400001F0AAF96C
:1006D000652400281ED13100069800F07DFD041E1F
:1006E00014D108A9380000F028F9041E0ED13100F9
:1006F0000B9800F069FB041E08D1039A29000B989F
:1007000000F03AF90400089805F0B0FF20000DB0A1
:10071000F0BD14246442F9E7005F2D00F0B51F001E
:10072000002387B00291039204A905AA04930593BC
:1007300000F0EBF8041E2ED1059800F07FF80400BD
:1007400006F0FAFC051E31D01A4B02000093059901
:100750002300049806F0E8F8002822DD280006F0BF
:10076000D3F8061E20D00100134800F09FF800289F
:1007700014D00069002811D0039B22000093019738
:10078000029B2900FFF774FF0400300005F06EFFA4
:10079000280006F0DBFC200007B0F0BD0124644215
:1007A000F3E714246442F3E70524FBE7642464427E
:1007B000F1E7C046005F2D0064B7061010B50100D8
:1007C00004000B4807F062FB002398420DD0210083
:1007D000084807F05BFB0123002806D021000648EB
:1007E00007F054FB434243415B00180010BDC04674
:1007F0006BB8061074B8061080B8061010B501006A
:1008000004000B4807F042FB002398420DD0210062
:10081000084807F03BFB0123002806D021000648CA
:1008200007F034FB434243415B00180010BDC04653
:1008300085B806108EB8061096B8061003235843E4
:100840008008984304307047F8B5C3680D0008600D
:10085000202B21D18468124F002C01D12000F8BD3B
:10086000266A002E06D031000E4807F00FFB002844
:1008700002D16C602468EFE731000B4807F006FBFB
:10088000002801D1AC60F5E73100380007F0FEFA2E
:100890000028EFD1EC60EDE702204042DFE7C046E0
:1008A000ADB806109EB80610A4B80610F0B5070043
:1008B0000D00002491B001AE002D02D1280011B02E
:1008C000F0BD296A002904D0380007F0DFFA0028BB
:1008D000F4D0AB68002B06D00E2C12D8A200955194
:1008E00001341D00E8E72B68002BFAD1002C0AD058
:1008F000013CA3009B591B68002BF2D1002CF7D1BF
:10090000EFE70025DAE72500D8E7F8B50E002E213D
:10091000170007F0ADFA041E0CD0451C2E2128004C
:1009200007F0A6FA002805D0001B01383860002027
:100930003560F8BD16204042FBE770B50500002089
:100940000C0005F079FE280005F0DEFF002803D03A
:100950002100FFF779FF70BD05204042FBE700232F
:1009600004220133002901D1904203D952001D2BEA
:10097000F7D1023318007047F0B589B005900C002C
:100980000100C54807920027FFF790FFB84200D149
:100990004BE18568069702950497029B002B00D0D7
:1009A00090E0EB68202B00D03FE12E00BB4F3100E0
:1009B0003800FFF77BFF002800D1E6E0037E079AAE
:1009C0009A4200D0E1E03100B548FFF76FFF83693C
:1009D000237029003800FFF769FF002804D022782F
:1009E000037E9A4200D1A9E12D68002DF1D12900A2
:1009F000AC48FFF75BFF002807D02300FF335B7B89
:100A0000012B02D18369DBB2A3602900A648FFF75E
:100A10004DFF002808D02300FF339B7A012B03D120
:100A2000C3685A1E934163702900A048FFF73EFF38
:100A3000002808D02300FF331B7B012B03D1C368A0
:100A40005A1E9341E37029009948FFF72FFF0028B1
:100A500006D02300FF331B7B012B01D18369237157
:100A600029009448FFF722FF002809D02300FF3314
:100A70001B7E012B04D1C3685A1E9341E21CD3771D
:100A800029008D48FFF712FF002800D1A6E0C368B7
:100A9000102B00D0A2E08268230020001233153012
:100AA000FF33FF30002A00D198E01978012903D1E3
:100AB00019009669F5390E700133984200D18DE026
:100AC0001268EFE702997D48FFF7F0FE002804D096
:100AD00083680193019B002B03D1029B1B68029347
:100AE0005BE701997648FFF7E1FE00284AD00369E9
:100AF00074491800039307F0C9F9002842D07249DD
:100B0000039807F0C3F900283CD000266F4AB300D1
:100B10009958039807F0BAF9071E05D00136172E29
:100B2000F4D10527183E7F4201996948FFF7BEFEC0
:100B3000002801D08369069301996648FFF7B6FE45
:100B4000002804D0C1698069FFF709FF0490731C75
:100B500018D0049B002B15DD92227300E31852007D
:100B60009A5C012A04D1320006990A32D20011514E
:100B70002622FF329B5C012B04D10A36F600049B2F
:100B8000A6197360019B1B68A3E73668002E00D08E
:100B90000CE71EE74C49380007F078F9002800D030
:100BA000FFE031004A48FFF781FE002806D023000D
:100BB000FF331B7C012B01D1836963613100454800
:100BC000FFF774FE002800D1EBE02300FF331B7C0D
:100BD000012B00D0E5E08369A361E2E029003E48F3
:100BE000FFF764FE002817D0C368102B14D1826869
:100BF0002300200015331830FF33FF30002A0BD0BC
:100C00001978012903D119009669F5390E7001335D
:100C1000984201D01268F1E729003048FFF746FEFC
:100C2000002835D000278369A37005992C48FFF769
:100C30003DFE002858D000258668002E54D0310093
:100C40002448FFF733FE00280BD063191A001A322C
:100C5000FF321278012A04D102326A439B1882695A
:100C60009A6231001F48FFF721FE00280BD063195C
:100C70001A001932FF321278012A04D102326A4373
:100C80009B1882695A6202350A2D2DD03668D4E746
:100C9000A0700700C9E7C0466BB80610D4B70610AD
:100CA00089B7061090B70610B2B806109AB70610AA
:100CB000A2B70610B1B70610B8B706106DB7061088
:100CC000BAB8061077B706107CB7061080A00208E5
:100CD0000AB9061084B70610C2B70610CFB70610BF
:100CE000D7B70610E1B7061005992F48FFF7DEFDCC
:100CF000051E20D001002D48FFF7D8FD00280AD09E
:100D00002423FF33E35C012B05D1C3685A1E9341B2
:100D100022004D32137029002548FFF7C7FD002837
:100D200009D091235B00E35C012B04D1C3684C34F0
:100D30005A1E93412370380009B0F0BD29001D48A8
:100D4000FFF7B4FD002800D151E68668002E00D1DF
:100D50004DE631001848FFF7A9FD002821D00769AA
:100D60001649380007F092F8002800D012E7310049
:100D70001348FFF79BFD002806D02300FF339B7B21
:100D8000012B01D18369E36031000E48FFF78EFD2E
:100D9000002806D02300FF33DB7B012B01D18369C0
:100DA00023613668D2E7C046E7B70610F3B70610EE
:100DB000FFB706106DB70610BAB8061077B7061061
:100DC0000AB9061084B70610F8B507000C00010038
:100DD000BA48FFF76BFDBA4E051E2AD0010030005D
:100DE000FFF764FD002808D0230068331B78012B2F
:100DF00003D10069FFF702FD20702900B148FFF719
:100E000055FD002808D0230069331B78012B03D13E
:100E10000069FFF7D3FC60702900AB48FFF746FD7F
:100E2000002806D023006A331B78012B01D1836987
:100E3000A3703900A548FFF739FD051E2AD001002F
:100E40003000FFF733FD002808D023006B331B78F8
:100E5000012B03D10069FFF7D1FCE070290099480C
:100E6000FFF724FD002808D023006C331B78012BEA
:100E700003D10069FFF7A2FC207129009248FFF717
:100E800015FD002806D023006D331B78012B01D1FE
:100E90008369637139008E48FFF708FD051E00D194
:100EA00084E001003000FFF701FD002808D0230096
:100EB0006E331B78012B03D10069FFF79FFCA071F3
:100EC00029008048FFF7F2FC002808D023006F3388
:100ED0001B78012B03D10069FFF770FCE07129003A
:100EE0007948FFF7E3FC002806D0230070331B7815
:100EF000012B01D18369237229007648FFF7D6FCC4
:100F0000002808D0230071331B78012B03D1C3685C
:100F10005A1E9341637229006F48FFF7C7FC0028EF
:100F200008D0230072331B78012B03D1C3685A1EEB
:100F30009341A37229006948FFF7B8FC002808D044
:100F4000230073331B78012B03D1C3685A1E9341CE
:100F5000E37229006248FFF7A9FC002808D02300AB
:100F600074331B78012B03D1C3685A1E934123733A
:100F700029005C48FFF79AFC002808D0230075334D
:100F80001B78012B03D1C3685A1E93416373290058
:100F90005548FFF78BFC002808D0230076331B78D8
:100FA000012B03D1C3685A1E9341A37339004F48E4
:100FB000FFF77CFC050001003000FFF777FC0028FC
:100FC00008D0230077331B78012B03D10069FFF78A
:100FD00015FC207429003C48FFF768FC002808D065
:100FE00023008C331B78012B03D1230082696433E7
:100FF0001A7029003E48FFF759FC00282AD0002625
:101000008768002F26D039003A48FFF74FFC0028A8
:101010000AD0A3191A0078321278012A04D10232B8
:1010200072439B1882695A6139003348FFF73EFCCE
:1010300000280AD0A3191A0079321278012A04D1A3
:10104000023272439B1882699A6102360A2E01D0DD
:101050003F68D6E729002948FFF728FC00282BD055
:10106000002503278668002E26D031002148FFF78F
:101070001DFC00280AD063191A0082321278012A56
:1010800004D13A006A439B188269DA6331001A4836
:10109000FFF70CFC00280AD063191A00833212787B
:1010A000012A04D13A006A439B1882691A64023506
:1010B0000A2D01D03668D6E70020F8BD11B8061019
:1010C00015B8061020B8061028B806102CB806105F
:1010D0002FB8061036B806103EB806105DB80610D8
:1010E0001BB9061025B906102CB9061043B8061016
:1010F00047B80610E1B7061084B7061055B80610B9
:1011000070B504000D0086B00021142201A806F07D
:1011100051F829002000FFF7C9FB0400002C18D06B
:1011200021001C48FFF7C2FB0028F7D00569002DFD
:101130000AD0194E2900300006F0A8FE00280BD175
:10114000310001A806F0ACFE210001A8FFF7AEFBBC
:101150000400200006B070BD104E2900300006F0DB
:1011600095FE0028ECD029000D4806F08FFE0028DF
:10117000E6D00C4E2900300006F088FE0028DFD0B3
:101180002900094806F082FE0028DDD12100074829
:10119000C1E7C046BAB80610E2B80610CBB80610D0
:1011A000D2B80610DAB80610BFB80610C5B80610D7
:1011B00010B5FFF77BFB0124002809D081680029C6
:1011C00006D00448FFF772FB002801D0C468E4B2DF
:1011D000200010BD63B80610F0B5050085B00020F2
:1011E0000C0005F029FA280005F08EFB019000287C
:1011F00000D14BE20100A148FFF758FB051E00D0CB
:10120000B4E001235B42009301999D48FFF74EFB38
:10121000051E00D0EEE001235B420093019999483E
:10122000FFF744FB051E00D03EE101235B42009323
:1012300001999548FFF73AFB071E00D122E2934E31
:1012400001003000FFF75CFF390005003000FFF7B8
:10125000AFFF0600002D00D1F6E12869FFF7CEFAB6
:101260002300773320741E70894E39003000FFF759
:1012700047FF390005003000FFF79AFF002D00D12D
:10128000E6E12300AA6964331A7028331870390024
:101290008048FFF70BFB051E00D1E6E101007E4808
:1012A000FFF72EFF290006007B48FFF781FF039020
:1012B000002E00D1D0E1B369029329007748FFF7EF
:1012C0001FFF290006007548FFF772FF002E00D1AE
:1012D000C7E1B669230022002100143378323C3183
:1012E000029D5E601D606D462D7B08335070157049
:1012F00002329942F4D139006948FFF7D7FA061E45
:1013000000D1BFE1644F01003800FFF7F9FE310062
:1013100005003800FFF74CFF0390002D00D1A8E135
:10132000AB6902935D4F31003800FFF7E9FE3100F1
:1013300005003800FFF73CFF002D00D19EE1AD69AC
:10134000230022003C338232643402995D601960CC
:101350006946097B0833507011700232A342F4D100
:10136000019805F083F9009805B0F0BD474F0100E2
:101370003800FFF7C5FE290006003800FFF718FF08
:101380000700002E2FD03069FFF738FA23006833AA
:1013900020701F700023434F290038000093FFF78F
:1013A000AFFE290006003800FFF702FF0700002EFD
:1013B0001CD03069FFF702FA2300693360701F7098
:1013C000334F29003800FFF79BFE29000600380044
:1013D000FFF7EEFE002E00D113E7B369A3702300E0
:1013E0006A33187010E701235B42D4E701235B42A4
:1013F0000093E5E7254F01003800FFF781FE290043
:1014000006003800FFF7D4FE0700002E2DD030690B
:10141000FFF7F4F923006B33E0701F70214F2900B0
:101420003800FFF76DFE290006003800FFF7C0FE08
:101430000700002E1DD03069FFF7C0F923006C3380
:1014400020711F70124F29003800FFF759FE290044
:1014500006003800FFF7ACFE002E00D1DBE6B369D2
:10146000637123006D331870D8E601235B4200934B
:10147000D4E701235B420093E4E7C04611B80610AD
:101480002CB806102FB8061043B8061015B8061071
:1014900028B8061047B80610E1B7061084B7061042
:1014A00055B8061020B806107A4F01003800FFF733
:1014B00027FE290006003800FFF77AFE0700002EFD
:1014C00000D1A1E03069FFF799F923006E33A071D4
:1014D0001F70714F29003800FFF712FE2900060027
:1014E0003800FFF765FE0700002E00D190E030695C
:1014F000FFF764F923006F33E0711F70674F290015
:101500003800FFF7FDFD290006003800FFF750FE08
:10151000002E00D180E0B36923722300703318706D
:101520005F4F29003800FFF7EBFD29000600380067
:10153000FFF73EFE002E73D0F3685A1E934163728C
:10154000230071331870574F29003800FFF7D8FD7A
:10155000290006003800FFF72BFE002E64D0F36848
:101560005A1E9341A3722300723318704E4F290004
:101570003800FFF7C5FD290006003800FFF718FE08
:10158000002E55D0F3685A1E9341E3722300733343
:101590001870464F29003800FFF7B2FD29000600F9
:1015A0003800FFF705FE002E46D0F3685A1E93411F
:1015B00023732300743318703D4F29003800FFF760
:1015C0009FFD290006003800FFF7F2FD002E37D0FE
:1015D000F3685A1E93416373230075331870354FB7
:1015E00029003800FFF78CFD290006003800FFF7BE
:1015F000DFFD002E00D118E6F3685A1E9341A37355
:1016000023007633187013E601235B42009360E7F2
:1016100001235B42009371E701235B4200937FE764
:1016200001235B4200938EE701235B4200939DE719
:1016300001235B420093ACE701235B420093BBE7CD
:1016400001235B420093CAE701235B4200930BE650
:1016500001235B4200931AE601235B42029600934A
:101660002BE601235B42009334E601235B420093A7
:1016700041E601235B420295009353E601235B425E
:1016800000935DE601235B42009369E605235B421C
:10169000009368E615B8061020B8061028B80610A2
:1016A00036B806103EB806105DB806101BB9061015
:1016B00025B906102CB90610F0B5050085B000203C
:1016C0000C0004F0B9FF280005F01EF90190002875
:1016D00000D182E10100C348FFF7E8F8051E00D100
:1016E0003BE1C14F01003800FFF70AFD2900060069
:1016F0003800FFF75DFD002E00D10AE1B3692370C9
:101700002300FF3358720023B84F2900380000939C
:10171000FFF7F6FC290006003800FFF749FD002E10
:1017200000D1F9E0F3685A1E934163702300FF3340
:101730009872AF4F29003800FFF7E2FC290006003D
:101740003800FFF735FD002E00D1E9E0F3685A1E9E
:101750009341E3702300FF331873A64F290038002C
:10176000FFF7CEFC290006003800FFF721FD002E10
:1017700000D1D9E0B369DBB2A3602300FF33587313
:101780009D4F29003800FFF7BBFC290006003800F8
:10179000FFF70EFD002E00D1CAE02200B369FF3230
:1017A000DBB2237790746377D074A3771075934F6F
:1017B00029003800FFF7A4FC290006003800FFF7D5
:1017C000F7FC002E00D1B7E02200B369FF32DBB294
:1017D000611CE3775075CB77A11C9075CB77D075E2
:1017E000874E29003000FFF78BFC290007003000EE
:1017F000FFF7DEFC002F00D1A2E0FB685A1E9341E8
:10180000E21CD3772300FF33187601997D48FFF758
:101810004DF80600002F00D19FE0230001227A4FEF
:10182000FF3301009A73DA731A745A743800FFF7A1
:1018300067FC310005003800FFF7BAFC0390002D6B
:1018400000D181E0AB690293704F31003800FFF79F
:1018500057FC310005003800FFF7AAFC002D00D12D
:1018600077E0AD6922002100230025320931503391
:10187000FF32FF31029E5D601E606E46367B08338C
:101880001670507002328B42F4D101996048FFF714
:101890000DF8061E00D16DE05E4F01003800FFF725
:1018A0002FFC310005003800FFF782FC0390002D6B
:1018B00057D0AB690293554F31003800FFF720FC39
:1018C000310005003800FFF773FC002D4ED0AD69E4
:1018D00022002300210019322433FF324C31029EB2
:1018E0005D601E606E46367B0833507016700232A3
:1018F0009942F4D101994848FEF7D8FF051E3DD121
:1019000001235B420093019804F0B0FE009805B0FB
:10191000F0BD01235B42F7E601235B42009308E739
:1019200001235B42009318E701235B42009327E702
:1019300001235B4200933AE701235B4200934FE7A8
:1019400001235B42009360E701235B420295009311
:101950007AE701235B42009384E701235B42009313
:1019600093E701235B4202950093A4E701235B42C6
:101970000093ADE701235B420093BBE7274F0100D3
:101980003800FFF7BDFB290006003800FFF710FC08
:10199000002E1ED0F3685A1E934122004C32137061
:1019A00091235B00E0541E4F29003800FFF7A8FB8D
:1019B000290006003800FFF7FBFB002EA0D0F368DB
:1019C0005A1E934122004D3213702423FF33E054FA
:1019D00099E701235B420093E5E705235B4200930F
:1019E00094E7C0466BB80610D4B70610B2B806101C
:1019F0009AB7061090B70610B8B70610C2B706100F
:101A0000B1B706106DB706100AB9061084B70610F4
:101A1000D7B70610E1B70610E7B70610FFB70610F4
:101A2000F3B70610DC23F0B59B0585B000930023C7
:101A30001F4F02AC0194029063603B680D002E338F
:101A40001B781600002B04D1E9211A48490002F046
:101A50005DFA00203968184A0B6A1F68002F07DBFF
:101A6000904203D10120404205B0F0BD0130F4E7BF
:101A70009042F7D06846D8600120B031096898607C
:101A80005B1800211868002803DA9142EAD001317E
:101A9000F8E79142E6D0A023009A1B069A4201D0B3
:101AA0000098E1E7029B0020336063682B60DBE76E
:101AB0008CAF0208F8B60610983A0000F0B517008F
:101AC0009822D9B00691520000210600BFB20CA89E
:101AD000079305F06FFB0AAA09A93800FEF76EFD0F
:101AE00000250400A8422AD1C0228021099BD205EA
:101AF0001A40C9058A4233D10A9BDC1DE408200044
:101B00000B9405F019FB051E5CD0220001000BAB05
:101B10003800FEF763FD041E11D16B46198B1023AC
:101B2000320004930293294B4032303603920093E3
:101B300001960B9B2A000CA8FEF762FD040028000A
:101B400005F004FB002C05D1202207990CA8FEF714
:101B5000ABFC04000CA8FEF799FC200059B0F0BDC6
:101B60001B4A934207D10A9B5C0809230134E4080D
:101B70005C433B34C3E7174A934203D10A9BDC081A
:101B80001034BCE7144A934205D103240A9BDB08B6
:101B90005C435A34B3E7114A934205D103240A9BAC
:101BA000DB085C434A34AAE70D4A1B0C1B04934232
:101BB000A2D00C4A9342A2D10A9BDC1DE408640027
:101BC00001349CE78D246442B9E7C0460901202214
:101BD000000001700000016000000270000002605F
:101BE000000003700000036070B508000D001400D1
:101BF0000E1E05D0731B9C4203DCE043C01720403F
:101C000070BD307802F0FCFF0136F3E770B50024B8
:101C10000D001600A1420AD1200070BD02F0FCFFA9
:101C2000C0B2285501340A28F6D00D28F4D0B442A9
:101C3000F4DBF1E7000000000230800803D001303F
:101C40000238FCD1C046C0467047EFF3108072B630
:101C5000704780F310887047014B18607047C0468A
:101C60008CAF0208044B1B681A1DD26F1B689B18AF
:101C70001868000E7047C0468CAF0208044B1B6802
:101C80001A1DD26F1B689B181868000AC0B27047F3
:101C90008CAF02081D4B98420FD010D840282FD08F
:101CA00005D8002830D0102828D019481EE08028F8
:101CB00028D080235B009842F7D1144816E0154BDA
:101CC000984214D008D8A0231B0698421CD0124B6F
:101CD0009842EAD1A0200BE0104B98420AD0104B5A
:101CE000984209D00F4B9842DFD10F487047A4208B
:101CF000C003FBE70D48F9E70D48F7E70D48F5E7A6
:101D00000D48F3E70D48F1E70020EFE70600520029
:101D1000FF005200010000F0090000A0040000F0E4
:101D2000050000F0030000F0010052000200520024
:101D30000300520001005000020050000500520054
:101D400070B50A4D04002B682E331B78834204D8EB
:101D5000E9210748490002F0D9F82B681A00AC3293
:101D600010884443186A201870BDC0468CAF020822
:101D7000F8B6061010B50020FFF7E2FF0A4B1C680A
:101D80002300B0331B68C0180368002B0ADB074B25
:101D90001868FFF77FFF012263689A609A68002A3B
:101DA000FCD110BD0248FCE78CAF0208E8A702088E
:101DB0000200500070B5C4050500E40D28D102F002
:101DC000C5FA144B144A1A605D609C60DC60134BCA
:101DD0001B6850331978002915D0FFF743FF040022
:101DE000FFF74CFFFA210134013060430C4B0D4CDE
:101DF00089004443186804F08BFE0100200004F0C1
:101E000087FE094BC1188020400009F055FC70BDC9
:101E10000648FCE7E8A702080001001C8CAF020896
:101E2000E0A0020860F5900098080000060052004B
:101E300070B5C40506000D00E40D2AD1002928D094
:101E400002F084FA144B154A1A605C609E60DD60F3
:101E5000134B1B684E331978002915D0FFF702FF8A
:101E60000400FFF70BFFFA210134013060430D4BF2
:101E70000D4C89004443186804F04AFE010020001C
:101E800004F046FE094BC1188020400009F014FC04
:101E900070BD0748FCE7C046E8A70208000100053E
:101EA0008CAF0208E0A00208C0EA21014826000029
:101EB0000600520070B506000C001500072903D972
:101EC0001449154802F022F81F232A009A4303D030
:101ED0001249114802F01AF8114B1B689A695B69A4
:101EE000B01AC0090001C0181F231D40032C07D8D9
:101EF000E400A340A54002689A431543056070BD05
:101F0000043CE400A340A54042689A431543456061
:101F1000F5E7C0469202000077BB0610930200006E
:101F20008CAF0208F0B585B000900D0014000028B9
:101F300000D137E1002A00D134E1072903D94F212C
:101F4000994801F0E3FF2368012B03D950219648FB
:101F500001F0DCFF0F2362689A4303D051219248BD
:101F600001F0D4FF1F22237A934303D052218E48DD
:101F700001F0CCFFE368032B03D953218A4801F019
:101F8000C5FF2369012B03D95421874801F0BEFF07
:101F90006369012B03D95521834801F0B7FFA36979
:101FA000012B03D95621804801F0B0FFE369032BD0
:101FB00003D957217C4801F0A9FF236A012B03D9DB
:101FC0005821794801F0A2FF636A012B03D95921F6
:101FD000754801F09BFFA36A012B03D95A2172486F
:101FE00001F094FFE36A032B03D95B216E4801F0F3
:101FF0008DFF236B072B03D95C216B4801F086FF13
:102000002668072D03D96949694801F07FFF01223D
:10201000AA400192012E07D96649654801F076FF72
:10202000009B019A9A6004E0002EF9D1009B019A6E
:102030005A606668072D03D95F495D4801F066FF65
:102040000F2332009A4303D05C49594801F05EFFE8
:102050000F215B4FAB0002933B68080079331A787D
:10206000009B0E40D2181368A9009C46AB00984014
:1020700063468E4083431E431660227A29000098EF
:10208000FFF718FFE668082D03D94E49484801F0CC
:102090003DFF032E03D94C49454801F037FF03218A
:1020A00008006B0003933B686F00B8400E40BE40D1
:1020B00078331A78009B9A18136883431E4316607E
:1020C0002669082D03D94149394801F01FFF012E27
:1020D00003D93F49364801F019FF019A009BD743C5
:1020E00001221640AE409B693B401E43009B9E610F
:1020F0006669072D03D937492D4801F007FF012EE6
:1021000003D935492A4801F001FF01202C4B064034
:102110001968AE400B0084467A331B78009AD318B6
:102120001A68174037431F600B0062467B331878EC
:10213000009B6E001818A36910361340AB40E56988
:1021400002321540B540B2402B43019D07682A4337
:1021500097433B430360022004257C310A78009BAF
:102160009A18636A11685B000340A06A80002840E7
:1021700003436046256A284018250343E06AC000EF
:1021800028400343206BFF24400120400343FE20EE
:10219000029D80000540AB400020A1430B4313602B
:1021A00005B0F0BD0D48FBE720BB06103103000071
:1021B00077BB061032030000CE030000CF030000FF
:1021C0008CAF0208F2060000F30600007306000060
:1021D000740600000D0400000E04000001005A0007
:1021E0000B4B70B51B680500B0331B680C00C3189F
:1021F0001B68002B0ADA0B0C04D0B92105488900B2
:1022000001F084FE0020A4B26C6070BD0248FCE7BF
:102210008CAF0208F8B6061001008A00036870B59A
:1022200005000C00002B0ADAC2600B0C03D0054934
:10223000054801F06BFE0020A4B2AC6070BD0348FD
:10224000FCE7C046CA020000F8B6061001008A008A
:1022500070B505000C1E03D1A321084801F056FEFD
:10226000074B1B68B0331B68EB181B68002B03DAA5
:102270000020EB68236070BD0248FCE7CFBB06106E
:102280008CAF020801008A00024B1A68002A00D1B4
:1022900018607047FCA70208F7B52C4D1F002B688B
:1022A000040000910192002B03D1BF21284801F0C6
:1022B0002DFE2C23FF225C432B683D001C193B0A9A
:1022C0003F0CA760234F134063603B6815402560B7
:1022D0002E331B789D4204D3E9211F48490001F0A9
:1022E00015FE3B681A00AC32128855431A6A2F3328
:1022F000AD1825611B7865689D4204D3F721164807
:10230000490001F003FE3B6880351B6A6D01A66839
:10231000ED186561330C08D00F4F1049380001F0FB
:10232000F5FD0F49380001F0F1FD33041A0C134399
:10233000AB60019BE361009B23620023A361089BC8
:10234000002B01D01B88A381F7BDC046FCA7020863
:1023500029BC06108CAF0208F8B606100D0200006A
:102360000E020000F0B5040085B0002803D15C2106
:10237000214801F0CBFD6368032B03D95E211E4881
:1023800001F0C4FDE36A002B03D162211A4801F079
:10239000BDFD236B002B03D16321174801F0B6FD6F
:1023A000A36802AD2B80154B22681B68E16A9B8EE7
:1023B000E0689B186B806368A26A039300952369A9
:1023C000266A676AFFF768FF00213B000A00009158
:1023D0003000FFF761FF216B280001F01FFD002294
:1023E000AB5E002B06DB1F2213401E3A9A401300FF
:1023F000034A136005B0F0BD29BC06108CAF02087B
:1024000000E100E0F7B504000F00151E019304D1B0
:1024100008211D48FF3101F079FD1C4E3368002B67
:1024200004D184211848490001F070FD2C235C433D
:1024300032685F4314192669D719002E1FD0BB6973
:10244000002B1ED13368002B1BDA012263681400B5
:1024500011009C407B6899402B6809049BB20B4398
:102460002B60019BF5607B62BA61230C03D00849A5
:10247000084801F04BFD0020A4B2B460FEBD064840
:10248000FCE70648FAE7C04629BC0610FCA702088C
:10249000CA020000F8B6061004028A0007028A0089
:1024A000002373B504000193984204D1DC212C4829
:1024B000FF3101F02BFD2369002B04D1EE212848C8
:1024C000490001F023FD6369002B04D1DE2124487B
:1024D000FF3101F01BFD236A002B04D1EF212048BE
:1024E000490001F013FD6269D5682B0C22D01B0452
:1024F000136013681B4B20691B68B0331B68C3183B
:102500001B68002B16DA01A9FFF7A2FE0026B042D5
:102510000CD10198E26903681E0CDBB29A4205D91E
:10252000226A9B009B58002B00D0984731002069FD
:10253000FFF756FEADB2002D09D063691D6000257E
:102540001B68636AAB4205D098476562A561636901
:102550001B6873BDA36A002BF8D09847F6E7C04606
:1025600029BC06108CAF020870B5084C0500236822
:10257000002B04D1BC210648FF3101F0C7FC2C2000
:10258000454320684019FFF78BFF70BDFCA7020888
:1025900029BC061070B50A4D04002B682E331B7839
:1025A000834204D8E9210748490001F0AFFC2B68B9
:1025B0001A00AC3210884443186A201870BDC04617
:1025C0008CAF0208F8B60610F8B5174B0D001B6863
:1025D0002E331B78834225D9002923D01F240B6872
:1025E0001C401FD1FFF7D6FF07002B680F4EDA08FB
:1025F00021003060686804F0DDFD21003800FFF73D
:10260000EFFD21002A003068FFF708FE041E07D105
:1026100001003068FFF7E4FD03002000002B00D02C
:102620000348F8BD0348FCE78CAF020800A8020885
:1026300001018A0003018A0010B50C00002A07D1AD
:1026400000290DD1FFF7A6FF064B1860200010BD32
:10265000002905D004490C604A60FFF7B5FFF6E792
:102660000248F4E700A8020804C0020803018A0037
:10267000F7B5184F04003B680191DE683368834268
:1026800026D90025A94202D1FFF7DFFA05003868F4
:102690000368002B1ADA1F220123224093406409A9
:1026A0007268A4001419226813420DD09A43226064
:1026B00000240021FFF794FD019B002B02D128008C
:1026C000FFF7C7FA2000FEBD034CF2E7034CF3E727
:1026D000034CF7E700A80208020188000301880004
:1026E00004018A000A4B1B68DB681A6882420DD914
:1026F00059681F23420918401E3B834092005058DE
:102700001840431E9841034BC01870470248FCE72D
:1027100000A802080001880004018A0070B5154E67
:10272000040033680D005B6CC340DB0703D4A821B1
:10273000114801F0EBFB0F2D03D9A9210E4801F040
:10274000E5FBF0222B041203290013400F22114055
:102750000B433168A402096964188021C9016350E0
:1027600060581040401B431E9841044B40421840A3
:1027700070BDC0468CAF020884BC06100300C200C6
:1027800070B504000D00002804D1BD212448490083
:1027900001F0BCFB6B89DB0B04D07C212048FF31AE
:1027A00001F0B4FB0222AB799343012B04D0BE218C
:1027B0001B48490001F0AAFB0222EB799343012B4D
:1027C00004D07E211648FF3101F0A0FB6A897F23E7
:1027D0001100994322D10721AB7952020B401343D8
:1027E0006A7A313192071343EA79D2000A401343DF
:1027F0000122297A4A40920113431A0009490A40EA
:102800009A420BD16262606A0840801A4342584182
:10281000054B40421840054BC01870BD0448FCE70A
:1028200084BC0610DBFEFFE0FDFF3DFF0300C2009D
:102830000100C20070B504000D00002804D1E121A0
:102840002E48490001F062FB6B89DB0B04D0C421E8
:102850002A48FF3101F05AFBAB79072B04D9E2215A
:102860002648490001F052FBEB79072B04D9C62119
:102870002248FF3101F04AFB2B79073B182B04D982
:10288000E3211E48490001F041FB6B897F221900BA
:1028900091430A1E2ED12968FF3291430A006979BB
:1028A000A8790A4307215B02084018436B7A31314B
:1028B0009B071843EB79DB000B4018430123297A6F
:1028C0004B40F8219B0118432B7949051B060B400F
:1028D000034363602260216891420DD16068084A19
:1028E0001040C01A43425841064B40421840064B24
:1028F000C01870BD0548FCE70348FAE784BC061021
:10290000FFFEFFFFFDFF3DFF0300C2000100C2000C
:1029100010B5041E03D10749074801F0F7FA8023D8
:10292000626A1B0613436362606A044BC00F01387E
:10293000184010BDFF01000084BC06100300C20057
:1029400010B5041E03D10749074801F0DFFA8023C0
:1029500062681B06134363606068044BC00F013854
:10296000184010BD4F02000084BC06100300C200D6
:10297000036810B5020080241B0500D4403C82236C
:102980009B00D3580020DB05DB0DA34203D090232E
:102990009B00D150013010BD036880201B0500D47E
:1029A00040387047F0B5050085B00C0016000028CF
:1029B00000D177E1002900D174E10B78022B03D913
:1029C0004921B94801F0A2FA637B023B062B03D9E7
:1029D0004A21B54801F09AFAA37B002B06D0023BAE
:1029E000012B03D94B21B04801F090FAA31CDB7FE7
:1029F000012B03D94C21AC4801F088FA230028337D
:102A00001B78012B03D94D21A74801F07FFA2378C9
:102A1000012B00D93AE108236268083A93429B41AE
:102A20005B42002B03D04F219F4801F06FFAA3684F
:102A3000053B042B03D950219B4801F067FA6369D9
:102A4000FF2B03D95121984801F060FAA369FF2BAD
:102A500003D95221944801F059FAA37C002B0CD0E1
:102A60002378002B05D1A368092B02D1A37B002B6F
:102A700003D054218C4801F049FA8C4B626B1A4206
:102A800003D05621884801F041FA894BE26B1A4283
:102A900003D05721844801F039FA2378022B03D15F
:102AA0000022A37F934201D063685A1E237F002136
:102AB000581E834118040823A768BB4249410733C5
:102AC0001A4080239B0413430343C9020B432B602A
:102AD0002800276BFFF760FF874203D36C21724801
:102AE00001F014FA2800A76BFFF756FF874203D3C3
:102AF0006D216D4801F00AFA2800676AFFF74CFF64
:102B0000874203D36E21684801F000FAC022217881
:102B100092040B0613402B64607FE76A431E9841C2
:102B200083010093A37C07205A1E9341227C9B02C1
:102B30000193531E9A411302627C0293531E9A41E1
:102B40005302F02203937B1E12031B041340627B8B
:102B5000013A02401343A27B2930120102401A437A
:102B6000009B1A43019B1A43029B1A43039B1A437F
:102B7000AA64207B431E9841E37B0002002B00D017
:102B80008DE002394B4259414B02A268511E0F227F
:102B900011400143C020194380002950FF21A3693F
:102BA00009041B040B406169C9B20B43C4218900AD
:102BB0006B502B581A400332974201D3102F03D980
:102BC0008421394801F0A2F90021E37F22788B4269
:102BD00003D0531E59424B41190207203027637B13
:102BE000013A013B0340A07B0001384003430B4303
:102BF0006B64237B0F20591E8B411902A368013B94
:102C000003400B4351424A41120413438022FF21E7
:102C10009200AB50236B05320B40FF32AB50631C6C
:102C2000DB7F5F1EBB415F06A31CDB7F013B58427D
:102C300043411806230028331B78013B5A42534175
:102C40001A04636A0B403B43034313432B65A36B96
:102C5000626B194081239B00E950164B30001340F2
:102C6000154AAB50E36B154A1340154AAB5000238D
:102C70009E4209D01800134A7360B3603360F3605A
:102C800033623363F362726305B0F0BD0023A27F49
:102C90009A4200D1C5E663685A1E0623BEE6802329
:102CA0009B0072E70848EFE7DBBC061092F4FFFFD9
:102CB0008CF8FFFF6D0B0000C80F000073070000C9
:102CC000880F0000EFCDAB000160AA00036810B5CB
:102CD0000400002B07D0012001F00EF92368013B0E
:102CE0002360002B01D0002010BD0148FCE7C04646
:102CF0000200B200030A08704B70030C000E8B70C8
:102D0000C870704770B504000D00002841D000293C
:102D10003FD0002B3DD05A62F9220321D2008358C4
:102D20008B4383502B68DBB2012B03D957311A48F0
:102D300001F0ECF8AB68DBB2032B03D95B2116483A
:102D400001F0E4F86B68072B03D95C21124801F00D
:102D5000DDF8EB68DBB2012B03D95D210E4801F0F1
:102D6000D5F8C022E021AB6892011B0313406A68CA
:102D7000C90212040A4013430122296800200A40B4
:102D800080211343EA68490412060A401343236072
:102D900070BD0248FCE7C04636BD06100400B20014
:102DA00010B50400012907D9A021074801F0AEF8A9
:102DB00001232268134304E00029F9D101220368AA
:102DC0009343236010BDC04636BD061070B54E1E3D
:102DD000F3B204001500012B07D9042925D00829D6
:102DE00027D0E521154801F091F8032D03D9E621FC
:102DF000124801F08BF8072E14D8300003F07EFE45
:102E0000041312171212121B80231B01E418002C4A
:102E100008D0C0222D04920223681540084A1340AE
:102E20001D43256070BD8823EFE7032ADFD8902378
:102E3000EBE7032ADBD89823E7E7C04636BD061048
:102E4000FFFFFCFFF0B5160089B005930EAB04CB75
:102E500001901B780291049310AB1D78331FDBB2F5
:102E60000392129CFA2B04D83E213B48FF3101F01B
:102E70004DF8049B043BDBB2FA2B04D89F21364863
:102E8000490001F043F86B1E012B08D9FB222B1FD0
:102E9000134204D040213048FF3101F037F8119B34
:102EA0002D02DF07039B3604002B46D0059B002B29
:102EB00004D1A0212848490001F028F8049BFF2BE9
:102EC00004D142212448FF3101F020F8F0231B01F6
:102ED0001D40636A0793C0239B021E40029B2B4345
:102EE00033433E0C00270024C0221F43019B2000D7
:102EF0001F650727049B92021B0413401D43039B7D
:102F00009C4202D2154B984201D109B0F0BD019B01
:102F10005B6C3B40032B0CD8059B03991B5D013474
:102F20002B4332008C4200D200221343019AE4B2B8
:102F3000136507A8FFF7CAFEE1E7F0231B011D4058
:102F4000636A3F0C0793C0239B021E40029B2B43E6
:102F500033433E00C7E7C04636BD06100200B2004C
:102F6000F7B50093043BDBB205000F001600099C87
:102F7000FA2B04D8AA211948FF3100F0C7FF731EAD
:102F80000193174B721E9A4204D9D5211348490068
:102F900000F0BCFF07226B6C1340032B1CD8C0222F
:102FA000009B92021B0413406A4680219288C9024A
:102FB0000A4313432B65381E0DD0089B2760F92266
:102FC000A660E36102230020A361D200A958013B5F
:102FD0000B436660AB50FEBD0248FCE736BD0610F1
:102FE000FFFF00000100B200F7B50193043BDBB224
:102FF00005000F001600099CFA2B03D81549164846
:1030000000F084FF002E21D007226B6C1340032BAD
:103010001ED88023C021721E1B0392B21A43019B4B
:1030200089021B040B4013432B65381E0DD0089BEF
:10303000E760F9226661236204230020A361D200C5
:10304000A958023B0B432661AB50FEBD0348FCE789
:103050000348FAE76D02000036BD06100400B20016
:103060000100B200F0B51F00043BDBB28FB00600D8
:103070000D001400FA2B03D85A495B4800F046FFB4
:10308000002C00D1AAE00722736C1340032B00D957
:10309000A6E08023621E92B21B031343C0223F04AA
:1030A000920217401F433765281E0ED0149B002044
:1030B0005B6A07950393042309940C900A930A9B77
:1030C000042B02D1494B984201D10FB0F0BD099BAE
:1030D000079C00933300C43301931D680F231D40E8
:1030E000009B9D4200D91D00002D17D1009B079425
:1030F0000993002B0CD1F92202210320D200B358EE
:103100008B43B3500A900C9B002B01D00C9B98472B
:10311000009B03A80993FFF7D9FDD0E7082D0AD13A
:103120003700D83738682100FFF7E4FD3868211DE3
:10313000FFF7E0FD05E0012D09D13300D0331B6816
:103140002370009B64195B1B0093019BC5E7022D54
:1031500006D13300D4331B6823701B0A6370F0E779
:10316000032D0AD13300D4331B6823701B0A63700C
:103170003300D0331B68A370E3E73700D8373868D3
:103180002100042DD4D0052D06D1FFF7B3FD330067
:10319000D0331B682371D4E7062D08D1FFF7AAFDB1
:1031A0003300D4331B6823711B0A6371C9E7072DF1
:1031B0000CD1FFF79FFD3300D4331B6823711B0A2A
:1031C00063713300D0331B68A371BAE7FFF792FD38
:1031D0003868211DFFF78EFD0825B2E7044874E723
:1031E000044872E7CA02000036BD06100200B200B1
:1031F0000400B2000100B20000290CD00722436C89
:103200001340032B09D8C023013989B21B0319438A
:103210000165002070470248FCE70248FAE7C04613
:103220000400B2000100B20000230B604B608B6011
:103230000B61CB604B618B61802302681B061343DB
:10324000036070470268436970B51D20042A21D1CC
:1032500000200125053A1A604A78D206120F2C0088
:10326000160084402640B44206D001300528F6D12D
:10327000FF2200201A7170BD0428F9D009180A79BC
:1032800040001A601D3000221A715A71F3E723289A
:10329000EED002300A5CFF2AF9D01A60F3E7000092
:1032A000F0B500270C0087B00E9D060010000A79CB
:1032B00009680495039702936379C9B201930323C4
:1032C000009303003000FFF7BDFDB84216D121691D
:1032D0003000FFF791FFB84210D1237D0C9A009087
:1032E00001950D993000FFF77FFEB84206D16C6A58
:1032F0000A4BAA69032A01D0984201D107B0F0BD58
:1033000000208442F5D00130013C00F0F5FD604220
:103310006041024B40421840EAE7C0460200B2005A
:10332000F7B500258C79C0B20134E40001942F0078
:1033300008248446085D84450BD10E19F079FF28D6
:1033400007D17078B84204D3B678012E01D10700B6
:103350002500019808348442ECD9002D0BD049197E
:103360000879907048795070887910700020CA7878
:1033700092001A60FEBD0148FCE7C0468000B20022
:1033800030B58B6987B0DB680C001500002B0FD0BF
:1033900019681A79012303932378C9B20293FF2392
:1033A0000193002304950093FFF74CFD07B030BD57
:1033B0000048FBE78000B20070B516000022040050
:1033C000080086B00A9D03920495190003780092C4
:1033D0000293FF23200001931300FFF733FD002821
:1033E00006D103000095012231002000FFF73AFECC
:1033F00006B070BD30B50F24012385B08D696C44D3
:103400002370AB6A002B0BD01B680092DBB222004A
:10341000FFF7D2FF002803D12378AA6B1340237053
:103420002078431E9841C0B205B030BDF0B587B0DA
:1034300017000C9A05000C001E00FFF7A1FF0028E2
:1034400012D1A3690122DB6B022B00D0130003927F
:1034500022780C99029200220491009301923B0081
:1034600031002800FFF7EEFC07B0F0BD0023F0B5F7
:103470008F6989B00D00F96A07AC060002922380BB
:1034800099425FD03A6B9A425CD0BB6A002B59D00C
:103490001B68096812680593029BC9B203910492E4
:1034A000009322000B002900FFF786FF00282FD190
:1034B0006B46FF6B1B7C0493402F1ED0802F29D0BE
:1034C000022F41D16B46029A1B7D290000923000E9
:1034D0002200FFF771FF00281AD10D22029B04A9D8
:1034E00000935218039B29003000FFF765FF002866
:1034F0000ED163781F43677002E023781F43277063
:103500002200029B0093049B29003000FFF78EFFEE
:1035100009B0F0BD0D22029B04A900935218039B31
:1035200029003000FFF748FF0028F1D1802362789E
:103530005B4213430D226370029B04A9009352184F
:10354000049BE1E70148E3E70148E1E78000B200BE
:103550000300B200F0B51F008B6989B01C6A05003A
:10356000002C47D0002A47D0586A0E9EB04243D361
:103570004869C6B24869002800D10E7821682079D0
:10358000C9B20791109902960491002103916179C3
:1035900001911B6807990093130002002800FFF7B0
:1035A00051FC002824D1A1684B1C12D121690029AB
:1035B00004D02800FFF720FE002819D1109A237D9F
:1035C00001920F9A3900009228000E9AFFF7C8FC6A
:1035D0000EE0109B227B0493FF2303900193009045
:1035E0000300C9B202962800FFF72CFC0028DDD0AA
:1035F00009B0F0BD0148FBE70148F9E78000B200DF
:103600000400B200F0B5BFB006900D0007921F0095
:10361000002903D1C249C34800F078FC002308AA5E
:103620001380937009AA138093706A6B0CAC059297
:103630001A001A550133642BFBD13A0007990698FA
:10364000FFF7C4FB059B002B04D1B74B04930498F0
:103650003FB0F0BD449B01940293382308AA009325
:103660000599079B0698FFF71BFE04900028EED1F2
:10367000A379062BE9D82378532BE6D16378462B20
:10368000E3D1A378442BE0D1E378502BDDD123792B
:10369000052BDAD96379012BD7D100240AAB09AA0B
:1036A0000CA9A2480A94FFF73BFEFF200BAB08AA27
:1036B0000CA900020B94FFF733FE0490A042C6D180
:1036C000AB68A34203D19A49964800F01FFCEB680F
:1036D000002B03D19749934800F018FC2B69002B6D
:1036E00003D195498F4800F011FC6B69002B03D181
:1036F00092498C4800F00AFCEB69002B03D19049F9
:10370000884800F003FC2B6A002B03D18D498548C3
:1037100000F0FCFBAB6A002B03D18B49814800F021
:10372000F5FB449B0CAC02930B9B08AA00930194FD
:10373000079B05990698FFF7B3FDA37804905B07F4
:103740009B0F0022032B01D0804AD25C0D9B2A6084
:10375000002B36DB0133DB08012211006B6016AB56
:103760001B7804201B09994006236962E9680B60F5
:1037700000230B7129690B7108600521AA63AA6AED
:103780001371EB6A1160002B03D17149654800F099
:10379000BDFB2B6B002B03D16E49624800F0B6FBDA
:1037A00000222B6B04A91A715A3252181078400665
:1037B000400F052810D8012203F0A0F9086F757B8F
:1037C0006F6F8022033B12061343C5E7012252426A
:1037D000EA631A60EB6A1A606022EB691F241A60C0
:1037E00000221A710F23159A16991A4001325000BF
:1037F0000A0E2240013242434800800F564E4000DC
:10380000805B0B4042436A640A0A144040228904E8
:1038100000D4383A0221013301345B00634353433F
:103820000CAEAB64AC68B3788F43012F48D0202234
:103830001A405FD0737A6171236000232371337A59
:103840005B0953D1013BA3601F220CAB1B7A0527F8
:1038500013402361022323752B68042B00D038E129
:10386000449B09AA029325AB01930A9B05990093F7
:103870000698079BFFF714FD049003000120002B1E
:1038800000D0F1E0791E259B042900D992E00800C0
:1038900003F034F9A6A29E9A8C000221E9631A6013
:1038A000EB6A352297E74021E9631A60EB6A05224B
:1038B00091E78022EA63423A1A60EB6A01328AE7B2
:1038C00010221A4051D0F37B6771236000232371CB
:1038D000B37B5B0945D1013BA3601F220CAB9B7BF3
:1038E00003271340236101232375B5E7FF232173C9
:1038F000A360A9E7FF275B06AED5F37A22712360A8
:103900006271B37A5B0929D1013BA3601F220CAB22
:103910009B7A042713402361022323759CE7C0464A
:10392000AB090000A0BD06100500B20084FF000036
:10393000E4090000E5090000E6090000E7090000CD
:10394000E8090000E9090000EA0900008DBD061041
:10395000C8080000C908000098BD0610A7602273BF
:10396000D4E7FF232773A360B7E73B4015D0737BF1
:10397000227123606271337B5B090AD1013BA36032
:103980001F220CAB1B7B02271340236101232375ED
:1039900062E7FF232273A360F2E703222260043A66
:1039A00023716371A2602361237555E79B0601D5DE
:1039B000EC2323602B6A259A04294ED8080003F0D3
:1039C0009DF8797979311300DB06F3D56C23F0E7A4
:1039D0001B07EFD5BC23ECE75B07EBD53C23E8E7FF
:1039E0009B07E7D50C23E4E7802401206400144002
:1039F0004042002C0AD03E2200211A603C3A197144
:103A00005A7198601A7319611A7526E08021114065
:103A100018D034221C711A605C7198601C731C6190
:103A2000323AF1E78021012011404042002909D0BB
:103A300034221A60002298601A715A711A731A613E
:103A40000232E1E7402422402CD0122219711A6080
:103A50005971986019731961197525A92800FFF724
:103A6000F1FB002800D1F2E501233618013E32783F
:103A70001B389340AB610723159A40085843130045
:103A80000738C3400F210A40D9050132C90E013160
:103A900052005B054A439B0F15495B005B5A5A4332
:103AA0002A64D4E502211A7119605A7198601A7358
:103AB0001A61A9E740210A404139002A06D01222A2
:103AC0001A6000221A715A719960F0E7022018609A
:103AD000F8E702222B6A01211A600022494299600C
:103AE0001A715A711A731A611A750CA9B6E7C04691
:103AF00090BD0610F0B589B0061E079200D12DE1E9
:103B0000002900D12AE14B680593002B00D125E163
:103B1000002A00D122E10B680693002B00D11DE1A1
:103B2000002303930493039B059A9B00D458002C15
:103B30004FD023785A1E012A08D9FB22043B134296
:103B400004D099218648490000F0E0F9237A032B3C
:103B500004D934218248FF3100F0D8F9A369002B41
:103B600004D19A217E48490000F0D0F9A3691B686E
:103B7000013B032B04D936217948FF3100F0C6F907
:103B80002278501E072800D9E6E002F0B7FF043281
:103B9000E534E5E5E5368023C0201B01F518237ADE
:103BA00080021F04296838406E4F39400143296064
:103BB0006168490723D5079930000091A169FFF793
:103BC00021FD00281BD00823039A9340049A1A432E
:103BD0000492039B01330393039A069B9342A2D161
:103BE0000020049B002B02D0B2200004184309B02F
:103BF000F0BD8823D0E79023CEE79823CCE7636815
:103C00009B07E6D52169E06803F008F8002904D095
:103C100052215348FF3100F079F92369524A934207
:103C200002D95A1E134204D0A9214D48490000F080
:103C30006DF9FF27E168A069B9438268036AA9604A
:103C400021694942B943E960016803200139014013
:103C50006069471EB841000201432962002A37D03B
:103C600010680021471C0CD0117909048C46C02132
:103C7000674689023940FF27074080200006074336
:103C80003943C020296451798002090497680140B2
:103C9000696484460021781C08D06046117BFFB21D
:103CA0000904084080210906394301430020A96422
:103CB0001169814205D01F30013901408020000682
:103CC0000843C021E864127D890212040A402A6573
:103CD000002B32D019680022481C09D0C0201A7964
:103CE0008002120402408020C9B2000601430A4348
:103CF000C0202A665A7980021204996802406A66D6
:103D000000224F1C07D01A7BC9B212040240802047
:103D1000000601430A430021AA661A698A4205D0B7
:103D20001F31013A0A40802109061143C022E96689
:103D30001B7D92021B0413402B67C0220221237AB1
:103D400092021B0413406268FF3111408022120668
:103D50000A4313432B603CE7044842E7034846E725
:103D6000A0BD0610FFFFFCFFFFFF00000400B20033
:103D700070B5194E050033680C001A00283212780D
:103D80001F2A15D882080721100088430FD103206D
:103D90002840C00084401B68920020339B182200FA
:103DA000FF24844019684A4014404C401C6070BD98
:103DB0001B8F8B4203D18021084800F0A7F833689D
:103DC00007201A68802328401B06184380239B0184
:103DD000E418A400A050EAE78CAF0208FFBD06106B
:103DE0000A4B70B59B680A4E10300D008400B34238
:103DF00009D1002904D142210648FF3100F086F89C
:103E00003059355170BD044B1859FBE700ED00E007
:103E100000A00208FFBD061000000610F8B506005D
:103E20000D00002841D04368032B03D93C212048D2
:103E300000F06CF80023F05E002828DB7188FFF7A3
:103E400097FF0024FF22032794460023F05E716849
:103E500083B21F40FF006646BA4089013140D24319
:103E6000B940002815DB134E83089B009B19C02620
:103E7000B6009F593A40114399510F4B9A680F4B26
:103E80009A4202D12900FFF7ABFF2000F8BD0C4C8D
:103E9000D8E70F263340083B074E9B089B009B1931
:103EA000DE6932401143D961E7E7054CEDE7C046D2
:103EB000FFBD061000E100E000ED00E000A00208F8
:103EC0000100560070B5802504002D02AC4205D8D3
:103ED000064B18686043FDF7AFFE70BD044B1868D1
:103EE000FDF7AAFE034BE418F0E7C046F0A0020875
:103EF000E8A002080080FFFF10B5034B1B78584371
:103F0000FDF79AFE10BDC046F4A0020870B50D0082
:103F1000044C01001822200003F0E2FFA56101BE5D
:103F2000FEE7C04690A70208FEE7000002680A4BC1
:103F300010B5DA6142681A6282685A62C2689A628F
:103F40000269DA6242691A6382695A63C2699A63D2
:103F5000FFF7EAFF10BDC04690A70208B0235B053B
:103F60005A782120002A01D05878C0B27047B02377
:103F70005B059A89002A02D0988980B27047802018
:103F80004000FBE710B5074C23682E331B78002B4D
:103F900004D1E92104484900FFF7B8FF2368186AF3
:103FA00010BDC0468CAF0208F8B606107FB50600FB
:103FB0000D00042803D92E492E48FFF7A7FF6B1EDA
:103FC000012B07D9FB222B1F134203D02A49294872
:103FD000FFF79CFF294BB600F458042D01D0012DAA
:103FE00027D100200FE0A3682B420BD1E368290002
:103FF0001A685B6802920193039302A823689847AA
:104000001F4B1C606469002C0BD01E4B9842EAD1F8
:10401000012DE8D11A4B1B481A681B4B9A5104B06A
:1040200070BD012DFBD1174B9842F3D0164B9C511C
:10403000F5E7022D06D1124B1B68181EEFD01C6944
:1040400003E01C006369002BFBD10020002CE6D0AC
:10405000A3682B4209D1E36829001A685B680292C1
:104060000193039302A8236898472469EEE7C046AA
:10407000F509000058BE0610F60900003CA8020829
:1040800038A80208FF00420024A8020810B5041E48
:1040900003D111491148FFF739FFF222104BD20129
:1040A0001B68DB689A582260F022D2019A5862603D
:1040B0000C4A9A58A2600C4A9A58E2600B4A9A58E5
:1040C00022610B4A9A5862610A4A9A58A2610A4AC6
:1040D0009B58E36110BDC046140B000058BE06108B
:1040E0008CAF020804780000087800000C7800000B
:1040F00010780000147800001878000010B5041E35
:1041000003D110491048FFF701FFF0220F4B6168FF
:104110001B68D201DB689950A1680D4A9950E1688B
:104120000C4A995021690C4A995061690B4A99507F
:10413000A1690B4A9950E1690A4A99502168E8320D
:10414000995010BD3C0B000058BE06108CAF020801
:1041500004780000087800000C7800001078000057
:104160001478000018780000F7B50700012803D97B
:1041700040494148FFF7CAFE404D6B68002B4AD1C9
:10418000FDF763FD6B680190002B56D13C4E336800
:104190001A0041321278002A07D09B68E0331B686E
:1041A000DB0602D53748FFF771FFFFF7E0FE8023FB
:1041B0005B00984246D1380007F096FA0024336835
:1041C0001A0041321278002A17D0002815D09B68B7
:1041D000E0331B68DB0610D5FFF7C0FE294B212812
:1041E00008D032681300AC33198807234B43126A96
:1041F0009B18DB681800FFF781FF0198FDF729FD88
:10420000002C0ED16B68002B03D008210120FFF792
:10421000CDFE2000FEBD01210800FFF7C7FE041EF1
:10422000AED06B68002B03D002210120FFF7BEFE49
:10423000154B9C42EDD0154CEBE704210120FFF714
:10424000B5FEA3E7FFF79EFE3368B0331B68C018C6
:104250000368002B0BDB04230D4A11690B43136128
:10426000012F02D030BF0020A8E720BFFBE70020CD
:10427000054CA4E7B202000058BE06103CA8020894
:104280008CAF020804A8020805004200FF004200AB
:1042900000ED00E0C0228020064952008B58C00586
:1042A0009B009B0803438B50802388581B060343C5
:1042B0008B507047000026407047FFF7FDFF72B635
:1042C000114C124DAC4209DA21686268A368043BC4
:1042D00002DBC858D050FAE70C34F3E70C4B0D4C16
:1042E000A34208DA19685A680020043A01DB8850B2
:1042F000FBE70833F4E7084808490860BFF34F8F2D
:1043000000F05EFBFEE7000028CE061040CE06104F
:1043100040CE061050CE061000A0020808ED00E0C6
:10432000FEE7FEE700B504207146084202D0EFF335
:10433000098001E0EFF308800430FFF7F7FDFEE7A6
:1043400010B50020FEF710F910BD0000F8B5E0230D
:104350004E4C9B00E2580F23D02107201A409300B7
:104360001B1989005958014065D0042959D0484883
:10437000002A65D1B223B1220321DB00D200E55827
:10438000A358A6581B0F360F0B400E4204D0A2585C
:10439000120F0A40012A01D1EA0701D4032B11D1DF
:1043A000B0233C4ADB00E658A158E558C904C90CC3
:1043B00002F0AEFBB3039B0B5843E901C90F013177
:1043C00002F0A6FBE0239B00E358334A9B069B0FB9
:1043D000D840324B1860324BD458D158240A090EB9
:1043E000013102F095FB2F4BE1B21860013102F070
:1043F0008FFB2D4B040018602C4B2D4918602D4B62
:10440000C01802F085FBFA212B4B890018702B4B4A
:10441000E01802F07DFB2A4B18602A4BC00318609D
:10442000F8BDC0211F20890059580140112904D12D
:10443000802000029CE724489AE7FA20C00197E711
:10444000013A012ABED80327204A9E58204A99588B
:104450009D582D0F3D4204D09D582D0F3D40012DFC
:1044600001D1F50703D48900890F0329AAD19E58E9
:1044700099589D587F2333401F26090A31405843DD
:1044800002F046FB290C31409AE7C0460000264066
:1044900000366E018405000000002040E0A0020804
:1044A00008100000E4A00208DCA00208ECA002084A
:1044B00040420F003F420F00F4A00208E703000053
:1044C000F0A00208E8A0020800127A003C060000F2
:1044D000FC0500009023034A5B01D05803231840D9
:1044E0007047C0460000204010B59024FDF7ADFB9A
:1044F000074B64011A5907491140074A0A431A51E8
:10450000102259681142FCD0FDF7A3FB10BDC04634
:1045100000002040FCFF00000100FA05F8B507008C
:10452000830504D0F92110484900FFF7EFFC9025DE
:104530000E4C6D01FDF789FB63590600DB439B07B9
:1045400001D1FFF7D1FF80239B00E7506359084A50
:104550001A40084B13436351102362681A42FCD07F
:104560003000FDF776FBF8BDB0BE0610000020401D
:10457000FCFF00000300FA0510B5104C104A0221A0
:104580002000FDF7CFFC0F4A03212000FDF7CAFCF5
:104590000D4A04212000FDF7C5FC0C4A052120002E
:1045A000FDF7C0FC0A4A06212000FDF7BBFC094AC2
:1045B00007212000FDF7B6FC10BDC0468005314044
:1045C00060C00610F8BF0610C4BF061090BF0610EA
:1045D0005CBF06102CC0061070B562B6FFF75AFE1D
:1045E000C0220124234952008B582348A3438B50F7
:1045F000224A0221FDF796FC2100214A2148FDF7BD
:1046000091FC80208022204BC0001B68D205996855
:104610001E4C0A501A0070321288521811680C4051
:10462000D4218901214311601C001A006E346C32C0
:10463000247812789968A2401C006F3425780324EE
:10464000AC4022438024240622430A503D331B7889
:104650000A58052B02D900220D4BCA500D4C0E4AA8
:104660000E492000FEF79EF9802322681B061343A3
:10467000236070BD000026400000314028BF0610B6
:1046800094C00610800231408CAF0208FF00FFFF8B
:10469000140C00000000654050A80208C8C00610B5
:1046A00070B50A4D04002B682E331B78834204D862
:1046B000E92107484900FFF729FC2B681A00AC32B2
:1046C00010884443186A201870BDC0468CAF020899
:1046D000F8B6061010B50448044A0021121A02F078
:1046E00069FDFBF79DFD10BD0000010800A0010859
:1046F00013B50024E8230194019A9B051343019309
:10470000019B090419430191019B000218430123F5
:104710000190019A200013430193FFF7C1FF154A4E
:104720000168002906DB944202D10120404216BDF7
:104730000134F5E79442F8D0019BC3600123836004
:104740000D4B1B68B0331968002341180C68002C0E
:1047500003DA9342E9D00133F8E79342E5D0C36826
:1047600000200193A023019A1B069A42DFD00198F2
:10477000DDE7C046983A00008CAF020870B50D4DD9
:10478000EB78013B012B0AD9AB790024013B012BCB
:104790000BD801210220FFF7ABFF040005E0012147
:1047A0000800FFF7A5FF041EEED06420FFF78AFB88
:1047B000200070BDE8B0020870B51D4B1D4D04000F
:1047C000EB58032B09D0FFF7D9FF021E05D01A4B77
:1047D0001A491B68D86802F047FC194B1B68002B6C
:1047E0000EDA0220FFF75CFF164BC360124B16482F
:1047F0001B68D96802F092FC72B606F06DFF62B6D3
:1048000082220120114992008E588B58F605DB0B4D
:104810000340F60D9B19002BF6D189235B01EC5068
:104820000B4B9C60236883F3088863689847FEE716
:10483000C42000000000204044A1020850C106101E
:1048400000012640214334127DC10610000065405E
:1048500000ED00E070B50400FFF790FF021E05D0E8
:10486000214B22491B68D86802F0FEFB204B1B68D5
:10487000002B24DA0220FFF713FF1E4BC3601A4BF4
:104880001D481B68D96802F049FC72B68026902545
:104890001A4B1B4AB6009A516D015A5919491140D9
:1048A000194A0A435A511D0010236A681A42FCD063
:1048B0000120FFF707FBAC5106F00EFF62B6822124
:1048C00001251248890042584358D205DB0B2B4082
:1048D000D20D9B18002BF6D12000FFF71FFE002001
:1048E000FFF742FCFBE7C04644A1020850C1061096
:1048F00000012640214334127DC1061000002040F3
:1049000000400016FCFF00000300FA0500006540AF
:1049100010B5002822D1124C12482368D96802F041
:10492000FDFBFFF72BFF021E04D023680E49D86859
:1049300002F09AFB0D4B1B68002B0ADA0220FFF7EE
:10494000AFFE0B4BC36023680A48D96802F0E6FB50
:1049500072B60948FFF7E2FD06F0B6FE10BDC0468C
:1049600044A1020808C1061050C1061000012640EB
:10497000214334127DC106100040001610B50B48CB
:10498000FDF76AF9FFF7E2FC094A80210320FDF7F1
:1049900053FE0848FDF778FC074B1B684D331B7826
:1049A000002B02D00548FDF7DDFC10BD6CBA0610E7
:1049B0001CC0020888A802088CAF020890C106102B
:1049C000F0B5744D89B0FFF7D9FF734A0221280072
:1049D000FDF7A8FAFFF700FE704C714A714B724E5A
:1049E0001A6023683000D96802F098FB23686F4F83
:1049F000D968380002F092FBAC235B002068019379
:104A00000023009301226A49C06802F02DFB23684D
:104A10003800D96802F082FB300004262368D96888
:104A200002F07CFB23686348D96802F077FB6E6074
:104A30006148FDF701F98020AE6002AA03A9400099
:104A4000FCF7F0FF051E00D09FE05C4E03005C4ABF
:104A500031000398FBF762FE051E00D095E0B278A6
:104A6000022A05D923685749D86802F0FDFAB570C3
:104A7000F021F268544B090652189A603269DA60E4
:104A800072695118D961B0691862B778002F37D0B0
:104A9000FFF772FD013F4D4BBF00FB584C4E33609A
:104AA00000F034FA071E06D02368050002004949C9
:104AB000D86802F0D9FA484A3168484800F098FAB4
:104AC000002F08D123684648D96802F027FB01214E
:104AD0004248FEF765F968426841FFF719FF23680D
:104AE0004048D96805AD02F019FB280001F092FB9F
:104AF0002368D96800280DD03B4802F00FFBFEE781
:104B00003A4B9942E7D9236839497770D86802F05F
:104B1000ABFAE0E7374802F001FB04A9287900F07E
:104B200003FB43425841FFF7F3FE049BAD68ED18C9
:104B3000059B1B89ED18FFF7CDFD43425841FFF758
:104B4000E7FE1E4B1878042819D801F0D7FF070795
:104B50000303100002210020FDF7E0FD2800FFF70D
:104B60002BFE23682448D96802F0D8FAFEE7062114
:104B70000E20FDF7D3FD2800FFF76CFEF1E7236858
:104B80001948D96802F0CAFAFEE723682A001B49CF
:104B9000BCE7C0460000314028BF061044A102080F
:104BA000C0C6061090AF020860C406106AC40610A2
:104BB000ABC40610E0C40610006CDC0294AF02081F
:104BC000E8B00208FCC4061000A10208F8A0020820
:104BD00008AA020837C5061078B102080000424052
:104BE0006DC50610F7C506101BC60610FFFFFF07B0
:104BF0008AC5061041C6061068C6061086C606108D
:104C000010B5040021000348FDF7B2FE0028F9D0DA
:104C100010BDC04600006540C221044A89005358B7
:104C2000DB05FCD0D0239B00D058704700006540C6
:104C3000437802781B021A438378C0781B0413431D
:104C40000006184370470000F7B5A54BA54A9A58CF
:104C5000D10700D47BE00F22A34FBB683D680093CF
:104C6000A24BDC6F0193009B1440073A141B9C423B
:104C700000D91C009E4E002C18D1009B3D60BB60EB
:104C8000002B0CD1F92201209549D2008B58834387
:104C90008B50B861FB69002B01D0FB699847F82362
:104CA0000122DB008E49CA50CB58F7BD082C16D123
:104CB0002800FFF7BDFF3060281DFFF7B9FF306007
:104CC000009B2D191B1B0093019BDC6F0F231C40C5
:104CD000073B1C1B009B9C42CDD91C00CBE7012C41
:104CE00003D12A78834B1A60EAE7022C06D12A788E
:104CF0006B781B021343804A1360E1E7032C07D152
:104D00006B782A781B0213437B4A1360AA78E9E781
:104D10002800FFF78DFF042CD1D03060052C01D185
:104D20002A79DFE7062C02D12A796B79E1E7072C93
:104D300007D16B792A791B0213436F4A1360AA7952
:104D4000D0E7281DFFF774FF08243060B8E791070B
:104D500000D4A4E00F22644D68496C69EB680868D0
:104D60008C460240A24200D922006549654E002AC5
:104D700016D1EB606C61002C0DD1F922022158484C
:104D8000D20083588B4383500320A8612B6A002BE9
:104D900001D02B6A9847F8236C61DB00022281E77F
:104DA000082A19D10868070A18705F70070C000EEE
:104DB0009F70D8700868070A18715F71070C000EA1
:104DC0009F71D8719B18A41A62460F201268024086
:104DD000A242CCD92200CAE7012A03D14A4800687E
:104DE0001870EFE7022A04D130681870000A587072
:104DF000E8E7032A07D130681870000A5870424863
:104E000000689870DEE7042A08D10868070A18705D
:104E10005F70070C000E9F70D870D3E7052A0BD186
:104E20000868070A18705F70070C000ED8703648C3
:104E30009F7000681871C5E7062A0CD10868070A38
:104E400018705F70070C000E9F70D8703068187172
:104E5000000A5871B6E7072A0FD10868070A1870C8
:104E60005F70070C000E9F70D87030681871000AD0
:104E70005871254800689871A4E70A68100A1A70EA
:104E80005870100C120E9870DA700A68100A1A71B5
:104E90005871100C120EDA719871082292E70421F1
:104EA0000A4207D00520104A9061F822D20099509A
:104EB0009B58FAE608210A4202D00B4A0620F3E783
:104EC0001020024206D00721074A9161F822D20041
:104ED0009850EDE72020024200D1E6E6024AF4E7CE
:104EE00000004240CC07000078B1020808004240B0
:104EF000980042409000424094004240C40042402A
:104F0000D8004240D4004240D000424073B56846C9
:104F100002001E4B12CB12C262B61D49FEF77EFF85
:104F2000021E05D01B4B1C491B68D86802F09CF878
:104F3000FA221A4D92002B0019491A48FDF7E2FE99
:104F4000041E1ED1020001211648FDF73FFF290073
:104F50001448FEF769F90F4E13483368D96802F018
:104F6000DDF82A0011490F48FEF7C4FD041E08D1E0
:104F700033680F48D96802F0D1F821000948FDF7DD
:104F80000FFF80220B4B20001A6076BDCCC60610A6
:104F9000494C061044A102084BC7061078B102081C
:104FA000C4C70610000042408BC7061044C4061058
:104FB000A8C7061000E100E00C4B1B689B691B684A
:104FC000032B08D10023CB7083B21B0A88704B706F
:104FD000000C08707047042BFCD183B2C8701B0A08
:104FE000000C48708B70000AF3E7C04608AA02085C
:104FF000F0B50F2787B002ABFF18002316003B70F7
:105000008B690500DA6BDB6A03921B683A00DBB23E
:1050100000960C00FEF7D0F9021E06D0104B114985
:105020001B68D86802F020F813E06B463A781B7BC7
:105030001A409A420DD0320021002800FEF716FADD
:10504000021E08D1320021002800FEF7D3F9002803
:10505000F8D107B0F0BD024B03491B68E1E7C04639
:1050600044A10208D4C6061010C70610F0B589B0D6
:1050700004000E00049217221A4D0593296802A815
:105080008B6912189F6ADB6A20001B680096DBB2EE
:10509000FEF792F9002823D1320029682000FEF79C
:1050A0006FF900281CD1059B019000930296049B88
:1050B0000E9A29682000FEF74DFA002810D1320020
:1050C00029682000FEF796F90028F8D117223B68DE
:1050D00002A900965218DBB229682000FEF76CF98D
:1050E00009B0F0BD08AA020870B502684D68060054
:1050F0000120AA4212D38B680020EB189A420DD2ED
:105100000B694C69A3420AD2C868DC00041901206B
:10511000521B22607268013362600B6170BD0C2308
:105120005B428B61FAE7000010B502006F2809D0DE
:10513000074B084918686F23C06801F095FF1620D7
:10514000404210BD80235B050B600020F9E7C0469C
:1051500044A1020818C8061010B50F4B02001879B8
:10516000904215D0187E904214D018002C3004784C
:105170000120404294420AD1033014224243101DC0
:105180001818086000209B181A6901321A6110BDB6
:105190000020F2E70120F0E700A1020810B5021E8E
:1051A0000BD0011F0C4B0868984207D00B491378AD
:1051B00008680B49C06801F057FF10BD0B69002B50
:1051C00007D1064B12781B680649D86801F04CFFDE
:1051D000F3E7013B0B61F0E7EFBE0DD044A10208FD
:1051E000D4C70610F4C7061070B51D0080234468AC
:1051F0005B050C19E01829001600FBF78BF8002856
:1052000008D101210448FDF7CBFD2A003100200020
:1052100000F024F970BDC04600004240F0B51D000A
:10522000802387B0039242685B058C1806000291C8
:10523000E0182900FBF76EF800281CD1F022134F6C
:1052400012063B68DB689B18A34216D80100104881
:10525000FDF7A6FD3B6805AED8688023201A5B05E4
:10526000C0183100FFF7A8FE00962B00039A0949E9
:105270000748FFF7FBFE07B0F0BD7068029B2A00ED
:105280001818039900F080F9F5E7C04608AA02084B
:105290000000424078B102088023F0B546685B0503
:1052A0008E19C7B0F01811001500FBF733F8041E73
:1052B00020D1F022264F12063B68DB689B18B342D0
:1052C00041D801002348FDF76BFD802221005200E8
:1052D00006A801F06FFF3B688027D96880232A0A5F
:1052E000761A5B050392F6187F00039B002B17D0FC
:1052F000002C02D0200047B0F0BD05AC21003000EA
:10530000FFF75AFE00943B0006AA13491148FFF725
:10531000ADFE039B0136013B0400FF360393E4E737
:10532000EDB2002DE6D0002CE4D105AC2100300018
:10533000FFF742FE00942B0006AA07490548FFF735
:1053400095FE0400D6E72900300000F027F9F8E7C1
:1053500008AA02080000424078B1020810B500789F
:1053600000F08CF9C0B210BD01307047431E022B13
:1053700015D8022808D003280BD00A4B986808607B
:10538000DB68002013607047064BD86908601B6A11
:10539000F7E7F0231B030B6080235B01F1E701209B
:1053A0004042F0E700A1020830B589B00C001500BA
:1053B00002A903AA0190FFF7D9FF002811D12368A1
:1053C00005900693084B079001AA186807490495B1
:1053D00000F00EF80798002801D1059B236009B062
:1053E00030BD01204042FAE790AF0208E9500610B4
:1053F000F0B50024260043688BB002911B6906A912
:1054000005A8039298470194069BB34201D80BB0BC
:10541000F0BD059BF700DF197B68019D0893019B98
:105420003A68EB1A9A4202D801360195ECE70794E4
:105430000995039907A8029B98470028E7D0089B85
:105440000135E418EBE70000024B036001230B6019
:105450007047C04644C80610002070470B008021EA
:1054600010B549054118180001F09BFE002010BD41
:10547000F0B5264CF023A5440024039020001B0621
:10548000CB1801935B0A5B0204AF0292FD1A029AE9
:10549000A24201D900280CD01D4B984234D01D4B9C
:1054A000984231D0431E9841400085239B009D4483
:1054B000F0BD8022010092009E18019A9A421DD8E8
:1054C000029AA2421AD9039A125DEA54002906D11F
:1054D0008021490559180978511A4A1E9141013411
:1054E0000133B342E9D1002904D00B4B3900F01845
:1054F000FCF79EFC094BED183300C8E780225205EB
:105500009A181278EA54EBE70120CEE7ECFDFFFF92
:10551000020052000600520000FEFF0F00FEFFFFD7
:1055200000207047F8B5124C0023A1421CD91E0080
:10553000104C8D18AC425E410F4CA14215D91F0092
:105540000E4CAC425F413C000D4FB94202D90D4FA9
:10555000AF425B41344323430124002B02D0FFF7C9
:1055600087FF04002000F8BD1E0000242300F1E79F
:10557000FFFFFF0F00000810FFFFFF130080001463
:10558000FF070016000A00160B00802110B5490520
:1055900041181800FFF7C6FF10BD00008023F0B5CA
:1055A0005B05C0184518334CEB05A544C605DB0D5B
:1055B000F60D01936B0A039333005A1E9341400A80
:1055C000C0186B0A1B1A009343021F0000240293A9
:1055D000009B002B3ED1002E1AD0274A029B9446F6
:1055E00063441C001900320004A801F0DAFD200019
:1055F000FCF7E0FB43425841FFF78AF921003200F3
:1056000004A8FFF78FFF040060426041FFF780F9B4
:10561000019B002B19D08024A400E41A2200290049
:1056200004A801F0BEFD039B5802FCF7C3FB4342F4
:105630005841FFF76DF92200290004A8FFF772FF17
:10564000040060426041FFF763F9200085239B005E
:105650009D44F0BD3800FCF7ADFB040060426041A2
:10566000FFF756F980239B00FF18009B013B009336
:10567000AEE7C046ECFDFFFF00FEFFFF802080008C
:105680007047000010B510220949040001F07AFDAE
:105690000123002808D0230010332268013205D1ED
:1056A00004349C42F9D10323180010BD0223FBE708
:1056B00064C8061030B5040091B001200D00FFF75A
:1056C00027F9A168102310396A462000FFF78CFDE6
:1056D000002802D0012011B030BD6846FFF7D2FF8C
:1056E00028702378032B0CD10120FFF711F9A16852
:1056F0000123AA1C18392000FFF776FD431E9841AC
:10570000E9E70120FFF704F90120FFF701F9A1689B
:105710006A1C203901232000FFF766FD0028E3D032
:10572000D8E737B50D00C0B201A9FFF715FD012478
:10573000002807D129000198FFF7BCFF0400019859
:10574000FFF72CFD20003EBDF7B501206946FFF7AD
:10575000E8FF002801D0FF20FEBD01AC210002209F
:10576000FFF7DFFF0028F6D12078A678234C6B46A0
:10577000220019789D785F7812322378002B01D0AF
:105780008B422FD16378002B01D083422AD1A3789A
:10579000002B01D0AB4225D1E378002B01D0B342DE
:1057A00020D12379002B1BD1154B164A1B68D868D2
:1057B0006379022B06D0144A032B03D0134A042B1F
:1057C00000D0134A134901F04FFC022200206379F4
:1057D000023BDBB29A424041FFF79AF86079BBE79F
:1057E000BB42E1D006349442C7D1054B0A481B683E
:1057F000D96801F093FC0120AEE7C04674C80610DA
:1058000044A102088BC8061086C80610A2C806105C
:1058100090C80610A9C80610BFC80610F0B599B008
:105820001EAB1B780390049313781400302B03D025
:105830009520404219B0F0BD9378022BF8D108AD05
:1058400040220021280001F0B5FCE07822185379AD
:10585000811D1279C9180291022AE9D1C218617812
:1058600004329142E4D1202B00DD202301002028C6
:1058700000DD2021401A002205900FE0501A203050
:1058800007000598102684469444A4446046007995
:105890000132844604A880196646C6559142EDD16E
:1058A00000220299C91A64189A4212D10E2404AB3C
:1058B000E41821000498FAF7CDFE0028BAD140235D
:1058C0002088039A01930095203B0549FAF774FD5F
:1058D000B0E7D11AA05C403168540132E4E7C04619
:1058E00009000610002803D1044B1B7F18007047E5
:1058F00000230128FAD1014BDB7FF7E794AF0208C0
:10590000F0B5D1B00500029110A8584917000493D2
:10591000FAF7DAFD00284CD1569B002B3FD100242A
:105920002B89EA689B180393039BA34214D9039B1A
:10593000049E1B1B9E4200D91E0033003A0021002A
:105940000298FFF751FC002833D13200390010A82B
:10595000FAF7C8FD00282ED007AB202208A910A80E
:10596000FAF7D0FD002824D1589B002B04D0202228
:1059700008A9180001F015FCEB682C8906ADE418A5
:105980002A00042321000298FFF72EFC002810D1E2
:10599000374B2A889A4210D00120404209E0579B99
:1059A000002BBCDD1A00569910A8FAF79BFD0028C1
:1059B000B5D051B0F0BDA419B6E707006B880390CD
:1059C0001B19059304340490059B9C4205D3049B4A
:1059D000002BE1D003980138EBE707AE0423320037
:1059E00021000298FFF700FC0028E2D13378758887
:1059F000102B17D1202DCFD1211D2B0010AA0298DA
:105A0000FFF7F2FB0028D4D12A0010A908A801F062
:105A1000B9FB0028C0D10123049307AB5B88043392
:105A2000E418D1E7012B04D15998FFF75BFFC7B207
:105A3000F3E7222BF1D12B00483BB82BACD82B003D
:105A4000211D10AA0298FFF7CFFB051EA4D1738871
:105A500010AA0097202108A8FFF7E0FE2F000028D9
:105A6000DBD1012307000393D7E7C04609000001FB
:105A700007690000F7B50700002401262000FFF7A2
:105A800073FC01A9C0B2FFF767FB3500011E0AD104
:105A90002C2363430B4A0198D2182023FFF7A4FB61
:105AA0000500681E85410198FFF778FB002D04D0A2
:105AB000012C00D13D002800FEBD012CFBD034009C
:105AC000DCE7C0460CAA020873B50C00C0B201A9FD
:105AD0001500FFF741FB0126002807D12A0021000D
