:02000004101DCD
:1000000000C00E08438A1D100D000000A18A1D10BB
:1000100000000000000000000000000000000000E0
:100020000000000000000000000000009D8A1D107C
:1000300000000000000000009D8A1D109D8A1D1018
:100040009D8A1D109D8A1D109D8A1D109D8A1D1060
:100050009D8A1D109D8A1D109D8A1D109D8A1D1050
:100060009D8A1D109D8A1D109D8A1D109D8A1D1040
:100070009D8A1D109D8A1D109D8A1D109D8A1D1030
:1000800010B5064C2378002B07D1054B002B02D06E
:10009000044800E000BF0123237010BD449701080D
:1000A00000000000FCAD1D10044B10B5002B03D068
:1000B0000349044800E000BF10BDC0460000000036
:1000C00048970108FCAD1D10F0B5294F87B0039289
:1000D0000400C05D0D0002F092FF04A9C0B202F05E
:1000E0009BFE002806D00126049802F0AFFE3000E7
:1000F00007B0F0BD2C226A43E35D029258225343BD
:10010000029905ADCB18E3181A89DB680498D31857
:1001100001932A000423019902F0A1FE061EE2D1F8
:100120005822E35D5343029AD318E4182A88114BEE
:1001300064899A4218D16B88A34201D00326D3E781
:10014000019B2A0019190498042302F088FE002854
:10015000C9D1094B2A889A42F0D16B881C19019B9E
:10016000E418039B1C60BFE7002CF2D0E6E7C04612
:100170003405000008690000076900005823F7B53E
:1001800016000F4F0191C25D00215A4333008218BF
:10019000040001F0DBF8051E0FD15823E25D0121B8
:1001A0005A432C32A2183300200001F0CFF8002867
:1001B00003D0019B002B00D005002800FEBDC046E7
:1001C0003405000073B50E0000210500009102F017
:1001D00016FF6946C0B202F01FFE012400280BD1B1
:1001E00001AA0099300002F0BBFA041E04D1019963
:1001F000280002F0A0FC0400009802F027FE200076
:1002000076BD0000F0B5154F85B00400C05D0E004E
:1002100002F0F5FE03A9C0B202F0FEFD051E04D0F7
:1002200001256D42280005B0F0BD039802F000FFE3
:100230000190039802F00AFE5823E25D53432C22FA
:1002400056439E19A419231D9C42EBD00134621E13
:10025000127801998A42F7D0E2E7C04634050000DF
:1002600037B5FA22D2000192194A0D00825C0300D0
:100270000121002A03D0FE31012A00D1FA39A94216
:100280000ED1582454431A19526A28341C1901A952
:10029000280002F0F7FE002801D1019B23603EBD3B
:1002A0000221002A03D00431012A00D0F931A942E9
:1002B00005D1582454431A19126D5434E6E701202D
:1002C000072DECD11A00B833B43212681C00DEE7F7
:1002D00034050000F0B54A4E8DB009920400805DEF
:1002E0000D0002F08CFE0BA9C0B202F095FD08963D
:1002F000002800D080E029002000A75DFFF782FFE2
:10030000002808D02C2358226B437A439B18E1180D
:100310000A69D0060ED5002D06D101240B9802F0F3
:1003200095FD20000DB0F0BD0B99200001F064FC9C
:100330002C00F3E733481B59834207D0002DECD043
:100340000B980021826802F003FEF1E7CB6809896F
:10035000C8438342F2D80B9E5B18B1688B42EDD242
:10036000089B3178E35C079307980223002803D0A9
:100370000433012800D0F933582047432C38684310
:100380003F18E719994217D08E20089B8000E35C44
:100390003A00584300230493039302938023DB0223
:1003A0000193194BC430201800930799330002F0D1
:1003B00013FA041EB2D0C1E75307E5D58E20079B80
:1003C00080005843099BC4300093201833003A0042
:1003D000079901F0A5FE0028B0DBD5D1089B099A4A
:1003E000E05C8E239B005843C4302018012101F0AB
:1003F0006FFE0028C8D0A1E70124644291E7C046FF
:10040000340500003DB8F396989C020870B5174E6D
:100410000400855D0121002D03D00431012D00D0A1
:10042000FA312000FFF71CFF002802D00125280028
:1004300070BD0221002D03D00431012D00D0F9310F
:100440002000FFF70DFF0028F0D107212000FFF763
:1004500007FF051EEAD15823A25D5343E318186A2B
:1004600002F0BDFDC0342060E1E7C0463405000065
:1004700010B520220400FF210C3009F055FD0122A7
:1004800000232260024AE3626260A36010BDC0469E
:100490000101000142790023012A06D10268012AE4
:1004A00003D10379013B58424341180070470000D3
:1004B000F0B5002587B0674B05950495C35C040033
:1004C000080002930F00FFF7E5FF624B060003935D
:1004D000A84200D18FE05823029A53435E4A1B5929
:1004E000934208D105AA29002000FFF7EDFD434201
:1004F000584101F0F1FF5823029A5A43A21811699A
:1005000049076AD58E255349AD00605C0097434387
:100510006843E318C43020181B6A029901F000FEFA
:100520000600C043C00F01F0D7FF002E0CD1494B8D
:100530003A00E05C31006843C430201801F0C8FD87
:100540004342584101F0C8FF424BE25C58235343F9
:10055000E318DB6A404A934208D104AA0121200033
:10056000FFF7B2FD4342584101F0B6FF5822394B24
:10057000E05C4243A318D96B490735D58E25AD0001
:10058000684300972C32C430A2182018DB6C029903
:1005900001F0C6FD0600C043C00F01F09DFF002E14
:1005A0000CD12C4B3A00E05C01216843C430201888
:1005B00001F08EFD4342584101F08EFF049B059AE5
:1005C000934200D90593059BBB602000059A390032
:1005D00000F0E6FF002007B0F0BD38001022FF2138
:1005E0000C3009F0A1FCAFE738001022FF211C30CD
:1005F00009F09AFCE2E739000298083101F0EAFAC2
:100600003D004342584101F067FFBB6805933A0043
:100610003100029801F076F94342584101F05CFF45
:100620000023EA18127BFF2A07D10133102BF8D1DF
:100630001035012EC9D00126E9E7039B3A00E05CA2
:100640008E239B005843C4302018310001F040FD38
:10065000EEE7C046340500003DB8F39610B502F051
:1006600077FC10BDF0B500248BB00590079108927F
:100670000993119B9C4201D3002010E0119B1D1B8C
:100680008023DB009D4200D91D00099B364AE118FA
:1006900007982B0002F0E3FB002802D001200BB0EA
:1006A000F0BD059A314BD35C02229C466146079B04
:1006B0001B78002903D0FD32012900D1F93A0899AD
:1006C0000978934238D08A4238D160465823434350
:1006D0000598C7188A4202D02C331F00C7193B69FE
:1006E0005B072BD5109B3889E318984231D9A84273
:1006F00036DA0026C21A291A92B20696FF68EE1858
:10070000C719BE4202D99F4218D9F91A002915D03B
:100710001B1A8E20664680007043134F9B18D21917
:10072000059E0292069AC430019200913018079AF1
:10073000614601F043FE01E08A42C6D1109B0A4A9D
:10074000E11808982B0002F0BCFB0028A6D1641920
:100750008FE70F221E1A1640069629000022CDE7C9
:1007600000210A000691C9E7989C010834050000A1
:10077000A722F0B5A1B00491D20000210400012508
:1007800009F0D2FB0022C04F0592E2556D42BF4BEB
:10079000E05D1B7898422CD3012B0CD9059B002BD4
:1007A00009D000230125E3556D42B84BE05D1B786D
:1007B000834200D94BE10023B44EE355E05D33782A
:1007C000984200D2DEE10023E355E35D32789A429D
:1007D00000D9F7E23022002114A809F0A5FB236A12
:1007E00004995A780A715B680C600393039A8A60D3
:1007F000FFE2012B06D98E239B005843C4302018FA
:1008000001F030FE5825FA222B00E65D920172437A
:1008100073439F49E318511859629E49300052189A
:100820001A6523009C4AB4331A60002102F0E7FBEA
:10083000E15DC0B269432031611802F0EDFA434234
:10084000584101F049FE0121300002F0D8FBE15D82
:10085000C0B269434C31611802F0DEFA050068420B
:10086000684101F039FE2000FFF7D0FD011E04D0E1
:10087000E35D0122E318BC33B5E002002000FFF77E
:100880007DFC0028F4D1200000F030FE0028EFD0DD
:1008900014AE3000FFF7ECFD3100200001F056FAF5
:1008A0000028E5D13000FFF7F5FD002856D1774B41
:1008B0001B78012B34D831002000FFF7F9FD03909D
:1008C0004342584101F008FEE05DF3792218BC3242
:1008D0001370033B012B09D800F012FD0390002890
:1008E00004D0FF22E35DE318BC331A7014ABDB794C
:1008F000E05D023B022B09D800F0EAFC03900028DF
:1009000004D0FF22E35DE318BC331A70E35DE31803
:10091000BC331B78FF2B12D1002001F0DDFDFEE778
:10092000E25D002AC7D023000121BC339A189A4205
:10093000C1D01878042800D119700133F7E7039863
:100940004342584101F0C8FD320000212000FFF76A
:1009500015FC4342584101F0BFFD89E7F379069346
:10096000012B42D1E05D00F03FFC0300023B03900D
:10097000022B0CD8320006992000FFF7ABFC0128AF
:1009800004D0002803D00523039300E003906A46B7
:10099000E35D127BE318BC331A70E25D3B48A1189B
:1009A0000B000078BC331B7801282BD8BC310B78A6
:1009B000012B40D100212000FFF724FC002833D177
:1009C0005823E25D5343E318344ADB6A934232D141
:1009D000320001212000FFF77DFC00282BD10422EA
:1009E000E35DE318BC331A7025E0320001212000DA
:1009F000FFF770FCE35D0522E318BC330028CBD180
:100A0000F279C9E7002AD1D0012BCFD0042BCDD069
:100A10002300BC339A189342C8D01878042801D117
:100A2000033818700133F6E7320000212000FFF789
:100A300051FC0028C4D1E35DE218BC321278023ABE
:100A4000022A01D8012205920133E3559FE62318BB
:100A5000BC331D7804239D43013D6B1E9D41EDB2C7
:100A6000290002F0CCFA09A9C0B202F0D5F9002899
:100A700016D00125099802F0E9F9002D6FD1E35D48
:100A80000133E35591E6C04634050000809001082B
:100A900098A00108981D0208989A02083DB8F3969C
:100AA00058232C26E15D75435943573B4919009360
:100AB00061183F33099A0EA800F0D8F9051ED9D164
:100AC00003960A2606ABF618320000230AA90EA8E0
:100AD00000F01EFA031E00DABAE10998CAD1338881
:100AE0000C2B38D10BAE32000A9902F0B8F900286D
:100AF000BFD1BB4A337812789A422ED90221E2182C
:100B0000BC321278023AD2B291424041039A504329
:100B100058225343C0182018027D33799A42D0D806
:100B200008D3427D73799A42CBD803D3C28AF38823
:100B30009A42C6D2E35DE318BC331A78012A08D082
:100B4000002A03D0032A01D801221A7001256D4220
:100B500090E70422F9E703258CE707258AE7A04BF5
:100B60001B78082D00D026E61D1E00D123E62200AA
:100B700000230121BC32E35511708D4200D0517029
:100B80001D0018E614AE012B09D98E239B00584393
:100B9000C430201801F066FC3000FFF769FCE35D0B
:100BA000E218BC321078F0710138042800D904E151
:100BB00007F084FFEE030303F80000212000FFF795
:100BC00021FB002866D1E55D0120002D6FD10BA926
:100BD00002F022F94342584101F07EFC0220002D30
:100BE00003D0FD30012D00D1F9380EA902F014F91F
:100BF0004342584101F070FC5822E35D0692534392
:100C0000E3189B6A079300231E000393079BE05D94
:100C1000B34251D1069A4243A318DB6B5B0763D4FE
:100C2000039B5826019300230B9A00930E992000F2
:100C3000FFF718FD3100E05D41432C316118FFF7EB
:100C4000C1FA051E60D1E35D01007343E3181B6D1B
:100C50000E985A6802F07CF94342584101F03CFC7E
:100C6000E35D0E985E43A619736D326D013BDB00A8
:100C7000D31811681A68511A5A6802F069F9434288
:100C8000584101F029FC0B9802F0E0F80E9802F0B0
:100C9000DDF839E0320000212000FFF71BFB0028BF
:100CA00091D131002000FFF703FC05002CE0FF206C
:100CB000012D8CD1FA388AE7069BF20058432018A0
:100CC000436A03999B185B680B981A00059302F01E
:100CD0003FF94342584101F0FFFB059A039B9446BC
:100CE00063440393013691E78E239B0058432C32D3
:100CF000C43014AEA218201800960E9B290001F0F3
:100D00000FFA002815DA03256842684101F0E4FB78
:100D1000E05D2318BC331E78F31E012B30D800F0A1
:100D2000EFFA051E16D0FF22E35DE318BC331A70FC
:100D30002AE0002800D073E78E23E05D9B00584333
:100D4000C43020183200012101F0C2F9002800D17E
:100D500066E7D8E7032E13D15821E05D41432C31DB
:100D60006118FFF72FFA002804D0FF22E35DE31893
:100D7000BC331A70E05D00F0ABFA051ED3D103E07E
:100D8000FD23023E1E42F5D06842684101F0A4FBFB
:100D9000E35DE218BC321278FF2A11D1002001F085
:100DA0009BFBFEE7180000F0ABFA051EF0D0FF2217
:100DB000E35DE318BC331A70EAE7FF231370E7E73B
:100DC0000133F9E4E318BC331B78012B0AD100226C
:100DD00020001100FFF77EFA002820D0032508E04C
:100DE0008090010814AA00212000FFF7C7F9051E12
:100DF000EDD00023E355E35D32789A422BD9582297
:100E00005343E318D86C02F021F85822E35D5343B2
:100E1000E318186A02F01AF8E35D0133EAE7E05DCF
:100E20002318BC331B78012B0AD05821E05D4143C5
:100E300061180A6A00F0BAF8E35D05000133C3E403
:100E4000582141436118FFF7BDF9051EEDD0D0E7E9
:100E500001256D42AFE4280021B0F0BD10B50100BE
:100E60000148FFF785FC10BD60970108F0B587B019
:100E700002930CAB1B7804000D0000920393002832
:100E800005D101235B420193019807B0F0BD002911
:100E9000F7D0009B002BF4D0CB680F8905AEFF186C
:100EA000320004233900009801F0D9FF0190002896
:100EB000E7D1154A31886B89914221D171889942D5
:100EC000DFD1C91904233200009801F0C8FF0028BF
:100ED000D7D105AA0D4B11889942D2D1009B25602C
:100EE00063606B461B8923816B461B7BA3726B89F6
:100EF000DB19E3605288D31863613B1D2361C3E7AC
:100F0000002BE6D0BDE7C046086900000769000075
:100F1000F0B585B00400009101921E00002803D1B5
:100F20000120404205B0F0BD0368002BF8D04368B3
:100F3000002BF5D0226963699A4218D223685B8935
:100F4000002B04D0E368934201D10433236103AD45
:100F500004232A002169606801F081FF0028DFD1A5
:100F6000A27A2369002A04D0E2689A4201D80120BB
:100F7000D8E76A882189171DBC460B4FB94202D0B9
:100F80002D888D420DD1002E02D003A90988318011
:100F9000009904330B60019B1A8023696344236129
:100FA000C0E763442361C5E7FFFF0000F0B50025FB
:100FB000D9B003900095514B0AA81600FFF756FFD1
:100FC0000295A84204D001246442200059B0F0BD2B
:100FD0000E2704ABFF1807AC3B00220008A90AA8A3
:100FE000FFF796FF0028EED13B88602B0FD18022BF
:100FF000238852009342E6D818AA0899300001F0DD
:101000002EFF0028DFD1238801250293E0E7102B73
:10101000DED12388202BD6D810AA0899300001F001
:101020001EFF041ECFD1002DCDD0029858AB203822
:101030000890181801382022FF3810A908F06BFF1B
:10104000039B2F4E9B0104933F23049A09941A4358
:10105000337805922B4D002B09D1802221005201BB
:10106000280008F061FF284B2B600123337068884B
:10107000244B264EC3180393039B09AFB34224D8D5
:10108000049B234A1B051B0D13433B806B461E89A3
:101090007E806B88321D92B29B18184A93422BDCDB
:1010A00080229BB25201934222D804223900039835
:1010B00008F031FF0398029A043018A908F02BFFBA
:1010C0006B880433F6186E807FE704223100380005
:1010D00008F021FF3B881A0B012A04D1059A1B0551
:1010E0001B0D9A4206D009AB5B880433F618C3E7A0
:1010F00001246AE7022468E7032466E7FFFF000093
:10110000989C06080008000816200400040800083F
:101110003F10000003000120042B05D0052B04D153
:1011200001390800411E884170475B1A58425841F6
:10113000FAE737B50D00C0B201A901F06DFE012438
:10114000002807D12900019800F04EFC0400019806
:1011500001F07CFE20003EBD13B5040000F0ACFBA6
:101160000123010001AA2000137000F0B3FB16BD9B
:1011700013B5040000F09CFB0123010001AA20002C
:10118000137000F0A7FB16BDF0B5002506000E2772
:10119000280085B0974268410191140001F09CF944
:1011A0002800019B24019F42684101F095F902ABA0
:1011B000DD1D019B30001C432C7000F081FB0123DE
:1011C00001002A00300000F085FB05B0F0BD13B52A
:1011D0000400019100F078FB0423010001AA200023
:1011E00000F078FB16BD0000F0B5040089B00120C6
:1011F000002C03D00430012C00D0FA3004A9FFF7F2
:1012000098FF00283AD10230002C03D00430012C82
:1012100000D0F93006AD2900FFF78BFF00282DD153
:10122000040004AB1B781A4E00932B78019304AB97
:10123000DB780293EB78039304AB9F78A05D009971
:101240003519FFF767FF00281CD068780199FFF770
:1012500061FF002816D0AB78042B02D0029A93428B
:1012600010D1EB78042B02D0039A93420AD12B7948
:10127000042B05D16879831E022B07D9FF2005E0D6
:10128000BB42F7D00634122CD8D1012009B0F0BDF2
:1012900030A31D1030B5002915D001230F250B4CAC
:1012A00041185B420278013053401A092B409B00E1
:1012B0001B595A4013092A40920012595340884240
:1012C000F0D1D84330BD01235B42FAE744A31D109F
:1012D00013B50123002803D00433012800D0FA33CA
:1012E00001A9180001F098FD0124002806D10198F9
:1012F000FFF732FF0400019801F0A8FD200016BDA1
:1013000030B5012385B0002803D0FE33012800D179
:10131000FA3B01A9180001F07FFD0124002810D13B
:1013200002AD2900019800F05FFB041E0CD1EB78A0
:10133000032B03D10198FFF71BFF0400019801F074
:1013400085FD200005B030BD0124F7E7F7B51D008D
:1013500000231600284A019307002C00805C9D4260
:101360000FD058224243BF187A6A54686A79012A1A
:1013700015D199422CD1214B2A681B6893429B417D
:101380001C4001F03CFE01A9C0B201F045FD00285F
:1013900020D00124019801F059FD2000FEBD022A51
:1013A00016D12A68012A07D9144C27681C00BA42B2
:1013B000E7D84B425941E4E7012A09D10029E0D09E
:1013C0001C000129DDD1297902394A1E9141D8E753
:1013D0001C00D6E7210020233200019801F03FFDD8
:1013E000041ED6D1002DD5D0054B3468E418631EF9
:1013F0009C416442CEE7C046340500008490010859
:10140000C3470C69F0B51400002289B006ABDA714D
:101410000378060004910720032B54D0300000F01D
:1014200057FA0300013B059301235B422B4A0393C8
:101430001F000133FF33009085180293019306AA21
:10144000307801230732290000F0F0FD002843DB4B
:1014500006ABDB795A1E012A03D8009A0293AA1A16
:101460000392300001F0E4FD06AB07331B7898428D
:1014700005D07A1C03D1009A0193AF1A0137059B5E
:10148000013D9D42DBD12100154B049A0831D05C0F
:1014900000F0A0FB4342584101F01EF800207B1CE5
:1014A00011D0049BA068C033196807F0A1FB4B1E44
:1014B00099410818B84208DD012363716B461B7916
:1014C00027600020237109B0F0BD02236371039BE4
:1014D00023606B461B7AF4E70120F4E7CF07000096
:1014E000340500000068484370470000F0B51B4B0E
:1014F000C55C58236B43C3189E6A5F6DB74203D027
:101500007B1C0022B34219D1FA230022DB009E4249
:1015100014D858211300944669434118BB420FD197
:101520000122B3420AD2573255434019426ADB00C6
:10153000D3185A686346D21A504242411000F0BD97
:101540000C6DDA00A4186468A4464C6AA2185268AC
:10155000944501D10133E1E70022EFE734050000B3
:1015600007B50E4BC35C0120002B03D00430012BC8
:1015700000D0FA306946FFF7DCFD4342584100F0E5
:10158000ABFF6B461B780020012B05D16B4698788A
:1015900003384342584140000EBDC04634050000A8
:1015A0000023F0B50F005821AA4E8FB0AA4D03902A
:1015B0000A930B933360445D0895012561434118FC
:1015C000496A18004968AC46049119005D1C9142B3
:1015D00000D26EE0002800D033600120002C03D040
:1015E000FE30012C00D1FA380AA901F015FC434263
:1015F000584100F071FF0225002C03D0FD35012C6D
:1016000000D1F93D0BA9280001F006FC43425841E6
:1016100000F062FF7A68914B1340914A93422DD1BA
:101620003B68012B2AD10CA928000B9CFFF781FDF8
:101630004342584100F050FF08AB1B7C032B1DD1E7
:101640002100039800F0D8FA4342584100F044FFCB
:101650002000FFF78DFD4342584100F03DFFB9687F
:101660002000FFF7B4FD4342584100F035FF200051
:1016700000F064F94342584100F02EFF7B79012BC2
:1016800007D13368DE00734A1168002B16D101338D
:101690003B60022301247B716E4B0A9E1B68A342B0
:1016A0006AD2300001F0D2FB0B9801F0CFFB0FB0F3
:1016B000F0BD049B6046C9182B0087E73A68581EA6
:1016C00001310690891A994253D30899039B0A9CC9
:1016D0005B5C58214B430399CB185B6A1968985996
:1016E0009B19083B1B68451A5B1A0793012A1DD1F9
:1016F0000B9B0593FB6A022B10D02100039800F08E
:101700007BFA4342584100F0E7FE3A00210003987B
:1017100000F0CEFA4342584100F0DEFE05990398EE
:1017200000F06AFA4342584100F0D6FE049A2900BC
:101730002000FEF793FF4342584100F0CDFE049B8A
:101740002200210001930095079B0398FEF78AFF72
:101750004342584100F0C0FE3900039800F0FCF805
:101760003B6801333B60002803D03E4A13680133D5
:101770001360083E069B86E73B68A34267D80B9B35
:10178000089A0593039B9B5C58225343039AD318F2
:10179000596AE20088581B6D09900868083A07905A
:1017A00098581B68C31A06933B79012B24D1079BD9
:1017B0008D583000ED1A049A2900FEF74FFF43427E
:1017C000584100F089FE049B320005990193009571
:1017D000069B0398FEF746FF4342584100F07CFE0B
:1017E0003900039800F0B8F802233B71002806D0B6
:1017F0001C4A1368013313603B79022B27D1049AEA
:1018000006990598FEF72AFF4342584100F064FE0E
:10181000079A099B31009B1A049A03980192069A31
:101820000092059AFEF71EFF4342584100F054FE15
:101830003900039800F090F83B6801333B600123C6
:101840003B71002803D0074A136801331360013449
:1018500022E7C046849001083405000000FF00FF25
:10186000000100049C9C06087FB505000E001022B4
:101870000021684608F058FB0124002D03D00434F1
:10188000012D00D0FA343100200001F0C5FA051E08
:1018900009D110236A460549200000F0C7FB050066
:1018A000306801F0D3FA280004B070BDB40900001C
:1018B00000487047B309000000487047B2090000B3
:1018C00000487047B109000000487047AD090000AA
:1018D0000020704710B5007800F018FB431E9841B7
:1018E00010BD0000013109010B1FD218044B10B5C7
:1018F000591A0078102300F009FB431E984110BDCF
:10190000AD09000073B50C0001A91500FFF7ACFF8D
:10191000061E0ED1084B611C09010A1F591A019BB2
:10192000AA181878102300F081FB0600019801F036
:101930008DFA300076BDC046AD09000010B5102309
:101940000078034A034900F0E1FA431E984110BDB4
:1019500020A31D10B4090000002337B50193164BD6
:101960000D00C35C0120002B03D00430012B00D0FC
:10197000FA3001A901F050FA0124002816D1210003
:101980002800FFF7AFFD2A79010068791319DBB24F
:10199000A04200D113006A4603321370019B1878ED
:1019A000012300F0B3FA0400601E8441019801F0A5
:1019B0004DFA20003EBDC04634050000F7B50500D5
:1019C0000E0000240192019B9C4201D30120FEBD28
:1019D0002800375D01F02CFB874202D10134E4B2CC
:1019E000F1E70020F3E70000F0B5002689B002AB74
:1019F00005000C00072003A9DE70039601F00CFA25
:101A00004342584100F068FD2878102304AA6C492D
:101A100000F00CFBB04203DA0123180009B0F0BD5E
:101A2000102204A90398FFF7C9FF071EF4DB012861
:101A300000D088E003222B78227004229343019384
:101A4000022B00D088E0AB6804AA103B00930099F9
:101A50001023280001F0FAFA0028DDDB01285BD111
:101A60000323237002ABDF1C287801233A00554979
:101A700000F0DCFA0028CFDB012239000398FFF7E1
:101A80009DFF0028C8DB0F233A78134012096370CA
:101A90002271012801D0042B03D901236370002394
:101AA0002371A71C287801233A00474900F0BEFAA9
:101AB0000028B1DB012239000398FFF77FFF0028DF
:101AC000AADB0323012804D0A378013B5A1E9341CB
:101AD0000133A370E71C287801233A003B4900F04A
:101AE000A5FA002898DB012239000398FFF766FF6A
:101AF000031E00DA90E7012858D10322E27028780B
:101B00000138052800D988E706F0E2FF28002B00FD
:101B100087FF87FF28002B0010222D4904A808F01A
:101B2000EBF900280BD128781023277004AA244948
:101B300000F0ECF9002800DA6EE73E0092E76B4611
:101B40001B792370F9E71022214904A808F0D4F981
:101B5000431E984101302070009683E7A378012B43
:101B60002AD1AB683A00183B009300990123280062
:101B700001F06CFA002800DA4EE7032301281AD09E
:101B8000E378012B0FD1E37028783A000F4900F079
:101B9000BDF9002800DA3FE710220099280001F083
:101BA000D7F9030039E70223E370F5E7E378013B57
:101BB0005A1E93410133E37000239E42ECD12CE77F
:101BC000B4090000B1090000B2090000B309000027
:101BD00020A31D1013B50C0001A9FFF745FE002836
:101BE00006D1019B220018780249042300F01EFA56
:101BF00016BDC046AD090000F0B5002485B0070051
:101C00000D00072003A9039401F006F9434258414F
:101C100000F062FC234B2100FE5C300001F0EFF984
:101C200001210400300001F0EAF9C3B22878E4B2DF
:101C3000A04202D00124984231D100F05BF93B0070
:101C40000190A020B4331B684001596806F04AFF98
:101C50000026154BC418E4003B00B4331A680398FF
:101C6000131959681B6800911168019A083C511AB0
:101C7000C918009AFEF7F2FC4342584100F02CFCD0
:101C8000009BF618094B9E42E6D9A96840224039CC
:101C9000280001F05DF90400039801F0D7F8200056
:101CA00005B0F0BD34050000FFFFFF1FFF1300006B
:101CB00073B5254B0C00C65C15000220002E03D026
:101CC0000430012E00D0F9306946FFF732FA434262
:101CD000584100F001FCE979012907D032002000C9
:101CE000FFF752FA4342584100F0F6FB6B46DB78AF
:101CF000012B06D12000FFF73BFA4342584100F088
:101D0000EBFBA9682000FFF762FA4342584100F05C
:101D1000E3FB2A0000212000FFF7E4FD4342584185
:101D200000F0DAFB2A0001212000FFF7DBFD43422F
:101D3000584100F0D1FB2000FFF700FE434258411C
:101D400000F0CAFB002076BD34050000F0B5002687
:101D500087B002ABDD1D0F000190049605962E7032
:101D6000FFF7FEFB0400F862B04212D0022813D144
:101D7000244B019A0136D35C002B03D00436012B8F
:101D800000D0FA3604A9300001F046F8002808D047
:101D90000124200007B0F0BD300000F09DFB0724B7
:101DA000F7E705A9072001F037F80028F0D13A003D
:101DB00001990498FFF726FB041E1BD13000012374
:101DC0002A00114900F032F9061EE1D10122290052
:101DD0000598FFF7F3FD041EDADB012806D100F0B9
:101DE0007BFB200000F078FB2C7034000F222B7856
:101DF0001340FB71049801F029F8059801F026F8CA
:101E0000C7E7C04634050000B1090000F0B5374C03
:101E10001600A544002407900591072009A90994FC
:101E200000F0FAFF250027004342584100F054FB20
:101E3000029401940394A0231B016343079A099819
:101E40009B18049380230AAA9B00049901F007F8C9
:101E50004342584100F040FB254B879A9A422FD1CC
:101E6000FE21899B49000AA80693FFF713FA069BF7
:101E7000834221D1889BBB4203D325001F00049BD2
:101E80000393012C16D1029B0998022B1CD100232D
:101E9000336001F0CDF8FA2201005200059808F0F5
:101EA00043F82500099800F0D1FF28008B239B0000
:101EB0009D44F0BD0124BEE7019B01330193E0E79F
:101EC000029B01330293DCE7019B022B0BD0FA2328
:101ED00037605B00059A039900F0C1FF4342584107
:101EE00000F0FAFADEE701256D42DBE7D4FDFFFFE3
:101EF000AFBEADDE0138052803D8034B4000C05EFD
:101F0000704701204042FBE784A31D10F0B50E008E
:101F1000FA21424C0700A544300049000392019386
:101F20001C0006F065FE0020019B3D4A9B199A4269
:101F300040410D0000F0D0FA3800FFF7DBFF07004A
:101F4000C043C00F00F0C8FAFA213000490006F083
:101F5000C9FD01264002C7197642002C03DC30007F
:101F6000304B9D44F0BD05AA07A93800FFF74EFF8E
:101F7000061E50DBFA2322005B009C4200DD5A1B48
:101F800007AB58190025039B01995918091B07F045
:101F9000C2FF059B06A9013307200293069500F0B6
:101FA0003BFF4342584100F097FAFA2207A952003A
:101FB00084A807F0B0FFFE21029BFFAA0C32136039
:101FC000194BFFAA08321360490084A8FFF762F991
:101FD000FFAB10331860012E00D0751CA0218023A8
:101FE000090169439B00C91984AA069800F069FF9A
:101FF000454245410600280000F06EFA069800F0C0
:1020000025FF280000F068FA8023F53C9B00FF3C88
:10201000FF180025A1E701267642A0E7ECFBFFFFB1
:10202000C409000014040000AFBEADDEF3B50E001D
:10203000FA21FFB0070049003000019200931C0014
:1020400006F0D6FD0020009B1C4A9B199A42404195
:102050000D0000F041FA3800FFF74CFF0700C043C5
:10206000C00F00F039FAFA213000490006F03AFDBD
:10207000FA264002C7197600002C02DC00207FB04F
:10208000F6BD02AA03A93800FFF7C0FE002812DB44
:102090002200B44200DD721B019B0099581803AB6B
:1020A0005919001B07F037FF8023F53C9B00FF3CCC
:1020B000FF180025E0E701204042E0E7C4090000E6
:1020C00010B504002422002107F02EFF200010BDCF
:1020D00070B58AB0050001A80C001600FFF7F0FFEC
:1020E00080239B0004930B4B210105930A4B620054
:1020F00001930A4B0C319B187118102201A806F0AD
:102100004DFA002804D18E210123490061434B552B
:102110000AB070BD0100C00400248000A09C060825
:10212000F0B50600CFB0180015001C0000F008FB49
:10213000002802D10120404215E1200000F096FA6B
:10214000002800DA0FE18E235B0043439B5D039080
:102150000120002B00D006E1009322003233290039
:1021600016A8FEF783FE031EE4D10E2502AAAD18C1
:102170002A0007A916A8FEF7CBFE002800D0F2E03F
:102180002B88712BD6D131AD2A000799200000F0A1
:1021900066FE0028CED1200000F0B4FA071EC9DD8B
:1021A00006F060FAB842C5DB724C102221000AA882
:1021B000113407F0B0FE210010220EA807F0ABFE8C
:1021C0002100102212A81CAC07F0A5FE2000FFF78A
:1021D00077FF302306AE31003800089306F034FA5A
:1021E000002800D0BFE03088210006F0E9F900287F
:1021F00000D0B8E02B78042B00D0B6E0CF222388A3
:10220000120213408222D201934200D0ADE0099025
:10221000594909A8678806F039FA002800D0A2E0D9
:1022200010230EAA554909A806F0D8F9002800D0B5
:1022300099E010230AAA524909A806F0CFF900280C
:1022400000D090E002210737FF087F000137328875
:102250002B000097FF3109A806F0E2F9002800D012
:1022600081E0089A25A909A806F0CAF900287AD1C0
:1022700009902000FFF724FF80231B011F93882370
:1022800012255B01238002AB3E4EED182B0020226D
:1022900029A92000209606F081F9002863D1298819
:1022A000320009A806F000FA00285CD11E2302A91A
:1022B000FF335B181022190009A806F005FA002860
:1022C00051D1FD2102AB2022C91809A806F00CFA51
:1022D000002848D1288806F023F9002843D11CA8FB
:1022E000FFF7EEFE80239B001F93274B274D1C9387
:1022F000039B274F5E00AB19102225A91CA820972D
:1023000006F04CF900282ED1224C715B3A002000D7
:1023100006F0BEF8002826D1102212A9200006F0EF
:10232000D9F800281FD1039B549A1B010C331E219E
:10233000D318102202A808AFFF31091801970092A4
:10234000200006F0D7F8089B102B10D100280AD1E6
:10235000020001003B00200006F0AAF8002802D18C
:10236000705B06F0DDF84FB0F0BD8720E3E6842017
:10237000E1E6C04690A31D100901203002020000D2
:10238000030200000900800200248000A09C0608CF
:102390000100C004A49C060810B50400100000F061
:1023A00065F90023984206DB1D33FF335843035D74
:1023B000581E8341DBB2180010BD0000F0B51D00AF
:1023C000170089B004AC0C2200210600200007F0A1
:1023D000ABFD2B0F23732B0D637338002B0B2D09D3
:1023E000E573A37300F042F9051E04DA002000F043
:1023F00073F809B0F0BD8E235B004343985D6D0018
:1024000001384342584100F067F8134B134AE95A28
:10241000134D280006F03CF80028EAD110222100D4
:10242000280006F057F80028E3D10E9B03AC009378
:10243000109B0E9A19000194280006F05BF8039B8C
:102440000E9A01009342D4D10028D2D10200230079
:10245000280006F02DF8CCE7A09C06080100C00477
:10246000A49C06088E2210B59200002105F09EFB68
:1024700010BD000010B562B603F0B4FFC022012009
:10248000024952008B5883438B5010BD00002640F8
:102490007047000010B50B4801F0ACFA04F082F868
:1024A000094A8021032001F08BFE084801F014FD49
:1024B000074B1B684D331B78002B02D0054801F0F9
:1024C00059FD10BD2CA51D1000000008A89C060891
:1024D00028A20608B4A31D10F7B5041E3CD16A4615
:1024E0001E4B1F4D1B78D71CD3701E481E4A6B68AD
:1024F0002100121A019307F017FD1C481C4A210005
:10250000121A07F011FD1B4E1B4A2100921B3000CE
:1025100007F00AFD3B78114A1370019B6B6086F34C
:102520000888164E16482100321A07F0FDFC86F383
:102530000888012006F0D6F9FFF7ACFF686805F0BF
:10254000B9FA104804F094F80F4B1B68002B01DA1D
:1025500005F0D4FA07F0C4FEF7BDC04620A2060875
:102560007CA0060880900108D893010844970108D0
:1025700030A2060800E0000800E4000800C00E08D1
:1025800000B00E080040001600012640F0B599B0DA
:102590001EAB1B780390049313781400302B03D0E8
:1025A0009520404219B0F0BD9378022BF8D108ADC8
:1025B00040220021280007F0B7FCE0782218537968
:1025C000811D1279C9180291022AE9D1C2186178D5
:1025D00004329142E4D1202B00DD20230100202889
:1025E00000DD2021401A002205900FE0501A203013
:1025F00007000598102684469444A4446046007958
:102600000132844604A880196646C6559142EDD130
:1026100000220299C91A64189A4212D10E2404ABFE
:10262000E4182100049806F00FF80028BAD14023DE
:102630002088039A01930095203B054905F014FF7B
:10264000B0E7D11AA05C403168540132E4E7C046DB
:1026500009000610037800205A1E012A05D901300E
:10266000052B02D0062B00D00238704703780422D5
:10267000190000209143012905D00130022B02D01E
:10268000062B00D00238704710B50C00FFF7E2FFB0
:10269000012807D830235843044BC05C001B431E5D
:1026A000984110BD01204042FBE7C0467CA00608CF
:1026B00010B50400FFF7DAFF00280EDB0CD0200075
:1026C000FFF7C8FF002808DB302343430448C01845
:1026D000437801205840404210BD0120FBE7C0462E
:1026E0007CA0060810B5FFF7B5FF0022012805D829
:1026F000302343430248C0182C300278100010BD2C
:102700007CA0060810B5FFF7A5FF0022012804D819
:10271000302343430248C018827C100010BDC046DD
:102720007CA00608012805D8302343430348C0187D
:102730004069704701204042FBE7C0467CA0060884
:1027400010B5FFF787FF012805D83023434303481E
:10275000C018007C10BD01204042FBE77CA00608A9
:102760000023F0B58DB00D0016000493136098425D
:1027700003D1072420000DB0F0BD0029F9D0438912
:10278000002B01D10324F5E701230A000093010087
:102790004F3306A8FEF76AFB041EEBD10E276F44E9
:1027A00003003A0005A906A8FEF7B2FB002801D0F5
:1027B000013CDFE73B88042BE4D104AA05992800FB
:1027C00000F04DFB002801D00124D3E7049BFF2B30
:1027D000D0D83360CEE70000F0B5150017221F00F7
:1027E0000023FF26C1B0089108A952181193137055
:1027F0002B690B90380010960593FFF737FF0028E0
:1028000004DA01246442200041B0F0BD002800D168
:10281000E5E03800FFF74CFF041EF4D13800FFF765
:102820008FFF431E9841059B5B07DB0F984204D046
:102830003800FFF785FF013CE5E702220992089A7C
:1028400012943B78002A05D006220992089A012AA0
:1028500000D00996099A934209D12B695B0706D5E6
:102860003A0008990B98FFF797FD0028C9D0A949AD
:1028700012A805F063FE041EC5D1489B002B59D158
:1028800000242B8926000693069AEB68944663443D
:1028900007936B89079A9B180A930A9BB34255D8F2
:1028A000002CB0D120AB202218A912A805F064FE9C
:1028B000041EA8D14A9B002B00D0B2E000233A00AE
:1028C00000932900944B12A8FEF7D0FA041E00D002
:1028D00099E7012505900990069007901A2608AB04
:1028E000F6180EAC330022000FA912A8FEF710FB59
:1028F000002800DA85E700D0FEE03388222B00D1E3
:10290000B3E000D993E0102BE8D12688202EE5D142
:10291000330020AA0F99380000F0A1FA041E00D05D
:1029200071E7320020A918A807F0E6FA0028D5D1EF
:102930000795D3E7499B002BA2DD1A00489912A8FE
:1029400005F00AFE041E00D05DE799E70A9B479A4E
:102950009B1B05929A4200D90593069BB34206D968
:10296000059B069A9B199A4201D2931B0593079BDC
:10297000B34206D9059B079AF3189A4201D2931BDA
:102980000593059B469A3100380000F068FA041E52
:1029900000D038E73B78099A934217D104222B697B
:1029A000134213D0069BB34210D8079BB3420DD9F4
:1029B000469A069B02920F22F31A1A400192059A38
:1029C000089900920B983A00FFF7F8FC059A46998F
:1029D00012A805F0C1FD059B0400F6185DE71290F2
:1029E0004C4912A805F0AAFD041E00D00BE7489B35
:1029F000002B0AD16B892A897968D218EB6812A852
:102A0000D21805F0A9FD04004AE7499B002BF1DD2F
:102A10001A00489912A805F09FFD041E00D0F2E6A6
:102A2000E8E7202218A94A9807F075FA46E7502BE4
:102A300041D0812B00D051E72388012B00D04DE7F6
:102A4000172608ABF61832002B000F99380000F05B
:102A500006FA041E00D0D6E631783800FFF714FEDF
:102A6000041E00D0CFE6069538E73800FFF73AFE9F
:102A7000061E00DC32E705F0F5FDB04200DA2DE776
:102A800023881A00463A3A2A00D9BAE620AA0F99B2
:102A9000380000F0E4F9002800D0B2E6F6B223884E
:102AA00020AA0096202118A8FFF770FD002800D06A
:102AB00014E7099512E72388042B00D0A1E611AA98
:102AC0000F99380000F0CBF9041E00D09BE6119B53
:102AD000FF2B00D995E610A9089800F01FF8041EF6
:102AE00000D090E6109BFF2B00D98AE6119A934202
:102AF00000D9F3E60595F1E6079B012B00D080E6AF
:102B0000069B012B00D07CE6059B012B00D078E6CC
:102B1000099C90E609000001FFFF000010B50C00C1
:102B2000FFF700FE002803DB210005F0BBF810BD15
:102B300001204042FBE710B50C00FFF7F3FD002831
:102B400003DB210005F0C6F810BD01204042FBE781
:102B500010B5FFF79FFC10BDF0B58BB0FFF79AFCE6
:102B6000FFF788FC03F0FEFC8020002303AA04A9E1
:102B70004000049304F01CFF071E00D0BDE08B4E04
:102B80008B4C0190009033008A4A2100049803F096
:102B900009FE071E00D0B0E001238748216E0370B4
:102BA000002900D1FEE0626E002A00D1FAE0834BDA
:102BB000834D1D80E5695D60256A9D60814B824D76
:102BC0001D80A778002F01D080255D70656A5D604B
:102BD000A56A9D60237E012B1AD1230048331B7800
:102BE000022B15D10370794B79481880E06C58603E
:102BF000206D98607748784B18802000323000783C
:102C0000002801D080205870606D5860A06D9860D9
:102C1000724B73489A60FE2218805960714BD20142
:102C20001A80714A00255A60802252029A60AF428F
:102C300003D000203D0000F0CFFE230032331B788C
:102C4000002B1DD001201D0000F0C6FE042D19D858
:102C5000280000F06FFE002814D0A378002B03D0CA
:102C60000023584A63705370230032331B78002BC3
:102C700008D02200002331321370574A537001E00C
:102C8000002FE3D13100200005F00CFE002802D017
:102C90000020FFF721FC07A8FEF7E0F8071E2CD163
:102CA000524B62681A60237A514A1370002B04D089
:102CB000E06803F0F3FB03F065FC0126079B099A2B
:102CC0001B894C4D9B182B60237EB34205D12300FA
:102CD00048331E78023E731E9E4120780138032837
:102CE0005ED805F0EBFE02111118FFF7D1FB404B47
:102CF00031001A78286804F06FFF78427841FFF7B6
:102D0000EBFB00200BB0F0BDFFF7C2FB022100205F
:102D100001F032FBEBE7FFF7BBFB06210E2001F0D1
:102D20002BFB6A46234B314D1B78324C93722B6838
:102D3000314805932368002106932D4B1B78D372ED
:102D40002E4A121A04F032FF2D4E2E4A0021921BF9
:102D5000300004F02BFF069B164A23606B469B7ADB
:102D60001370059B224A2B606B46DB7A137086F347
:102D70000888254E25480021321A04F017FF86F3F3
:102D800008882348234A0021121A04F00FFFFFF796
:102D900081FB174B29681A78206804F0B7FEACE76E
:102DA00030BFFDE701277F42A7E7C046389E0608EF
:102DB0007CA0060820A2060880900108949E0608C0
:102DC000017F0000AC9E0608027F0000A09E06085E
:102DD000057F0000067F0000B89E0608C49E060816
:102DE000077F00002C9E060800001D10D49E0608D8
:102DF000D09E0608289E060880900108D8930108F6
:102E000000E0000800E4000800C00E0800B00E0852
:102E10004497010830A2060810B50B4A1368002B2E
:102E200002D10124644205E01C7804328442F5D1C9
:102E300000240B600B68002B04D05B787F2B01D93A
:102E400000F0FCFC200010BD8890010810B500289F
:102E500004D043787F2B01D900F01CFD10BDF7B5DD
:102E60001F0043680600994280410D0040420192D4
:102E7000FFF732FB7368E819984280414042FFF740
:102E80002BFB73683A00ED182900300005F0ACFD0B
:102E9000041E13D173787F2B06D13A0029000198C4
:102EA00007F039F82000FEBD5BB2002B06DA3B00CC
:102EB000019A2900300000F037F9F4E70120404280
:102EC000F1E7F8B51C0043680700994280410D0006
:102ED00040421600FFF700FB7B68281998428041AA
:102EE0004042FFF7F9FA7B682200ED18290038000C
:102EF00005F07AFD002828D17B787F2B1BD1E005D7
:102F000043425841FFF7E8FAE80543425841FFF7CA
:102F1000E3FA01202F00640A640264194042711B25
:102F2000C919A74200D1F8BD380000F041FE802346
:102F30009B00FF18F3E75BB2002B06DA2300320098
:102F40002900380000F010F9EDE701204042EAE7DF
:102F500070B5050000200C00AB681600934240419C
:102F6000FFF7BAFAAB689C4280414042FFF7B4FADF
:102F7000AA686B6830199B18984280414042FFF75D
:102F8000ABFA6B683200E4182100280005F02CFD34
:102F9000002821D16B787F2B16D1650A3419640A79
:102FA0006D026402A54203D1280000F0CFFD70BD80
:102FB0000120641B640A4042002CF8D0013C6002EE
:102FC000401900F0C3FDF7E75BB2002B04DA3100D3
:102FD000200000F0E9F8EAE701204042E7E710B5F9
:102FE00043787F2B05D05BB2002B05DA00F0D6FCCE
:102FF00010BD80208000FBE701204042F8E702007E
:1030000001290DD00320022909D00438002906D156
:103010000120002A03D00430012A00D0FA30704782
:103020000220002AFBD00430012AF8D0F930F6E75C
:1030300010B5437800207F2B07D05BB2FF30002B08
:1030400003DB0020FFF748FA002010BDF7B50600AB
:1030500000921F00FFF703FF0500041E0DD001259D
:103060006D420DE0009B30001B5D0193FFF7E0FF18
:10307000019B834204D10134E4B2BC42F2D3012566
:103080002800FEBDF7B50F00264B01921D68002DEC
:1030900002D101204042FEBD2A7804338242F5D19C
:1030A0006B78AE687F2B27D107282CD000F08EFCE0
:1030B000431C2BD000F08AFC002824D02B78002061
:1030C000012B02D0052B1ED1012000F08DFC012820
:1030D00019D100F06BFC0400A0190138210005F0A3
:1030E00001FD3B688342D4D300236968019A83427F
:1030F00012D13B600020CEE75BB2002B09DA00F072
:1031000065FC0028E5D18024A400E5E78024E400E4
:10311000E2E700260124DFE711605460091901335A
:103120000832E4E788900108F0B585B003937F2367
:1031300040780C001840170000F0B6FB060000F0C5
:10314000BBFB050000F0BCFBE8231B06E218039B59
:103150000190009331003B00280002F0B3FB431EB6
:103160009841404205B0F0BDF0B585B003937F2390
:1031700040780C001840170000F096FB060000F0A5
:103180009BFB050000F09CFBE8231B06E218039B59
:103190000190009331003B00280002F0D7FB431E52
:1031A0009841404205B0F0BDF7B50400002000F0A2
:1031B0007BFBE822836905009B691206A4185B4229
:1031C0001C4000F079FBAB6906009F6900F078FBBA
:1031D0003B00009029003000220002F013FC431E47
:1031E00098414042FEBD0000F0B589B006ACE070E9
:1031F000002021712080A07000F056FB060000F036
:103200005BFB050000F05CFB3100070002002800BA
:1032100001F0D6FC002815D10123049703933378DD
:1032200002000293052301900093712123002800DE
:1032300001F03AFA002805D13B00034A310028008A
:1032400002F016FB09B0F0BD20A10700F0B5002484
:103250008BB009ADE870200007912C80AC7000F0B5
:1032600023FB069000F028FB060000F029FB069BDC
:10327000049003941B7807000293042301940093A5
:1032800022002B006521300001F00EFAA0420CD183
:103290000821300001F0A0FBA04206D103000097F6
:1032A00001220799300001F0D7FA0BB0F0BD021EE1
:1032B0001DD041188B1F1B780022342B17D14B1FB8
:1032C0001B782A3B012B12D80B1F1B78193B022BB2
:1032D0000DD8CB1E1B780F2B09D18B1E1B78032B0F
:1032E00005D101390878903843425841C2B21000E4
:1032F0007047000030B5002089B000F0D5FA050015
:1033000000F0DAFA040000F0DBFA01230022049056
:1033100003932B7820000293019200921300B721AF
:1033200001F0C2F9041E11D11F256D4429000320AC
:10333000FFF78CFF041E09D129784BB2002B08DA65
:1033400029000420FFF782FF041E0BD0200009B0E3
:1033500030BD8023032019432970FFF745FF041E69
:10336000F4D1EDE708212B780B420CD0002000F0BF
:103370009BFA8022D8218369D2029A615A6911602E
:10338000054A1A64E2E7194304202970FFF72CFF6D
:103390000028EBD00400D9E770170000F0B589B021
:1033A000079000200F0000F07FFA040000F084FA7C
:1033B000050000F085FA00220490039223780600AD
:1033C00002930192009213009F21280001F06CF9F2
:1033D000041E0FD14021280001F0FEFA041E09D17D
:1033E0000090030001963A000799280001F000FAC6
:1033F000041E16D0200009B0F0BD012002F0CEFD61
:103400003100280001F000FB032802D0013F002F0B
:10341000F3D13100280001F0F7FA0328EAD0024C7A
:10342000E8E7024FECE7C0460200B200E903000003
:1034300010B5072900D901BE1F2314009C4300D0FA
:1034400001BE0E4B1B689C695B69001BC009000133
:10345000C0181F231A40032907D8C9008B408A408F
:1034600004689C432243026010BD0439C9008B40AC
:103470008A4044689C4322434260F5E728A206083C
:10348000437802781B021A438378C0781B041343E5
:103490000006184370470000F7B5A54BA54A9A5897
:1034A000D10700D47BE00F22A34FBB683D68009397
:1034B000A24BDC6F0193009B1440073A141B9C4203
:1034C00000D91C009E4E002C18D1009B3D60BB60B3
:1034D000002B0CD1F92201209549D2008B5883434F
:1034E0008B50B861FB69002B01D0FB699847F8232A
:1034F0000122DB008E49CA50CB58F7BD082C16D1EB
:103500002800FFF7BDFF3060281DFFF7B9FF3060CE
:10351000009B2D191B1B0093019BDC6F0F231C408C
:10352000073B1C1B009B9C42CDD91C00CBE7012C08
:1035300003D12A78834B1A60EAE7022C06D12A7855
:103540006B781B021343804A1360E1E7032C07D119
:103550006B782A781B0213437B4A1360AA78E9E749
:103560002800FFF78DFF042CD1D03060052C01D14D
:103570002A79DFE7062C02D12A796B79E1E7072C5B
:1035800007D16B792A791B0213436F4A1360AA791A
:10359000D0E7281DFFF774FF08243060B8E79107D3
:1035A00000D4A4E00F22644D68496C69EB68086898
:1035B0008C460240A24200D922006549654E002A8D
:1035C00016D1EB606C61002C0DD1F9220221584814
:1035D000D20083588B4383500320A8612B6A002BB1
:1035E00001D02B6A9847F8236C61DB00022281E747
:1035F000082A19D10868070A18705F70070C000EB6
:103600009F70D8700868070A18715F71070C000E68
:103610009F71D8719B18A41A62460F20126802404D
:10362000A242CCD92200CAE7012A03D14A48006845
:103630001870EFE7022A04D130681870000A587039
:10364000E8E7032A07D130681870000A587042482A
:1036500000689870DEE7042A08D10868070A187025
:103660005F70070C000E9F70D870D3E7052A0BD14E
:103670000868070A18705F70070C000ED87036488B
:103680009F7000681871C5E7062A0CD10868070A00
:1036900018705F70070C000E9F70D870306818713A
:1036A000000A5871B6E7072A0FD10868070A187090
:1036B0005F70070C000E9F70D87030681871000A98
:1036C0005871254800689871A4E70A68100A1A70B2
:1036D0005870100C120E9870DA700A68100A1A717D
:1036E0005871100C120EDA719871082292E70421B9
:1036F0000A4207D00520104A9061F822D200995062
:103700009B58FAE608210A4202D00B4A0620F3E74A
:103710001020024206D00721074A9161F822D20008
:103720009850EDE72020024200D1E6E6024AF4E795
:1037300000004240CC070000D89E06080800424026
:10374000980042409000424094004240C4004240F1
:10375000D8004240D4004240D000424010B52B4A2D
:1037600003212B4800F082FA112203212848FFF799
:103770005FFE284A0421264800F078FA112204212D
:103780002348FFF755FE244A0521214800F06EFA30
:10379000112205211E48FFF74BFE204A06211C4836
:1037A00000F064FA112206211948FFF741FE1C4A75
:1037B0000721174800F05AFA112207211448FFF791
:1037C00037FE184B1B683C331B78022B12D9E223BF
:1037D0000F20154A9B00D1588143D150D158213038
:1037E0008143080020210143D1508021D05809068F
:1037F0000143D150FA220D4B92000D490D4800F0C3
:10380000E3FE002801D10C4B186010BD84A41D10EC
:103810008005314050A41D101CA41D10E8A31D10EC
:10382000B8A41D1028A2060800002640D89E06084D
:10383000ECA41D10000042404C91010870B50F4CE3
:1038400023685A1C18D0002B13D10D4D0D492800A8
:1038500002F03CFB0022AB5E002B06DB1F22134074
:103860001E3A9A401300084A13600849084801F0BC
:10387000CDF823680133236070BDC0464C91010828
:103880007891010899341D1000E100E0D89E0608E7
:1038900000004240034A1368591C01DA013B1360DF
:1038A0007047C0464C910108024B80001B685B6862
:1038B000C0587047989F0608004870470000424073
:1038C00000487047D89E060837B50500FFF746FF49
:1038D000041E21D1FFF7B2FF124B134A29001348EF
:1038E0001D6001F0A3FE041E12D106216846FFF7F9
:1038F00055FD041E0CD106216846FFF7D8FC0028B0
:1039000003D1FFF7C7FF20003EBDFFF7F3FC040023
:10391000FFF7C0FF002CF6D00122054B52421A607F
:10392000F1E7C046989F0608D89E0608000042406E
:103930004C910108F8B5164C431E6268032B23D83E
:103940001800126805F0BAF8021A1C1E0121117045
:103950000C2253430F48104A1D58C0184668077A76
:1039600031002800177200F081F928003A00310078
:10397000FFF75EFD2000FFF7A7FFF8BD0221E6E795
:103980000421E4E70821E2E701204042F5E7C046D0
:1039900068910108FCA41D10A4900108024B5B680B
:1039A0001B689B69586A704768910108024B5B6805
:1039B0001B689B699869704768910108024B5B68B6
:1039C0001B689B695868704768910108014B18682B
:1039D0007047C0464C9101080122024B8000C25042
:1039E0007047C046489F0608014B8000C05870478A
:1039F000489F0608014B18607047C04628A2060879
:103A0000074A13682E331B78834200D801BE13681F
:103A10001A00AC3212881B6A5043C0187047C04667
:103A200028A206081D4B98420FD010D840282FD04E
:103A300005D8002830D0102828D019481EE080284A
:103A400028D080235B009842F7D1144816E0154B2C
:103A5000984214D008D8A0231B0698421CD0124BC1
:103A60009842EAD1A0200BE0104B98420AD0104BAC
:103A7000984209D00F4B9842DFD10F487047A420DD
:103A8000C003FBE70D48F9E70D48F7E70D48F5E7F8
:103A90000D48F3E70D48F1E70020EFE7060052007C
:103AA000FF005200010000F0090000A0040000F037
:103AB000050000F0030000F0010052000200520077
:103AC00003005200010050000200500005005200A7
:103AD00010B5002002F088F90B4B1B681A1DD26F3D
:103AE0001B689B1819681C68090E01314B081818CF
:103AF00004F0F8FF240AE4B201346308C01821007E
:103B000004F0F0FF10BDC04628A2060810B5002042
:103B1000FFF776FF0A4B1C682300B0331B68C01800
:103B20000368002B0ADB074B1868FFF77BFF0122B5
:103B300063689A609A68002AFCD110BD0248FCE7CD
:103B400028A20608E49F06080200500070B5C405CC
:103B50000500E40D1ED102F025FD0F4B0F4A1A603F
:103B60005D609C60DC600E4B1B6850331978002947
:103B70000BD0FFF7ADFFFA21890004F0B3FF01007D
:103B8000084804F0AFFF084BC1188020400006F041
:103B9000B7FB70BD0548FCE7E49F06080001001C68
:103BA00028A2060860F59000980800000600520060
:103BB00070B5C40506000D00E40D20D100291ED00B
:103BC00002F0F0FC0F4B104A1A605C609E60DD60F2
:103BD0000E4B1B684E33197800290BD0FFF778FF86
:103BE000FA21890004F07EFF0100094804F07AFF01
:103BF000084BC1188020400006F082FB70BD0648CB
:103C0000FCE7C046E49F06080001000528A206085C
:103C1000C0EA2101482600000600520010B507291D
:103C200000D901BE1F2314009C4300D001BE0E4BDF
:103C30001B689C695B69001BC0090001C0181F2339
:103C40001A40032907D8C9008B408A4004689C4366
:103C50002243026010BD0439C9008B408A40446889
:103C60009C4322434260F5E728A20608F0B506000F
:103C700085B00D001400002800D1EAE0002A00D130
:103C8000E7E0072900D901BE2368012B00D901BE56
:103C90000F2362689A4300D001BE1F22237A934308
:103CA00000D001BEE368032B00D901BE2369012BBC
:103CB00000D901BE6369012B00D901BEA369012BA4
:103CC00000D901BEE369032B00D901BE236A012B91
:103CD00000D901BE636A012B00D901BEA36A012B82
:103CE00000D901BEE36A032B00D901BE236B072B69
:103CF00000D901BE2368072D00D901BE0121A940CA
:103D00000091012B03D901BE009BB36003E0002B9F
:103D1000FAD1009B73606368072D00D901BE0F22A2
:103D20001900914300D001BE4B4FAA0002923A689D
:103D3000A800793212789219116801910F218140FF
:103D40000198884301000F200340A80083400B43E3
:103D50001360227A29003000FFF760FFE368082D26
:103D600000D901BE032B00D901BE39686A00783141
:103D70000878301801680F00032191408F43390003
:103D800003273B409340194301602369082D00D964
:103D900001BE012B00D901BE012700983B40C04362
:103DA000AB40B16901400B43B3616369072D00D992
:103DB00001BE012B00D901BE2749103209680191CB
:103DC0007A31097871180F68BC4601273B40AB4037
:103DD000039363461840039B184308600321019B2B
:103DE0007B331878301803689C46A3693B40AB408E
:103DF000E5690D40954091402B436546009A11437B
:103E00008D432B430360626A0221BA4004200A40BA
:103E1000A16A019B890001400A43216A02980F4070
:103E200018211743E26A7C33D2000A401743226B01
:103E3000E73152010A401743FE22920010408740AA
:103E400000201B78F61833688B431F43376005B09A
:103E5000F0BD0248FBE7C04628A2060801005A0050
:103E6000084B1B68B0331B68C3181B68002B06DAAD
:103E70000B0C00D001BE89B241600020704702489F
:103E8000FCE7C04628A2060801008A000368002B50
:103E900007DAC2600B0C00D001BE89B2816000203D
:103EA00070470148FCE7C04601008A00002900D1A4
:103EB00001BE074B1B68B0331B68C3181B68002B7F
:103EC00003DAC36800200B6070470248FCE7C04675
:103ED00028A2060801008A00024B1A68002A00D1B5
:103EE00018607047F89F0608F0B5204E059D3468AD
:103EF000002C00D101BE2C241F0060433468FF2633
:103F000020181C0A37403440194E1B0C836033685C
:103F1000076044602E331B789F4200D301BE346893
:103F20002300AC331B887B43276A2F34DB190361E2
:103F300024784368A34200D301BE34688033246AE6
:103F40005B011B1984684361260C01D001BE01BED0
:103F50002404260C34439C600023C2610162836107
:103F60009D4201D02B888381F0BDC046F89F060892
:103F700028A20608F0B5040085B0002800D101BED3
:103F80006368032B00D901BEE36A002B00D101BE98
:103F9000236B002B00D101BEA36802AD2B80144B14
:103FA00022681B68E16A9B8EE0689B186B806368DF
:103FB000A26A039300952369266A676AFFF794FF54
:103FC00000213B000A0000913000FFF78DFF216BBC
:103FD000280001F07BFF0022AB5E002B06DB1F22D6
:103FE00013401E3A9A401300024A136005B0F0BD18
:103FF00028A2060800E100E0F0B5002A00D101BEC9
:10400000164C2568002D00D101BE25682C24604384
:104010006143281804696918002C1BD08D69002D94
:104020001AD12568002D17DA0126350037004068BF
:1040300085404868874010683F0480B2384310606C
:10404000E2604B628E612B0C00D001BE0020ADB24D
:10405000A560F0BD0248FCE70248FAE7F89F0608B1
:1040600004028A0007028A00002373B5040001934A
:10407000984200D101BE2369002B00D101BE6369C3
:10408000002B00D101BE236A002B00D101BE626962
:10409000D5682B0C22D01B04136013681A4B2069BF
:1040A0001B68B0331B68C3181B68002B16DA01A904
:1040B000FFF7FCFE0026B0420CD10198E2690368CC
:1040C0001E0CDBB29A4205D9226A9B009B58002B3A
:1040D00000D0984731002069FFF7C2FEADB2002D35
:1040E00009D063691D6000251B68636AAB4205D077
:1040F00098476562A56163691B6873BDA36A002B5D
:10410000F8D09847F6E7C04628A20608064A10B538
:104110001368002B00D101BE2C2343431068C01844
:10412000FFF7A2FF10BDC046F89F0608074A1368B4
:104130002E331B78834200D801BE13681A00AC32BC
:1041400012881B6A5043C0187047C04628A2060850
:10415000F8B5174B0D001B682E331B78834225D909
:10416000002923D01F240B681C401FD1FFF7DEFF5E
:1041700007002B680F4EDA0821003060686805F0F0
:10418000D3FE21003800FFF76BFE21002A003068C3
:10419000FFF77CFE041E07D101003068FFF760FEC8
:1041A00003002000002B00D00348F8BD0348FCE7C3
:1041B00028A20608FC9F060801018A0003018A0064
:1041C00010B50C00002A07D100290DD1FFF7AEFF72
:1041D000064B1860200010BD002905D004490C6072
:1041E0004A60FFF7B5FFF6E70248F4E7FC9F0608D0
:1041F0001400000803018A00F7B5184F04003B685B
:104200000191DE683368834226D90025A94202D194
:1042100004F00FFC050038680368002B1ADA1F222F
:1042200001232240934064097268A4001419226893
:1042300013420DD09A43226000240021FFF710FEA4
:10424000019B002B02D1280004F0F7FB2000FEBDEB
:10425000034CF2E7034CF3E7034CF7E7FC9F060837
:10426000020188000301880004018A000A4B1B68D0
:10427000DB681A6882420DD959681F234209184029
:104280001E3B8340920050581840431E9841034BF8
:10429000C01870470248FCE7FC9F06080001880030
:1042A00004018A0037B503230024074D1A002800B3
:1042B00000940F2100F05AF92800009423002200F6
:1042C000702100F053F937BD801A0140002307B573
:1042D000009303331A007F21014800F047F907BD1E
:1042E000801A0140F7B5214D01902D6808AC2C359E
:1042F0002D7824781F2D36D90C259B002B40093DA5
:104300002A401A436342634100251B011A4300926D
:104310001F272A00490000291ED00026019B940077
:104320001C1923680120014205D03800B0408343A6
:104330000098B040034308364908202EF2D123608C
:10434000002A03D126685E40BE4307D124689C4200
:1043500007D10132042ADED12800FEBD044D01221E
:10436000D9E7034DF5E7034DF6E7C04628A2060856
:104370000300C2000200C20030B5114D2B685B6C17
:10438000C340DB0700D401BE0F2900D901BEF023D2
:104390000A041B030F241A400B002D6823401A4304
:1043A000830228691B188020C0011A501858204029
:1043B000401A411E884103494042084030BDC04672
:1043C00028A206080300C20010B5002800D101BED3
:1043D0004B89DB0B00D001BE02238A799A43012A64
:1043E00000D001BECA799A43012A00D001BE4A8991
:1043F0007F2314009C4322D107248B79520223404F
:1044000013434A7A313492071343CA79097AD200A6
:104410002240134301224A40920113431A000949E2
:104420000A409A420BD14262406A0840801A4342D5
:104430005841054B40421840044BC01810BD044879
:10444000FCE7C046DBFEFFE0FDFF3DFF0300C200CE
:104450000100C20030B5002800D101BE4B89DB0B42
:1044600000D001BE8B79072B00D901BECB79072B79
:1044700000D901BE0B79073B182B00D901BE4C892E
:104480007F2322009A43131E2DD107250A68FF338C
:104490009A434B7964021A438B792B4023434C7A1D
:1044A0003135A4072343CC79E4002C402343012475
:1044B0000D7A09796C40A4012343F82409066405A8
:1044C00021400B4343600260016891420DD1406876
:1044D000074A1040C01A43425841064B4042184018
:1044E000054BC01830BD0548FCE70348FAE7C04655
:1044F000FFFEFFFFFDFF3DFF0300C2000100C20001
:10450000002800D101BE8023426A1B061343436288
:10451000406A024BC00F0138184070470300C200C8
:10452000002800D101BE802342681B06134343606C
:104530004068024BC00F0138184070470300C200AA
:1045400073B506AC2578002800D101BE0224160000
:10455000A643012E00D001BE1E00A643012E00D0AE
:1045600001BE00953030FFF7BDFE76BD13B504AC3B
:104570002478002800D101BE032A00D901BE032BF4
:1045800000D901BE00941030FFF7ACFE16BD00004C
:10459000036810B50400002B07D0012001F0FEFCD9
:1045A0002368013B2360002B01D0002010BD01488F
:1045B000FCE7C0460200B200030A08704B70030C0F
:1045C000000E8B70C870704710B5002835D00029D8
:1045D00033D0002B31D05A62F9220324D200835801
:1045E000A34383500B68DBB2012B00D901BE8B685B
:1045F000DBB2032B00D901BE4B68072B00D901BEEB
:10460000CB68DBB2012B00D901BEC022E0248B684D
:1046100092011B0313404A68E40212042240134330
:1046200001220C6822401343CA6880211206490403
:104630000A4013430360002010BD0148FCE7C04658
:104640000400B2000300481E10B5C4B2012C04D906
:1046500004291ED0082920D001BE032A00D901BE9A
:10466000072813D804F02AFA041312171212121B87
:10467000802109015818002808D0C021120489029D
:1046800003680A4007490B401A43026010BD8821A5
:10469000EFE7032AE3D89021EBE7032ADFD898213C
:1046A000E7E7C046FFFFFCFFF0B585B001930AAB1A
:1046B000070001CB151F0090EDB20CA804781B7801
:1046C0000E98FA2D00D801BE1D1FEDB2FA2D00D8AC
:1046D00001BE651E012D04D9FB26251F354200D0E1
:1046E00001BE2402A446F0240D9D2401EE07009D86
:1046F0001204002D38D0019D002D00D101BEFF2BEA
:1047000000D101BE6546406A25400390C020294380
:104710002C000025800202401143360C294300255D
:10472000C02228001B049202134039651C43009BE1
:104730009D4202D2134B984201D105B0F0BD072231
:104740007B6C1340032B0BD8019B00995B5D0135FB
:10475000234332008D4200D2002213433B65EDB269
:1047600003A8FFF715FFE2E7654625402C00C025AA
:10477000406AAD022A402143350C039011432E00BC
:10478000CCE7C0460200B200F0B51D1FEDB2069C9A
:10479000FA2D00D801BE144E551EB54200D901BEF7
:1047A0000727466C3E40032E1BD8C0261B04B602CA
:1047B00033408026ADB2F60235432B4303650B1E12
:1047C0000DD0059B21606260A260E361F9220223A3
:1047D000D200A3618158013B0B4383500023180092
:1047E000F0BD024BFBE7C046FFFF00000100B20036
:1047F00070B51D1FEDB2059CFA2D00D801BE002A30
:1048000021D00726456C3540032D1ED88025561E25
:10481000B6B22D033543C0261B04B60233402B43EA
:1048200003650B1E0DD0049BE1602261626123626F
:10483000F9220423D200A3618158023B0B43835029
:104840000023180070BD024BFBE7024BF9E7C0469E
:104850000400B2000100B200F0B50600181FC0B29B
:104860008FB0FA2800D801BE002A00D1AAE00724A0
:10487000706C2040032800D9A6E08020541EA4B20A
:1048800000032043C0241B04A402234003433365D8
:10489000081E0ED0149B00205B6A0791039304232B
:1048A00009920C900A930A9B042B02D1474B984221
:1048B00001D10FB0F0BD099B079C00933300C433B6
:1048C00001931D680F231D40009B9D4200D91D00D0
:1048D000002D17D1009B07940993002B0CD1F922CE
:1048E00002210320D200B3588B43B3500A900C9B93
:1048F000002B01D00C9B9847009B03A80993FFF75E
:1049000047FED0E7082D0AD13700D8373868210094
:10491000FFF752FE3868211DFFF74EFE05E0012D1E
:1049200009D13300D0331B682370009B64195B1BD3
:104930000093019BC5E7022D06D13300D4331B68D9
:1049400023701B0A6370F0E7032D0AD13300D433C0
:104950001B6823701B0A63703300D0331B68A3707D
:10496000E3E73700D83738682100042DD4D0052D6F
:1049700006D1FFF721FE3300D0331B682371D4E743
:10498000062D08D1FFF718FE3300D4331B682371BE
:104990001B0A6371C9E7072D0CD1FFF70DFE330029
:1049A000D4331B6823711B0A63713300D0331B6837
:1049B000A371BAE7FFF700FE3868211DFFF7FCFD81
:1049C0000825B2E7024874E7024872E70200B20025
:1049D0000400B2000100B20000290CD00722436C91
:1049E0001340032B09D8C023013989B21B03194393
:1049F0000165002070470248FCE70248FAE7C0461C
:104A00000400B2000100B2008869704700230B6007
:104A10004B608B600B61CB604B618B6180230268C4
:104A20001B06134303607047F0B5046843691D20FB
:104A3000042C2AD11E381860012600204C78E40688
:104A4000240F3500270085402F40BD4206D001309D
:104A50000528F6D1FF2200201A71F0BD0428F9D0F4
:104A60000C7914704C790532D4718C79D474CC796A
:104A70000918D4770A7940001A601D3000221A7193
:104A80005A71EAE72328E5D002300A5CFF2AF9D000
:104A90001A60F3E7F8B505000E0017000D4C390059
:104AA0002800FFF7B1FF864202D0013C002C0CD158
:104AB00039002800FFF7A8FF301A43425841064B3F
:104AC00040421840054BC018F8BD012001F066FABD
:104AD000E5E7C046E9030000FEFF4DFF0200B2001B
:104AE000F0B500270C0087B00E9D060010000A7973
:104AF00009680495039702936379C9B2019303236C
:104B0000009303003000FFF7CFFDB84216D12169B2
:104B10003000FFF761FFB84210D1237D0C9A00905E
:104B200001950D993000FFF763FEB84206D16C6A1B
:104B30000A4BAA69032A01D0984201D107B0F0BDFF
:104B400000208442F5D00130013C01F027FA604298
:104B50006041024B40421840EAE7C0460200B20002
:104B6000F7B500258C79C0B20134E40001942F0020
:104B700008248446085D84450BD10E19F079FF287E
:104B800007D17078B84204D3B678012E01D107005E
:104B90002500019808348442ECD9002D0BD0491926
:104BA0000879907048795070887910700020CA7820
:104BB00092001A60FEBD0148FCE7C0468000B200CA
:104BC00030B58B6987B0DB680C001500002B0FD067
:104BD00019681A79012303932378C9B20293FF233A
:104BE0000193002304950093FFF75EFD07B030BDED
:104BF0000048FBE78000B20070B5160000220400F8
:104C0000080086B00A9D039204951900037800926B
:104C10000293FF23200001931300FFF745FD0028B6
:104C200006D103000095012231002000FFF714FE99
:104C300006B070BD30B50F24012385B08D696C447A
:104C40002370AB6A002B0BD01B680092DBB22200F2
:104C5000FFF7D2FF002803D12378AA6B13402370FB
:104C60002078431E9841C0B205B030BDF0B51F009A
:104C70008B6989B01C6A0500002C47D0002A47D0F8
:104C8000586A0E9EB04243D34869C6B248690028AC
:104C900000D10E7821682079C9B207911099029647
:104CA000049100210391617901911B680799009398
:104CB000130002002800FFF7F7FC002824D1A168A8
:104CC0004B1C12D12169002904D02800FFF784FE73
:104CD000002819D1109A237D01920F9A3900009271
:104CE00028000E9AFFF750FD0EE0109B227B0493E4
:104CF000FF230390019300900300C9B2029628009D
:104D0000FFF7D2FC0028DDD009B0F0BD0148FBE779
:104D10000148F9E78000B2000400B200F0B51F00BE
:104D20008B6989B09C680500002C43D0002A43D0D1
:104D30004869C6B24869002800D10E7821682079F8
:104D4000C9B20791109902960491002103916179EB
:104D500001911B6807990093130002002800FFF7D8
:104D6000A3FC002824D1A1684B1C12D12169002981
:104D700004D02800FFF730FE002819D1109A237DB7
:104D800001920F9A3900009228000E9AFFF730FD29
:104D90000EE0109B227B0493FF230390019300906D
:104DA0000300C9B202962800FFF77EFC0028DDD080
:104DB00009B0F0BD0148FBE70148F9E78000B20007
:104DC0000400B200F0B58C46002800D101BE836912
:104DD0005868904219D31D6D002D03D00020DF6C60
:104DE000874201D10A480DE08300EC582668B242A0
:104DF00009D3E36861684B439B199A4203D2634627
:104E000000201C60F0BD0130EAE70248FAE7C04626
:104E10000600B2000400B200F0B58BB006900D00A1
:104E200014000793002900D101BE002C31D00022CC
:104E30002300AE69099231687769611899421FD1E0
:104E400009A92800FFF7BEFF002F20D03A79FF2ADA
:104E50001DD0114B98421AD0002816D1099B996891
:104E6000079B01920493012303932B78C9B2029309
:104E70003368069800932300FFF716FC0BB0F0BDD3
:104E80001878120202430133D8E73968E8E703488B
:104E9000F4E70148F2E7C0460400B2008000B20027
:104EA000F0B5D5B008900C0009921E00002900D181
:104EB00001BE002310AA1380937011AA138093706F
:104EC00012AA13809370626B22AD06921A005A5593
:104ED0000133642BFBD1320009990898FFF7B2FB2C
:104EE000069B002B03D16A4F380055B0F0BD5A9B8A
:104EF00001950293382310AA00930699099B0898FC
:104F0000FFF7EEFD071EEFD1AB79062BEBD82B7820
:104F1000532BE8D16B78462BE5D1AB78442BE2D10B
:104F2000EB78502BDFD12B79052BDCD96B790A93E9
:104F3000012BD8D1002513AB11AA22A955481395EE
:104F4000FFF70EFE14AB12AA22A953481495FFF7DF
:104F500007FE524B984201D1E5642565FF2015AB51
:104F600010AA22A900021595FFF7FAFD071EBBD172
:104F7000A368002B00D101BEE368002B00D101BE65
:104F80002369002B00D101BE6369002B00D101BE53
:104F9000E369002B00D101BE236A002B00D101BEC2
:104FA000A36A002B00D101BE5A9B22AD0293159B30
:104FB00010AA00930699099B01950898FFF790FDA8
:104FC000012207901000297F16AB8840179010002F
:104FD000697F1970A97F8840E97F1A901973692148
:104FE00008A809181000C97F88406A211D9008A8E8
:104FF0000918C97F19766B210918C97F23AB8A402C
:105000002092DA7F3D231B18DA77AB7800225B070A
:105010009B0F032B01D0224AD25C239B2260002BE2
:1050200030DB0133DB080122110063602CAB1B78FD
:1050300004201B09994006236162E1680B6000238C
:105040000B7121690B7108600521A263A26A1371BB
:10505000E36A1160002B00D101BE236B002B00D14D
:1050600001BE0022236B08A91A71A23252181078CF
:105070004006400F05281BD8012203F01FFD13DF57
:10508000E5EBDFDF8022033B12061343CBE7C0468C
:105090000500B20084FF000081FF00008000B20024
:1050A000E0A51D1001225242E2631A60E36A1A6011
:1050B0006022E3691F251A6000221A710F232B9AC0
:1050C0002C991A40013250000A0E2A400132424304
:1050D0004800BB4B800F4000C05A0F23424362641C
:1050E0000A0A15400B404022890400D4383A0220B5
:1050F000013301355B006B43534322AAA364A568C7
:1051000093788643012E00D1ABE02021194000D1D5
:10511000C1E0537A68712B6000232B71137A5B090D
:1051200000D0B4E0013BAB601F2222AB1B7A052606
:1051300013402B6102232B752368042B00D0EEE172
:1051400031AB1B785A0600D49E4F0120034229D070
:105150009B0712D5E368002B0FD019681A795A9B68
:1051600003900493099BC9B20293FF230193002388
:1051700008980093FFF798FA0700924B9F4201D0DE
:10518000002F20D15A9B0022049301230393099BF3
:1051900000920293FF23B721019308981300FFF7B1
:1051A00083FA0700002F0ED15A9B11AA02933BAB42
:1051B0000193139B069900930898099BFFF790FCB5
:1051C000071E00D1A5E0012054AB1B18C93B1A787B
:1051D000012393401B38A36143080B930F232B9E9D
:1051E0000020334001335B000793FA239B009C4669
:1051F00018AD3300C3401F211A090A405B0A1C394D
:105200000B407D31022B06D06146032B03D01021C9
:10521000012B00D00F39079B01325A434A43073014
:105220002A600C351C28E4D10B9B1038584354AB32
:1052300018180538FF3883682364D9E00221E16338
:105240001A60E36A352232E74021E1631A60E36ABB
:1052500005222CE78022E263423A1A60E36A0132B7
:1052600025E71021194033D0D37B6E712B600023CA
:105270002B71937B5B0927D1013BAB601F2222ABD3
:105280009B7B032613402B6101232B7554E7FF23DF
:105290002873AB6048E7FF265B0600D44CE7D37A5F
:1052A00029712B606971937A5B090AD1013BAB606C
:1052B0001F2222AB9B7A042613402B6102232B75FD
:1052C0003AE7AE602973F3E7FF232E73AB60D5E7AF
:1052D000334015D0537B29712B606971137B5B09B7
:1052E0000AD1013BAB601F2222AB1B7B022613407D
:1052F0002B6101232B751FE7FF232973AB60F2E7B6
:1053000003222A60043A2B716B71AA602B612B7502
:1053100012E7013E3B9B042E09D8300003F0CEFB80
:105320001D19151103009B0601D5EC232B60236A80
:105330003B9A042E54D8300003F0C0FBE2E2E23185
:105340001300DB06F3D56C23F0E71B07EFD5BC2376
:10535000ECE75B07EBD53C23E8E79B07E7D50C239D
:10536000E4E7802501206D0015404042002D0AD061
:105370003E2200211A603C3A19715A7198601A73E2
:1053800019611A752CE0802111401DD034221D7145
:105390001A605D7198601D731D61323AF1E78021DA
:1053A00001201140404200290ED034221A60002210
:1053B00098601A715A711A731A610232E1E7C04695
:1053C000E4A51D108000B20040252A4000D18FE0E6
:1053D000122219711A60597198601973196119753F
:1053E00016AA3BA92000FFF71FFB002800D0EBE620
:1053F000236D002B00D177E55A9B12AA029322ABB2
:105400000193149B069900930898099BFFF768FB8A
:10541000071E00D068E50600149B3B900B93814B60
:10542000069007930221069A22ABD25C0A4000D173
:1054300088E0079B002B51D1692208AB6831C9185D
:10544000D2180698069B105CCB5CB04200D0CCE032
:105450005A1CD2B2E264012A46D90025226D9B0073
:105460000B92069A09950432D3180C93069B089365
:105470006821099B5B190993089B04330893089AD8
:1054800008AB5B18995C0F23194000230A9A0A4263
:1054900000D1B5E06820089908AA12185258150AD8
:1054A0000D920A0006990135521A0B99043A8E584A
:1054B000099A2D0232600C22534316AAD3181A7887
:1054C0005968B2609A6832618D4200D3A2E001232C
:1054D000F5607360089B0C9A9342C9D1079B1A0030
:1054E000504B9A4200D09BE00023E3642365FBE429
:1054F00002211A7119605A7198601A731A6140E793
:1055000040210A404139002A06D012221A600022A6
:105510001A715A719960F0E702201860F8E70222C8
:10552000236A01211A60002249421A715A71996056
:105530001A731A611A7522A916AA2000FFF774FAC5
:10554000079F52E706995B18D87859780C901F206E
:1055500007919B7808A9401802709B090320012B32
:1055600005D0181E03D00420022B00D02068069D11
:105570000022AC463BAB844490422ED15A9A099902
:1055800004920022029100900392019207990898D8
:10559000FFF78AF80790002815D11F2508ABED18F2
:1055A0005A9B01220093290003000898FFF754F941
:1055B0000790002807D17600F3B20C9A2E78164097
:1055C000721E96411E43069B08330693069A0B9B58
:1055D000934200D326E7144F86E4654622A9AD1A0C
:1055E0004D19ED789D540132C6E7069802339B00B1
:1055F000C318069306980B9B834200D321E7EAE782
:1056000001335200DBB2D2B2052B00D03FE7064A8D
:1056100007923FE7F160280003F064FA706059E7F1
:10562000079F61E40600B2000700B200F0B589B040
:1056300002900792002800D111E1002900D10EE16B
:105640004B680593002B00D109E1002A00D106E147
:105650000B680693002B00D101E10023C0260393C1
:105660000493B602039B059A9B00D458002C00D1EA
:10567000D9E023785A1E012A06D90422043B934319
:10568000DBB2002B00D001BE237A032B00D901BE70
:10569000A369002B00D101BE2278501E072800D933
:1056A000DBE003F00BFA04D1DAD4DADADAD78021BE
:1056B000029B09015D18237A29686A4F180430405B
:1056C0003940014329600421606808400DD00799E2
:1056D00002980091A169FFF7E3FB002805D0082399
:1056E000039A9340049A1A430492A3691B68013BEE
:1056F000032B00D901BE002800D094E063689B070B
:1057000000D490E02169E06803F072FA002900D02B
:1057100001BE2369544A934202D95A1E134200D053
:1057200001BEFF218C466746E168A069B9438268E3
:10573000036AA96021694942B943E960016803200D
:10574000013901406069471EB841000201432962E6
:10575000002A2DD010680021471C08D0674607405A
:105760008020117900060904314007433943296438
:10577000517990680904314069640021471C07D0C1
:105780008027117BC0B209043F06314038430143F2
:105790000020A9641169814205D01F300139014000
:1057A000802000060843E864127D120432402A6516
:1057B000002B2CD019680022481C07D080201A79B1
:1057C000C9B212040006324001430A432A665A79DC
:1057D0009968120432406A660022481C07D0802073
:1057E0001A7BC9B212040006324001430A43002169
:1057F000AA661A698A4205D01F31013A0A408021FF
:1058000009061143E9661B7D1B0433402B67022107
:105810006268FF3111408022237A12061B04334054
:105820000A4313432B60039B01330393039A069BA4
:10583000934200D016E70020049B002B02D0B22038
:105840000004184309B0F0BD029B882131E7029B98
:1058500090212EE7029B98212BE70448ECE70348B0
:10586000F0E7C046FFFFFCFFFFFF00000400B200AE
:10587000F7B50F00009015000193960800D101368E
:105880002C00B54200D934002D1B0C4B20009C424B
:1058900000D91800241A80B200F080FB002CF4D14B
:1058A000019A39000098FFF7C5F9002803D0002DB0
:1058B000E6D10348FEBD2000FCE7C046FFFF000024
:1058C0000200B200F0B51F00002389B005900D0062
:1058D00016000793994200D101BE002F00D101BEEE
:1058E000AA690E9B5268F3181748934227D909B04A
:1058F000F0BD80230E9C5B029C4200D91C0031004D
:10590000AB6907AA1B68013B9954090A002BFAD11D
:105910000F990193029100943B0029000598FFF72D
:10592000FDF90028E3D10F9A03210598FFF7B2F89B
:105930000028DCD10E9B36191B1B0E933F190E9BC2
:10594000002BD6D1D3E7C0460400B200F0B51F004B
:10595000002389B004900C0015000793994200D1F0
:1059600001BE002F00D101BEA2690E9B5168EB1849
:105970008B4243D8536A224805930E9B002B01D1DA
:1059800009B0F0BD0599280003F032F90E9B059A85
:105990005B180E9E934200D3561A0F9A210004986A
:1059A000FFF70EF90028EBD12900A36907AA1B68AD
:1059B000013B9954090A002BFAD10F9901930291E6
:1059C00000963B0021000498FFF750F90028D7D13A
:1059D0000F9A01210498FFF75DF80028D0D1A26941
:1059E0000F9B926C21000498FFF742FF0028C7D15B
:1059F0000E9BBF199B1BAD190E93BEE70048BFE776
:105A00000400B200F0B58BB0039300230590019120
:105A1000029208930993002900D101BE019B029ACA
:105A20009B6909A904939F691B6C01980793FFF771
:105A3000C9F9041E18D1099BDF685E681D687E43A2
:105A400073190693039B002B00D1394C029B39003C
:105A5000581B03F0CDF8002903D1354B9C4206D1E9
:105A6000334C20000BB0F0BD00250695EAE7029B01
:105A7000039A9E18069BB34209D9721E09A9019880
:105A8000FFF7A0F9041E02D1099B1D68DF68701B97
:105A9000390003F0ADF80029E3D1254B9C42DFD05B
:105AA000039B002BDDD0029A09A90198FFF78AF920
:105AB0003500041E0AD1099BDF685D681A697D43C1
:105AC0001B680792ED18B54200D93500FA23079AF2
:105AD0009B005343069326E0109A01990598FFF71F
